1POSICAO CADASTRAL0741581911301911302019113020191130                                                                                                                                
20010000019PALOMA TATO RAMOS                  000001101572910328114275282760CONSULTOR DE VENDAS 110503160301TNE119          199103282011050320160301        00000000000000000000    
50010000019PALOMA TATO RAMOS                  00000110157774158000019000LUCIMAR NUNES TATO                 19              TNE101032016                                             
60010000019PALOMA TATO RAMOS                  00000110157                                                                                0000000000013281292606                     
90010000019PALOMA TATO RAMOS                  0000011015723734851 00000000150975 19                                                                                                 
20010000086ALINE GONCALVES ALBUQUERQUE        000001111162780209108128981765SUPERVISOR DE VENDAS101206160301TNQ286          197802092010120620160301        00000000000000000000    
50010000086ALINE GONCALVES ALBUQUERQUE        00000111116774158000086009LUCILIA GONCALVES ALBUQUERQUE      86          TNE1TNQ227042016                                             
60010000086ALINE GONCALVES ALBUQUERQUE        00000111116                                                                                0000000000012857480549                     
90010000086ALINE GONCALVES ALBUQUERQUE        000001111161042915  00001000228093 86                                                                                                 
3001000008601LEONARDO RICARDO PEREIRA FILHO     97080611216030186          1997080620160301            000000000000000014490642725774158000086017ALINE ALBUQUERQUE PEREIRA          
3001000008602EDUARDO RICARDO PEREIRA            04060611216030186          2004060620160301            000000000000000014490643705774158000086025ALINE ALBUQUERQUE PEREIRA          
3001000008603NICKOLAS OLIVEIRA ALBUQUERQUE      10062311216030186          2010062320160301            000000000000000020884910741774158000086033ALINE ALBUQUERQUE PEREIRA          
20010000124JULIANI CARDOSO ROGATI             000001161622900419239587982843ASSISTENTE COMERCIAL100728160301TNE1124         199004192010072820160301        00000000000000000000    
50010000124JULIANI CARDOSO ROGATI             00000116162774158000124008MARIA HELENA CARDOSO DE SOUZA      124             TNE101032016                                             
60010000124JULIANI CARDOSO ROGATI             00000116162                                                                                0000000000020786625206                     
90010000124JULIANI CARDOSO ROGATI             000001161621041851  00037000005818 124                                                                                                
3001000012401LEONARDO DE SOUSA ROGATI           910102121180701124         1991010220180701            000000000000000037471455829774158000124016IRENE C MARTINS SOUSA ROGATI       
20010000132JOSE LEITE RIBEIRO TAVARES         000001180021710927240350592349GERENTE COMERCIAL I 080218160301TNQ2132         197109272008021820160301        20170601000000000000    
50010000132JOSE LEITE RIBEIRO TAVARES         00000118002774158000132001MARIA FIGUEIRA LEITE               132             TNQ201032016                                             
60010000132JOSE LEITE RIBEIRO TAVARES         00000118002                                                                                0000000000012705599772                     
90010000132JOSE LEITE RIBEIRO TAVARES         000001180021041851  00037000005753 132                                                                                                
3001000013201LUCIDIA DE MEDEIROS TAVARES        710811221160301132         1971081120160301            201706010000000078909953420774158000132019ZELIA MARIA DE MEDEIROS            
3001000013202MATEUS DE MEDEIROS TAVARES LEITE   080324112160301132         2008032420160301            201706010000000015341971418774158000132027LUCIDIA DE MEDEIROS TAVARES        
3001000013203ILANA DE MEDEIROS TAVARES LEITE    100615212160301132         2010061520160301            201706010000000015341891490774158000132035LUCIDIA DE MEDEIROS TAVARES        
20010000140PALOMA SANTANA TEIXEIRA            000001180132880227206601263460CONSULTOR DE VENDAS 100413160301TNE1140         198802272010041320160301        00000000000000000000    
50010000140PALOMA SANTANA TEIXEIRA            00000118013774158000140004MARTA SANTANA TEIXEIRA             140             TNE101032016                                             
60010000140PALOMA SANTANA TEIXEIRA            00000118013                                                                                0000000000016604553079                     
90010000140PALOMA SANTANA TEIXEIRA            000001180131040037  00001000088412 140                                                                                                
3001000014001SEVERINO RAMOS BARBOSA LEITE       820728121160301140         1982072820160301            000000000000000004388645494774158000140012MARIA DE LOURDES NENDES BARBOSA    
3001000014002MIGUEL SANTANA BARBOSA             181017112181024140         2018101720181024            000000000000000000000000000774158000140020PALOMA SANTANA TEIXEIRA BARBOSA    
20010000159THALITA MENDES DE ALMEIDA LIMA     000001180232891208207305331406CONSULTOR DE VENDAS 110110160301TNE1159         198912082011011020160301        00000000000000000000    
50010000159THALITA MENDES DE ALMEIDA LIMA     00000118023774158000159004SALEILZA MENDES DA SILVA           159             TNE101032016                                             
60010000159THALITA MENDES DE ALMEIDA LIMA     00000118023                                                                                0000000000016600866684                     
90010000159THALITA MENDES DE ALMEIDA LIMA     000001180233410372  00000000888776 159                                                                                                
3001000015902MARINA MENDES LIMA                 091216212160301159         2009121620160301            000000000000000011444502417774158000159020THALITA MENDES DE ALMEIDA LIMA     
20010000175ROSIMERES MARIA DA SILVA           000001180292810512204351934492CONSULTOR DE VENDAS 110404160301TNE1175         198105122011040420160301        00000000000000000000    
50010000175ROSIMERES MARIA DA SILVA           00000118029774158000175000SEVERINA ARAUJO DA SILVA           175             TNE101032016                                             
60010000175ROSIMERES MARIA DA SILVA           00000118029                                                                                0000000000019027403999                     
90010000175ROSIMERES MARIA DA SILVA           000001180291040037  00001000290220 175                                                                                                
3001000017501EDVALDO ROSENO VIANA GOMES         820225121160301175         1982022520160301            000000000000000001224135474774158000175018TEREZINHA VIANA GOMES              
3001000017502HENRIQUE SILVA ROSENO VIANA GOMES  140426112160301175         2014042620160301            000000000000000000000000000774158000175026ROSIMERES MARIA SILVA VIANA GOMES  
20010000183MARINALVA DE FREITAS COSTA         000001190122781225174292811334SUPERVISOR DE VENDAS090720160301TNE1183         197812252009072020160301        00000000000000000000    
50010000183MARINALVA DE FREITAS COSTA         00000119012774158000183004MARIA IRIS DE FREITAS LIMA         183             TNE101032016                                             
60010000183MARINALVA DE FREITAS COSTA         00000119012                                                                                0000000000012855657190                     
90010000183MARINALVA DE FREITAS COSTA         0000011901223706939 00000000003050 183                                                                                                
3001000018301MARCOS GUILHERME DE FREITAS COSTA  080305212160301183         2008030520160301            000000000000000009453383333774158000183012MARINALVA DE FREITAS COSTA         
3001000018302BRYAN DE FREITAS SOUSA             190208112190228183         2019020820190228            000000000000000010335572340774158000183020MARINALVA DE FREITAS COSTA         
20010000191DESYANE O GUIMARAES NASCIMENTO     000001190272790429179275060304CONSULTOR DE VENDAS 100901160301TNE1191         197904292010090120160301        00000000000000000000    
50010000191DESYANE O GUIMARAES NASCIMENTO     00000119027774158000191007MARIA ERIKA BARBOSA DE OLIVEIRA    191             TNE101032016                                             
60010000191DESYANE O GUIMARAES NASCIMENTO     00000119027                                                                                0000000000013180567197                     
90010000191DESYANE O GUIMARAES NASCIMENTO     0000011902723704529 00000002991535 191                                                                                                
3001000019101VITORIA H GUIMARAES NASCIMENTO     040618212160301191         2004061820160301            000000000000000000000000000774158000191015DESYANE OLIVEIRA GUIMARAES NASCIME 
3001000019102JOAO VITOR GUIMARAES DO NASCIMENTO 121120112160301191         2012112020160301            000000000000000009109931309774158000191023DESYANE OLIVEIRA GUIMARAES NASCIME 
20010000205ANDREZA SANTOS HUMSI RAYES         000001200182761030183461400106CONSULTOR DE VENDAS 100809160301TNE1205         197610302010080920160301        00000000000000000000    
50010000205ANDREZA SANTOS HUMSI RAYES         00000120018774158000205005RITA CASSIA SANTOS HUMSI RAYES     205             TNE101032016                                             
60010000205ANDREZA SANTOS HUMSI RAYES         00000120018                                                                                0000000000012629804382                     
90010000205ANDREZA SANTOS HUMSI RAYES         000001200181041568  00013000802518 205                                                                                                
3001000020501NICOLE B SANTOS RAYES FRANCISCO    150427212160301205         2015042720160301            000000000000000008769500126774158000205013ANDREZA S HUMSI RAYES FRANCISCO    
3001000020502CLAUDIO HENRIQUE PEREIRA FRANCISCO 781104121190520205         1978110420190520            000000000000000082673586172774158000205021MARIA JOSE PEREIRA FRANCISCO       
3001000020503ALICE SANTOS HUMSI RAYES FRANCISCO 190326212190517205         2019032620190517            000000000000000000000000000774158000205039ANDREZA SANTOS HUMSI RAYES         
20010000264ANTONIA DE SOUSA GOMES FEIJAO      000000130862601013269236259715AUXILIAR DE SERVICOS100503160301TNE1264         196010132010050320160301        00000000000000000000    
50010000264ANTONIA DE SOUSA GOMES FEIJAO      00000013086774158000264002ANTONIA CAMELO DE SOUSA            264             TNE101032016                                             
60010000264ANTONIA DE SOUSA GOMES FEIJAO      00000013086                                                                                0000000000012285337371                     
90010000264ANTONIA DE SOUSA GOMES FEIJAO      00000013086                        264                                                                                                
3001000026401ANTONIO EGBERTO FEIJAO             550607121160301264         1955060720160301            000000000000000062906240753774158000264010ODELE MUNIZ FEIJAO                 
20010000280SAMUEL DE FRANCA PESSOA JUNIOR     000000130972830427210588732702CONSULTOR DE VENDAS 110317160301TNE1280         198304272011031720160301        00000000000000000000    
50010000280SAMUEL DE FRANCA PESSOA JUNIOR     00000013097774158000280008MARIA JOSE DE CARVALHO PESSOA      280             TNE101032016                                             
60010000280SAMUEL DE FRANCA PESSOA JUNIOR     00000013097                                                                                0000000000013014510628                     
90010000280SAMUEL DE FRANCA PESSOA JUNIOR     000000130971042915  00001000200482 280                                                                                                
3001000028001ALESSANDRA RODRIGUES BARROS        920512221160301280         1992051220160301            000000000000000014236254719774158000280016ELIZANGELA RODRIGUES DA CRUZ       
3001000028002EMANUELLE RODRIGUES PESSOA         141216212160301280         2014121620160301            000000000000000000000000000774158000280024ALESSANDRA RODRIGUES BARROS        
20010000302ANA PAULA RODRIGUES BRAGA RAMALHO  000001331272880812107096041494CONSULTOR DE VENDAS 100601160301TNE1302         198808122010060120160301        00000000000000000000    
50010000302ANA PAULA RODRIGUES BRAGA RAMALHO  00000133127774158000302000TERESA CLEA RODRIGUES RAMALHO      302             TNE101032016                                             
60010000302ANA PAULA RODRIGUES BRAGA RAMALHO  00000133127                                                                                0000000000012994567646                     
90010000302ANA PAULA RODRIGUES BRAGA RAMALHO  000001331271040033  00000100324610 302                                                                                                
3001000030201MATEUS LEVI RAMALHO DE OLIVEIRA    160410112160501302         2016041020160501            000000000000000014188008482774158000302018ANA PAULA RODRIGUES BRAGA RAMALHO  
20010000310MARIA BETANIA SILVA DA TRINDADE    000001331462770921103122049490CONSULTOR DE VENDAS 110601160301TNE1310         197709212011060120160301        00000000000000000000    
50010000310MARIA BETANIA SILVA DA TRINDADE    00000133146774158000310003MARIA GISELDA SILVA DA TRINDADE    310             TNE101032016                                             
60010000310MARIA BETANIA SILVA DA TRINDADE    00000133146                                                                                0000000000012623248011                     
90010000310MARIA BETANIA SILVA DA TRINDADE    0000013314623722500 00000000701335 310                                                                                                
3001000031001MURILO GABRIEL TRINDADE TENORIO    120518112160301310         2012051820160301            000000000000000000000000000774158000310011MARIA BETANIA SILVA DA TRINDADE    
20010000329CARLA C GUILHERME SILVA MARQUES    000001331582860131206039889462CONSULTOR DE VENDAS 110701160301TNE1329         198601312011070120160301        00000000000000000000    
50010000329CARLA C GUILHERME SILVA MARQUES    00000133158774158000329003CARMEM LUCIA GUILHERME DA SILVA    329             TNE101032016                                             
60010000329CARLA C GUILHERME SILVA MARQUES    00000133158                                                                                0000000000020083999757                     
90010000329CARLA C GUILHERME SILVA MARQUES    0000013315800133936 00000000367273 329                                                                                                
3001000032901JOSE WELLINGTON MARQUES            770116121160301329         1977011620160301            000000000000000084163674420774158000329011MARIA PETRUCIA DOS SANTOS          
3001000032902LIVIA MARINA GUILHERME MARQUES     140221212160301329         2014022120160301            000000000000000000000000000774158000329029CARLA C GUILHERME SILVA MARQUES    
3001000032903LAVINIA ISABELE GUILHERME MARQUES  140221212160301329         2014022120160301            000000000000000000000000000774158000329037CARLA C GUILHERME SILVA MARQUES    
20010000353REGINA HELENA NERY BEZERRA         000000140552810107103679475446CONSULTOR DE VENDAS 100804160301TNE1353         198101072010080420160301        00000000000000000000    
50010000353REGINA HELENA NERY BEZERRA         00000014055774158000353003ELIANE NERY DA SILVA               353             TNE101032016                                             
60010000353REGINA HELENA NERY BEZERRA         00000014055                                                                                0000000000020319748760                     
90010000353REGINA HELENA NERY BEZERRA         000000140551041582  00000000031158 353                                                                                                
3001000035301HELENA PATRICIA NERY DOS SANTOS    000331212160301353         2000033120160301            000000000000000012494981476774158000353011REGINA HELENA NERY BEZERRA         
3001000035302LUCAS RODRIGO NERY DOS SANTOS      000331112160301353         2000033120160301            000000000000000012494971403774158000353029REGINA HELENA NERY BEZERRA         
20010000361EDVANE PEREIRA DE OLIVEIRA         000000170052801011101387612565SUPERVISOR DE VENDAS060701160301TNQ2361         198010112006070120160301        00000000000000000000    
50010000361EDVANE PEREIRA DE OLIVEIRA         00000017005774158000361006MARIA ROSA DE JESUS                361             TNQ201032016                                             
60010000361EDVANE PEREIRA DE OLIVEIRA         00000017005                                                                                0000000000012857045079                     
90010000361EDVANE PEREIRA DE OLIVEIRA         000000170051040063  00001000064361 361                                                                                                
20010000370CAROLINE MOREIRA CHAMUSCA          000000170982880307202548281590ASSISTENTE COMERCIAL090923160301TNQ2370         198803072009092320160301        00000000000000000000    
50010000370CAROLINE MOREIRA CHAMUSCA          00000017098774158000370007MARIA FLORA DOS SANTOS MOREIRA     370         TNE1TNQ207062016                                             
60010000370CAROLINE MOREIRA CHAMUSCA          00000017098                                                                                0000000000012833339080                     
90010000370CAROLINE MOREIRA CHAMUSCA          000000170981041509  00001300185460 370                                                                                                
3001000037001MARCELO CHAMUSCA DE LUNA           801223121160301370         1980122320160301            000000000000000080181465515774158000370015KATIA OLIVEIRA CHAMUSCA            
3001000037002GUILHERME MOREIRA CHAMUSCA DE LUNA 140911112160301370         2014091120160301            000000000000000000000000000774158000370023CAROLINE MOREIRA CHAMUSCA          
20010000388LUCIANA DO ESPIRITO SANTO ARAUJO   000000171242710322265139348500CONSULTOR DE VENDAS 100719160301TNE1388         197103222010071920160301        00000000000000000000    
50010000388LUCIANA DO ESPIRITO SANTO ARAUJO   00000017124774158000388009MARILENA RIBEIRO DO ESPIRITO SANTO 388             TNE101032016                                             
60010000388LUCIANA DO ESPIRITO SANTO ARAUJO   00000017124                                                                                0000000000012515625306                     
90010000388LUCIANA DO ESPIRITO SANTO ARAUJO   0000001712423706629 00000005004489 388                                                                                                
3001000038801ULISSES SOUZA ARAUJO               811115121160301388         1981111520160301            000000000000000080569552591774158000388017MARILUCIA SOUZA ARAUJO             
3001000038802ANA BEATRIZ ESPIRITO SANTO ARAUJO  120417212160301388         2012041720160301            000000000000000023927405850774158000388025LUCIANA DO ESPIRITO SANTO ARAUJO   
20010000400JACIRA SOFIA DOS SANTOS            000000171322700303102023704707AUXILIAR DE SERVICOS100722160301TNE1400         197003032010072220160301        00000000000000000000    
50010000400JACIRA SOFIA DOS SANTOS            00000017132774158000400002TEREZINHA SOFIA DOS SANTOS         400             TNE101032016                                             
60010000400JACIRA SOFIA DOS SANTOS            00000017132                                                                                0000000000012633821075                     
90010000400JACIRA SOFIA DOS SANTOS            000000171321040063  00001000072798 400                                                                                                
3001000040001LUCAS SANTANA DOS SANTOS           960717112160301400         1996071720160301            000000000000000006062433569774158000400010JACIRA SOFIA DOS SANTOS            
3001000040002ERICA SANTANA DOS SANTOS           001117112160301400         2000111720160301            000000000000000006062432597774158000400028JACIRA SOFIA DOS SANTOS            
20010000418DANIELLE BARBOSA DUARTE            000001800102830513106230700654CONSULTOR DE VENDAS 111020160301TNE1418         198305132011102020160301        00000000000000000000    
50010000418DANIELLE BARBOSA DUARTE            00000180010774158000418004RITA BARBOSA                       418             TNE101032016                                             
60010000418DANIELLE BARBOSA DUARTE            00000180010                                                                                0000000000012795621101                     
90010000418DANIELLE BARBOSA DUARTE            000001800101040085  00013009020611 418                                                                                                
3001000041801LARISSA ANTONELLA DUARTE NUNES     051218212160301418         2005121820160301            000000000000000015650525609774158000418012DANIELLE BARBOSA DUARTE            
20010000434MARIA LUCIA DA SILVA               000000181102730306179916961115CONSULTOR DE VENDAS 101122160301TNE1434         197303062010112220160301        00000000000000000000    
50010000434MARIA LUCIA DA SILVA               00000018110774158000434001MARIA DE LOURDES DO NASCIMENTO MELO434             TNE101032016                                             
60010000434MARIA LUCIA DA SILVA               00000018110                                                                                0000000000012528540738                     
90010000434MARIA LUCIA DA SILVA               000000181101041041  00001000085639 434                                                                                                
3001000043401BERNARDO COELHO LIMA               680211121190315434         1968021120190315            000000000000000044320949153774158000434019MARIA VIRGILINA COELHO LIMA        
20010000507GLAUBER LARANJEIRA DO NASCIMENTO   000088002112840313204894708400SUPERVISOR DE VENDAS111002160301TNE1507         198403132011100220160301        00000000000000000000    
50010000507GLAUBER LARANJEIRA DO NASCIMENTO   00008800211774158000507004MARIA LARANJEIRA DO NASCIMENTO     507             TNE101032016                                             
60010000507GLAUBER LARANJEIRA DO NASCIMENTO   00008800211                                                                                0000000000020625824525                     
90010000507GLAUBER LARANJEIRA DO NASCIMENTO   000088002111210001  00000000118664 507                                                                                                
3001000050701AMELIA FATIMA FERREIRA NASCIMENTO  881003221160301507         1988100320160301            000000000000000006023367402774158000507012MARIA DE FATIMA SILVA FERREIRA     
3001000050702ALANNA FERREIRA NASCIMENTO         080524212160301507         2008052420160301            000000000000000071326964402774158000507020AMELIA FATIMA FERREIRA NASCIMENTO  
3001000050703ARTHUR FERREIRA NASCIMENTO         170819112170901507         2017081920170901            000000000000000000000000000774158000507038GLAUBER LARANJEIRA DO NASCIMENTO   
20010000574ALINIR PEREIRA DE ALMEIDA          000088005922910117100124325203CONSULTOR DE VENDAS 120206160301TNE1574         199101172012020620160301        00000000000000000000    
50010000574ALINIR PEREIRA DE ALMEIDA          00008800592774158000574004ANA CLAUDIA PEREIRA CASTELO        574             TNE101032016                                             
60010000574ALINIR PEREIRA DE ALMEIDA          00008800592                                                                                0000000000013344710426                     
90010000574ALINIR PEREIRA DE ALMEIDA          000088005921040632  00001000325583 574                                                                                                
3001000057401MAGNO ALEXANDRE SANTOS PAVAO       730826121170801574         1973082620170801            000000000000000041936825287774158000574012IRACEMA DOS SANTOS PAVAO           
3001000057402AGATHA ALMEIDA PAVAO               190606212190617574         2019060620190617            000000000000000008426242286774158000574020ALINIR PEREIRA DE ALMEIDA PAVAO    
20010000604MARIA MONICA BERNARDO              000088005972640502105654804804SUPERVISOR DE VENDAS120416160301TNQ2604         196405022012041620160301        00000000000000000000    
50010000604MARIA MONICA BERNARDO              00008800597774158000604009LAIDE APARECIDA TOSCHI BERNARDO    604             TNQ201032016                                             
60010000604MARIA MONICA BERNARDO              00008800597                                                                                0000000000012146004861                     
90010000604MARIA MONICA BERNARDO              000088005973416480  00000000121612 604                                                                                                
20010000612ELAINE DANIELE BARBOSA DE SOUZA    000088005982910829196339411215CONSULTOR DE VENDAS 120516160301TNE1612         199108292012051620160301        00000000000000000000    
50010000612ELAINE DANIELE BARBOSA DE SOUZA    00008800598774158000612002ROSILENE PORTAL BARBOSA            612             TNE101032016                                             
60010000612ELAINE DANIELE BARBOSA DE SOUZA    00008800598                                                                                0000000000021224773626                     
90010000612ELAINE DANIELE BARBOSA DE SOUZA    0000880059800129467 00000000442615 612                                                                                                
20010000639ERICA FRANCISCA DA SILVA           000088006062800815104863632444ASSISTENTE OPERACION120903160301TNE1639         198008152012090320160301        00000000000000000000    
50010000639ERICA FRANCISCA DA SILVA           00008800606774158000639005GILMA FRANCISCA ROQUE              639             TNE101032016                                             
60010000639ERICA FRANCISCA DA SILVA           00008800606                                                                                0000000000020033445197                     
90010000639ERICA FRANCISCA DA SILVA           0000880060623710553 00000000201049 639                                                                                                
3001000063902ARTHUR ALMEIDA DA SILVA            180619112180712639         2018061920180712            000000000000000015679938421774158000639021ERICA FRANCISCA DA SILVA           
3001000063903RAFAEL SALUSTIANO DE ALMEIDA       811114121190101639         1981111420190101            000000000000000004180562421774158000639039SONIA MARIA DA CONCEICAO DE ALMEIDA
20010000663JESSICA LUISE TEXEIRA DE OLIVEIRA  000008800611900822113768936732CONSULTOR DE VENDAS 111103160301TNE1663         199008222011110320160301        00000000000000000000    
50010000663JESSICA LUISE TEXEIRA DE OLIVEIRA  00000880061774158000663005REGINA LUCIA TEXEIRA PEREIRA       663             TNE101032016                                             
60010000663JESSICA LUISE TEXEIRA DE OLIVEIRA  00000880061                                                                                0000000000013205958542                     
90010000663JESSICA LUISE TEXEIRA DE OLIVEIRA  000008800611042915  00013000083374 663                                                                                                
20010000710SOLIMAR EULALIO DA SILVA LOPES     000088006142720917249681095391CONSULTOR DE VENDAS 121217160301TNE1710         197209172012121720160301        00000000000000000000    
50010000710SOLIMAR EULALIO DA SILVA LOPES     00008800614774158000710004MARIA JESUS MARQUES NASCIMENTO     710             TNE101032016                                             
60010000710SOLIMAR EULALIO DA SILVA LOPES     00008800614                                                                                0000000000012636849191                     
90010000710SOLIMAR EULALIO DA SILVA LOPES     0000880061400106750 00000000488399 710                                                                                                
3001000071001ERIC EULALIO LOPES                 090303212160301710         2009030320160301            000000000000000008111113340774158000710012SOLIMAR EULALIO DA SILVA LOPES     
3001000071002DANIEL BRITO LOPES                 810913121160601710         1981091320160601            000000000000000084732644368774158000710020MARIA DA CONCEICAO BRITO LOPES     
20010000728ADEMAR LEANDRO RIBEIRO SANTOS      000088006152771018278451744591CONSULTOR DE VENDAS 121217160301TNE1728         197710182012121720160301        00000000000000000000    
50010000728ADEMAR LEANDRO RIBEIRO SANTOS      00008800615774158000728006JACIRA RIBEIRO SANTOS              728             TNE101032016                                             
60010000728ADEMAR LEANDRO RIBEIRO SANTOS      00008800615                                                                                0000000000012705311035                     
90010000728ADEMAR LEANDRO RIBEIRO SANTOS      0000880061523705231 00000000768928 728                                                                                                
3001000072802JOAO VICTOR MONTEIRO RIBEIRO       100706112160301728         2010070620160301            000000000000000006067264200774158000728022ADRIANA FLAVIA LUZ MONTEIRO        
3001000072803LETICIA MONTEIRO RIBEIRO           120731212160301728         2012073120160301            000000000000000006067269260774158000728030ADRIANA FLAVIA LUZ MONTEIRO        
20010000736ROSELENE SANTOS FERREIRA           000088006222820729102562911520CONSULTOR DE VENDAS 130218160301TNE1736         198207292013021820160301        00000000000000000000    
50010000736ROSELENE SANTOS FERREIRA           00008800622774158000736009CARMEN SANTOS BOA MORTE            736             TNE101032016                                             
60010000736ROSELENE SANTOS FERREIRA           00008800622                                                                                0000000000020021922793                     
90010000736ROSELENE SANTOS FERREIRA           0000880062223714257 00000000778818 736                                                                                                
20010000744VALQUIRIA CORREIA MOURA            000088006222861222102879531578CONSULTOR DE VENDAS 130218160301TNE1744         198612222013021820160301        00000000000000000000    
50010000744VALQUIRIA CORREIA MOURA            00008800622774158000744003IRACI BATISTA CORREIA              744             TNE101032016                                             
60010000744VALQUIRIA CORREIA MOURA            00008800622                                                                                0000000000012850937063                     
90010000744VALQUIRIA CORREIA MOURA            0000880062200109040 00000000807672 744                                                                                                
3001000074401NICOLE MOURA BISPO                 180105212180201744         2018010520180201            000000000000000010024322512774158000744011VALQUIRIA CORREIA MOURA            
20010000752CREUZA GONCALVES DOS SANTOS        000088006232620406170957541600CONSULTOR DE VENDAS 130304160301TNE1752         196204062013030420160301        00000000000000000000    
50010000752CREUZA GONCALVES DOS SANTOS        00008800623774158000752006ANA GONCALVES DA SILVA             752             TNE101032016                                             
60010000752CREUZA GONCALVES DOS SANTOS        00008800623                                                                                0000000000010874087551                     
90010000752CREUZA GONCALVES DOS SANTOS        000088006231044157  00001000228919 752                                                                                                
20010000760OZEAS BEZERRA BARROSO              000088006242831228281007175249GERENTE REGIONAL DE 130304160301TNQ2760         198312282013030420160301        00000000000000000000    
50010000760OZEAS BEZERRA BARROSO              00008800624774158000760009TEREZA BEZERRA BARROSO             760             TNQ201032016                                             
60010000760OZEAS BEZERRA BARROSO              00008800624                                                                                0000000000012845696029                     
90010000760OZEAS BEZERRA BARROSO              0000880062423713641 00000000494895 760                                                                                                
3001000076001LUIZA CLEIDIANE BEZERRA DE LIMA    870710221160301760         1987071020160301            000000000000000000600033244774158000760017FRANCISCA FRANCIRENE BEZERRA       
3001000076002PEDRO LUCAS DE LIMA BARROSO        140320112160301760         2014032020160301            000000000000000007492086270774158000760025LUIZA CLEIDIANE BEZERRA DE LIMA    
20010000795CINTIA ARAUJO SANTANA              000088006292890814203690101590CONSULTOR DE VENDAS 130506160301TNE1795         198908142013050620160301        00000000000000000000    
50010000795CINTIA ARAUJO SANTANA              00008800629774158000795005JOSINETE SILVA DE ARAUJO SANTANA   795             TNE101032016                                             
60010000795CINTIA ARAUJO SANTANA              00008800629                                                                                0000000000012989597761                     
90010000795CINTIA ARAUJO SANTANA              000088006291044477  00000100204521 795                                                                                                
3001000079501DANILO OLIVEIRA SOUZA ARAUJO       890315121160301795         1989031520160301            000000000000000004563172529774158000795013MARIA ROSIMARIA GAMA DE OLIVEIRA   
3001000079502BENJAMIM ARAUJO OLIVEIRA           181018112181101795         2018101820181101            000000000000000010747322511774158000795021CINTIA ARAUJO SANTANA OLIVEIRA     
20010000817NARCIZO MARQUES PINTO JUNIOR       000088006301821120170877947287GERENTE REGIONAL DE 130506160301TNQ2817         198211202013050620160301        00000000000000000000    
50010000817NARCIZO MARQUES PINTO JUNIOR       00008800630774158000817007MARIA DO SOCORRO NASCIMENTO PINTO  817             TNQ201032016                                             
60010000817NARCIZO MARQUES PINTO JUNIOR       00008800630                                                                                0000000000012737980021                     
90010000817NARCIZO MARQUES PINTO JUNIOR       0000880063023723892 00000000495972 817                                                                                                
3001000081701ENZO DE OLIVEIRA MARQUES PINTO     120725212160601817         2012072520160601            000000000000000000000000000774158000817015ALYANNE NOBRE DI TOMMASO           
20010000825JANAINA SILVA LEITE                000088006302800425130459107852CONSULTOR DE VENDAS 130506160301TNE1825         198004252013050620160301        00000000000000000000    
50010000825JANAINA SILVA LEITE                00008800630774158000825000RAIMUNDA DA SILVA                  825             TNE101032016                                             
60010000825JANAINA SILVA LEITE                00008800630                                                                                0000000000012970523770                     
90010000825JANAINA SILVA LEITE                000088006303413095  00000000123695 825                                                                                                
3001000082501PALOMA LEITE SANTOS                991002212160301825         1999100220160301            000000000000000042011995841774158000825018JANAINA SILVA LEITE                
3001000082502MARIA EDUARDA LEITE SANTOS         030705212160301825         2003070520160301            000000000000000053710120870774158000825026JANAINA SILVA LEITE                
3001000082503KAUAN LEITE SANTOS                 050728112160301825         2005072820160301            000000000000000053710148880774158000825034JANAINA SILVA LEITE                
3001000082504MARIA ANTONIA LEITE DE SOUZA       160427212160501825         2016042720160501            000000000000000051231419873774158000825042JANAINA SILVA LEITE                
3001000082505JOSE FLAVIO DE SOUZA               780629121180920825         1978062920180920            000000000000000026813191888774158000825059NILZA ANTONIA MARIA DE SOUZA       
20010000833JONATAS FREITAS SILVA              000088006372930910143029008819CONSULTOR DE VENDAS 130520160301TNE1833         199309102013052020160301        00000000000000000000    
50010000833JONATAS FREITAS SILVA              00008800637774158000833004ROSILEIDE FREITAS SILVA            833             TNE101032016                                             
60010000833JONATAS FREITAS SILVA              00008800637                                                                                0000000000016253337867                     
90010000833JONATAS FREITAS SILVA              0000880063723728207 00000000220035 833                                                                                                
20010000850VERONICA DE SOUZA BARROS SILVA     000088006442760616296320770406AUXILIAR DE SERVICOS130701160301TNE1850         197606162013070120160301        00000000000000000000    
50010000850VERONICA DE SOUZA BARROS SILVA     00008800644774158000850008MARIA ELZA DE SOUZA                850             TNE101032016                                             
60010000850VERONICA DE SOUZA BARROS SILVA     00008800644                                                                                0000000000012771769451                     
90010000850VERONICA DE SOUZA BARROS SILVA     000088006441043262  00013000005296 850                                                                                                
3001000085001MANUEL FRANCISCO BARROS SILVA      661225121160301850         1966122520160301            000000000000000030055415334774158000850016ANALIA DE BARROS SILVA             
3001000085002GABRIELLA SOUZA SILVA              990226212160301850         1999022620160301            000000000000000046369429813774158000850024VERONICA DE SOUZA BARROS SILVA     
3001000085003MANOELA SOUZA SILVA                990226212160301850         1999022620160301            000000000000000046369416835774158000850032VERONICA DE SOUZA BARROS SILVA     
20010000892DHEBORA FRONDANA LACZO MARTINS     000088006472890823137586674884CONSULTOR DE VENDAS 130805160301TNE1892         198908232013080520160301        00000000000000000000    
50010000892DHEBORA FRONDANA LACZO MARTINS     00008800647774158000892000CLEIDE FRONDANA LACZO              892             TNE101032016                                             
60010000892DHEBORA FRONDANA LACZO MARTINS     00008800647                                                                                0000000000020686055289                     
90010000892DHEBORA FRONDANA LACZO MARTINS     000088006471040268  00001000266376 892                                                                                                
3001000089201PEDRO HENRIQUE LACZO MARTINS       080926112160301892         2008092620160301            000000000000000000000000000774158000892018DHEBORA FRONDANA LACZO MARTINS     
3001000089202GABRIELA LACZO MARTINS             120924212160301892         2012092420160301            000000000000000052422954812774158000892026DHEBORA FRONDANA LACZO MARTINS     
20010000906MARY ANNE CAVALCANTE SOARES        000088006472790925272150840278CONSULTOR DE VENDAS 130805160301TNE1906         197909252013080520160301        00000000000000000000    
50010000906MARY ANNE CAVALCANTE SOARES        00008800647774158000906008ZUZIMAR CAVALCANTE SOARES          906             TNE101032016                                             
60010000906MARY ANNE CAVALCANTE SOARES        00008800647                                                                                0000000000019011555255                     
90010000906MARY ANNE CAVALCANTE SOARES        000088006470333273  00000010881674 906                                                                                                
3001000090601ALDOMAR ALENCAR DA SILVA           771005121160301906         1977100520160301            000000000000000060520620291774158000906016MARIA VICENCIA ALENCAR DA SILVA    
3001000090602LUIZ GUSTAVO SOARES LIMA           030319112160301906         2003031920160301            000000000000000000878873201774158000906024MARY ANNE CAVLCANTE SOARES         
3001000090603HELOISA SOARES DA SILVA            170814212171001906         2017081420171001            000000000000000000000000000774158000906032MARY ANNE CAVALCANTE SOARES        
20010000914TATIANA DE SOUZA BRITTO            000088006482800830182305897553CONSULTOR DE VENDAS 130805160301TNE1914         198008302013080520160301        00000000000000000000    
50010000914TATIANA DE SOUZA BRITTO            00008800648774158000914002MARIA ROSALIA DE SOUSA BRITTO      914             TNE101032016                                             
60010000914TATIANA DE SOUZA BRITTO            00008800648                                                                                0000000000012796295054                     
90010000914TATIANA DE SOUZA BRITTO            0000880064823732662 00000000581577 914                                                                                                
20010000990CAMILLA ARAUJO                     000088006602890831207509840406CONSULTOR DE VENDAS 131104160301TNE1990         198908312013110420160301        00000000000000000000    
50010000990CAMILLA ARAUJO                     00008800660774158000990002MARIA DA PENNHA ARAUJO             990             TNE101032016                                             
60010000990CAMILLA ARAUJO                     00008800660                                                                                0000000000013486546456                     
90010000990CAMILLA ARAUJO                     0000880066023703212 00000001966170 990                                                                                                
3001000099001LUIZ G ARAUJO POLICARPO CASTRO     110810112160301990         2011081020160301            000000000000000000000000000774158000990010CAMILLA ARAUJO                     
20010001015ERIC DE BRITO REIS                 000088006621890117208625309623CONSULTOR DE VENDAS 131202160301TNE11015        198901172013120220160301        00000000000000000000    
50010001015ERIC DE BRITO REIS                 00008800662774158001015007MARIZABEL PEREIRA DE BRITO         1015            TNE101032016                                             
60010001015ERIC DE BRITO REIS                 00008800662                                                                                0000000000021029483541                     
90010001015ERIC DE BRITO REIS                 000088006621042519  00013000608865 1015                                                                                               
3001000101501LETICIA DE MORAES SCHNEIDER        8612272211701011015        1986122720170101            000000000000000009111899638774158001015015VANIA APARECIDA MORAES DA SILVA    
20010001023ADRIANA CERQUEIRA DE ARAUJO        000088006642781223203225256404COORDENADOR DE AREA 131211160301TNE11023        197812232013121120160301        00000000000000000000    
50010001023ADRIANA CERQUEIRA DE ARAUJO        00008800664774158001023001EUGENIA MARIA CERQUEIRA            1023            TNE101032016                                             
60010001023ADRIANA CERQUEIRA DE ARAUJO        00008800664                                                                                0000000000013023836859                     
90010001023ADRIANA CERQUEIRA DE ARAUJO        0000880066423702909 00000000672289 1023                                                                                               
3001000102301FRANCISCO PEREIRA DE ANDRADE JUNIOR8005081211603011023        1980050820160301            000000000000000064146790387774158001023019MARLI MARTINS DE ANDRADE           
3001000102302MARIA ALICE CERQUEIRA DE ANDRADE   1007142121603011023        2010071420160301            000000000000000000000000000774158001023027ADRIANA CERQUEIRA DE ARAUJO        
3001000102303ANA BEATRIZ CERQUEIRA DE ANDRADE   1201132121603011023        2012011320160301            000000000000000006808108382774158001023035ADRIANA CERQUEIRA DE ARAUJO        
20010001031FABIOLA ELCKY DE SA FIUZA          000088006652820209165652380306CONSULTOR DE VENDAS 131218160301TNE11031        198202092013121820160301        00000000000000000000    
50010001031FABIOLA ELCKY DE SA FIUZA          00008800665774158001031004ELEZITA BARBOSA DE SA              1031            TNE101032016                                             
60010001031FABIOLA ELCKY DE SA FIUZA          00008800665                                                                                0000000000012959479191                     
90010001031FABIOLA ELCKY DE SA FIUZA          0000880066523705649 00000006032427 1031                                                                                               
3001000103101LARISSA DE SA FIUZA                1104092121603011031        2011040920160301            000000000000000006674369365774158001031012FABIOLA ELCKY DE SA FIUZA          
3001000103102VICENTE ARLEY DE LIMA FIUZA        8012071211604011031        1980120720160401            000000000000000064064930363774158001031020FRANCISCA IARA DE LIMA FIUZA       
3001000103103SARAH DE SA FIUZA                  1705062121706011031        2017050620170601            000000000000000000000000000774158001031038FABIOLA ELCKY DE SA FIUZA          
20010001066ANA NAJARA BOMFIM VIEIRA           000088006692840702197501956391SUPERVISOR DE VENDAS140106160301TNE11066        198407022014010620160301        00000000000000000000    
50010001066ANA NAJARA BOMFIM VIEIRA           00008800669774158001066000REGINA CELIA DO BOMFIM VIEIRA      1066            TNE101032016                                             
60010001066ANA NAJARA BOMFIM VIEIRA           00008800669                                                                                0000000000013141485193                     
90010001066ANA NAJARA BOMFIM VIEIRA           000088006691040032  00001000295569 1066                                                                                               
3001000106601SARAH POLYANNA BONFIM ALVES        9902252121603011066        1999022520160301            000000000000000007006242363774158001066018ANA NAJARA BONFIM VIEIRA           
3001000106602ANA BEATRIZ BONFIM RICARTE         0304292121603011066        2003042920160301            000000000000000000000000000774158001066026ANA NAJARA BONFIM VIEIRA           
3001000106603PEDRO RIQUELME BOMFIM RICARTE      0605311121603011066        2006053120160301            000000000000000009384760331774158001066034ANA NAJARA BOMFIM VIEIRA           
20010001104JOELMIR LIMA DE LIMA               000088006712910301100335609279CONSULTOR DE VENDAS 140120160301TNE11104        199103012014012020160301        00000000000000000000    
50010001104JOELMIR LIMA DE LIMA               00008800671774158001104009ALDERIZA LIMA DE LIMA              1104            TNE101032016                                             
60010001104JOELMIR LIMA DE LIMA               00008800671                                                                                0000000000020453312610                     
90010001104JOELMIR LIMA DE LIMA               000088006711042980  00013000310375 1104                                                                                               
20010001139GLEIDE SELMA FERREIRA SANTANA      000088006752730128266183154504CONSULTOR DE VENDAS 140217160301TNE11139        197301282014021720160301        00000000000000000000    
50010001139GLEIDE SELMA FERREIRA SANTANA      00008800675774158001139005FRANCISCA FERREIRA SANTANA         1139            TNE101032016                                             
60010001139GLEIDE SELMA FERREIRA SANTANA      00008800675                                                                                0000000000012428061196                     
90010001139GLEIDE SELMA FERREIRA SANTANA      000088006751042186  00013000213489 1139                                                                                               
3001000113901GILVAN DE SOUZA LINS               7107311211603011139        1971073120160301            000000000000000053313739504774158001139013ALZIRA LINS DA CONCEICAO SOUZA     
3001000113902SARAH SUYANNE SANTANA LINS         1103052121603011139        2011030520160301            000000000000000000000000000774158001139021GLEIDE SELMA FERREIRA SANTANA      
20010001171MARTA PEREIRA DOS SANTOS           000088006782731008163746158168CONSULTOR DE VENDAS 140220160301TNE11171        197310082014022020160301        00000000000000000000    
50010001171MARTA PEREIRA DOS SANTOS           00008800678774158001171008APARECIDA LUCIA ROSA PEREIRA       1171            TNE101032016                                             
60010001171MARTA PEREIRA DOS SANTOS           00008800678                                                                                0000000000012476049648                     
90010001171MARTA PEREIRA DOS SANTOS           000088006781040258  00013000058551 1171                                                                                               
20010001180THAIS DE MESQUITA SILVA            000088006802920811114479860754CONSULTOR DE VENDAS 140310160301TNE11180        199208112014031020160301        00000000000000000000    
50010001180THAIS DE MESQUITA SILVA            00008800680774158001180009VALDECI MONTEIRO DE MESQUITA       1180            TNE101032016                                             
60010001180THAIS DE MESQUITA SILVA            00008800680                                                                                0000000000016697290855                     
90010001180THAIS DE MESQUITA SILVA            000088006800333055  00000010841188 1180                                                                                               
20010001228ANGELA MARTINS ALVES               000088006881820320105452887709CONSULTOR DE VENDAS 140415160301TNE11228        198203202014041520160301        00000000000000000000    
50010001228ANGELA MARTINS ALVES               00008800688774158001228006MARIA DE LOURDES MARTINS ALVES     1228            TNE101032016                                             
60010001228ANGELA MARTINS ALVES               00008800688                                                                                0000000000012774331600                     
90010001228ANGELA MARTINS ALVES               000088006881042264  00001000219797 1228                                                                                               
3001000122801ANA CLARA ALVES COSTA              0802032121603011228        2008020320160301            000000000000000054890371800774158001228014ANGELA MARTINS ALVES               
3001000122802MARIA EDUARDA ALVES COSTA          1010182121603011228        2010101820160301            000000000000000000000000000774158001228022ANGELA MARTINS ALVES               
3001000122803MANUELA ALVES COSTA                1010182121603011228        2010101820160301            000000000000000054890538879774158001228030ANGELA MARTINS ALVES               
3001000122804DAVI ALVES VITAGLIANO              1501191121603011228        2015011920160301            000000000000000054890242830774158001228048ANGELA MARTINS ALVES               
20010001279KADJA MINELLY SANTOS OLIVEIRA      000088006942861128101702209580CONSULTOR DE VENDAS 140513160301TNE11279        198611282014051320160301        00000000000000000000    
50010001279KADJA MINELLY SANTOS OLIVEIRA      00008800694774158001279009CELINA MARIA DOS SANTOS OLIVEIRA   1279            TNE101032016                                             
60010001279KADJA MINELLY SANTOS OLIVEIRA      00008800694                                                                                0000000000020696040381                     
90010001279KADJA MINELLY SANTOS OLIVEIRA      000088006943410847  00000000664117 1279                                                                                               
3001000127901KEVERSON YURI OLIVEIRA MENDONCA    0705071121603011279        2007050720160301            000000000000000000000000000774158001279017KADJA MINELLY SANTOS OLIVEIRA      
20010001287PAULO GEREMIAS CARVALHO FERREIRA   000088006942870526206701705421CONSULTOR DE VENDAS 140520160301TNE11287        198705262014052020160301        00000000000000000000    
50010001287PAULO GEREMIAS CARVALHO FERREIRA   00008800694774158001287002GISLANIA CARVALHO FERREIRA         1287            TNE101032016                                             
60010001287PAULO GEREMIAS CARVALHO FERREIRA   00008800694                                                                                0000000000020664954108                     
90010001287PAULO GEREMIAS CARVALHO FERREIRA   000088006941043209  00013000152737 1287                                                                                               
3001000128701FERNANDA RAFAELA RODRIGUES         8604062211603011287        1986040620160301            000000000000000006823115459774158001287010MARIA ZELIA PARANHOS RODRIGUES     
20010001309BEATRIZ DOS SANTOS NUNES           000088006942880404102569411302CONSULTOR DE VENDAS 140520160301TNQ21309        198804042014052020160301        00000000000000000000    
50010001309BEATRIZ DOS SANTOS NUNES           00008800694774158001309004JARINILA DOS SANTOS NUNES          1309        TNE1TNQ201042018                                             
60010001309BEATRIZ DOS SANTOS NUNES           00008800694                                                                                0000000000016110242293                     
90010001309BEATRIZ DOS SANTOS NUNES           000088006943410365  00000000784149 1309                                                                                               
3001000130901KAIO ROBERTO SANTOS NUNES DA SILVA 0602191121603011309        2006021920160301            000000000000000061673598307774158001309012BEATRIZ DOS SANTOS NUNES           
3001000130902FLAVIO ROGERIO SILVA PENHA         8809151211712011309        1988091520171201            000000000000000001852109378774158001309020ROSALINA DE SOUZA SILVA            
20010001376VANIA BORGES DA SILVA              000088006992850731183459294272AUXILIAR DE SERVICOS140603160301TNE11376        198507312014060320160301        00000000000000000000    
50010001376VANIA BORGES DA SILVA              00008800699774158001376003ANTONIA CARDOSO BORGES             1376            TNE101032016                                             
60010001376VANIA BORGES DA SILVA              00008800699                                                                                0000000000020147101322                     
90010001376VANIA BORGES DA SILVA              000088006991041340  00013000412515 1376                                                                                               
3001000137601ANA LUIZA BORGES FURTADO           1804022121804271376        2018040220180427            000000000000000009222984161774158001376011VANIA BORGES DA SILVA              
20010001392NARA NUBIA COELHO DE SOUZA         000088007002810619271571280120SUPERVISOR DE VENDAS140610160301TNE11392        198106192014061020160301        00000000000000000000    
50010001392NARA NUBIA COELHO DE SOUZA         00008800700774158001392000MARIA EUNICE COELHO DE SOUZA       1392            TNE101032016                                             
60010001392NARA NUBIA COELHO DE SOUZA         00008800700                                                                                0000000000013044601273                     
90010001392NARA NUBIA COELHO DE SOUZA         000088007003418624  00000000542091 1392                                                                                               
3001000139201ERBERT FRANCISCO PEREIRA           8006121211603011392        1980061220160301            000000000000000070740089153774158001392018BARBARA MARIA PEREIRA              
3001000139202HENDEW PABLO DE SOUZA PEREIRA      0008011121603011392        2000080120160301            000000000000000007624084139774158001392026NARA NUBIA COELHO DE SOUZA         
3001000139203HENZO PIETRO SE SOUZA PEREIRA      1001151121603011392        2010011520160301            000000000000000000000000000774158001392034NARA NUBIA COELHO DE SOUZA         
20010001422ALINE ALVES DE SOUSA               000088007012890430203554598330CONSULTOR DE VENDAS 140610160301TNE11422        198904302014061020160301        00000000000000000000    
50010001422ALINE ALVES DE SOUSA               00008800701774158001422005EXPEDITA ALVES FERREIRA LIMA       1422            TNE101032016                                             
60010001422ALINE ALVES DE SOUSA               00008800701                                                                                0000000000013851630199                     
90010001422ALINE ALVES DE SOUSA               000088007011040684  00013000413595 1422                                                                                               
3001000142201CARLOS DIEGO DA SILVA CRUZ         8711071211603011422        1987110720160301            000000000000000001197896392774158001422013MARIA SILENE DE LIMA SILVA CRUZ    
3001000142202MARIA FERNANDA SOUSA CRUZ          1310222121603011422        2013102220160301            000000000000000000000000000774158001422021ALINE ALVES DE SOUSA               
20010001457ROSANA RODRIGUES GUIMARAES         000088007052681228144283725153SUPERVISOR DE VENDAS140708160301TNE11457        196812282014070820160301        00000000000000000000    
50010001457ROSANA RODRIGUES GUIMARAES         00008800705774158001457001NERY RODRIGUES GUIMARAES           1457            TNE101032016                                             
60010001457ROSANA RODRIGUES GUIMARAES         00008800705                                                                                0000000000012295569917                     
90010001457ROSANA RODRIGUES GUIMARAES         000088007051040863  00001000016765 1457                                                                                               
3001000145701RODRIGO GUIMARAES SILVA            0003031121603011457        2000030320160301            000000000000000000000000000774158001457019ROSANA RODRIGUES GUIMARAES         
20010001481KLEBEA PEREIRA DA SILVA            000088007062800928208232826436CONSULTOR DE VENDAS 140708160301TNE11481        198009282014070820160301        00000000000000000000    
50010001481KLEBEA PEREIRA DA SILVA            00008800706774158001481001MARIA DALVA PEREIRA DA SILVA       1481            TNE101032016                                             
60010001481KLEBEA PEREIRA DA SILVA            00008800706                                                                                0000000000016477290430                     
90010001481KLEBEA PEREIRA DA SILVA            000088007063417147  00000000190719 1481                                                                                               
3001000148101NATALIA KETILLY SILVA NUNES        9711072121603011481        1997110720160301            000000000000000006347758121774158001481019KLEBEA PEREIRA DA SILVA            
3001000148102NAYRA KAROLINE SILVA NUNES         9904162121603011481        1999041620160301            000000000000000006697719109774158001481027KLEBEA PEREIRA DA SILVA            
3001000148103NADJA EMILLY SILVA NUNES           0112252121603011481        2001122520160301            000000000000000006697736119774158001481035KLEBEA PEREIRA DA SILVA            
3001000148104PAULO SERGIO ARAUJO DE LIMA        6705071211705011481        1967050720170501            000000000000000035139153149774158001481043TEREZINHA ARAUJO DE LIMA           
20010001490ROBERTA DE HOLLANDA CAVALCANTI     000088007072770517102125433427GERENTE REGIONAL DE 140707160301TNQ21490        197705172014070720160301        20190417000000000000    
50010001490ROBERTA DE HOLLANDA CAVALCANTI     00008800707774158001490002TEREZA R FAZIO HOLLANDA CAVALCANTI 1490            TNQ201032016                                             
60010001490ROBERTA DE HOLLANDA CAVALCANTI     00008800707                                                                                0000000000013435545770                     
90010001490ROBERTA DE HOLLANDA CAVALCANTI     000088007071040363  00013000275502 1490                                                                                               
3001000149001JOAO RICARDO DE HOLLANDA PARMA     1003081121603011490        2010030820160301            201904170000000052191773893774158001490010ROBERTA DE HOLLANDA CAVALCANTI     
20010001520LUCIANA VIEIRA MAGALHAES           000088007112860808200997598379CONSULTOR DE VENDAS 140801160301TNE11520        198608082014080120160301        00000000000000000000    
50010001520LUCIANA VIEIRA MAGALHAES           00008800711774158001520006MARIA VIEIRA MAGALHAES             1520            TNE101032016                                             
60010001520LUCIANA VIEIRA MAGALHAES           00008800711                                                                                0000000000013188892194                     
90010001520LUCIANA VIEIRA MAGALHAES           0000880071123707137 00000000236608 1520                                                                                               
3001000152001NATHANAEL DE SOUZA MONTEIRO        8507141211603011520        1985071420160301            000000000000000001522880313774158001520014RAIMUNDA SANDRA DE SOUZA MONTEIRO  
3001000152002BIANCA HILLARY MAGALHAES SALES     0606192121603011520        2006061920160301            000000000000000061911567314774158001520022LUCIANA VIEIRA MAGALHAES           
3001000152003MARIA JULIA MAGALHAES MONTEIRO     1702262121703011520        2017022620170301            000000000000000000000000000774158001520030LUCIANA VIEIRA MAGALHAES           
20010001538TALITA DOS ANJOS DE SOUZA VILA FLOR000088007112830521101158369506SUPERVISOR DE VENDAS140801160301TNE11538        198305212014080120160301        00000000000000000000    
50010001538TALITA DOS ANJOS DE SOUZA VILA FLOR00008800711774158001538008TANIA DOS ANJOS DE SOUZA           1538            TNE101032016                                             
60010001538TALITA DOS ANJOS DE SOUZA VILA FLOR00008800711                                                                                0000000000013347629190                     
90010001538TALITA DOS ANJOS DE SOUZA VILA FLOR000088007111043138  00013000067289 1538                                                                                               
20010001554CARLOS ARAUJO GUIMARAES            000088007121840830200836182103COORDENADOR DE AREA 140805160301TNE11554        198408302014080520160301        00000000000000000000    
50010001554CARLOS ARAUJO GUIMARAES            00008800712774158001554005MARLETE DE ARAUJO GUIMARAES        1554            TNE101032016                                             
60010001554CARLOS ARAUJO GUIMARAES            00008800712                                                                                0000000000013010158318                     
90010001554CARLOS ARAUJO GUIMARAES            000088007121040014  00001000210026 1554                                                                                               
3001000155401DAYANE BATISTA RODRIGUES           8701062211603011554        1987010620160301            000000000000000002169775170774158001554013MARIA M SILVA BATISTA RODRIGUES    
3001000155402CARLOS EDUARDO SILVA GUIMARAES     0604121121603011554        2006041220160301            000000000000000000000000000774158001554021KEZIA PATRICIA DA SILVA            
3001000155403ANTONELLA RODRIGUES GUIMARAES      1807272121809141554        2018072720180914            000000000000000000000000000774158001554039DAYANE BATISTA RODRIGUES           
3001000155404EMANUEL RODRIGUES GUIMARAES        1807271121809141554        2018072720180914            000000000000000000000000000774158001554047DAYANE BATISTA RODRIGUES           
20010001600NATHALY PONTES MOREIRA             000088007192830606229792664858CONSULTOR DE VENDAS 140819160301TNE11600        198306062014081920160301        00000000000000000000    
50010001600NATHALY PONTES MOREIRA             00008800719774158001600006MARIA IRENE BOMBONATO PONTES       1600            TNE101032016                                             
60010001600NATHALY PONTES MOREIRA             00008800719                                                                                0000000000013111996939                     
90010001600NATHALY PONTES MOREIRA             000088007191044849  00013000018596 1600                                                                                               
3001000160001PAULO SERGIO MOREIRA               7410231211603011600        1974102320160301            000000000000000018235240874774158001600014MEIRE RODRIGUES                    
3001000160002GABRYELLA VITORIA APARECIDA MOREIRA0504251121603011600        2005042520160301            000000000000000000000000000774158001600022NATHALY PONTES MOREIRA             
3001000160003VICTOR KAIQUE APAREICDA MOREIRA    1102281121603011600        2011022820160301            000000000000000000000000000774158001600030NATHALY PONTES                     
20010001619ALEX SANDRO MESQUITA DA COSTA      000088007192770911107356272741SUPERVISOR DE VENDAS140819160301TNE11619        197709112014081920160301        00000000000000000000    
50010001619ALEX SANDRO MESQUITA DA COSTA      00008800719774158001619006VERA LUCIA MESQUITA DA COSTA       1619            TNE101032016                                             
60010001619ALEX SANDRO MESQUITA DA COSTA      00008800719                                                                                0000000000012548870032                     
90010001619ALEX SANDRO MESQUITA DA COSTA      000088007191041007  00001000208280 1619                                                                                               
20010001627SILVANA SANTANA FERREIRA NOGUEIRA  000088007192810617209311273783CONSULTOR DE VENDAS 140819160301TNE11627        198106172014081920160301        00000000000000000000    
50010001627SILVANA SANTANA FERREIRA NOGUEIRA  00008800719774158001627009VERA LUCIA DE SANTANA              1627            TNE101032016                                             
60010001627SILVANA SANTANA FERREIRA NOGUEIRA  00008800719                                                                                0000000000013017265853                     
90010001627SILVANA SANTANA FERREIRA NOGUEIRA  000088007191044118  00013000003217 1627                                                                                               
3001000162701DIONE ALVARENGA NOGUEIRA           8404261211603011627        1984042620160301            000000000000000011151596744774158001627017SONIA ALVARENGA NOGUEIRA           
3001000162702FELLIPE FERREIRA DE FREITA         0212071121603011627        2002120720160301            000000000000000019542464711774158001627025SILVANA SANTANA FERREIRA NOGUEIRA  
3001000162703YURI FERREIRA NOGUEIRA             0706121121603011627        2007061220160301            000000000000000019542411782774158001627033SILVANA SANTANA FERREIRA NOGUEIRA  
20010001651ANA LUCIA PEREIRA GUEDES           000088007212811220172565721153SUPERVISOR DE VENDAS140902160301TNE11651        198112202014090220160301        00000000000000000000    
50010001651ANA LUCIA PEREIRA GUEDES           00008800721774158001651009ZULMIRA PEREIRA GUEDES             1651            TNE101032016                                             
60010001651ANA LUCIA PEREIRA GUEDES           00008800721                                                                                0000000000012939459276                     
90010001651ANA LUCIA PEREIRA GUEDES           0000880072100110227 00000000096261 1651                                                                                               
20010001686AMENAIDE DIAS DOS SANTOS           000088007242701002150517805120CONSULTOR DE VENDAS 140909160301TNE11686        197010022014090920160301        00000000000000000000    
50010001686AMENAIDE DIAS DOS SANTOS           00008800724774158001686005ANALIA DIAS DOS SANTOS             1686            TNE101032016                                             
60010001686AMENAIDE DIAS DOS SANTOS           00008800724                                                                                0000000000012474190165                     
90010001686AMENAIDE DIAS DOS SANTOS           0000880072423706068 00000000084212 1686                                                                                               
20010001732ANA PAULA FERREIRA BORGES          000088007292811202205736356686SUPERVISOR DE VENDAS141001160301TNE11732        198112022014100120160301        00000000000000000000    
50010001732ANA PAULA FERREIRA BORGES          00008800729774158001732007NILVA MARIA DE OLIVEIRA FERREIRA   1732            TNE101032016                                             
60010001732ANA PAULA FERREIRA BORGES          00008800729                                                                                0000000000012948806986                     
90010001732ANA PAULA FERREIRA BORGES          000088007293410321  00000000788077 1732                                                                                               
3001000173201MILKER ARCANJO BROGES              8503271211603011732        1985032720160301            000000000000000001465531602774158001732015EDNA LUCIA BORGES                  
20010001740REJANE MOREIRA SANTANA             000088007302920106104639139578CONSULTOR DE VENDAS 141001160301TNE11740        199201062014100120160301        00000000000000000000    
50010001740REJANE MOREIRA SANTANA             00008800730774158001740000LEIDE MOREIRA SANTANA              1740            TNE101032016                                             
60010001740REJANE MOREIRA SANTANA             00008800730                                                                                0000000000016549299080                     
90010001740REJANE MOREIRA SANTANA             0000880073023707773 00000000098868 1740                                                                                               
3001000174001APRIGIO SOARES CARNEIRO NETO       8510141211605011740        1985101420160501            000000000000000001258175509774158001740018DELCI CORDEIRO DOS SANTOS          
20010001813MARILENE DO NASCIMENTO FRANCISCO   000088007352701107132318537453AUXILIAR DE SERVICOS141008160301TNE11813        197011072014100820160301        00000000000000000000    
50010001813MARILENE DO NASCIMENTO FRANCISCO   00008800735774158001813005MARIA JOSEGA DO NASCIMENTO         1813            TNE101032016                                             
60010001813MARILENE DO NASCIMENTO FRANCISCO   00008800735                                                                                0000000000012061457306                     
90010001813MARILENE DO NASCIMENTO FRANCISCO   000088007351040039  00013000322142 1813                                                                                               
20010001830RAFAEL SANTOS CORREA               000088007362840617179003265291SUPERVISOR DE VENDAS141015160301TNE11830        198406172014101520160301        00000000000000000000    
50010001830RAFAEL SANTOS CORREA               00008800736774158001830009ROZINETE DA SILVA SANTOS           1830            TNE101032016                                             
60010001830RAFAEL SANTOS CORREA               00008800736                                                                                0000000000013341054420                     
90010001830RAFAEL SANTOS CORREA               0000880073623721563 00000000295817 1830                                                                                               
20010001856MAGALI TRINDADE DA SILVA           000088007382840924184385693234CONSULTOR DE VENDAS 141104160301TNE11856        198409242014110420160301        00000000000000000000    
50010001856MAGALI TRINDADE DA SILVA           00008800738774158001856004ROSA MARIA TRINDADE                1856            TNE101032016                                             
60010001856MAGALI TRINDADE DA SILVA           00008800738                                                                                0000000000020918128786                     
90010001856MAGALI TRINDADE DA SILVA           000088007380333214  00000010154111 1856                                                                                               
3001000185601STEPHANY DA SILVA LIMA             0907212121603011856        2009072120160301            000000000000000000000000000774158001856012MAGALI DA SILVA                    
20010001880PAULA LILIA BARRETO DE ALMEIDA     000088007402790808209072213785SUPERVISORA         141104160301TNQ21880        197908082014110420160301        00000000000000000000    
50010001880PAULA LILIA BARRETO DE ALMEIDA     00008800740774158001880004CIRENE BARRETO DE ALMEIDA          1880        TNE1TNQ223052017                                             
60010001880PAULA LILIA BARRETO DE ALMEIDA     00008800740                                                                                0000000000012695287544                     
90010001880PAULA LILIA BARRETO DE ALMEIDA     000088007403418446  00000000011143 1880                                                                                               
3001000188001FREDERICO VELASCO ESTEVAM          7208191211603011880        1972081920160301            000000000000000006937908733774158001880012FLORIANI VELASCO ESTEVAM           
20010001937BIANCA SABRINA DOS SANTOS          000088007432860213191835003249CONSULTOR DE VENDAS 141104160301TNE11937        198602132014110420160301        00000000000000000000    
50010001937BIANCA SABRINA DOS SANTOS          00008800743774158001937002SOCORRO DOS SANTOS                 1937            TNE101032016                                             
60010001937BIANCA SABRINA DOS SANTOS          00008800743                                                                                0000000000013855458420                     
90010001937BIANCA SABRINA DOS SANTOS          000088007431040026  00000000241699 1937                                                                                               
3001000193701SAMYA GABRIELA DOS SANTOS FERREIRA 0811222121603011937        2008112220160301            000000000000000000000000000774158001937010BIANCA SABRINA DOS SANTOS          
3001000193702DAVI GABRIEL DOS SANTOS FERREIRA   1511041121603011937        2015110420160301            000000000000000000000000000774158001937028BIANCA SABRINA DOS SANTOS          
20010001945KELLY TATIANE CARDOSO DOS SANTOS   000088007432841027188371174268CONSULTOR DE VENDAS 141104160301TNE11945        198410272014110420160301        00000000000000000000    
50010001945KELLY TATIANE CARDOSO DOS SANTOS   00008800743774158001945005BERNADETH SILVANE CARDOSO SANTOS   1945            TNE101032016                                             
60010001945KELLY TATIANE CARDOSO DOS SANTOS   00008800743                                                                                0000000000020734263591                     
90010001945KELLY TATIANE CARDOSO DOS SANTOS   0000880074323705240 00000006870120 1945                                                                                               
3001000194501CELSO DOS SANTOS DE SOUSA          0311111121603011945        2003111120160301            000000000000000003960902220774158001945013KELLY TATIANE CARDOSO DOS SANTOS   
20010001961KARLIANE SILVINO OLIVEIRA          000088007432860809200757141323CONSULTOR DE VENDAS 141104160301TNE11961        198608092014110420160301        00000000000000000000    
50010001961KARLIANE SILVINO OLIVEIRA          00008800743774158001961002RAIMUNDA MARIA SILVINO             1961            TNE101032016                                             
60010001961KARLIANE SILVINO OLIVEIRA          00008800743                                                                                0000000000020073236750                     
90010001961KARLIANE SILVINO OLIVEIRA          000088007431042004  00013000359687 1961                                                                                               
3001000196101ANDERSON DIEGO COSTA DE SOUZA      8303251211603011961        1983032520160301            000000000000000097591483315774158001961010MARIA LUCIA COSTA                  
3001000196102HEITOR SILVINO DE SOUZA            1602241121608011961        2016022420160801            000000000000000000000000000774158001961028KARLIANE SILVINO OLIVEIRA          
20010001970ALICE RAMAIANE DANTAS DE MORAIS    000088007432920715109512469413CONSULTOR DE VENDAS 141104160301TNE11970        199207152014110420160301        00000000000000000000    
50010001970ALICE RAMAIANE DANTAS DE MORAIS    00008800743774158001970003ROSINEIDE DANTAS MACEDO DE MORAIS  1970            TNE101032016                                             
60010001970ALICE RAMAIANE DANTAS DE MORAIS    00008800743                                                                                0000000000020037468140                     
90010001970ALICE RAMAIANE DANTAS DE MORAIS    0000880074323732263 00000000004200 1970                                                                                               
20010001988TACIANNE MIRELLE MATIAS BEZERRA    000088007432911119109271199430CONSULTOR DE VENDAS 141104160301TNE11988        199111192014110420160301        00000000000000000000    
50010001988TACIANNE MIRELLE MATIAS BEZERRA    00008800743774158001988005MARIA LUCILEIDE MATIAS BEZERRA     1988            TNE101032016                                             
60010001988TACIANNE MIRELLE MATIAS BEZERRA    00008800743                                                                                0000000000016592963035                     
90010001988TACIANNE MIRELLE MATIAS BEZERRA    0000880074323716950 00000006400876 1988                                                                                               
3001000198801MARIA EDUARDA BEZERRA BRAGA        1206292121603011988        2012062920160301            000000000000000007147054385774158001988013TACIANNE MIRELLE MATIAS BEZERRA    
20010001996KEYLLA W VIEIRA PORTELA RODRIGUES  000088007432760417269361142372CONSULTOR DE VENDAS 141104160301TNE11996        197604172014110420160301        00000000000000000000    
50010001996KEYLLA W VIEIRA PORTELA RODRIGUES  00008800743774158001996008MARIZE VIEIRA PORTELA              1996            TNE101032016                                             
60010001996KEYLLA W VIEIRA PORTELA RODRIGUES  00008800743                                                                                0000000000012634225484                     
90010001996KEYLLA W VIEIRA PORTELA RODRIGUES  0000880074300132859 00000000094579 1996                                                                                               
3001000199601MATHEUS RICARDO PORTELLA RODRIGUES 9605241121603011996        1996052420160301            000000000000000002435664338774158001996016KEYLLA W VIEIRA PORTELA RODRIGUES  
3001000199602LUCAS RODRIGO PORTELLA RODRIGUES   9812131121603011996        1998121320160301            000000000000000002435663366774158001996024KEYLLA W VIEIRA PORTELA RODRIGUES  
3001000199603SERGIO RICARDO VERAS RODRIGUES     7510021211603011996        1975100220160301            000000000000000050472046349774158001996032VERBENA LIMA RODRIGUES             
3001000199604SERGIO RICARDO VERAS RODRIGUES FO  0201071121603011996        2002010720160301            000000000000000002435648308774158001996040KEYLLA W VIEIRA PORTELA RODRIGUES  
20010002003ROMUALDO MARTINS FARIAS            000088007432720222242600693300SUPERVISOR DE VENDAS141104160301TNE12003        197202222014110420160301        00000000000000000000    
50010002003ROMUALDO MARTINS FARIAS            00008800743774158002003002MARIA JOSE MARTINS FARIAS          2003            TNE101032016                                             
60010002003ROMUALDO MARTINS FARIAS            00008800743                                                                                0000000000012469166960                     
90010002003ROMUALDO MARTINS FARIAS            000088007431042004  00001000368801 2003                                                                                               
3001000200301KARINE DO CARMO FEIJAO             8512282211603012003        1985122820160301            000000000000000099246538315774158002003010INA MARIA DO CARMO FEIJAO          
3001000200302PEDRO ANTONIO CASTRO FARIAS        9703111121603012003        1997031120160301            000000000000000006376305300774158002003028CANDICE E CASTRO OLIVEIRA FARIAS   
3001000200303JOAO MARCELO CASTRO OLIVEIRA FARIAS0308071121603012003        2003080720160301            000000000000000000000000000774158002003036CANDICE ELANE OLIVEIRA             
3001000200304MARIA CANDIDA OLIVEIRA FARIAS      0410082121603012003        2004100820160301            000000000000000000000000000774158002003044CANDICE E CASTRO OLIVEIRA FARIAS   
3001000200305MARIA VALENTINA FEIJAO FARIAS      1702232121703012003        2017022320170301            000000000000000009267175378774158002003051KARINE DO CARMO FEIJAO             
20010002011ANA CRISTINA JUSTINO RIBEIRO       000088007442780408163964139300AUXILIAR DE SERVICOS141111160301TNE12011        197804082014111120160301        00000000000000000000    
50010002011ANA CRISTINA JUSTINO RIBEIRO       00008800744774158002011005RAIMUNDA JUSTINO RIBEIRO           2011            TNE101032016                                             
60010002011ANA CRISTINA JUSTINO RIBEIRO       00008800744                                                                                0000000000016134056813                     
90010002011ANA CRISTINA JUSTINO RIBEIRO       0000880074423726085 00000000477699 2011                                                                                               
3001000201101GABRIEL JUSTINO RIBEIRO DE MEDEIROS9807162121603012011        1998071620160301            000000000000000005959246384774158002011013ANA CRISTINA JUSTINO RIBEIRO       
3001000201102LUANA CRISTINE JUSTINO RIBEIRO     0608312121603012011        2006083120160301            000000000000000062704539332774158002011021ANA CRISTINA JUSTINO RIBEIRO       
20010002020CLAUDIA HELENA SILVA XAVIER ALVES  000088007442721013201814259716AUXILIAR DE SERVICOS141111160301TNE12020        197210132014111120160301        00000000000000000000    
50010002020CLAUDIA HELENA SILVA XAVIER ALVES  00008800744774158002020006MARIA HELENA INACIO DA SILVA       2020            TNE101032016                                             
60010002020CLAUDIA HELENA SILVA XAVIER ALVES  00008800744                                                                                0000000000012399284862                     
90010002020CLAUDIA HELENA SILVA XAVIER ALVES  000088007441041619  00000000405140 2020                                                                                               
20010002089ADRIANA DOMINGOS DA SILVA          000088007472771003102858760403CONSULTOR DE VENDAS 141118160301TNE12089        197710032014111820160301        00000000000000000000    
50010002089ADRIANA DOMINGOS DA SILVA          00008800747774158002089001ANGELITA DOMINGOS DA SILVA         2089            TNE101032016                                             
60010002089ADRIANA DOMINGOS DA SILVA          00008800747                                                                                0000000000020032805319                     
90010002089ADRIANA DOMINGOS DA SILVA          000088007471041030  00013000756014 2089                                                                                               
3001000208901ELIVALDO MARIANO DA SILVA          7912231211707012089        1979122320170701            000000000000000002732275484774158002089019EUGENIA MARIANO DA SILVA           
20010002100SUELEN CRISTINY LOPES DE MATOS     000088007482871002134387661836CONSULTOR DE VENDAS 141118160301TNE12100        198710022014111820160301        00000000000000000000    
50010002100SUELEN CRISTINY LOPES DE MATOS     00008800748774158002100006SILENE APARECIDA LOPES FERREIRA    2100            TNE101032016                                             
60010002100SUELEN CRISTINY LOPES DE MATOS     00008800748                                                                                0000000000020336269964                     
90010002100SUELEN CRISTINY LOPES DE MATOS     000088007481044213  00013000038610 2100                                                                                               
3001000210001LARISSA LOPES FERREIRA             0303122121603012100        2003031220160301            000000000000000000000000000774158002100014SUELEN CRISTINY LOPES DE MATOS     
3001000210002ROGERIO CENI LOPES RIBEIRO DE MATOS1109231121609012100        2011092320160901            000000000000000053254581830774158002100022SUELEN CRISTINY LOPES DE MATOS     
3001000210003DOUGLAS VIEIRA RIBEIRO DE MATOS    8407081211609012100        1984070820160901            000000000000000033190171874774158002100030LOURDES SOARES RIBEIRO DE MATOS    
3001000210004THAUANA LOPES RIBEIRO DE MATOS     0705282121609012100        2007052820160901            000000000000000000000000000774158002100048SUELEN CRISTINY LOPES DE MATOS     
20010002160ALINE DOS SANTOS NUNES             000088007512850612101608662519CONSULTOR DE VENDAS 141202160301TNQ22160        198506122014120220160301        00000000000000000000    
50010002160ALINE DOS SANTOS NUNES             00008800751774158002160000ARIZELIA DOS SANTOS NUNES          2160        TNE1TNQ229012019                                             
60010002160ALINE DOS SANTOS NUNES             00008800751                                                                                0000000000016003422654                     
90010002160ALINE DOS SANTOS NUNES             000088007511044109  00013000445490 2160                                                                                               
3001000216001ANA LIZ SANTOS CABRAL              0806272121603012160        2008062720160301            000000000000000000000000000774158002160018ALINE DOS SANTOS NUNES             
3001000216002HELOISA SANTOS SANTANA             1903142121904012160        2019031420190401            000000000000000011149109530774158002160026ALINE DOS SANTOS NUNES             
20010002208VANESSA DA SILVA MACEDO            000088007522890621298436538234CONSULTOR DE VENDAS 141202160301TNE12208        198906212014120220160301        00000000000000000000    
50010002208VANESSA DA SILVA MACEDO            00008800752774158002208007MARIA CARMO PEREIRA SILVA MACEDO   2208            TNE101032016                                             
60010002208VANESSA DA SILVA MACEDO            00008800752                                                                                0000000000012739620030                     
90010002208VANESSA DA SILVA MACEDO            000088007520333436  00000010736108 2208                                                                                               
3001000220801ADILSON SERGIO MALHEIROS DOS SANTOS6610121211603012208        1966101220160301            000000000000000022540555268774158002208015MARIA JURACI MALHEIROS DOS SANTOS  
3001000220802LUAN EDUARDO MACEDO DA COSTA       0612111121603012208        2006121120160301            000000000000000003343742279774158002208023VANESSA DA SILVA MACEDO            
3001000220803GEOVANNA BEATRIZ DA SILVA MALHEIRO 1008102121603012208        2010081020160301            000000000000000006085591217774158002208031VANESSA DA SILVA MACEDO            
20010002224RICARDO AUGUSTO DE MATOS MEIRA     000088007532711112138159732287SUPERVISOR DE VENDAS141202160301TNE12224        197111122014120220160301        00000000000000000000    
50010002224RICARDO AUGUSTO DE MATOS MEIRA     00008800753774158002224004MARIA HELENA DE MATOS MEIRA        2224            TNE101032016                                             
60010002224RICARDO AUGUSTO DE MATOS MEIRA     00008800753                                                                                0000000000012346647715                     
90010002224RICARDO AUGUSTO DE MATOS MEIRA     000088007531040820  00013000334073 2224                                                                                               
3001000222401PAMELA CRISTIANE CAMPOS MEIRA      8410022211606012224        1984100220160601            000000000000000081482752204774158002224012MARGARETH PINTO CAMPOS             
3001000222402EDUARDA CAMPOS BORGES              0809282121606012224        2008092820160601            000000000000000000000000000774158002224020PAMELA CRISTIANE CAMPOS MEIRA      
3001000222403LEONARDO AUGUSTO REZENDE MEIRA     1306031121610012224        2013060320161001            000000000000000003671021292774158002224038RENATA BARBOSA REZENDE             
3001000222404FELIPE AUGUSTO CAMPOS MEIRA        1706191121708012224        2017061920170801            000000000000000000000000000774158002224046PAMELA CRISTIANE CAMPOS MEIRA      
20010002232ROSEANE DE JESUS ANDRADE SOARES    000088007532840216100586262393CONSULTOR DE VENDAS 141202160301TNE12232        198402162014120220160301        00000000000000000000    
50010002232ROSEANE DE JESUS ANDRADE SOARES    00008800753774158002232007MARIA JOSE DE ANDRADE SOARES       2232            TNE101032016                                             
60010002232ROSEANE DE JESUS ANDRADE SOARES    00008800753                                                                                0000000000020698743681                     
90010002232ROSEANE DE JESUS ANDRADE SOARES    0000880075300129530 00000000496073 2232                                                                                               
3001000223201CALIU AUGUSTO SOARES DA COSTA      1209121121603012232        2012091220160301            000000000000000000000000000774158002232015ROSEANE SOARES                     
3001000223202CARLOS AUGUSTO LOPES DA COSTA      8308071211806012232        1983080720180601            000000000000000001577038355774158002232023MARIA FRANCISCA OLIVEIRA LOPES     
3001000223203KALINE VICTORIA SOARES DA COSTA    1809211121810102232        2018092120181010            000000000000000010004278380774158002232031ROSEANE JESUS ANDRADE SOARES COSTA 
20010002291LORRANE CORREA FERREIRA            000088007562950805270213268159CONSULTOR DE VENDAS 141209160301TNE12291        199508052014120920160301        00000000000000000000    
50010002291LORRANE CORREA FERREIRA            00008800756774158002291003JOLISMAR CORREA RIBEIRO            2291            TNE101032016                                             
60010002291LORRANE CORREA FERREIRA            00008800756                                                                                0000000000020204957294                     
90010002291LORRANE CORREA FERREIRA            000088007561044658  00013000050270 2291                                                                                               
3001000229101HELENA FERREIRA LEMOS              1604192121605012291        2016041920160501            000000000000000008124002169774158002291011LORRANE CORREA FERREIRA            
3001000229102MARCOS FLAVIO MARTINS LEMOS        9112041211705012291        1991120420170501            000000000000000004650854156774158002291029DENIRCE MARTINS LOPES LEMOS        
20010002348CRISTIANE LEMOS GOMES              000088007572880629108794437661CONSULTOR DE VENDAS 141218160301TNE12348        198806292014121820160301        00000000000000000000    
50010002348CRISTIANE LEMOS GOMES              00008800757774158002348001NILZA LEMOS GOMES                  2348            TNE101032016                                             
60010002348CRISTIANE LEMOS GOMES              00008800757                                                                                0000000000012889533109                     
90010002348CRISTIANE LEMOS GOMES              000088007571042255  00013000056787 2348                                                                                               
3001000234801SOPHIA VICTORIA LEMOS MIRANDA      1402142121603012348        2014021420160301            000000000000000070122246659774158002348019CRISTIANE LEMOS GOMES              
20010002372WALDILENE BARROS DA SILVA          000088007582940428105029657118CONSULTOR DE VENDAS 141218160301TNE12372        199404282014121820160301        00000000000000000000    
50010002372WALDILENE BARROS DA SILVA          00008800758774158002372001MARIA DO CARMO SOUSA BARROS        2372            TNE101032016                                             
60010002372WALDILENE BARROS DA SILVA          00008800758                                                                                0000000000020452533672                     
90010002372WALDILENE BARROS DA SILVA          0000880075800134860 00000000421863 2372                                                                                               
20010002399DORIS CAMILA DA SILVA PEREIRA      000088007592850603101064458556CONSULTOR DE VENDAS 150106160301TNE12399        198506032015010620160301        00000000000000000000    
50010002399DORIS CAMILA DA SILVA PEREIRA      00008800759774158002399004ROSANA MARIA DA SILVA PEREIRA      2399            TNE101032016                                             
60010002399DORIS CAMILA DA SILVA PEREIRA      00008800759                                                                                0000000000012729261046                     
90010002399DORIS CAMILA DA SILVA PEREIRA      000088007591041522  00013001158743 2399                                                                                               
3001000239901GUSTAVO LUKAS PEREIRA MARQUES      1209141121603012399        2012091420160301            000000000000000007230358574774158002399012DORIS CAMILA DA SILVA PEREIRA      
3001000239902ANDERSON FERREIRA MARQUES          8402241211811092399        1984022420181109            000000000000000002294186516774158002399020LAETILIA FERREIRA MARQUES          
20010002496TATIANA SANTANA DO NASCIMENTO      000088007642811005203442583438CONSULTOR DE VENDAS 150120160301TNE12496        198110052015012020160301        00000000000000000000    
50010002496TATIANA SANTANA DO NASCIMENTO      00008800764774158002496008ADANEUZA LEITE DE SANTANA          2496            TNE101032016                                             
60010002496TATIANA SANTANA DO NASCIMENTO      00008800764                                                                                0000000000012955457452                     
90010002496TATIANA SANTANA DO NASCIMENTO      0000880076423702895 00000001148990 2496                                                                                               
3001000249601FABIO JOSE DO NASCIMENTO           7503071211603012496        1975030720160301            000000000000000002464142433774158002496016SEVERINA MARIA DO NASCIMENTO       
3001000249602MARIA GABRIELLA SANTANA NASCIMENTO 1110052121603012496        2011100520160301            000000000000000012586091426774158002496024TATIANA SANTANA DO NASCIMENTO      
20010002518MARIA MILAGRES NASCIMENTO SILVA    000088007652811031190973046368SUPERVISOR DE VENDAS150120160301TNE12518        198110312015012020160301        00000000000000000000    
50010002518MARIA MILAGRES NASCIMENTO SILVA    00008800765774158002518009MARIA DO CARMO DO NASCIMENTO SILVA 2518            TNE101032016                                             
60010002518MARIA MILAGRES NASCIMENTO SILVA    00008800765                                                                                0000000000013049927193                     
90010002518MARIA MILAGRES NASCIMENTO SILVA    000088007651042183  00013000430394 2518                                                                                               
3001000251801LUIZ VINICIUS SILVA COSTA          0109171121603012518        2001091720160301            000000000000000002406566366774158002518017MARIA MILAGRES NASCIMENTO SILVA    
3001000251802MARIA EDUARDA SILVA COSTA          0212182121603012518        2002121820160301            000000000000000000000000000774158002518025MARIA MILAGRES NASCIMENTO SILVA    
20010002534EVELINE RODRIGUES DE SOUSA         000088007672860619101651492131CONSULTOR DE VENDAS 150203160301TNE12534        198606192015020320160301        00000000000000000000    
50010002534EVELINE RODRIGUES DE SOUSA         00008800767774158002534006ANA MARIA RODRIGUES MELO           2534            TNE101032016                                             
60010002534EVELINE RODRIGUES DE SOUSA         00008800767                                                                                0000000000016141143793                     
90010002534EVELINE RODRIGUES DE SOUSA         000088007671040791  00013000131125 2534                                                                                               
3001000253401ROBSON KAUA RODRIGUES MAGALHAES    0501221121603012534        2005012220160301            000000000000000000000000000774158002534014EVELINE RODRIGUES DE SOUSA         
3001000253402VICTOR ARAUJO GUEDES               9209201121603012534        1992092020160301            000000000000000000000000000774158002534022EVELINE RODRIGUES DE SOUSA         
3001000253403PEDRO MIGUEL RODRIGUES GUEDES      1809231121810072534        2018092320181007            000000000000000009582552107774158002534030EVELINE RODRIGUES DE SOUSA         
