1FATURA TECNICA                SOLDI PROMOTORA DE VENDAS LTDA     571632074158878MULTI SAUDE EMPRESA                20191220191231FATURAMENTO    0000002                            
2010500SOLDI PROMOTORA DE VENDAS LTDA     00000000000000000000000000000000000000000000000000000000000000020191231                                                                   
30500001798100CAMILA DUARTE GONCALVES                12121990220TNE101072017AM12201900000000003266500000000000000008CONSULTORA          88011326    139217061816774158017981002     
30500001798100F.MODERADORES  PAGOS EM 12/2019        00000000000    00000000RS12201900000000000285000000000000000010                                139217061816774158017981002     
40500(AC)ACERTO DE FATURA(COBRAR)       000000000000000000000000000000000000000000000000000000                                                                                      
40500(RS)RECUPERACAO SINISTRO           000000000000000000000001000000000002850000000000000000                                                                                      
40500(  )VIDAS REMAN. MES ANTERIOR      000000000000000000000000000000000000000000000000000000                                                                                      
40500(IM)INCLUSOES NO MES               000000000000000000000000000000000000000000000000000000                                                                                      
40500(IR)INCLUSOES RETROATIVAS          000000000000000000000000000000000000000000000000000000                                                                                      
40500(RM)REATIVACOES NO MES             000000000000000000000000000000000000000000000000000000                                                                                      
40500(RR)REATIVACOES RETROATIVAS        000000000000000000000000000000000000000000000000000000                                                                                      
40500(TM)TRANSFERENCIAS NO MES          000000000000000000000000000000000000000000000000000000                                                                                      
40500(TR)TRANSFERENCIAS RETROATIVAS     000000000000000000000000000000000000000000000000000000                                                                                      
40500(AM)ALTERACOES NO MES              000001000000000001000001000000000032665000000000000000                                                                                      
40500(AR)ALTERACOES RETROATIVAS         000000000000000000000000000000000000000000000000000000                                                                                      
40500(RE)COBRANCA DE REMIDO             000000000000000000000000000000000000000000000000000000                                                                                      
40500(TC)TOTAIS A COBRAR                000001000000000001000002000000000035515000000000000000                                                                                      
40500(AD)ACERTO DE FATURA(DEVOLVER)     000000000000000000000000000000000000000000000000000000                                                                                      
40500(CM)CANCELAMENTOS NO MES           000000000000000000000000000000000000000000000000000000                                                                                      
40500(CR)CANCELAMENTOS RETROATIVOS      000000000000000000000000000000000000000000000000000000                                                                                      
40500(TM)TRANSFERENCIAS NO MES          000000000000000000000000000000000000000000000000000000                                                                                      
40500(TR)TRANSFERENCIAS RETROATIVAS     000000000000000000000000000000000000000000000000000000                                                                                      
40500(AM)ALTERACOES NO MES              000000000000000000000000000000000000000000000000000000                                                                                      
40500(AR)ALTERACOES RETROATIVAS         000000000000000000000000000000000000000000000000000000                                                                                      
40500(DM)DEVOLUCAO REMIDO NO MES        000000000000000000000000000000000000000000000000000000                                                                                      
40500(DR)DEVOLUCAO REMIDO RETROAT.      000000000000000000000000000000000000000000000000000000                                                                                      
40500(TD)TOTAIS A DEVOLVER              000000000000000000000000000000000000000000000000000000                                                                                      
40500(TS)TOTAIS DA SUBFATURA            000001000000000001000002000000000035515000000000000000                                                                                      
40500   PLANOS CONTRATADOS:                                                                                                                                                         
40500   PLANO   N.TIT   N.DEP N.VIDAS FATOR REEMB.HM HOSPITAL                 PLANO   N.TIT   N.DEP N.VIDAS FATOR REEMB.HM HOSPITAL                                                 
40500   EE03        0       0                   0,00 REFERENCIADO             NP03        0       0                   0,00 REFERENCIADO                                             
40500   TNE1        1       0                   0,00 REFERENCIADO             TNQ2        0       0                   0,00 REFERENCIADO                                             
2010851SOLDI PROMOTORA DE VENDAS LTDA     00000000000000000000000000000000000000000000000000000000000000020191231                                                                   
30851001246700ALINE ALVARENGA CORREIA LIMA           18011983210TNE101122016AM12201900000000003342400000000000000008CONSULTORA          12467       109328261724774158012467007     
30851001246701ANDRE ALVARENGA PINTO                  17032013112TNE101122016AM12201900000000003190600000000000000008                                117312278760774158012467015     
30851000941500DANIELLE PASSOS DE ALMEIDA             24011977210TNE101082016AM12201900000000003270700000000000000008CONSULTORA          9415        107603087724774158009415001     
30851001228900FRANCIELE APARECIDA BUENO BANDEIRA     11101991210TNE101122016AM12201900000000003401200000000000000008CONSULTORA          12289       140049713817774158012289005     
30851001228900F.MODERADORES  PAGOS EM 12/2019        00000000000    00000000RS12201900000000001123800000000000000010                                140049713817774158012289005     
30851001228901LARA BUENO DO NASCIMENTO               04022019212TNE121032019AM12201900000000003190600000000000000008                                156573933842774158012289013     
30851003678100KAIO OLIVEIRA ROCHA BACELAR            26111994140TNE105062019AM1220190000000000336370000000000000000841003                   88015393111244247685774158036781003     
30851003678100F.MODERADORES  PAGOS EM 12/2019        00000000000    00000000RS12201900000000000961500000000000000010                                111244247685774158036781003     
30851001018900MONICA REIS PETROV                     11091974210TNQ201092016AM12201900000000004522200000000000000008SUPERVISORA         10189       111836299826774158010189009     
30851001018900F.MODERADORES  PAGOS EM 12/2019        00000000000    00000000RS12201900000000000839800000000000000010                                111836299826774158010189009     
30851001018901PAULO EDUARDO PRETROV                  18111973121TNQ201032017AM12201900000000004316800000000000000008                                118514536877774158010189017     
30851001018901F.MODERADORES  PAGOS EM 12/2019        00000000000    00000000RS12201900000000000718300000000000000010                                118514536877774158010189017     
30851002028100MYSLENI PEREIRA BERNARDES              03041983210TNE101102017AM12201900000000003377600000000000000008CONSULTOR           88011832    131663956871774158020281002     
30851002028100F.MODERADORES  PAGOS EM 12/2019        00000000000    00000000RS12201900000000000285000000000000000010                                131663956871774158020281002     
30851002028101GUILHERME PEREIRA BERNARDES ROCHA      25032009112TNE101102017AM12201900000000003190600000000000000008                                143373578825774158020281010     
30851000098100RAQUEL GOMES LELIS                     02081987210TNE101032016AM12201900000000003266500000000000000008SUPERVISOR DE VENDAS981         101620243636774158000981001     
30851000098100F.MODERADORES  PAGOS EM 12/2019        00000000000    00000000RS12201900000000002816800000000000000010                                101620243636774158000981001     
30851000098100RAQUEL GOMES LELIS                     02081987210TNE101032016AM12201900000000003266500000000000000008SUPERVISOR DE VENDAS981         101620243636774158000981001     
30851000098100F.MODERADORES  PAGOS EM 12/2019        00000000000    00000000RS12201900000000000610600000000000000010                                101620243636774158000981001     
30851000318200SHAIRA LIMA FERREIRA                   14071985210TNE101032016AM12201900000000003335500000000000000008CONSULTOR DE VENDAS 3182        106957191656774158003182003     
30851000318200F.MODERADORES  PAGOS EM 12/2019        00000000000    00000000RS12201900000000000300700000000000000010                                106957191656774158003182003     
30851000937700THAIS CRISTINE CONTINI CARMONA         05011984220TNQ201082016AM12201900000000005297700000000000000008SUPERVISORA         9377        130357156889774158009377003     
30851000937700THAIS CRISTINE CONTINI CARMONA         05011984220TNQ201082016AM12201900000000004864500000000000000008SUPERVISORA         9377        130357156889774158009377003     
30851000937701LUIZ ANTONIO RINALDI                   18051968121TNQ201082016AM12201900000000004316800000000000000008                                110664395830774158009377011     
30851000937701LUIZ ANTONIO RINALDI                   18051968121TNQ201082016AM12201900000000004316800000000000000008                                110664395830774158009377011     
30851000937702LUCAS CARMONA NETO                     13082005112TNQ201082016AM12201900000000004316800000000000000008                                145204008802774158009377029     
30851000937702LUCAS CARMONA NETO                     13082005112TNQ201082016AM12201900000000004316800000000000000008                                145204008802774158009377029     
30851000937703RAFAEL CARMONA RINALDI                 27022012112TNQ201082016AM12201900000000004316800000000000000008                                145204035885774158009377037     
30851000937703RAFAEL CARMONA RINALDI                 27022012112TNQ201082016AM12201900000000004316800000000000000008                                145204035885774158009377037     
40851(AC)ACERTO DE FATURA(COBRAR)       000000000000000000000000000000000000000000000000000000                                                                                      
40851(RS)RECUPERACAO SINISTRO           000000000000000000000008000000000076565000000000000000                                                                                      
40851(  )VIDAS REMAN. MES ANTERIOR      000000000000000000000000000000000000000000000000000000                                                                                      
40851(IM)INCLUSOES NO MES               000000000000000000000000000000000000000000000000000000                                                                                      
40851(IR)INCLUSOES RETROATIVAS          000000000000000000000000000000000000000000000000000000                                                                                      
40851(RM)REATIVACOES NO MES             000000000000000000000000000000000000000000000000000000                                                                                      
40851(RR)REATIVACOES RETROATIVAS        000000000000000000000000000000000000000000000000000000                                                                                      
40851(TM)TRANSFERENCIAS NO MES          000000000000000000000000000000000000000000000000000000                                                                                      
40851(TR)TRANSFERENCIAS RETROATIVAS     000000000000000000000000000000000000000000000000000000                                                                                      
40851(AM)ALTERACOES NO MES              000009000007000016000021000000000810979000000000000000                                                                                      
40851(AR)ALTERACOES RETROATIVAS         000000000000000000000000000000000000000000000000000000                                                                                      
40851(RE)COBRANCA DE REMIDO             000000000000000000000000000000000000000000000000000000                                                                                      
40851(TC)TOTAIS A COBRAR                000009000007000016000029000000000887544000000000000000                                                                                      
40851(AD)ACERTO DE FATURA(DEVOLVER)     000000000000000000000000000000000000000000000000000000                                                                                      
40851(CM)CANCELAMENTOS NO MES           000000000000000000000000000000000000000000000000000000                                                                                      
40851(CR)CANCELAMENTOS RETROATIVOS      000000000000000000000000000000000000000000000000000000                                                                                      
40851(TM)TRANSFERENCIAS NO MES          000000000000000000000000000000000000000000000000000000                                                                                      
40851(TR)TRANSFERENCIAS RETROATIVAS     000000000000000000000000000000000000000000000000000000                                                                                      
40851(AM)ALTERACOES NO MES              000000000000000000000000000000000000000000000000000000                                                                                      
40851(AR)ALTERACOES RETROATIVAS         000000000000000000000000000000000000000000000000000000                                                                                      
40851(DM)DEVOLUCAO REMIDO NO MES        000000000000000000000000000000000000000000000000000000                                                                                      
40851(DR)DEVOLUCAO REMIDO RETROAT.      000000000000000000000000000000000000000000000000000000                                                                                      
40851(TD)TOTAIS A DEVOLVER              000000000000000000000000000000000000000000000000000000                                                                                      
40851(TS)TOTAIS DA SUBFATURA            000009000007000016000029000000000887544000000000000000                                                                                      
40851   PLANOS CONTRATADOS:                                                                                                                                                         
40851   PLANO   N.TIT   N.DEP N.VIDAS FATOR REEMB.HM HOSPITAL                 PLANO   N.TIT   N.DEP N.VIDAS FATOR REEMB.HM HOSPITAL                                                 
40851   EE03        0       0                   0,00 REFERENCIADO             NP03        0       0                   0,00 REFERENCIADO                                             
40851   TNE1        8       3                   0,00 REFERENCIADO             TNQ2        3       7                   0,00 REFERENCIADO                                             
49999(AC)ACERTO DE FATURA(COBRAR)       000000000000000000000000000000000000000000000000000000                                                                                      
49999(RS)RECUPERACAO SINISTRO           000000000000000000000009000000000079415000000000000000                                                                                      
49999(  )VIDAS REMAN. MES ANTERIOR      000000000000000000000000000000000000000000000000000000                                                                                      
49999(IM)INCLUSOES NO MES               000000000000000000000000000000000000000000000000000000                                                                                      
49999(IR)INCLUSOES RETROATIVAS          000000000000000000000000000000000000000000000000000000                                                                                      
49999(RM)REATIVACOES NO MES             000000000000000000000000000000000000000000000000000000                                                                                      
49999(RR)REATIVACOES RETROATIVAS        000000000000000000000000000000000000000000000000000000                                                                                      
49999(TM)TRANSFERENCIAS NO MES          000000000000000000000000000000000000000000000000000000                                                                                      
49999(TR)TRANSFERENCIAS RETROATIVAS     000000000000000000000000000000000000000000000000000000                                                                                      
49999(AM)ALTERACOES NO MES              000010000007000017000022000000000843644000000000000000                                                                                      
49999(AR)ALTERACOES RETROATIVAS         000000000000000000000000000000000000000000000000000000                                                                                      
49999(RE)COBRANCA DE REMIDO             000000000000000000000000000000000000000000000000000000                                                                                      
49999(TC)TOTAIS A COBRAR                000010000007000017000031000000000923059000000000000000                                                                                      
49999(AD)ACERTO DE FATURA(DEVOLVER)     000000000000000000000000000000000000000000000000000000                                                                                      
49999(CM)CANCELAMENTOS NO MES           000000000000000000000000000000000000000000000000000000                                                                                      
49999(CR)CANCELAMENTOS RETROATIVOS      000000000000000000000000000000000000000000000000000000                                                                                      
49999(TM)TRANSFERENCIAS NO MES          000000000000000000000000000000000000000000000000000000                                                                                      
49999(TR)TRANSFERENCIAS RETROATIVAS     000000000000000000000000000000000000000000000000000000                                                                                      
49999(AM)ALTERACOES NO MES              000000000000000000000000000000000000000000000000000000                                                                                      
49999(AR)ALTERACOES RETROATIVAS         000000000000000000000000000000000000000000000000000000                                                                                      
49999(DM)DEVOLUCAO REMIDO NO MES        000000000000000000000000000000000000000000000000000000                                                                                      
49999(DR)DEVOLUCAO REMIDO RETROAT.      000000000000000000000000000000000000000000000000000000                                                                                      
49999(TD)TOTAIS A DEVOLVER              000000000000000000000000000000000000000000000000000000                                                                                      
49999(TS)TOTAIS DA SUBFATURA            000010000007000017000031000000000923059000000000000000                                                                                      
49999   PLANOS CONTRATADOS:                                                                                                                                                         
49999   PLANO   N.TIT   N.DEP N.VIDAS FATOR REEMB.HM HOSPITAL                 PLANO   N.TIT   N.DEP N.VIDAS FATOR REEMB.HM HOSPITAL                                                 
49999   EE03        0       0                   0,00 REFERENCIADO             NP03        0       0                   0,00 REFERENCIADO                                             
49999   TNE1        9       3                   0,00 REFERENCIADO             TNQ2        3       7                   0,00 REFERENCIADO                                             
5TRAILLER FATURA TECNICA                                                                                                                                                            
