1FATURA TECNICA                SOLDI PROMOTORA DE VENDAS LTDA     571632074158878MULTI SAUDE EMPRESA                20210220210118FATURAMENTO    0000002                            
2010001SOLDI PROMOTORA DE VENDAS LTDA     00000306310602202100000000000000000000000000000000000000000000020210118                                                                   
30001000000000COB REF PARTICIPAC.12/2020             00000000000    00000000RS02202100000000683943400000000000000010                                100000000000000000000000000     
30001000000000COB.REF. TAXA IMPLANTACAO              00000000000    00000000AC02202100000000007125000000000000000000                                100000000000000000000000000     
30001000000000COB.REF. TAXA 2A VIA CARTAO            00000000000    00000000AC02202100000000000050000000000000000000                                100000000000000000000000000     
30001004105000ABENAIDE NASCIMENTO DA SILVA SANTOS    18081976220EE0304052020  02202100000000003243600000000000000001                        88998932125738719832774158041050006     
30001004105000ABENAIDE NASCIMENTO DA SILVA SANTOS    18081976220EE0304052020CM02202100000000003243600000000000000055                        88998932125738719832774158041050006     
30001004105000ABENAIDE NASCIMENTO DA SILVA SANTOS    18081976220EE0304052020CR01202100000000003243600000000000000055                        88998932125738719832774158041050006     
30001004105000ABENAIDE NASCIMENTO DA SILVA SANTOS    18081976220EE0304052020CR12202000000000000108100000000000000055                        88998932125738719832774158041050006     
30001004105001LUCIANO PEREIRA DA SILVA SANTOS        31071981121EE0304052020  02202100000000003243600000000000000001                                131207404896774158041050014     
30001004105001LUCIANO PEREIRA DA SILVA SANTOS        31071981121EE0304052020CM02202100000000003243600000000000000055                                131207404896774158041050014     
30001004105001LUCIANO PEREIRA DA SILVA SANTOS        31071981121EE0304052020CR01202100000000003243600000000000000055                                131207404896774158041050014     
30001004105001LUCIANO PEREIRA DA SILVA SANTOS        31071981121EE0304052020CR12202000000000000108100000000000000055                                131207404896774158041050014     
30001001462100ACSA CASSIA SILVA                      09111994210TNE101032017  02202100000000003637300000000000000001CONSULTORA          88010532    112900984688774158014621007     
30001000072800ADEMAR LEANDRO RIBEIRO SANTOS          18101977220TNE101032016  02202100000000003637300000000000000001CONSULTOR DE VENDAS 728         178451744591774158000728006     
30001000072802JOAO VICTOR MONTEIRO RIBEIRO           06072010112TNE101032016  02202100000000003637300000000000000001                                106067264200774158000728022     
30001000072803LETICIA MONTEIRO RIBEIRO               31072012212TNE101032016  02202100000000003637300000000000000001                                106067269260774158000728030     
30001004063000ADEMILA A CARVALHO VENTURA RIBEIRO     06071987220EE0302042020  02202100000000003243600000000000000001                        88018080137399509867774158040630006     
30001004063001FELIPE AUGUSTO RIBEIRO                 03031986121EE0302042020  02202100000000003243600000000000000001                                135700328844774158040630014     
30001004063002THEO CARVALHO RIBEIRO                  07012019112EE0302042020  02202100000000003243600000000000000001                                156344946806774158040630022     
30001002972600ADEMIR DE ALMEIDA FRANCISCO            10111989110TNE101102018  02202100000000003637300000000000000001                        88013904139364409809774158029726007     
30001002934300ADEMIR RODRIGUES DE ALMEIDA JUNIOR     09121983120TNE101102018  02202100000000003637300000000000000001                        88013736110058611703774158029343001     
30001002934301VANESSA SIQUEIRA RAMOS DOS SANTOS      03071987221TNE101102018  02202100000000003637300000000000000001                                112535390736774158029343019     
30001002934302VITOR SIQUEIRA RODRIGUES DE ALMEIDA    05062010112TNE101102018  02202100000000003637300000000000000001                                118649198767774158029343027     
30001002934303CAMILLY SIQUEIRA RODRIGUES ALMEIDA     05122019212TNE113122019  02202100000000003637300000000000000001                                100000000000774158029343035     
30001003189500ADENISIA ROCHA SOARES                  29031985220TNE101122018  02202100000000003637300000000000000001                        88014319130385764847774158031895006     
30001003189501DERICK RUAN SOARES                     10032008112TNE101122018  02202100000000003637300000000000000001                                106488076302774158031895014     
30001003189502ERICK ANTHONY SOARES DA SILVA          31082002112TNE101122018  02202100000000003637300000000000000001                                106488070371774158031895022     
30001003189503ERICKA VICTORIA SOARES                 18092014212TNE101122018  02202100000000003637300000000000000001                                150803833806774158031895030     
30001003187900ADILSOM AQUIO TAKAMUNE                 30041978110TNE101122018  02202100000000003637300000000000000001                        88014305118916688892774158031879000     
30001003187901ENZO AQUIO CAVALCANTE TAKAMUNE         17082010112TNE101122018  02202100000000003637300000000000000001                                100000000000774158031879018     
30001003187902EIKE GABRIEL CAVALCANTE TAKAMUNE       12052017112TNE101122018  02202100000000003637300000000000000001                                152966751851774158031879026     
30001004213700ADLER CESAR DE SA LIMA                 19021995110EE0301102020  02202100000000003243600000000000000001                        88999035108527662469774158042137000     
30001002950500ADNA SARMENTO DA SILVA                 05111987240TNE101102018  02202100000000003637300000000000000001                        88013800103402481570774158029505005     
30001002950501THEO SARMENTO DA SILVA                 27042014112TNE101102018  02202100000000003637300000000000000001                                108781707584774158029505013     
30001002152000ADRIANA CECILIA SANTOS RIBEIRO         12091972210TNE101122017  02202100000000003637300000000000000001CONSULTORA          88012237    116583439808774158021520002     
30001002152001BEATRIZ RIBEIRO DE SOUZA               20072002212TNE101122017  02202100000000003637300000000000000001                                151854416820774158021520010     
30001002152002LETICIA RIBEIRO DE SOUZA               10102006212TNE101122017  02202100000000003637300000000000000001                                154108165870774158021520028     
30001002152003MATHEUS RIBEIRO DE SOUZA               08031999112TNE108102020  02202100000000003637300000000000000001                                147591368869774158021520036     
30001000102300ADRIANA CERQUEIRA DE ARAUJO            23121978220TNE101032016  02202100000000003637300000000000000001COORDENADOR DE AREA 1023        103225256404774158001023001     
30001000102301FRANCISCO PEREIRA DE ANDRADE JUNIOR    08051980121TNE101032016  02202100000000003637300000000000000001                                164146790387774158001023019     
30001000102302MARIA ALICE CERQUEIRA DE ANDRADE       14072010212TNE101032016  02202100000000003637300000000000000001                                110350006369774158001023027     
30001000102303ANA BEATRIZ CERQUEIRA DE ANDRADE       13012012212TNE101032016  02202100000000003637300000000000000001                                106808108382774158001023035     
30001000208900ADRIANA DOMINGOS DA SILVA              03101977210TNE101032016  02202100000000003637300000000000000001CONSULTOR DE VENDAS 2089        102858760403774158002089001     
30001000208901ELIVALDO MARIANO DA SILVA              23121979121TNE101072017  02202100000000003637300000000000000001                                102732275484774158002089019     
30001004093200ADRIANA FREITAS SANTOS PEREIRA         05101990220EE0304052020  02202100000000003243600000000000000001                        88998900139991501819774158040932006     
30001004093201EVELLYN SANTOS PEREIRA                 13032009212EE0304052020  02202100000000003243600000000000000001                                155923177862774158040932014     
30001004093202MARCOS PAULO PEREIRA LEMOS             06081990121EE0304052020  02202100000000003243600000000000000001                                139503249848774158040932022     
30001004093203EMILLY VITORIA SANTOS PEREIRA          15102020212EE0302112020  02202100000000003243600000000000000001                                158875027897774158040932030     
30001003898900ADRIANA GUIMARAES GALENO               26081985210TNE125102019  02202100000000003637300000000000000001                        88009964179796273268774158038989000     
30001003898901ISABELLY GALENO NASCIMENTO             02042011212TNE125102019  02202100000000003637300000000000000001                                100000000000774158038989018     
30001003898902LEILTON ARAUJO DO NASCIMENTO           20111983121TNE118052020  02202100000000003637300000000000000001                                173952664200774158038989026     
30001002887800ADRIANA JESUS SAMPAIO CAMPANINI        10071980210TNE101092018  02202100000000003637300000000000000001                        88013670129290442840774158028878007     
30001002887801VALENTINA JESUS SAMPAIO CAMPANINI      05092016212TNE107122018  02202100000000003637300000000000000001                                151732361835774158028878015     
30001002887802EDUARDO CAMPANINI                      06071981121TNE103012019  02202100000000003637300000000000000001                                128560098836774158028878023     
30001003482700ADRIANA MANHAES PEIXOTO REIS           11041984240TNE101032019  02202100000000003637300000000000000001                        88014847110722604769774158034827006     
30001003482701ANNA JULIA PEIXOTO REIS                18012012212TNE101032019  02202100000000003637300000000000000001                                120593681703774158034827014     
30001003928400ADRIANA MELO LOPES DA SILVA            25111992210EE0305122019  02202100000000003243600000000000000001                        88017572105614844309774158039284005     
30001001346300ADRIANA MONTE SANTO CONCEICAO          17011987210TNE101022017  02202100000000003637300000000000000001CONSULTORA          88010373    103060467501774158013463005     
30001001118500ADRIANA PEREIRA COUTINHO               27121974210TNE101112016  02202100000000003637300000000000000001CONSULTORA          11185       116804182898774158011185006     
30001001118501FERNANDA COUTINHO VITORINO             01102000212TNE101112016  02202100000000003637300000000000000001                                144485487830774158011185014     
30001003467300ADRIANA REGINA DE SOUZA                30111978210TNQ201022019  02202100000000004921100000000000000001                    078823      107882303798774158034673004     
30001003229800ADRIANE FERNANDES DA CUNHA             10121991210TNE101122018  02202100000000003637300000000000000001                        88013901100782877230774158032298002     
30001003229801HEITOR FERNANDES SOUZA                 26062019112TNE104072019  02202100000000003637300000000000000001                                108456276278774158032298010     
30001002952100ADRIANE REINALDO SANTANA               30101993210TNE101102018  02202100000000003637300000000000000001                        88013802104957826536774158029521002     
30001003825300ADRIANO GOMES FERREIRA                 07021983110TNQ201102019  02202100000000004921100000000000000001                        88016986130259972819774158038253001     
30001003981000ADRIELE SERRA FERREIRA                 28041986210EE0304022020  02202100000000003243600000000000000001                        88017741100244076235774158039810007     
30001003981001ANA ELAYNE FERREIRA ROCHA              17062005212EE0304022020  02202100000000003243600000000000000001                                105735225294774158039810015     
30001003981002LUIS OTAVIO FERREIRA DOS SANTOS        17052018112EE0304022020  02202100000000003243600000000000000001                                107268299273774158039810023     
30001003981003ANTONIO GUSTAVO FERREIRA ROCHA         20082007112EE0326032020  02202100000000003243600000000000000001                                100000000000774158039810031     
30001000755200ADRIELLE PEREIRA CARNEIRO              16111992210TNE101062016  02202100000000003637300000000000000001CONSULTORA          7552        111265599700774158007552003     
30001000755201JOAO SAMUEL PEREIRA CASTRO             21122014112TNE101062016  02202100000000003637300000000000000001                                118481856770774158007552011     
30001001969000ADRIELLE PEREIRA MONTEIRO              12041997210TNE101092017  02202100000000003637300000000000000001CONSULTORA          88011666    154612373200774158019690007     
30001001969001HITALO CONDE OLIVEIRA                  20041995121TNE101092017  02202100000000003637300000000000000001                                170007761295774158019690015     
30001000483900ADRIELLY B CARDOSO VIEIRA REIS         29111993210TNE101032016  02202100000000003637300000000000000001CONSULTOR DE VENDAS     88008288174901117149774158004839007     
30001000483901GUSTAVO HENRIQUE MOREIRA BATISTA       11121992121TNE101072017  02202100000000003637300000000000000001                                175082543172774158004839015     
30001000483902ANTHONI BATISTA DOS REIS PIMENTA       02082017112TNE101102017  02202100000000003637300000000000000001                                108582494130774158004839023     
30001002158000AGNES DOS SANTOS PEREIRA               03091988210TNE101122017  02202100000000003637300000000000000001CONSULTORA          88012243    135325324845774158021580006     
30001002158001HELENA DOS SANTOS FURLANETTI           22022011212TNE116052019  02202100000000003637300000000000000001                                144383163831774158021580014     
30001002158002JOAO LUCAS DOS SANTOS                  16032020112TNE127032020  02202100000000003637300000000000000001                                158357933831774158021580022     
30001003675700AIDA NEVES DE ALMEIDA                  17051979220TNE105062019  0220210000000000363730000000000000000116009                   88015354198168363191774158036757003     
30001003675703BEATRIZ K CAVALCANTE ALMEIDA           26081997212TNE102112020  02202100000000003637300000000000000001                                170342569180774158036757037     
30001003438000AISLANY GHEZZI                         26012000210TNE101022019  02202100000000003637300000000000000001                        88014769147912012800774158034380006     
30001000951200ALAN LUIZ SANTOS PAULA                 22051995110TNE101082016  02202100000000003637300000000000000001AUXILIAR            9512        137495215810774158009512005     
30001004312500ALAN VINICIUS ESTEVES COSTA            13011998110EE0316122020IR12202000000000001621800000000000000003                        88018356140145230805774158043125004     
30001004312500ALAN VINICIUS ESTEVES COSTA            13011998110EE0316122020IR01202100000000003243600000000000000003                        88018356140145230805774158043125004     
30001004312500ALAN VINICIUS ESTEVES COSTA            13011998110EE0316122020IM02202100000000003243600000000000000003                        88018356140145230805774158043125004     
30001003063500ALANNA DA SILVA LIMA                   21071995210TNE101112018  02202100000000003637300000000000000001                        88014011105730243596774158030635007     
30001002882700ALAYENE FARIAS DE CARVALHO             08061990210TNE101092018  02202100000000003637300000000000000001                        88013543100013655256774158028827004     
30001002882700ALAYENE FARIAS DE CARVALHO             08061990210TNE101092018CM02202100000000003637300000000000000055                        88013543100013655256774158028827004     
30001002882700ALAYENE FARIAS DE CARVALHO             08061990210TNE101092018CR01202100000000002546100000000000000055                        88013543100013655256774158028827004     
30001002882701MIKAEL DE DE CARVALHO BEZERRA          11072013112TNE101092018  02202100000000003637300000000000000001                                100000000000774158028827012     
30001002882701MIKAEL DE DE CARVALHO BEZERRA          11072013112TNE101092018CM02202100000000003637300000000000000055                                100000000000774158028827012     
30001002882701MIKAEL DE DE CARVALHO BEZERRA          11072013112TNE101092018CR01202100000000002546100000000000000055                                100000000000774158028827012     
30001004078900ALBERTO SANTANA DE PAULA DIAS          05041984110EE0316042020  02202100000000003243600000000000000001                        88016582104248127466774158040789000     
30001002743000ALCIENE CUNHA DE OLIVEIRA              13091987210TNE101072018  02202100000000003637300000000000000001                        88013259191828090204774158027430008     
30001002743001AGATA DE OLIVEIRA RATTES               06022020212TNE101032020  02202100000000003637300000000000000001                                100000000000774158027430016     
30001003174700ALCIMAR AZEVEDO GUERRA                 30041987210TNE101122018  02202100000000003637300000000000000001                        88014207107429793428774158031747009     
30001002569000ALCIONE TAMIRES TIRADO DOS SANTOS      18081992210TNE101052018  02202100000000003637300000000000000001                        88012894132252283890774158025690009     
30001002569001LORRAN E SANTOS RODRIGUES VIEIRA       18072010112TNE101052018  02202100000000003637300000000000000001                                154212128829774158025690017     
30001000338700ALDENISA S NASCIMENTO BARCELLOS        04101983220TNE101032016  02202100000000003637300000000000000001CONSULTOR DE VENDAS 3387        100387295127774158003387008     
30001000338701EDNANDO DA CUNHA BARCELLOS             28031983121TNE101032016  02202100000000003637300000000000000001                                197365238100774158003387016     
30001000338702NICOLAS SOUZA BARCELLOS                02102013112TNE101032016  02202100000000003637300000000000000001                                100000000000774158003387024     
30001000338703KARYTTA KAUANNE RODRIGUES BARCELLOS    23012008212TNE101072016  02202100000000003637300000000000000001                                171262825164774158003387032     
30001002795200ALDERSON GONCALVES DO AMARANTE         02061980110TNQ201082018  02202100000000004921100000000000000001                        88013379101209053616774158027952001     
30001002795200ALDERSON GONCALVES DO AMARANTE         02061980110TNQ201082018CM02202100000000004921100000000000000055                        88013379101209053616774158027952001     
30001002795200ALDERSON GONCALVES DO AMARANTE         02061980110TNQ201082018CR01202100000000004921100000000000000055                        88013379101209053616774158027952001     
30001002795200ALDERSON GONCALVES DO AMARANTE         02061980110TNQ201082018CR12202000000000003772800000000000000055                        88013379101209053616774158027952001     
30001003175500ALESSANDRA DE JESUS SANTANA            15111990240TNE101122018  02202100000000003637300000000000000001                        88014208104531005546774158031755002     
30001003175501JORGE DE JESUS SANTANA                 25062017112TNE101122018  02202100000000003637300000000000000001                                109621312531774158031755010     
30001004104100ALESSANDRA MARIA DA SILVA              19091991220EE0304052020  02202100000000003243600000000000000001                        88998930141886655804774158041041005     
30001004104101EDUARDO ROQUE DOS SANTOS               09032014112EE0304052020  02202100000000003243600000000000000001                                157782314828774158041041013     
30001004104102GUSTAVO HENRIQUE OLIVEIRA DA SILVA     03012007112EE0304052020  02202100000000003243600000000000000001                                151545238812774158041041021     
30001001469900ALESSANDRA MORAES                      11041979210TNE101032017  02202100000000003637300000000000000001CONSULTORA          88008833    128555116821774158014699003     
30001000715300ALESSANDRA PEIXOTO PAULA ALCANTARA     01061982210TNE101052016  02202100000000003637300000000000000001CONSULTORA          7153        171901140172774158007153000     
30001000715301ALICE PEIXOTO DE ALCANTARA             31032018212TNE108052018  02202100000000003637300000000000000001                                109208386180774158007153018     
30001000715302ANTONY HALF DE ALCANTARA BARBOSA       03061987121TNE122042019  02202100000000003637300000000000000001                                101162505184774158007153026     
30001004295100ALESSANDRA PESSOA DOS SANTOS           04081983210EE0308122020  02202100000000003243600000000000000001                        89029106102607142598774158042951004     
30001004295101ARIEL PESSOA DA SILVA                  23042010112EE0308122020  02202100000000003243600000000000000001                                106913330502774158042951012     
30001004181500ALESSANDRO MONTEIRO                    18061975120EE0303082020  02202100000000003243600000000000000001                        88011443103489306740774158041815002     
30001004181501MARIA ISABELA AZEVEDO MONTEIRO         04022002212EE0303082020  02202100000000003243600000000000000001                                117921412700774158041815010     
30001000822200ALESSANDRO SOUZA DA SILVA              23041986110TNE101072016  02202100000000003637300000000000000001CONSULTOR           8222        110661110737774158008222002     
30001000822201MARIANE MARQUES DA SILVA               15052008212TNE101072016  02202100000000003637300000000000000001                                121419856766774158008222010     
30001000822202ANA JULIA LEMOS DA SILVA               23092009212TNE101072016  02202100000000003637300000000000000001                                100000000000774158008222028     
30001003166600ALEX SANDER GOMES MENDONCA             05081977110TNE101112018  02202100000000003637300000000000000001                        88014048107518421763774158031666001     
30001003166601ARTHUR ROSA MENDONCA                   04042005112TNE101112018  02202100000000003637300000000000000001                                119696896760774158031666019     
30001003166602THAIS SILVA ROSA                       10081978211TNE101112018  02202100000000003637300000000000000001                                108337300701774158031666027     
30001003166603BERNARDO BRITO MENDONCA                14122015112TNE101122018  02202100000000003637300000000000000001                                121223406733774158031666035     
30001000161900ALEX SANDRO MESQUITA DA COSTA          08091977210TNE101032016  02202100000000003637300000000000000001SUPERVISOR DE VENDAS1619        107356272741774158001619006     
30001003708700ALEXANDRA CARRUPT AZEVEDO PACHECO      25011984220TNE109072019  0220210000000000363730000000000000000133018                   88015465110571843735774158037087004     
30001003708701VITOR CARRUPT DE AZEVEDO PACHECO       13112018112TNE109072019  02202100000000003637300000000000000001                                121209344793774158037087012     
30001004023100ALEXANDRA MARIELLA REIS DE OLIVEIRA    27061987210EE0314022020  02202100000000003243600000000000000001                        88017915106095155436774158040231003     
30001004023101LUCAS REIS DA SILVA BESERRA            29022012112EE0314022020  02202100000000003243600000000000000001                                116800618446774158040231011     
30001004023102MARIA ABGAIL REIS DA SILVA             05032008212EE0314022020  02202100000000003243600000000000000001                                116798875483774158040231029     
30001003545900ALEXIA DE ALMEIDA DA SILVA             10101997210TNE104032019  02202100000000003637300000000000000001                        88014902145578462898774158035459007     
30001003545901MAICON VIANA SANTOS                    27021993121TNE106122019  02202100000000003637300000000000000001                                143842960883774158035459015     
30001004290000ALEXIA FERREIRA PAZ                    24091991220EE0308122020  02202100000000003243600000000000000001                        88999117114359800770774158042900001     
30001004290001MANUELA PAZ DE ALMEIDA                 12042016212EE0308122020  02202100000000003243600000000000000001                                119220970716774158042900019     
30001004290002PEDRO PAZ DE ALMEIDA                   18042012112EE0308122020  02202100000000003243600000000000000001                                116694922736774158042900027     
30001003420700ALEXSANDER ROCHA AZEVEDO               01011983120TNE101022019  02202100000000003637300000000000000001                        88014676109997613740774158034207001     
30001003420701ANA CLARA PAIXAO AZEVEDO               20092014212TNE101022019  02202100000000003637300000000000000001                                100000000000774158034207019     
30001003420702VANESSA PAIXAO DE ARAUJO AZEVEDO       02031991221TNE101022019  02202100000000003637300000000000000001                                118258175700774158034207027     
30001004325700ALEXSSANDRO GONCALVES DE FARIAS        18071978120EE0329122020IR12202000000000000216200000000000000003                        88999145190677870434774158043257005     
30001004325700ALEXSSANDRO GONCALVES DE FARIAS        18071978120EE0329122020IR01202100000000003243600000000000000003                        88999145190677870434774158043257005     
30001004325700ALEXSSANDRO GONCALVES DE FARIAS        18071978120EE0329122020IM02202100000000003243600000000000000003                        88999145190677870434774158043257005     
30001004325701ANA FLAVIA MARQUES DE FARIAS           30121986221EE0329122020IR12202000000000000216200000000000000003                                106405427439774158043257013     
30001004325701ANA FLAVIA MARQUES DE FARIAS           30121986221EE0329122020IR01202100000000003243600000000000000003                                106405427439774158043257013     
30001004325701ANA FLAVIA MARQUES DE FARIAS           30121986221EE0329122020IM02202100000000003243600000000000000003                                106405427439774158043257013     
30001004325702LAURA MARQUES GONCALVES DE FARIAS      27012015212EE0329122020IR12202000000000000216200000000000000003                                113802327403774158043257021     
30001004325702LAURA MARQUES GONCALVES DE FARIAS      27012015212EE0329122020IR01202100000000003243600000000000000003                                113802327403774158043257021     
30001004325702LAURA MARQUES GONCALVES DE FARIAS      27012015212EE0329122020IM02202100000000003243600000000000000003                                113802327403774158043257021     
30001003168200ALGIA RITA DA SILVA                    22051995210TNE101122018  02202100000000003637300000000000000001                        88014161140523052804774158031682008     
30001002484800ALICE FERNANDA RAMOS SOUZA             01081990210TNE101042018  02202100000000003637300000000000000001                        88012822102407013131774158024848004     
30001002484801SOPHIA LUIZA RAMOS SANTOS              16022009212TNE101042018  02202100000000003637300000000000000001                                109920590118774158024848012     
30001002484802ARTHUR FELIPE RAMOS DE SOUZA           21082020112TNE119092020  02202100000000003637300000000000000001                                110864212135774158024848020     
30001000197000ALICE RAMAIANE DANTAS DE MORAIS        15071992210TNE101032016  02202100000000003637300000000000000001CONSULTOR DE VENDAS 1970        109512469413774158001970003     
30001004313300ALINE ALEXANDRINO VIANA                11081981210EE0301122020IR12202000000000003243600000000000000003                        89029086109254580740774158043133008     
30001004313300ALINE ALEXANDRINO VIANA                11081981210EE0301122020IR01202100000000003243600000000000000003                        89029086109254580740774158043133008     
30001004313300ALINE ALEXANDRINO VIANA                11081981210EE0301122020IM02202100000000003243600000000000000003                        89029086109254580740774158043133008     
30001000142200ALINE ALVES DE SOUSA CRUZ              30041989220TNE101032016  02202100000000003637300000000000000001CONSULTOR DE VENDAS 1422        103554598330774158001422005     
30001000142201CARLOS DIEGO DA SILVA CRUZ             07111987121TNE101032016  02202100000000003637300000000000000001                                101197896392774158001422013     
30001000142202MARIA FERNANDA SOUSA CRUZ              22102013212TNE101032016  02202100000000003637300000000000000001                                100000000000774158001422021     
30001003069400ALINE ALVES FROTA DE ABREU             31031983220TNE101112018  02202100000000003637300000000000000001                        88014089131896234810774158030694004     
30001003069401JHESSICA ALVES DOS SANTOS              26042012212TNE101112018  02202100000000003637300000000000000001                                100000000000774158030694012     
30001003069402MATHEUS ALVES DOS SANTOS               01062019142TNE108072019  02202100000000003637300000000000000001                                157268442890774158030694020     
30001000216000ALINE DOS SANTOS NUNES                 12061985210TNQ201032016  02202100000000004921100000000000000001CONSULTOR DE VENDAS 2160        101608662519774158002160000     
30001000216001ANA LIZ SANTOS CABRAL                  27062008212TNQ201032016  02202100000000004921100000000000000001                                110381221555774158002160018     
30001000216002HELOISA SANTOS SANTANA                 14032019212TNQ201042019  02202100000000004921100000000000000001                                111149109530774158002160026     
30001001888000ALINE DRACHENBERG                      26071983210TNQ201092017  02202100000000004921100000000000000001SUPERVISORA         88011771    132976744823774158018880005     
30001000008600ALINE GONCALVES ALBUQUERQUE            09021978210TNQ201032016  02202100000000004921100000000000000001SUPERVISOR DE VENDAS86          108128981765774158000086009     
30001000008601LEONARDO RICARDO PEREIRA FILHO         06081997112TNQ201032016  02202100000000004921100000000000000001                                114490642725774158000086017     
30001000008602EDUARDO RICARDO PEREIRA                06062004112TNQ201032016  02202100000000004921100000000000000001                                114490643705774158000086025     
30001000008603NICKOLAS OLIVEIRA ALBUQUERQUE          23062010112TNQ201032016  02202100000000004921100000000000000001                                120884910741774158000086033     
30001002942400ALINE GONCALVES MAXIMIANO              28071990210TNE101102018  02202100000000003637300000000000000001                        88013779108167616630774158029424009     
30001002942400ALINE GONCALVES MAXIMIANO              28071990210TNE101102018CM02202100000000003637300000000000000055                        88013779108167616630774158029424009     
30001002942400ALINE GONCALVES MAXIMIANO              28071990210TNE101102018CR01202100000000003637300000000000000055                        88013779108167616630774158029424009     
30001002942400ALINE GONCALVES MAXIMIANO              28071990210TNE101102018CR12202000000000000121200000000000000055                        88013779108167616630774158029424009     
30001000980600ALINE GUEDES NUNES                     06121978210TNE101092016  02202100000000003637300000000000000001CONSULTORA          9806        108241226748774158009806001     
30001000980602CLAUDIO LUIZ SOARES DE LIMA            31011974121TNE101092017  02202100000000003637300000000000000001                                102482422701774158009806027     
30001003861000ALINE IBANEZ PIRES                     01121998210TNE101102019  02202100000000003637300000000000000001                        88017272106186160122774158038610002     
30001003861001ANNY SOPHIE IBANEZ BOTELHO             19122016212TNE101102019  02202100000000003637300000000000000001                                108163080124774158038610010     
30001002568200ALINE KELLY RAMOS BRUM                 01011989210TNE101052018  02202100000000003637300000000000000001                        88012893113079507797774158025682006     
30001002568201YAN FELIPE RAMOS DE CARVALHO           17102005112TNE101052018  02202100000000003637300000000000000001                                117224341711774158025682014     
30001002568202ALICE BRUM LOPES                       21082020212TNE119092020  02202100000000003637300000000000000001                                122284209726774158025682022     
30001000489800ALINE LUIZA NASCIMENTO DOS SANTOS      26011986220TNE101032016  02202100000000003637300000000000000001CONSULTOR DE VENDAS 4898        134757907850774158004898003     
30001000489801CLODOALDO JOSE DOS SANTOS              29101982121TNE101032016  02202100000000003637300000000000000001                                131079829890774158004898011     
30001000489802LORENA LUIZA SANTOS                    21012013212TNE101032016  02202100000000003637300000000000000001                                100000000000774158004898029     
30001002888600ALINE OLIVEIRA DE MIRANDA              10011992210TNE101092018  02202100000000003637300000000000000001                        88013714101240763271774158028886000     
30001002888601ASAFE MIRANDA LOUREIRO                 09092019142TNE101102019  02202100000000003637300000000000000001                                121817912798774158028886018     
30001000754400ALINE PEREIRA COSTA                    30081985210TNE101062016  02202100000000003637300000000000000001CONSULTORA          7544        179368034249774158007544000     
30001000754401MARIA CLARA PEREIRA SILVA              08122007212TNE101062016  02202100000000003637300000000000000001                                100000000000774158007544018     
30001000754402MARIA HELENA PEREIRA AGUIAR            17082018212TNE115092018  02202100000000003637300000000000000001                                107485923269774158007544026     
30001000754403ERICSSON RUTTEMBERG AGUIAR DA SILVA    07041995121TNE101042019  02202100000000003637300000000000000001                                101383003211774158007544034     
30001001781700ALINE SOARES DA SILVA                  13021989220TNE101072017  02202100000000003637300000000000000001CONSULTORA          88011240    136339345883774158017817008     
30001001781700ALINE SOARES DA SILVA                  13021989220TNE101072017CM02202100000000003637300000000000000055CONSULTORA          88011240    136339345883774158017817008     
30001001781700ALINE SOARES DA SILVA                  13021989220TNE101072017CR01202100000000002546100000000000000055CONSULTORA          88011240    136339345883774158017817008     
30001001781702LETICIA GIOVANNA DA SILVA              19102011212TNE101072017  02202100000000003637300000000000000001                                100000000000774158017817024     
30001001781702LETICIA GIOVANNA DA SILVA              19102011212TNE101072017CM02202100000000003637300000000000000055                                100000000000774158017817024     
30001001781702LETICIA GIOVANNA DA SILVA              19102011212TNE101072017CR01202100000000002546100000000000000055                                100000000000774158017817024     
30001002622000ALINE VASCONCELOS SANTOS               10051987210TNE101052018  02202100000000003637300000000000000001                        88012989102259161502774158026220004     
30001000057400ALINIR PEREIRA DE ALMEIDA PAVAO        17011991210TNE101032016  02202100000000003637300000000000000001CONSULTOR DE VENDAS 574         100124325203774158000574004     
30001000057401MAGNO ALEXANDRE SANTOS PAVAO           26081973121TNE101082017  02202100000000003637300000000000000001                                141936825287774158000574012     
30001000057402AGATHA ALMEIDA PAVAO                   06062019212TNE117062019  02202100000000003637300000000000000001                                108426242286774158000574020     
30001001348000ALLAN SILVA PEDROSO                    15041991110TNE101022017  02202100000000003637300000000000000001AUXILIAR            88010288    139015266840774158013480009     
30001003072400ALLINE CRISTINA DE FARIAS              27031980220TNQ201112018  02202100000000004921100000000000000001                        88014148128256632801774158030724009     
30001003072401ALLAN CARLOS VERILLO                   31071984121TNQ201112018  02202100000000004921100000000000000001                                131430382848774158030724017     
30001003072402JOAO PEDRO FARIAS                      03122007112TNQ201112018  02202100000000004921100000000000000001                                101404277242774158030724025     
30001003072403KAUA FARIAS VERILLO                    10072004112TNQ201112018  02202100000000004921100000000000000001                                137372574854774158030724033     
30001003715000ALMY COELHO ANDRADE FILHO              27051990110TNE122072019  0220210000000000363730000000000000000136001                   88014789100756771307774158037150000     
30001003715000ALMY COELHO ANDRADE FILHO              27051990110TNE122072019CM0220210000000000363730000000000000005536001                   88014789100756771307774158037150000     
30001003715000ALMY COELHO ANDRADE FILHO              27051990110TNE122072019CR0120210000000000254610000000000000005536001                   88014789100756771307774158037150000     
30001000675000ALZENIR GONCALVES AMORIM DE ALENCAR    19041987220TNE101042016  02202100000000003637300000000000000001AUXILIAR COMERCIAL  6750        101409154351774158006750004     
30001000675001ALEXSANDRO DE ALENCAR BEZERRA          17031978121TNE101042016  02202100000000003637300000000000000001                                101882943333774158006750012     
30001000675002PEDRO VINICIUS GONCALVES DE ALENCAR    10012009112TNE101022018  02202100000000003637300000000000000001                                106868641311774158006750020     
30001000675003CICERO ISAAC GONCALVES DE ALENCAR      26012011112TNE101022018  02202100000000003637300000000000000001                                106868645309774158006750038     
30001004193900AMANDA APARECIDA FURTADO               04091981210EE0309092020  02202100000000003243600000000000000001                        88999031129607186826774158041939000     
30001003972100AMANDA CAROLYNNE BEZERRA DA SILVA      28121993210EE0317012020  02202100000000003243600000000000000001                        88017729110329769421774158039721006     
30001001054500AMANDA CONCEICAO MANGIA                09071993210TNE101102016  02202100000000003637300000000000000001CONSULTORA          10545       116122157775774158010545002     
30001003990000AMANDA CRISTIANE ROSA                  18011994210EE0304022020  02202100000000003243600000000000000001                        88017786142600939830774158039900006     
30001004242000AMANDA MELO BRAYNER                    19021989220TNE131102020  02202100000000003637300000000000000001                        88999065102774894310774158042420000     
30001004242001BEATRYZ BRAYNER MACHADO                27112009212TNE131102020  02202100000000003637300000000000000001                                105459952131774158042420018     
30001003908000AMANDA MOREIRA TEIXEIRA                16081993210TNE102122019  02202100000000003637300000000000000001                        88017425111887608664774158039080007     
30001003780000AMANDA RIBEIRO FERNANDES               12021982220TNE103092019  02202100000000003637300000000000000001LOJA                    88016504122201728801774158037800000     
30001003780001AMYLY RIBEIRO FERNANDES                26082000112TNE103092019  02202100000000003637300000000000000001                                149052919844774158037800018     
30001003780002ANTONIO DONIZETI FERNANDES             26081980121TNE103092019  02202100000000003637300000000000000001                                129127314880774158037800026     
30001003780003CAIO RIBEIRO FERNANDES                 03022011112TNE103092019  02202100000000003637300000000000000001                                146706753890774158037800034     
30001002563100AMANDA TEIXEIRA DA SILVA               29061995210TNE101052018  02202100000000003637300000000000000001                        88012882114935212764774158025631003     
30001000168600AMENAIDE DIAS DOS SANTOS               02101970210TNE101032016  02202100000000003637300000000000000001CONSULTOR DE VENDAS 1686        150517805120774158001686005     
30001000396400ANA ANGELICA QUIXABEIRA TAVARES        20081988220TNE101032016  02202100000000003637300000000000000001CONSULTOR DE VENDAS 3964        107388967990774158003964004     
30001000396401FABIO FLORENCIO DE SOUSA               16021982121TNE101032016  02202100000000003637300000000000000001                                100752149113774158003964012     
30001003419300ANA CAROLINA AMARAL FRANCA             03071992240TNE101022019  02202100000000003637300000000000000001                        88014675111096601621774158034193003     
30001003419300ANA CAROLINA AMARAL FRANCA             03071992240TNE101022019CM02202100000000003637300000000000000055                        88014675111096601621774158034193003     
30001003419300ANA CAROLINA AMARAL FRANCA             03071992240TNE101022019CR01202100000000002546100000000000000055                        88014675111096601621774158034193003     
30001003419301KELVIN FRANCA SILVA                    13122014112TNE101022019  02202100000000003637300000000000000001                                100000000000774158034193011     
30001003419301KELVIN FRANCA SILVA                    13122014112TNE101022019CM02202100000000003637300000000000000055                                100000000000774158034193011     
30001003419301KELVIN FRANCA SILVA                    13122014112TNE101022019CR01202100000000002546100000000000000055                                100000000000774158034193011     
30001003615300ANA CAROLINA APARECIDA SILVA           14061991220TNE101022019  02202100000000003637300000000000000001                    113371      111337167681774158036153005     
30001003615301VICTOR EMANUEL SILVA PEREIRA           23092009112TNE101022019  02202100000000003637300000000000000001                                100000000000774158036153013     
30001003615302RHIUSTON RICCELLE DE OLIVEIRA NETO     18071989121TNE101022019  02202100000000003637300000000000000001                                107060676651774158036153021     
30001003851200ANA CAROLINA BEZERRA LIMA              09041989220TNE118102019  02202100000000003637300000000000000001                        88017186103387064373774158038512000     
30001003851200ANA CAROLINA BEZERRA LIMA              09041989220TNE118102019CM02202100000000003637300000000000000055                        88017186103387064373774158038512000     
30001003851200ANA CAROLINA BEZERRA LIMA              09041989220TNE118102019CR01202100000000000121200000000000000055                        88017186103387064373774158038512000     
30001003851201ANDERSON ALVES DE MELO                 16121982121TNE118102019  02202100000000003637300000000000000001                                194673330315774158038512018     
30001003851201ANDERSON ALVES DE MELO                 16121982121TNE118102019CM02202100000000003637300000000000000055                                194673330315774158038512018     
30001003851201ANDERSON ALVES DE MELO                 16121982121TNE118102019CR01202100000000000121200000000000000055                                194673330315774158038512018     
30001000421900ANA CAROLINA COSTA DE OLIVEIRA         07111979210TNE101032016  02202100000000003637300000000000000001CONSULTOR DE VENDAS 4219        109015497702774158004219002     
30001000421900ANA CAROLINA COSTA DE OLIVEIRA         07111979210TNE101032016CM02202100000000003637300000000000000055CONSULTOR DE VENDAS 4219        109015497702774158004219002     
30001000421900ANA CAROLINA COSTA DE OLIVEIRA         07111979210TNE101032016CR01202100000000003637300000000000000055CONSULTOR DE VENDAS 4219        109015497702774158004219002     
30001000421900ANA CAROLINA COSTA DE OLIVEIRA         07111979210TNE101032016CR12202000000000002667300000000000000055CONSULTOR DE VENDAS 4219        109015497702774158004219002     
30001000421901LARYSSA COSTA DE ARAUJO                22042004212TNE101032016  02202100000000003637300000000000000001                                114912895709774158004219010     
30001000421901LARYSSA COSTA DE ARAUJO                22042004212TNE101032016CM02202100000000003637300000000000000055                                114912895709774158004219010     
30001000421901LARYSSA COSTA DE ARAUJO                22042004212TNE101032016CR01202100000000003637300000000000000055                                114912895709774158004219010     
30001000421901LARYSSA COSTA DE ARAUJO                22042004212TNE101032016CR12202000000000002667300000000000000055                                114912895709774158004219010     
30001003536000ANA CAROLINA DA SILVA ROQUE            06071994210TNE102032019  02202100000000003637300000000000000001                        88014879143279499810774158035360007     
30001003536001BENICIO ROQUE                          16092020112TNE120112020  02202100000000003637300000000000000001                                158815674802774158035360015     
30001000327100ANA CAROLINA DE JESUS OLIVEIRA         25041987210TNE101032016  02202100000000003637300000000000000001CONSULTOR DE VENDAS 3271        102295875501774158003271004     
30001000327101THIAGO DA SILVA ROCHA                  04061988121TNE107102019  02202100000000003637300000000000000001                                112629468755774158003271012     
30001001243200ANA CAROLINA PINHEIRO SILVA            14091993210TNE101122016  02202100000000003637300000000000000001CONSULTORA          12432       141222858878774158012432001     
30001001243201IZAIAS ANTONIO DE ARAUJO               27041977121TNE119062020  02202100000000003637300000000000000001                                102044974428774158012432019     
30001002461900ANA CLARA PAGOTTO                      21021985220TNQ201042018  02202100000000004921100000000000000001                        88012729132718902850774158024619009     
30001002461901CAIO AUGUSTO PAGOTTO ALONSO            21042005112TNQ201042018  02202100000000004921100000000000000001                                146691521811774158024619017     
30001002461902HELENA PAGOTTO DE SALES                13092017212TNQ208102020  02202100000000004921100000000000000001                                100000000000774158024619025     
30001002957200ANA CLAUDIA BISPO REZENDE              19021993210TNE101102018  02202100000000003637300000000000000001                        88013838111189664658774158029572005     
30001002957201JULIA CAROLINE REZENDE FARIA           22042009212TNE101102018  02202100000000003637300000000000000001                                115993231688774158029572013     
30001002957202BERNARDO REZENDE CUNHA SOARES          23022020112TNE117032020  02202100000000003637300000000000000001                                118294161624774158029572021     
30001002747200ANA CLAUDIA VERISSIMO                  15101972210TNQ201072018  02202100000000004921100000000000000001                        88013275118092726884774158027472000     
30001000201100ANA CRISTINA JUSTINO RIBEIRO           08041978210TNE101032016  02202100000000003637300000000000000001AUXILIAR DE SERVICOS2011        163964139300774158002011005     
30001000201102LUANA CRISTINE JUSTINO RIBEIRO         31082006212TNE101032016  02202100000000003637300000000000000001                                162704539332774158002011021     
30001002953000ANA CRISTINA RIBEIRO AGUIAR            17091984220TNE101102018  02202100000000003637300000000000000001                        88013803102290767506774158029530003     
30001002953001DARIO RIBEIRO LIMA                     05101983121TNE101102018  02202100000000003637300000000000000001                                101793955565774158029530011     
30001002953002EDUARDO DANIEL AGUIAR RIBEIRO LIMA     23082016112TNE101102018  02202100000000003637300000000000000001                                100000000000774158029530029     
30001003468100ANA FLORIZE MELO CARNEIRO DA SILVA     11111986220TNE101022019  02202100000000003637300000000000000001                    062433      106243307450774158034681007     
30001003468101ANDERSON ALEXANDRE REALE DE ARAUJO     24041987121TNE101022019  02202100000000003637300000000000000001                                107105573457774158034681015     
30001003468102ARTHUR REALE DE MELO                   09032017112TNE101022019  02202100000000003637300000000000000001                                114399182440774158034681023     
30001003066000ANA JACQUELINE BELO DA SILVA           26081985210TNE101112018  02202100000000003637300000000000000001                        88014040106599305440774158030660005     
30001003407000ANA KAROLINA CRISTOVAO NASCIMENTO      11041995210TNE101022019  02202100000000003637300000000000000001                        88014637117071292744774158034070003     
30001003407001BERNARDO C NASCIMENTO DOMINGUES        08042020112TNE107052020  02202100000000003637300000000000000001                                122124895796774158034070011     
30001002304300ANA LUCIA CONCEICAO COSTA              31071992210TNE101022018  02202100000000003637300000000000000001CONSULTORA          88012411    105787712501774158023043003     
30001000165100ANA LUCIA PEREIRA GUEDES               20121981210TNE101032016  02202100000000003637300000000000000001SUPERVISOR DE VENDAS1651        172565721153774158001651009     
30001000652100ANA LUCIA RODRIGUES DOS SANTOS         22101983220TNE101032016  02202100000000003637300000000000000001CONSULTOR DE VENDAS 6521        133491126843774158006521009     
30001004047900ANA LUIZA CINTRA SOUSA                 12091991210EE0317032020  02202100000000003243600000000000000001                        88017877107656624422774158040479008     
30001003537800ANA LUIZA TEIXEIRA BORTOLOTTO          23081991220TNE101032019  02202100000000003637300000000000000001                        88014880142118020899774158035378009     
30001003537801LEANDRO BORTOLOTTO                     20081979121TNE101032019  02202100000000003637300000000000000001                                121974600807774158035378017     
30001003537802VALLENTINA BORTOLOTTO                  12032015212TNE101032019  02202100000000003637300000000000000001                                100000000000774158035378025     
30001002437600ANA LUYSA DE QUEIROZ                   14011996220TNE119032018  02202100000000003637300000000000000001                    88007795    106629585356774158024376006     
30001004232300ANA M PINHEIRO OLIVEIRA RIBEIRO        27081991220EE0305102020  02202100000000003243600000000000000001                        89029015104164174188774158042323006     
30001000300000ANA MARIA DE FATIMA VIEIRA             21101992210TNE101032016  02202100000000003637300000000000000001CONSULTOR DE VENDAS 3000        111029651620774158003000007     
30001000106600ANA NAJARA BONFIM VIEIRA               02071984210TNE101032016  02202100000000003637300000000000000001SUPERVISOR DE VENDAS1066        197501956391774158001066000     
30001000106602ANA BEATRIZ BONFIM RICARTE             29042003212TNE101032016  02202100000000003637300000000000000001                                100000000000774158001066026     
30001000106603PEDRO RIQUELME BOMFIM RICARTE          31052006112TNE101032016  02202100000000003637300000000000000001                                109384760331774158001066034     
30001000106604SARAH POLYANNA BOMFIM ALVES            25021999212TNE107012021IR01202100000000002909800000000000000003                                107006242363774158001066042     
30001000106604SARAH POLYANNA BOMFIM ALVES            25021999212TNE107012021IM02202100000000003637300000000000000003                                107006242363774158001066042     
30001004087800ANA PAULA ALVES DE OLIVEIRA GARCIA     03041990220EE0304052020  02202100000000003243600000000000000001                        89028912103737003181774158040878001     
30001004087801ANA JULIA OLIVEIRA GARCIA              09092015212EE0304052020  02202100000000003243600000000000000001                                110363487174774158040878019     
30001004087802HUEDER GARCIA SILVA DIAS               14081985121EE0304052020  02202100000000003243600000000000000001                                100796677166774158040878027     
30001003862800ANA PAULA ANDRADE DE LIMA FREZZARIN    04111976220TNE101112019  02202100000000003637300000000000000001                        88017292122280473844774158038628004     
30001003862801DENILSON FREZZARIN                     09031973121TNE101112019  02202100000000003637300000000000000001                                115487948801774158038628012     
30001002759600ANA PAULA AZEVEDO TOGNERI RANGEL       16121980220TNQ201072018  02202100000000004921100000000000000001                        88013317108401206723774158027596006     
30001002759601LETICIA TOGNERI RANGEL                 18112010212TNQ201072018  02202100000000004921100000000000000001                                100000000000774158027596014     
30001002759602MARIANA TOGNERI RANGEL                 07072007212TNQ201072018  02202100000000004921100000000000000001                                100000000000774158027596022     
30001002759603EDUARDO CRESPO DE ABREU RANGEL         02071981121TNQ201072018  02202100000000004921100000000000000001                                109092915785774158027596030     
30001001668300ANA PAULA COSTA DA ROCHA               15021989210TNE101062017  02202100000000003637300000000000000001CONSULTOR           88010858    138492006803774158016683005     
30001001668301LUIZ HENRIQUE ROCHA DE LIMA            30032015112TNE101062017  02202100000000003637300000000000000001                                100000000000774158016683013     
30001001668302EMERSON CRUZ DE LIMA                   26081987121TNE101062017  02202100000000003637300000000000000001                                135679288800774158016683021     
30001002601800ANA PAULA DA SILVA SANTOS              20101991210TNE101052018  02202100000000003637300000000000000001                        88012948139669800889774158026018002     
30001002601801MATHEUS JONATHAN SANTOS SOARES         14112012112TNE101052018  02202100000000003637300000000000000001                                100000000000774158026018010     
30001002601802LORENZZO SILVA DE ALMEIDA              12052020112TNE126052020  02202100000000003637300000000000000001                                158528327825774158026018028     
30001002082600ANA PAULA DE MORAES ROSA               22111981210TNE101102017  02202100000000003637300000000000000001CONSULTORA          88011833    130363859837774158020826004     
30001002517800ANA PAULA DE OLIVEIRA GOMES            05061986210TNE101042018  02202100000000003637300000000000000001                        88012779105444964422774158025178005     
30001003797400ANA PAULA DE SOUZA MALTEZI PEREIRA     23041990220TNE106092019  02202100000000003637300000000000000001LOJA                    88016566139044031848774158037974003     
30001003797401ANA LAURA MALTEZI BEATO                27102008212TNE106092019  02202100000000003637300000000000000001                                157238313804774158037974011     
30001003797402GABRIEL RICARDO MALTEZI BEATO          15122006112TNE106092019  02202100000000003637300000000000000001                                157238253801774158037974029     
30001000354900ANA PAULA DUARTE DA ENCARNACAO         10041989210TNE101032016  02202100000000003637300000000000000001CONSULTOR DE VENDAS 3549        112292410788774158003549003     
30001000354901PIETRO ENCARNAO SINDICI REBONATTI      11112020112TNE120112020  02202100000000003637300000000000000001                                122366139705774158003549011     
30001001931300ANA PAULA ESTEVAO DA SILVA             08091983210TNE101092017  02202100000000003637300000000000000001CONSULTORA          88011673    130063153831774158019313006     
30001001931301VITORIA SOFIA ESTEVAO                  24072020212TNE122082020  02202100000000003637300000000000000001                                117290963440774158019313014     
30001000173200ANA PAULA FERREIRA BORGES              02121981220TNE101032016  02202100000000003637300000000000000001SUPERVISOR DE VENDAS1732        105736356686774158001732007     
30001000173201MILKER ARCANJO BROGES                  27031985121TNE101032016  02202100000000003637300000000000000001                                101465531602774158001732015     
30001004147500ANA PAULA LOPES NOVAIS GUEDES          07091993220EE0304052020  02202100000000003243600000000000000001                        88998901133184394875774158041475005     
30001004147501CLEITON FERREIRA GUEDES                15061992121EE0304052020  02202100000000003243600000000000000001                                141695848802774158041475013     
30001004147502GAEL LOPES GUEDES                      07092018112EE0304052020  02202100000000003243600000000000000001                                155723005863774158041475021     
30001003628500ANA PAULA PEREIRA BORGUETI             27081986220TNE105052019  02202100000000003637300000000000000001                        88015204133422315802774158036285005     
30001003628501LARA PEREIRA BOGUETI                   02102014212TNE105052019  02202100000000003637300000000000000001                                100000000000774158036285013     
30001003628502THIAGO PEREIRA DA SILVA                27081986121TNE105052019  02202100000000003637300000000000000001                                135777174833774158036285021     
30001000030200ANA PAULA RODRIGUES BRAGA RAMALHO      12081988210TNE101032016  02202100000000003637300000000000000001CONSULTOR DE VENDAS 302         107096041494774158000302000     
30001000030201MATEUS LEVI RAMALHO DE OLIVEIRA        10042016112TNE101052016  02202100000000003637300000000000000001                                114188008482774158000302018     
30001003057000ANA PAULA RODRIGUES DA SILVA           09011986210TNQ201112018  02202100000000004921100000000000000001                        88013971106753136436774158030570006     
30001003057001BERNARDO E CID OLIVEIRA RODRIGUES      02062017112TNQ216102019  02202100000000004921100000000000000001                                114579647408774158030570014     
30001003057002BENICIO H CID OLIVEIRA RODRIGUES       10112019112TNQ201122019  02202100000000004921100000000000000001                                116832215401774158030570022     
30001000867200ANA PAULA SILVA DUARTE                 14041995210TNE101082016  02202100000000003637300000000000000001AUXILIAR            8672        141733296875774158008672008     
30001004074600ANA PAULA VERALDO                      30061980210EE0301042020  02202100000000003243600000000000000001                        88018120128434614804774158040746000     
30001002883500ANA RAQUEL SANTOS PEREIRA              29071989210TNE101092018  02202100000000003637300000000000000001                        88013562102514271371774158028835007     
30001004020700ANA REJANE SANTOS NASCIMENTO MELO      05021988210EE0331012020  02202100000000003243600000000000000001                        88017181106709469409774158040207003     
30001004020701ANA GABRIELA NASCIMENTO MELO           11032013212EE0305112020  02202100000000003243600000000000000001                                112116813433774158040207011     
30001004020702MICHAEL DE MELO ALEXANDRINO            03071989121EE0305112020  02202100000000003243600000000000000001                                108379878493774158040207029     
30001003619600ANA SELMA OLIVEIRA SANTOS SILVA        03111991220TNE101042019  02202100000000003637300000000000000001                        88014617104697631161774158036196004     
30001003619601LUIZ VINICIUS OLIVEIRA DA SILVA        10022008112TNE101042019  02202100000000003637300000000000000001                                100000000000774158036196012     
30001003619602MARIA LUIZA OLIVEIRA DA SILVA          09082016212TNE101042019  02202100000000003637300000000000000001                                100000000000774158036196020     
30001003619603ANA CECILIA OLIVEIRA DA SILVA          07052020212TNE128052020  02202100000000003637300000000000000001                                100000000000774158036196038     
30001003619604JONATHAN FERREIRA DA SILVA SANTOS      19021987121TNE126062020  02202100000000003637300000000000000001                                102696319170774158036196046     
30001000426000ANA TEREZA DO NASCIMENTO SILVA         03021984210TNE101032016  02202100000000003637300000000000000001SUPERVISOR DE VENDAS4260        106153754643774158004260006     
30001003766400ANA ZELIA DE MORAIS SALGADO CUNHA      27011970210TNE103092019  02202100000000003637300000000000000001LOJA                    88015817167318576453774158037664000     
30001003471100ANALICE BATISTA DO NASCIMENTO          03021991220TNE118022019  02202100000000003637300000000000000001                        88013704139805681807774158034711002     
30001003471101HEITOR EVANGELISTA DO NASCIMENTO       03032007112TNE118022019  02202100000000003637300000000000000001                                146842191866774158034711010     
30001003471102HENRIQUE EVANGELISTA DO NASCIMENTO     07022014112TNE118022019  02202100000000003637300000000000000001                                100000000000774158034711028     
30001003471103HUGO EVANGELISTA DA SILVA              18041990121TNE118022019  02202100000000003637300000000000000001                                135768728848774158034711036     
30001001429000ANDERSON DE JESUS COSTA                30111989120TNQ201032017  02202100000000004921100000000000000001SUPERVISOR          88010438    101747385107774158014290001     
30001001429001JACKELINE OLIVEIRA RODRIGUES           16071988221TNQ201032017  02202100000000004921100000000000000001                                102786727103774158014290019     
30001001429002GUILHERME OLIVEIRA RODRIGUES JESUS     23072014112TNQ201032017  02202100000000004921100000000000000001                                100000000000774158014290027     
30001001429003MILENA OLIVEIRA RODRIGUES DE JESUS     28072017212TNQ201092017  02202100000000004921100000000000000001                                100000000000774158014290035     
30001003058900ANDERSON RIBEIRO FURTADO               15071986120TNE101112018  02202100000000003637300000000000000001                        88014002189360290297774158030589006     
30001003058901DYANNE KATYA PEREIRA FREITAS           08011987221TNE101112018  02202100000000003637300000000000000001                                189129105234774158030589014     
30001003058902LANNA CAROLINE FREITAS FURTADO         12022009212TNE101112018  02202100000000003637300000000000000001                                100000000000774158030589022     
30001003058903WANDER GABRIEL FREITAS FURTADO         29042019112TNE117052019  02202100000000003637300000000000000001                                108354799271774158030589030     
30001003905500ANDRE DA SILVA PEREIRA                 07061991110TNE102122019  02202100000000003637300000000000000001                        88017405138003558840774158039055009     
30001003905501RIAN DE SOUZA PEREIRA                  13022019112TNE105032020  02202100000000003637300000000000000001                                156611829881774158039055017     
30001003905502MARIA EDUARDA DE SOUZA PEREIRA         03012014212TNE127032020  02202100000000003637300000000000000001                                124385790809774158039055025     
30001003349900ANDRE FERNANDO DO NASCIMENTO SILVA     04121992110TNE101012019  02202100000000003637300000000000000001                        88014528160511092342774158033499005     
30001002722700ANDRE FORMAGIO BASTOS GUIMARAES        16101986110TNE101072018  02202100000000003637300000000000000001                        88013195111387156705774158027227008     
30001002722701BERNARDO SANTOS FORMAGIO GUIMARAES     06012013112TNE118112019  02202100000000003637300000000000000001                                117523658792774158027227016     
30001003129100ANDRE GERALDO DOS SANTOS PEREIRA       02101981120TNQ201112018  02202100000000004921100000000000000001                        88014091122295273803774158031291008     
30001003129101ALICIA AMORI PEREIRA                   05112008212TNQ201112018  02202100000000004921100000000000000001                                153000971874774158031291016     
30001003129102JULIANA AMORI AUGUSTO                  12021986221TNQ201112018  02202100000000004921100000000000000001                                122833956827774158031291024     
30001003129103LAURA AMORI PEREIRA                    05112008212TNQ201112018  02202100000000004921100000000000000001                                153000949860774158031291032     
30001001481800ANDRE LUIS LUZ FARIAS                  27081990110TNE101042017  02202100000000003637300000000000000001CONSULTOR           88010628    199266814253774158014818009     
30001004166100ANDRE LUIZ SORGE                       24081988120EE0314072020  02202100000000003243600000000000000001                        89048918135257739860774158041661000     
30001004349400ANDREA AMANCIO BATISTA                 04011990210EE0312012021IR01202100000000002054200000000000000003                        89029186108986637413774158043494004     
30001004349400ANDREA AMANCIO BATISTA                 04011990210EE0312012021IM02202100000000003243600000000000000003                        89029186108986637413774158043494004     
30001003732000ANDREA DO NASCIMENTO E SILVA           24091988210TNE102082019  02202100000000003637300000000000000001                        88015605108645186411774158037320009     
30001003732001ANDRE E SILVA FERREIRA                 26022013112TNE102082019  02202100000000003637300000000000000001                                113159609405774158037320017     
30001003732002ADRIEL E SILVA FERREIRA                22072020112TNE121082020  02202100000000003637300000000000000001                                117265794419774158037320025     
30001003363400ANDREA EVA RAMSAY GARCIA               05021978220TNE101012019  02202100000000003637300000000000000001                        88014537182992339172774158033634007     
30001003363401ALICIA RAMSAY HADDAD                   25022017212TNE101012019  02202100000000003637300000000000000001                                108347132178774158033634015     
30001003363402PABLO ARRUDA HADDAD FILHO              09122004112TNE123082019  02202100000000003637300000000000000001                                103959960158774158033634023     
30001003029500ANDREA GAMA DE LIMA                    11061980210EE0301102018  02202100000000003243600000000000000001                        88013924169327459253774158030295000     
30001002506200ANDREA SANTANA PEIXOTO                 22071977210TNQ201042018  02202100000000004921100000000000000001                        88012730178759536500774158025062001     
30001001929100ANDREIA APARECIDA FURTADO              22011984210TNE101092017  02202100000000003637300000000000000001CONSULTORA          88011772    100980182131774158019291004     
30001001929101LARA MARIA FURTADO VIANA               29062011212TNE101122017  02202100000000003637300000000000000001                                150243987854774158019291012     
30001002282900ANDREIA APARECIDA GARCIA               23071980210TNE101022018  02202100000000003637300000000000000001CONSULTORA          88011991    130109808843774158022829006     
30001002282902KALEB J GARCIA RODRIGUES CARVALHO      19072018112TNE121082018  02202100000000003637300000000000000001                                155443210866774158022829022     
30001003441000ANDREIA CRISTINA CORREA                24091977210TNQ201022019  02202100000000004921100000000000000001                        88014773163391449268774158034410001     
30001003441001ANANDA VICTORIA CORREA DOMINGUES       17022014212TNQ201022019  02202100000000004921100000000000000001                                108099784235774158034410019     
30001002481300ANDREIA FERREIRA BARBOZA               21091981220TNE101042018  02202100000000003637300000000000000001                        88012807109123589710774158024813008     
30001002481301GUSTAVO DA SILVA BARBOZA               26031985121TNE101042018  02202100000000003637300000000000000001                                110070298700774158024813016     
30001002481302SEBASTIAN FERREIRA BARBOZA             11032014112TNE101042018  02202100000000003637300000000000000001                                100000000000774158024813024     
30001002481303STEFAN FERREIRA BARBOZA                10112015112TNE101042018  02202100000000003637300000000000000001                                119478554760774158024813032     
30001001899600ANDREIA MOREIRA VALENTIM               11111983210TNE101092017  02202100000000003637300000000000000001CONSULTORA          88011773    131490937838774158018996009     
30001001899601ISABEL VALENTIM GONALVES               13032020212TNE111042020  02202100000000003637300000000000000001                                158352146858774158018996017     
30001003190900ANDREIA R AFONSO LEONARDO SIQUEIRA     01051989220TNE101122018  02202100000000003637300000000000000001                        88014321107321332462774158031909005     
30001003190901FELIPE FERNANDO DA SILVA SIQUEIRA      16081989121TNE101122018  02202100000000003637300000000000000001                                107386924410774158031909013     
30001001915100ANDRESSA DA SILVA XAVIER               08021992210TNE101092017  02202100000000003637300000000000000001CONSULTORA          88011674    140689019882774158019151000     
30001003538600ANDRESSA KASPERAVINCIUS                31081990210TNE103032019  02202100000000003637300000000000000001                        88014884141144440840774158035386002     
30001001342000ANDRESSA MEDEIROS DOS SANTOS           11071991210TNE101012017  02202100000000003637300000000000000001CONSULTORA          88010280    140496674870774158013420005     
30001003947000ANDRESSA NOVAIS SILVESTRE SAVARY       05121985220TNE101012020  02202100000000003637300000000000000001                        88017610131785245848774158039470000     
30001003186000ANDRESSA VITORINO DE SOUZA             03061987210TNE101122018  02202100000000003637300000000000000001                        88014271135731009880774158031860000     
30001003186001RAFAELLA VITORINO SEBASTIAO            15102008212TNE111122018  02202100000000003637300000000000000001                                149293957809774158031860018     
30001001709400ANDREYSSON LUIZ PEREIRA                25011980110TNE101072017  02202100000000003637300000000000000001CONSULTOR           88011300    104208165693774158017094004     
30001001709401LUISA ROSA PEREIRA DE CASTRO           16082010212TNE101072017  02202100000000003637300000000000000001                                116295185657774158017094012     
30001003939000ANDREZA DE SOUZA AMORIM                05091989210EE0317122019  02202100000000003243600000000000000001                        88017613198716735234774158039390000     
30001003939001IKARO ANDRE AMORIM MATOS               28062006112EE0317122019  02202100000000003243600000000000000001                                101607463296774158039390018     
30001000020500ANDREZA SANTOS HUMSI RAYES             30101976210TNE101032016  02202100000000003637300000000000000001CONSULTOR DE VENDAS 205         183461400106774158000205005     
30001000020501NICOLE B SANTOS RAYES FRANCISCO        27042015212TNE101032016  02202100000000003637300000000000000001                                108769500126774158000205013     
30001000020502CLAUDIO HENRIQUE PEREIRA FRANCISCO     04111978121TNE120052019  02202100000000003637300000000000000001                                182673586172774158000205021     
30001000020503ALICE SANTOS HUMSI RAYES FRANCISCO     26032019212TNE117052019  02202100000000003637300000000000000001                                110016307186774158000205039     
30001000870200ANGELA GOMES BRANCO                    20031983210TNE101082016  02202100000000003637300000000000000001CONSULTORA          8702        101114393452774158008702003     
30001000870201ARTHUR GOMES BRANCO                    08012013112TNE101082016  02202100000000003637300000000000000001                                100000000000774158008702011     
30001000870202LORENZO GOMES BRANCO                   13082020112TNE101092020  02202100000000003637300000000000000001                                158737205846774158008702029     
30001000122800ANGELA MARTINS ALVES                   20031982110TNE101032016  02202100000000003637300000000000000001CONSULTOR DE VENDAS 1228        105452887709774158001228006     
30001000122801ANA CLARA ALVES COSTA                  03022008212TNE101032016  02202100000000003637300000000000000001                                154890371800774158001228014     
30001000122802MARIA EDUARDA ALVES COSTA              18102010212TNE101032016  02202100000000003637300000000000000001                                154890466860774158001228022     
30001000122803MANUELA ALVES COSTA                    18102010212TNE101032016  02202100000000003637300000000000000001                                154890538879774158001228030     
30001000122804DAVI ALVES VITAGLIANO                  19012015112TNE101032016  02202100000000003637300000000000000001                                154890242830774158001228048     
30001000122805MARCO AURELIO DE OLIVEIRA              03021984121TNE104012021IR01202100000000003273500000000000000003                                133666604811774158001228055     
30001000122805MARCO AURELIO DE OLIVEIRA              03021984121TNE104012021IM02202100000000003637300000000000000003                                133666604811774158001228055     
30001001967400ANGELIANA PINTO MOREIRA                01041991210TNE101092017  02202100000000003637300000000000000001CONSULTORA          88011774    103837722147774158019674001     
30001004308700ANGELICA APARECIDA INACIO MOREIRA      28101988220EE0317122020  02202100000000003243600000000000000001                        89029133140668342803774158043087006     
30001004308701BOAZ PEREIRA MOREIRA                   19011992121EE0317122020  02202100000000003243600000000000000001                                140414341813774158043087014     
30001001925900ANGELICA ARAUJO DE SOUZA               08101988210TNQ201092017  02202100000000004921100000000000000001SUPERVISORA         88011137    132599947855774158019259001     
30001001925901BEATRIZ ARAUJO PEREIRA                 28092018212TNQ210102018  02202100000000004921100000000000000001                                155826183845774158019259019     
30001003642000ANGELICA SANTIAGO                      26051980210TNE112052019  02202100000000003637300000000000000001                    88015264    128798499858774158036420008     
30001000976800ANGESLA DOS SANTOS MESQUITA            04061991210TNE101092016  02202100000000003637300000000000000001CONSULTORA          9768        140484709810774158009768003     
30001000976801RAFAEL CARLOS PERES                    20071989121TNE109032020  02202100000000003637300000000000000001                                137939787888774158009768011     
30001004240400ANNA R OLIVEIRA BARROS CARVALHO        20071986220EE0321102020  02202100000000003243600000000000000001                        88998960101467835307774158042404004     
30001004240401ANNA ROSA DE OLIVEIRA CARVALHO         17032020212EE0321102020  02202100000000003243600000000000000001                                110410374300774158042404012     
30001004240402JOAO MARCOS DE OLIVEIRA CARVALHO       17042015112EE0321102020  02202100000000003243600000000000000001                                108021855339774158042404020     
30001004240403MARCOS ANTONIO OLIVEIRA DE CARVALHO    15031984121EE0321102020  02202100000000003243600000000000000001                                199202115320774158042404038     
30001002635200ANNI BIANCA DA SILVA OLIVEIRA          27031999210TNE101062018  02202100000000003637300000000000000001                        88013085146925726805774158026352005     
30001001320000ANTONIA CLEIDIMAR DE LIRA              05111969210TNE101012017  02202100000000003637300000000000000001CONSULTORA          13200       107978389880774158013200001     
30001000026400ANTONIA DE SOUSA GOMES FEIJAO          13101960220TNE101032016  02202100000000003637300000000000000001AUXILIAR DE SERVICOS264         169236259715774158000264002     
30001000026401ANTONIO EGBERTO FEIJAO                 07061955121TNE101032016  02202100000000003637300000000000000001                                162906240753774158000264010     
30001000791900ANTONIO ANDRADE DA SILVA               01061978120TNE101062016  02202100000000003637300000000000000001AUXILIAR            7919        100318534550774158007919004     
30001003369300ANTONIO FERREIRA DA SILVA NETO         08121987110TNE101022019  02202100000000003637300000000000000001                        88014615107673289490774158033693003     
30001003369301DAVI BARBOSA FERREIRA                  17062012112TNE101082019  02202100000000003637300000000000000001                                111777364469774158033693011     
30001003369302MARLOS ANTONIO TENORIO SILVA NETO      15042010112TNE101082019  02202100000000003637300000000000000001                                111051107458774158033693029     
30001003995000ANTONIO ITALO LUNA LIMA SILVA          18091989120EE0304022020  02202100000000003243600000000000000001                        88017803103590944307774158039950001     
30001003995001ALINE PAULINO DE FREITAS LUNA          07091987221EE0304022020  02202100000000003243600000000000000001                                102687911399774158039950019     
30001003995002ANA ISIS DE FREITAS LUNA               23082015212EE0304022020  02202100000000003243600000000000000001                                108969414347774158039950027     
30001002556900ANTONIO JOSE REGIS                     20071975120TNE101052018  02202100000000003637300000000000000001                        88012872191405262400774158025569005     
30001002556901MARIA APARECIDA RAMOS DA SILVA         09011971221TNE101052018  02202100000000003637300000000000000001                                163518341472774158025569013     
30001003723000ANTONIO RAFAEL FERREIRA DE CARVALHO    27121990110TNE102082019  02202100000000003637300000000000000001                        88015515112783880792774158037230000     
30001003916000APALICE CAMILA JUSTINO LUIZ            09071986210TNE102122019  02202100000000003637300000000000000001                        88017462107093847692774158039160007     
30001002353100APARECIDA LIBERIO SOUZA                18091989210TNE101022018  02202100000000003637300000000000000001AUXILIAR            88012476    122764408803774158023531007     
30001002353101ALAN SERAFIM DOS REIS                  20111993121TNE119022019  02202100000000003637300000000000000001                                142466027879774158023531015     
30001001280700APARECIDA MARIA CARVALHO RAMOS         18061985220TNE101012017  02202100000000003637300000000000000001CONSULTORA          12807       101328101312774158012807004     
30001001280701LEONARDO THALLES DE SOUSA RAMOS        26121983121TNE101012017  02202100000000003637300000000000000001                                100410515302774158012807012     
30001004163700ARIELA LOPES DE CARVALHO               19071995210EE0320062020  02202100000000003243600000000000000001                        88018161112013151748774158041637000     
30001004163701ISABELA CARVALHO REIS                  22112017212EE0320062020  02202100000000003243600000000000000001                                100000000000774158041637018     
30001004254400ARMANDO BRUNO SILVA DOS SANTOS         24041995120EE0331102020  02202100000000003243600000000000000001                        89029054109636969477774158042544007     
30001004254401AGATHA JULLIANE LIRA DOS SANTOS        18052020212EE0331102020  02202100000000003243600000000000000001                                117214146495774158042544015     
30001003304900ARMANDO DOS SANTOS SILVA               07111988110TNQ201122018  02202100000000004921100000000000000001                        88014372104590013533774158033049008     
30001003863600ARTHUR HUGO COSTA FILHO                24041987110TNE123102019  02202100000000003637300000000000000001REDE                    88012082132675916862774158038636007     
30001003890300AUDRIENE CAMILA TEIXEIRA JACSON        04081981220TNE106112019  02202100000000003637300000000000000001                        88017337130189968877774158038903001     
30001003890300AUDRIENE CAMILA TEIXEIRA JACSON        04081981220TNE106112019CM02202100000000003637300000000000000055                        88017337130189968877774158038903001     
30001003890300AUDRIENE CAMILA TEIXEIRA JACSON        04081981220TNE106112019CR01202100000000003637300000000000000055                        88017337130189968877774158038903001     
30001003890300AUDRIENE CAMILA TEIXEIRA JACSON        04081981220TNE106112019CR12202000000000001333600000000000000055                        88017337130189968877774158038903001     
30001003890301GABRIELLE TEIXEIRA COSTA               28082001212TNE106112019  02202100000000003637300000000000000001                                150404833845774158038903019     
30001003890301GABRIELLE TEIXEIRA COSTA               28082001212TNE106112019CM02202100000000003637300000000000000055                                150404833845774158038903019     
30001003890301GABRIELLE TEIXEIRA COSTA               28082001212TNE106112019CR01202100000000003637300000000000000055                                150404833845774158038903019     
30001003890301GABRIELLE TEIXEIRA COSTA               28082001212TNE106112019CR12202000000000001333600000000000000055                                150404833845774158038903019     
30001003890302PAULO EDGILSON JACSON                  30031969121TNE106112019  02202100000000003637300000000000000001                                112646942885774158038903027     
30001003890302PAULO EDGILSON JACSON                  30031969121TNE106112019CM02202100000000003637300000000000000055                                112646942885774158038903027     
30001003890302PAULO EDGILSON JACSON                  30031969121TNE106112019CR01202100000000003637300000000000000055                                112646942885774158038903027     
30001003890302PAULO EDGILSON JACSON                  30031969121TNE106112019CR12202000000000001333600000000000000055                                112646942885774158038903027     
30001003375800AUGUSTO RODRIGO BARROS RODRIGUES       13121988110TNE101022019  02202100000000003637300000000000000001                        88014663100629772290774158033758004     
30001004167000BARBARA CONSUELO COSTA SOUTO           23101997210EE0304082020  02202100000000003243600000000000000001                        88998989144409854836774158041670001     
30001004165300BARBARA DIONIZIO VEZONI                25011996210TNE102062020  02202100000000003637300000000000000001                        88998973142348237830774158041653007     
30001001844900BARBARA GONZAGA DOS SANTOS             06061996210TNE101082017  02202100000000003637300000000000000001CONSULTORA          88011581    142723350819774158018449009     
30001001844901PABLO GERALDO MACHADO LEAL             25081992121TNE101062018  02202100000000003637300000000000000001                                115116882705774158018449017     
30001004094000BARBARA MOURATO DA SILVA               27032000210EE0304052020  02202100000000003243600000000000000001                        88998903139158846859774158040940009     
30001004338900BARBARA SUELEN FERREIRA E COSTA        23101996240EE0329122020IR12202000000000000216200000000000000003                        89029148106770276569774158043389006     
30001004338900BARBARA SUELEN FERREIRA E COSTA        23101996240EE0329122020IR01202100000000003243600000000000000003                        89029148106770276569774158043389006     
30001004338900BARBARA SUELEN FERREIRA E COSTA        23101996240EE0329122020IM02202100000000003243600000000000000003                        89029148106770276569774158043389006     
30001004338901OLGA COSTA BASTOS SANTOS               15112016212EE0329122020IR12202000000000000216200000000000000003                                110151755540774158043389014     
30001004338901OLGA COSTA BASTOS SANTOS               15112016212EE0329122020IR01202100000000003243600000000000000003                                110151755540774158043389014     
30001004338901OLGA COSTA BASTOS SANTOS               15112016212EE0329122020IM02202100000000003243600000000000000003                                110151755540774158043389014     
30001003371500BARBARA TAINA LIMA CORREIRA COSTA      29021992210TNE101022019  02202100000000003637300000000000000001                        88014653109440155493774158033715004     
30001004035500BEATRIZ CIOCARI BORGES                 23091999210EE0302032020  02202100000000003243600000000000000001                        88017967143680609892774158040355000     
30001003669200BEATRIZ COUTO DELLEVEDOVE BERNARDI     13101981220NP0301062019  02202100000000012626600000000000000001                        88014910129019180851774158036692002     
30001003669201EDUARDO COUTO BERNARDI                 21062016112NP0301062019  02202100000000012626600000000000000001                                151429589850774158036692010     
30001003669202GUILHERME COUTO BERNARDI               13092000112NP0301062019  02202100000000012626600000000000000001                                149872137889774158036692028     
30001003669203LEONARDO COUTO BERNARDI                24032005112NP0301062019  02202100000000012626600000000000000001                                149872178801774158036692036     
30001003669204VALTER BERNARDI JUNIOR                 13071979121NP0301062019  02202100000000012626600000000000000001                                128367679873774158036692044     
30001001350100BEATRIZ DE PONTES GOMES                23021993220TNE101022017  02202100000000003637300000000000000001CONSULTORA          88010294    115132678769774158013501002     
30001001350101JULIO IURI DA SILVA CUNHA              10111987121TNE101022017  02202100000000003637300000000000000001                                105901311760774158013501010     
30001000130900BEATRIZ DOS SANTOS NUNES               04041988210TNQ201032016  02202100000000004921100000000000000001CONSULTOR DE VENDAS 1309        102569411302774158001309004     
30001000130901KAIO ROBERTO SANTOS NUNES DA SILVA     19022006112TNQ201032016  02202100000000004921100000000000000001                                161673598307774158001309012     
30001000130902FLAVIO ROGERIO SILVA PENHA             15091988121TNQ201122017  02202100000000004921100000000000000001                                101852109378774158001309020     
30001004217000BEATRIZ FERNANDA MOREIRA SILVA         30051999210EE0301102020  02202100000000003243600000000000000001                        88999047151063982820774158042170001     
30001003798200BEATRIZ L ESTEVES FERREIRA SOUZA       28061989220TNE106092019  02202100000000003637300000000000000001REDE                    88016578111764238788774158037982006     
30001003798201PAULO ROBERTO FERREIRA DE SOUZA        28041988121TNE106092019  02202100000000003637300000000000000001                                112266713736774158037982014     
30001001725600BEATRIZ RODRIGUES ALVES                13111990210TNE101072017  02202100000000003637300000000000000001CONSULTORA          88011224    104164341505774158017256009     
30001003006600BEATRIZ SOUSA DOS SANTOS               15011994210TNE101102018  02202100000000003637300000000000000001                        88013825102160867284774158030066005     
30001003006601RENAN PHILIPE RODRIGUES PANTOJA        30081995121TNE112042019  02202100000000003637300000000000000001                                192322646253774158030066013     
30001002886000BEATRIZ TERRA DONATO                   30101993210TNE101092018  02202100000000003637300000000000000001                        88013612114455122702774158028860005     
30001002886001ALICE LUSIE TERRA PASSOS               14072014212TNE101092018  02202100000000003637300000000000000001                                118180269701774158028860013     
30001004178500BETIANA SOUZA MORAIS                   31101993220EE0304082020  02202100000000003243600000000000000001                        89028974105201510388774158041785007     
30001004178501ALMERINDO MENDES REIS                  21121981121EE0304082020  02202100000000003243600000000000000001                                199132842368774158041785015     
30001003982900BIANCA ARIANE AMARO SANTOS             19041997210EE0304022020  02202100000000003243600000000000000001                        88017747134907062850774158039829007     
30001003802400BIANCA CORREIA SILVA                   12091994210TNE109092019  02202100000000003637300000000000000001LOJA                    88011355132432746805774158038024006     
30001004092400BIANCA CRISTHINE ROCHA PERGENTINO      07071993210EE0304052020  02202100000000003243600000000000000001                        88018355110834667479774158040924003     
30001004092401GUSTAVO A R PERGENTINO CEZIMBRA        04102020112EE0321102020  02202100000000003243600000000000000001                                158859214823774158040924011     
30001002083400BIANCA FRANCYELE CARVALHO DA SILVA     29111990210TNE101102017  02202100000000003637300000000000000001CONSULTORA          88011842    103383905101774158020834008     
30001003048100BIANCA GOMES DE OLIVEITA TEIXEIRA      08041977220TNE101102018  02202100000000003637300000000000000001                        88013949166953057149774158030481006     
30001003048101BEATRIZ TEIXEIRA DE OLIVEIRA           01122009212TNE101102018  02202100000000003637300000000000000001                                109918430109774158030481014     
30001003048102JODIR TEIXEIRA DA SILVA JUNIOR         20041976121TNE101102018  02202100000000003637300000000000000001                                163500680178774158030481022     
30001003919500BIANCA IONESCU TANASE                  23051985210TNE102122019  02202100000000003637300000000000000001                        88017484134230036850774158039195003     
30001000984900BIANCA PAULA DE FARIA                  15041996210TNE101092016  02202100000000003637300000000000000001CONSULTORA          9849        142487709898774158009849001     
30001000984901RICARDO CARLOS MARIANO                 11111987121TNE104092019  02202100000000003637300000000000000001                                135643123827774158009849019     
30001000193700BIANCA SABRINA DOS SANTOS              13021986210TNE101032016  02202100000000003637300000000000000001CONSULTOR DE VENDAS 1937        191835003249774158001937002     
30001000193701SAMYA GABRIELA DOS SANTOS FERREIRA     22112008212TNE101032016  02202100000000003637300000000000000001                                100000000000774158001937010     
30001000193702DAVI GABRIEL DOS SANTOS FERREIRA       04112015112TNE101032016  02202100000000003637300000000000000001                                100000000000774158001937028     
30001002703000BLIZA LUDMILA ALVES                    01071991210TNE105062018  02202100000000003637300000000000000001                        88012610111762727641774158027030006     
30001002703001EMANUEL ALVES FORNARI SOARES           14062009112TNE101072018  02202100000000003637300000000000000001                                114728634612774158027030014     
30001002703002LUAN MATHEUS DE ABREU                  23061992121TNE101112018  02202100000000003637300000000000000001                                141887481842774158027030022     
30001002703003ARON MATHEUS DE ABREU                  16112020112TNE110122020IR12202000000000002546100000000000000003                                158954728855774158027030030     
30001002703003ARON MATHEUS DE ABREU                  16112020112TNE110122020IR01202100000000003637300000000000000003                                158954728855774158027030030     
30001002703003ARON MATHEUS DE ABREU                  16112020112TNE110122020IM02202100000000003637300000000000000003                                158954728855774158027030030     
30001004337000BRAHYARD DE MIRANDA PAULA              18061995110EE0329122020IR12202000000000000216200000000000000003                        89029145102306397201774158043370006     
30001004337000BRAHYARD DE MIRANDA PAULA              18061995110EE0329122020IR01202100000000003243600000000000000003                        89029145102306397201774158043370006     
30001004337000BRAHYARD DE MIRANDA PAULA              18061995110EE0329122020IM02202100000000003243600000000000000003                        89029145102306397201774158043370006     
30001004182300BRAZ PEREIRA CAMPOS NETO               02061987110EE0304082020  02202100000000003243600000000000000001                        88998990102641026147774158041823006     
30001004182300BRAZ PEREIRA CAMPOS NETO               02061987110EE0304082020CM02202100000000003243600000000000000055                        88998990102641026147774158041823006     
30001004182300BRAZ PEREIRA CAMPOS NETO               02061987110EE0304082020CR01202100000000003243600000000000000055                        88998990102641026147774158041823006     
30001004182300BRAZ PEREIRA CAMPOS NETO               02061987110EE0304082020CR12202000000000000108100000000000000055                        88998990102641026147774158041823006     
30001003897000BRENDA DE SOUZA DALA PAULA             08081997210TNE101112019  02202100000000003637300000000000000001                        88017207111816308609774158038970000     
30001002995500BRENDA DIAS DAMASCENO                  03041978210TNE101102018  02202100000000003637300000000000000001                        88013781167849407253774158029955002     
30001004206400BRENDA MARIANA DE JESUS MIRANDA        02011987210EE0310092020  02202100000000003243600000000000000001                        88017876193202369253774158042064006     
30001004206401ANA LAURA MIRANDA GONCALVES            10032010212EE0310092020  02202100000000003243600000000000000001                                102734514214774158042064014     
30001000709900BRUNA BARBOSA MONTEIRO                 12091984210TNE101052016  02202100000000003637300000000000000001CONSULTORA          7099        105905170665774158007099005     
30001003969100BRUNA BRUNO CARDOSO                    08041983210EE0308012020  02202100000000003243600000000000000001                        88017694103632995648774158039691001     
30001003969100BRUNA BRUNO CARDOSO                    08041983210EE0308012020CM02202100000000003243600000000000000055                        88017694103632995648774158039691001     
30001003969100BRUNA BRUNO CARDOSO                    08041983210EE0308012020CR01202100000000002270500000000000000055                        88017694103632995648774158039691001     
30001004351600BRUNA CAROLINE POLONI BERTOCO          06081992210EE0304012021IR01202100000000002919200000000000000003                        88015770139264512896774158043516004     
30001004351600BRUNA CAROLINE POLONI BERTOCO          06081992210EE0304012021IM02202100000000003243600000000000000003                        88015770139264512896774158043516004     
30001002233000BRUNA CASSIA DA SILVA                  21101990220TNE101012018  02202100000000003637300000000000000001CONSULTORA          88012255    138912438808774158022330005     
30001002233000BRUNA CASSIA DA SILVA                  21101990220TNE101012018CM02202100000000003637300000000000000055CONSULTORA          88012255    138912438808774158022330005     
30001002233000BRUNA CASSIA DA SILVA                  21101990220TNE101012018CR01202100000000003637300000000000000055CONSULTORA          88012255    138912438808774158022330005     
30001002233000BRUNA CASSIA DA SILVA                  21101990220TNE101012018CR12202000000000002788500000000000000055CONSULTORA          88012255    138912438808774158022330005     
30001002233001JOANA SILVA EDUARDO                    15062016212TNE101012018  02202100000000003637300000000000000001                                151414652844774158022330013     
30001002233001JOANA SILVA EDUARDO                    15062016212TNE101012018CM02202100000000003637300000000000000055                                151414652844774158022330013     
30001002233001JOANA SILVA EDUARDO                    15062016212TNE101012018CR01202100000000003637300000000000000055                                151414652844774158022330013     
30001002233001JOANA SILVA EDUARDO                    15062016212TNE101012018CR12202000000000002788500000000000000055                                151414652844774158022330013     
30001002233002VANDERSON LUIZ SILVA EDUARDO           04051989121TNE101012018  02202100000000003637300000000000000001                                140004944810774158022330021     
30001002233002VANDERSON LUIZ SILVA EDUARDO           04051989121TNE101012018CM02202100000000003637300000000000000055                                140004944810774158022330021     
30001002233002VANDERSON LUIZ SILVA EDUARDO           04051989121TNE101012018CR01202100000000003637300000000000000055                                140004944810774158022330021     
30001002233002VANDERSON LUIZ SILVA EDUARDO           04051989121TNE101012018CR12202000000000002788500000000000000055                                140004944810774158022330021     
30001002233003ANTONIA SILVA EDUARDO                  26052019212TNE101062019  02202100000000003637300000000000000001                                157243116825774158022330039     
30001002233003ANTONIA SILVA EDUARDO                  26052019212TNE101062019CM02202100000000003637300000000000000055                                157243116825774158022330039     
30001002233003ANTONIA SILVA EDUARDO                  26052019212TNE101062019CR01202100000000003637300000000000000055                                157243116825774158022330039     
30001002233003ANTONIA SILVA EDUARDO                  26052019212TNE101062019CR12202000000000002788500000000000000055                                157243116825774158022330039     
30001001013800BRUNA GRAZIELI MACARIO DIVINO          22061987210TNE101092016  02202100000000003637300000000000000001CONSULTORA          10138       134437219821774158010138006     
30001001013801FERNANDO HENRIQUE DO NASCIMENTO        29011987121TNE121082019  02202100000000003637300000000000000001                                134000978888774158010138014     
