1FATURA TECNICA                SOLDI PROMOTORA DE VENDAS LTDA     571632074158878MULTI SAUDE EMPRESA                20200120200131FATURAMENTO    0000002                            
2010500SOLDI PROMOTORA DE VENDAS LTDA     00000000000000000000000000000000000000000000000000000000000000020200131                                                                   
30500001798100CAMILA DUARTE GONCALVES                12121990220TNE101072017AM01202000000000003266500000000000000008CONSULTORA          88011326    139217061816774158017981002     
30500001798100F.MODERADORES  PAGOS EM 01/2020        00000000000    00000000RS01202000000000000665200000000000000010                                139217061816774158017981002     
40500(AC)ACERTO DE FATURA(COBRAR)       000000000000000000000000000000000000000000000000000000                                                                                      
40500(RS)RECUPERACAO SINISTRO           000000000000000000000001000000000006652000000000000000                                                                                      
40500(  )VIDAS REMAN. MES ANTERIOR      000000000000000000000000000000000000000000000000000000                                                                                      
40500(IM)INCLUSOES NO MES               000000000000000000000000000000000000000000000000000000                                                                                      
40500(IR)INCLUSOES RETROATIVAS          000000000000000000000000000000000000000000000000000000                                                                                      
40500(RM)REATIVACOES NO MES             000000000000000000000000000000000000000000000000000000                                                                                      
40500(RR)REATIVACOES RETROATIVAS        000000000000000000000000000000000000000000000000000000                                                                                      
40500(TM)TRANSFERENCIAS NO MES          000000000000000000000000000000000000000000000000000000                                                                                      
40500(TR)TRANSFERENCIAS RETROATIVAS     000000000000000000000000000000000000000000000000000000                                                                                      
40500(AM)ALTERACOES NO MES              000001000000000001000001000000000032665000000000000000                                                                                      
40500(AR)ALTERACOES RETROATIVAS         000000000000000000000000000000000000000000000000000000                                                                                      
40500(RE)COBRANCA DE REMIDO             000000000000000000000000000000000000000000000000000000                                                                                      
40500(TC)TOTAIS A COBRAR                000001000000000001000002000000000039317000000000000000                                                                                      
40500(AD)ACERTO DE FATURA(DEVOLVER)     000000000000000000000000000000000000000000000000000000                                                                                      
40500(CM)CANCELAMENTOS NO MES           000000000000000000000000000000000000000000000000000000                                                                                      
40500(CR)CANCELAMENTOS RETROATIVOS      000000000000000000000000000000000000000000000000000000                                                                                      
40500(TM)TRANSFERENCIAS NO MES          000000000000000000000000000000000000000000000000000000                                                                                      
40500(TR)TRANSFERENCIAS RETROATIVAS     000000000000000000000000000000000000000000000000000000                                                                                      
40500(AM)ALTERACOES NO MES              000000000000000000000000000000000000000000000000000000                                                                                      
40500(AR)ALTERACOES RETROATIVAS         000000000000000000000000000000000000000000000000000000                                                                                      
40500(DM)DEVOLUCAO REMIDO NO MES        000000000000000000000000000000000000000000000000000000                                                                                      
40500(DR)DEVOLUCAO REMIDO RETROAT.      000000000000000000000000000000000000000000000000000000                                                                                      
40500(TD)TOTAIS A DEVOLVER              000000000000000000000000000000000000000000000000000000                                                                                      
40500(TS)TOTAIS DA SUBFATURA            000001000000000001000002000000000039317000000000000000                                                                                      
40500   PLANOS CONTRATADOS:                                                                                                                                                         
40500   PLANO   N.TIT   N.DEP N.VIDAS FATOR REEMB.HM HOSPITAL                 PLANO   N.TIT   N.DEP N.VIDAS FATOR REEMB.HM HOSPITAL                                                 
40500   EE03        0       0                   0,00 REFERENCIADO             NP03        0       0                   0,00 REFERENCIADO                                             
40500   TNE1        1       0                   0,00 REFERENCIADO             TNQ2        0       0                   0,00 REFERENCIADO                                             
2010851SOLDI PROMOTORA DE VENDAS LTDA     00000000000000000000000000000000000000000000000000000000000000020200131                                                                   
30851000941500DANIELLE PASSOS DE ALMEIDA             24011977210TNE101082016AM01202000000000003266500000000000000008CONSULTORA          9415        107603087724774158009415001     
30851001228900FRANCIELE APARECIDA BUENO BANDEIRA     11101991210TNE101122016AM01202000000000003370600000000000000008CONSULTORA          12289       140049713817774158012289005     
30851001228900F.MODERADORES  PAGOS EM 01/2020        00000000000    00000000RS01202000000000000816500000000000000010                                140049713817774158012289005     
30851001228901LARA BUENO DO NASCIMENTO               04022019212TNE121032019AM01202000000000003190600000000000000008                                156573933842774158012289013     
30851000831100GIRLENE SILVA DOS SANTOS               24121987220TNE101072016AM01202000000000003342400000000000000008CONSULTORA          8311        135098664870774158008311003     
30851000831102ITAMIR DE SOUZA REIS                   15091983121TNE101112016AM01202000000000003190600000000000000008                                132988608830774158008311029     
30851001018900MONICA REIS PETROV                     11091974210TNQ201092016AM01202000000000004522200000000000000008SUPERVISORA         10189       111836299826774158010189009     
30851001018900F.MODERADORES  PAGOS EM 01/2020        00000000000    00000000RS01202000000000000300000000000000000010                                111836299826774158010189009     
30851001018901PAULO EDUARDO PRETROV                  18111973121TNQ201032017AM01202000000000004316800000000000000008                                118514536877774158010189017     
30851001018901F.MODERADORES  PAGOS EM 01/2020        00000000000    00000000RS01202000000000001059300000000000000010                                118514536877774158010189017     
30851002028100MYSLENI PEREIRA BERNARDES              03041983210TNE101102017AM01202000000000003383800000000000000008CONSULTOR           88011832    131663956871774158020281002     
30851002028100F.MODERADORES  PAGOS EM 01/2020        00000000000    00000000RS01202000000000000285000000000000000010                                131663956871774158020281002     
30851002028101GUILHERME PEREIRA BERNARDES ROCHA      25032009112TNE101102017AM01202000000000003190600000000000000008                                143373578825774158020281010     
30851002028101F.MODERADORES  PAGOS EM 01/2020        00000000000    00000000RS01202000000000000285000000000000000010                                143373578825774158020281010     
30851000318200SHAIRA LIMA FERREIRA                   14071985210TNE101032016AM01202000000000003363100000000000000008CONSULTOR DE VENDAS 3182        106957191656774158003182003     
30851000937700THAIS CRISTINE CONTINI CARMONA         05011984220TNQ201082016AM01202000000000004727700000000000000008SUPERVISORA         9377        130357156889774158009377003     
30851000937701LUIZ ANTONIO RINALDI                   18051968121TNQ201082016AM01202000000000004316800000000000000008                                110664395830774158009377011     
30851000937702LUCAS CARMONA NETO                     13082005112TNQ201082016AM01202000000000004316800000000000000008                                145204008802774158009377029     
30851000937703RAFAEL CARMONA RINALDI                 27022012112TNQ201082016AM01202000000000004316800000000000000008                                145204035885774158009377037     
40851(AC)ACERTO DE FATURA(COBRAR)       000000000000000000000000000000000000000000000000000000                                                                                      
40851(RS)RECUPERACAO SINISTRO           000000000000000000000005000000000027458000000000000000                                                                                      
40851(  )VIDAS REMAN. MES ANTERIOR      000000000000000000000000000000000000000000000000000000                                                                                      
40851(IM)INCLUSOES NO MES               000000000000000000000000000000000000000000000000000000                                                                                      
40851(IR)INCLUSOES RETROATIVAS          000000000000000000000000000000000000000000000000000000                                                                                      
40851(RM)REATIVACOES NO MES             000000000000000000000000000000000000000000000000000000                                                                                      
40851(RR)REATIVACOES RETROATIVAS        000000000000000000000000000000000000000000000000000000                                                                                      
40851(TM)TRANSFERENCIAS NO MES          000000000000000000000000000000000000000000000000000000                                                                                      
40851(TR)TRANSFERENCIAS RETROATIVAS     000000000000000000000000000000000000000000000000000000                                                                                      
40851(AM)ALTERACOES NO MES              000007000007000014000014000000000528153000000000000000                                                                                      
40851(AR)ALTERACOES RETROATIVAS         000000000000000000000000000000000000000000000000000000                                                                                      
40851(RE)COBRANCA DE REMIDO             000000000000000000000000000000000000000000000000000000                                                                                      
40851(TC)TOTAIS A COBRAR                000007000007000014000019000000000555611000000000000000                                                                                      
40851(AD)ACERTO DE FATURA(DEVOLVER)     000000000000000000000000000000000000000000000000000000                                                                                      
40851(CM)CANCELAMENTOS NO MES           000000000000000000000000000000000000000000000000000000                                                                                      
40851(CR)CANCELAMENTOS RETROATIVOS      000000000000000000000000000000000000000000000000000000                                                                                      
40851(TM)TRANSFERENCIAS NO MES          000000000000000000000000000000000000000000000000000000                                                                                      
40851(TR)TRANSFERENCIAS RETROATIVAS     000000000000000000000000000000000000000000000000000000                                                                                      
40851(AM)ALTERACOES NO MES              000000000000000000000000000000000000000000000000000000                                                                                      
40851(AR)ALTERACOES RETROATIVAS         000000000000000000000000000000000000000000000000000000                                                                                      
40851(DM)DEVOLUCAO REMIDO NO MES        000000000000000000000000000000000000000000000000000000                                                                                      
40851(DR)DEVOLUCAO REMIDO RETROAT.      000000000000000000000000000000000000000000000000000000                                                                                      
40851(TD)TOTAIS A DEVOLVER              000000000000000000000000000000000000000000000000000000                                                                                      
40851(TS)TOTAIS DA SUBFATURA            000007000007000014000019000000000555611000000000000000                                                                                      
40851   PLANOS CONTRATADOS:                                                                                                                                                         
40851   PLANO   N.TIT   N.DEP N.VIDAS FATOR REEMB.HM HOSPITAL                 PLANO   N.TIT   N.DEP N.VIDAS FATOR REEMB.HM HOSPITAL                                                 
40851   EE03        0       0                   0,00 REFERENCIADO             NP03        0       0                   0,00 REFERENCIADO                                             
40851   TNE1        5       3                   0,00 REFERENCIADO             TNQ2        2       4                   0,00 REFERENCIADO                                             
49999(AC)ACERTO DE FATURA(COBRAR)       000000000000000000000000000000000000000000000000000000                                                                                      
49999(RS)RECUPERACAO SINISTRO           000000000000000000000006000000000034110000000000000000                                                                                      
49999(  )VIDAS REMAN. MES ANTERIOR      000000000000000000000000000000000000000000000000000000                                                                                      
49999(IM)INCLUSOES NO MES               000000000000000000000000000000000000000000000000000000                                                                                      
49999(IR)INCLUSOES RETROATIVAS          000000000000000000000000000000000000000000000000000000                                                                                      
49999(RM)REATIVACOES NO MES             000000000000000000000000000000000000000000000000000000                                                                                      
49999(RR)REATIVACOES RETROATIVAS        000000000000000000000000000000000000000000000000000000                                                                                      
49999(TM)TRANSFERENCIAS NO MES          000000000000000000000000000000000000000000000000000000                                                                                      
49999(TR)TRANSFERENCIAS RETROATIVAS     000000000000000000000000000000000000000000000000000000                                                                                      
49999(AM)ALTERACOES NO MES              000008000007000015000015000000000560818000000000000000                                                                                      
49999(AR)ALTERACOES RETROATIVAS         000000000000000000000000000000000000000000000000000000                                                                                      
49999(RE)COBRANCA DE REMIDO             000000000000000000000000000000000000000000000000000000                                                                                      
49999(TC)TOTAIS A COBRAR                000008000007000015000021000000000594928000000000000000                                                                                      
49999(AD)ACERTO DE FATURA(DEVOLVER)     000000000000000000000000000000000000000000000000000000                                                                                      
49999(CM)CANCELAMENTOS NO MES           000000000000000000000000000000000000000000000000000000                                                                                      
49999(CR)CANCELAMENTOS RETROATIVOS      000000000000000000000000000000000000000000000000000000                                                                                      
49999(TM)TRANSFERENCIAS NO MES          000000000000000000000000000000000000000000000000000000                                                                                      
49999(TR)TRANSFERENCIAS RETROATIVAS     000000000000000000000000000000000000000000000000000000                                                                                      
49999(AM)ALTERACOES NO MES              000000000000000000000000000000000000000000000000000000                                                                                      
49999(AR)ALTERACOES RETROATIVAS         000000000000000000000000000000000000000000000000000000                                                                                      
49999(DM)DEVOLUCAO REMIDO NO MES        000000000000000000000000000000000000000000000000000000                                                                                      
49999(DR)DEVOLUCAO REMIDO RETROAT.      000000000000000000000000000000000000000000000000000000                                                                                      
49999(TD)TOTAIS A DEVOLVER              000000000000000000000000000000000000000000000000000000                                                                                      
49999(TS)TOTAIS DA SUBFATURA            000008000007000015000021000000000594928000000000000000                                                                                      
49999   PLANOS CONTRATADOS:                                                                                                                                                         
49999   PLANO   N.TIT   N.DEP N.VIDAS FATOR REEMB.HM HOSPITAL                 PLANO   N.TIT   N.DEP N.VIDAS FATOR REEMB.HM HOSPITAL                                                 
49999   EE03        0       0                   0,00 REFERENCIADO             NP03        0       0                   0,00 REFERENCIADO                                             
49999   TNE1        6       3                   0,00 REFERENCIADO             TNQ2        2       4                   0,00 REFERENCIADO                                             
5TRAILLER FATURA TECNICA                                                                                                                                                            
