1FATURA TECNICA                SOLDI PROMOTORA DE VENDAS LTDA     571632074158878MULTI SAUDE EMPRESA                20191120191010FATURAMENTO    0000002                            
2010001SOLDI PROMOTORA DE VENDAS LTDA     00000176030611201900000000000000000000000000000000000000000000020191010                                                                   
30001000000000COB REF PARTICIPAC.09/2019             00000000000    00000000RS11201900000000618306400000000000000010                                100000000000000000000000000     
30001000000000COB.REF. TAXA IMPLANTACAO              00000000000    00000000AC11201900000000008025000000000000000000                                100000000000000000000000000     
30001000000000COB.REF. TAXA 2A VIA CARTAO            00000000000    00000000AC11201900000000000900000000000000000000                                100000000000000000000000000     
30001001462100ACSA CASSIA SILVA                      09111994210TNE101032017  11201900000000003190600000000000000001CONSULTORA          88010532    112900984688774158014621007     
30001000072800ADEMAR LEANDRO RIBEIRO SANTOS          18101977220TNE101032016  11201900000000003190600000000000000001CONSULTOR DE VENDAS 728         178451744591774158000728006     
30001000072802JOAO VICTOR MONTEIRO RIBEIRO           06072010112TNE101032016  11201900000000003190600000000000000001                                106067264200774158000728022     
30001000072803LETICIA MONTEIRO RIBEIRO               31072012212TNE101032016  11201900000000003190600000000000000001                                106067269260774158000728030     
30001002972600ADEMIR DE ALMEIDA FRANCISCO            10111989110TNE101102018  11201900000000003190600000000000000001                        88013904139364409809774158029726007     
30001002934300ADEMIR RODRIGUES DE ALMEIDA JUNIOR     09121983120TNE101102018  11201900000000003190600000000000000001                        88013736110058611703774158029343001     
30001002934301VANESSA SIQUEIRA RAMOS DOS SANTOS      03071987221TNE101102018  11201900000000003190600000000000000001                                112535390736774158029343019     
30001002934302VITOR SIQUEIRA RODRIGUES DE ALMEIDA    05062010112TNE101102018  11201900000000003190600000000000000001                                118649198767774158029343027     
30001000369700ADENILSON VIEIRA SOUZA                 29011975110TNE101032016  11201900000000003190600000000000000001CONSULTOR DE VENDAS 3697        189537580504774158003697000     
30001001634900ADILENE NAVARRO MARTINEZ               13081979210TNQ201062017  11201900000000004316800000000000000001SUPERVISORA         88010995    104029266681774158016349003     
30001001634901LORENZO NAVARRO TONASO                 14122015112TNQ201062017  11201900000000004316800000000000000001                                100000000000774158016349011     
30001001634902GIULIA NAVARRO DA CUNHA PEREIRA        07022002212TNQ201062017  11201900000000004316800000000000000001                                117756762770774158016349029     
30001003187900ADILSOM AQUIO TAKAMUNE                 30041978110TNE101122018  11201900000000003190600000000000000001                        88014305118916688892774158031879000     
30001003187901ENZO AQUIO CAVALCANTE TAKAMUNE         17082010112TNE101122018  11201900000000003190600000000000000001                                100000000000774158031879018     
30001003187902EIKE GABRIEL CAVALCANTE TAKAMUNE       12052017112TNE101122018  11201900000000003190600000000000000001                                100000000000774158031879026     
30001002950500ADNA SARMENTO DA SILVA                 05111987240TNE101102018  11201900000000003190600000000000000001                        88013800103402481570774158029505005     
30001002950501THEO SARMENTO DA SILVA                 27042014112TNE101102018  11201900000000003190600000000000000001                                108781707584774158029505013     
30001001953400ADRIANA APARECIDA BARBOSA              18031978210TNE101092017  11201900000000003190600000000000000001CONSULTORA          88011751    104624185617774158019534007     
30001001953401LIVIA BARBOSA SILVA                    08052006212TNE101092017  11201900000000003190600000000000000001                                115954745609774158019534015     
30001001953402JESSYCA BARBOSA SILVA                  19082001212TNE101092017  11201900000000003190600000000000000001                                113711756670774158019534023     
30001002152000ADRIANA CECILIA SANTOS RIBEIRO         12091972210TNE101122017  11201900000000003190600000000000000001CONSULTORA          88012237    116583439808774158021520002     
30001002152001BEATRIZ RIBEIRO DE SOUZA               20072002212TNE101122017  11201900000000003190600000000000000001                                100000000000774158021520010     
30001002152002LETICIA RIBEIRO DE SOUZA               10102006212TNE101122017  11201900000000003190600000000000000001                                100000000000774158021520028     
30001000102300ADRIANA CERQUEIRA DE ARAUJO            23121978220TNE101032016  11201900000000003190600000000000000001COORDENADOR DE AREA 1023        103225256404774158001023001     
30001000102301FRANCISCO PEREIRA DE ANDRADE JUNIOR    08051980121TNE101032016  11201900000000003190600000000000000001                                164146790387774158001023019     
30001000102302MARIA ALICE CERQUEIRA DE ANDRADE       14072010212TNE101032016  11201900000000003190600000000000000001                                100000000000774158001023027     
30001000102303ANA BEATRIZ CERQUEIRA DE ANDRADE       13012012212TNE101032016  11201900000000003190600000000000000001                                106808108382774158001023035     
30001000208900ADRIANA DOMINGOS DA SILVA              03101977210TNE101032016  11201900000000003190600000000000000001CONSULTOR DE VENDAS 2089        102858760403774158002089001     
30001000208901ELIVALDO MARIANO DA SILVA              23121979121TNE101072017  11201900000000003190600000000000000001                                102732275484774158002089019     
30001002887800ADRIANA JESUS SAMPAIO CAMPANINI        10071980210TNE101092018  11201900000000003190600000000000000001                        88013670129290442840774158028878007     
30001002887801VALENTINA JESUS SAMPAIO CAMPANINI      05092016212TNE107122018  11201900000000003190600000000000000001                                151732361835774158028878015     
30001002887802EDUARDO CAMPANINI                      06071981121TNE103012019  11201900000000003190600000000000000001                                128560098836774158028878023     
30001003482700ADRIANA MANHAES PEIXOTO REIS           11041984240TNE101032019  11201900000000003190600000000000000001                        88014847110722604769774158034827006     
30001003482701ANNA JULIA PEIXOTO REIS                18012012212TNE101032019  11201900000000003190600000000000000001                                120593681703774158034827014     
30001001346300ADRIANA MONTE SANTO CONCEICAO          17011987210TNE101022017  11201900000000003190600000000000000001CONSULTORA          88010373    103060467501774158013463005     
30001001118500ADRIANA PEREIRA COUTINHO               27121974210TNE101112016  11201900000000003190600000000000000001CONSULTORA          11185       116804182898774158011185006     
30001001118501FERNANDA COUTINHO VITORINO             01102000212TNE101112016  11201900000000003190600000000000000001                                144485487830774158011185014     
30001003467300ADRIANA REGINA DE SOUZA                30111978210TNQ201022019  11201900000000004316800000000000000001                    078823      107882303798774158034673004     
30001003229800ADRIANE FERNANDES DA CUNHA             10121991210TNE101122018  11201900000000003190600000000000000001                        88013901100782877230774158032298002     
30001003229801HEITOR FERNANDES SOUZA                 26062019112TNE104072019  11201900000000003190600000000000000001                                108456276278774158032298010     
30001002952100ADRIANE REINALDO SANTANA               30101993210TNE101102018  11201900000000003190600000000000000001                        88013802104957826536774158029521002     
30001003825300ADRIANO GOMES FERREIRA                 07021983110TNQ201102019IR10201900000000004316800000000000000003                        88016986130259972819774158038253001     
30001003825300ADRIANO GOMES FERREIRA                 07021983110TNQ201102019IM11201900000000004316800000000000000003                        88016986130259972819774158038253001     
30001002970000ADRIANO OLIVEIRA ROCHA                 03101978120TNQ201102018  11201900000000004316800000000000000001                        88013902164505804291774158029700002     
30001002970001IANY LEMOS PINHEIRO ROCHA              12082010212TNQ201102018  11201900000000004316800000000000000001                                106493377277774158029700010     
30001002970002IONARA CONCEICAO LEMOS PINHEIRO        23071978221TNQ201102018  11201900000000004316800000000000000001                                162852930234774158029700028     
30001003183600ADRIELI BELLO RIBEIRO                  28021992220TNE101122018  11201900000000003190600000000000000001                        88014267102734673010774158031836000     
30001003183601FERNANDO HENRIQUE RIBEIRO              06061979121TNE101122018  11201900000000003190600000000000000001                                128331080874774158031836018     
30001003183602HEITOR BELLO BORGES                    04082015112TNE101122018  11201900000000003190600000000000000001                                100000000000774158031836026     
30001003183603HELOISA ROSA BELLO BORGES              12042011212TNE101122018  11201900000000003190600000000000000001                                100000000000774158031836034     
30001000755200ADRIELLE PEREIRA CARNEIRO              16111992210TNE101062016  11201900000000003190600000000000000001CONSULTORA          7552        111265599700774158007552003     
30001000755201JOAO SAMUEL PEREIRA CASTRO             21122014112TNE101062016  11201900000000003190600000000000000001                                118481856770774158007552011     
30001001969000ADRIELLE PEREIRA MONTEIRO              12041997210TNE101092017  11201900000000003190600000000000000001CONSULTORA          88011666    154612373200774158019690007     
30001001969001HITALO CONDE OLIVEIRA                  20041995121TNE101092017  11201900000000003190600000000000000001                                170007761295774158019690015     
30001000483900ADRIELLY B CARDOSO VIEIRA REIS         29111993210TNE101032016  11201900000000003190600000000000000001CONSULTOR DE VENDAS     88008288174901117149774158004839007     
30001000483901GUSTAVO HENRIQUE MOREIRA BATISTA       11121992121TNE101072017  11201900000000003190600000000000000001                                175082543172774158004839015     
30001000483902ANTHONI BATISTA DOS REIS PIMENTA       02082017112TNE101102017  11201900000000003190600000000000000001                                108582494130774158004839023     
30001003814800ADRIELLY BARBOSA FERREIRA MANZOLLI     14041994210TNE101102019IR10201900000000003190600000000000000003                        88016800114471527789774158038148003     
30001003814800ADRIELLY BARBOSA FERREIRA MANZOLLI     14041994210TNE101102019IM11201900000000003190600000000000000003                        88016800114471527789774158038148003     
30001003814801GUSTAVO MANZOLLI SOARFES               09012016112TNE101102019IR10201900000000003190600000000000000003                                106361518752774158038148011     
30001003814801GUSTAVO MANZOLLI SOARFES               09012016112TNE101102019IM11201900000000003190600000000000000003                                106361518752774158038148011     
30001002158000AGNES DOS SANTOS PEREIRA               03091988210TNE101122017  11201900000000003190600000000000000001CONSULTORA          88012243    135325324845774158021580006     
30001002158001HELENA DOS SANTOS FURLANETTI           22022011212TNE116052019  11201900000000003190600000000000000001                                144383163831774158021580014     
30001003675700AIDA NEVES DE ALMEIDA                  17051979220TNE105062019  1120190000000000319060000000000000000116009                   88015354198168363191774158036757003     
30001003675701MARCOS ANTONIO CAVALCANTE ALMEIDA      13051999112TNE105062019  11201900000000003190600000000000000001                                170386878161774158036757011     
30001003675701MARCOS ANTONIO CAVALCANTE ALMEIDA      13051999112TNE105062019CM11201900000000003190600000000000000055                                170386878161774158036757011     
30001003675701MARCOS ANTONIO CAVALCANTE ALMEIDA      13051999112TNE105062019CR10201900000000003190600000000000000055                                170386878161774158036757011     
30001003675701MARCOS ANTONIO CAVALCANTE ALMEIDA      13051999112TNE105062019CR09201900000000001914300000000000000055                                170386878161774158036757011     
30001003675702BEATRIZ K CAVALCANTE ALMEIDA           26081997212TNE113092019IR09201900000000001914300000000000000003                                170342569180774158036757029     
30001003675702BEATRIZ K CAVALCANTE ALMEIDA           26081997212TNE113092019IR10201900000000003190600000000000000003                                170342569180774158036757029     
30001003675702BEATRIZ K CAVALCANTE ALMEIDA           26081997212TNE113092019IM11201900000000003190600000000000000003                                170342569180774158036757029     
30001003438000AISLANY GHEZZI                         26012000210TNE101022019  11201900000000003190600000000000000001                        88014769147912012800774158034380006     
30001000951200ALAN LUIZ SANTOS PAULA                 22051995110TNE101082016  11201900000000003190600000000000000001AUXILIAR            9512        137495215810774158009512005     
30001003063500ALANNA DA SILVA LIMA                   21071995210TNE101112018  11201900000000003190600000000000000001                        88014011105730243596774158030635007     
30001002882700ALAYENE FARIAS DE CARVALHO             08061990210TNE101092018  11201900000000003190600000000000000001                        88013543100013655256774158028827004     
30001002882701MIKAEL DE DE CARVALHO BEZERRA          11072013112TNE101092018  11201900000000003190600000000000000001                                100000000000774158028827012     
30001002743000ALCIENE CUNHA DE OLIVEIRA              13091987210TNE101072018  11201900000000003190600000000000000001                        88013259191828090204774158027430008     
30001003174700ALCIMAR AZEVEDO GUERRA                 30041987210TNE101122018  11201900000000003190600000000000000001                        88014207107429793428774158031747009     
30001002569000ALCIONE TAMIRES TIRADO DOS SANTOS      18081992210TNE101052018  11201900000000003190600000000000000001                        88012894132252283890774158025690009     
30001002569001LORRAN E SANTOS RODRIGUES VIEIRA       18072010112TNE101052018  11201900000000003190600000000000000001                                154212128829774158025690017     
30001000338700ALDENISA S NASCIMENTO BARCELLOS        04101983220TNE101032016  11201900000000003190600000000000000001CONSULTOR DE VENDAS 3387        100387295127774158003387008     
30001000338701EDNANDO DA CUNHA BARCELLOS             28031983121TNE101032016  11201900000000003190600000000000000001                                197365238100774158003387016     
30001000338702NICOLAS SOUZA BARCELLOS                02102013112TNE101032016  11201900000000003190600000000000000001                                100000000000774158003387024     
30001000338703KARYTTA KAUANNE RODRIGUES BARCELLOS    23012008212TNE101072016  11201900000000003190600000000000000001                                171262825164774158003387032     
30001002795200ALDERSON GONCALVES DO AMARANTE         02061980110TNQ201082018  11201900000000004316800000000000000001                        88013379101209053616774158027952001     
30001003175500ALESSANDRA DE JESUS SANTANA            15111990240TNE101122018  11201900000000003190600000000000000001                        88014208104531005546774158031755002     
30001003175501JORGE DE JESUS SANTANA                 25062017112TNE101122018  11201900000000003190600000000000000001                                109621312531774158031755010     
30001001469900ALESSANDRA MORAES                      11041979210TNE101032017  11201900000000003190600000000000000001CONSULTORA          88008833    128555116821774158014699003     
30001000715300ALESSANDRA PEIXOTO PAULA ALCANTARA     01061982210TNE101052016  11201900000000003190600000000000000001CONSULTORA          7153        171901140172774158007153000     
30001000715301ALICE PEIXOTO DE ALCANTARA             31032018212TNE108052018  11201900000000003190600000000000000001                                109208386180774158007153018     
30001000715302ANTONY HALF DE ALCANTARA BARBOSA       03061987121TNE122042019  11201900000000003190600000000000000001                                101162505184774158007153026     
30001003749400ALESSANDRA RUFINO DA SILVA             22021989210TNE107082019  11201900000000003190600000000000000001                        88015654109261092608774158037494002     
30001000822200ALESSANDRO SOUZA DA SILVA              23041986110TNE101072016  11201900000000003190600000000000000001CONSULTOR           8222        110661110737774158008222002     
30001000822201MARIANE MARQUES DA SILVA               15052008212TNE101072016  11201900000000003190600000000000000001                                100000000000774158008222010     
30001000822202ANA JULIA LEMOS DA SILVA               23092009212TNE101072016  11201900000000003190600000000000000001                                100000000000774158008222028     
30001002213600ALEX FELIPE SOUZA PAPI                 10051986110TNE101012018  11201900000000003190600000000000000001CONSULTOR           88012281    139443174839774158022136006     
30001002213600ALEX FELIPE SOUZA PAPI                 10051986110TNE101012018CM11201900000000003190600000000000000055CONSULTOR           88012281    139443174839774158022136006     
30001002213600ALEX FELIPE SOUZA PAPI                 10051986110TNE101012018CR10201900000000003190600000000000000055CONSULTOR           88012281    139443174839774158022136006     
30001002213600ALEX FELIPE SOUZA PAPI                 10051986110TNE101012018CR09201900000000002020700000000000000055CONSULTOR           88012281    139443174839774158022136006     
30001003166600ALEX SANDER GOMES MENDONCA             05081977110TNE101112018  11201900000000003190600000000000000001                        88014048107518421763774158031666001     
30001003166601ARTHUR ROSA MENDONCA                   04042005112TNE101112018  11201900000000003190600000000000000001                                119696896760774158031666019     
30001003166602THAIS SILVA ROSA                       10081978211TNE101112018  11201900000000003190600000000000000001                                108337300701774158031666027     
30001003166603BERNARDO BRITO MENDONCA                14122015112TNE101122018  11201900000000003190600000000000000001                                100000000000774158031666035     
30001000161900ALEX SANDRO MESQUITA DA COSTA          11091977210TNE101032016  11201900000000003190600000000000000001SUPERVISOR DE VENDAS1619        107356272741774158001619006     
30001003708700ALEXANDRA CARRUPT AZEVEDO PACHECO      25011984220TNE109072019  1120190000000000319060000000000000000133018                   88015465110571843735774158037087004     
30001003708701VITOR CARRUPT DE AZEVEDO PACHECO       13112008112TNE109072019  11201900000000003190600000000000000001                                121209344793774158037087012     
30001003545900ALEXIA DE ALMEIDA DA SILVA             10101997210TNE104032019  11201900000000003190600000000000000001                        88014902145578462898774158035459007     
30001003420700ALEXSANDER ROCHA AZEVEDO               01011983120TNE101022019  11201900000000003190600000000000000001                        88014676109997613740774158034207001     
30001003420701ANA CLARA PAIXAO AZEVEDO               20092014212TNE101022019  11201900000000003190600000000000000001                                100000000000774158034207019     
30001003420702VANESSA PAIXAO DE ARAUJO AZEVEDO       02031991221TNE101022019  11201900000000003190600000000000000001                                118258175700774158034207027     
30001003377400ALEXSON PRATTI DE OLIVEIRA             24021999110TNE101022019  11201900000000003190600000000000000001                        88014754117216806751774158033774001     
30001002484800ALICE FERNANDA RAMOS SOUZA             01081990210TNE101042018  11201900000000003190600000000000000001                        88012822102407013131774158024848004     
30001002484801SOPHIA LUIZA RAMOS SANTOS              16022009212TNE101042018  11201900000000003190600000000000000001                                100000000000774158024848012     
30001000197000ALICE RAMAIANE DANTAS DE MORAIS        15071992210TNE101032016  11201900000000003190600000000000000001CONSULTOR DE VENDAS 1970        109512469413774158001970003     
30001001246700ALINE ALVARENGA CORREIA LIMA           18011983210TNE101122016  11201900000000003190600000000000000001CONSULTORA          12467       109328261724774158012467007     
30001001246701ANDRE ALVARENGA PINTO                  17032013112TNE101122016  11201900000000003190600000000000000001                                117312278760774158012467015     
30001000142200ALINE ALVES DE SOUSA                   30041989220TNE101032016  11201900000000003190600000000000000001CONSULTOR DE VENDAS 1422        103554598330774158001422005     
30001000142201CARLOS DIEGO DA SILVA CRUZ             07111987121TNE101032016  11201900000000003190600000000000000001                                101197896392774158001422013     
30001000142202MARIA FERNANDA SOUSA CRUZ              22102013212TNE101032016  11201900000000003190600000000000000001                                100000000000774158001422021     
30001003069400ALINE ALVES FROTA DE ABREU             31031983220TNE101112018  11201900000000003190600000000000000001                        88014089131896234810774158030694004     
30001003069401JHESSICA ALVES DOS SANTOS              26042012212TNE101112018  11201900000000003190600000000000000001                                100000000000774158030694012     
30001003069402MATHEUS ALVES DOS SANTOS               01062019142TNE108072019  11201900000000003190600000000000000001                                157268442890774158030694020     
30001003070800ALINE BOTELHO SANTOS                   19101991210TNE101112018  11201900000000003190600000000000000001                        88014090141934675890774158030708002     
30001000216000ALINE DOS SANTOS NUNES                 12061985210TNQ201032016  11201900000000004316800000000000000001CONSULTOR DE VENDAS 2160        101608662519774158002160000     
30001000216001ANA LIZ SANTOS CABRAL                  27062008212TNQ201032016  11201900000000004316800000000000000001                                100000000000774158002160018     
30001000216002HELOISA SANTOS SANTANA                 14032019212TNQ201042019  11201900000000004316800000000000000001                                111149109530774158002160026     
30001001888000ALINE DRACHENBERG                      26071983210TNQ201092017  11201900000000004316800000000000000001SUPERVISORA         88011771    132976744823774158018880005     
30001000008600ALINE GONCALVES ALBUQUERQUE            09021978210TNQ201032016  11201900000000004316800000000000000001SUPERVISOR DE VENDAS86          108128981765774158000086009     
30001000008601LEONARDO RICARDO PEREIRA FILHO         06081997112TNQ201032016  11201900000000004316800000000000000001                                114490642725774158000086017     
30001000008602EDUARDO RICARDO PEREIRA                06062004112TNQ201032016  11201900000000004316800000000000000001                                114490643705774158000086025     
30001000008603NICKOLAS OLIVEIRA ALBUQUERQUE          23062010112TNQ201032016  11201900000000004316800000000000000001                                120884910741774158000086033     
30001002942400ALINE GONCALVES MAXIMIANO              28071990210TNE101102018  11201900000000003190600000000000000001                        88013779108167616630774158029424009     
30001000980600ALINE GUEDES NUNES                     06121978210TNE101092016  11201900000000003190600000000000000001CONSULTORA          9806        108241226748774158009806001     
30001000980601JUAN NUNES DA COSTA                    01081996112TNE101112016  11201900000000003190600000000000000001                                115700213761774158009806019     
30001000980602CLAUDIO LUIZ SOARES DE LIMA            31011974121TNE101092017  11201900000000003190600000000000000001                                102482422701774158009806027     
30001002568200ALINE KELLY RAMOS BRUM                 01011989210TNE101052018  11201900000000003190600000000000000001                        88012893113079507797774158025682006     
30001002568201YAN FELIPE RAMOS DE CARVALHO           17102005112TNE101052018  11201900000000003190600000000000000001                                117224341711774158025682014     
30001000489800ALINE LUIZA NASCIMENTO DOS SANTOS      26011986220TNE101032016  11201900000000003190600000000000000001CONSULTOR DE VENDAS 4898        134757907850774158004898003     
30001000489801CLODOALDO JOSE DOS SANTOS              29011982121TNE101032016  11201900000000003190600000000000000001                                131079829890774158004898011     
30001000489802LORENA LUIZA SANTOS                    21012013212TNE101032016  11201900000000003190600000000000000001                                100000000000774158004898029     
30001003470300ALINE MENEZES LUCIANO                  04011983210TNE101032019RR09201900000000001276200000000000000005                        88014770106356719648774158034703009     
30001003470300ALINE MENEZES LUCIANO                  04011983210TNE101032019RR10201900000000003190600000000000000005                        88014770106356719648774158034703009     
30001003470300ALINE MENEZES LUCIANO                  04011983210TNE101032019RM11201900000000003190600000000000000005                        88014770106356719648774158034703009     
30001003470301GIOVANNA MENEZES DA CRUZ               24042004212TNE101032019RR09201900000000001276200000000000000005                                101866159658774158034703017     
30001003470301GIOVANNA MENEZES DA CRUZ               24042004212TNE101032019RR10201900000000003190600000000000000005                                101866159658774158034703017     
30001003470301GIOVANNA MENEZES DA CRUZ               24042004212TNE101032019RM11201900000000003190600000000000000005                                101866159658774158034703017     
30001002888600ALINE OLIVEIRA DE MIRANDA              10011992210TNE101092018  11201900000000003190600000000000000001                        88013714101240763271774158028886000     
30001002888601ASAFE MIRANDA LOUREIRO                 09092019142TNE101102019IR10201900000000003190600000000000000003                                121817912798774158028886018     
30001002888601ASAFE MIRANDA LOUREIRO                 09092019142TNE101102019IM11201900000000003190600000000000000003                                121817912798774158028886018     
30001000754400ALINE PEREIRA COSTA                    30081985210TNE101062016  11201900000000003190600000000000000001CONSULTORA          7544        179368034249774158007544000     
30001000754401MARIA CLARA PEREIRA SILVA              08122007212TNE101062016  11201900000000003190600000000000000001                                100000000000774158007544018     
30001000754402MARIA HELENA PEREIRA AGUIAR            17082018212TNE115092018  11201900000000003190600000000000000001                                107485923269774158007544026     
30001000754403ERICSSON RUTTEMBERG AGUIAR DA SILVA    07041995121TNE101042019  11201900000000003190600000000000000001                                101383003211774158007544034     
30001001781700ALINE SOARES DA SILVA                  13021989220TNE101072017  11201900000000003190600000000000000001CONSULTORA          88011240    136339345883774158017817008     
30001001781702LETICIA GIOVANNA DA SILVA              19102011212TNE101072017  11201900000000003190600000000000000001                                100000000000774158017817024     
30001003734600ALINE SOARES DOS SANTOS                21091989210TNE102082019  11201900000000003190600000000000000001                        88015608137998666803774158037346004     
30001002622000ALINE VASCONCELOS SANTOS               10051987210TNE101052018  11201900000000003190600000000000000001                        88012989102259161502774158026220004     
30001000057400ALINIR PEREIRA DE ALMEIDA              17011991210TNE101032016  11201900000000003190600000000000000001CONSULTOR DE VENDAS 574         100124325203774158000574004     
30001000057401MAGNO ALEXANDRE SANTOS PAVAO           26081973121TNE101082017  11201900000000003190600000000000000001                                141936825287774158000574012     
30001000057402AGATHA ALMEIDA PAVAO                   06062019212TNE117062019  11201900000000003190600000000000000001                                108426242286774158000574020     
30001001348000ALLAN SILVA PEDROSO                    15041991110TNE101022017  11201900000000003190600000000000000001AUXILIAR            88010288    139015266840774158013480009     
30001003072400ALLINE CRISTINA DE FARIAS              27031980220TNQ201112018  11201900000000004316800000000000000001                        88014148128256632801774158030724009     
30001003072401ALLAN CARLOS VERILLO                   31071984121TNQ201112018  11201900000000004316800000000000000001                                131430382848774158030724017     
30001003072402JOAO PEDRO FARIAS DANTAS               03122007112TNQ201112018  11201900000000004316800000000000000001                                101404277242774158030724025     
30001003072403KAUA FARIAS VERILLO                    10072004112TNQ201112018  11201900000000004316800000000000000001                                137372574854774158030724033     
30001003715000ALMY COELHO ANDRADE FILHO              27051990110TNE122072019  1120190000000000319060000000000000000136001                   88014789100756771307774158037150000     
30001000675000ALZENIR GONCALVES AMORIM DE ALENCAR    19041987220TNE101042016  11201900000000003190600000000000000001AUXILIAR COMERCIAL  6750        101409154351774158006750004     
30001000675001ALEXSANDRO DE ALENCAR BEZERRA          17031978121TNE101042016  11201900000000003190600000000000000001                                101882943333774158006750012     
30001000675002PEDRO VINICIUS GONCALVES DE ALENCAR    10012009112TNE101022018  11201900000000003190600000000000000001                                106868641311774158006750020     
30001000675003CICERO ISAAC GONCALVES DE ALENCAR      26012011112TNE101022018  11201900000000003190600000000000000001                                106868645309774158006750038     
30001001054500AMANDA CONCEICAO MANGIA                09071993210TNE101102016  11201900000000003190600000000000000001CONSULTORA          10545       116122157775774158010545002     
30001003771000AMANDA FLORES BARRETO SIMOES           16121985210TNE103092019  11201900000000003190600000000000000001LOJA                    88015838135257996839774158037710001     
30001003771001JULIA FLORES BARRETO SIMOES            08122014212TNE103092019  11201900000000003190600000000000000001                                151274500893774158037710019     
30001003625000AMANDA KELLY BESERRA FRANCA            21021995210TNE105052019  11201900000000003190600000000000000001                        88015095105493847310774158036250009     
30001003625001ROBSON ALVES DE OLIVEIRA               02091986111TNE105052019  11201900000000003190600000000000000001                                102333602392774158036250017     
30001003613700AMANDA NUNES RABELO                    23121994210TNE101042019  11201900000000003190600000000000000001                        88015034104235170155774158036137008     
30001003613701ISABELY NUNES FIGUEIREDO               20022014212TNE101042019  11201900000000003190600000000000000001                                100000000000774158036137016     
30001003780000AMANDA RIBEIRO FERNANDES               12021982220TNE103092019  11201900000000003190600000000000000001LOJA                    88016504122201728801774158037800000     
30001003780001AMYLY RIBEIRO FERNANDES                26082000112TNE103092019  11201900000000003190600000000000000001                                149052919844774158037800018     
30001003780002ANTONIO DONIZETI FERNANDES             26081980121TNE103092019  11201900000000003190600000000000000001                                129127314880774158037800026     
30001003780003CAIO RIBEIRO FERNANDES                 03022011112TNE103092019  11201900000000003190600000000000000001                                146706753890774158037800034     
30001002563100AMANDA TEIXEIRA DA SILVA               29061995210TNE101052018  11201900000000003190600000000000000001                        88012882114935212764774158025631003     
30001003686200AMANDA VASCONCELOS ALMEIDA SANTOS      22021995220TNE101072019  112019000000000031906000000000000000019033                    88015407142273574894774158036862001     
30001003686201ADILSON DONIZETI TORQUATO JUNIOR       12011994221TNE101072019  11201900000000003190600000000000000001                                143182424807774158036862019     
30001000168600AMENAIDE DIAS DOS SANTOS               02101970210TNE101032016  11201900000000003190600000000000000001CONSULTOR DE VENDAS 1686        150517805120774158001686005     
30001000396400ANA ANGELICA QUIXABEIRA TAVARES        20081988220TNE101032016  11201900000000003190600000000000000001CONSULTOR DE VENDAS 3964        107388967990774158003964004     
30001000396401FABIO FLORENCIO DE SOUSA               15021982121TNE101032016  11201900000000003190600000000000000001                                100752149113774158003964012     
30001001327700ANA BEATRIZ DE SOUZA MOREIRA           15091993210TNE101012017  11201900000000003190600000000000000001AUXILIAR            13277       141495792889774158013277009     
30001003419300ANA CAROLINA AMARAL FRANCA             03071992240TNE101022019  11201900000000003190600000000000000001                        88014675111096601621774158034193003     
30001003419301KELVIN FRANCA SILVA                    13122014112TNE101022019  11201900000000003190600000000000000001                                100000000000774158034193011     
30001003615300ANA CAROLINA APARECIDA SILVA           14061991220TNE101022019  11201900000000003190600000000000000001                    113371      111337167681774158036153005     
30001003615301VICTOR EMANUEL SILVA PEREIRA           23092009112TNE101022019  11201900000000003190600000000000000001                                100000000000774158036153013     
30001003615302RHIUSTON RICCELLE DE OLIVEIRA NETO     18071989121TNE101022019  11201900000000003190600000000000000001                                107060676651774158036153021     
30001003851200ANA CAROLINA BEZERRA LIMA              09041989220TNE118102019IR10201900000000001382500000000000000003                        88017186103387064373774158038512000     
30001003851200ANA CAROLINA BEZERRA LIMA              09041989220TNE118102019IM11201900000000003190600000000000000003                        88017186103387064373774158038512000     
30001003851201ANDERSON ALVES DE MELO                 16121982121TNE118102019IR10201900000000001382500000000000000003                                194673330315774158038512018     
30001003851201ANDERSON ALVES DE MELO                 16121982121TNE118102019IM11201900000000003190600000000000000003                                194673330315774158038512018     
30001000421900ANA CAROLINA COSTA DE OLIVEIRA         07111979210TNE101032016  11201900000000003190600000000000000001CONSULTOR DE VENDAS 4219        109015497702774158004219002     
30001000421901LARYSSA COSTA DE ARAUJO                22042004212TNE101032016  11201900000000003190600000000000000001                                114912895709774158004219010     
30001003536000ANA CAROLINA DA SILVA ROQUE            06071994210TNE102032019  11201900000000003190600000000000000001                        88014879143279499810774158035360007     
30001000327100ANA CAROLINA DE JESUS OLIVEIRA         25041987210TNE101032016  11201900000000003190600000000000000001CONSULTOR DE VENDAS 3271        102295875501774158003271004     
30001000327101THIAGO DA SILVA ROCHA                  04061988121TNE107102019IR10201900000000002552400000000000000003                                112629468755774158003271012     
30001000327101THIAGO DA SILVA ROCHA                  04061988121TNE107102019IM11201900000000003190600000000000000003                                112629468755774158003271012     
30001001243200ANA CAROLINA PINHEIRO SILVA            14091993210TNE101122016  11201900000000003190600000000000000001CONSULTORA          12432       141222858878774158012432001     
30001002461900ANA CLARA PAGOTTO                      21021985220TNQ201042018  11201900000000004316800000000000000001                        88012729132718902850774158024619009     
30001002461901CAIO AUGUSTO PAGOTTO ALONSO            21042005112TNQ201042018  11201900000000004316800000000000000001                                146691521811774158024619017     
30001002957200ANA CLAUDIA BISPO REZENDE              19021993210TNE101102018  11201900000000003190600000000000000001                        88013838111189664658774158029572005     
30001002957201JULIA CAROLINE REZENDE FARIA           22042009212TNE101102018  11201900000000003190600000000000000001                                115993231688774158029572013     
30001002747200ANA CLAUDIA VERISSIMO                  15101972210TNQ201072018  11201900000000004316800000000000000001                        88013275118092726884774158027472000     
30001000201100ANA CRISTINA JUSTINO RIBEIRO           08041978210TNE101032016  11201900000000003190600000000000000001AUXILIAR DE SERVICOS2011        163964139300774158002011005     
30001000201101GABRIEL JUSTINO RIBEIRO DE MEDEIROS    16071998212TNE101032016  11201900000000003190600000000000000001                                105959246384774158002011013     
30001000201102LUANA CRISTINE JUSTINO RIBEIRO         31082006212TNE101032016  11201900000000003190600000000000000001                                162704539332774158002011021     
30001002953000ANA CRISTINA RIBEIRO AGUIAR            17091984220TNE101102018  11201900000000003190600000000000000001                        88013803102290767506774158029530003     
30001002953001DARIO RIBEIRO LIMA                     05101983121TNE101102018  11201900000000003190600000000000000001                                101793955565774158029530011     
30001002953002EDUARDO DANIEL AGUIAR RIBEIRO LIMA     23082016112TNE101102018  11201900000000003190600000000000000001                                100000000000774158029530029     
30001003468100ANA FLORIZE MELO CARNEIRO DA SILVA     11111986220TNE101022019  11201900000000003190600000000000000001                    062433      106243307450774158034681007     
30001003468101ANDERSON ALEXANDRE REALE DE ARAUJO     24041987121TNE101022019  11201900000000003190600000000000000001                                107105573457774158034681015     
30001003468102ARTHUR REALE DE MELO                   09032017112TNE101022019  11201900000000003190600000000000000001                                114399182440774158034681023     
30001003066000ANA JACQUELINE BELO DA SILVA           26081985210TNE101112018  11201900000000003190600000000000000001                        88014040106599305440774158030660005     
30001002929700ANA JULIA STEFFENS                     22041996210TNE120092018  11201900000000003190600000000000000001                        88013432107027151316774158029297009     
30001003407000ANA KAROLINA CRISTOVAO NASCIMENTO      11041995210TNE101022019  11201900000000003190600000000000000001                        88014637117071292744774158034070003     
30001003587400ANA KASSIA DE SOUZA COELHO SILVA       11041982220TNE101042019  11201900000000003190600000000000000001                        88014986122555509895774158035874007     
30001003587400ANA KASSIA DE SOUZA COELHO SILVA       11041982220TNE101042019CM11201900000000003190600000000000000055                        88014986122555509895774158035874007     
30001003587400ANA KASSIA DE SOUZA COELHO SILVA       11041982220TNE101042019CR10201900000000003190600000000000000055                        88014986122555509895774158035874007     
30001003587400ANA KASSIA DE SOUZA COELHO SILVA       11041982220TNE101042019CR09201900000000003084200000000000000055                        88014986122555509895774158035874007     
30001003587401ANA SOPHIA DE SOUZA SOARES             13022017212TNE101042019  11201900000000003190600000000000000001                                100000000000774158035874015     
30001003587401ANA SOPHIA DE SOUZA SOARES             13022017212TNE101042019CM11201900000000003190600000000000000055                                100000000000774158035874015     
30001003587401ANA SOPHIA DE SOUZA SOARES             13022017212TNE101042019CR10201900000000003190600000000000000055                                100000000000774158035874015     
30001003587401ANA SOPHIA DE SOUZA SOARES             13022017212TNE101042019CR09201900000000003084200000000000000055                                100000000000774158035874015     
30001003587402DANIEL DE SOUZA SOARES                 03122006112TNE101042019  11201900000000003190600000000000000001                                100000000000774158035874023     
30001003587402DANIEL DE SOUZA SOARES                 03122006112TNE101042019CM11201900000000003190600000000000000055                                100000000000774158035874023     
30001003587402DANIEL DE SOUZA SOARES                 03122006112TNE101042019CR10201900000000003190600000000000000055                                100000000000774158035874023     
30001003587402DANIEL DE SOUZA SOARES                 03122006112TNE101042019CR09201900000000003084200000000000000055                                100000000000774158035874023     
30001002304300ANA LUCIA CONCEICAO COSTA              31071992210TNE101022018  11201900000000003190600000000000000001CONSULTORA          88012411    105787712501774158023043003     
30001000165100ANA LUCIA PEREIRA GUEDES               20121981210TNE101032016  11201900000000003190600000000000000001SUPERVISOR DE VENDAS1651        172565721153774158001651009     
30001000652100ANA LUCIA RODRIGUES DOS SANTOS         22101983220TNE101032016  11201900000000003190600000000000000001CONSULTOR DE VENDAS 6521        133491126843774158006521009     
30001003537800ANA LUIZA TEIXEIRA BORTOLOTTO          23081991220TNE101032019  11201900000000003190600000000000000001                        88014880142118020899774158035378009     
30001003537801LEANDRO BORTOLOTTO                     20081979121TNE101032019  11201900000000003190600000000000000001                                121974600807774158035378017     
30001003537802VALLENTINA BORTOLOTTO                  12032015212TNE101032019  11201900000000003190600000000000000001                                100000000000774158035378025     
30001002437600ANA LUYSA DE QUEIROZ                   14011996220TNE119032018  11201900000000003190600000000000000001                    88007795    106629585356774158024376006     
30001000300000ANA MARIA DE FATIMA VIEIRA             21101992210TNE101032016  11201900000000003190600000000000000001CONSULTOR DE VENDAS 3000        111029651620774158003000007     
30001000106600ANA NAJARA BOMFIM VIEIRA               02071984210TNE101032016  11201900000000003190600000000000000001SUPERVISOR DE VENDAS1066        197501956391774158001066000     
30001000106601SARAH POLYANNA BONFIM ALVES            25021999212TNE101032016  11201900000000003190600000000000000001                                107006242363774158001066018     
30001000106602ANA BEATRIZ BONFIM RICARTE             29042003212TNE101032016  11201900000000003190600000000000000001                                100000000000774158001066026     
30001000106603PEDRO RIQUELME BOMFIM RICARTE          31052006112TNE101032016  11201900000000003190600000000000000001                                109384760331774158001066034     
30001003637400ANA PAULA APARECIDA COELHO             19071987210TNE107052019  11201900000000003190600000000000000001                        88015302109140848604774158036374007     
30001003637401JOAO GABRIEL GUIMARAES VERTELO         05042006112TNE107052019  11201900000000003190600000000000000001                                100000000000774158036374015     
30001001989500ANA PAULA ARAUJO BARBARA               01101981210TNE101092017  11201900000000003190600000000000000001CONSULTORA          88011752    104365494686774158019895002     
30001001989501MARIANA ARAUJO VILELA BARBOSA          22112012212TNE101092017  11201900000000003190600000000000000001                                100000000000774158019895010     
30001002759600ANA PAULA AZEVEDO TOGNERI RANGEL       16121980220TNQ201072018  11201900000000004316800000000000000001                        88013317108401206723774158027596006     
30001002759601LETICIA TOGNERI RANGEL                 18112010212TNQ201072018  11201900000000004316800000000000000001                                100000000000774158027596014     
30001002759602MARIANA TOGNERI RANGEL                 07072007212TNQ201072018  11201900000000004316800000000000000001                                100000000000774158027596022     
30001002759603EDUARDO CRESPO DE ABREU RANGEL         02071981121TNQ201072018  11201900000000004316800000000000000001                                109092915785774158027596030     
30001001668300ANA PAULA COSTA DA ROCHA               15021989210TNE101062017  11201900000000003190600000000000000001CONSULTOR           88010858    138492006803774158016683005     
30001001668301LUIZ HENRIQUE ROCHA DE LIMA            30032015112TNE101062017  11201900000000003190600000000000000001                                100000000000774158016683013     
30001001668302EMERSON CRUZ DE LIMA                   26081987121TNE101062017  11201900000000003190600000000000000001                                135679288800774158016683021     
30001002601800ANA PAULA DA SILVA SANTOS              20101991210TNE101052018  11201900000000003190600000000000000001                        88012948139669800889774158026018002     
30001002601801MATHEUS JONATHAN SANTOS SOARES         14112012112TNE101052018  11201900000000003190600000000000000001                                100000000000774158026018010     
30001002082600ANA PAULA DE MORAES ROSA               22111981210TNE101102017  11201900000000003190600000000000000001CONSULTORA          88011833    130363859837774158020826004     
30001002517800ANA PAULA DE OLIVEIRA GOMES            05061986210TNE101042018  11201900000000003190600000000000000001                        88012779105444964422774158025178005     
30001003797400ANA PAULA DE SOUZA MALTEZI PEREIRA     23041990220TNE106092019  11201900000000003190600000000000000001LOJA                    88016566139044031848774158037974003     
30001003797401ANA LAURA MALTEZI BEATO                27102008212TNE106092019  11201900000000003190600000000000000001                                157238313804774158037974011     
30001003797402GABRIEL RICARDO MALTEZI BEATO          15122006112TNE106092019  11201900000000003190600000000000000001                                157238253801774158037974029     
30001003797403PAULO RICARDO FERREIRA BEATO           28101986121TNE106092019  11201900000000003190600000000000000001                                133643182805774158037974037     
30001000354900ANA PAULA DUARTE DA ENCARNACAO         10041989110TNE101032016  11201900000000003190600000000000000001CONSULTOR DE VENDAS 3549        112292410788774158003549003     
30001001931300ANA PAULA ESTEVAO DA SILVA             08091983210TNE101092017  11201900000000003190600000000000000001CONSULTORA          88011673    130063153831774158019313006     
30001003701000ANA PAULA FERNANDES DIOGO              13021983210TNE109072019  112019000000000031906000000000000000019077                    88015431131829920820774158037010006     
30001003701001RAFAELA FERNANDES RIBEIRO              05012002212TNE109072019  11201900000000003190600000000000000001                                139687372885774158037010014     
30001003701002THALES FERNANDES ROSA                  02012015112TNE109072019  11201900000000003190600000000000000001                                150784688893774158037010022     
30001000173200ANA PAULA FERREIRA BORGES              02121981220TNE101032016  11201900000000003190600000000000000001SUPERVISOR DE VENDAS1732        105736356686774158001732007     
30001000173201MILKER ARCANJO BROGES                  27031985121TNE101032016  11201900000000003190600000000000000001                                101465531602774158001732015     
30001001620900ANA PAULA NERI PINHEIRO                15091985210TNQ201052017  11201900000000004316800000000000000001SUPERVISORA         88010837    133675293890774158016209009     
30001001620901VICTORIA LOUIZY PINHEIRO DE AMORIM     08032008212TNQ201052017  11201900000000004316800000000000000001                                114043461631774158016209017     
30001001620902ROBERLANE VITOR DE AMORIM              07111976121TNQ217122018  11201900000000004316800000000000000001                                191814308687774158016209025     
30001003628500ANA PAULA PEREIRA BORGUETI             27081986220TNE105052019  11201900000000003190600000000000000001                        88015204133422315802774158036285005     
30001003628501LARA PEREIRA BOGUETI                   02102014212TNE105052019  11201900000000003190600000000000000001                                100000000000774158036285013     
30001003628502THIAGO PEREIRA DA SILVA                27081986121TNE105052019  11201900000000003190600000000000000001                                135777174833774158036285021     
30001000030200ANA PAULA RODRIGUES BRAGA RAMALHO      12081988210TNE101032016  11201900000000003190600000000000000001CONSULTOR DE VENDAS 302         107096041494774158000302000     
30001000030201MATEUS LEVI RAMALHO DE OLIVEIRA        10042016112TNE101052016  11201900000000003190600000000000000001                                114188008482774158000302018     
30001003057000ANA PAULA RODRIGUES DA SILVA           09011986210TNQ201112018  11201900000000004316800000000000000001                        88013971106753136436774158030570006     
30001000867200ANA PAULA SILVA DUARTE                 14041995210TNE101082016  11201900000000003190600000000000000001AUXILIAR            8672        141733296875774158008672008     
30001002883500ANA RAQUEL SANTOS PEREIRA              29071989210TNE101092018  11201900000000003190600000000000000001                        88013562102514271371774158028835007     
30001003619600ANA SELMA OLIVEIRA SANTOS SILVA        03111991220TNE101042019  11201900000000003190600000000000000001                        88014617104697631161774158036196004     
30001003619601LUIZ VINICIUS OLIVEIRA DA SILVA        10022008112TNE101042019  11201900000000003190600000000000000001                                100000000000774158036196012     
30001003619602MARIA LUIZA OLIVEIRA DA SILVA          09082016212TNE101042019  11201900000000003190600000000000000001                                100000000000774158036196020     
30001000426000ANA TEREZA DO NASCIMENTO SILVA         03021984210TNE101032016  11201900000000003190600000000000000001SUPERVISOR DE VENDAS4260        106153754643774158004260006     
30001003766400ANA ZELIA DE MORAIS SALGADO CUNHA      27011970210TNE103092019  11201900000000003190600000000000000001LOJA                    88015817167318576453774158037664000     
30001003471100ANALICE BATISTA DO NASCIMENTO          03021991220TNE118022019  11201900000000003190600000000000000001                        88013704139805681807774158034711002     
30001003471101HEITOR EVANGELISTA DO NASCIMENTO       03032007112TNE118022019  11201900000000003190600000000000000001                                146842191866774158034711010     
30001003471102HENRIQUE EVANGELISTA DO NASCIMENTO     07022014112TNE118022019  11201900000000003190600000000000000001                                100000000000774158034711028     
30001003471103HUGO EVANGELISTA DA SILVA              18041990121TNE118022019  11201900000000003190600000000000000001                                135768728848774158034711036     
30001001429000ANDERSON DE JESUS COSTA                30111989120TNQ201032017  11201900000000004316800000000000000001SUPERVISOR          88010438    101747385107774158014290001     
30001001429001JACKELINE OLIVEIRA RODRIGUES           16071988221TNQ201032017  11201900000000004316800000000000000001                                102786727103774158014290019     
30001001429002GUILHERME OLIVEIRA RODRIGUES JESUS     23072014112TNQ201032017  11201900000000004316800000000000000001                                100000000000774158014290027     
30001001429003MILENA OLIVEIRA RODRIGUES DE JESUS     28072017212TNQ201092017  11201900000000004316800000000000000001                                100000000000774158014290035     
30001003058900ANDERSON RIBEIRO FURTADO               15071986120TNE101112018  11201900000000003190600000000000000001                        88014002189360290297774158030589006     
30001003058901DYANNE KATYA PEREIRA FREITAS           08011987221TNE101112018  11201900000000003190600000000000000001                                189129105234774158030589014     
30001003058902LANNA CAROLINE FREITAS FURTADO         12022009212TNE101112018  11201900000000003190600000000000000001                                100000000000774158030589022     
30001003058903WANDER GABRIEL FREITAS FURTADO         29042019112TNE117052019  11201900000000003190600000000000000001                                108354799271774158030589030     
30001003349900ANDRE FERNANDO DO NASCIMENTO SILVA     04121992110TNE101012019  11201900000000003190600000000000000001                        88014528160511092342774158033499005     
30001002722700ANDRE FORMAGIO BASTOS GUIMARAES        16101986110TNE101072018  11201900000000003190600000000000000001                        88013195111387156705774158027227008     
30001003129100ANDRE GERALDO DOS SANTOS PEREIRA       02101981120TNQ201112018  11201900000000004316800000000000000001                        88014091122295273803774158031291008     
30001003129101ALICIA AMORI PEREIRA                   05112008212TNQ201112018  11201900000000004316800000000000000001                                153000971874774158031291016     
30001003129102JULIANA AMORI AUGUSTO                  12021986221TNQ201112018  11201900000000004316800000000000000001                                122833956827774158031291024     
30001003129103LAURA AMORI PEREIRA                    05112008212TNQ201112018  11201900000000004316800000000000000001                                153000949860774158031291032     
30001001481800ANDRE LUIS LUZ FARIAS                  27081990110TNE101042017  11201900000000003190600000000000000001CONSULTOR           88010628    199266814253774158014818009     
30001003732000ANDREA DO NASCIMENTO E SILVA           24091988210TNE102082019  11201900000000003190600000000000000001                        88015605108645186411774158037320009     
30001003732001ANDRE E SILVA FERREIRA                 26022013112TNE102082019  11201900000000003190600000000000000001                                113159609405774158037320017     
30001003363400ANDREA EVA RAMSAY GARCIA               05021978220TNE101012019  11201900000000003190600000000000000001                        88014537182992339172774158033634007     
30001003363401ALICIA RAMSAY HADDAD                   25022017212TNE101012019  11201900000000003190600000000000000001                                108347132178774158033634015     
30001003363402PABLO ARRUDA HADDAD FILHO              09122004112TNE123082019  11201900000000003190600000000000000001                                103959960158774158033634023     
30001003029500ANDREA GAMA DE LIMA                    11061980210TNE101102018  11201900000000003190600000000000000001                        88013924169327459253774158030295000     
30001002506200ANDREA SANTANA PEIXOTO                 22071977210TNQ201042018  11201900000000004316800000000000000001                        88012730178759536500774158025062001     
30001001929100ANDREIA APARECIDA FURTADO              22011984210TNE101092017  11201900000000003190600000000000000001CONSULTORA          88011772    100980182131774158019291004     
30001001929101LARA MARIA FURTADO VIANA               29062011212TNE101122017  11201900000000003190600000000000000001                                150243987854774158019291012     
30001002282900ANDREIA APARECIDA GARCIA               23071980210TNE101022018  11201900000000003190600000000000000001CONSULTORA          88011991    130109808843774158022829006     
30001002282901LETICIA CAROLINE GARCIA DOS SANTOS     13081999212TNE101022018  11201900000000003190600000000000000001                                150413712885774158022829014     
30001002282902KALEB J GARCIA RODRIGUES CARVALHO      19072018112TNE121082018  11201900000000003190600000000000000001                                155443210866774158022829022     
30001003441000ANDREIA CRISTINA CORREA                24091977210TNQ201022019  11201900000000004316800000000000000001                        88014773163391449268774158034410001     
30001003441001ANANDA VICTORIA CORREA DOMINGUES       17022014212TNQ201022019  11201900000000004316800000000000000001                                100000000000774158034410019     
30001002481300ANDREIA FERREIRA BARBOZA               21091981220TNE101042018  11201900000000003190600000000000000001                        88012807109123589710774158024813008     
30001002481301GUSTAVO DA SILVA BARBOZA               26031985121TNE101042018  11201900000000003190600000000000000001                                110070298700774158024813016     
30001002481302SEBASTIAN FERREIRA BARBOZA             11032014112TNE101042018  11201900000000003190600000000000000001                                100000000000774158024813024     
30001002481303STEFAN FERREIRA BARBOZA                10112015112TNE101042018  11201900000000003190600000000000000001                                119478554760774158024813032     
30001001899600ANDREIA MOREIRA VALENTIM               11111983210TNE101092017  11201900000000003190600000000000000001CONSULTORA          88011773    131490937838774158018996009     
30001003190900ANDREIA RUCELLY AFONSO LEONARDO        01051989220TNE101122018  11201900000000003190600000000000000001                        88014321107321332462774158031909005     
30001003190901FELIPE FERNANDO DA SILVA SIQUEIRA      16081989121TNE101122018  11201900000000003190600000000000000001                                107386924410774158031909013     
30001001915100ANDRESSA DA SILVA XAVIER               08021992210TNE101092017  11201900000000003190600000000000000001CONSULTORA          88011674    140689019882774158019151000     
30001001915101SOCRATES FIGUEIREDO AMANCIO            18061980121TNE106092018  11201900000000003190600000000000000001                                131551725843774158019151018     
30001003538600ANDRESSA KASPERAVINCIUS                31081990210TNE103032019  11201900000000003190600000000000000001                        88014884141144440840774158035386002     
30001003709500ANDRESSA LOPES PINTO                   01031989220TNE111072019  112019000000000031906000000000000000013066                    88015472113788284706774158037095007     
30001003709501ANDRE BARRETO RIBEIRO PINTO            20011976121TNE111072019  11201900000000003190600000000000000001                                107049342726774158037095015     
30001003822900ANDRESSA MARQUES TEIXEIRA              11071993210TNE101102019IR10201900000000003190600000000000000003                        88016960115016105707774158038229001     
30001003822900ANDRESSA MARQUES TEIXEIRA              11071993210TNE101102019IM11201900000000003190600000000000000003                        88016960115016105707774158038229001     
30001003822901RAMON TEIXEIRA RODRIGUES               14102015112TNE101102019IR10201900000000003190600000000000000003                                100000000000774158038229019     
30001003822901RAMON TEIXEIRA RODRIGUES               14102015112TNE101102019IM11201900000000003190600000000000000003                                100000000000774158038229019     
30001001342000ANDRESSA MEDEIROS DOS SANTOS           11071991210TNE101012017  11201900000000003190600000000000000001CONSULTORA          88010280    140496674870774158013420005     
30001003186000ANDRESSA VITORINO DE SOUZA             03061987210TNE101122018  11201900000000003190600000000000000001                        88014271135731009880774158031860000     
30001003186001RAFAELLA VITORINO SEBASTIAO            15102008212TNE111122018  11201900000000003190600000000000000001                                149293957809774158031860018     
30001001709400ANDREYSSON LUIZ PEREIRA                25011980110TNE101072017  11201900000000003190600000000000000001CONSULTOR           88011300    104208165693774158017094004     
30001001709401LUISA ROSA PEREIRA DE CASTRO           16082010212TNE101072017  11201900000000003190600000000000000001                                116295185657774158017094012     
30001000020500ANDREZA SANTOS HUMSI RAYES             30101976210TNE101032016  11201900000000003190600000000000000001CONSULTOR DE VENDAS 205         183461400106774158000205005     
30001000020501NICOLE B SANTOS RAYES FRANCISCO        27042015212TNE101032016  11201900000000003190600000000000000001                                108769500126774158000205013     
30001000020502CLAUDIO HENRIQUE PEREIRA FRANCISCO     04111978121TNE120052019  11201900000000003190600000000000000001                                182673586172774158000205021     
30001000020503ALICE SANTOS HUMSI RAYES FRANCISCO     26032019212TNE117052019  11201900000000003190600000000000000001                                100000000000774158000205039     
30001000870200ANGELA GOMES DA SILVA                  20031983210TNE101082016  11201900000000003190600000000000000001CONSULTORA          8702        101114393452774158008702003     
30001000870201ARTHUR GOMES BRANCO                    08012013112TNE101082016  11201900000000003190600000000000000001                                100000000000774158008702011     
30001000122800ANGELA MARTINS ALVES                   20031982110TNE101032016  11201900000000003190600000000000000001CONSULTOR DE VENDAS 1228        105452887709774158001228006     
30001000122801ANA CLARA ALVES COSTA                  03022008212TNE101032016  11201900000000003190600000000000000001                                154890371800774158001228014     
30001000122802MARIA EDUARDA ALVES COSTA              18102010212TNE101032016  11201900000000003190600000000000000001                                100000000000774158001228022     
30001000122803MANUELA ALVES COSTA                    18102010212TNE101032016  11201900000000003190600000000000000001                                154890538879774158001228030     
30001000122804DAVI ALVES VITAGLIANO                  19012015112TNE101032016  11201900000000003190600000000000000001                                154890242830774158001228048     
30001001967400ANGELIANA PINTO MOREIRA                01041991210TNE101092017  11201900000000003190600000000000000001CONSULTORA          88011774    103837722147774158019674001     
30001001925900ANGELICA ARAUJO DE SOUZA               08101988210TNQ201092017  11201900000000004316800000000000000001SUPERVISORA         88011137    132599947855774158019259001     
30001001925901BEATRIZ ARAUJO PEREIRA                 28092018212TNQ210102018  11201900000000004316800000000000000001                                155826183845774158019259019     
30001003642000ANGELICA SANTIAGO                      26051980210TNE112052019  11201900000000003190600000000000000001                    88015264    128798499858774158036420008     
30001000976800ANGESLA DOS SANTOS MESQUITA            04061991210TNE101092016  11201900000000003190600000000000000001CONSULTORA          9768        140484709810774158009768003     
30001002635200ANNI BIANCA DA SILVA OLIVEIRA          27031999210TNE101062018  11201900000000003190600000000000000001                        88013085146925726805774158026352005     
30001001320000ANTONIA CLEIDIMAR DE LIRA              05111969210TNE101012017  11201900000000003190600000000000000001CONSULTORA          13200       107978389880774158013200001     
30001000026400ANTONIA DE SOUSA GOMES FEIJAO          13101960220TNE101032016  11201900000000003190600000000000000001AUXILIAR DE SERVICOS264         169236259715774158000264002     
30001000026401ANTONIO EGBERTO FEIJAO                 07061955121TNE101032016  11201900000000003190600000000000000001                                162906240753774158000264010     
30001000791900ANTONIO ANDRADE DA SILVA               01061978120TNE101062016  11201900000000003190600000000000000001AUXILIAR            7919        100318534550774158007919004     
30001003369300ANTONIO FERREIRA DA SILVA NETO         08121987110TNE101022019  11201900000000003190600000000000000001                        88014615107673289490774158033693003     
30001003369301DAVI BARBOSA FERREIRA                  17062012112TNE101082019  11201900000000003190600000000000000001                                111777364469774158033693011     
30001003369302MARLOS ANTONIO TENORIO SILVA NETO      11032011112TNE101082019  11201900000000003190600000000000000001                                111051107458774158033693029     
30001002556900ANTONIO JOSE REGIS                     20071975120TNE101052018  11201900000000003190600000000000000001                        88012872191405262400774158025569005     
30001002556901MARIA APARECIDA RAMOS DA SILVA         09011971221TNE101052018  11201900000000003190600000000000000001                                163518341472774158025569013     
30001003723000ANTONIO RAFAEL FERREIRA DE CARVALHO    27121990110TNE102082019  11201900000000003190600000000000000001                        88015515112783880792774158037230000     
30001002353100APARECIDA LIBERIO SOUZA                18091989210TNE101022018  11201900000000003190600000000000000001AUXILIAR            88012476    122764408803774158023531007     
30001002353101ALAN SERAFIM DOS REIS                  20111993121TNE119022019  11201900000000003190600000000000000001                                142466027879774158023531015     
30001001280700APARECIDA MARIA BARBOSA CARVALHO       18061985220TNE101012017  11201900000000003190600000000000000001CONSULTORA          12807       101328101312774158012807004     
30001001280701LEONARDO THALLES DE SOUSA RAMOS        26121983121TNE101012017  11201900000000003190600000000000000001                                100410515302774158012807012     
30001002465100ARISTIDE BARBOSA DE LIMA JUNIOR        27031988120TNQ201042018  11201900000000004316800000000000000001                        88012738107457546430774158024651002     
30001002465101ELISSANDRA DOS SANTOS GOMES            26031994221TNQ201042018  11201900000000004316800000000000000001                                110502888407774158024651010     
30001002465102SAMUEL HEITOR DOS SANTOS LIMA          01062013112TNQ201042018  11201900000000004316800000000000000001                                100000000000774158024651028     
30001002465103ARYELLE ESTEPHANE DE FRANCA LIMA       18122007212TNQ212122018  11201900000000004316800000000000000001                                171600607411774158024651036     
30001002465104CHRISTIAN GABRIEL DOS SANTOS LIMA      17032019112TNQ217042019  11201900000000004316800000000000000001                                100000000000774158024651044     
30001003304900ARMANDO DOS SANTOS SILVA               07111988110TNQ201122018  11201900000000004316800000000000000001                        88014372104590013533774158033049008     
30001003375800AUGUSTO RODRIGO BARROS RODRIGUES       13121988110TNE101022019  11201900000000003190600000000000000001                        88014663100629772290774158033758004     
30001003180100AUREA DE OLIVEIRA COSTA LANA           14051984220TNE101122018  11201900000000003190600000000000000001                        88014214106186111695774158031801004     
30001003180101MARIA CECILIA COSTA LANA               24052016212TNE101122018  11201900000000003190600000000000000001                                100000000000774158031801012     
30001003671400BARBARA ALICE RIBEIRO ABREU            10021973220TNE124052019  11201900000000003190600000000000000001                        88014215102973186757774158036714004     
30001001844900BARBARA GONZAGA DOS SANTOS             06061996210TNE101082017  11201900000000003190600000000000000001CONSULTORA          88011581    142723350819774158018449009     
30001001844901PABLO GERALDO MACHADO LEAL             25061992121TNE101062018  11201900000000003190600000000000000001                                115116882705774158018449017     
30001003617000BARBARA HELENA MONDINI ANUNCIACAO      25101991220TNE105042019  11201900000000003190600000000000000001                    88010282    140709654839774158036170009     
30001003617001ALICE MONDINI DA ANUNCIACAO            12032015212TNE105042019  11201900000000003190600000000000000001                                149623650884774158036170017     
30001003617002DAVI LUCCA MONDINI DA ANUNCIACAO       13022018112TNE105042019  11201900000000003190600000000000000001                                154382485835774158036170025     
30001003371500BARBARA TAINA LIMA CORREIRA COSTA      29021992210TNE101022019  11201900000000003190600000000000000001                        88014653109440155493774158033715004     
30001001350100BEATRIZ DE PONTES GOMES                23021993220TNE101022017  11201900000000003190600000000000000001CONSULTORA          88010294    115132678769774158013501002     
30001001350101JULIO IURI DA SILVA CUNHA              10111987121TNE101022017  11201900000000003190600000000000000001                                105901311760774158013501010     
30001000130900BEATRIZ DOS SANTOS NUNES               04041988210TNQ201032016  11201900000000004316800000000000000001CONSULTOR DE VENDAS 1309        102569411302774158001309004     
30001000130901KAIO ROBERTO SANTOS NUNES DA SILVA     19022006112TNQ201032016  11201900000000004316800000000000000001                                161673598307774158001309012     
30001000130902FLAVIO ROGERIO SILVA PENHA             15091988121TNQ201122017  11201900000000004316800000000000000001                                101852109378774158001309020     
30001003798200BEATRIZ L ESTEVES FERREIRA SOUZA       28061989220TNE106092019  11201900000000003190600000000000000001REDE                    88016578111764238788774158037982006     
30001003798201PAULO ROBERTO FERREIRA DE SOUZA        28041988121TNE106092019  11201900000000003190600000000000000001                                112266713736774158037982014     
30001003308100BEATRIZ LIMA DE SOUZA SILVA            04061983220TNE101012019  11201900000000003190600000000000000001                        88014417113993681762774158033081001     
30001003308101DANIEL LIMA DA SILVA                   02082002112TNE101012019  11201900000000003190600000000000000001                                100000000000774158033081019     
30001003308102GABRIELA LIMA DA SILVA                 12032000212TNE101012019  11201900000000003190600000000000000001                                117788350745774158033081027     
30001001725600BEATRIZ RODRIGUES ALVES                13111990210TNE101072017  11201900000000003190600000000000000001CONSULTORA          88011224    104164341505774158017256009     
30001003006600BEATRIZ SOUSA DOS SANTOS               15011994210TNE101102018  11201900000000003190600000000000000001                        88013825102160867284774158030066005     
30001003006601RENAN PHILIPE RODRIGUES PANTOJA        30081995121TNE112042019  11201900000000003190600000000000000001                                192322646253774158030066013     
30001002886000BEATRIZ TERRA DONATO                   30101993210TNE101092018  11201900000000003190600000000000000001                        88013612114455122702774158028860005     
30001002886001ALICE LUSIE TERRA PASSOS               14072014212TNE101092018  11201900000000003190600000000000000001                                118180269701774158028860013     
30001003181000BENEDITO DA COSTA BASTOS NETO          10111987120TNE101122018  11201900000000003190600000000000000001                        88014216102722121301774158031810005     
30001003181001KADJA FERNANDA TINOCO                  18081985221TNE101122018  11201900000000003190600000000000000001                                101160372373774158031810013     
30001003181002KARENN BEATRYZ TINOCO BASTOS           27042012242TNE101122018  11201900000000003190600000000000000001                                162769884301774158031810021     
30001003181003KATHLEEN BYANCA TINOCO BASTOS          14012019212TNE106052019  11201900000000003190600000000000000001                                110276482310774158031810039     
30001003802400BIANCA CORREIA SILVA                   12091994210TNE109092019  11201900000000003190600000000000000001LOJA                    88011355132432746805774158038024006     
30001002083400BIANCA FRANCYELE CARVALHO DA SILVA     29111990210TNE101102017  11201900000000003190600000000000000001CONSULTORA          88011842    103383905101774158020834008     
30001003048100BIANCA GOMES DE OLIVEITA TEIXEIRA      08041977220TNE101102018  11201900000000003190600000000000000001                        88013949166953057149774158030481006     
30001003048101BEATRIZ TEIXEIRA DE OLIVEIRA           01122009212TNE101102018  11201900000000003190600000000000000001                                100000000000774158030481014     
30001003048102JODIR TEIXEIRA DA SILVA JUNIOR         20041976121TNE101102018  11201900000000003190600000000000000001                                163500680178774158030481022     
30001000984900BIANCA PAULA DE FARIA                  15041996210TNE101092016  11201900000000003190600000000000000001CONSULTORA          9849        142487709898774158009849001     
30001000984901RICARDO CARLOS MARIANO                 11111987121TNE104092019  11201900000000003190600000000000000001                                135643123827774158009849019     
30001000193700BIANCA SABRINA DOS SANTOS              13021986210TNE101032016  11201900000000003190600000000000000001CONSULTOR DE VENDAS 1937        191835003249774158001937002     
30001000193701SAMYA GABRIELA DOS SANTOS FERREIRA     22112008212TNE101032016  11201900000000003190600000000000000001                                100000000000774158001937010     
30001000193702DAVI GABRIEL DOS SANTOS FERREIRA       04112015112TNE101032016  11201900000000003190600000000000000001                                100000000000774158001937028     
30001002703000BLIZA LUDMILA ALVES                    01071991210TNE105062018  11201900000000003190600000000000000001                        88012610111762727641774158027030006     
30001002703001EMANUEL ALVES FORNARI SOARES           14062009112TNE101072018  11201900000000003190600000000000000001                                114728634612774158027030014     
30001002703002LUAN MATHEUS DE ABREU                  23061992121TNE101112018  11201900000000003190600000000000000001                                141887481842774158027030022     
30001002995500BRENDA DIAS DAMASCENO                  03041978210TNE101102018  11201900000000003190600000000000000001                        88013781167849407253774158029955002     
30001003757500BRENDA SANTOS DE AQUINO                04011994220TNE121082019  11201900000000003190600000000000000001                        88015784115870949750774158037575008     
30001003757501AYLA SANTOS MAIA                       09062013212TNE121082019  11201900000000003190600000000000000001                                100000000000774158037575016     
30001000709900BRUNA BARBOSA MONTEIRO                 12071984210TNE101052016  11201900000000003190600000000000000001CONSULTORA          7099        105905170665774158007099005     
30001002233000BRUNA CASSIA DA SILVA                  21101990220TNE101012018  11201900000000003190600000000000000001CONSULTORA          88012255    138912438808774158022330005     
30001002233001JOANA SILVA EDUARDO                    15062016212TNE101012018  11201900000000003190600000000000000001                                151414652844774158022330013     
30001002233002VANDERSON LUIZ SILVA EDUARDO           04051989121TNE101012018  11201900000000003190600000000000000001                                140004944810774158022330021     
30001002233003ANTONIA SILVA EDUARDO                  26052019212TNE101062019  11201900000000003190600000000000000001                                157243116825774158022330039     
30001001013800BRUNA GRAZIELI MACARIO DIVINO          22061987210TNE101092016  11201900000000003190600000000000000001CONSULTORA          10138       134437219821774158010138006     
30001001013801FERNANDO HENRIQUE DO NASCIMENTO        29011987121TNE121082019  11201900000000003190600000000000000001                                134000978888774158010138014     
30001000415400BRUNA LUANA DE ALMEIDA VENANCIO        16101992210TNE101032016  11201900000000003190600000000000000001CONSULTOR DE VENDAS 4154        115113644757774158004154001     
30001000415401FREDERICO M GUERREIRO ANDRADE          03021988121TNE101062019  11201900000000003190600000000000000001                                112407277716774158004154019     
30001002000100BRUNA M MIGLIORINI CAMPOS SANTOS       15011985210TNE101092017  11201900000000003190600000000000000001CONSULTORA          88011599    132915259810774158020001004     
30001002000101PIETRA MANUELA MIGLIORINI              16052011212TNE101092017  11201900000000003190600000000000000001                                100000000000774158020001012     
30001002000102PEDRO AUGUSTO MIGLIORINI DE ANDRADE    06082015112TNE101092017  11201900000000003190600000000000000001                                100000000000774158020001020     
30001000477400BRUNA MACIEL DE LIMA                   25031988210TNE101032016  11201900000000003190600000000000000001CONSULTOR DE VENDAS 4774        136084284884774158004774006     
30001003773700BRUNA MORAIS DOS SANTOS                08031987110TNE103092019  11201900000000003190600000000000000001LOJA                    88016434101437649181774158037737004     
30001003773701FELIPE DOS SANTOS RODRIGUES            26102011112TNE103092019  11201900000000003190600000000000000001                                170326163131774158037737012     
30001003643900BRUNA NUNES FERNANDES                  22121991210TNE105052019  11201900000000003190600000000000000001                    88015215    110688503616774158036439008     
30001002941600BRUNA OLIVEIRA DIAS                    30111992210TNE101102018  11201900000000003190600000000000000001                        88013762111822766605774158029416005     
30001002416300BRUNA RODRIGUES DA SILVA LIMA          24081987210TNE101032018  11201900000000003190600000000000000001                    88012205    134662976804774158024163008     
30001002416301ISABELA LIMA DA COSTA                  03032003212TNE109072018  11201900000000003190600000000000000001                                116118287678774158024163016     
30001003008200BRUNA TAINA DOS SANTOS                 09101993210TNE101102018  11201900000000003190600000000000000001                        88013843142422459803774158030082002     
30001002958000BRUNO AUGUSTO GONCALVES                29071989110TNQ201102018  11201900000000004316800000000000000001                        88013844109925687659774158029580008     
30001002836300BRUNO CRANCHI PATRICIO                 11101983120TNQ201082018  11201900000000004316800000000000000001                        88013530132198678802774158028363000     
30001002836301ARTHUR TINTE PATRICIO                  31072013112TNQ201082018  11201900000000004316800000000000000001                                151162518880774158028363018     
30001002836302ELAINE TINTE PATRICIO                  27091980221TNQ201082018  11201900000000004316800000000000000001                                122020358859774158028363026     
30001002836303RAFAELA TINTE PATRICIO                 12102014212TNQ201082018  11201900000000004316800000000000000001                                151162516836774158028363034     
30001003720600BRUNO GERALDO DO NASCIMENTO            18021996110TNE102082019  11201900000000003190600000000000000001                        88015490146031036894774158037206000     
30001003499100BRUNO MAVIN RAPOSO SANTOS              22091996110TNE101032019  11201900000000003190600000000000000001                        88014954106411757526774158034991000     
30001003499100BRUNO MAVIN RAPOSO SANTOS              22091996110TNE101032019CM11201900000000003190600000000000000055                        88014954106411757526774158034991000     
30001003499100BRUNO MAVIN RAPOSO SANTOS              22091996110TNE101032019CR10201900000000003190600000000000000055                        88014954106411757526774158034991000     
30001003499100BRUNO MAVIN RAPOSO SANTOS              22091996110TNE101032019CR09201900000000002446100000000000000055                        88014954106411757526774158034991000     
30001003182800BRUNO NASCIMENTO RODRIGUES             08051985110TNE101122018  11201900000000003190600000000000000001                        88014217134681374865774158031828007     
30001002602600BRUNO PALMESI                          07091986120TNE101052018  11201900000000003190600000000000000001                        88012949133559661854774158026026005     
30001002602601ERIKA GOMES FERREIRA PALMESI           25041993221TNE101052018  11201900000000003190600000000000000001                                139936318897774158026026013     
30001001038300BRUNO ROGERIO MENDES SPIRONELI         14111988120TNE101092016  11201900000000003190600000000000000001CONSULTOR           10383       135969699802774158010383008     
30001001038301ESTHER RODRIGUES SPIRONELI             04042014212TNE101092016  11201900000000003190600000000000000001                                100000000000774158010383016     
30001001038302MARILIA A G RODRIGUES SPIRONELI        21111988221TNE101112016  11201900000000003190600000000000000001                                136250012842774158010383024     
30001000516900CAIO CESAR GOMES DE PAIVA              16101987210TNE101032016  11201900000000003190600000000000000001CONSULTOR DE VENDAS 5169        101410096165774158005169008     
30001000516901JOAO LUKAS GOMES BRITO                 13022015112TNE101032016  11201900000000003190600000000000000001                                100000000000774158005169016     
30001000516902NAOMY EMANUELLY GOMES BRITO            13022015212TNE101032016  11201900000000003190600000000000000001                                100000000000774158005169024     
30001000516903WANESSA FERREIRA BRITO                 03061987221TNE127102016  11201900000000003190600000000000000001                                102671744110774158005169032     
30001002048600CAIO CESAR PEDROSA ALVES               28091986120TNE101102017  11201900000000003190600000000000000001CONSULTOR           88011901    135669328841774158020486007     
30001002048601JANINE TEODORO SILVA                   20071989221TNE101102017  11201900000000003190600000000000000001                                137236140864774158020486015     
30001002048602ARTHUR CESAR LIMA PEDROSA ALVES        02092017112TNE101122017  11201900000000003190600000000000000001                                153435953837774158020486023     
30001003210700CAIQUE SOARES SILVA                    13111998110TNE101122018  11201900000000003190600000000000000001                        88014377147596284876774158032107005     
30001002548800CALIANI DA SILVA RIBEIRO MEDEIROS      09041988220TNQ223042018  11201900000000004316800000000000000001                          116071108942012639774158025488008     
30001002548801NEWTON ANTONIO MEDEIROS JUNIOR         03031985121TNQ223042018  11201900000000004316800000000000000001                                134504328852774158025488016     
30001002792800CALLEB NONATO SILVA                    16041987110TNE118072018  11201900000000003190600000000000000001                        88011775101617492167774158027928001     
30001002792801JULIA MONTEIRO SILVA                   08072017212TNE118072018  11201900000000003190600000000000000001                                108541219194774158027928019     
30001002792802YAN AUGUSTO MONTEIRO SILVA             01122013112TNE118072018  11201900000000003190600000000000000001                                171041937156774158027928027     
30001002729400CAMILA ADRIANA PEREIRA NASCIMENTO      09101989210TNE101072018  11201900000000003190600000000000000001                        88013222139557226862774158027294008     
30001002729401RUAN RIQUELME PEREIRA DA CRUZ          09042012112TNE101072018  11201900000000003190600000000000000001                                150558444857774158027294016     
30001001830900CAMILA ANGELICA CUNHA ALVES            13031989210TNE101082017  11201900000000003190600000000000000001CONSULTORA          88011585    101506545106774158018309005     
30001002052400CAMILA ANTONIETA DE ARAUJO             17091988210TNE101102017  11201900000000003190600000000000000001CONSULTORA          88011826    108453064644774158020524005     
30001002047800CAMILA FREITAS DE SOUZA GONCALVES      17071981210TNE101102017  11201900000000003190600000000000000001CONSULTORA          88011854    122516457804774158020478004     
30001002047801GIOVANNA LARA SILVA FREITAS            25012008212TNE101102017  11201900000000003190600000000000000001                                100000000000774158020478012     
30001002047802MARIA EDUARDA DE FREITAS COSTA         24042019212TNE105062019  11201900000000003190600000000000000001                                157059368850774158020478020     
30001002559300CAMILA GUIMARAES SALVIANO              19111991210TNE101052018  11201900000000003190600000000000000001                        88012878140059524880774158025593005     
30001002559301ELOA SALVIANO FERNANDES                18082011212TNE101052018  11201900000000003190600000000000000001                                100000000000774158025593013     
30001002559302LUCCA SALVIANO FERNANDES               22012019112TNE101022019  11201900000000003190600000000000000001                                156465930854774158025593021     
30001003796600CAMILA PATRICIA SIQUEIRA FONTOURA      03021988210TNE106092019  11201900000000003190600000000000000001LOJA                    88016527101741621119774158037966009     
30001003796601LUIS PHELLYPE FONTOURA SOUZA           10112011112TNE106092019  11201900000000003190600000000000000001                                108310624107774158037966017     
30001003813000CAMILA PEREIRA REIS                    03101989220TNE101102019IR10201900000000003190600000000000000003                        88016798109656718607774158038130001     
30001003813000CAMILA PEREIRA REIS                    03101989220TNE101102019IM11201900000000003190600000000000000003                        88016798109656718607774158038130001     
30001003813001CHARLES ADRIANO DOS SANTOS             16121985121TNE101102019IR10201900000000003190600000000000000003                                108233783650774158038130019     
30001003813001CHARLES ADRIANO DOS SANTOS             16121985121TNE101102019IM11201900000000003190600000000000000003                                108233783650774158038130019     
30001003813002LORENZO CARLOS REIS SANTOS             04102017112TNE101102019IR10201900000000003190600000000000000003                                116584489604774158038130027     
30001003813002LORENZO CARLOS REIS SANTOS             04102017112TNE101102019IM11201900000000003190600000000000000003                                116584489604774158038130027     
30001001129000CAMILA REGIANE DE FREITAS              21061985220TNE101112016  11201900000000003190600000000000000001CONSULTORA          11290       135458055810774158011290004     
30001001129001WASHINGTON RENATO LEAL MENDES          19081983121TNE101112016  11201900000000003190600000000000000001                                135533136843774158011290012     
30001001129002GABRIELLI ALVES DE FREITAS             03102008212TNE101112016  11201900000000003190600000000000000001                                100000000000774158011290020     
30001001129003LUIZ FELIPE ALVES DE FREITAS           05082010112TNE101112016  11201900000000003190600000000000000001                                100000000000774158011290038     
30001001129004FERNANDO H FREITAS LEAL MENDES         17052013112TNE101112016  11201900000000003190600000000000000001                                100000000000774158011290046     
30001000507000CAMILA ROVERSI ORTIZ                   01061988210TNE101032016  11201900000000003190600000000000000001CONSULTOR DE VENDAS 5070        137701538801774158005070008     
30001000507001ARTHUR ORTIZ DE SOUZA                  24032018112TNE123042018  11201900000000003190600000000000000001                                154674370892774158005070016     
30001000507002MIGUEL ORTIZ DE SOUZA                  06052019112TNE114062019  11201900000000003190600000000000000001                                157189903879774158005070024     
30001000507003THIAGO RODRIGUES DIAS DE SOUZA         14061983121TNE107082019  11201900000000003190600000000000000001                                122312718855774158005070032     
30001000099000CAMILLA ARAUJO                         31081989220TNE101032016  11201900000000003190600000000000000001CONSULTOR DE VENDAS 990         107509840406774158000990002     
30001000099001LUIZ G ARAUJO POLICARPO CASTRO         10082011112TNE101032016  11201900000000003190600000000000000001                                100000000000774158000990010     
30001000262300CARINA DA SILVA SIMOES FARIAS          16021984220TNE101032016  11201900000000003190600000000000000001SUPERVISOR DE VENDAS2623        152014762287774158002623007     
30001000262301PAULO ROGERIO FARIAS                   13031974121TNE101032016  11201900000000003190600000000000000001                                143319823272774158002623015     
30001000262302RENATHA RAQUEL SIMOES FARIAS           01052008212TNE101032016  11201900000000003190600000000000000001                                104529777200774158002623023     
30001000262303ROBERTHA VITORIA SIMOES FARIAS         22012010212TNE101032016  11201900000000003190600000000000000001                                104529802248774158002623031     
30001000032900CARLA C GUILHERME SILVA MARQUES        31011986220TNE101032016  11201900000000003190600000000000000001CONSULTOR DE VENDAS 329         106039889462774158000329003     
30001000032901JOSE WELLINGTON MARQUES                16011977121TNE101032016  11201900000000003190600000000000000001                                184163674420774158000329011     
30001000032902LIVIA MARINA GUILHERME MARQUES         21022014212TNE101032016  11201900000000003190600000000000000001                                100000000000774158000329029     
30001000032903LAVINIA ISABELE GUILHERME MARQUES      21022014212TNE101032016  11201900000000003190600000000000000001                                100000000000774158000329037     
30001000873700CARLA CRISTINA FAZOLO                  26101974220TNQ201082016  11201900000000004316800000000000000001SUPERVISORA         8737        105186210730774158008737009     
30001000873701JOAO PEDRO FAZOLO MARLIERE             23071998112TNQ201082016  11201900000000004316800000000000000001                                116899782790774158008737017     
30001000873702PAULO SERGIO DA SILVA LIMA             31101969121TNQ201082016  11201900000000004316800000000000000001                                185990124791774158008737025     
30001002960200CARLA DE BASTOS JOVINE                 06041989210TNE101102018  11201900000000003190600000000000000001                        88013846137082324880774158029602000     
30001002960200CARLA DE BASTOS JOVINE                 06041989210TNE101102018CM11201900000000003190600000000000000055                        88013846137082324880774158029602000     
30001002960200CARLA DE BASTOS JOVINE                 06041989210TNE101102018CR10201900000000003190600000000000000055                        88013846137082324880774158029602000     
30001002960200CARLA DE BASTOS JOVINE                 06041989210TNE101102018CR09201900000000002446100000000000000055                        88013846137082324880774158029602000     
30001003716800CARLA JAQUELINE LEME GABRIEL           31011990210TNQ224072019  112019000000000043168000000000000000019055                    88012309140353703800774158037168002     
30001003716801VALENTINA ANDRADE LEME                 10032016212TNQ224072019  11201900000000004316800000000000000001                                157027249847774158037168010     
30001002188100CARLA PEREIRA MORAIS                   01101983210TNE101122017  11201900000000003190600000000000000001AUXILIAR            88012190    106415103652774158021881008     
30001003370700CARLA R S BEZERRA MOTTA BALEST         06071981220TNE101022019  11201900000000003190600000000000000001                        88014651192023207134774158033707001     
30001003370701ANA CAROLINE BEZERRA BENFICA           08012003212TNE101022019  11201900000000003190600000000000000001                                100000000000774158033707019     
30001002303500CARLA SOARES MACHADO                   31051990210TNE101022018  11201900000000003190600000000000000001CONSULTORA          88012400    139901379806774158023035009     
30001002303501LUCAS G SOARES MACHADO FERNANDES       05052008112TNE101022018  11201900000000003190600000000000000001                                100000000000774158023035017     
30001002303502DAVI CASTRO MACHADO MENEZES            25062016112TNE101022018  11201900000000003190600000000000000001                                151443026883774158023035025     
30001002303503HELENA CASTRO MACHADO MENEZES          28052018212TNE108062018  11201900000000003190600000000000000001                                155145125844774158023035033     
30001003194100CARLOS ALBERTO CARVALHO COSTA          07051989110TNE101122018  11201900000000003190600000000000000001                        88014218102802243381774158031941008     
30001000806000CARLOS ALBERTO DA SILVA                19081967120TNQ201072016  11201900000000004316800000000000000001SUPERVISOR          8060        108157760801774158008060006     
30001000806001JOANA DARC MONTEIRO LIMA               17101962221TNQ201072016  11201900000000004316800000000000000001                                103019096871774158008060014     
30001000806002MILENA C MONTEIRO LIMA SILVA           22091999212TNQ201072016  11201900000000004316800000000000000001                                142121246886774158008060022     
30001000155400CARLOS ARAUJO GUIMARAES                30081984120TNE101032016  11201900000000003190600000000000000001COORDENADOR DE AREA 1554        100836182103774158001554005     
30001000155401DAYANE BATISTA RODRIGUES               06011987221TNE101032016  11201900000000003190600000000000000001                                102169775170774158001554013     
30001000155402CARLOS EDUARDO SILVA GUIMARAES         12042006112TNE101032016  11201900000000003190600000000000000001                                100000000000774158001554021     
30001000155403ANTONELLA RODRIGUES GUIMARAES          27072018212TNE114092018  11201900000000003190600000000000000001                                100000000000774158001554039     
30001000155404EMANUEL RODRIGUES GUIMARAES            27072018112TNE114092018  11201900000000003190600000000000000001                                100000000000774158001554047     
30001003208500CARLOS AUGUSTO GOULART                 20121978120TNE101122018  11201900000000003190600000000000000001                        88014373108233400742774158032085003     
30001003208500CARLOS AUGUSTO GOULART                 20121978120TNE101122018CM11201900000000003190600000000000000055                        88014373108233400742774158032085003     
30001003208500CARLOS AUGUSTO GOULART                 20121978120TNE101122018CR10201900000000003190600000000000000055                        88014373108233400742774158032085003     
30001003208500CARLOS AUGUSTO GOULART                 20121978120TNE101122018CR09201900000000003190600000000000000055                        88014373108233400742774158032085003     
30001003208501FATIMA CRISTINA DE OLIVEIRA MADEIRA    22051980221TNE101122018  11201900000000003190600000000000000001                                105724034700774158032085011     
30001003208501FATIMA CRISTINA DE OLIVEIRA MADEIRA    22051980221TNE101122018CM11201900000000003190600000000000000055                                105724034700774158032085011     
30001003208501FATIMA CRISTINA DE OLIVEIRA MADEIRA    22051980221TNE101122018CR10201900000000003190600000000000000055                                105724034700774158032085011     
30001003208501FATIMA CRISTINA DE OLIVEIRA MADEIRA    22051980221TNE101122018CR09201900000000003190600000000000000055                                105724034700774158032085011     
30001003208502SOPHIA DE OLIVEIRA GOULART             11072015212TNE101122018  11201900000000003190600000000000000001                                100000000000774158032085029     
30001003208502SOPHIA DE OLIVEIRA GOULART             11072015212TNE101122018CM11201900000000003190600000000000000055                                100000000000774158032085029     
30001003208502SOPHIA DE OLIVEIRA GOULART             11072015212TNE101122018CR10201900000000003190600000000000000055                                100000000000774158032085029     
30001003208502SOPHIA DE OLIVEIRA GOULART             11072015212TNE101122018CR09201900000000003190600000000000000055                                100000000000774158032085029     
30001002191100CARLOS EDUARDO DE CARVALHO             04051983110TNE101122017  11201900000000003190600000000000000001AUXILIAR            88012167    135828963821774158021911003     
