1FATURA TECNICA                SOLDI PROMOTORA DE VENDAS LTDA     571632074158878MULTI SAUDE EMPRESA                20201020201030FATURAMENTO    0000002                            
2010500SOLDI PROMOTORA DE VENDAS LTDA     00000000000000000000000000000000000000000000000000000000000000020201030                                                                   
30500001798100CAMILA DUARTE GONCALVES                12121990220TNE101072017AM10202000000000003723800000000000000008CONSULTORA          88011326    139217061816774158017981002     
30500001798100F.MODERADORES  PAGOS EM 10/2020        00000000000    00000000RS10202000000000003779200000000000000010                                139217061816774158017981002     
40500(AC)ACERTO DE FATURA(COBRAR)       000000000000000000000000000000000000000000000000000000                                                                                      
40500(RS)RECUPERACAO SINISTRO           000000000000000000000001000000000037792000000000000000                                                                                      
40500(  )VIDAS REMAN. MES ANTERIOR      000000000000000000000000000000000000000000000000000000                                                                                      
40500(IM)INCLUSOES NO MES               000000000000000000000000000000000000000000000000000000                                                                                      
40500(IR)INCLUSOES RETROATIVAS          000000000000000000000000000000000000000000000000000000                                                                                      
40500(RM)REATIVACOES NO MES             000000000000000000000000000000000000000000000000000000                                                                                      
40500(RR)REATIVACOES RETROATIVAS        000000000000000000000000000000000000000000000000000000                                                                                      
40500(TM)TRANSFERENCIAS NO MES          000000000000000000000000000000000000000000000000000000                                                                                      
40500(TR)TRANSFERENCIAS RETROATIVAS     000000000000000000000000000000000000000000000000000000                                                                                      
40500(AM)ALTERACOES NO MES              000001000000000001000001000000000037238000000000000000                                                                                      
40500(AR)ALTERACOES RETROATIVAS         000000000000000000000000000000000000000000000000000000                                                                                      
40500(RE)COBRANCA DE REMIDO             000000000000000000000000000000000000000000000000000000                                                                                      
40500(TC)TOTAIS A COBRAR                000001000000000001000002000000000075030000000000000000                                                                                      
40500(AD)ACERTO DE FATURA(DEVOLVER)     000000000000000000000000000000000000000000000000000000                                                                                      
40500(CM)CANCELAMENTOS NO MES           000000000000000000000000000000000000000000000000000000                                                                                      
40500(CR)CANCELAMENTOS RETROATIVOS      000000000000000000000000000000000000000000000000000000                                                                                      
40500(TM)TRANSFERENCIAS NO MES          000000000000000000000000000000000000000000000000000000                                                                                      
40500(TR)TRANSFERENCIAS RETROATIVAS     000000000000000000000000000000000000000000000000000000                                                                                      
40500(AM)ALTERACOES NO MES              000000000000000000000000000000000000000000000000000000                                                                                      
40500(AR)ALTERACOES RETROATIVAS         000000000000000000000000000000000000000000000000000000                                                                                      
40500(DM)DEVOLUCAO REMIDO NO MES        000000000000000000000000000000000000000000000000000000                                                                                      
40500(DR)DEVOLUCAO REMIDO RETROAT.      000000000000000000000000000000000000000000000000000000                                                                                      
40500(TD)TOTAIS A DEVOLVER              000000000000000000000000000000000000000000000000000000                                                                                      
40500(TS)TOTAIS DA SUBFATURA            000001000000000001000002000000000075030000000000000000                                                                                      
40500   PLANOS CONTRATADOS:                                                                                                                                                         
40500   PLANO   N.TIT   N.DEP N.VIDAS FATOR REEMB.HM HOSPITAL                 PLANO   N.TIT   N.DEP N.VIDAS FATOR REEMB.HM HOSPITAL                                                 
40500   EE03        0       0                   0,00 REFERENCIADO             NP03        0       0                   0,00 REFERENCIADO                                             
40500   TNE1        1       0                   0,00 REFERENCIADO             TNQ2        0       0                   0,00 REFERENCIADO                                             
2010851SOLDI PROMOTORA DE VENDAS LTDA     00000000000000000000000000000000000000000000000000000000000000020201030                                                                   
30851000941500DANIELLE PASSOS DE ALMEIDA             24011977210TNE101082016AM10202000000000003731000000000000000008CONSULTORA          9415        107603087724774158009415001     
30851000149000ROBERTA DE HOLLANDA CAVALCANTI         17051977210TNQ201032016AM10202000000000005450100000000000000008GERENTE REGIONAL DE 1490        102125433427774158001490002     
30851000149000F.MODERADORES  PAGOS EM 10/2020        00000000000    00000000RS10202000000000000300000000000000000010                                102125433427774158001490002     
30851000149001JOAO RICARDO DE HOLLANDA PARMA         08032010112TNQ201032016AM10202000000000004921100000000000000008                                152191773893774158001490010     
40851(AC)ACERTO DE FATURA(COBRAR)       000000000000000000000000000000000000000000000000000000                                                                                      
40851(RS)RECUPERACAO SINISTRO           000000000000000000000001000000000003000000000000000000                                                                                      
40851(  )VIDAS REMAN. MES ANTERIOR      000000000000000000000000000000000000000000000000000000                                                                                      
40851(IM)INCLUSOES NO MES               000000000000000000000000000000000000000000000000000000                                                                                      
40851(IR)INCLUSOES RETROATIVAS          000000000000000000000000000000000000000000000000000000                                                                                      
40851(RM)REATIVACOES NO MES             000000000000000000000000000000000000000000000000000000                                                                                      
40851(RR)REATIVACOES RETROATIVAS        000000000000000000000000000000000000000000000000000000                                                                                      
40851(TM)TRANSFERENCIAS NO MES          000000000000000000000000000000000000000000000000000000                                                                                      
40851(TR)TRANSFERENCIAS RETROATIVAS     000000000000000000000000000000000000000000000000000000                                                                                      
40851(AM)ALTERACOES NO MES              000002000001000003000003000000000141022000000000000000                                                                                      
40851(AR)ALTERACOES RETROATIVAS         000000000000000000000000000000000000000000000000000000                                                                                      
40851(RE)COBRANCA DE REMIDO             000000000000000000000000000000000000000000000000000000                                                                                      
40851(TC)TOTAIS A COBRAR                000002000001000003000004000000000144022000000000000000                                                                                      
40851(AD)ACERTO DE FATURA(DEVOLVER)     000000000000000000000000000000000000000000000000000000                                                                                      
40851(CM)CANCELAMENTOS NO MES           000000000000000000000000000000000000000000000000000000                                                                                      
40851(CR)CANCELAMENTOS RETROATIVOS      000000000000000000000000000000000000000000000000000000                                                                                      
40851(TM)TRANSFERENCIAS NO MES          000000000000000000000000000000000000000000000000000000                                                                                      
40851(TR)TRANSFERENCIAS RETROATIVAS     000000000000000000000000000000000000000000000000000000                                                                                      
40851(AM)ALTERACOES NO MES              000000000000000000000000000000000000000000000000000000                                                                                      
40851(AR)ALTERACOES RETROATIVAS         000000000000000000000000000000000000000000000000000000                                                                                      
40851(DM)DEVOLUCAO REMIDO NO MES        000000000000000000000000000000000000000000000000000000                                                                                      
40851(DR)DEVOLUCAO REMIDO RETROAT.      000000000000000000000000000000000000000000000000000000                                                                                      
40851(TD)TOTAIS A DEVOLVER              000000000000000000000000000000000000000000000000000000                                                                                      
40851(TS)TOTAIS DA SUBFATURA            000002000001000003000004000000000144022000000000000000                                                                                      
40851   PLANOS CONTRATADOS:                                                                                                                                                         
40851   PLANO   N.TIT   N.DEP N.VIDAS FATOR REEMB.HM HOSPITAL                 PLANO   N.TIT   N.DEP N.VIDAS FATOR REEMB.HM HOSPITAL                                                 
40851   EE03        0       0                   0,00 REFERENCIADO             NP03        0       0                   0,00 REFERENCIADO                                             
40851   TNE1        1       0                   0,00 REFERENCIADO             TNQ2        1       1                   0,00 REFERENCIADO                                             
49999(AC)ACERTO DE FATURA(COBRAR)       000000000000000000000000000000000000000000000000000000                                                                                      
49999(RS)RECUPERACAO SINISTRO           000000000000000000000002000000000040792000000000000000                                                                                      
49999(  )VIDAS REMAN. MES ANTERIOR      000000000000000000000000000000000000000000000000000000                                                                                      
49999(IM)INCLUSOES NO MES               000000000000000000000000000000000000000000000000000000                                                                                      
49999(IR)INCLUSOES RETROATIVAS          000000000000000000000000000000000000000000000000000000                                                                                      
49999(RM)REATIVACOES NO MES             000000000000000000000000000000000000000000000000000000                                                                                      
49999(RR)REATIVACOES RETROATIVAS        000000000000000000000000000000000000000000000000000000                                                                                      
49999(TM)TRANSFERENCIAS NO MES          000000000000000000000000000000000000000000000000000000                                                                                      
49999(TR)TRANSFERENCIAS RETROATIVAS     000000000000000000000000000000000000000000000000000000                                                                                      
49999(AM)ALTERACOES NO MES              000003000001000004000004000000000178260000000000000000                                                                                      
49999(AR)ALTERACOES RETROATIVAS         000000000000000000000000000000000000000000000000000000                                                                                      
49999(RE)COBRANCA DE REMIDO             000000000000000000000000000000000000000000000000000000                                                                                      
49999(TC)TOTAIS A COBRAR                000003000001000004000006000000000219052000000000000000                                                                                      
49999(AD)ACERTO DE FATURA(DEVOLVER)     000000000000000000000000000000000000000000000000000000                                                                                      
49999(CM)CANCELAMENTOS NO MES           000000000000000000000000000000000000000000000000000000                                                                                      
49999(CR)CANCELAMENTOS RETROATIVOS      000000000000000000000000000000000000000000000000000000                                                                                      
49999(TM)TRANSFERENCIAS NO MES          000000000000000000000000000000000000000000000000000000                                                                                      
49999(TR)TRANSFERENCIAS RETROATIVAS     000000000000000000000000000000000000000000000000000000                                                                                      
49999(AM)ALTERACOES NO MES              000000000000000000000000000000000000000000000000000000                                                                                      
49999(AR)ALTERACOES RETROATIVAS         000000000000000000000000000000000000000000000000000000                                                                                      
49999(DM)DEVOLUCAO REMIDO NO MES        000000000000000000000000000000000000000000000000000000                                                                                      
49999(DR)DEVOLUCAO REMIDO RETROAT.      000000000000000000000000000000000000000000000000000000                                                                                      
49999(TD)TOTAIS A DEVOLVER              000000000000000000000000000000000000000000000000000000                                                                                      
49999(TS)TOTAIS DA SUBFATURA            000003000001000004000006000000000219052000000000000000                                                                                      
49999   PLANOS CONTRATADOS:                                                                                                                                                         
49999   PLANO   N.TIT   N.DEP N.VIDAS FATOR REEMB.HM HOSPITAL                 PLANO   N.TIT   N.DEP N.VIDAS FATOR REEMB.HM HOSPITAL                                                 
49999   EE03        0       0                   0,00 REFERENCIADO             NP03        0       0                   0,00 REFERENCIADO                                             
49999   TNE1        2       0                   0,00 REFERENCIADO             TNQ2        1       1                   0,00 REFERENCIADO                                             
5TRAILLER FATURA TECNICA                                                                                                                                                            
