1FATURA TECNICA                SOLDI PROMOTORA DE VENDAS LTDA     571632074158878MULTI SAUDE EMPRESA                20200320200331FATURAMENTO    0000002                            
2010500SOLDI PROMOTORA DE VENDAS LTDA     00000000000000000000000000000000000000000000000000000000000000020200331                                                                   
30500001798100CAMILA DUARTE GONCALVES                12121990220TNE101072017AM03202000000000003266500000000000000008CONSULTORA          88011326    139217061816774158017981002     
30500001798100F.MODERADORES  PAGOS EM 03/2020        00000000000    00000000RS03202000000000000600000000000000000010                                139217061816774158017981002     
40500(AC)ACERTO DE FATURA(COBRAR)       000000000000000000000000000000000000000000000000000000                                                                                      
40500(RS)RECUPERACAO SINISTRO           000000000000000000000001000000000006000000000000000000                                                                                      
40500(  )VIDAS REMAN. MES ANTERIOR      000000000000000000000000000000000000000000000000000000                                                                                      
40500(IM)INCLUSOES NO MES               000000000000000000000000000000000000000000000000000000                                                                                      
40500(IR)INCLUSOES RETROATIVAS          000000000000000000000000000000000000000000000000000000                                                                                      
40500(RM)REATIVACOES NO MES             000000000000000000000000000000000000000000000000000000                                                                                      
40500(RR)REATIVACOES RETROATIVAS        000000000000000000000000000000000000000000000000000000                                                                                      
40500(TM)TRANSFERENCIAS NO MES          000000000000000000000000000000000000000000000000000000                                                                                      
40500(TR)TRANSFERENCIAS RETROATIVAS     000000000000000000000000000000000000000000000000000000                                                                                      
40500(AM)ALTERACOES NO MES              000001000000000001000001000000000032665000000000000000                                                                                      
40500(AR)ALTERACOES RETROATIVAS         000000000000000000000000000000000000000000000000000000                                                                                      
40500(RE)COBRANCA DE REMIDO             000000000000000000000000000000000000000000000000000000                                                                                      
40500(TC)TOTAIS A COBRAR                000001000000000001000002000000000038665000000000000000                                                                                      
40500(AD)ACERTO DE FATURA(DEVOLVER)     000000000000000000000000000000000000000000000000000000                                                                                      
40500(CM)CANCELAMENTOS NO MES           000000000000000000000000000000000000000000000000000000                                                                                      
40500(CR)CANCELAMENTOS RETROATIVOS      000000000000000000000000000000000000000000000000000000                                                                                      
40500(TM)TRANSFERENCIAS NO MES          000000000000000000000000000000000000000000000000000000                                                                                      
40500(TR)TRANSFERENCIAS RETROATIVAS     000000000000000000000000000000000000000000000000000000                                                                                      
40500(AM)ALTERACOES NO MES              000000000000000000000000000000000000000000000000000000                                                                                      
40500(AR)ALTERACOES RETROATIVAS         000000000000000000000000000000000000000000000000000000                                                                                      
40500(DM)DEVOLUCAO REMIDO NO MES        000000000000000000000000000000000000000000000000000000                                                                                      
40500(DR)DEVOLUCAO REMIDO RETROAT.      000000000000000000000000000000000000000000000000000000                                                                                      
40500(TD)TOTAIS A DEVOLVER              000000000000000000000000000000000000000000000000000000                                                                                      
40500(TS)TOTAIS DA SUBFATURA            000001000000000001000002000000000038665000000000000000                                                                                      
40500   PLANOS CONTRATADOS:                                                                                                                                                         
40500   PLANO   N.TIT   N.DEP N.VIDAS FATOR REEMB.HM HOSPITAL                 PLANO   N.TIT   N.DEP N.VIDAS FATOR REEMB.HM HOSPITAL                                                 
40500   EE03        0       0                   0,00 REFERENCIADO             NP03        0       0                   0,00 REFERENCIADO                                             
40500   TNE1        1       0                   0,00 REFERENCIADO             TNQ2        0       0                   0,00 REFERENCIADO                                             
2010851SOLDI PROMOTORA DE VENDAS LTDA     00000000000000000000000000000000000000000000000000000000000000020200331                                                                   
30851000941500DANIELLE PASSOS DE ALMEIDA             24011977210TNE101082016AM03202000000000003270700000000000000008CONSULTORA          9415        107603087724774158009415001     
30851001228900FRANCIELE APARECIDA BUENO BANDEIRA     11101991210TNE101122016AM03202000000000003342400000000000000008CONSULTORA          12289       140049713817774158012289005     
30851001228901LARA BUENO DO NASCIMENTO               04022019212TNE121032019AM03202000000000003190600000000000000008                                156573933842774158012289013     
30851001228901F.MODERADORES  PAGOS EM 03/2020        00000000000    00000000RS03202000000000000300000000000000000010                                156573933842774158012289013     
30851000831100GIRLENE SILVA DOS SANTOS               24121987220TNE101072016AM03202000000000003351200000000000000008CONSULTORA          8311        135098664870774158008311003     
30851000831102ITAMIR DE SOUZA REIS                   15091983121TNE101112016AM03202000000000003190600000000000000008                                132988608830774158008311029     
30851000831102F.MODERADORES  PAGOS EM 03/2020        00000000000    00000000RS03202000000000000300000000000000000010                                132988608830774158008311029     
30851000012400JULIANI CARDOSO ROGATI                 19041990220TNE101032016AM03202000000000003342400000000000000008ASSISTENTE COMERCIAL124         139587982843774158000124008     
30851000012401LEONARDO DE SOUSA ROGATI               02011991121TNE101072018AM03202000000000003190600000000000000008                                137471455829774158000124016     
30851001018900MONICA REIS PETROV                     11091974210TNQ201092016AM03202000000000004522200000000000000008SUPERVISORA         10189       111836299826774158010189009     
30851001018900F.MODERADORES  PAGOS EM 03/2020        00000000000    00000000RS03202000000000000600000000000000000010                                111836299826774158010189009     
30851001018901PAULO EDUARDO PRETROV                  18111973121TNQ201032017AM03202000000000004316800000000000000008                                118514536877774158010189017     
30851002028100MYSLENI PEREIRA BERNARDES              03041983210TNE101102017AM03202000000000003342400000000000000008CONSULTOR           88011832    131663956871774158020281002     
30851002028101GUILHERME PEREIRA BERNARDES ROCHA      25032009112TNE101102017AM03202000000000003190600000000000000008                                143373578825774158020281010     
30851000098100RAQUEL GOMES LELIS                     02081987210TNE101032016AM03202000000000003266500000000000000008SUPERVISOR DE VENDAS981         101620243636774158000981001     
30851000318200SHAIRA LIMA FERREIRA                   14071985210TNE101032016AM03202000000000003266500000000000000008CONSULTOR DE VENDAS 3182        106957191656774158003182003     
30851000318200F.MODERADORES  PAGOS EM 03/2020        00000000000    00000000RS03202000000000000570000000000000000010                                106957191656774158003182003     
40851(AC)ACERTO DE FATURA(COBRAR)       000000000000000000000000000000000000000000000000000000                                                                                      
40851(RS)RECUPERACAO SINISTRO           000000000000000000000004000000000017700000000000000000                                                                                      
40851(  )VIDAS REMAN. MES ANTERIOR      000000000000000000000000000000000000000000000000000000                                                                                      
40851(IM)INCLUSOES NO MES               000000000000000000000000000000000000000000000000000000                                                                                      
40851(IR)INCLUSOES RETROATIVAS          000000000000000000000000000000000000000000000000000000                                                                                      
40851(RM)REATIVACOES NO MES             000000000000000000000000000000000000000000000000000000                                                                                      
40851(RR)REATIVACOES RETROATIVAS        000000000000000000000000000000000000000000000000000000                                                                                      
40851(TM)TRANSFERENCIAS NO MES          000000000000000000000000000000000000000000000000000000                                                                                      
40851(TR)TRANSFERENCIAS RETROATIVAS     000000000000000000000000000000000000000000000000000000                                                                                      
40851(AM)ALTERACOES NO MES              000008000005000013000013000000000447835000000000000000                                                                                      
40851(AR)ALTERACOES RETROATIVAS         000000000000000000000000000000000000000000000000000000                                                                                      
40851(RE)COBRANCA DE REMIDO             000000000000000000000000000000000000000000000000000000                                                                                      
40851(TC)TOTAIS A COBRAR                000008000005000013000017000000000465535000000000000000                                                                                      
40851(AD)ACERTO DE FATURA(DEVOLVER)     000000000000000000000000000000000000000000000000000000                                                                                      
40851(CM)CANCELAMENTOS NO MES           000000000000000000000000000000000000000000000000000000                                                                                      
40851(CR)CANCELAMENTOS RETROATIVOS      000000000000000000000000000000000000000000000000000000                                                                                      
40851(TM)TRANSFERENCIAS NO MES          000000000000000000000000000000000000000000000000000000                                                                                      
40851(TR)TRANSFERENCIAS RETROATIVAS     000000000000000000000000000000000000000000000000000000                                                                                      
40851(AM)ALTERACOES NO MES              000000000000000000000000000000000000000000000000000000                                                                                      
40851(AR)ALTERACOES RETROATIVAS         000000000000000000000000000000000000000000000000000000                                                                                      
40851(DM)DEVOLUCAO REMIDO NO MES        000000000000000000000000000000000000000000000000000000                                                                                      
40851(DR)DEVOLUCAO REMIDO RETROAT.      000000000000000000000000000000000000000000000000000000                                                                                      
40851(TD)TOTAIS A DEVOLVER              000000000000000000000000000000000000000000000000000000                                                                                      
40851(TS)TOTAIS DA SUBFATURA            000008000005000013000017000000000465535000000000000000                                                                                      
40851   PLANOS CONTRATADOS:                                                                                                                                                         
40851   PLANO   N.TIT   N.DEP N.VIDAS FATOR REEMB.HM HOSPITAL                 PLANO   N.TIT   N.DEP N.VIDAS FATOR REEMB.HM HOSPITAL                                                 
40851   EE03        0       0                   0,00 REFERENCIADO             NP03        0       0                   0,00 REFERENCIADO                                             
40851   TNE1        7       4                   0,00 REFERENCIADO             TNQ2        1       1                   0,00 REFERENCIADO                                             
49999(AC)ACERTO DE FATURA(COBRAR)       000000000000000000000000000000000000000000000000000000                                                                                      
49999(RS)RECUPERACAO SINISTRO           000000000000000000000005000000000023700000000000000000                                                                                      
49999(  )VIDAS REMAN. MES ANTERIOR      000000000000000000000000000000000000000000000000000000                                                                                      
49999(IM)INCLUSOES NO MES               000000000000000000000000000000000000000000000000000000                                                                                      
49999(IR)INCLUSOES RETROATIVAS          000000000000000000000000000000000000000000000000000000                                                                                      
49999(RM)REATIVACOES NO MES             000000000000000000000000000000000000000000000000000000                                                                                      
49999(RR)REATIVACOES RETROATIVAS        000000000000000000000000000000000000000000000000000000                                                                                      
49999(TM)TRANSFERENCIAS NO MES          000000000000000000000000000000000000000000000000000000                                                                                      
49999(TR)TRANSFERENCIAS RETROATIVAS     000000000000000000000000000000000000000000000000000000                                                                                      
49999(AM)ALTERACOES NO MES              000009000005000014000014000000000480500000000000000000                                                                                      
49999(AR)ALTERACOES RETROATIVAS         000000000000000000000000000000000000000000000000000000                                                                                      
49999(RE)COBRANCA DE REMIDO             000000000000000000000000000000000000000000000000000000                                                                                      
49999(TC)TOTAIS A COBRAR                000009000005000014000019000000000504200000000000000000                                                                                      
49999(AD)ACERTO DE FATURA(DEVOLVER)     000000000000000000000000000000000000000000000000000000                                                                                      
49999(CM)CANCELAMENTOS NO MES           000000000000000000000000000000000000000000000000000000                                                                                      
49999(CR)CANCELAMENTOS RETROATIVOS      000000000000000000000000000000000000000000000000000000                                                                                      
49999(TM)TRANSFERENCIAS NO MES          000000000000000000000000000000000000000000000000000000                                                                                      
49999(TR)TRANSFERENCIAS RETROATIVAS     000000000000000000000000000000000000000000000000000000                                                                                      
49999(AM)ALTERACOES NO MES              000000000000000000000000000000000000000000000000000000                                                                                      
49999(AR)ALTERACOES RETROATIVAS         000000000000000000000000000000000000000000000000000000                                                                                      
49999(DM)DEVOLUCAO REMIDO NO MES        000000000000000000000000000000000000000000000000000000                                                                                      
49999(DR)DEVOLUCAO REMIDO RETROAT.      000000000000000000000000000000000000000000000000000000                                                                                      
49999(TD)TOTAIS A DEVOLVER              000000000000000000000000000000000000000000000000000000                                                                                      
49999(TS)TOTAIS DA SUBFATURA            000009000005000014000019000000000504200000000000000000                                                                                      
49999   PLANOS CONTRATADOS:                                                                                                                                                         
49999   PLANO   N.TIT   N.DEP N.VIDAS FATOR REEMB.HM HOSPITAL                 PLANO   N.TIT   N.DEP N.VIDAS FATOR REEMB.HM HOSPITAL                                                 
49999   EE03        0       0                   0,00 REFERENCIADO             NP03        0       0                   0,00 REFERENCIADO                                             
49999   TNE1        8       4                   0,00 REFERENCIADO             TNQ2        1       1                   0,00 REFERENCIADO                                             
5TRAILLER FATURA TECNICA                                                                                                                                                            
