HSINISTROS PAGOS074158210421043001000000001000000000000000000000000000000000000000000000000000000000000000000000000000000000000000000000000000000000000000000000000000000000000000000000000000000000000000000000000000000000000000000000000000000000000000000000000000000000000000000000000000000000000000000000000000000000000000000000000000000000000000000000000000000000000000000000000000000000000 012021042021043000000000000000000000000000000000000000000000000000000000000000000000000000000000000000000000
M001SOLDI PROMOTORA DE VENDAS LTDA     0100000190000110157PALOMA TATO RAMOS                  00PALOMA TATO RAMOS                  SEMIU                              10703676893101010390121040800000000003415160000074158000027091100000000000000000000000000000000000000000000000000000000000000000000000000000000000000000000000000000000000000000091032820000000000001000019          000034165969000134J0000000000000000000000000000CONSULTOR DE VENDAS 20110503TNE100000000202104082021012919910328N0000000000
M001SOLDI PROMOTORA DE VENDAS LTDA     0100000190000110157PALOMA TATO RAMOS                  00PALOMA TATO RAMOS                  SEMIU                              50703676893401010100121040800000000000719160000074158000027091100000000000000000000000000000000000000000000000000000000000000000000000000000000000000000000000000000000000000000091032820000000000000210819          000034165969000134J0000000000000000000000000000CONSULTOR DE VENDAS 20110503TNE100000000202104082021012919910328N0000000000
M001SOLDI PROMOTORA DE VENDAS LTDA     0100000190000110157PALOMA TATO RAMOS                  00PALOMA TATO RAMOS                  SEMIU                              20703676893340199950121040800000000001286000000074158000027091100000000000000000000000000000000000000000000000000000000000000000000000000000000000000000000000000000000000000000091032820000000000000376819          000034165969000134J0000000000000000000000000000CONSULTOR DE VENDAS 20110503TNE100000000202104082021012919910328N0000000000
M001SOLDI PROMOTORA DE VENDAS LTDA     0100000190000110157PALOMA TATO RAMOS                  00PALOMA TATO RAMOS                  VANTUIR MARTINS VAZ                10020802588101010120021040800000000003552160000074158071802020000000000000000000000000000000000000000000000000000000000000000000000000000000000000000000000000000000000000000000091032820180000000001040019          000000014784149368F0000000000000000000000000000CONSULTOR DE VENDAS 20110503TNE100000000202104082021031219910328N0000000000
M001SOLDI PROMOTORA DE VENDAS LTDA     0100000190000110157PALOMA TATO RAMOS                  00PALOMA TATO RAMOS                  PALOMA TATO RAMOS                  4   FMUTLM5402020380021041400000000011065160000074158000000000000000000000000000000000000000000000000000000000000000000000000000000000000000000000000000000000000000000000000000091032820990000000003240019          000000000000000000 0000000000000000000000000000CONSULTOR DE VENDAS 20110503TNE100000000202104142021030319910328N0000065000
M001SOLDI PROMOTORA DE VENDAS LTDA     0100000190000110157PALOMA TATO RAMOS                  00PALOMA TATO RAMOS                  SEMIU                              20704516157340199920121041900000000000079000000074158000027091101000000000000000000000000000000000000000000000000000000000000000000000000000000000000000000000000000000000000000091032820000000000000023319          000034165969000134J0000000000000000000000000000CONSULTOR DE VENDAS 20110503TNE100000000202104192021030419910328N0000000000
M001SOLDI PROMOTORA DE VENDAS LTDA     0100000190000110157PALOMA TATO RAMOS                  00PALOMA TATO RAMOS                  MARCIO MAGNO GADELHA MACIEL        10020960911101010120021041900000000003552160000074158041405280000000000000000000000000000000000000000000000000000000000000000000000000000000000000000000000000000000000000000000091032820140000000001040019          000000054419999772F0000000000000000000000000000CONSULTOR DE VENDAS 20110503TNE100000000202104192021032419910328N0000000000
M001SOLDI PROMOTORA DE VENDAS LTDA     0100000190000110157PALOMA TATO RAMOS                  00PALOMA TATO RAMOS                  SEMIU                              20704516157340199950121041900000000000940000000074158000027091101000000000000000000000000000000000000000000000000000000000000000000000000000000000000000000000000000000000000000091032820000000000000275519          000034165969000134J0000000000000000000000000000CONSULTOR DE VENDAS 20110503TNE100000000202104192021030419910328N0000000000
M001SOLDI PROMOTORA DE VENDAS LTDA     0100000190000110157PALOMA TATO RAMOS                  00PALOMA TATO RAMOS                  SEMIU                              10704516157101010390121041900000000003415160000074158000027091101000000000000000000000000000000000000000000000000000000000000000000000000000000000000000000000000000000000000000091032820000000000001000019          000034165969000134J0000000000000000000000000000CONSULTOR DE VENDAS 20110503TNE100000000202104192021030419910328N0000000000
M001SOLDI PROMOTORA DE VENDAS LTDA     0100000190000110157PALOMA TATO RAMOS                  00PALOMA TATO RAMOS                  LAFE LABORATORIO DE ANALISES CLINIC50703772478403028300121042000000000000906160000074158000086057300000000000000000000000000000000000000000000000000000000000000000000000000000000000000000000000000000000000000000091032820000000000000265519          000019571321000174J0000000000000000000000000000CONSULTOR DE VENDAS 20110503TNE100000000202104202021022519910328N0000000000
M001SOLDI PROMOTORA DE VENDAS LTDA     0100000190000110157PALOMA TATO RAMOS                  00PALOMA TATO RAMOS                  LAFE LABORATORIO DE ANALISES CLINIC50703772479403015590121042000000000000129160000074158000086057300000000000000000000000000000000000000000000000000000000000000000000000000000000000000000000000000000000000000000091032820000000000000037919          000019571321000174J0000000000000000000000000000CONSULTOR DE VENDAS 20110503TNE100000000202104202021022519910328N0000000000
M001SOLDI PROMOTORA DE VENDAS LTDA     0100000190000110157PALOMA TATO RAMOS                  00PALOMA TATO RAMOS                  LAFE LABORATORIO DE ANALISES CLINIC50703772479403020400121042000000000000129160000074158000086057300000000000000000000000000000000000000000000000000000000000000000000000000000000000000000000000000000000000000000091032820000000000000037919          000019571321000174J0000000000000000000000000000CONSULTOR DE VENDAS 20110503TNE100000000202104202021022519910328N0000000000
M001SOLDI PROMOTORA DE VENDAS LTDA     0100000190000110157PALOMA TATO RAMOS                  00PALOMA TATO RAMOS                  LAFE LABORATORIO DE ANALISES CLINIC50703772478403010870121042000000000000553160000074158000086057300000000000000000000000000000000000000000000000000000000000000000000000000000000000000000000000000000000000000000091032820000000000000162219          000019571321000174J0000000000000000000000000000CONSULTOR DE VENDAS 20110503TNE100000000202104202021022519910328N0000000000
M001SOLDI PROMOTORA DE VENDAS LTDA     0100000190000110157PALOMA TATO RAMOS                  00PALOMA TATO RAMOS                  LAFE LABORATORIO DE ANALISES CLINIC50703772478403012810121042000000000000129160000074158000086057300000000000000000000000000000000000000000000000000000000000000000000000000000000000000000000000000000000000000000091032820000000000000037919          000019571321000174J0000000000000000000000000000CONSULTOR DE VENDAS 20110503TNE100000000202104202021022519910328N0000000000
M001SOLDI PROMOTORA DE VENDAS LTDA     0100000190000110157PALOMA TATO RAMOS                  00PALOMA TATO RAMOS                  LAFE LABORATORIO DE ANALISES CLINIC50703772478403018420121042000000000000166160000074158000086057300000000000000000000000000000000000000000000000000000000000000000000000000000000000000000000000000000000000000000091032820000000000000048719          000019571321000174J0000000000000000000000000000CONSULTOR DE VENDAS 20110503TNE100000000202104202021022519910328N0000000000
M001SOLDI PROMOTORA DE VENDAS LTDA     0100000190000110157PALOMA TATO RAMOS                  00PALOMA TATO RAMOS                  LAFE LABORATORIO DE ANALISES CLINIC50703772478403021990121042000000000000137160000074158000086057300000000000000000000000000000000000000000000000000000000000000000000000000000000000000000000000000000000000000000091032820000000000000040319          000019571321000174J0000000000000000000000000000CONSULTOR DE VENDAS 20110503TNE100000000202104202021022519910328N0000000000
M001SOLDI PROMOTORA DE VENDAS LTDA     0100000190000110157PALOMA TATO RAMOS                  00PALOMA TATO RAMOS                  LAFE LABORATORIO DE ANALISES CLINIC50703772478403025200121042000000000000369160000074158000086057300000000000000000000000000000000000000000000000000000000000000000000000000000000000000000000000000000000000000000091032820000000000000108319          000019571321000174J0000000000000000000000000000CONSULTOR DE VENDAS 20110503TNE100000000202104202021022519910328N0000000000
M001SOLDI PROMOTORA DE VENDAS LTDA     0100000190000110157PALOMA TATO RAMOS                  00PALOMA TATO RAMOS                  LAFE LABORATORIO DE ANALISES CLINIC50703772479403020750121042000000000000415160000074158000086057300000000000000000000000000000000000000000000000000000000000000000000000000000000000000000000000000000000000000000091032820000000000000121719          000019571321000174J0000000000000000000000000000CONSULTOR DE VENDAS 20110503TNE100000000202104202021022519910328N0000000000
M001SOLDI PROMOTORA DE VENDAS LTDA     0100000190000110157PALOMA TATO RAMOS                  00PALOMA TATO RAMOS                  LAFE LABORATORIO DE ANALISES CLINIC50703772479403023180121042000000000000129160000074158000086057300000000000000000000000000000000000000000000000000000000000000000000000000000000000000000000000000000000000000000091032820000000000000037919          000019571321000174J0000000000000000000000000000CONSULTOR DE VENDAS 20110503TNE100000000202104202021022519910328N0000000000
M001SOLDI PROMOTORA DE VENDAS LTDA     0100000190000110157PALOMA TATO RAMOS                  00PALOMA TATO RAMOS                  LAFE LABORATORIO DE ANALISES CLINIC50703772478403043700121042000000000000092160000074158000086057300000000000000000000000000000000000000000000000000000000000000000000000000000000000000000000000000000000000000000091032820000000000000027019          000019571321000174J0000000000000000000000000000CONSULTOR DE VENDAS 20110503TNE100000000202104202021022519910328N0000000000
M001SOLDI PROMOTORA DE VENDAS LTDA     0100000190000110157PALOMA TATO RAMOS                  00PALOMA TATO RAMOS                  LAFE LABORATORIO DE ANALISES CLINIC50703772481403026950121042000000000000369160000074158000086057300000000000000000000000000000000000000000000000000000000000000000000000000000000000000000000000000000000000000000091032820000000000000108319          000019571321000174J0000000000000000000000000000CONSULTOR DE VENDAS 20110503TNE100000000202104202021022519910328N0000000000
M001SOLDI PROMOTORA DE VENDAS LTDA     0100000190000110157PALOMA TATO RAMOS                  00PALOMA TATO RAMOS                  LAFE LABORATORIO DE ANALISES CLINIC50703772478403162700121042000000000001155160000074158000086057300000000000000000000000000000000000000000000000000000000000000000000000000000000000000000000000000000000000000000091032820000000000000338419          000019571321000174J0000000000000000000000000000CONSULTOR DE VENDAS 20110503TNE100000000202104202021022519910328N0000000000
M001SOLDI PROMOTORA DE VENDAS LTDA     0100000190000110157PALOMA TATO RAMOS                  00PALOMA TATO RAMOS                  LAFE LABORATORIO DE ANALISES CLINIC50703772478403165720121042000000000000785160000074158000086057300000000000000000000000000000000000000000000000000000000000000000000000000000000000000000000000000000000000000000091032820000000000000229919          000019571321000174J0000000000000000000000000000CONSULTOR DE VENDAS 20110503TNE100000000202104202021022519910328N0000000000
M001SOLDI PROMOTORA DE VENDAS LTDA     0100000190000110157PALOMA TATO RAMOS                  00PALOMA TATO RAMOS                  LAFE LABORATORIO DE ANALISES CLINIC50703772479403024230121042000000000000129160000074158000086057300000000000000000000000000000000000000000000000000000000000000000000000000000000000000000000000000000000000000000091032820000000000000037919          000019571321000174J0000000000000000000000000000CONSULTOR DE VENDAS 20110503TNE100000000202104202021022519910328N0000000000
M001SOLDI PROMOTORA DE VENDAS LTDA     0100000190000110157PALOMA TATO RAMOS                  00PALOMA TATO RAMOS                  LAFE LABORATORIO DE ANALISES CLINIC50703772477403083910121042000000000000619160000074158000086057300000000000000000000000000000000000000000000000000000000000000000000000000000000000000000000000000000000000000000091032820000000000000181419          000019571321000174J0000000000000000000000000000CONSULTOR DE VENDAS 20110503TNE100000000202104202021022519910328N0000000000
M001SOLDI PROMOTORA DE VENDAS LTDA     0100000190000110157PALOMA TATO RAMOS                  00PALOMA TATO RAMOS                  LAFE LABORATORIO DE ANALISES CLINIC50703772479403025800121042000000000000129160000074158000086057300000000000000000000000000000000000000000000000000000000000000000000000000000000000000000000000000000000000000000091032820000000000000037919          000019571321000174J0000000000000000000000000000CONSULTOR DE VENDAS 20110503TNE100000000202104202021022519910328N0000000000
M001SOLDI PROMOTORA DE VENDAS LTDA     0100000190000110157PALOMA TATO RAMOS                  00PALOMA TATO RAMOS                  LAFE LABORATORIO DE ANALISES CLINIC50703772479403043610121042000000000000277160000074158000086057300000000000000000000000000000000000000000000000000000000000000000000000000000000000000000000000000000000000000000091032820000000000000081219          000019571321000174J0000000000000000000000000000CONSULTOR DE VENDAS 20110503TNE100000000202104202021022519910328N0000000000
M001SOLDI PROMOTORA DE VENDAS LTDA     0100000190000110157PALOMA TATO RAMOS                  00PALOMA TATO RAMOS                  LAFE LABORATORIO DE ANALISES CLINIC50703772479403049220121042000000000000322160000074158000086057300000000000000000000000000000000000000000000000000000000000000000000000000000000000000000000000000000000000000000091032820000000000000094519          000019571321000174J0000000000000000000000000000CONSULTOR DE VENDAS 20110503TNE100000000202104202021022519910328N0000000000
M001SOLDI PROMOTORA DE VENDAS LTDA     0100000190000110157PALOMA TATO RAMOS                  00PALOMA TATO RAMOS                  LAFE LABORATORIO DE ANALISES CLINIC50703772479403163600121042000000000000508160000074158000086057300000000000000000000000000000000000000000000000000000000000000000000000000000000000000000000000000000000000000000091032820000000000000148919          000019571321000174J0000000000000000000000000000CONSULTOR DE VENDAS 20110503TNE100000000202104202021022519910328N0000000000
M001SOLDI PROMOTORA DE VENDAS LTDA     0100000190000110157PALOMA TATO RAMOS                  00PALOMA TATO RAMOS                  LAFE LABORATORIO DE ANALISES CLINIC50703772480403011500121042000000000000129160000074158000086057300000000000000000000000000000000000000000000000000000000000000000000000000000000000000000000000000000000000000000091032820000000000000037919          000019571321000174J0000000000000000000000000000CONSULTOR DE VENDAS 20110503TNE100000000202104202021022519910328N0000000000
M001SOLDI PROMOTORA DE VENDAS LTDA     0100000190000110157PALOMA TATO RAMOS                  00PALOMA TATO RAMOS                  LAFE LABORATORIO DE ANALISES CLINIC50703772480403014190121042000000000000184160000074158000086057300000000000000000000000000000000000000000000000000000000000000000000000000000000000000000000000000000000000000000091032820000000000000054019          000019571321000174J0000000000000000000000000000CONSULTOR DE VENDAS 20110503TNE100000000202104202021022519910328N0000000000
M001SOLDI PROMOTORA DE VENDAS LTDA     0100000190000110157PALOMA TATO RAMOS                  00PALOMA TATO RAMOS                  LAFE LABORATORIO DE ANALISES CLINIC50703772480403018850121042000000000000166160000074158000086057300000000000000000000000000000000000000000000000000000000000000000000000000000000000000000000000000000000000000000091032820000000000000048719          000019571321000174J0000000000000000000000000000CONSULTOR DE VENDAS 20110503TNE100000000202104202021022519910328N0000000000
M001SOLDI PROMOTORA DE VENDAS LTDA     0100000190000110157PALOMA TATO RAMOS                  00PALOMA TATO RAMOS                  LAFE LABORATORIO DE ANALISES CLINIC50703772480403019900121042000000000000184160000074158000086057300000000000000000000000000000000000000000000000000000000000000000000000000000000000000000000000000000000000000000091032820000000000000054019          000019571321000174J0000000000000000000000000000CONSULTOR DE VENDAS 20110503TNE100000000202104202021022519910328N0000000000
M001SOLDI PROMOTORA DE VENDAS LTDA     0100000190000110157PALOMA TATO RAMOS                  00PALOMA TATO RAMOS                  LAFE LABORATORIO DE ANALISES CLINIC50703772480403023850121042000000000000138160000074158000086057300000000000000000000000000000000000000000000000000000000000000000000000000000000000000000000000000000000000000000091032820000000000000040619          000019571321000174J0000000000000000000000000000CONSULTOR DE VENDAS 20110503TNE100000000202104202021022519910328N0000000000
M001SOLDI PROMOTORA DE VENDAS LTDA     0100000190000110157PALOMA TATO RAMOS                  00PALOMA TATO RAMOS                  LAFE LABORATORIO DE ANALISES CLINIC50703772480403064370121042000000000000739160000074158000086057300000000000000000000000000000000000000000000000000000000000000000000000000000000000000000000000000000000000000000091032820000000000000216619          000019571321000174J0000000000000000000000000000CONSULTOR DE VENDAS 20110503TNE100000000202104202021022519910328N0000000000
M001SOLDI PROMOTORA DE VENDAS LTDA     0100000190000110157PALOMA TATO RAMOS                  00PALOMA TATO RAMOS                  LAFE LABORATORIO DE ANALISES CLINIC50703772480403161060121042000000000000970160000074158000086057300000000000000000000000000000000000000000000000000000000000000000000000000000000000000000000000000000000000000000091032820000000000000284119          000019571321000174J0000000000000000000000000000CONSULTOR DE VENDAS 20110503TNE100000000202104202021022519910328N0000000000
M001SOLDI PROMOTORA DE VENDAS LTDA     0100000190000110157PALOMA TATO RAMOS                  00PALOMA TATO RAMOS                  LAFE LABORATORIO DE ANALISES CLINIC50703772480403164910121042000000000000785160000074158000086057300000000000000000000000000000000000000000000000000000000000000000000000000000000000000000000000000000000000000000091032820000000000000229919          000019571321000174J0000000000000000000000000000CONSULTOR DE VENDAS 20110503TNE100000000202104202021022519910328N0000000000
M001SOLDI PROMOTORA DE VENDAS LTDA     0100000190000110157PALOMA TATO RAMOS                  00PALOMA TATO RAMOS                  LAFE LABORATORIO DE ANALISES CLINIC50703772480403165210121042000000000000785160000074158000086057300000000000000000000000000000000000000000000000000000000000000000000000000000000000000000000000000000000000000000091032820000000000000229919          000019571321000174J0000000000000000000000000000CONSULTOR DE VENDAS 20110503TNE100000000202104202021022519910328N0000000000
M001SOLDI PROMOTORA DE VENDAS LTDA     0100000190000110157PALOMA TATO RAMOS                  00PALOMA TATO RAMOS                  LAFE LABORATORIO DE ANALISES CLINIC50703772481403013970121042000000000000138160000074158000086057300000000000000000000000000000000000000000000000000000000000000000000000000000000000000000000000000000000000000000091032820000000000000040619          000019571321000174J0000000000000000000000000000CONSULTOR DE VENDAS 20110503TNE100000000202104202021022519910328N0000000000
M001SOLDI PROMOTORA DE VENDAS LTDA     0100000190000110157PALOMA TATO RAMOS                  00PALOMA TATO RAMOS                  LAFE LABORATORIO DE ANALISES CLINIC50703772481403015830121042000000000000231160000074158000086057300000000000000000000000000000000000000000000000000000000000000000000000000000000000000000000000000000000000000000091032820000000000000067719          000019571321000174J0000000000000000000000000000CONSULTOR DE VENDAS 20110503TNE100000000202104202021022519910328N0000000000
M001SOLDI PROMOTORA DE VENDAS LTDA     0100000190000110157PALOMA TATO RAMOS                  00PALOMA TATO RAMOS                  LAFE LABORATORIO DE ANALISES CLINIC50703772481403015910121042000000000000277160000074158000086057300000000000000000000000000000000000000000000000000000000000000000000000000000000000000000000000000000000000000000091032820000000000000081219          000019571321000174J0000000000000000000000000000CONSULTOR DE VENDAS 20110503TNE100000000202104202021022519910328N0000000000
M001SOLDI PROMOTORA DE VENDAS LTDA     0100000190000110157PALOMA TATO RAMOS                  00PALOMA TATO RAMOS                  LAFE LABORATORIO DE ANALISES CLINIC50703772481403016050121042000000000000129160000074158000086057300000000000000000000000000000000000000000000000000000000000000000000000000000000000000000000000000000000000000000091032820000000000000037919          000019571321000174J0000000000000000000000000000CONSULTOR DE VENDAS 20110503TNE100000000202104202021022519910328N0000000000
M001SOLDI PROMOTORA DE VENDAS LTDA     0100000190000110157PALOMA TATO RAMOS                  00PALOMA TATO RAMOS                  LAFE LABORATORIO DE ANALISES CLINIC50703772481403016300121042000000000000129160000074158000086057300000000000000000000000000000000000000000000000000000000000000000000000000000000000000000000000000000000000000000091032820000000000000037919          000019571321000174J0000000000000000000000000000CONSULTOR DE VENDAS 20110503TNE100000000202104202021022519910328N0000000000
M001SOLDI PROMOTORA DE VENDAS LTDA     0100000190000110157PALOMA TATO RAMOS                  00PALOMA TATO RAMOS                  LAFE LABORATORIO DE ANALISES CLINIC50703772481403025040121042000000000000129160000074158000086057300000000000000000000000000000000000000000000000000000000000000000000000000000000000000000000000000000000000000000091032820000000000000037919          000019571321000174J0000000000000000000000000000CONSULTOR DE VENDAS 20110503TNE100000000202104202021022519910328N0000000000
M001SOLDI PROMOTORA DE VENDAS LTDA     0100000190000110157PALOMA TATO RAMOS                  00PALOMA TATO RAMOS                  LAFE LABORATORIO DE ANALISES CLINIC50703772481403025120121042000000000000129160000074158000086057300000000000000000000000000000000000000000000000000000000000000000000000000000000000000000000000000000000000000000091032820000000000000037919          000019571321000174J0000000000000000000000000000CONSULTOR DE VENDAS 20110503TNE100000000202104202021022519910328N0000000000
M001SOLDI PROMOTORA DE VENDAS LTDA     0100000190000110157PALOMA TATO RAMOS                  00PALOMA TATO RAMOS                  LAFE LABORATORIO DE ANALISES CLINIC50703772481403025470121042000000000000184160000074158000086057300000000000000000000000000000000000000000000000000000000000000000000000000000000000000000000000000000000000000000091032820000000000000054019          000019571321000174J0000000000000000000000000000CONSULTOR DE VENDAS 20110503TNE100000000202104202021022519910328N0000000000
M001SOLDI PROMOTORA DE VENDAS LTDA     0100000190000110157PALOMA TATO RAMOS                  00PALOMA TATO RAMOS                  LABORATORIO BRONSTEIN              50703998745843146130121042800000000007172000000074158000028197200000000000000000000000000000000000000000000000000000000000000000000000000000000000000000000000000000000000000000091032820000000000002100019          000061486650005061J0000000000000000000000000000CONSULTOR DE VENDAS 20110503TNE100000000202104282021030119910328N0000000000
M001SOLDI PROMOTORA DE VENDAS LTDA     0100000190000110157PALOMA TATO RAMOS                  00PALOMA TATO RAMOS                  LABORATORIO BRONSTEIN              50703998746403247880121042800000000003244160000074158000028197200000000000000000000000000000000000000000000000000000000000000000000000000000000000000000000000000000000000000000091032820000000000000950019          000061486650005061J0000000000000000000000000000CONSULTOR DE VENDAS 20110503TNE100000000202104282021030119910328N0000000000
M001SOLDI PROMOTORA DE VENDAS LTDA     0100001320000118002JOSE LEITE RIBEIRO TAVARES         02MATEUS DE MEDEIROS TAVARES LEITE   NOVA DIAGNOSTICO POR IMAGEM        507016604308433011201210401000000000031760000000741580000618179000000000000000000000000000000000000000000000000000000000000000000000000000000000000000000000000000000000000000000080324120000000000009300132         020004489715000100J0000000000000000000000000000GERENTE COMERCIAL I 20080218TNQ200000000202104012021011920080324N0000000000
M001SOLDI PROMOTORA DE VENDAS LTDA     0100001320000118002JOSE LEITE RIBEIRO TAVARES         02MATEUS DE MEDEIROS TAVARES LEITE   NOVA DIAGNOSTICO POR IMAGEM        507016604304090138601210401000000000013241600000741580000618179000000000000000000000000000000000000000000000000000000000000000000000000000000000000000000000000000000000000000000080324120000000000003877132         020004489715000100J0000000000000000000000000000GERENTE COMERCIAL I 20080218TNQ200000000202104012021011920080324N0000000000
M001SOLDI PROMOTORA DE VENDAS LTDA     0100001320000118002JOSE LEITE RIBEIRO TAVARES         01LUCIDIA DE MEDEIROS TAVARES        TRADE TRAUMATOLOGIA E DERMATOLOGIA 101615989541010101200210401000000000035521600000741580000306102000000000000000000000000000000000000000000000000000000000000000000000000000000000000000000000000000000000000000000710811210000000000010400132         010003572822000135J0000000000000000000000000000GERENTE COMERCIAL I 20080218TNQ200000000202104012021020419710811N0000000000
M001SOLDI PROMOTORA DE VENDAS LTDA     0100001320000118002JOSE LEITE RIBEIRO TAVARES         01LUCIDIA DE MEDEIROS TAVARES        LAB DE PESQUISAS MEDICAS           507034090484030184201210406000000000002171600000741580000610232000000000000000000000000000000000000000000000000000000000000000000000000000000000000000000000000000000000000000000710811210000000000000638132         010000276970000114J0000000000000000000000000000GERENTE COMERCIAL I 20080218TNQ200000000202104062021020319710811N0000000000
M001SOLDI PROMOTORA DE VENDAS LTDA     0100001320000118002JOSE LEITE RIBEIRO TAVARES         01LUCIDIA DE MEDEIROS TAVARES        LAB DE PESQUISAS MEDICAS           507034090484030108701210406000000000007241600000741580000610232000000000000000000000000000000000000000000000000000000000000000000000000000000000000000000000000000000000000000000710811210000000000002120132         010000276970000114J0000000000000000000000000000GERENTE COMERCIAL I 20080218TNQ200000000202104062021020319710811N0000000000
M001SOLDI PROMOTORA DE VENDAS LTDA     0100001320000118002JOSE LEITE RIBEIRO TAVARES         01LUCIDIA DE MEDEIROS TAVARES        LAB DE PESQUISAS MEDICAS           507034090484030204001210406000000000001691600000741580000610232000000000000000000000000000000000000000000000000000000000000000000000000000000000000000000000000000000000000000000710811210000000000000496132         010000276970000114J0000000000000000000000000000GERENTE COMERCIAL I 20080218TNQ200000000202104062021020319710811N0000000000
M001SOLDI PROMOTORA DE VENDAS LTDA     0100001320000118002JOSE LEITE RIBEIRO TAVARES         01LUCIDIA DE MEDEIROS TAVARES        LAB DE PESQUISAS MEDICAS           507034090484030251201210406000000000001691600000741580000610232000000000000000000000000000000000000000000000000000000000000000000000000000000000000000000000000000000000000000000710811210000000000000496132         010000276970000114J0000000000000000000000000000GERENTE COMERCIAL I 20080218TNQ200000000202104062021020319710811N0000000000
M001SOLDI PROMOTORA DE VENDAS LTDA     0100001320000118002JOSE LEITE RIBEIRO TAVARES         01LUCIDIA DE MEDEIROS TAVARES        LAB DE PESQUISAS MEDICAS           507034090484030158301210406000000000003021600000741580000610232000000000000000000000000000000000000000000000000000000000000000000000000000000000000000000000000000000000000000000710811210000000000000886132         010000276970000114J0000000000000000000000000000GERENTE COMERCIAL I 20080218TNQ200000000202104062021020319710811N0000000000
M001SOLDI PROMOTORA DE VENDAS LTDA     0100001320000118002JOSE LEITE RIBEIRO TAVARES         01LUCIDIA DE MEDEIROS TAVARES        LAB DE PESQUISAS MEDICAS           507034090484030159101210406000000000003621600000741580000610232000000000000000000000000000000000000000000000000000000000000000000000000000000000000000000000000000000000000000000710811210000000000001062132         010000276970000114J0000000000000000000000000000GERENTE COMERCIAL I 20080218TNQ200000000202104062021020319710811N0000000000
M001SOLDI PROMOTORA DE VENDAS LTDA     0100001320000118002JOSE LEITE RIBEIRO TAVARES         01LUCIDIA DE MEDEIROS TAVARES        LAB DE PESQUISAS MEDICAS           507034090484030160501210406000000000001691600000741580000610232000000000000000000000000000000000000000000000000000000000000000000000000000000000000000000000000000000000000000000710811210000000000000496132         010000276970000114J0000000000000000000000000000GERENTE COMERCIAL I 20080218TNQ200000000202104062021020319710811N0000000000
M001SOLDI PROMOTORA DE VENDAS LTDA     0100001320000118002JOSE LEITE RIBEIRO TAVARES         01LUCIDIA DE MEDEIROS TAVARES        LAB DE PESQUISAS MEDICAS           507034090484030250401210406000000000001691600000741580000610232000000000000000000000000000000000000000000000000000000000000000000000000000000000000000000000000000000000000000000710811210000000000000496132         010000276970000114J0000000000000000000000000000GERENTE COMERCIAL I 20080218TNQ200000000202104062021020319710811N0000000000
M001SOLDI PROMOTORA DE VENDAS LTDA     0100001320000118002JOSE LEITE RIBEIRO TAVARES         01LUCIDIA DE MEDEIROS TAVARES        LAB DE PESQUISAS MEDICAS           507034090484030254701210406000000000002411600000741580000610232000000000000000000000000000000000000000000000000000000000000000000000000000000000000000000000000000000000000000000710811210000000000000707132         010000276970000114J0000000000000000000000000000GERENTE COMERCIAL I 20080218TNQ200000000202104062021020319710811N0000000000
M001SOLDI PROMOTORA DE VENDAS LTDA     0100001320000118002JOSE LEITE RIBEIRO TAVARES         01LUCIDIA DE MEDEIROS TAVARES        LAB DE PESQUISAS MEDICAS           507034090484030283001210406000000000012321600000741580000610232000000000000000000000000000000000000000000000000000000000000000000000000000000000000000000000000000000000000000000710811210000000000003610132         010000276970000114J0000000000000000000000000000GERENTE COMERCIAL I 20080218TNQ200000000202104062021020319710811N0000000000
M001SOLDI PROMOTORA DE VENDAS LTDA     0100001320000118002JOSE LEITE RIBEIRO TAVARES         01LUCIDIA DE MEDEIROS TAVARES        LAB DE PESQUISAS MEDICAS           507034090484030311001210406000000000001691600000741580000610232000000000000000000000000000000000000000000000000000000000000000000000000000000000000000000000000000000000000000000710811210000000000000496132         010000276970000114J0000000000000000000000000000GERENTE COMERCIAL I 20080218TNQ200000000202104062021020319710811N0000000000
M001SOLDI PROMOTORA DE VENDAS LTDA     0100001320000118002JOSE LEITE RIBEIRO TAVARES         01LUCIDIA DE MEDEIROS TAVARES        LAB DE PESQUISAS MEDICAS           507034090484030436101210406000000000003621600000741580000610232000000000000000000000000000000000000000000000000000000000000000000000000000000000000000000000000000000000000000000710811210000000000001062132         010000276970000114J0000000000000000000000000000GERENTE COMERCIAL I 20080218TNQ200000000202104062021020319710811N0000000000
M001SOLDI PROMOTORA DE VENDAS LTDA     0100001320000118002JOSE LEITE RIBEIRO TAVARES         01LUCIDIA DE MEDEIROS TAVARES        LAB DE PESQUISAS MEDICAS           507034090484030490601210406000000000018121600000741580000610232000000000000000000000000000000000000000000000000000000000000000000000000000000000000000000000000000000000000000000710811210000000000005308132         010000276970000114J0000000000000000000000000000GERENTE COMERCIAL I 20080218TNQ200000000202104062021020319710811N0000000000
M001SOLDI PROMOTORA DE VENDAS LTDA     0100001320000118002JOSE LEITE RIBEIRO TAVARES         01LUCIDIA DE MEDEIROS TAVARES        LAB DE PESQUISAS MEDICAS           507034090484031641601210406000000000010261600000741580000610232000000000000000000000000000000000000000000000000000000000000000000000000000000000000000000000000000000000000000000710811210000000000003006132         010000276970000114J0000000000000000000000000000GERENTE COMERCIAL I 20080218TNQ200000000202104062021020319710811N0000000000
M001SOLDI PROMOTORA DE VENDAS LTDA     0100001320000118002JOSE LEITE RIBEIRO TAVARES         01LUCIDIA DE MEDEIROS TAVARES        LAB DE PESQUISAS MEDICAS           507034090484031121001210406000000000001691600000741580000610232000000000000000000000000000000000000000000000000000000000000000000000000000000000000000000000000000000000000000000710811210000000000000496132         010000276970000114J0000000000000000000000000000GERENTE COMERCIAL I 20080218TNQ200000000202104062021020319710811N0000000000
M001SOLDI PROMOTORA DE VENDAS LTDA     0100001320000118002JOSE LEITE RIBEIRO TAVARES         01LUCIDIA DE MEDEIROS TAVARES        LAB DE PESQUISAS MEDICAS           507034090484031624601210406000000000012081600000741580000610232000000000000000000000000000000000000000000000000000000000000000000000000000000000000000000000000000000000000000000710811210000000000003538132         010000276970000114J0000000000000000000000000000GERENTE COMERCIAL I 20080218TNQ200000000202104062021020319710811N0000000000
M001SOLDI PROMOTORA DE VENDAS LTDA     0100001320000118002JOSE LEITE RIBEIRO TAVARES         01LUCIDIA DE MEDEIROS TAVARES        LAB DE PESQUISAS MEDICAS           507034090484031657201210406000000000010261600000741580000610232000000000000000000000000000000000000000000000000000000000000000000000000000000000000000000000000000000000000000000710811210000000000003006132         010000276970000114J0000000000000000000000000000GERENTE COMERCIAL I 20080218TNQ200000000202104062021020319710811N0000000000
M001SOLDI PROMOTORA DE VENDAS LTDA     0100001320000118002JOSE LEITE RIBEIRO TAVARES         01LUCIDIA DE MEDEIROS TAVARES        LAB DE PESQUISAS MEDICAS           507034090484031640801210406000000000012681600000741580000610232000000000000000000000000000000000000000000000000000000000000000000000000000000000000000000000000000000000000000000710811210000000000003714132         010000276970000114J0000000000000000000000000000GERENTE COMERCIAL I 20080218TNQ200000000202104062021020319710811N0000000000
M001SOLDI PROMOTORA DE VENDAS LTDA     0100001320000118002JOSE LEITE RIBEIRO TAVARES         00JOSE LEITE RIBEIRO TAVARES         BORIS BERENSTEIN RADIOLOGIA        507032746914090112201210406000000000052911600000741580000479934000000000000000000000000000000000000000000000000000000000000000000000000000000000000000000000000000000000000000000710927100000000000015493132         000012857736000402J0000000000000000000000000000GERENTE COMERCIAL I 20080218TNQ200000000202104062021021619710927N0000000000
M001SOLDI PROMOTORA DE VENDAS LTDA     0100001320000118002JOSE LEITE RIBEIRO TAVARES         01LUCIDIA DE MEDEIROS TAVARES        LAB DE PESQUISAS MEDICAS           507034090484031652101210406000000000010261600000741580000610232000000000000000000000000000000000000000000000000000000000000000000000000000000000000000000000000000000000000000000710811210000000000003006132         010000276970000114J0000000000000000000000000000GERENTE COMERCIAL I 20080218TNQ200000000202104062021020319710811N0000000000
M001SOLDI PROMOTORA DE VENDAS LTDA     0100001320000118002JOSE LEITE RIBEIRO TAVARES         01LUCIDIA DE MEDEIROS TAVARES        LAB DE PESQUISAS MEDICAS           507034090484031654801210406000000000007851600000741580000610232000000000000000000000000000000000000000000000000000000000000000000000000000000000000000000000000000000000000000000710811210000000000002301132         010000276970000114J0000000000000000000000000000GERENTE COMERCIAL I 20080218TNQ200000000202104062021020319710811N0000000000
M001SOLDI PROMOTORA DE VENDAS LTDA     0100001320000118002JOSE LEITE RIBEIRO TAVARES         01LUCIDIA DE MEDEIROS TAVARES        LAB DE PESQUISAS MEDICAS           507034090484031655601210406000000000007851600000741580000610232000000000000000000000000000000000000000000000000000000000000000000000000000000000000000000000000000000000000000000710811210000000000002301132         010000276970000114J0000000000000000000000000000GERENTE COMERCIAL I 20080218TNQ200000000202104062021020319710811N0000000000
M001SOLDI PROMOTORA DE VENDAS LTDA     0100001320000118002JOSE LEITE RIBEIRO TAVARES         00JOSE LEITE RIBEIRO TAVARES         LABORAT MARCELO MAGALHAES          507024921004032478801210409000000000034151600000741580000369233000000000000000000000000000000000000000000000000000000000000000000000000000000000000000000000000000000000000000000710927100000000000010000132         000011696937000160J0000000000000000000000000000GERENTE COMERCIAL I 20080218TNQ200000000202104092021020219710927N0000000000
M001SOLDI PROMOTORA DE VENDAS LTDA     0100001320000118002JOSE LEITE RIBEIRO TAVARES         01LUCIDIA DE MEDEIROS TAVARES        IVNA MARIA COSTA DE ALENCAR        191699787131010101200210409000000000035521600000741581926367500000000000000000000000000000000000000000000000000000000000000000000000000000000000000000000000000000000000000000000710811212600000000010400132         010000087394790487F0000000000000000000000000000GERENTE COMERCIAL I 20080218TNQ200000000202104092021032619710811N0000000000
M001SOLDI PROMOTORA DE VENDAS LTDA     0100001320000118002JOSE LEITE RIBEIRO TAVARES         00JOSE LEITE RIBEIRO TAVARES         HOPE                               207029998513401999201210419000000000010560000000741580000748978000000000000000000000000000000000000000000000000000000000000000000000000000000000000000000000000000000000000000000710927100000000000003093132         000040881302000130J0000000000000000000000000000GERENTE COMERCIAL I 20080218TNQ200000000202104192021021119710927N0000000000
M001SOLDI PROMOTORA DE VENDAS LTDA     0100001320000118002JOSE LEITE RIBEIRO TAVARES         00JOSE LEITE RIBEIRO TAVARES         HOPE                               207029998513401999501210419000000000000870000000741580000748978000000000000000000000000000000000000000000000000000000000000000000000000000000000000000000000000000000000000000000710927100000000000000257132         000040881302000130J0000000000000000000000000000GERENTE COMERCIAL I 20080218TNQ200000000202104192021021119710927N0000000000
M001SOLDI PROMOTORA DE VENDAS LTDA     0100001320000118002JOSE LEITE RIBEIRO TAVARES         00JOSE LEITE RIBEIRO TAVARES         HOPE                               507029998514020121001210419000000000064461600000741580000748978000000000000000000000000000000000000000000000000000000000000000000000000000000000000000000000000000000000000000000710927100000000000018874132         000040881302000130J0000000000000000000000000000GERENTE COMERCIAL I 20080218TNQ200000000202104192021021119710927N0000000000
M001SOLDI PROMOTORA DE VENDAS LTDA     0100001320000118002JOSE LEITE RIBEIRO TAVARES         00JOSE LEITE RIBEIRO TAVARES         SOS OTORRINO                       507031930194020122801210420000000000033381600000741580000405302000000000000000000000000000000000000000000000000000000000000000000000000000000000000000000000000000000000000000000710927100000000000009776132         000010574074000195J0000000000000000000000000000GERENTE COMERCIAL I 20080218TNQ200000000202104202021011119710927N0000000000
M001SOLDI PROMOTORA DE VENDAS LTDA     0100001320000118002JOSE LEITE RIBEIRO TAVARES         00JOSE LEITE RIBEIRO TAVARES         SOS OTORRINO                       207031930193401999201210420000000000002580000000741580000405302000000000000000000000000000000000000000000000000000000000000000000000000000000000000000000000000000000000000000000710927100000000000000756132         000010574074000195J0000000000000000000000000000GERENTE COMERCIAL I 20080218TNQ200000000202104202021011119710927N0000000000
M001SOLDI PROMOTORA DE VENDAS LTDA     0100001320000118002JOSE LEITE RIBEIRO TAVARES         00JOSE LEITE RIBEIRO TAVARES         SOS OTORRINO                       207031930193401999501210420000000000000780000000741580000405302000000000000000000000000000000000000000000000000000000000000000000000000000000000000000000000000000000000000000000710927100000000000000230132         000010574074000195J0000000000000000000000000000GERENTE COMERCIAL I 20080218TNQ200000000202104202021011119710927N0000000000
M001SOLDI PROMOTORA DE VENDAS LTDA     0100001320000118002JOSE LEITE RIBEIRO TAVARES         01LUCIDIA DE MEDEIROS TAVARES        HOPE                               3   FN49WX70000000100210422000000000966960000000741580000176710000000000000000000000000000000000000000209940000000001010300000000000000000000000567240000000000000000000000008875710811210000000000283120132         010040881302000130J0000000000000000000000000000GERENTE COMERCIAL I 20080218TNQ200000000202104222020121419710811N0000000000
M001SOLDI PROMOTORA DE VENDAS LTDA     0100001320000118002JOSE LEITE RIBEIRO TAVARES         03ILANA DE MEDEIROS TAVARES LEITE    HOPE                               107053366481010103901210429000000000035521600000741580000176710000000000000000000000000000000000000000000000000000000000000000000000000000000000000000000000000000000000000000000100615220000000000010400132         030040881302000130J0000000000000000000000000000GERENTE COMERCIAL I 20080218TNQ200000000202104292021032020100615N0000000000
M001SOLDI PROMOTORA DE VENDAS LTDA     0100001320000118002JOSE LEITE RIBEIRO TAVARES         01LUCIDIA DE MEDEIROS TAVARES        NOVA DIAGNOSTICO POR IMAGEM        507042081668433011201210429000000000022230000000741580000618179000000000000000000000000000000000000000000000000000000000000000000000000000000000000000000000000000000000000000000710811210000000000006510132         010004489715000100J0000000000000000000000000000GERENTE COMERCIAL I 20080218TNQ200000000202104292021021819710811N0000000000
M001SOLDI PROMOTORA DE VENDAS LTDA     0100001320000118002JOSE LEITE RIBEIRO TAVARES         01LUCIDIA DE MEDEIROS TAVARES        NOVA DIAGNOSTICO POR IMAGEM        507042081668433011201210429000000000022230000000741580000618179000000000000000000000000000000000000000000000000000000000000000000000000000000000000000000000000000000000000000000710811210000000000006510132         010004489715000100J0000000000000000000000000000GERENTE COMERCIAL I 20080218TNQ200000000202104292021021819710811N0000000000
M001SOLDI PROMOTORA DE VENDAS LTDA     0100001320000118002JOSE LEITE RIBEIRO TAVARES         01LUCIDIA DE MEDEIROS TAVARES        NOVA DIAGNOSTICO POR IMAGEM        507042081668433011201210429000000000022230000000741580000618179000000000000000000000000000000000000000000000000000000000000000000000000000000000000000000000000000000000000000000710811210000000000006510132         010004489715000100J0000000000000000000000000000GERENTE COMERCIAL I 20080218TNQ200000000202104292021021819710811N0000000000
M001SOLDI PROMOTORA DE VENDAS LTDA     0100001320000118002JOSE LEITE RIBEIRO TAVARES         01LUCIDIA DE MEDEIROS TAVARES        NOVA DIAGNOSTICO POR IMAGEM        507042081664080803301210429000000000039391600000741580000618179000000000000000000000000000000000000000000000000000000000000000000000000000000000000000000000000000000000000000000710811210000000000011534132         010004489715000100J0000000000000000000000000000GERENTE COMERCIAL I 20080218TNQ200000000202104292021021819710811N0000000000
M001SOLDI PROMOTORA DE VENDAS LTDA     0100001320000118002JOSE LEITE RIBEIRO TAVARES         01LUCIDIA DE MEDEIROS TAVARES        NOVA DIAGNOSTICO POR IMAGEM        507042081664090138601210429000000000013241600000741580000618179000000000000000000000000000000000000000000000000000000000000000000000000000000000000000000000000000000000000000000710811210000000000003877132         010004489715000100J0000000000000000000000000000GERENTE COMERCIAL I 20080218TNQ200000000202104292021021819710811N0000000000
M001SOLDI PROMOTORA DE VENDAS LTDA     0100001400000118013PALOMA SANTANA TEIXEIRA            00PALOMA SANTANA TEIXEIRA            LUPPA                              507033279904060113701210406000000000012981600000741580000207977000000000000000000000000000000000000000000000000000000000000000000000000000000000000000000000000000000000000000000880227200000000000003803140         000008406456000168J0000000000000000000000000000CONSULTOR DE VENDAS 20100413TNE100000000202104062021012519880227N0000000000
M001SOLDI PROMOTORA DE VENDAS LTDA     0100001400000118013PALOMA SANTANA TEIXEIRA            02MIGUEL SANTANA BARBOSA             HOSPITAL DAS NEVES                 207030680508400014701210413000000000112700000000741580000432911000000000000000000000000000000000000000000000000000000000000000000000000000000000000000000000000000000000000000000181017120000000000033000140         020001817749000199J0000000000000000000000000000CONSULTOR DE VENDAS 20100413TNE100000000202104132021020420181017N0000000000
M001SOLDI PROMOTORA DE VENDAS LTDA     0100001400000118013PALOMA SANTANA TEIXEIRA            00PALOMA SANTANA TEIXEIRA            NOVA DIAGNOSTICO POR IMAGEM        507042080478433011201210413000000000022230000000741580000618179000000000000000000000000000000000000000000000000000000000000000000000000000000000000000000000000000000000000000000880227200000000000006510140         000004489715000100J0000000000000000000000000000CONSULTOR DE VENDAS 20100413TNE100000000202104132021020919880227N0000000000
M001SOLDI PROMOTORA DE VENDAS LTDA     0100001400000118013PALOMA SANTANA TEIXEIRA            00PALOMA SANTANA TEIXEIRA            ANALISIS LAB CLINICO               507040224524030158301210413000000000002931600000741580000509337000000000000000000000000000000000000000000000000000000000000000000000000000000000000000000000000000000000000000000880227200000000000000860140         000012929451000197J0000000000000000000000000000CONSULTOR DE VENDAS 20100413TNE100000000202104132021022019880227N0000000000
M001SOLDI PROMOTORA DE VENDAS LTDA     0100001400000118013PALOMA SANTANA TEIXEIRA            00PALOMA SANTANA TEIXEIRA            NOVA DIAGNOSTICO POR IMAGEM        507042086948433011201210413000000000031760000000741580000618179000000000000000000000000000000000000000000000000000000000000000000000000000000000000000000000000000000000000000000880227200000000000009300140         000004489715000100J0000000000000000000000000000CONSULTOR DE VENDAS 20100413TNE100000000202104132021021019880227N0000000000
M001SOLDI PROMOTORA DE VENDAS LTDA     0100001400000118013PALOMA SANTANA TEIXEIRA            00PALOMA SANTANA TEIXEIRA            ANALISIS LAB CLINICO               507040224524031624601210413000000000011731600000741580000509337000000000000000000000000000000000000000000000000000000000000000000000000000000000000000000000000000000000000000000880227200000000000003435140         000012929451000197J0000000000000000000000000000CONSULTOR DE VENDAS 20100413TNE100000000202104132021022019880227N0000000000
M001SOLDI PROMOTORA DE VENDAS LTDA     0100001400000118013PALOMA SANTANA TEIXEIRA            00PALOMA SANTANA TEIXEIRA            ANALISIS LAB CLINICO               507040224524031640801210413000000000012311600000741580000509337000000000000000000000000000000000000000000000000000000000000000000000000000000000000000000000000000000000000000000880227200000000000003606140         000012929451000197J0000000000000000000000000000CONSULTOR DE VENDAS 20100413TNE100000000202104132021022019880227N0000000000
M001SOLDI PROMOTORA DE VENDAS LTDA     0100001400000118013PALOMA SANTANA TEIXEIRA            00PALOMA SANTANA TEIXEIRA            ANALISIS LAB CLINICO               507040224524031641601210413000000000009961600000741580000509337000000000000000000000000000000000000000000000000000000000000000000000000000000000000000000000000000000000000000000880227200000000000002919140         000012929451000197J0000000000000000000000000000CONSULTOR DE VENDAS 20100413TNE100000000202104132021022019880227N0000000000
M001SOLDI PROMOTORA DE VENDAS LTDA     0100001400000118013PALOMA SANTANA TEIXEIRA            00PALOMA SANTANA TEIXEIRA            ANALISIS LAB CLINICO               507040224524031649101210413000000000009961600000741580000509337000000000000000000000000000000000000000000000000000000000000000000000000000000000000000000000000000000000000000000880227200000000000002919140         000012929451000197J0000000000000000000000000000CONSULTOR DE VENDAS 20100413TNE100000000202104132021022019880227N0000000000
M001SOLDI PROMOTORA DE VENDAS LTDA     0100001400000118013PALOMA SANTANA TEIXEIRA            00PALOMA SANTANA TEIXEIRA            ANALISIS LAB CLINICO               507040224524030159101210413000000000003521600000741580000509337000000000000000000000000000000000000000000000000000000000000000000000000000000000000000000000000000000000000000000880227200000000000001031140         000012929451000197J0000000000000000000000000000CONSULTOR DE VENDAS 20100413TNE100000000202104132021022019880227N0000000000
M001SOLDI PROMOTORA DE VENDAS LTDA     0100001400000118013PALOMA SANTANA TEIXEIRA            00PALOMA SANTANA TEIXEIRA            ANALISIS LAB CLINICO               507040224524030160501210413000000000001641600000741580000509337000000000000000000000000000000000000000000000000000000000000000000000000000000000000000000000000000000000000000000880227200000000000000481140         000012929451000197J0000000000000000000000000000CONSULTOR DE VENDAS 20100413TNE100000000202104132021022019880227N0000000000
M001SOLDI PROMOTORA DE VENDAS LTDA     0100001400000118013PALOMA SANTANA TEIXEIRA            00PALOMA SANTANA TEIXEIRA            ANALISIS LAB CLINICO               507040224524030204001210413000000000001641600000741580000509337000000000000000000000000000000000000000000000000000000000000000000000000000000000000000000000000000000000000000000880227200000000000000481140         000012929451000197J0000000000000000000000000000CONSULTOR DE VENDAS 20100413TNE100000000202104132021022019880227N0000000000
M001SOLDI PROMOTORA DE VENDAS LTDA     0100001400000118013PALOMA SANTANA TEIXEIRA            00PALOMA SANTANA TEIXEIRA            ANALISIS LAB CLINICO               507040224524030250401210413000000000001641600000741580000509337000000000000000000000000000000000000000000000000000000000000000000000000000000000000000000000000000000000000000000880227200000000000000481140         000012929451000197J0000000000000000000000000000CONSULTOR DE VENDAS 20100413TNE100000000202104132021022019880227N0000000000
M001SOLDI PROMOTORA DE VENDAS LTDA     0100001400000118013PALOMA SANTANA TEIXEIRA            00PALOMA SANTANA TEIXEIRA            ANALISIS LAB CLINICO               507040224524030251201210413000000000001641600000741580000509337000000000000000000000000000000000000000000000000000000000000000000000000000000000000000000000000000000000000000000880227200000000000000481140         000012929451000197J0000000000000000000000000000CONSULTOR DE VENDAS 20100413TNE100000000202104132021022019880227N0000000000
M001SOLDI PROMOTORA DE VENDAS LTDA     0100001400000118013PALOMA SANTANA TEIXEIRA            00PALOMA SANTANA TEIXEIRA            ANALISIS LAB CLINICO               507040224524030254701210413000000000002341600000741580000509337000000000000000000000000000000000000000000000000000000000000000000000000000000000000000000000000000000000000000000880227200000000000000686140         000012929451000197J0000000000000000000000000000CONSULTOR DE VENDAS 20100413TNE100000000202104132021022019880227N0000000000
M001SOLDI PROMOTORA DE VENDAS LTDA     0100001400000118013PALOMA SANTANA TEIXEIRA            00PALOMA SANTANA TEIXEIRA            ANALISIS LAB CLINICO               507040224524031651301210413000000000012311600000741580000509337000000000000000000000000000000000000000000000000000000000000000000000000000000000000000000000000000000000000000000880227200000000000003606140         000012929451000197J0000000000000000000000000000CONSULTOR DE VENDAS 20100413TNE100000000202104132021022019880227N0000000000
M001SOLDI PROMOTORA DE VENDAS LTDA     0100001400000118013PALOMA SANTANA TEIXEIRA            00PALOMA SANTANA TEIXEIRA            ANALISIS LAB CLINICO               507040224524031652101210413000000000009961600000741580000509337000000000000000000000000000000000000000000000000000000000000000000000000000000000000000000000000000000000000000000880227200000000000002919140         000012929451000197J0000000000000000000000000000CONSULTOR DE VENDAS 20100413TNE100000000202104132021022019880227N0000000000
M001SOLDI PROMOTORA DE VENDAS LTDA     0100001400000118013PALOMA SANTANA TEIXEIRA            00PALOMA SANTANA TEIXEIRA            ANALISIS LAB CLINICO               507040224524030501501210413000000000015491600000741580000509337000000000000000000000000000000000000000000000000000000000000000000000000000000000000000000000000000000000000000000880227200000000000004536140         000012929451000197J0000000000000000000000000000CONSULTOR DE VENDAS 20100413TNE100000000202104132021022019880227N0000000000
M001SOLDI PROMOTORA DE VENDAS LTDA     0100001400000118013PALOMA SANTANA TEIXEIRA            00PALOMA SANTANA TEIXEIRA            ANALISIS LAB CLINICO               507040224524030717401210413000000000017591600000741580000509337000000000000000000000000000000000000000000000000000000000000000000000000000000000000000000000000000000000000000000880227200000000000005153140         000012929451000197J0000000000000000000000000000CONSULTOR DE VENDAS 20100413TNE100000000202104132021022019880227N0000000000
M001SOLDI PROMOTORA DE VENDAS LTDA     0100001400000118013PALOMA SANTANA TEIXEIRA            00PALOMA SANTANA TEIXEIRA            ANALISIS LAB CLINICO               507040224524030776001210413000000000001171600000741580000509337000000000000000000000000000000000000000000000000000000000000000000000000000000000000000000000000000000000000000000880227200000000000000344140         000012929451000197J0000000000000000000000000000CONSULTOR DE VENDAS 20100413TNE100000000202104132021022019880227N0000000000
M001SOLDI PROMOTORA DE VENDAS LTDA     0100001400000118013PALOMA SANTANA TEIXEIRA            00PALOMA SANTANA TEIXEIRA            ANALISIS LAB CLINICO               507040224524031121001210413000000000001641600000741580000509337000000000000000000000000000000000000000000000000000000000000000000000000000000000000000000000000000000000000000000880227200000000000000481140         000012929451000197J0000000000000000000000000000CONSULTOR DE VENDAS 20100413TNE100000000202104132021022019880227N0000000000
M001SOLDI PROMOTORA DE VENDAS LTDA     0100001400000118013PALOMA SANTANA TEIXEIRA            00PALOMA SANTANA TEIXEIRA            ANALISIS LAB CLINICO               507040224524030311001210413000000000001641600000741580000509337000000000000000000000000000000000000000000000000000000000000000000000000000000000000000000000000000000000000000000880227200000000000000481140         000012929451000197J0000000000000000000000000000CONSULTOR DE VENDAS 20100413TNE100000000202104132021022019880227N0000000000
M001SOLDI PROMOTORA DE VENDAS LTDA     0100001400000118013PALOMA SANTANA TEIXEIRA            00PALOMA SANTANA TEIXEIRA            ANALISIS LAB CLINICO               507040224524030436101210413000000000003521600000741580000509337000000000000000000000000000000000000000000000000000000000000000000000000000000000000000000000000000000000000000000880227200000000000001031140         000012929451000197J0000000000000000000000000000CONSULTOR DE VENDAS 20100413TNE100000000202104132021022019880227N0000000000
M001SOLDI PROMOTORA DE VENDAS LTDA     0100001400000118013PALOMA SANTANA TEIXEIRA            02MIGUEL SANTANA BARBOSA             COOPED PB                          100209728711010101200210422000000000035521600000741580000141291000000000000000000000000000000000000000000000000000000000000000000000000000000000000000000000000000000000000000000181017120000000000010400140         020004584679000164J0000000000000000000000000000CONSULTOR DE VENDAS 20100413TNE100000000202104222021031120181017N0000000000
M001SOLDI PROMOTORA DE VENDAS LTDA     0100001400000118013PALOMA SANTANA TEIXEIRA            00PALOMA SANTANA TEIXEIRA            CLIM                               107050053771010103901210423000000000035521600000741580000306711000000000000000000000000000000000000000000000000000000000000000000000000000000000000000000000000000000000000000000880227200000000000010400140         000041226432000100J0000000000000000000000000000CONSULTOR DE VENDAS 20100413TNE100000000202104232021030519880227N0000000000
M001SOLDI PROMOTORA DE VENDAS LTDA     0100001590000118023THALITA MENDES DE ALMEIDA LIMA     00THALITA MENDES DE ALMEIDA LIMA     INSTITUTO DO S E TRANSTORNOS MENTAS100208266410009013100210409000000000035520000000741580000388102000000000000000000000000000000000000000000000000000000000000000000000000000000000000000000000000000000000000000000891208200000000000010400159         000022100491000266J0000000000000000000000000000CONSULTOR DE VENDAS 20110110TNE100000000202104092021022219891208N0000000000
M001SOLDI PROMOTORA DE VENDAS LTDA     0100001590000118023THALITA MENDES DE ALMEIDA LIMA     00THALITA MENDES DE ALMEIDA LIMA     HOSPITAL DAS NEVES                 206951586698400040601210419000000000022530000000741580000432911000000000000000000000000000000000000000000000000000000000000000000000000000000000000000000000000000000000000000000891208200000000000006599159         000001817749000199J0000000000000000000000000000CONSULTOR DE VENDAS 20110110TNE100000000202104192020110619891208N0000000000
M001SOLDI PROMOTORA DE VENDAS LTDA     0100001830000119012MARINALVA DE FREITAS COSTA         02BRYAN DE FREITAS SOUSA             CEPECE                             3   FM6Y8710000000100210412000000002293590000000741580000279811000000000007172300000000000000000000000764440000000000000000000000000000000000000276660000000000000000000000053526190208120000000000671543183         020063386213000113J0000000000000000000000000000SUPERVISOR DE VENDAS20090720TNE100000000202104122021013120190208N0000000000
M001SOLDI PROMOTORA DE VENDAS LTDA     0100001830000119012MARINALVA DE FREITAS COSTA         01MARCOS GUILHERME DE FREITAS COSTA  CEPECE                             207050729678400014701210426000000000087430000000741580000279811000000000000000000000000000000000000000000000000000000000000000000000000000000000000000000000000000000000000000000080305220000000000025600183         010063386213000113J0000000000000000000000000000SUPERVISOR DE VENDAS20090720TNE100000000202104262021030920080305N0000000000
M001SOLDI PROMOTORA DE VENDAS LTDA     0100001910000119027DESYANE O GUIMARAES NASCIMENTO     00DESYANE O GUIMARAES NASCIMENTO     COOPEGO                            707045423174130109901210419000000000002831600000741580000633798000000000000000000000000000000000000000000000000000000000000000000000000000000000000000000000000000000000000000000790429200000000000000831191         000041314303000166J0000000000000000000000000000CONSULTOR DE VENDAS 20100901TNE100000000202104192021022219790429N0000000000
M001SOLDI PROMOTORA DE VENDAS LTDA     0100001910000119027DESYANE O GUIMARAES NASCIMENTO     00DESYANE O GUIMARAES NASCIMENTO     COOPEGO                            507045423174130110201210419000000000015641600000741580000633798000000000000000000000000000000000000000000000000000000000000000000000000000000000000000000000000000000000000000000790429200000000000004581191         000041314303000166J0000000000000000000000000000CONSULTOR DE VENDAS 20100901TNE100000000202104192021022219790429N0000000000
M001SOLDI PROMOTORA DE VENDAS LTDA     0100002050000120018ANDREZA SANTOS HUMSI RAYES         02CLAUDIO HENRIQUE PEREIRA FRANCISCO CLINICA DE CAMPO GRANDE            507027853094030140001210408000000000001721600000741580000649430000000000000000000000000000000000000000000000000000000000000000000000000000000000000000000000000000000000000000000781104110000000000000506205         020000860841000179J0000000000000000000000000000CONSULTOR DE VENDAS 20100809TNE100000000202104082021013019781104N0000000000
M001SOLDI PROMOTORA DE VENDAS LTDA     0100002050000120018ANDREZA SANTOS HUMSI RAYES         02CLAUDIO HENRIQUE PEREIRA FRANCISCO CLINICA DE CAMPO GRANDE            507027853094030163001210408000000000001721600000741580000649430000000000000000000000000000000000000000000000000000000000000000000000000000000000000000000000000000000000000000000781104110000000000000506205         020000860841000179J0000000000000000000000000000CONSULTOR DE VENDAS 20100809TNE100000000202104082021013019781104N0000000000
M001SOLDI PROMOTORA DE VENDAS LTDA     0100002050000120018ANDREZA SANTOS HUMSI RAYES         02CLAUDIO HENRIQUE PEREIRA FRANCISCO CLINICA DE CAMPO GRANDE            507027853094030223701210408000000000001971600000741580000649430000000000000000000000000000000000000000000000000000000000000000000000000000000000000000000000000000000000000000000781104110000000000000577205         020000860841000179J0000000000000000000000000000CONSULTOR DE VENDAS 20100809TNE100000000202104082021013019781104N0000000000
M001SOLDI PROMOTORA DE VENDAS LTDA     0100002050000120018ANDREZA SANTOS HUMSI RAYES         02CLAUDIO HENRIQUE PEREIRA FRANCISCO CLINICA DE CAMPO GRANDE            507027853094030231801210408000000000001721600000741580000649430000000000000000000000000000000000000000000000000000000000000000000000000000000000000000000000000000000000000000000781104110000000000000506205         020000860841000179J0000000000000000000000000000CONSULTOR DE VENDAS 20100809TNE100000000202104082021013019781104N0000000000
M001SOLDI PROMOTORA DE VENDAS LTDA     0100002050000120018ANDREZA SANTOS HUMSI RAYES         02CLAUDIO HENRIQUE PEREIRA FRANCISCO CLINICA DE CAMPO GRANDE            507027853094030242301210408000000000001721600000741580000649430000000000000000000000000000000000000000000000000000000000000000000000000000000000000000000000000000000000000000000781104110000000000000506205         020000860841000179J0000000000000000000000000000CONSULTOR DE VENDAS 20100809TNE100000000202104082021013019781104N0000000000
M001SOLDI PROMOTORA DE VENDAS LTDA     0100002050000120018ANDREZA SANTOS HUMSI RAYES         02CLAUDIO HENRIQUE PEREIRA FRANCISCO CLINICA DE CAMPO GRANDE            507027853094030258001210408000000000001721600000741580000649430000000000000000000000000000000000000000000000000000000000000000000000000000000000000000000000000000000000000000000781104110000000000000506205         020000860841000179J0000000000000000000000000000CONSULTOR DE VENDAS 20100809TNE100000000202104082021013019781104N0000000000
M001SOLDI PROMOTORA DE VENDAS LTDA     0100002050000120018ANDREZA SANTOS HUMSI RAYES         02CLAUDIO HENRIQUE PEREIRA FRANCISCO CLINICA DE CAMPO GRANDE            507027853094030436101210408000000000003691600000741580000649430000000000000000000000000000000000000000000000000000000000000000000000000000000000000000000000000000000000000000000781104110000000000001083205         020000860841000179J0000000000000000000000000000CONSULTOR DE VENDAS 20100809TNE100000000202104082021013019781104N0000000000
M001SOLDI PROMOTORA DE VENDAS LTDA     0100002050000120018ANDREZA SANTOS HUMSI RAYES         02CLAUDIO HENRIQUE PEREIRA FRANCISCO CLINICA DE CAMPO GRANDE            507027853094030839101210408000000000008261600000741580000649430000000000000000000000000000000000000000000000000000000000000000000000000000000000000000000000000000000000000000000781104110000000000002419205         020000860841000179J0000000000000000000000000000CONSULTOR DE VENDAS 20100809TNE100000000202104082021013019781104N0000000000
M001SOLDI PROMOTORA DE VENDAS LTDA     0100002050000120018ANDREZA SANTOS HUMSI RAYES         02CLAUDIO HENRIQUE PEREIRA FRANCISCO CLINICA DE CAMPO GRANDE            507027853094031121001210408000000000001721600000741580000649430000000000000000000000000000000000000000000000000000000000000000000000000000000000000000000000000000000000000000000781104110000000000000506205         020000860841000179J0000000000000000000000000000CONSULTOR DE VENDAS 20100809TNE100000000202104082021013019781104N0000000000
M001SOLDI PROMOTORA DE VENDAS LTDA     0100002050000120018ANDREZA SANTOS HUMSI RAYES         03ALICE SANTOS HUMSI RAYES FRANCISCO MULTILAB LAB DE ANALISES CLIN      507044245144031121001210416000000000001721600000741580000071374000000000000000000000000000000000000000000000000000000000000000000000000000000000000000000000000000000000000000000190326220000000000000506205         030000860254000180J0000000000000000000000000000CONSULTOR DE VENDAS 20100809TNE100000000202104162021021120190326N0000000000
M001SOLDI PROMOTORA DE VENDAS LTDA     0100002050000120018ANDREZA SANTOS HUMSI RAYES         03ALICE SANTOS HUMSI RAYES FRANCISCO MULTILAB LAB DE ANALISES CLIN      507044245144030436101210416000000000003691600000741580000071374000000000000000000000000000000000000000000000000000000000000000000000000000000000000000000000000000000000000000000190326220000000000001082205         030000860254000180J0000000000000000000000000000CONSULTOR DE VENDAS 20100809TNE100000000202104162021021120190326N0000000000
M001SOLDI PROMOTORA DE VENDAS LTDA     0100002050000120018ANDREZA SANTOS HUMSI RAYES         02CLAUDIO HENRIQUE PEREIRA FRANCISCO CTO RADIOLOGICO CAMPO GRANDE       507044526354090176901210416000000000032311600000741580000373079000000000000000000000000000000000000000000000000000000000000000000000000000000000000000000000000000000000000000000781104110000000000009461205         020001944057000101J0000000000000000000000000000CONSULTOR DE VENDAS 20100809TNE100000000202104162021020119781104N0000000000
M001SOLDI PROMOTORA DE VENDAS LTDA     0100002050000120018ANDREZA SANTOS HUMSI RAYES         03ALICE SANTOS HUMSI RAYES FRANCISCO MULTILAB LAB DE ANALISES CLIN      507044245144030838301210416000000000001851600000741580000071374000000000000000000000000000000000000000000000000000000000000000000000000000000000000000000000000000000000000000000190326220000000000000542205         030000860254000180J0000000000000000000000000000CONSULTOR DE VENDAS 20100809TNE100000000202104162021021120190326N0000000000
M001SOLDI PROMOTORA DE VENDAS LTDA     0100002050000120018ANDREZA SANTOS HUMSI RAYES         03ALICE SANTOS HUMSI RAYES FRANCISCO MULTILAB LAB DE ANALISES CLIN      507044245144031021301210416000000000003681600000741580000071374000000000000000000000000000000000000000000000000000000000000000000000000000000000000000000000000000000000000000000190326220000000000001079205         030000860254000180J0000000000000000000000000000CONSULTOR DE VENDAS 20100809TNE100000000202104162021021120190326N0000000000
M001SOLDI PROMOTORA DE VENDAS LTDA     0100002640000013086ANTONIA DE SOUSA GOMES FEIJAO      01ANTONIO EGBERTO FEIJAO             PROSAUDE                           191681548751010101200210406000000000035521600000741580000887927000000000000000000000000000000000000000000000000000000000000000000000000000000000000000000000000000000000000000000550607110000000000010400264         010002355330000125J0000000000000000000000000000AUXILIAR DE SERVICOS20100503TNE100000000202104062021031519550607N0000000000
M001SOLDI PROMOTORA DE VENDAS LTDA     0100002640000013086ANTONIA DE SOUSA GOMES FEIJAO      00ANTONIA DE SOUSA GOMES FEIJAO      MONALIZA GOMES DE CARVALHO         191674662671010101200210413000000000035521600000741580038034000000000000000000000000000000000000000000000000000000000000000000000000000000000000000000000000000000000000000000000601013203800000000010400264         000000072921889749F0000000000000000000000000000AUXILIAR DE SERVICOS20100503TNE100000000202104132021031119601013N0000000000
M001SOLDI PROMOTORA DE VENDAS LTDA     0100002640000013086ANTONIA DE SOUSA GOMES FEIJAO      00ANTONIA DE SOUSA GOMES FEIJAO      SAMCORDIS                          107052299031010103901210427000000000034181600000741580000134716000000000000000000000000000000000000000000000000000000000000000000000000000000000000000000000000000000000000000000601013200000000000010008264         000030358881000188J0000000000000000000000000000AUXILIAR DE SERVICOS20100503TNE100000000202104272021020919601013N0000000000
M001SOLDI PROMOTORA DE VENDAS LTDA     0100002640000013086ANTONIA DE SOUSA GOMES FEIJAO      00ANTONIA DE SOUSA GOMES FEIJAO      SAMCORDIS                          507052299034030201601210427000000000008261600000741580000134716000000000000000000000000000000000000000000000000000000000000000000000000000000000000000000000000000000000000000000601013200000000000002419264         000030358881000188J0000000000000000000000000000AUXILIAR DE SERVICOS20100503TNE100000000202104272021020919601013N0000000000
M001SOLDI PROMOTORA DE VENDAS LTDA     0100002640000013086ANTONIA DE SOUSA GOMES FEIJAO      00ANTONIA DE SOUSA GOMES FEIJAO      SAMCORDIS                          507052299034030436101210427000000000003691600000741580000134716000000000000000000000000000000000000000000000000000000000000000000000000000000000000000000000000000000000000000000601013200000000000001083264         000030358881000188J0000000000000000000000000000AUXILIAR DE SERVICOS20100503TNE100000000202104272021020919601013N0000000000
M001SOLDI PROMOTORA DE VENDAS LTDA     0100002640000013086ANTONIA DE SOUSA GOMES FEIJAO      00ANTONIA DE SOUSA GOMES FEIJAO      SAMCORDIS                          507052299034080501801210427000000000010351600000741580000134716000000000000000000000000000000000000000000000000000000000000000000000000000000000000000000000000000000000000000000601013200000000000003031264         000030358881000188J0000000000000000000000000000AUXILIAR DE SERVICOS20100503TNE100000000202104272021020919601013N0000000000
M001SOLDI PROMOTORA DE VENDAS LTDA     0100002640000013086ANTONIA DE SOUSA GOMES FEIJAO      00ANTONIA DE SOUSA GOMES FEIJAO      SAMCORDIS                          207052299033401999201210427000000000000490000000741580000134716000000000000000000000000000000000000000000000000000000000000000000000000000000000000000000000000000000000000000000601013200000000000000146264         000030358881000188J0000000000000000000000000000AUXILIAR DE SERVICOS20100503TNE100000000202104272021020919601013N0000000000
M001SOLDI PROMOTORA DE VENDAS LTDA     0100002640000013086ANTONIA DE SOUSA GOMES FEIJAO      00ANTONIA DE SOUSA GOMES FEIJAO      HOSPITAL DE OLHOS DE NITEROI       107044804321010101201210427000000000035521600000741580000825492000000000000000000000000000000000000000000000000000000000000000000000000000000000000000000000000000000000000000000601013200000000000010400264         000039256128000318J0000000000000000000000000000AUXILIAR DE SERVICOS20100503TNE100000000202104272021030319601013N0000000000
M001SOLDI PROMOTORA DE VENDAS LTDA     0100002640000013086ANTONIA DE SOUSA GOMES FEIJAO      00ANTONIA DE SOUSA GOMES FEIJAO      HOSPITAL DE OLHOS DE NITEROI       507044804324130132301210427000000000004421600000741580000825492000000000000000000000000000000000000000000000000000000000000000000000000000000000000000000000000000000000000000000601013200000000000001296264         000039256128000318J0000000000000000000000000000AUXILIAR DE SERVICOS20100503TNE100000000202104272021030319601013N0000000000
M001SOLDI PROMOTORA DE VENDAS LTDA     0100002640000013086ANTONIA DE SOUSA GOMES FEIJAO      01ANTONIO EGBERTO FEIJAO             SAMCORDIS                          207054899143401999201210430000000000000490000000741580000134716000000000000000000000000000000000000000000000000000000000000000000000000000000000000000000000000000000000000000000550607110000000000000146264         010030358881000188J0000000000000000000000000000AUXILIAR DE SERVICOS20100503TNE100000000202104302021020919550607N0000000000
M001SOLDI PROMOTORA DE VENDAS LTDA     0100002640000013086ANTONIA DE SOUSA GOMES FEIJAO      01ANTONIO EGBERTO FEIJAO             SAMCORDIS                          507054899144080501801210430000000000010351600000741580000134716000000000000000000000000000000000000000000000000000000000000000000000000000000000000000000000000000000000000000000550607110000000000003031264         010030358881000188J0000000000000000000000000000AUXILIAR DE SERVICOS20100503TNE100000000202104302021020919550607N0000000000
M001SOLDI PROMOTORA DE VENDAS LTDA     0100002640000013086ANTONIA DE SOUSA GOMES FEIJAO      01ANTONIO EGBERTO FEIJAO             SAMCORDIS                          507054899144030436101210430000000000003691600000741580000134716000000000000000000000000000000000000000000000000000000000000000000000000000000000000000000000000000000000000000000550607110000000000001083264         010030358881000188J0000000000000000000000000000AUXILIAR DE SERVICOS20100503TNE100000000202104302021020919550607N0000000000
M001SOLDI PROMOTORA DE VENDAS LTDA     0100002640000013086ANTONIA DE SOUSA GOMES FEIJAO      01ANTONIO EGBERTO FEIJAO             SAMCORDIS                          107054899141010103901210430000000000034181600000741580000134716000000000000000000000000000000000000000000000000000000000000000000000000000000000000000000000000000000000000000000550607110000000000010008264         010030358881000188J0000000000000000000000000000AUXILIAR DE SERVICOS20100503TNE100000000202104302021020919550607N0000000000
M001SOLDI PROMOTORA DE VENDAS LTDA     0100002800000013097SAMUEL DE FRANCA PESSOA JUNIOR     02EMANUELLE RODRIGUES PESSOA         JOSE ROBERTO FERNANDES             191655356421010101200210413000000000034151600000741580031205900000000000000000000000000000000000000000000000000000000000000000000000000000000000000000000000000000000000000000000141216223100000000010000280         020000030350603715F0000000000000000000000000000CONSULTOR DE VENDAS 20110317TNE100000000202104132021030220141216N0000000000
M001SOLDI PROMOTORA DE VENDAS LTDA     0100002800000013097SAMUEL DE FRANCA PESSOA JUNIOR     02EMANUELLE RODRIGUES PESSOA         JOSE ROBERTO FERNANDES             101694495251010101200210413000000000034151600000741580031205900000000000000000000000000000000000000000000000000000000000000000000000000000000000000000000000000000000000000000000141216223100000000010000280         020000030350603715F0000000000000000000000000000CONSULTOR DE VENDAS 20110317TNE100000000202104132021032320141216N0000000000
M001SOLDI PROMOTORA DE VENDAS LTDA     0100003020000133127ANA PAULA RODRIGUES BRAGA RAMALHO  00ANA PAULA RODRIGUES BRAGA RAMALHO  NATAL HOSPITAL CENTER              207025069608400040601210406000000000075130000000741580000426113000000000000000000000000000000000000000000000000000000000000000000000000000000000000000000000000000000000000000000880812200000000000022000302         000002109397000180J0000000000000000000000000000CONSULTOR DE VENDAS 20100601TNE100000000202104062020121119880812N0000000000
M001SOLDI PROMOTORA DE VENDAS LTDA     0100003100000133146MARIA BETANIA SILVA DA TRINDADE    00MARIA BETANIA SILVA DA TRINDADE    HOSP MEMORIAL ARTHUR RAMOS         507036417744031461801210423000000000051231600000741580000106232000000000000000000000000000000000000000000000000000000000000000000000000000000000000000000000000000000000000000000770921200000000000015000310         000001722424000122J0000000000000000000000000000CONSULTOR DE VENDAS 20110601TNE100000000202104232021021419770921N0000000000
M001SOLDI PROMOTORA DE VENDAS LTDA     0100003290000133158CARLA C GUILHERME SILVA MARQUES    03LAVINIA ISABELE GUILHERME MARQUES  HUMANUS                            207027228405000047001210407000000000014931600000741580000271002000000000000000000000000000000000000000000000000000000000000000000000000000000000000000000000000000000000000000000140221220000000000004374329         030010234997000106J0000000000000000000000000000CONSULTOR DE VENDAS 20110701TNE100000000202104072021011420140221N0000000000
M001SOLDI PROMOTORA DE VENDAS LTDA     0100003290000133158CARLA C GUILHERME SILVA MARQUES    00CARLA C GUILHERME SILVA MARQUES    HUMANUS                            207027228655000047001210407000000000014931600000741580000271002000000000000000000000000000000000000000000000000000000000000000000000000000000000000000000000000000000000000000000860103200000000000004374329         000010234997000106J0000000000000000000000000000CONSULTOR DE VENDAS 20110701TNE100000000202104072021011519860103N0000000000
M001SOLDI PROMOTORA DE VENDAS LTDA     0100003290000133158CARLA C GUILHERME SILVA MARQUES    00CARLA C GUILHERME SILVA MARQUES    HUMANUS                            207027228655000047001210407000000000014931600000741580000271002000000000000000000000000000000000000000000000000000000000000000000000000000000000000000000000000000000000000000000860103200000000000004374329         000010234997000106J0000000000000000000000000000CONSULTOR DE VENDAS 20110701TNE100000000202104072021011519860103N0000000000
M001SOLDI PROMOTORA DE VENDAS LTDA     0100003290000133158CARLA C GUILHERME SILVA MARQUES    00CARLA C GUILHERME SILVA MARQUES    HUMANUS                            207027228655000047001210407000000000014931600000741580000271002000000000000000000000000000000000000000000000000000000000000000000000000000000000000000000000000000000000000000000860103200000000000004374329         000010234997000106J0000000000000000000000000000CONSULTOR DE VENDAS 20110701TNE100000000202104072021011519860103N0000000000
M001SOLDI PROMOTORA DE VENDAS LTDA     0100003290000133158CARLA C GUILHERME SILVA MARQUES    02LIVIA MARINA GUILHERME MARQUES     HUMANUS                            207027228415000047001210407000000000014931600000741580000271002000000000000000000000000000000000000000000000000000000000000000000000000000000000000000000000000000000000000000000140221220000000000004374329         020010234997000106J0000000000000000000000000000CONSULTOR DE VENDAS 20110701TNE100000000202104072021011420140221N0000000000
M001SOLDI PROMOTORA DE VENDAS LTDA     0100003290000133158CARLA C GUILHERME SILVA MARQUES    03LAVINIA ISABELE GUILHERME MARQUES  HUMANUS                            207027228405000047001210407000000000014931600000741580000271002000000000000000000000000000000000000000000000000000000000000000000000000000000000000000000000000000000000000000000140221220000000000004374329         030010234997000106J0000000000000000000000000000CONSULTOR DE VENDAS 20110701TNE100000000202104072021011420140221N0000000000
M001SOLDI PROMOTORA DE VENDAS LTDA     0100003290000133158CARLA C GUILHERME SILVA MARQUES    02LIVIA MARINA GUILHERME MARQUES     HUMANUS                            207027228415000047001210407000000000014931600000741580000271002000000000000000000000000000000000000000000000000000000000000000000000000000000000000000000000000000000000000000000140221220000000000004374329         020010234997000106J0000000000000000000000000000CONSULTOR DE VENDAS 20110701TNE100000000202104072021011420140221N0000000000
M001SOLDI PROMOTORA DE VENDAS LTDA     0100003290000133158CARLA C GUILHERME SILVA MARQUES    03LAVINIA ISABELE GUILHERME MARQUES  HUMANUS                            207027228405000047001210407000000000014931600000741580000271002000000000000000000000000000000000000000000000000000000000000000000000000000000000000000000000000000000000000000000140221220000000000004374329         030010234997000106J0000000000000000000000000000CONSULTOR DE VENDAS 20110701TNE100000000202104072021011420140221N0000000000
M001SOLDI PROMOTORA DE VENDAS LTDA     0100003290000133158CARLA C GUILHERME SILVA MARQUES    03LAVINIA ISABELE GUILHERME MARQUES  HUMANUS                            207027228405000047001210407000000000014931600000741580000271002000000000000000000000000000000000000000000000000000000000000000000000000000000000000000000000000000000000000000000140221220000000000004374329         030010234997000106J0000000000000000000000000000CONSULTOR DE VENDAS 20110701TNE100000000202104072021011420140221N0000000000
M001SOLDI PROMOTORA DE VENDAS LTDA     0100003290000133158CARLA C GUILHERME SILVA MARQUES    02LIVIA MARINA GUILHERME MARQUES     HUMANUS                            207027228415000047001210407000000000014931600000741580000271002000000000000000000000000000000000000000000000000000000000000000000000000000000000000000000000000000000000000000000140221220000000000004374329         020010234997000106J0000000000000000000000000000CONSULTOR DE VENDAS 20110701TNE100000000202104072021011420140221N0000000000
M001SOLDI PROMOTORA DE VENDAS LTDA     0100003290000133158CARLA C GUILHERME SILVA MARQUES    02LIVIA MARINA GUILHERME MARQUES     HUMANUS                            207027228415000047001210407000000000014931600000741580000271002000000000000000000000000000000000000000000000000000000000000000000000000000000000000000000000000000000000000000000140221220000000000004374329         020010234997000106J0000000000000000000000000000CONSULTOR DE VENDAS 20110701TNE100000000202104072021011420140221N0000000000
M001SOLDI PROMOTORA DE VENDAS LTDA     0100003290000133158CARLA C GUILHERME SILVA MARQUES    00CARLA C GUILHERME SILVA MARQUES    HUMANUS                            207027228655000047001210407000000000014931600000741580000271002000000000000000000000000000000000000000000000000000000000000000000000000000000000000000000000000000000000000000000860103200000000000004374329         000010234997000106J0000000000000000000000000000CONSULTOR DE VENDAS 20110701TNE100000000202104072021011519860103N0000000000
M001SOLDI PROMOTORA DE VENDAS LTDA     0100003290000133158CARLA C GUILHERME SILVA MARQUES    00CARLA C GUILHERME SILVA MARQUES    LABORATORIO ANAL PROCLINICO        507026963394031461801210414000000000085381600000741580000137030000000000000000000000000000000000000000000000000000000000000000000000000000000000000000000000000000000000000000000860103200000000000025000329         000012388096000196J0000000000000000000000000000CONSULTOR DE VENDAS 20110701TNE100000000202104142021021219860103N0000000000
M001SOLDI PROMOTORA DE VENDAS LTDA     0100003290000133158CARLA C GUILHERME SILVA MARQUES    02LIVIA MARINA GUILHERME MARQUES     LABORATORIO ANAL PROCLINICO        507028775194031461801210415000000000085381600000741580000137030000000000000000000000000000000000000000000000000000000000000000000000000000000000000000000000000000000000000000000140221220000000000025000329         020012388096000196J0000000000000000000000000000CONSULTOR DE VENDAS 20110701TNE100000000202104152021021720140221N0000000000
M001SOLDI PROMOTORA DE VENDAS LTDA     0100003290000133158CARLA C GUILHERME SILVA MARQUES    03LAVINIA ISABELE GUILHERME MARQUES  LABORATORIO ANAL PROCLINICO        507028775184031461801210415000000000085381600000741580000137030000000000000000000000000000000000000000000000000000000000000000000000000000000000000000000000000000000000000000000140221220000000000025000329         030012388096000196J0000000000000000000000000000CONSULTOR DE VENDAS 20110701TNE100000000202104152021021720140221N0000000000
M001SOLDI PROMOTORA DE VENDAS LTDA     0100003290000133158CARLA C GUILHERME SILVA MARQUES    01JOSE WELLINGTON MARQUES            SERVIMED                           107049274181010103901210423000000000048941600000741580000444197000000000000000000000000000000000000000000000000000000000000000000000000000000000000000000000000000000000000000000770116110000000000014332329         010004695546000165J0000000000000000000000000000CONSULTOR DE VENDAS 20110701TNE100000000202104232021021419770116N0000000000
M001SOLDI PROMOTORA DE VENDAS LTDA     0100003290000133158CARLA C GUILHERME SILVA MARQUES    01JOSE WELLINGTON MARQUES            SERVIMED                           107054123701010103901210429000000000048941600000741580000444197000000000000000000000000000000000000000000000000000000000000000000000000000000000000000000000000000000000000000000770116110000000000014332329         010004695546000165J0000000000000000000000000000CONSULTOR DE VENDAS 20110701TNE100000000202104292021021219770116N0000000000
M001SOLDI PROMOTORA DE VENDAS LTDA     0100003290000133158CARLA C GUILHERME SILVA MARQUES    00CARLA C GUILHERME SILVA MARQUES    SERVIMED                           107054123691010103901210429000000000048941600000741580000444197000000000000000000000000000000000000000000000000000000000000000000000000000000000000000000000000000000000000000000860103200000000000014332329         000004695546000165J0000000000000000000000000000CONSULTOR DE VENDAS 20110701TNE100000000202104292021021219860103N0000000000
M001SOLDI PROMOTORA DE VENDAS LTDA     0100003530000014055REGINA HELENA NERY BEZERRA         00REGINA HELENA NERY BEZERRA         CENTRO MEDICO E FRATURAS           100209299731010101200210416000000000034151600000741580000349720000000000000000000000000000000000000000000000000000000000000000000000000000000000000000000000000000000000000000000810107200000000000010000353         000000596821000132J0000000000000000000000000000CONSULTOR DE VENDAS 20100804TNE100000000202104162021031819810107N0000000000
M001SOLDI PROMOTORA DE VENDAS LTDA     0100003610000017005EDVANE PEREIRA DE OLIVEIRA         00EDVANE PEREIRA DE OLIVEIRA         CL ANNA PAOLA NOYA GATTO           507017879538433011201210401000000000020560000000741580000669938000000000000000000000000000000000000000000000000000000000000000000000000000000000000000000000000000000000000000000801011200000000000006020361         000000867860000127J0000000000000000000000000000SUPERVISOR DE VENDAS20060701TNQ200000000202104012021012119801011N0000000000
M001SOLDI PROMOTORA DE VENDAS LTDA     0100003610000017005EDVANE PEREIRA DE OLIVEIRA         00EDVANE PEREIRA DE OLIVEIRA         CL ANNA PAOLA NOYA GATTO           507017879538433011201210401000000000020560000000741580000669938000000000000000000000000000000000000000000000000000000000000000000000000000000000000000000000000000000000000000000801011200000000000006020361         000000867860000127J0000000000000000000000000000SUPERVISOR DE VENDAS20060701TNQ200000000202104012021012119801011N0000000000
M001SOLDI PROMOTORA DE VENDAS LTDA     0100003610000017005EDVANE PEREIRA DE OLIVEIRA         00EDVANE PEREIRA DE OLIVEIRA         CL ANNA PAOLA NOYA GATTO           507017879538433011201210401000000000020560000000741580000669938000000000000000000000000000000000000000000000000000000000000000000000000000000000000000000000000000000000000000000801011200000000000006020361         000000867860000127J0000000000000000000000000000SUPERVISOR DE VENDAS20060701TNQ200000000202104012021012119801011N0000000000
M001SOLDI PROMOTORA DE VENDAS LTDA     0100003610000017005EDVANE PEREIRA DE OLIVEIRA         00EDVANE PEREIRA DE OLIVEIRA         CL ANNA PAOLA NOYA GATTO           507017879538433009001210401000000000061470000000741580000669938000000000000000000000000000000000000000000000000000000000000000000000000000000000000000000000000000000000000000000801011200000000000018000361         000000867860000127J0000000000000000000000000000SUPERVISOR DE VENDAS20060701TNQ200000000202104012021012119801011N0000000000
M001SOLDI PROMOTORA DE VENDAS LTDA     0100003610000017005EDVANE PEREIRA DE OLIVEIRA         00EDVANE PEREIRA DE OLIVEIRA         NEWLAB ANALISES CLINICAS           507021783804030437001210407000000000001041600000741580000248231000000000000000000000000000000000000000000000000000000000000000000000000000000000000000000000000000000000000000000801011200000000000000307361         000034444588000194J0000000000000000000000000000SUPERVISOR DE VENDAS20060701TNQ200000000202104072021020519801011N0000000000
M001SOLDI PROMOTORA DE VENDAS LTDA     0100003610000017005EDVANE PEREIRA DE OLIVEIRA         00EDVANE PEREIRA DE OLIVEIRA         NEWLAB ANALISES CLINICAS           507021783804030231801210407000000000001461600000741580000248231000000000000000000000000000000000000000000000000000000000000000000000000000000000000000000000000000000000000000000801011200000000000000430361         000034444588000194J0000000000000000000000000000SUPERVISOR DE VENDAS20060701TNQ200000000202104072021020519801011N0000000000
M001SOLDI PROMOTORA DE VENDAS LTDA     0100003610000017005EDVANE PEREIRA DE OLIVEIRA         00EDVANE PEREIRA DE OLIVEIRA         NEWLAB ANALISES CLINICAS           507021783804031646701210407000000000007441600000741580000248231000000000000000000000000000000000000000000000000000000000000000000000000000000000000000000000000000000000000000000801011200000000000002179361         000034444588000194J0000000000000000000000000000SUPERVISOR DE VENDAS20060701TNQ200000000202104072021020519801011N0000000000
M001SOLDI PROMOTORA DE VENDAS LTDA     0100003610000017005EDVANE PEREIRA DE OLIVEIRA         00EDVANE PEREIRA DE OLIVEIRA         NEWLAB ANALISES CLINICAS           507021783804030238501210407000000000001571600000741580000248231000000000000000000000000000000000000000000000000000000000000000000000000000000000000000000000000000000000000000000801011200000000000000460361         000034444588000194J0000000000000000000000000000SUPERVISOR DE VENDAS20060701TNQ200000000202104072021020519801011N0000000000
M001SOLDI PROMOTORA DE VENDAS LTDA     0100003610000017005EDVANE PEREIRA DE OLIVEIRA         00EDVANE PEREIRA DE OLIVEIRA         NEWLAB ANALISES CLINICAS           507021783804030540601210407000000000017811600000741580000248231000000000000000000000000000000000000000000000000000000000000000000000000000000000000000000000000000000000000000000801011200000000000005216361         000034444588000194J0000000000000000000000000000SUPERVISOR DE VENDAS20060701TNQ200000000202104072021020519801011N0000000000
M001SOLDI PROMOTORA DE VENDAS LTDA     0100003610000017005EDVANE PEREIRA DE OLIVEIRA         00EDVANE PEREIRA DE OLIVEIRA         NEWLAB ANALISES CLINICAS           607021783804030546501210407000000000020441600000741580000248231000000000000000000000000000000000000000000000000000000000000000000000000000000000000000000000000000000000000000000801011200000000000005986361         000034444588000194J0000000000000000000000000000SUPERVISOR DE VENDAS20060701TNQ200000000202104072021020519801011N0000000000
M001SOLDI PROMOTORA DE VENDAS LTDA     0100003610000017005EDVANE PEREIRA DE OLIVEIRA         00EDVANE PEREIRA DE OLIVEIRA         NEWLAB ANALISES CLINICAS           507021783804030634801210407000000000010991600000741580000248231000000000000000000000000000000000000000000000000000000000000000000000000000000000000000000000000000000000000000000801011200000000000003220361         000034444588000194J0000000000000000000000000000SUPERVISOR DE VENDAS20060701TNQ200000000202104072021020519801011N0000000000
M001SOLDI PROMOTORA DE VENDAS LTDA     0100003610000017005EDVANE PEREIRA DE OLIVEIRA         00EDVANE PEREIRA DE OLIVEIRA         NEWLAB ANALISES CLINICAS           507021783804030699201210407000000000006271600000741580000248231000000000000000000000000000000000000000000000000000000000000000000000000000000000000000000000000000000000000000000801011200000000000001838361         000034444588000194J0000000000000000000000000000SUPERVISOR DE VENDAS20060701TNQ200000000202104072021020519801011N0000000000
M001SOLDI PROMOTORA DE VENDAS LTDA     0100003610000017005EDVANE PEREIRA DE OLIVEIRA         00EDVANE PEREIRA DE OLIVEIRA         NEWLAB ANALISES CLINICAS           507021783804030701801210407000000000007321600000741580000248231000000000000000000000000000000000000000000000000000000000000000000000000000000000000000000000000000000000000000000801011200000000000002146361         000034444588000194J0000000000000000000000000000SUPERVISOR DE VENDAS20060701TNQ200000000202104072021020519801011N0000000000
M001SOLDI PROMOTORA DE VENDAS LTDA     0100003610000017005EDVANE PEREIRA DE OLIVEIRA         00EDVANE PEREIRA DE OLIVEIRA         NEWLAB ANALISES CLINICAS           507021783804030702601210407000000000015711600000741580000248231000000000000000000000000000000000000000000000000000000000000000000000000000000000000000000000000000000000000000000801011200000000000004602361         000034444588000194J0000000000000000000000000000SUPERVISOR DE VENDAS20060701TNQ200000000202104072021020519801011N0000000000
M001SOLDI PROMOTORA DE VENDAS LTDA     0100003610000017005EDVANE PEREIRA DE OLIVEIRA         00EDVANE PEREIRA DE OLIVEIRA         NEWLAB ANALISES CLINICAS           507021783804030242301210407000000000001461600000741580000248231000000000000000000000000000000000000000000000000000000000000000000000000000000000000000000000000000000000000000000801011200000000000000430361         000034444588000194J0000000000000000000000000000SUPERVISOR DE VENDAS20060701TNQ200000000202104072021020519801011N0000000000
M001SOLDI PROMOTORA DE VENDAS LTDA     0100003610000017005EDVANE PEREIRA DE OLIVEIRA         00EDVANE PEREIRA DE OLIVEIRA         NEWLAB ANALISES CLINICAS           507021783804031622001210407000000000016751600000741580000248231000000000000000000000000000000000000000000000000000000000000000000000000000000000000000000000000000000000000000000801011200000000000004907361         000034444588000194J0000000000000000000000000000SUPERVISOR DE VENDAS20060701TNQ200000000202104072021020519801011N0000000000
M001SOLDI PROMOTORA DE VENDAS LTDA     0100003610000017005EDVANE PEREIRA DE OLIVEIRA         00EDVANE PEREIRA DE OLIVEIRA         NEWLAB ANALISES CLINICAS           507021783804030718201210407000000000015711600000741580000248231000000000000000000000000000000000000000000000000000000000000000000000000000000000000000000000000000000000000000000801011200000000000004602361         000034444588000194J0000000000000000000000000000SUPERVISOR DE VENDAS20060701TNQ200000000202104072021020519801011N0000000000
M001SOLDI PROMOTORA DE VENDAS LTDA     0100003610000017005EDVANE PEREIRA DE OLIVEIRA         00EDVANE PEREIRA DE OLIVEIRA         NEWLAB ANALISES CLINICAS           507021783804030776001210407000000000001041600000741580000248231000000000000000000000000000000000000000000000000000000000000000000000000000000000000000000000000000000000000000000801011200000000000000307361         000034444588000194J0000000000000000000000000000SUPERVISOR DE VENDAS20060701TNQ200000000202104072021020519801011N0000000000
M001SOLDI PROMOTORA DE VENDAS LTDA     0100003610000017005EDVANE PEREIRA DE OLIVEIRA         00EDVANE PEREIRA DE OLIVEIRA         NEWLAB ANALISES CLINICAS           507021783804031649101210407000000000008901600000741580000248231000000000000000000000000000000000000000000000000000000000000000000000000000000000000000000000000000000000000000000801011200000000000002606361         000034444588000194J0000000000000000000000000000SUPERVISOR DE VENDAS20060701TNQ200000000202104072021020519801011N0000000000
M001SOLDI PROMOTORA DE VENDAS LTDA     0100003610000017005EDVANE PEREIRA DE OLIVEIRA         00EDVANE PEREIRA DE OLIVEIRA         NEWLAB ANALISES CLINICAS           507021783804031650501210407000000000015711600000741580000248231000000000000000000000000000000000000000000000000000000000000000000000000000000000000000000000000000000000000000000801011200000000000004602361         000034444588000194J0000000000000000000000000000SUPERVISOR DE VENDAS20060701TNQ200000000202104072021020519801011N0000000000
M001SOLDI PROMOTORA DE VENDAS LTDA     0100003610000017005EDVANE PEREIRA DE OLIVEIRA         00EDVANE PEREIRA DE OLIVEIRA         NEWLAB ANALISES CLINICAS           507021783804031651301210407000000000010991600000741580000248231000000000000000000000000000000000000000000000000000000000000000000000000000000000000000000000000000000000000000000801011200000000000003220361         000034444588000194J0000000000000000000000000000SUPERVISOR DE VENDAS20060701TNQ200000000202104072021020519801011N0000000000
M001SOLDI PROMOTORA DE VENDAS LTDA     0100003610000017005EDVANE PEREIRA DE OLIVEIRA         00EDVANE PEREIRA DE OLIVEIRA         NEWLAB ANALISES CLINICAS           507021783804031652101210407000000000008901600000741580000248231000000000000000000000000000000000000000000000000000000000000000000000000000000000000000000000000000000000000000000801011200000000000002606361         000034444588000194J0000000000000000000000000000SUPERVISOR DE VENDAS20060701TNQ200000000202104072021020519801011N0000000000
M001SOLDI PROMOTORA DE VENDAS LTDA     0100003610000017005EDVANE PEREIRA DE OLIVEIRA         00EDVANE PEREIRA DE OLIVEIRA         NEWLAB ANALISES CLINICAS           507021783804031654801210407000000000006811600000741580000248231000000000000000000000000000000000000000000000000000000000000000000000000000000000000000000000000000000000000000000801011200000000000001995361         000034444588000194J0000000000000000000000000000SUPERVISOR DE VENDAS20060701TNQ200000000202104072021020519801011N0000000000
M001SOLDI PROMOTORA DE VENDAS LTDA     0100003610000017005EDVANE PEREIRA DE OLIVEIRA         00EDVANE PEREIRA DE OLIVEIRA         NEWLAB ANALISES CLINICAS           507021783804031655601210407000000000006811600000741580000248231000000000000000000000000000000000000000000000000000000000000000000000000000000000000000000000000000000000000000000801011200000000000001995361         000034444588000194J0000000000000000000000000000SUPERVISOR DE VENDAS20060701TNQ200000000202104072021020519801011N0000000000
M001SOLDI PROMOTORA DE VENDAS LTDA     0100003610000017005EDVANE PEREIRA DE OLIVEIRA         00EDVANE PEREIRA DE OLIVEIRA         NEWLAB ANALISES CLINICAS           507021783804031657201210407000000000008901600000741580000248231000000000000000000000000000000000000000000000000000000000000000000000000000000000000000000000000000000000000000000801011200000000000002606361         000034444588000194J0000000000000000000000000000SUPERVISOR DE VENDAS20060701TNQ200000000202104072021020519801011N0000000000
M001SOLDI PROMOTORA DE VENDAS LTDA     0100003610000017005EDVANE PEREIRA DE OLIVEIRA         00EDVANE PEREIRA DE OLIVEIRA         NEWLAB ANALISES CLINICAS           507021783804031624601210407000000000010471600000741580000248231000000000000000000000000000000000000000000000000000000000000000000000000000000000000000000000000000000000000000000801011200000000000003067361         000034444588000194J0000000000000000000000000000SUPERVISOR DE VENDAS20060701TNQ200000000202104072021020519801011N0000000000
M001SOLDI PROMOTORA DE VENDAS LTDA     0100003610000017005EDVANE PEREIRA DE OLIVEIRA         00EDVANE PEREIRA DE OLIVEIRA         NEWLAB ANALISES CLINICAS           507021783804031644001210407000000000020951600000741580000248231000000000000000000000000000000000000000000000000000000000000000000000000000000000000000000000000000000000000000000801011200000000000006135361         000034444588000194J0000000000000000000000000000SUPERVISOR DE VENDAS20060701TNQ200000000202104072021020519801011N0000000000
M001SOLDI PROMOTORA DE VENDAS LTDA     0100003610000017005EDVANE PEREIRA DE OLIVEIRA         00EDVANE PEREIRA DE OLIVEIRA         NEWLAB ANALISES CLINICAS           507021783804031645901210407000000000011521600000741580000248231000000000000000000000000000000000000000000000000000000000000000000000000000000000000000000000000000000000000000000801011200000000000003374361         000034444588000194J0000000000000000000000000000SUPERVISOR DE VENDAS20060701TNQ200000000202104072021020519801011N0000000000
M001SOLDI PROMOTORA DE VENDAS LTDA     0100003610000017005EDVANE PEREIRA DE OLIVEIRA         00EDVANE PEREIRA DE OLIVEIRA         NEWLAB ANALISES CLINICAS           507021783804031648301210407000000000020431600000741580000248231000000000000000000000000000000000000000000000000000000000000000000000000000000000000000000000000000000000000000000801011200000000000005984361         000034444588000194J0000000000000000000000000000SUPERVISOR DE VENDAS20060701TNQ200000000202104072021020519801011N0000000000
