HSINISTROS PAGOS074158210721073001000000001000000000000000000000000000000000000000000000000000000000000000000000000000000000000000000000000000000000000000000000000000000000000000000000000000000000000000000000000000000000000000000000000000000000000000000000000000000000000000000000000000000000000000000000000000000000000000000000000000000000000000000000000000000000000000000000000000000000000 012021072021073000000000000000000000000000000000000000000000000000000000000000000000000000000000000000000000
M001SOLDI PROMOTORA DE VENDAS LTDA     0100000190000110157PALOMA TATO RAMOS                  00PALOMA TATO RAMOS                  SEMIU                              20711517463340199920121072000000000006211000000074158000027091100000000000000000000000000000000000000000000000000000000000000000000000000000000000000000000000000000000000000000091032820000000000001818819          000034165969000134J0000000000000000000000000000CONSULTOR DE VENDAS 20110503TNE100000000202107202021052519910328N0000000000
M001SOLDI PROMOTORA DE VENDAS LTDA     0100000190000110157PALOMA TATO RAMOS                  00PALOMA TATO RAMOS                  SEMIU                              20711517463340199950121072000000000001067000000074158000027091100000000000000000000000000000000000000000000000000000000000000000000000000000000000000000000000000000000000000000091032820000000000000312719          000034165969000134J0000000000000000000000000000CONSULTOR DE VENDAS 20110503TNE100000000202107202021052519910328N0000000000
M001SOLDI PROMOTORA DE VENDAS LTDA     0100000190000110157PALOMA TATO RAMOS                  00PALOMA TATO RAMOS                  SEMIU                              10711517463101010390121072000000000003415160000074158000027091100000000000000000000000000000000000000000000000000000000000000000000000000000000000000000000000000000000000000000091032820000000000001000019          000034165969000134J0000000000000000000000000000CONSULTOR DE VENDAS 20110503TNE100000000202107202021052519910328N0000000000
M001SOLDI PROMOTORA DE VENDAS LTDA     0100000190000110157PALOMA TATO RAMOS                  00PALOMA TATO RAMOS                  SEMIU                              50711517463403012810121072000000000000166160000074158000027091100000000000000000000000000000000000000000000000000000000000000000000000000000000000000000000000000000000000000000091032820000000000000048819          000034165969000134J0000000000000000000000000000CONSULTOR DE VENDAS 20110503TNE100000000202107202021052519910328N0000000000
M001SOLDI PROMOTORA DE VENDAS LTDA     0100000190000110157PALOMA TATO RAMOS                  00PALOMA TATO RAMOS                  SEMIU                              50711517463403013970121072000000000000178160000074158000027091100000000000000000000000000000000000000000000000000000000000000000000000000000000000000000000000000000000000000000091032820000000000000052419          000034165969000134J0000000000000000000000000000CONSULTOR DE VENDAS 20110503TNE100000000202107202021052519910328N0000000000
M001SOLDI PROMOTORA DE VENDAS LTDA     0100000190000110157PALOMA TATO RAMOS                  00PALOMA TATO RAMOS                  SEMIU                              50711517463403016300121072000000000000166160000074158000027091100000000000000000000000000000000000000000000000000000000000000000000000000000000000000000000000000000000000000000091032820000000000000048819          000034165969000134J0000000000000000000000000000CONSULTOR DE VENDAS 20110503TNE100000000202107202021052519910328N0000000000
M001SOLDI PROMOTORA DE VENDAS LTDA     0100000190000110157PALOMA TATO RAMOS                  00PALOMA TATO RAMOS                  SEMIU                              50711517463403020400121072000000000000166160000074158000027091100000000000000000000000000000000000000000000000000000000000000000000000000000000000000000000000000000000000000000091032820000000000000048819          000034165969000134J0000000000000000000000000000CONSULTOR DE VENDAS 20110503TNE100000000202107202021052519910328N0000000000
M001SOLDI PROMOTORA DE VENDAS LTDA     0100000190000110157PALOMA TATO RAMOS                  00PALOMA TATO RAMOS                  SEMIU                              50711517463403043610121072000000000000357160000074158000027091100000000000000000000000000000000000000000000000000000000000000000000000000000000000000000000000000000000000000000091032820000000000000104619          000034165969000134J0000000000000000000000000000CONSULTOR DE VENDAS 20110503TNE100000000202107202021052519910328N0000000000
M001SOLDI PROMOTORA DE VENDAS LTDA     0100000190000110157PALOMA TATO RAMOS                  00PALOMA TATO RAMOS                  SEMIU                              50711517463403021990121072000000000000178160000074158000027091100000000000000000000000000000000000000000000000000000000000000000000000000000000000000000000000000000000000000000091032820000000000000052219          000034165969000134J0000000000000000000000000000CONSULTOR DE VENDAS 20110503TNE100000000202107202021052519910328N0000000000
M001SOLDI PROMOTORA DE VENDAS LTDA     0100000190000110157PALOMA TATO RAMOS                  00PALOMA TATO RAMOS                  SEMIU                              50711517463403083910121072000000000000798160000074158000027091100000000000000000000000000000000000000000000000000000000000000000000000000000000000000000000000000000000000000000091032820000000000000233719          000034165969000134J0000000000000000000000000000CONSULTOR DE VENDAS 20110503TNE100000000202107202021052519910328N0000000000
M001SOLDI PROMOTORA DE VENDAS LTDA     0100000190000110157PALOMA TATO RAMOS                  00PALOMA TATO RAMOS                  SEMIU                              50711517463403112100121072000000000000166160000074158000027091100000000000000000000000000000000000000000000000000000000000000000000000000000000000000000000000000000000000000000091032820000000000000048819          000034165969000134J0000000000000000000000000000CONSULTOR DE VENDAS 20110503TNE100000000202107202021052519910328N0000000000
M001SOLDI PROMOTORA DE VENDAS LTDA     0100000190000110157PALOMA TATO RAMOS                  00PALOMA TATO RAMOS                  SEMIU                              60711517463410010950121072000000000017955160000074158000027091100000000000000000000000000000000000000000000000000000000000000000000000000000000000000000000000000000000000000000091032820000000000005257219          000034165969000134J0000000000000000000000000000CONSULTOR DE VENDAS 20110503TNE100000000202107202021052519910328N0000000000
M001SOLDI PROMOTORA DE VENDAS LTDA     0100000190000110157PALOMA TATO RAMOS                  00PALOMA TATO RAMOS                  HOSPITAL CAXIAS DOR                20712409162840010110121073000000000011070000000074158000041421200000000000000000000000000000000000000000000000000000000000000000000000000000000000000000000000000000000000000000091032820000000000003241419          000006047087001372J0000000000000000000000000000CONSULTOR DE VENDAS 20110503TNE100000000202107302021052819910328N0000000000
M001SOLDI PROMOTORA DE VENDAS LTDA     0100001320000118002JOSE LEITE RIBEIRO TAVARES         03ILANA DE MEDEIROS TAVARES LEITE    HOSPITAL PORTUGUES                 191275807031010101200210701000000000035521600000741580000772593000000000000000000000000000000000000000000000000000000000000000000000000000000000000000000000000000000000000000000100615220000000000010400132         030010892164000124J0000000000000000000000000000GERENTE COMERCIAL I 20080218TNQ200000000202107012021061020100615N0000000000
M001SOLDI PROMOTORA DE VENDAS LTDA     0100001320000118002JOSE LEITE RIBEIRO TAVARES         03ILANA DE MEDEIROS TAVARES LEITE    HOSPITAL PORTUGUES                 207101607558400329401210701000000000084440000000741580000399702000000000000000000000000000000000000000000000000000000000000000000000000000000000000000000000000000000000000000000100615220000000000024725132         030010892164000205J0000000000000000000000000000GERENTE COMERCIAL I 20080218TNQ200000000202107012021050420100615N0000000000
M001SOLDI PROMOTORA DE VENDAS LTDA     0100001320000118002JOSE LEITE RIBEIRO TAVARES         03ILANA DE MEDEIROS TAVARES LEITE    HOSPITAL PORTUGUES                 107101607551010103901210701000000000035521600000741580000399702000000000000000000000000000000000000000000000000000000000000000000000000000000000000000000000000000000000000000000100615220000000000010400132         030010892164000205J0000000000000000000000000000GERENTE COMERCIAL I 20080218TNQ200000000202107012021050420100615N0000000000
M001SOLDI PROMOTORA DE VENDAS LTDA     0100001320000118002JOSE LEITE RIBEIRO TAVARES         01LUCIDIA DE MEDEIROS TAVARES        ISIS GRAZIELA DA SILVA LIMA RODRIGU207133624875000056001210712000000000014871600000741580060022200000000000000000000000000000000000000000000000000000000000000000000000000000000000000000000000000000000000000000000710811216000000000004355132         010000093477350510F0000000000000000000000000000GERENTE COMERCIAL I 20080218TNQ200000000202107122021063019710811N0000000000
M001SOLDI PROMOTORA DE VENDAS LTDA     0100001320000118002JOSE LEITE RIBEIRO TAVARES         03ILANA DE MEDEIROS TAVARES LEITE    ESPACO INTEGRAR                    207118995855000047001210722000000000014931600000741580000930792000000000000000000000000000000000000000000000000000000000000000000000000000000000000000000000000000000000000000000100615220000000000004374132         030011422364000186J0000000000000000000000000000GERENTE COMERCIAL I 20080218TNQ200000000202107222021051820100615N0000000000
M001SOLDI PROMOTORA DE VENDAS LTDA     0100001320000118002JOSE LEITE RIBEIRO TAVARES         03ILANA DE MEDEIROS TAVARES LEITE    ESPACO INTEGRAR                    207118995855000047001210722000000000014931600000741580000930792000000000000000000000000000000000000000000000000000000000000000000000000000000000000000000000000000000000000000000100615220000000000004374132         030011422364000186J0000000000000000000000000000GERENTE COMERCIAL I 20080218TNQ200000000202107222021051820100615N0000000000
M001SOLDI PROMOTORA DE VENDAS LTDA     0100001320000118002JOSE LEITE RIBEIRO TAVARES         03ILANA DE MEDEIROS TAVARES LEITE    ESPACO INTEGRAR                    207118996785000046201210722000000000016401600000741580000930792000000000000000000000000000000000000000000000000000000000000000000000000000000000000000000000000000000000000000000100615220000000000004804132         030011422364000186J0000000000000000000000000000GERENTE COMERCIAL I 20080218TNQ200000000202107222021051120100615N0000000000
M001SOLDI PROMOTORA DE VENDAS LTDA     0100001590000118023THALITA MENDES DE ALMEIDA LIMA     02MARINA MENDES LIMA                 HOSPITAL DAS NEVES                 207101655158400014701210701000000000116080000000741580000432911000000000000000000000000000000000000000000000000000000000000000000000000000000000000000000000000000000000000000000091216220000000000033990159         020001817749000199J0000000000000000000000000000CONSULTOR DE VENDAS 20110110TNE100000000202107012021052120091216N0000000000
M001SOLDI PROMOTORA DE VENDAS LTDA     0100001590000118023THALITA MENDES DE ALMEIDA LIMA     00THALITA MENDES DE ALMEIDA LIMA     SOS OTORRINO                       101783713231010101200210702000000000035521600000741580000405302000000000000000000000000000000000000000000000000000000000000000000000000000000000000000000000000000000000000000000891208200000000000010400159         000010574074000195J0000000000000000000000000000CONSULTOR DE VENDAS 20110110TNE100000000202107022021051819891208N0000000000
M001SOLDI PROMOTORA DE VENDAS LTDA     0100001830000119012MARINALVA DE FREITAS COSTA         00MARINALVA DE FREITAS COSTA         COOPEGO                            100220271961010101200210729000000000035521600000741580000633798000000000000000000000000000000000000000000000000000000000000000000000000000000000000000000000000000000000000000000781225200000000000010400183         000041314303000166J0000000000000000000000000000SUPERVISOR DE VENDAS20090720TNE100000000202107292021062519781225N0000000000
M001SOLDI PROMOTORA DE VENDAS LTDA     0100002050000120018ANDREZA SANTOS HUMSI RAYES         00ANDREZA SANTOS HUMSI RAYES         HOSPITAL NOSSO LAR                 107113162531010101201210716000000000035521600000741580000389202000000000000000000000000000000000000000000000000000000000000000000000000000000000000000000000000000000000000000000761030200000000000010400205         000003267101000464J0000000000000000000000000000CONSULTOR DE VENDAS 20100809TNE100000000202107162021051919761030N0000000000
M001SOLDI PROMOTORA DE VENDAS LTDA     0100002640000013086ANTONIA DE SOUSA GOMES FEIJAO      00ANTONIA DE SOUSA GOMES FEIJAO      LABS A + MEDICINA DIAGNOSTICA      507014321364030283001210707000000000001331600000741580000697672000000000000000000000000000000000000000000000000000000000000000000000000000000000000000000000000000000000000000000601013200000000000000390264         000060840055025398J0000000000000000000000000000AUXILIAR DE SERVICOS20100503TNE100000000202107072021012219601013N0000000000
M001SOLDI PROMOTORA DE VENDAS LTDA     0100002640000013086ANTONIA DE SOUSA GOMES FEIJAO      00ANTONIA DE SOUSA GOMES FEIJAO      MONALIZA GOMES DE CARVALHO         101825608751010101200210708000000000035521600000741580038034000000000000000000000000000000000000000000000000000000000000000000000000000000000000000000000000000000000000000000000601013203800000000010400264         000000072921889749F0000000000000000000000000000AUXILIAR DE SERVICOS20100503TNE100000000202107082021061419601013N0000000000
M001SOLDI PROMOTORA DE VENDAS LTDA     0100002640000013086ANTONIA DE SOUSA GOMES FEIJAO      00ANTONIA DE SOUSA GOMES FEIJAO      PROSAUDE                           207108527835000056001210709000000000015931600000741580000887927000000000000000000000000000000000000000000000000000000000000000000000000000000000000000000000000000000000000000000601013200000000000004665264         000002355330000125J0000000000000000000000000000AUXILIAR DE SERVICOS20100503TNE100000000202107092021042219601013N0000000000
M001SOLDI PROMOTORA DE VENDAS LTDA     0100002640000013086ANTONIA DE SOUSA GOMES FEIJAO      01ANTONIO EGBERTO FEIJAO             PROSAUDE                           101843366141010101200210720000000000035521600000741580000887927000000000000000000000000000000000000000000000000000000000000000000000000000000000000000000000000000000000000000000550607110000000000010400264         010002355330000125J0000000000000000000000000000AUXILIAR DE SERVICOS20100503TNE100000000202107202021062619550607N0000000000
M001SOLDI PROMOTORA DE VENDAS LTDA     0100002640000013086ANTONIA DE SOUSA GOMES FEIJAO      01ANTONIO EGBERTO FEIJAO             PROSAUDE                           100219721001010101200210722000000000035521600000741580000990795000000000000000000000000000000000000000000000000000000000000000000000000000000000000000000000000000000000000000000550607110000000000010400264         010002355330000397J0000000000000000000000000000AUXILIAR DE SERVICOS20100503TNE100000000202107222021070819550607N0000000000
M001SOLDI PROMOTORA DE VENDAS LTDA     0100002640000013086ANTONIA DE SOUSA GOMES FEIJAO      01ANTONIO EGBERTO FEIJAO             HOSPITAL DE OLHOS NITEROI          207122022273401999201210727000000000003300000000741580000194123000000000000000000000000000000000000000000000000000000000000000000000000000000000000000000000000000000000000000000550607110000000000000969264         010039256128000156J0000000000000000000000000000AUXILIAR DE SERVICOS20100503TNE100000000202107272021060119550607N0000000000
M001SOLDI PROMOTORA DE VENDAS LTDA     0100002640000013086ANTONIA DE SOUSA GOMES FEIJAO      01ANTONIO EGBERTO FEIJAO             HOSPITAL DE OLHOS NITEROI          207122022273031204301210727000000000095351600000741580000194123000000000000000000000000000000000000000000000000000000000000000000000000000000000000000000000000000000000000000000550607110000000000027920264         010039256128000156J0000000000000000000000000000AUXILIAR DE SERVICOS20100503TNE100000000202107272021060119550607N0000000000
M001SOLDI PROMOTORA DE VENDAS LTDA     0100002640000013086ANTONIA DE SOUSA GOMES FEIJAO      01ANTONIO EGBERTO FEIJAO             HOSPITAL DE OLHOS NITEROI          207122022323401999201210727000000000003300000000741580000194123000000000000000000000000000000000000000000000000000000000000000000000000000000000000000000000000000000000000000000550607110000000000000969264         010039256128000156J0000000000000000000000000000AUXILIAR DE SERVICOS20100503TNE100000000202107272021060819550607N0000000000
M001SOLDI PROMOTORA DE VENDAS LTDA     0100002640000013086ANTONIA DE SOUSA GOMES FEIJAO      01ANTONIO EGBERTO FEIJAO             HOSPITAL DE OLHOS NITEROI          207122022323031204301210727000000000095351600000741580000194123000000000000000000000000000000000000000000000000000000000000000000000000000000000000000000000000000000000000000000550607110000000000027920264         010039256128000156J0000000000000000000000000000AUXILIAR DE SERVICOS20100503TNE100000000202107272021060819550607N0000000000
M001SOLDI PROMOTORA DE VENDAS LTDA     0100002640000013086ANTONIA DE SOUSA GOMES FEIJAO      01ANTONIO EGBERTO FEIJAO             HOSPITAL DE OLHOS NITEROI          507122023004090153002210727000000000052841600000741580000194123000000000000000000000000000000000000000000000000000000000000000000000000000000000000000000000000000000000000000000550607110000000000015472264         010039256128000156J0000000000000000000000000000AUXILIAR DE SERVICOS20100503TNE100000000202107272021060819550607N0000000000
M001SOLDI PROMOTORA DE VENDAS LTDA     0100002800000013097SAMUEL DE FRANCA PESSOA JUNIOR     00SAMUEL DE FRANCA PESSOA JUNIOR     LABORATORIO SERGIO FRANCO          507111234708431461301210713000000000071720000000741580000863670000000000000000000000000000000000000000000000000000000000000000000000000000000000000000000000000000000000000000000830427200000000000021000280         000061486650049867J0000000000000000000000000000CONSULTOR DE VENDAS 20110317TNE100000000202107132021051119830427N0000000000
M001SOLDI PROMOTORA DE VENDAS LTDA     0100002800000013097SAMUEL DE FRANCA PESSOA JUNIOR     00SAMUEL DE FRANCA PESSOA JUNIOR     EDNA MARILIA REIS                  507148937914010101001210729000000000007481600000741580004105800000000000000000000000000000000000000000000000000000000000000000000000000000000000000000000000000000000000000000000830427200400000000002191280         000000072839775700F0000000000000000000000000000CONSULTOR DE VENDAS 20110317TNE100000000202107292021070719830427N0000000000
M001SOLDI PROMOTORA DE VENDAS LTDA     0100003020000133127ANA PAULA RODRIGUES BRAGA RAMALHO  01MATEUS LEVI RAMALHO DE OLIVEIRA    UPDATE                             101820532481010101200210701000000000035521600000741580000882127000000000000000000000000000000000000000000000000000000000000000000000000000000000000000000000000000000000000000000160410120000000000010400302         010002766875000124J0000000000000000000000000000CONSULTOR DE VENDAS 20100601TNE100000000202107012021061020160410N0000000000
M001SOLDI PROMOTORA DE VENDAS LTDA     0100003020000133127ANA PAULA RODRIGUES BRAGA RAMALHO  00ANA PAULA RODRIGUES BRAGA RAMALHO  TRAUMA CENTER                      107102011321010101201210701000000000035521600000741580000812528000000000000000000000000000000000000000000000000000000000000000000000000000000000000000000000000000000000000000000880812200000000000010400302         000002561150000108J0000000000000000000000000000CONSULTOR DE VENDAS 20100601TNE100000000202107012021051319880812N0000000000
M001SOLDI PROMOTORA DE VENDAS LTDA     0100003020000133127ANA PAULA RODRIGUES BRAGA RAMALHO  00ANA PAULA RODRIGUES BRAGA RAMALHO  TRAUMA CENTER                      507102011324080205101210701000000000012991600000741580000812528000000000000000000000000000000000000000000000000000000000000000000000000000000000000000000000000000000000000000000880812200000000000003806302         000002561150000108J0000000000000000000000000000CONSULTOR DE VENDAS 20100601TNE100000000202107012021051319880812N0000000000
M001SOLDI PROMOTORA DE VENDAS LTDA     0100003020000133127ANA PAULA RODRIGUES BRAGA RAMALHO  00ANA PAULA RODRIGUES BRAGA RAMALHO  CLI DE ONCOLOG E MASTOLOGIA        100217799391010101200210707000000000035521600000741580000142425000000000000000000000000000000000000000000000000000000000000000000000000000000000000000000000000000000000000000000880812200000000000010400302         000010730521000158J0000000000000000000000000000CONSULTOR DE VENDAS 20100601TNE100000000202107072021061119880812N0000000000
M001SOLDI PROMOTORA DE VENDAS LTDA     0100003020000133127ANA PAULA RODRIGUES BRAGA RAMALHO  01MATEUS LEVI RAMALHO DE OLIVEIRA    CLINICA INTEGRADA                  207108184305000047001210709000000000014931600000741580000707295000000000000000000000000000000000000000000000000000000000000000000000000000000000000000000000000000000000000000000160410120000000000004374302         010005275757000101J0000000000000000000000000000CONSULTOR DE VENDAS 20100601TNE100000000202107092021050320160410N0000000000
M001SOLDI PROMOTORA DE VENDAS LTDA     0100003020000133127ANA PAULA RODRIGUES BRAGA RAMALHO  01MATEUS LEVI RAMALHO DE OLIVEIRA    CLINICA INTEGRADA                  207108184305000047001210709000000000014931600000741580000707295000000000000000000000000000000000000000000000000000000000000000000000000000000000000000000000000000000000000000000160410120000000000004374302         010005275757000101J0000000000000000000000000000CONSULTOR DE VENDAS 20100601TNE100000000202107092021050320160410N0000000000
M001SOLDI PROMOTORA DE VENDAS LTDA     0100003020000133127ANA PAULA RODRIGUES BRAGA RAMALHO  01MATEUS LEVI RAMALHO DE OLIVEIRA    CLINICA INTEGRADA                  207108184305000047001210709000000000014931600000741580000707295000000000000000000000000000000000000000000000000000000000000000000000000000000000000000000000000000000000000000000160410120000000000004374302         010005275757000101J0000000000000000000000000000CONSULTOR DE VENDAS 20100601TNE100000000202107092021050320160410N0000000000
M001SOLDI PROMOTORA DE VENDAS LTDA     0100003020000133127ANA PAULA RODRIGUES BRAGA RAMALHO  01MATEUS LEVI RAMALHO DE OLIVEIRA    CLINICA INTEGRADA                  207108184305000047001210709000000000014931600000741580000707295000000000000000000000000000000000000000000000000000000000000000000000000000000000000000000000000000000000000000000160410120000000000004374302         010005275757000101J0000000000000000000000000000CONSULTOR DE VENDAS 20100601TNE100000000202107092021050320160410N0000000000
M001SOLDI PROMOTORA DE VENDAS LTDA     0100003020000133127ANA PAULA RODRIGUES BRAGA RAMALHO  01MATEUS LEVI RAMALHO DE OLIVEIRA    CLINICA INTEGRADA                  207108184305000047001210709000000000014931600000741580000707295000000000000000000000000000000000000000000000000000000000000000000000000000000000000000000000000000000000000000000160410120000000000004374302         010005275757000101J0000000000000000000000000000CONSULTOR DE VENDAS 20100601TNE100000000202107092021050320160410N0000000000
M001SOLDI PROMOTORA DE VENDAS LTDA     0100003020000133127ANA PAULA RODRIGUES BRAGA RAMALHO  00ANA PAULA RODRIGUES BRAGA RAMALHO  INSTITUTO DE GINECOLOGIA           507108482444090111401210713000000000018711600000741580000846236000000000000000000000000000000000000000000000000000000000000000000000000000000000000000000000000000000000000000000880812200000000000005481302         000001734887000104J0000000000000000000000000000CONSULTOR DE VENDAS 20100601TNE100000000202107132021050519880812N0000000000
M001SOLDI PROMOTORA DE VENDAS LTDA     0100003020000133127ANA PAULA RODRIGUES BRAGA RAMALHO  00ANA PAULA RODRIGUES BRAGA RAMALHO  INSTITUTO DE GINECOLOGIA           507108482444090130001210713000000000026751600000741580000846236000000000000000000000000000000000000000000000000000000000000000000000000000000000000000000000000000000000000000000880812200000000000007833302         000001734887000104J0000000000000000000000000000CONSULTOR DE VENDAS 20100601TNE100000000202107132021050519880812N0000000000
M001SOLDI PROMOTORA DE VENDAS LTDA     0100003020000133127ANA PAULA RODRIGUES BRAGA RAMALHO  01MATEUS LEVI RAMALHO DE OLIVEIRA    PRONTOCLINICA DA CRIANCA           207125358248400040601210730000000000061470000000741580000141410000000000000000000000000000000000000000000000000000000000000000000000000000000000000000000000000000000000000000000160410120000000000018000302         010009417742000191J0000000000000000000000000000CONSULTOR DE VENDAS 20100601TNE100000000202107302021062020160410N0000000000
M001SOLDI PROMOTORA DE VENDAS LTDA     0100003020000133127ANA PAULA RODRIGUES BRAGA RAMALHO  01MATEUS LEVI RAMALHO DE OLIVEIRA    PRONTOCLINICA DA CRIANCA           207125358243010179401210730000000000023221600000741580000141410000000000000000000000000000000000000000000000000000000000000000000000000000000000000000000000000000000000000000000160410120000000000006800302         010009417742000191J0000000000000000000000000000CONSULTOR DE VENDAS 20100601TNE100000000202107302021062020160410N0000000000
M001SOLDI PROMOTORA DE VENDAS LTDA     0100003100000133146MARIA BETANIA SILVA DA TRINDADE    00MARIA BETANIA SILVA DA TRINDADE    PRO MULHER                         507089225484090118101210701000000000011591600000741580000356930000000000000000000000000000000000000000000000000000000000000000000000000000000000000000000000000000000000000000000770921200000000000003395310         000070003454000100J0000000000000000000000000000CONSULTOR DE VENDAS 20110601TNE100000000202107012021042819770921N0000000000
M001SOLDI PROMOTORA DE VENDAS LTDA     0100003100000133146MARIA BETANIA SILVA DA TRINDADE    00MARIA BETANIA SILVA DA TRINDADE    PRO MULHER                         507089225484090130001210701000000000030811600000741580000356930000000000000000000000000000000000000000000000000000000000000000000000000000000000000000000000000000000000000000000770921200000000000009023310         000070003454000100J0000000000000000000000000000CONSULTOR DE VENDAS 20110601TNE100000000202107012021042819770921N0000000000
M001SOLDI PROMOTORA DE VENDAS LTDA     0100003100000133146MARIA BETANIA SILVA DA TRINDADE    00MARIA BETANIA SILVA DA TRINDADE    PRO MULHER                         507089225484090111401210701000000000018711600000741580000356930000000000000000000000000000000000000000000000000000000000000000000000000000000000000000000000000000000000000000000770921200000000000005481310         000070003454000100J0000000000000000000000000000CONSULTOR DE VENDAS 20110601TNE100000000202107012021042819770921N0000000000
M001SOLDI PROMOTORA DE VENDAS LTDA     0100003100000133146MARIA BETANIA SILVA DA TRINDADE    01MURILO GABRIEL TRINDADE TENORIO    HOSPITAL DE OLHOS SANTA LUZIA      101846839241010101200210713000000000035521600000741580000165402000000000000000000000000000000000000000000000000000000000000000000000000000000000000000000000000000000000000000000120518120000000000010400310         010012305371000160J0000000000000000000000000000CONSULTOR DE VENDAS 20110601TNE100000000202107132021062920120518N0000000000
M001SOLDI PROMOTORA DE VENDAS LTDA     0100003100000133146MARIA BETANIA SILVA DA TRINDADE    00MARIA BETANIA SILVA DA TRINDADE    HOSPITAL DE OLHOS SANTA LUZIA      191846844311010101200210713000000000035521600000741580000165402000000000000000000000000000000000000000000000000000000000000000000000000000000000000000000000000000000000000000000770921200000000000010400310         000012305371000160J0000000000000000000000000000CONSULTOR DE VENDAS 20110601TNE100000000202107132021062919770921N0000000000
M001SOLDI PROMOTORA DE VENDAS LTDA     0100003290000133158CARLA C GUILHERME SILVA MARQUES    00CARLA C GUILHERME SILVA MARQUES    PRO MULHER                         507096239944090130001210705000000000030811600000741580000356930000000000000000000000000000000000000000000000000000000000000000000000000000000000000000000000000000000000000000000860103200000000000009023329         000070003454000100J0000000000000000000000000000CONSULTOR DE VENDAS 20110701TNE100000000202107052021051319860103N0000000000
M001SOLDI PROMOTORA DE VENDAS LTDA     0100003290000133158CARLA C GUILHERME SILVA MARQUES    00CARLA C GUILHERME SILVA MARQUES    PRO MULHER                         507096239944090111401210705000000000018711600000741580000356930000000000000000000000000000000000000000000000000000000000000000000000000000000000000000000000000000000000000000000860103200000000000005481329         000070003454000100J0000000000000000000000000000CONSULTOR DE VENDAS 20110701TNE100000000202107052021051319860103N0000000000
M001SOLDI PROMOTORA DE VENDAS LTDA     0100003290000133158CARLA C GUILHERME SILVA MARQUES    00CARLA C GUILHERME SILVA MARQUES    PRO MULHER                         507096239944090118101210705000000000011591600000741580000356930000000000000000000000000000000000000000000000000000000000000000000000000000000000000000000000000000000000000000000860103200000000000003395329         000070003454000100J0000000000000000000000000000CONSULTOR DE VENDAS 20110701TNE100000000202107052021051319860103N0000000000
M001SOLDI PROMOTORA DE VENDAS LTDA     0100003290000133158CARLA C GUILHERME SILVA MARQUES    01JOSE WELLINGTON MARQUES            HOSPITAL DE OLHOS SANTA LUZIA      507109045924130132301210713000000000004421600000741580000165402000000000000000000000000000000000000000000000000000000000000000000000000000000000000000000000000000000000000000000770116110000000000001296329         010012305371000160J0000000000000000000000000000CONSULTOR DE VENDAS 20110701TNE100000000202107132021052919770116N0000000000
M001SOLDI PROMOTORA DE VENDAS LTDA     0100003290000133158CARLA C GUILHERME SILVA MARQUES    01JOSE WELLINGTON MARQUES            HOSPITAL DE OLHOS SANTA LUZIA      607109045924130142002210713000000000102461600000741580000165402000000000000000000000000000000000000000000000000000000000000000000000000000000000000000000000000000000000000000000770116110000000000030000329         010012305371000160J0000000000000000000000000000CONSULTOR DE VENDAS 20110701TNE100000000202107132021052919770116N0000000000
M001SOLDI PROMOTORA DE VENDAS LTDA     0100003290000133158CARLA C GUILHERME SILVA MARQUES    00CARLA C GUILHERME SILVA MARQUES    HOSPITAL DE OLHOS SANTA LUZIA      507109045904130108002210713000000000063861600000741580000165402000000000000000000000000000000000000000000000000000000000000000000000000000000000000000000000000000000000000000000860103200000000000018700329         000012305371000160J0000000000000000000000000000CONSULTOR DE VENDAS 20110701TNE100000000202107132021052919860103N0000000000
M001SOLDI PROMOTORA DE VENDAS LTDA     0100003290000133158CARLA C GUILHERME SILVA MARQUES    01JOSE WELLINGTON MARQUES            HOSPITAL DE OLHOS SANTA LUZIA      507109045924130124201210713000000000015961600000741580000165402000000000000000000000000000000000000000000000000000000000000000000000000000000000000000000000000000000000000000000770116110000000000004674329         010012305371000160J0000000000000000000000000000CONSULTOR DE VENDAS 20110701TNE100000000202107132021052919770116N0000000000
M001SOLDI PROMOTORA DE VENDAS LTDA     0100003290000133158CARLA C GUILHERME SILVA MARQUES    00CARLA C GUILHERME SILVA MARQUES    HOSPITAL DE OLHOS SANTA LUZIA      507109045894130124201210713000000000015961600000741580000165402000000000000000000000000000000000000000000000000000000000000000000000000000000000000000000000000000000000000000000860103200000000000004674329         000012305371000160J0000000000000000000000000000CONSULTOR DE VENDAS 20110701TNE100000000202107132021052919860103N0000000000
M001SOLDI PROMOTORA DE VENDAS LTDA     0100003290000133158CARLA C GUILHERME SILVA MARQUES    00CARLA C GUILHERME SILVA MARQUES    HOSPITAL DE OLHOS SANTA LUZIA      507109045894130132301210713000000000004421600000741580000165402000000000000000000000000000000000000000000000000000000000000000000000000000000000000000000000000000000000000000000860103200000000000001296329         000012305371000160J0000000000000000000000000000CONSULTOR DE VENDAS 20110701TNE100000000202107132021052919860103N0000000000
M001SOLDI PROMOTORA DE VENDAS LTDA     0100003290000133158CARLA C GUILHERME SILVA MARQUES    00CARLA C GUILHERME SILVA MARQUES    HOSPITAL DE OLHOS SANTA LUZIA      207109045904130126902210713000000000089421600000741580000165402000000000000000000000000000000000000000000000000000000000000000000000000000000000000000000000000000000000000000000860103200000000000026184329         000012305371000160J0000000000000000000000000000CONSULTOR DE VENDAS 20110701TNE100000000202107132021052919860103N0000000000
M001SOLDI PROMOTORA DE VENDAS LTDA     0100003290000133158CARLA C GUILHERME SILVA MARQUES    00CARLA C GUILHERME SILVA MARQUES    HOSPITAL DE OLHOS SANTA LUZIA      507109045904150112802210713000000000038321600000741580000165402000000000000000000000000000000000000000000000000000000000000000000000000000000000000000000000000000000000000000000860103200000000000011220329         000012305371000160J0000000000000000000000000000CONSULTOR DE VENDAS 20110701TNE100000000202107132021052919860103N0000000000
M001SOLDI PROMOTORA DE VENDAS LTDA     0100003290000133158CARLA C GUILHERME SILVA MARQUES    01JOSE WELLINGTON MARQUES            HOSPITAL DE OLHOS SANTA LUZIA      507109045914130108002210713000000000063861600000741580000165402000000000000000000000000000000000000000000000000000000000000000000000000000000000000000000000000000000000000000000770116110000000000018700329         010012305371000160J0000000000000000000000000000CONSULTOR DE VENDAS 20110701TNE100000000202107132021052919770116N0000000000
M001SOLDI PROMOTORA DE VENDAS LTDA     0100003290000133158CARLA C GUILHERME SILVA MARQUES    01JOSE WELLINGTON MARQUES            HOSPITAL DE OLHOS SANTA LUZIA      207109045914130126902210713000000000089421600000741580000165402000000000000000000000000000000000000000000000000000000000000000000000000000000000000000000000000000000000000000000770116110000000000026184329         010012305371000160J0000000000000000000000000000CONSULTOR DE VENDAS 20110701TNE100000000202107132021052919770116N0000000000
M001SOLDI PROMOTORA DE VENDAS LTDA     0100003290000133158CARLA C GUILHERME SILVA MARQUES    00CARLA C GUILHERME SILVA MARQUES    HOSPITAL DE OLHOS SANTA LUZIA      607109045894130142002210713000000000102461600000741580000165402000000000000000000000000000000000000000000000000000000000000000000000000000000000000000000000000000000000000000000860103200000000000030000329         000012305371000160J0000000000000000000000000000CONSULTOR DE VENDAS 20110701TNE100000000202107132021052919860103N0000000000
M001SOLDI PROMOTORA DE VENDAS LTDA     0100003290000133158CARLA C GUILHERME SILVA MARQUES    01JOSE WELLINGTON MARQUES            HOSPITAL DE OLHOS SANTA LUZIA      507109045914150112802210713000000000038321600000741580000165402000000000000000000000000000000000000000000000000000000000000000000000000000000000000000000000000000000000000000000770116110000000000011220329         010012305371000160J0000000000000000000000000000CONSULTOR DE VENDAS 20110701TNE100000000202107132021052919770116N0000000000
M001SOLDI PROMOTORA DE VENDAS LTDA     0100003290000133158CARLA C GUILHERME SILVA MARQUES    00CARLA C GUILHERME SILVA MARQUES    LABORATORIO ANAL PROCLINICO        507112243744031461801210716000000000085381600000741580000137030000000000000000000000000000000000000000000000000000000000000000000000000000000000000000000000000000000000000000000860103200000000000025000329         000012388096000196J0000000000000000000000000000CONSULTOR DE VENDAS 20110701TNE100000000202107162021051919860103N0000000000
M001SOLDI PROMOTORA DE VENDAS LTDA     0100003290000133158CARLA C GUILHERME SILVA MARQUES    00CARLA C GUILHERME SILVA MARQUES    STA CASA DE MIS DE MACEIO          507119262574030204001210723000000000001721600000741580000100633000000000000000000000000000000000000000000000000000000000000000000000000000000000000000000000000000000000000000000860103200000000000000506329         000012307187000150J0000000000000000000000000000CONSULTOR DE VENDAS 20110701TNE100000000202107232021051419860103N0000000000
M001SOLDI PROMOTORA DE VENDAS LTDA     0100003290000133158CARLA C GUILHERME SILVA MARQUES    00CARLA C GUILHERME SILVA MARQUES    STA CASA DE MIS DE MACEIO          507119262574030207501210723000000000005541600000741580000100633000000000000000000000000000000000000000000000000000000000000000000000000000000000000000000000000000000000000000000860103200000000000001623329         000012307187000150J0000000000000000000000000000CONSULTOR DE VENDAS 20110701TNE100000000202107232021051419860103N0000000000
M001SOLDI PROMOTORA DE VENDAS LTDA     0100003290000133158CARLA C GUILHERME SILVA MARQUES    00CARLA C GUILHERME SILVA MARQUES    STA CASA DE MIS DE MACEIO          507119262574030275001210723000000000008621600000741580000100633000000000000000000000000000000000000000000000000000000000000000000000000000000000000000000000000000000000000000000860103200000000000002525329         000012307187000150J0000000000000000000000000000CONSULTOR DE VENDAS 20110701TNE100000000202107232021051419860103N0000000000
M001SOLDI PROMOTORA DE VENDAS LTDA     0100003290000133158CARLA C GUILHERME SILVA MARQUES    00CARLA C GUILHERME SILVA MARQUES    STA CASA DE MIS DE MACEIO          507119262574030283001210723000000000012091600000741580000100633000000000000000000000000000000000000000000000000000000000000000000000000000000000000000000000000000000000000000000860103200000000000003540329         000012307187000150J0000000000000000000000000000CONSULTOR DE VENDAS 20110701TNE100000000202107232021051419860103N0000000000
M001SOLDI PROMOTORA DE VENDAS LTDA     0100003290000133158CARLA C GUILHERME SILVA MARQUES    00CARLA C GUILHERME SILVA MARQUES    STA CASA DE MIS DE MACEIO          507119262574030436101210723000000000003691600000741580000100633000000000000000000000000000000000000000000000000000000000000000000000000000000000000000000000000000000000000000000860103200000000000001083329         000012307187000150J0000000000000000000000000000CONSULTOR DE VENDAS 20110701TNE100000000202107232021051419860103N0000000000
M001SOLDI PROMOTORA DE VENDAS LTDA     0100003290000133158CARLA C GUILHERME SILVA MARQUES    00CARLA C GUILHERME SILVA MARQUES    STA CASA DE MIS DE MACEIO          507119262574031624601210723000000000012321600000741580000100633000000000000000000000000000000000000000000000000000000000000000000000000000000000000000000000000000000000000000000860103200000000000003609329         000012307187000150J0000000000000000000000000000CONSULTOR DE VENDAS 20110701TNE100000000202107232021051419860103N0000000000
M001SOLDI PROMOTORA DE VENDAS LTDA     0100003290000133158CARLA C GUILHERME SILVA MARQUES    00CARLA C GUILHERME SILVA MARQUES    STA CASA DE MIS DE MACEIO          507119262574031628901210723000000000008011600000741580000100633000000000000000000000000000000000000000000000000000000000000000000000000000000000000000000000000000000000000000000860103200000000000002347329         000012307187000150J0000000000000000000000000000CONSULTOR DE VENDAS 20110701TNE100000000202107232021051419860103N0000000000
M001SOLDI PROMOTORA DE VENDAS LTDA     0100003290000133158CARLA C GUILHERME SILVA MARQUES    00CARLA C GUILHERME SILVA MARQUES    STA CASA DE MIS DE MACEIO          507119262574031633501210723000000000008011600000741580000100633000000000000000000000000000000000000000000000000000000000000000000000000000000000000000000000000000000000000000000860103200000000000002347329         000012307187000150J0000000000000000000000000000CONSULTOR DE VENDAS 20110701TNE100000000202107232021051419860103N0000000000
M001SOLDI PROMOTORA DE VENDAS LTDA     0100003290000133158CARLA C GUILHERME SILVA MARQUES    00CARLA C GUILHERME SILVA MARQUES    STA CASA DE MIS DE MACEIO          507119262574031641601210723000000000010471600000741580000100633000000000000000000000000000000000000000000000000000000000000000000000000000000000000000000000000000000000000000000860103200000000000003066329         000012307187000150J0000000000000000000000000000CONSULTOR DE VENDAS 20110701TNE100000000202107232021051419860103N0000000000
M001SOLDI PROMOTORA DE VENDAS LTDA     0100003290000133158CARLA C GUILHERME SILVA MARQUES    01JOSE WELLINGTON MARQUES            SERVIMED                           102021697901010101200210730000000000039901600000741580000444197000000000000000000000000000000000000000000000000000000000000000000000000000000000000000000000000000000000000000000770116110000000000011685329         010004695546000165J0000000000000000000000000000CONSULTOR DE VENDAS 20110701TNE100000000202107302021070719770116N0000000000
M001SOLDI PROMOTORA DE VENDAS LTDA     0100003290000133158CARLA C GUILHERME SILVA MARQUES    01JOSE WELLINGTON MARQUES            HOSPITAL VIDA                      507125899234031613001210730000000000021111600000741580000088773000000000000000000000000000000000000000000000000000000000000000000000000000000000000000000000000000000000000000000770116110000000000006183329         010002476391000140J0000000000000000000000000000CONSULTOR DE VENDAS 20110701TNE100000000202107302021060219770116N0000000000
M001SOLDI PROMOTORA DE VENDAS LTDA     0100003290000133158CARLA C GUILHERME SILVA MARQUES    01JOSE WELLINGTON MARQUES            HOSPITAL VIDA                      507125899234031614901210730000000000017591600000741580000088773000000000000000000000000000000000000000000000000000000000000000000000000000000000000000000000000000000000000000000770116110000000000005153329         010002476391000140J0000000000000000000000000000CONSULTOR DE VENDAS 20110701TNE100000000202107302021060219770116N0000000000
M001SOLDI PROMOTORA DE VENDAS LTDA     0100003290000133158CARLA C GUILHERME SILVA MARQUES    01JOSE WELLINGTON MARQUES            HOSPITAL VIDA                      507125899234031650501210730000000000017591600000741580000088773000000000000000000000000000000000000000000000000000000000000000000000000000000000000000000000000000000000000000000770116110000000000005153329         010002476391000140J0000000000000000000000000000CONSULTOR DE VENDAS 20110701TNE100000000202107302021060219770116N0000000000
M001SOLDI PROMOTORA DE VENDAS LTDA     0100003290000133158CARLA C GUILHERME SILVA MARQUES    01JOSE WELLINGTON MARQUES            HOSPITAL VIDA                      507125899234031651301210730000000000012311600000741580000088773000000000000000000000000000000000000000000000000000000000000000000000000000000000000000000000000000000000000000000770116110000000000003606329         010002476391000140J0000000000000000000000000000CONSULTOR DE VENDAS 20110701TNE100000000202107302021060219770116N0000000000
M001SOLDI PROMOTORA DE VENDAS LTDA     0100003290000133158CARLA C GUILHERME SILVA MARQUES    01JOSE WELLINGTON MARQUES            HOSPITAL VIDA                      507125899244031012401210730000000000004221600000741580000088773000000000000000000000000000000000000000000000000000000000000000000000000000000000000000000000000000000000000000000770116110000000000001237329         010002476391000140J0000000000000000000000000000CONSULTOR DE VENDAS 20110701TNE100000000202107302021060219770116N0000000000
M001SOLDI PROMOTORA DE VENDAS LTDA     0100003290000133158CARLA C GUILHERME SILVA MARQUES    01JOSE WELLINGTON MARQUES            HOSPITAL VIDA                      507125899244031012401210730000000000004221600000741580000088773000000000000000000000000000000000000000000000000000000000000000000000000000000000000000000000000000000000000000000770116110000000000001237329         010002476391000140J0000000000000000000000000000CONSULTOR DE VENDAS 20110701TNE100000000202107302021060219770116N0000000000
M001SOLDI PROMOTORA DE VENDAS LTDA     0100003290000133158CARLA C GUILHERME SILVA MARQUES    01JOSE WELLINGTON MARQUES            HOSPITAL VIDA                      507125899244031041801210730000000000002401600000741580000088773000000000000000000000000000000000000000000000000000000000000000000000000000000000000000000000000000000000000000000770116110000000000000705329         010002476391000140J0000000000000000000000000000CONSULTOR DE VENDAS 20110701TNE100000000202107302021060219770116N0000000000
M001SOLDI PROMOTORA DE VENDAS LTDA     0100003290000133158CARLA C GUILHERME SILVA MARQUES    01JOSE WELLINGTON MARQUES            HOSPITAL VIDA                      507125899244031041801210730000000000002401600000741580000088773000000000000000000000000000000000000000000000000000000000000000000000000000000000000000000000000000000000000000000770116110000000000000705329         010002476391000140J0000000000000000000000000000CONSULTOR DE VENDAS 20110701TNE100000000202107302021060219770116N0000000000
M001SOLDI PROMOTORA DE VENDAS LTDA     0100003290000133158CARLA C GUILHERME SILVA MARQUES    01JOSE WELLINGTON MARQUES            HOSPITAL VIDA                      507125899244031121001210730000000000001691600000741580000088773000000000000000000000000000000000000000000000000000000000000000000000000000000000000000000000000000000000000000000770116110000000000000496329         010002476391000140J0000000000000000000000000000CONSULTOR DE VENDAS 20110701TNE100000000202107302021060219770116N0000000000
M001SOLDI PROMOTORA DE VENDAS LTDA     0100003290000133158CARLA C GUILHERME SILVA MARQUES    01JOSE WELLINGTON MARQUES            HOSPITAL VIDA                      507125899234030158301210730000000000003081600000741580000088773000000000000000000000000000000000000000000000000000000000000000000000000000000000000000000000000000000000000000000770116110000000000000903329         010002476391000140J0000000000000000000000000000CONSULTOR DE VENDAS 20110701TNE100000000202107302021060219770116N0000000000
M001SOLDI PROMOTORA DE VENDAS LTDA     0100003290000133158CARLA C GUILHERME SILVA MARQUES    01JOSE WELLINGTON MARQUES            HOSPITAL VIDA                      507125899304090112201210730000000000052911600000741580000088773000000000000000000000000000000000000000000000000000000000000000000000000000000000000000000000000000000000000000000770116110000000000015493329         010002476391000140J0000000000000000000000000000CONSULTOR DE VENDAS 20110701TNE100000000202107302021060219770116N0000000000
M001SOLDI PROMOTORA DE VENDAS LTDA     0100003290000133158CARLA C GUILHERME SILVA MARQUES    01JOSE WELLINGTON MARQUES            HOSPITAL VIDA                      507125899304090175001210730000000000024151600000741580000088773000000000000000000000000000000000000000000000000000000000000000000000000000000000000000000000000000000000000000000770116110000000000007071329         010002476391000140J0000000000000000000000000000CONSULTOR DE VENDAS 20110701TNE100000000202107302021060219770116N0000000000
M001SOLDI PROMOTORA DE VENDAS LTDA     0100003290000133158CARLA C GUILHERME SILVA MARQUES    01JOSE WELLINGTON MARQUES            HOSPITAL VIDA                      507125899304090176901210730000000000024151600000741580000088773000000000000000000000000000000000000000000000000000000000000000000000000000000000000000000000000000000000000000000770116110000000000007071329         010002476391000140J0000000000000000000000000000CONSULTOR DE VENDAS 20110701TNE100000000202107302021060219770116N0000000000
M001SOLDI PROMOTORA DE VENDAS LTDA     0100003290000133158CARLA C GUILHERME SILVA MARQUES    01JOSE WELLINGTON MARQUES            HOSPITAL VIDA                      507125899234030159101210730000000000003691600000741580000088773000000000000000000000000000000000000000000000000000000000000000000000000000000000000000000000000000000000000000000770116110000000000001083329         010002476391000140J0000000000000000000000000000CONSULTOR DE VENDAS 20110701TNE100000000202107302021060219770116N0000000000
M001SOLDI PROMOTORA DE VENDAS LTDA     0100003290000133158CARLA C GUILHERME SILVA MARQUES    01JOSE WELLINGTON MARQUES            HOSPITAL VIDA                      507125899234030160501210730000000000001721600000741580000088773000000000000000000000000000000000000000000000000000000000000000000000000000000000000000000000000000000000000000000770116110000000000000506329         010002476391000140J0000000000000000000000000000CONSULTOR DE VENDAS 20110701TNE100000000202107302021060219770116N0000000000
M001SOLDI PROMOTORA DE VENDAS LTDA     0100003290000133158CARLA C GUILHERME SILVA MARQUES    01JOSE WELLINGTON MARQUES            HOSPITAL VIDA                      507125899234030163001210730000000000001721600000741580000088773000000000000000000000000000000000000000000000000000000000000000000000000000000000000000000000000000000000000000000770116110000000000000506329         010002476391000140J0000000000000000000000000000CONSULTOR DE VENDAS 20110701TNE100000000202107302021060219770116N0000000000
M001SOLDI PROMOTORA DE VENDAS LTDA     0100003290000133158CARLA C GUILHERME SILVA MARQUES    01JOSE WELLINGTON MARQUES            HOSPITAL VIDA                      507125899234030204001210730000000000001721600000741580000088773000000000000000000000000000000000000000000000000000000000000000000000000000000000000000000000000000000000000000000770116110000000000000506329         010002476391000140J0000000000000000000000000000CONSULTOR DE VENDAS 20110701TNE100000000202107302021060219770116N0000000000
M001SOLDI PROMOTORA DE VENDAS LTDA     0100003290000133158CARLA C GUILHERME SILVA MARQUES    01JOSE WELLINGTON MARQUES            HOSPITAL VIDA                      507125899234030231801210730000000000001721600000741580000088773000000000000000000000000000000000000000000000000000000000000000000000000000000000000000000000000000000000000000000770116110000000000000506329         010002476391000140J0000000000000000000000000000CONSULTOR DE VENDAS 20110701TNE100000000202107302021060219770116N0000000000
M001SOLDI PROMOTORA DE VENDAS LTDA     0100003290000133158CARLA C GUILHERME SILVA MARQUES    01JOSE WELLINGTON MARQUES            HOSPITAL VIDA                      507125899234030242301210730000000000001721600000741580000088773000000000000000000000000000000000000000000000000000000000000000000000000000000000000000000000000000000000000000000770116110000000000000506329         010002476391000140J0000000000000000000000000000CONSULTOR DE VENDAS 20110701TNE100000000202107302021060219770116N0000000000
M001SOLDI PROMOTORA DE VENDAS LTDA     0100003290000133158CARLA C GUILHERME SILVA MARQUES    01JOSE WELLINGTON MARQUES            HOSPITAL VIDA                      507125899234030254701210730000000000002461600000741580000088773000000000000000000000000000000000000000000000000000000000000000000000000000000000000000000000000000000000000000000770116110000000000000721329         010002476391000140J0000000000000000000000000000CONSULTOR DE VENDAS 20110701TNE100000000202107302021060219770116N0000000000
M001SOLDI PROMOTORA DE VENDAS LTDA     0100003290000133158CARLA C GUILHERME SILVA MARQUES    01JOSE WELLINGTON MARQUES            HOSPITAL VIDA                      507125899234030258001210730000000000001721600000741580000088773000000000000000000000000000000000000000000000000000000000000000000000000000000000000000000000000000000000000000000770116110000000000000506329         010002476391000140J0000000000000000000000000000CONSULTOR DE VENDAS 20110701TNE100000000202107302021060219770116N0000000000
M001SOLDI PROMOTORA DE VENDAS LTDA     0100003290000133158CARLA C GUILHERME SILVA MARQUES    01JOSE WELLINGTON MARQUES            HOSPITAL VIDA                      507125899234030273301210730000000000014191600000741580000088773000000000000000000000000000000000000000000000000000000000000000000000000000000000000000000000000000000000000000000770116110000000000004155329         010002476391000140J0000000000000000000000000000CONSULTOR DE VENDAS 20110701TNE100000000202107302021060219770116N0000000000
M001SOLDI PROMOTORA DE VENDAS LTDA     0100003290000133158CARLA C GUILHERME SILVA MARQUES    01JOSE WELLINGTON MARQUES            HOSPITAL VIDA                      507125899234030436101210730000000000003691600000741580000088773000000000000000000000000000000000000000000000000000000000000000000000000000000000000000000000000000000000000000000770116110000000000001083329         010002476391000140J0000000000000000000000000000CONSULTOR DE VENDAS 20110701TNE100000000202107302021060219770116N0000000000
M001SOLDI PROMOTORA DE VENDAS LTDA     0100003290000133158CARLA C GUILHERME SILVA MARQUES    01JOSE WELLINGTON MARQUES            HOSPITAL VIDA                      507125899234030492201210730000000000004301600000741580000088773000000000000000000000000000000000000000000000000000000000000000000000000000000000000000000000000000000000000000000770116110000000000001261329         010002476391000140J0000000000000000000000000000CONSULTOR DE VENDAS 20110701TNE100000000202107302021060219770116N0000000000
M001SOLDI PROMOTORA DE VENDAS LTDA     0100003530000014055REGINA HELENA NERY BEZERRA         00REGINA HELENA NERY BEZERRA         CENTRO MEDICO E FRATURAS           100218954891010101200210715000000000035521600000741580000349720000000000000000000000000000000000000000000000000000000000000000000000000000000000000000000000000000000000000000000810107200000000000010400353         000000596821000132J0000000000000000000000000000CONSULTOR DE VENDAS 20100804TNE100000000202107152021061519810107N0000000000
M001SOLDI PROMOTORA DE VENDAS LTDA     0100003530000014055REGINA HELENA NERY BEZERRA         01HELENA PATRICIA NERY DOS SANTOS    EDNA REGINA CLINICA MEDICA         101213328481010101200210715000000000035521600000741580000331002000000000000000000000000000000000000000000000000000000000000000000000000000000000000000000000000000000000000000000000331220000000000010400353         010020076084000154J0000000000000000000000000000CONSULTOR DE VENDAS 20100804TNE100000000202107152021061120000331N0000000000
M001SOLDI PROMOTORA DE VENDAS LTDA     0100003610000017005EDVANE PEREIRA DE OLIVEIRA         00EDVANE PEREIRA DE OLIVEIRA         HOSPITAL SANTA LUZIA               100217218991010101200210701000000000034151600000741580000565296000000000000000000000000000000000000000000000000000000000000000000000000000000000000000000000000000000000000000000801011200000000000010000361         000015175839000138J0000000000000000000000000000SUPERVISOR DE VENDAS20060701TNQ200000000202107012021061519801011N0000000000
M001SOLDI PROMOTORA DE VENDAS LTDA     0100003610000017005EDVANE PEREIRA DE OLIVEIRA         00EDVANE PEREIRA DE OLIVEIRA         CL ANNA PAOLA NOYA GATTO           507017879538433011201210729000000000020560000000741580000669938000000000000000000000000000000000000000000000000000000000000000000000000000000000000000000000000000000000000000000801011200000000000006020361         000000867860000127J0000000000000000000000000000SUPERVISOR DE VENDAS20060701TNQ200000000202107292021012119801011N0000000000
M001SOLDI PROMOTORA DE VENDAS LTDA     0100003610000017005EDVANE PEREIRA DE OLIVEIRA         00EDVANE PEREIRA DE OLIVEIRA         CL ANNA PAOLA NOYA GATTO           507017879538433011201210729000000000020560000000741580000669938000000000000000000000000000000000000000000000000000000000000000000000000000000000000000000000000000000000000000000801011200000000000006020361         000000867860000127J0000000000000000000000000000SUPERVISOR DE VENDAS20060701TNQ200000000202107292021012119801011N0000000000
M001SOLDI PROMOTORA DE VENDAS LTDA     0100003700000017098CAROLINE MOREIRA CHAMUSCA          01MARCELO CHAMUSCA DE LUNA           HOSPITAL SAO RAFAEL                181030275731010101200210712000000000034151600000741580000754702000000000000000000000000000000000000000000000000000000000000000000000000000000000000000000000000000000000000000000801223110000000000010000370         010027372066000673J0000000000000000000000000000ASSISTENTE COMERCIAL20090923TNQ200000000202107122021062819801223N0000000000
M001SOLDI PROMOTORA DE VENDAS LTDA     0100003700000017098CAROLINE MOREIRA CHAMUSCA          00CAROLINE MOREIRA CHAMUSCA          HOSPITAL SAO RAFAEL                100219074861010101200210715000000000034151600000741580000657002000000000000000000000000000000000000000000000000000000000000000000000000000000000000000000000000000000000000000000880307200000000000010000370         000027372066000169J0000000000000000000000000000ASSISTENTE COMERCIAL20090923TNQ200000000202107152021060819880307N0000000000
M001SOLDI PROMOTORA DE VENDAS LTDA     0100003700000017098CAROLINE MOREIRA CHAMUSCA          00CAROLINE MOREIRA CHAMUSCA          CLIN MEDICA SAINT GERMAIN          100219401881010101200210720000000000035521600000741580000401722000000000000000000000000000000000000000000000000000000000000000000000000000000000000000000000000000000000000000000880307200000000000010400370         000096697099000100J0000000000000000000000000000ASSISTENTE COMERCIAL20090923TNQ200000000202107202021070519880307N0000000000
M001SOLDI PROMOTORA DE VENDAS LTDA     0100003700000017098CAROLINE MOREIRA CHAMUSCA          01MARCELO CHAMUSCA DE LUNA           CLIVALE PROSAUDE IGUATEMI          101845238901010101200210722000000000035521600000741580000755729000000000000000000000000000000000000000000000000000000000000000000000000000000000000000000000000000000000000000000801223110000000000010400370         010033794132000191J0000000000000000000000000000ASSISTENTE COMERCIAL20090923TNQ200000000202107222021062819801223N0000000000
M001SOLDI PROMOTORA DE VENDAS LTDA     0100003700000017098CAROLINE MOREIRA CHAMUSCA          03GAEL MOREIRA CHAMUSCA DE LUNA      CLINICA MARIO HENRIQUE GUIMARAES   107123328820001150901210727000000000053280000000741580000640302000000000000000000000000000000000000000000000000000000000000000000000000000000000000000000000000000000000000000000200508120000000000015600370         030003828059000160J0000000000000000000000000000ASSISTENTE COMERCIAL20090923TNQ200000000202107272021052420200508N0000000000
M001SOLDI PROMOTORA DE VENDAS LTDA     0100003700000017098CAROLINE MOREIRA CHAMUSCA          00CAROLINE MOREIRA CHAMUSCA          NEWLIFE                            100220163251010101200210727000000000035521600000741580000276602000000000000000000000000000000000000000000000000000000000000000000000000000000000000000000000000000000000000000000880307200000000000010400370         000018899204000171J0000000000000000000000000000ASSISTENTE COMERCIAL20090923TNQ200000000202107272021071519880307N0000000000
M001SOLDI PROMOTORA DE VENDAS LTDA     0100003880000017124LUCIANA DO ESPIRITO SANTO ARAUJO   00LUCIANA DO ESPIRITO SANTO ARAUJO   CAM CLIN DE ASSIST A MULHER        100217218111010101200210701000000000035521600000741580000770825000000000000000000000000000000000000000000000000000000000000000000000000000000000000000000000000000000000000000000710322200000000000010400388         000014526487000155J0000000000000000000000000000CONSULTOR DE VENDAS 20100719TNE100000000202107012021061519710322N0000000000
M001SOLDI PROMOTORA DE VENDAS LTDA     0100003880000017124LUCIANA DO ESPIRITO SANTO ARAUJO   02ANA BEATRIZ ESPIRITO SANTO ARAUJO  LABCHECAP                          507101902764031461801210707000000000052251600000741580000732079000000000000000000000000000000000000000000000000000000000000000000000000000000000000000000000000000000000000000000120417220000000000015300388         020013503479000392J0000000000000000000000000000CONSULTOR DE VENDAS 20100719TNE100000000202107072021050720120417N0000000000
M001SOLDI PROMOTORA DE VENDAS LTDA     0100003880000017124LUCIANA DO ESPIRITO SANTO ARAUJO   00LUCIANA DO ESPIRITO SANTO ARAUJO   LABCHECAP                          507108228494030463901210709000000000001841600000741580000732273000000000000000000000000000000000000000000000000000000000000000000000000000000000000000000000000000000000000000000710322200000000000000541388         000013503479000473J0000000000000000000000000000CONSULTOR DE VENDAS 20100719TNE100000000202107092021051519710322N0000000000
M001SOLDI PROMOTORA DE VENDAS LTDA     0100003880000017124LUCIANA DO ESPIRITO SANTO ARAUJO   00LUCIANA DO ESPIRITO SANTO ARAUJO   LABCHECAP                          507108228494030436101210709000000000003691600000741580000732273000000000000000000000000000000000000000000000000000000000000000000000000000000000000000000000000000000000000000000710322200000000000001083388         000013503479000473J0000000000000000000000000000CONSULTOR DE VENDAS 20100719TNE100000000202107092021051519710322N0000000000
M001SOLDI PROMOTORA DE VENDAS LTDA     0100003880000017124LUCIANA DO ESPIRITO SANTO ARAUJO   00LUCIANA DO ESPIRITO SANTO ARAUJO   LABCHECAP                          507108228494030158301210709000000000003081600000741580000732273000000000000000000000000000000000000000000000000000000000000000000000000000000000000000000000000000000000000000000710322200000000000000903388         000013503479000473J0000000000000000000000000000CONSULTOR DE VENDAS 20100719TNE100000000202107092021051519710322N0000000000
M001SOLDI PROMOTORA DE VENDAS LTDA     0100003880000017124LUCIANA DO ESPIRITO SANTO ARAUJO   00LUCIANA DO ESPIRITO SANTO ARAUJO   LABCHECAP                          507108228494030159101210709000000000003691600000741580000732273000000000000000000000000000000000000000000000000000000000000000000000000000000000000000000000000000000000000000000710322200000000000001083388         000013503479000473J0000000000000000000000000000CONSULTOR DE VENDAS 20100719TNE100000000202107092021051519710322N0000000000
M001SOLDI PROMOTORA DE VENDAS LTDA     0100003880000017124LUCIANA DO ESPIRITO SANTO ARAUJO   00LUCIANA DO ESPIRITO SANTO ARAUJO   LABCHECAP                          507108228494030459001210709000000000001841600000741580000732273000000000000000000000000000000000000000000000000000000000000000000000000000000000000000000000000000000000000000000710322200000000000000541388         000013503479000473J0000000000000000000000000000CONSULTOR DE VENDAS 20100719TNE100000000202107092021051519710322N0000000000
M001SOLDI PROMOTORA DE VENDAS LTDA     0100003880000017124LUCIANA DO ESPIRITO SANTO ARAUJO   00LUCIANA DO ESPIRITO SANTO ARAUJO   LABCHECAP                          507108228494031612201210709000000000023411600000741580000732273000000000000000000000000000000000000000000000000000000000000000000000000000000000000000000000000000000000000000000710322200000000000006857388         000013503479000473J0000000000000000000000000000CONSULTOR DE VENDAS 20100719TNE100000000202107092021051519710322N0000000000
M001SOLDI PROMOTORA DE VENDAS LTDA     0100003880000017124LUCIANA DO ESPIRITO SANTO ARAUJO   00LUCIANA DO ESPIRITO SANTO ARAUJO   LABCHECAP                          507108228494031624601210709000000000012321600000741580000732273000000000000000000000000000000000000000000000000000000000000000000000000000000000000000000000000000000000000000000710322200000000000003608388         000013503479000473J0000000000000000000000000000CONSULTOR DE VENDAS 20100719TNE100000000202107092021051519710322N0000000000
M001SOLDI PROMOTORA DE VENDAS LTDA     0100003880000017124LUCIANA DO ESPIRITO SANTO ARAUJO   00LUCIANA DO ESPIRITO SANTO ARAUJO   LABCHECAP                          507108228494031628901210709000000000008011600000741580000732273000000000000000000000000000000000000000000000000000000000000000000000000000000000000000000000000000000000000000000710322200000000000002347388         000013503479000473J0000000000000000000000000000CONSULTOR DE VENDAS 20100719TNE100000000202107092021051519710322N0000000000
M001SOLDI PROMOTORA DE VENDAS LTDA     0100003880000017124LUCIANA DO ESPIRITO SANTO ARAUJO   00LUCIANA DO ESPIRITO SANTO ARAUJO   LABCHECAP                          507108228494030160501210709000000000001721600000741580000732273000000000000000000000000000000000000000000000000000000000000000000000000000000000000000000000000000000000000000000710322200000000000000505388         000013503479000473J0000000000000000000000000000CONSULTOR DE VENDAS 20100719TNE100000000202107092021051519710322N0000000000
M001SOLDI PROMOTORA DE VENDAS LTDA     0100003880000017124LUCIANA DO ESPIRITO SANTO ARAUJO   00LUCIANA DO ESPIRITO SANTO ARAUJO   LABCHECAP                          507108228494030163001210709000000000001721600000741580000732273000000000000000000000000000000000000000000000000000000000000000000000000000000000000000000000000000000000000000000710322200000000000000505388         000013503479000473J0000000000000000000000000000CONSULTOR DE VENDAS 20100719TNE100000000202107092021051519710322N0000000000
M001SOLDI PROMOTORA DE VENDAS LTDA     0100003880000017124LUCIANA DO ESPIRITO SANTO ARAUJO   00LUCIANA DO ESPIRITO SANTO ARAUJO   LABCHECAP                          507108228494031637801210709000000000024641600000741580000732273000000000000000000000000000000000000000000000000000000000000000000000000000000000000000000000000000000000000000000710322200000000000007217388         000013503479000473J0000000000000000000000000000CONSULTOR DE VENDAS 20100719TNE100000000202107092021051519710322N0000000000
M001SOLDI PROMOTORA DE VENDAS LTDA     0100003880000017124LUCIANA DO ESPIRITO SANTO ARAUJO   00LUCIANA DO ESPIRITO SANTO ARAUJO   LABCHECAP                          507108228494031649101210709000000000010471600000741580000732273000000000000000000000000000000000000000000000000000000000000000000000000000000000000000000000000000000000000000000710322200000000000003066388         000013503479000473J0000000000000000000000000000CONSULTOR DE VENDAS 20100719TNE100000000202107092021051519710322N0000000000
M001SOLDI PROMOTORA DE VENDAS LTDA     0100003880000017124LUCIANA DO ESPIRITO SANTO ARAUJO   00LUCIANA DO ESPIRITO SANTO ARAUJO   LABCHECAP                          507108228494031652101210709000000000010471600000741580000732273000000000000000000000000000000000000000000000000000000000000000000000000000000000000000000000000000000000000000000710322200000000000003066388         000013503479000473J0000000000000000000000000000CONSULTOR DE VENDAS 20100719TNE100000000202107092021051519710322N0000000000
M001SOLDI PROMOTORA DE VENDAS LTDA     0100003880000017124LUCIANA DO ESPIRITO SANTO ARAUJO   00LUCIANA DO ESPIRITO SANTO ARAUJO   LABCHECAP                          507108228494030251201210709000000000001721600000741580000732273000000000000000000000000000000000000000000000000000000000000000000000000000000000000000000000000000000000000000000710322200000000000000505388         000013503479000473J0000000000000000000000000000CONSULTOR DE VENDAS 20100719TNE100000000202107092021051519710322N0000000000
M001SOLDI PROMOTORA DE VENDAS LTDA     0100003880000017124LUCIANA DO ESPIRITO SANTO ARAUJO   00LUCIANA DO ESPIRITO SANTO ARAUJO   LABCHECAP                          507108228494030250401210709000000000001721600000741580000732273000000000000000000000000000000000000000000000000000000000000000000000000000000000000000000000000000000000000000000710322200000000000000505388         000013503479000473J0000000000000000000000000000CONSULTOR DE VENDAS 20100719TNE100000000202107092021051519710322N0000000000
M001SOLDI PROMOTORA DE VENDAS LTDA     0100003880000017124LUCIANA DO ESPIRITO SANTO ARAUJO   00LUCIANA DO ESPIRITO SANTO ARAUJO   LABCHECAP                          507108228494030254701210709000000000002461600000741580000732273000000000000000000000000000000000000000000000000000000000000000000000000000000000000000000000000000000000000000000710322200000000000000721388         000013503479000473J0000000000000000000000000000CONSULTOR DE VENDAS 20100719TNE100000000202107092021051519710322N0000000000
M001SOLDI PROMOTORA DE VENDAS LTDA     0100003880000017124LUCIANA DO ESPIRITO SANTO ARAUJO   00LUCIANA DO ESPIRITO SANTO ARAUJO   LABCHECAP                          507108228494030269501210709000000000004921600000741580000732273000000000000000000000000000000000000000000000000000000000000000000000000000000000000000000000000000000000000000000710322200000000000001443388         000013503479000473J0000000000000000000000000000CONSULTOR DE VENDAS 20100719TNE100000000202107092021051519710322N0000000000
M001SOLDI PROMOTORA DE VENDAS LTDA     0100003880000017124LUCIANA DO ESPIRITO SANTO ARAUJO   00LUCIANA DO ESPIRITO SANTO ARAUJO   LABCHECAP                          507108228494030283001210709000000000011961600000741580000732273000000000000000000000000000000000000000000000000000000000000000000000000000000000000000000000000000000000000000000710322200000000000003503388         000013503479000473J0000000000000000000000000000CONSULTOR DE VENDAS 20100719TNE100000000202107092021051519710322N0000000000
M001SOLDI PROMOTORA DE VENDAS LTDA     0100003880000017124LUCIANA DO ESPIRITO SANTO ARAUJO   00LUCIANA DO ESPIRITO SANTO ARAUJO   LABCHECAP                          507108228494030188501210709000000000002221600000741580000732273000000000000000000000000000000000000000000000000000000000000000000000000000000000000000000000000000000000000000000710322200000000000000650388         000013503479000473J0000000000000000000000000000CONSULTOR DE VENDAS 20100719TNE100000000202107092021051519710322N0000000000
M001SOLDI PROMOTORA DE VENDAS LTDA     0100003880000017124LUCIANA DO ESPIRITO SANTO ARAUJO   00LUCIANA DO ESPIRITO SANTO ARAUJO   LABCHECAP                          507108228494030204001210709000000000001721600000741580000732273000000000000000000000000000000000000000000000000000000000000000000000000000000000000000000000000000000000000000000710322200000000000000505388         000013503479000473J0000000000000000000000000000CONSULTOR DE VENDAS 20100719TNE100000000202107092021051519710322N0000000000
M001SOLDI PROMOTORA DE VENDAS LTDA     0100003880000017124LUCIANA DO ESPIRITO SANTO ARAUJO   00LUCIANA DO ESPIRITO SANTO ARAUJO   CLION                              207100437453401999201210715000000000172750000000741580000599646000000000000000000000000000000000000000000000000000000000000000000000000000000000000000000000000000000000000000000710322200000000000050580388         000013501218000171J0000000000000000000000000000CONSULTOR DE VENDAS 20100719TNE100000000202107152021051419710322N0000000000
M001SOLDI PROMOTORA DE VENDAS LTDA     0100003880000017124LUCIANA DO ESPIRITO SANTO ARAUJO   00LUCIANA DO ESPIRITO SANTO ARAUJO   CLION                              100219419931010101200210720000000000035521600000741580000104027000000000000000000000000000000000000000000000000000000000000000000000000000000000000000000000000000000000000000000710322200000000000010400388         000013501218000171J0000000000000000000000000000CONSULTOR DE VENDAS 20100719TNE100000000202107202021070519710322N0000000000
M001SOLDI PROMOTORA DE VENDAS LTDA     0100003880000017124LUCIANA DO ESPIRITO SANTO ARAUJO   02ANA BEATRIZ ESPIRITO SANTO ARAUJO  LABCHECAP                          507120159214030184201210723000000000002221600000741580000732273000000000000000000000000000000000000000000000000000000000000000000000000000000000000000000000000000000000000000000120417220000000000000650388         020013503479000473J0000000000000000000000000000CONSULTOR DE VENDAS 20100719TNE100000000202107232021052120120417N0000000000
M001SOLDI PROMOTORA DE VENDAS LTDA     0100003880000017124LUCIANA DO ESPIRITO SANTO ARAUJO   02ANA BEATRIZ ESPIRITO SANTO ARAUJO  LABCHECAP                          507120159214030193101210723000000000001721600000741580000732273000000000000000000000000000000000000000000000000000000000000000000000000000000000000000000000000000000000000000000120417220000000000000505388         020013503479000473J0000000000000000000000000000CONSULTOR DE VENDAS 20100719TNE100000000202107232021052120120417N0000000000
M001SOLDI PROMOTORA DE VENDAS LTDA     0100003880000017124LUCIANA DO ESPIRITO SANTO ARAUJO   02ANA BEATRIZ ESPIRITO SANTO ARAUJO  LABCHECAP                          507120159214030163001210723000000000001721600000741580000732273000000000000000000000000000000000000000000000000000000000000000000000000000000000000000000000000000000000000000000120417220000000000000505388         020013503479000473J0000000000000000000000000000CONSULTOR DE VENDAS 20100719TNE100000000202107232021052120120417N0000000000
M001SOLDI PROMOTORA DE VENDAS LTDA     0100003880000017124LUCIANA DO ESPIRITO SANTO ARAUJO   02ANA BEATRIZ ESPIRITO SANTO ARAUJO  LABCHECAP                          507120159214030108701210723000000000007381600000741580000732273000000000000000000000000000000000000000000000000000000000000000000000000000000000000000000000000000000000000000000120417220000000000002162388         020013503479000473J0000000000000000000000000000CONSULTOR DE VENDAS 20100719TNE100000000202107232021052120120417N0000000000
M001SOLDI PROMOTORA DE VENDAS LTDA     0100003880000017124LUCIANA DO ESPIRITO SANTO ARAUJO   02ANA BEATRIZ ESPIRITO SANTO ARAUJO  LABCHECAP                          507120159214030128101210723000000000001721600000741580000732273000000000000000000000000000000000000000000000000000000000000000000000000000000000000000000000000000000000000000000120417220000000000000505388         020013503479000473J0000000000000000000000000000CONSULTOR DE VENDAS 20100719TNE100000000202107232021052120120417N0000000000
M001SOLDI PROMOTORA DE VENDAS LTDA     0100003880000017124LUCIANA DO ESPIRITO SANTO ARAUJO   02ANA BEATRIZ ESPIRITO SANTO ARAUJO  LABCHECAP                          507120159214030140001210723000000000001721600000741580000732273000000000000000000000000000000000000000000000000000000000000000000000000000000000000000000000000000000000000000000120417220000000000000505388         020013503479000473J0000000000000000000000000000CONSULTOR DE VENDAS 20100719TNE100000000202107232021052120120417N0000000000
M001SOLDI PROMOTORA DE VENDAS LTDA     0100003880000017124LUCIANA DO ESPIRITO SANTO ARAUJO   02ANA BEATRIZ ESPIRITO SANTO ARAUJO  LABCHECAP                          507120159214030158301210723000000000003081600000741580000732273000000000000000000000000000000000000000000000000000000000000000000000000000000000000000000000000000000000000000000120417220000000000000903388         020013503479000473J0000000000000000000000000000CONSULTOR DE VENDAS 20100719TNE100000000202107232021052120120417N0000000000
M001SOLDI PROMOTORA DE VENDAS LTDA     0100003880000017124LUCIANA DO ESPIRITO SANTO ARAUJO   02ANA BEATRIZ ESPIRITO SANTO ARAUJO  LABCHECAP                          507120159214030159101210723000000000003691600000741580000732273000000000000000000000000000000000000000000000000000000000000000000000000000000000000000000000000000000000000000000120417220000000000001083388         020013503479000473J0000000000000000000000000000CONSULTOR DE VENDAS 20100719TNE100000000202107232021052120120417N0000000000
M001SOLDI PROMOTORA DE VENDAS LTDA     0100003880000017124LUCIANA DO ESPIRITO SANTO ARAUJO   02ANA BEATRIZ ESPIRITO SANTO ARAUJO  LABCHECAP                          507120159214030160501210723000000000001721600000741580000732273000000000000000000000000000000000000000000000000000000000000000000000000000000000000000000000000000000000000000000120417220000000000000505388         020013503479000473J0000000000000000000000000000CONSULTOR DE VENDAS 20100719TNE100000000202107232021052120120417N0000000000
M001SOLDI PROMOTORA DE VENDAS LTDA     0100003880000017124LUCIANA DO ESPIRITO SANTO ARAUJO   02ANA BEATRIZ ESPIRITO SANTO ARAUJO  LABCHECAP                          507120159214030269501210723000000000004921600000741580000732273000000000000000000000000000000000000000000000000000000000000000000000000000000000000000000000000000000000000000000120417220000000000001443388         020013503479000473J0000000000000000000000000000CONSULTOR DE VENDAS 20100719TNE100000000202107232021052120120417N0000000000
M001SOLDI PROMOTORA DE VENDAS LTDA     0100003880000017124LUCIANA DO ESPIRITO SANTO ARAUJO   02ANA BEATRIZ ESPIRITO SANTO ARAUJO  LABCHECAP                          507120159214030283001210723000000000011961600000741580000732273000000000000000000000000000000000000000000000000000000000000000000000000000000000000000000000000000000000000000000120417220000000000003503388         020013503479000473J0000000000000000000000000000CONSULTOR DE VENDAS 20100719TNE100000000202107232021052120120417N0000000000
M001SOLDI PROMOTORA DE VENDAS LTDA     0100003880000017124LUCIANA DO ESPIRITO SANTO ARAUJO   02ANA BEATRIZ ESPIRITO SANTO ARAUJO  LABCHECAP                          507120159214030308001210723000000000001231600000741580000732273000000000000000000000000000000000000000000000000000000000000000000000000000000000000000000000000000000000000000000120417220000000000000361388         020013503479000473J0000000000000000000000000000CONSULTOR DE VENDAS 20100719TNE100000000202107232021052120120417N0000000000
M001SOLDI PROMOTORA DE VENDAS LTDA     0100003880000017124LUCIANA DO ESPIRITO SANTO ARAUJO   02ANA BEATRIZ ESPIRITO SANTO ARAUJO  LABCHECAP                          507120159214030311001210723000000000001721600000741580000732273000000000000000000000000000000000000000000000000000000000000000000000000000000000000000000000000000000000000000000120417220000000000000505388         020013503479000473J0000000000000000000000000000CONSULTOR DE VENDAS 20100719TNE100000000202107232021052120120417N0000000000
M001SOLDI PROMOTORA DE VENDAS LTDA     0100003880000017124LUCIANA DO ESPIRITO SANTO ARAUJO   02ANA BEATRIZ ESPIRITO SANTO ARAUJO  LABCHECAP                          507120159214030436101210723000000000003691600000741580000732273000000000000000000000000000000000000000000000000000000000000000000000000000000000000000000000000000000000000000000120417220000000000001083388         020013503479000473J0000000000000000000000000000CONSULTOR DE VENDAS 20100719TNE100000000202107232021052120120417N0000000000
M001SOLDI PROMOTORA DE VENDAS LTDA     0100003880000017124LUCIANA DO ESPIRITO SANTO ARAUJO   02ANA BEATRIZ ESPIRITO SANTO ARAUJO  LABCHECAP                          507120159214031121001210723000000000001721600000741580000732273000000000000000000000000000000000000000000000000000000000000000000000000000000000000000000000000000000000000000000120417220000000000000505388         020013503479000473J0000000000000000000000000000CONSULTOR DE VENDAS 20100719TNE100000000202107232021052120120417N0000000000
M001SOLDI PROMOTORA DE VENDAS LTDA     0100003880000017124LUCIANA DO ESPIRITO SANTO ARAUJO   02ANA BEATRIZ ESPIRITO SANTO ARAUJO  LABCHECAP                          507120159214031332801210723000000000008621600000741580000732273000000000000000000000000000000000000000000000000000000000000000000000000000000000000000000000000000000000000000000120417220000000000002524388         020013503479000473J0000000000000000000000000000CONSULTOR DE VENDAS 20100719TNE100000000202107232021052120120417N0000000000
M001SOLDI PROMOTORA DE VENDAS LTDA     0100003880000017124LUCIANA DO ESPIRITO SANTO ARAUJO   02ANA BEATRIZ ESPIRITO SANTO ARAUJO  LABCHECAP                          507120159214031627001210723000000000015411600000741580000732273000000000000000000000000000000000000000000000000000000000000000000000000000000000000000000000000000000000000000000120417220000000000004512388         020013503479000473J0000000000000000000000000000CONSULTOR DE VENDAS 20100719TNE100000000202107232021052120120417N0000000000
M001SOLDI PROMOTORA DE VENDAS LTDA     0100003880000017124LUCIANA DO ESPIRITO SANTO ARAUJO   02ANA BEATRIZ ESPIRITO SANTO ARAUJO  LABCHECAP                          507120159214031649101210723000000000010471600000741580000732273000000000000000000000000000000000000000000000000000000000000000000000000000000000000000000000000000000000000000000120417220000000000003066388         020013503479000473J0000000000000000000000000000CONSULTOR DE VENDAS 20100719TNE100000000202107232021052120120417N0000000000
M001SOLDI PROMOTORA DE VENDAS LTDA     0100003880000017124LUCIANA DO ESPIRITO SANTO ARAUJO   02ANA BEATRIZ ESPIRITO SANTO ARAUJO  LABCHECAP                          507120159214031652101210723000000000010471600000741580000732273000000000000000000000000000000000000000000000000000000000000000000000000000000000000000000000000000000000000000000120417220000000000003066388         020013503479000473J0000000000000000000000000000CONSULTOR DE VENDAS 20100719TNE100000000202107232021052120120417N0000000000
M001SOLDI PROMOTORA DE VENDAS LTDA     0100003880000017124LUCIANA DO ESPIRITO SANTO ARAUJO   02ANA BEATRIZ ESPIRITO SANTO ARAUJO  LABCHECAP                          507120159214031655601210723000000000008011600000741580000732273000000000000000000000000000000000000000000000000000000000000000000000000000000000000000000000000000000000000000000120417220000000000002347388         020013503479000473J0000000000000000000000000000CONSULTOR DE VENDAS 20100719TNE100000000202107232021052120120417N0000000000
M001SOLDI PROMOTORA DE VENDAS LTDA     0100003880000017124LUCIANA DO ESPIRITO SANTO ARAUJO   02ANA BEATRIZ ESPIRITO SANTO ARAUJO  LABCHECAP                          507120159214031657201210723000000000010471600000741580000732273000000000000000000000000000000000000000000000000000000000000000000000000000000000000000000000000000000000000000000120417220000000000003066388         020013503479000473J0000000000000000000000000000CONSULTOR DE VENDAS 20100719TNE100000000202107232021052120120417N0000000000
M001SOLDI PROMOTORA DE VENDAS LTDA     0100003880000017124LUCIANA DO ESPIRITO SANTO ARAUJO   02ANA BEATRIZ ESPIRITO SANTO ARAUJO  LABCHECAP                          507120159214030204001210723000000000001721600000741580000732273000000000000000000000000000000000000000000000000000000000000000000000000000000000000000000000000000000000000000000120417220000000000000505388         020013503479000473J0000000000000000000000000000CONSULTOR DE VENDAS 20100719TNE100000000202107232021052120120417N0000000000
M001SOLDI PROMOTORA DE VENDAS LTDA     0100003880000017124LUCIANA DO ESPIRITO SANTO ARAUJO   02ANA BEATRIZ ESPIRITO SANTO ARAUJO  LABCHECAP                          507120159214030223701210723000000000001971600000741580000732273000000000000000000000000000000000000000000000000000000000000000000000000000000000000000000000000000000000000000000120417220000000000000577388         020013503479000473J0000000000000000000000000000CONSULTOR DE VENDAS 20100719TNE100000000202107232021052120120417N0000000000
M001SOLDI PROMOTORA DE VENDAS LTDA     0100003880000017124LUCIANA DO ESPIRITO SANTO ARAUJO   02ANA BEATRIZ ESPIRITO SANTO ARAUJO  LABCHECAP                          507120159214030250401210723000000000001721600000741580000732273000000000000000000000000000000000000000000000000000000000000000000000000000000000000000000000000000000000000000000120417220000000000000505388         020013503479000473J0000000000000000000000000000CONSULTOR DE VENDAS 20100719TNE100000000202107232021052120120417N0000000000
M001SOLDI PROMOTORA DE VENDAS LTDA     0100003880000017124LUCIANA DO ESPIRITO SANTO ARAUJO   02ANA BEATRIZ ESPIRITO SANTO ARAUJO  LABCHECAP                          507120159214030251201210723000000000001721600000741580000732273000000000000000000000000000000000000000000000000000000000000000000000000000000000000000000000000000000000000000000120417220000000000000505388         020013503479000473J0000000000000000000000000000CONSULTOR DE VENDAS 20100719TNE100000000202107232021052120120417N0000000000
M001SOLDI PROMOTORA DE VENDAS LTDA     0100003880000017124LUCIANA DO ESPIRITO SANTO ARAUJO   02ANA BEATRIZ ESPIRITO SANTO ARAUJO  LABCHECAP                          507120159214030254701210723000000000002461600000741580000732273000000000000000000000000000000000000000000000000000000000000000000000000000000000000000000000000000000000000000000120417220000000000000721388         020013503479000473J0000000000000000000000000000CONSULTOR DE VENDAS 20100719TNE100000000202107232021052120120417N0000000000
M001SOLDI PROMOTORA DE VENDAS LTDA     0100003880000017124LUCIANA DO ESPIRITO SANTO ARAUJO   02ANA BEATRIZ ESPIRITO SANTO ARAUJO  LABCHECAP                          507120159214030258001210723000000000001721600000741580000732273000000000000000000000000000000000000000000000000000000000000000000000000000000000000000000000000000000000000000000120417220000000000000505388         020013503479000473J0000000000000000000000000000CONSULTOR DE VENDAS 20100719TNE100000000202107232021052120120417N0000000000
M001SOLDI PROMOTORA DE VENDAS LTDA     0100003880000017124LUCIANA DO ESPIRITO SANTO ARAUJO   02ANA BEATRIZ ESPIRITO SANTO ARAUJO  LABCHECAP                          507120159214030260101210723000000000012321600000741580000732273000000000000000000000000000000000000000000000000000000000000000000000000000000000000000000000000000000000000000000120417220000000000003610388         020013503479000473J0000000000000000000000000000CONSULTOR DE VENDAS 20100719TNE100000000202107232021052120120417N0000000000
M001SOLDI PROMOTORA DE VENDAS LTDA     0100003880000017124LUCIANA DO ESPIRITO SANTO ARAUJO   00LUCIANA DO ESPIRITO SANTO ARAUJO   ANGIOMED                           507122094284150110102210727000000000008591600000741580000294799000000000000000000000000000000000000000000000000000000000000000000000000000000000000000000000000000000000000000000710322200000000000002518388         000096705660000147J0000000000000000000000000000CONSULTOR DE VENDAS 20100719TNE100000000202107272021052519710322N0000000000
M001SOLDI PROMOTORA DE VENDAS LTDA     0100003880000017124LUCIANA DO ESPIRITO SANTO ARAUJO   02ANA BEATRIZ ESPIRITO SANTO ARAUJO  LABCHECAP                          507124535204031040001210729000000000021571600000741580000732273000000000000000000000000000000000000000000000000000000000000000000000000000000000000000000000000000000000000000000120417220000000000006317388         020013503479000473J0000000000000000000000000000CONSULTOR DE VENDAS 20100719TNE100000000202107292021060520120417N0000000000
M001SOLDI PROMOTORA DE VENDAS LTDA     0100004180000180010DANIELLE BARBOSA DUARTE            00DANIELLE BARBOSA DUARTE            LABORATORIO HERMES PARDINI         507104434804030436101210708000000000003471600000741580000343471000000000000000000000000000000000000000000000000000000000000000000000000000000000000000000000000000000000000000000830513200000000000001018418         000019378769002977J0000000000000000000000000000CONSULTOR DE VENDAS 20111020TNE100000000202107082021052219830513N0000000000
M001SOLDI PROMOTORA DE VENDAS LTDA     0100004180000180010DANIELLE BARBOSA DUARTE            00DANIELLE BARBOSA DUARTE            COOPANEST/MG                       507104192294020261501210708000000000168611600000741580000135828000000000000000000000000000000000000000000000000000000000000000000000000000000000000000000000000000000000000000000830513200000000000049368418         000023908064000190J0000000000000000000000000000CONSULTOR DE VENDAS 20111020TNE100000000202107082021052019830513N0000000000
M001SOLDI PROMOTORA DE VENDAS LTDA     0100004180000180010DANIELLE BARBOSA DUARTE            00DANIELLE BARBOSA DUARTE            LABORATORIO HUGO SILVIANO BRANDAO  507116176634060119602210720000000000100551600000741580000585670000000000000000000000000000000000000000000000000000000000000000000000000000000000000000000000000000000000000000000830513200000000000029442418         000018271916000141J0000000000000000000000000000CONSULTOR DE VENDAS 20111020TNE100000000202107202021052119830513N0000000000
M001SOLDI PROMOTORA DE VENDAS LTDA     0100004180000180010DANIELLE BARBOSA DUARTE            00DANIELLE BARBOSA DUARTE            LABORATORIO HUGO SILVIANO BRANDAO  507116176634060120001210720000000000036861600000741580000585670000000000000000000000000000000000000000000000000000000000000000000000000000000000000000000000000000000000000000000830513200000000000010795418         000018271916000141J0000000000000000000000000000CONSULTOR DE VENDAS 20111020TNE100000000202107202021052119830513N0000000000
M001SOLDI PROMOTORA DE VENDAS LTDA     0100004180000180010DANIELLE BARBOSA DUARTE            00DANIELLE BARBOSA DUARTE            LABORATORIO HUGO SILVIANO BRANDAO  507116176634060126901210720000000000012231600000741580000585670000000000000000000000000000000000000000000000000000000000000000000000000000000000000000000000000000000000000000000830513200000000000003583418         000018271916000141J0000000000000000000000000000CONSULTOR DE VENDAS 20111020TNE100000000202107202021052119830513N0000000000
M001SOLDI PROMOTORA DE VENDAS LTDA     0100004180000180010DANIELLE BARBOSA DUARTE            00DANIELLE BARBOSA DUARTE            ONCOMED                            207112461123401999101210722000000000068300000000741580000178241000000000000000000000000000000000000000000000000000000000000000000000000000000000000000000000000000000000000000000830513200000000000020000418         000000132229000180J0000000000000000000000000000CONSULTOR DE VENDAS 20111020TNE100000000202107222021053119830513N0000000000
M001SOLDI PROMOTORA DE VENDAS LTDA     0100004180000180010DANIELLE BARBOSA DUARTE            00DANIELLE BARBOSA DUARTE            ONCOMED                            207112461123401999201210722000000006413990000000741580000178241000000000000000000000000000000000000000000000000000000000000000000000000000000000000000000000000000000000000000000830513200000000001877960418         000000132229000180J0000000000000000000000000000CONSULTOR DE VENDAS 20111020TNE100000000202107222021053119830513N0000000000
M001SOLDI PROMOTORA DE VENDAS LTDA     0100004180000180010DANIELLE BARBOSA DUARTE            00DANIELLE BARBOSA DUARTE            ONCOMED                            207112461123401999501210722000000000372270000000741580000178241000000000000000000000000000000000000000000000000000000000000000000000000000000000000000000000000000000000000000000830513200000000000109000418         000000132229000180J0000000000000000000000000000CONSULTOR DE VENDAS 20111020TNE100000000202107222021053119830513N0000000000
M001SOLDI PROMOTORA DE VENDAS LTDA     0100004180000180010DANIELLE BARBOSA DUARTE            00DANIELLE BARBOSA DUARTE            ONCOMED                            207112461122010429401210722000000000061211600000741580000178241000000000000000000000000000000000000000000000000000000000000000000000000000000000000000000000000000000000000000000830513200000000000017924418         000000132229000180J0000000000000000000000000000CONSULTOR DE VENDAS 20111020TNE100000000202107222021053119830513N0000000000
M001SOLDI PROMOTORA DE VENDAS LTDA     0100004180000180010DANIELLE BARBOSA DUARTE            00DANIELLE BARBOSA DUARTE            ONCOMED                            206998062853401999201210723000000000015910000000741580000178241000000000000000000000000000000000000000000000000000000000000000000000000000000000000000000000000000000000000000000830513200000000000004659418         000000132229000180J0000000000000000000000000000CONSULTOR DE VENDAS 20111020TNE100000000202107232021010519830513N0000000000
M001SOLDI PROMOTORA DE VENDAS LTDA     0100004180000180010DANIELLE BARBOSA DUARTE            00DANIELLE BARBOSA DUARTE            LABORATORIO HERMES PARDINI         507120927874030172901210726000000000003471600000741580000343471000000000000000000000000000000000000000000000000000000000000000000000000000000000000000000000000000000000000000000830513200000000000001018418         000019378769002977J0000000000000000000000000000CONSULTOR DE VENDAS 20111020TNE100000000202107262021050119830513N0000000000
M001SOLDI PROMOTORA DE VENDAS LTDA     0100004180000180010DANIELLE BARBOSA DUARTE            00DANIELLE BARBOSA DUARTE            LABORATORIO HERMES PARDINI         507120927874030188501210726000000000002081600000741580000343471000000000000000000000000000000000000000000000000000000000000000000000000000000000000000000000000000000000000000000830513200000000000000611418         000019378769002977J0000000000000000000000000000CONSULTOR DE VENDAS 20111020TNE100000000202107262021050119830513N0000000000
M001SOLDI PROMOTORA DE VENDAS LTDA     0100004180000180010DANIELLE BARBOSA DUARTE            00DANIELLE BARBOSA DUARTE            LABORATORIO HERMES PARDINI         507120927874030199001210726000000000002311600000741580000343471000000000000000000000000000000000000000000000000000000000000000000000000000000000000000000000000000000000000000000830513200000000000000678418         000019378769002977J0000000000000000000000000000CONSULTOR DE VENDAS 20111020TNE100000000202107262021050119830513N0000000000
M001SOLDI PROMOTORA DE VENDAS LTDA     0100004180000180010DANIELLE BARBOSA DUARTE            00DANIELLE BARBOSA DUARTE            LABORATORIO HERMES PARDINI         507120927874030204001210726000000000001621600000741580000343471000000000000000000000000000000000000000000000000000000000000000000000000000000000000000000000000000000000000000000830513200000000000000475418         000019378769002977J0000000000000000000000000000CONSULTOR DE VENDAS 20111020TNE100000000202107262021050119830513N0000000000
M001SOLDI PROMOTORA DE VENDAS LTDA     0100004180000180010DANIELLE BARBOSA DUARTE            00DANIELLE BARBOSA DUARTE            LABORATORIO HERMES PARDINI         507120927874030250401210726000000000001621600000741580000343471000000000000000000000000000000000000000000000000000000000000000000000000000000000000000000000000000000000000000000830513200000000000000475418         000019378769002977J0000000000000000000000000000CONSULTOR DE VENDAS 20111020TNE100000000202107262021050119830513N0000000000
M001SOLDI PROMOTORA DE VENDAS LTDA     0100004180000180010DANIELLE BARBOSA DUARTE            00DANIELLE BARBOSA DUARTE            LABORATORIO HERMES PARDINI         507120927874030251201210726000000000001621600000741580000343471000000000000000000000000000000000000000000000000000000000000000000000000000000000000000000000000000000000000000000830513200000000000000475418         000019378769002977J0000000000000000000000000000CONSULTOR DE VENDAS 20111020TNE100000000202107262021050119830513N0000000000
M001SOLDI PROMOTORA DE VENDAS LTDA     0100004180000180010DANIELLE BARBOSA DUARTE            00DANIELLE BARBOSA DUARTE            LABORATORIO HERMES PARDINI         507120927874030258001210726000000000001621600000741580000343471000000000000000000000000000000000000000000000000000000000000000000000000000000000000000000000000000000000000000000830513200000000000000475418         000019378769002977J0000000000000000000000000000CONSULTOR DE VENDAS 20111020TNE100000000202107262021050119830513N0000000000
M001SOLDI PROMOTORA DE VENDAS LTDA     0100004180000180010DANIELLE BARBOSA DUARTE            00DANIELLE BARBOSA DUARTE            LABORATORIO HERMES PARDINI         507120927874030436101210726000000000003471600000741580000343471000000000000000000000000000000000000000000000000000000000000000000000000000000000000000000000000000000000000000000830513200000000000001018418         000019378769002977J0000000000000000000000000000CONSULTOR DE VENDAS 20111020TNE100000000202107262021050119830513N0000000000
M001SOLDI PROMOTORA DE VENDAS LTDA     0100004180000180010DANIELLE BARBOSA DUARTE            00DANIELLE BARBOSA DUARTE            LABORATORIO HERMES PARDINI         507120927874031612201210726000000000022011600000741580000343471000000000000000000000000000000000000000000000000000000000000000000000000000000000000000000000000000000000000000000830513200000000000006446418         000019378769002977J0000000000000000000000000000CONSULTOR DE VENDAS 20111020TNE100000000202107262021050119830513N0000000000
M001SOLDI PROMOTORA DE VENDAS LTDA     0100004180000180010DANIELLE BARBOSA DUARTE            00DANIELLE BARBOSA DUARTE            LABORATORIO HERMES PARDINI         507120927874030163001210726000000000001621600000741580000343471000000000000000000000000000000000000000000000000000000000000000000000000000000000000000000000000000000000000000000830513200000000000000475418         000019378769002977J0000000000000000000000000000CONSULTOR DE VENDAS 20111020TNE100000000202107262021050119830513N0000000000
M001SOLDI PROMOTORA DE VENDAS LTDA     0100004340000018110MARIA LUCIA DA SILVA               00MARIA LUCIA DA SILVA               CLINICA JOAO SILVA FILHO           101841302251010101200210714000000000035521600000741580000173002000000000000000000000000000000000000000000000000000000000000000000000000000000000000000000000000000000000000000000760306200000000000010400434         000008708092000170J0000000000000000000000000000CONSULTOR DE VENDAS 20101122TNE100000000202107142021062419760306N0000000000
M001SOLDI PROMOTORA DE VENDAS LTDA     0100004340000018110MARIA LUCIA DA SILVA               00MARIA LUCIA DA SILVA               CLINICA DIAGNOSTICOS               607111736794100112501210716000000000061581600000741580000030903000000000000000000000000000000000000000000000000000000000000000000000000000000000000000000000000000000000000000000760306200000000000018033434         000006188263000152J0000000000000000000000000000CONSULTOR DE VENDAS 20101122TNE100000000202107162021052019760306N0000000000
M001SOLDI PROMOTORA DE VENDAS LTDA     0100005070008800211GLAUBER LARANJEIRA DO NASCIMENTO   02ALANNA FERREIRA NASCIMENTO         HOSPITAL DAS NEVES                 207113649278400040601210716000000000116080000000741580000432911000000000000000000000000000000000000000000000000000000000000000000000000000000000000000000000000000000000000000000080524220000000000033990507         020001817749000199J0000000000000000000000000000SUPERVISOR DE VENDAS20111002TNE100000000202107162021060320080524N0000000000
M001SOLDI PROMOTORA DE VENDAS LTDA     0100005740008800592ALINIR PEREIRA DE ALMEIDA PAVAO    01MAGNO ALEXANDRE SANTOS PAVAO       HOSPITAL DAS CLINICAS              207112805978400042201210716000000000061470000000741580000257311000000000000000000000000000000000000000000000000000000000000000000000000000000000000000000000000000000000000000000730826110000000000018000574         010084715051000190J0000000000000000000000000000CONSULTOR DE VENDAS 20120206TNE100000000202107162021052219730826N0000000000
M001SOLDI PROMOTORA DE VENDAS LTDA     0100005740008800592ALINIR PEREIRA DE ALMEIDA PAVAO    01MAGNO ALEXANDRE SANTOS PAVAO       HOSPITAL DAS CLINICAS              207112806248400042201210716000000000061470000000741580000257311000000000000000000000000000000000000000000000000000000000000000000000000000000000000000000000000000000000000000000730826110000000000018000574         010084715051000190J0000000000000000000000000000CONSULTOR DE VENDAS 20120206TNE100000000202107162021052619730826N0000000000
M001SOLDI PROMOTORA DE VENDAS LTDA     0100005740008800592ALINIR PEREIRA DE ALMEIDA PAVAO    02AGATHA ALMEIDA PAVAO               HOSPITAL SAMARITANO                207119798788400115101210723000000000047810000000741580000423912000000000000000000000000000000000000000000000000000000000000000000000000000000000000000000000000000000000000000000190606220000000000014000574         020000894710000102J0000000000000000000000000000CONSULTOR DE VENDAS 20120206TNE100000000202107232021051920190606N0000000000
M001SOLDI PROMOTORA DE VENDAS LTDA     0100006120008800598ELAINE DANIELE BARBOSA DE SOUZA    00ELAINE DANIELE BARBOSA DE SOUZA    HOSPITAL ADVENTISTA DE BELEM       207107644948400040601210709000000000102460000000741580000398713000000000000000000000000000000000000000000000000000000000000000000000000000000000000000000000000000000000000000000910829200000000000030000612         000083367342000252J0000000000000000000000000000CONSULTOR DE VENDAS 20120516TNE100000000202107092021052019910829N0000000000
M001SOLDI PROMOTORA DE VENDAS LTDA     0100006630000880061JESSICA LUISE TEXEIRA DE OLIVEIRA  00JESSICA LUISE TEXEIRA DE OLIVEIRA  URMED URGENCIAS MEDICAS            207108964228400041401210713000000000044400000000741580000133710000000000000000000000000000000000000000000000000000000000000000000000000000000000000000000000000000000000000000000900822100000000000013000663         000042378794000171J0000000000000000000000000000CONSULTOR DE VENDAS 20111103TNE100000000202107132021052719900822N0000000000
M001SOLDI PROMOTORA DE VENDAS LTDA     0100006630000880061JESSICA LUISE TEXEIRA DE OLIVEIRA  00JESSICA LUISE TEXEIRA DE OLIVEIRA  CLINICA NEUROLOGICA MARIA BACELAR  191235410361010101200210715000000000035521600000741580000279196000000000000000000000000000000000000000000000000000000000000000000000000000000000000000000000000000000000000000000900822100000000000010400663         000030118160000109J0000000000000000000000000000CONSULTOR DE VENDAS 20111103TNE100000000202107152021070719900822N0000000000
