HSINISTROS PAGOS074158191019103101000000001000000000000000000000000000000000000000000000000000000000000000000000000000000000000000000000000000000000000000000000000000000000000000000000000000000000000000000000000000000000000000000000000000000000000000000000000000000000000000000000000000000000000000000000000000000000000000000000000000000000000000000000000000000000000000000000000000000000000 012019102019103100000000000000000000000000000000000000000000000000000000000000000000000000000000000000000000
M001SOLDI PROMOTORA DE VENDAS LTDA     0100000190000110157PALOMA TATO RAMOS                  00PALOMA TATO RAMOS                  EMILIANE SIMONEK MALUF CAVALCANTE  10177513574101010120019100200000000003244160000074158192100460000000000000000000000000000000000000000000000000000000000000000000000000000000000000000000000000000000000000000000091032820210000000000950019          000000079704581734F0000000000000000000000000000CONSULTOR DE VENDAS 20110503TNE100000000201910022019091719910328N0000000000
M001SOLDI PROMOTORA DE VENDAS LTDA     0100000190000110157PALOMA TATO RAMOS                  00PALOMA TATO RAMOS                  HOSPITAL CAXIAS DOR                20666923321840010110119103000000000010543000000074158000041421200000000000000000000000000000000000000000000000000000000000000000000000000000000000000000000000000000000000000000091032820000000000003087019          000006047087001372J0000000000000000000000000000CONSULTOR DE VENDAS 20110503TNE100000000201910302019083019910328N0000000000
M001SOLDI PROMOTORA DE VENDAS LTDA     0100000860000111116ALINE GONCALVES ALBUQUERQUE        00ALINE GONCALVES ALBUQUERQUE        ANGELA CAVALCANTI DE SOUZA         18120686656101010120019100300000000003244160000074158001603900000000000000000000000000000000000000000000000000000000000000000000000000000000000000000000000000000000000000000000078020920160000000000950086          000000094400598772F0000000000000000000000000000SUPERVISOR DE VENDAS20101206TNQ200000000201910032019091219780209N0000000000
M001SOLDI PROMOTORA DE VENDAS LTDA     0100001240000116162JULIANI CARDOSO ROGATI             01LEONARDO DE SOUSA ROGATI           MARCELO DOMINGOS GUAZZELLI         101762418060001147900191018000000000043540000000741580414007400000000000000000000000000000000000000000000000000000000000000000000000000000000000000000000000000000000000000000000910102111400000000012750124         010000002883448809F0000000000000000000000000000ASSISTENTE COMERCIAL20100728TNE100000000201910182019091019910102N0000000000
M001SOLDI PROMOTORA DE VENDAS LTDA     0100001240000116162JULIANI CARDOSO ROGATI             00JULIANI CARDOSO ROGATI             MARCELO DOMINGOS GUAZZELLI         101762404680001147900191018000000000043540000000741580414007400000000000000000000000000000000000000000000000000000000000000000000000000000000000000000000000000000000000000000000900419201400000000012750124         000000002883448809F0000000000000000000000000000ASSISTENTE COMERCIAL20100728TNE100000000201910182019091019900419N0000000000
M001SOLDI PROMOTORA DE VENDAS LTDA     0100001320000118002JOSE LEITE RIBEIRO TAVARES         01LUCIDIA DE MEDEIROS TAVARES        HOSPITAL PORTUGUES                 506638428064031021301191001000000000003131600000741580000155934000000000000000000000000000000000000000000000000000000000000000000000000000000000000000000000000000000000000000000710811210000000000000918132         010010892164000124J0000000000000000000000000000GERENTE COMERCIAL I 20080218TNQ200000000201910012019073119710811N0000000000
M001SOLDI PROMOTORA DE VENDAS LTDA     0100001320000118002JOSE LEITE RIBEIRO TAVARES         01LUCIDIA DE MEDEIROS TAVARES        HOSPITAL PORTUGUES                 506638428064031042601191001000000000007321600000741580000155934000000000000000000000000000000000000000000000000000000000000000000000000000000000000000000000000000000000000000000710811210000000000002146132         010010892164000124J0000000000000000000000000000GERENTE COMERCIAL I 20080218TNQ200000000201910012019073119710811N0000000000
M001SOLDI PROMOTORA DE VENDAS LTDA     0100001320000118002JOSE LEITE RIBEIRO TAVARES         00JOSE LEITE RIBEIRO TAVARES         NOVA DIAGNOSTICO POR IMAGEM        506637424024090175001191001000000000019321600000741580000618179000000000000000000000000000000000000000000000000000000000000000000000000000000000000000000000000000000000000000000710927100000000000005658132         000004489715000100J0000000000000000000000000000GERENTE COMERCIAL I 20080218TNQ200000000201910012019072719710927N0000000000
M001SOLDI PROMOTORA DE VENDAS LTDA     0100001320000118002JOSE LEITE RIBEIRO TAVARES         00JOSE LEITE RIBEIRO TAVARES         NOVA DIAGNOSTICO POR IMAGEM        506637424024090112201191001000000000044091600000741580000618179000000000000000000000000000000000000000000000000000000000000000000000000000000000000000000000000000000000000000000710927100000000000012911132         000004489715000100J0000000000000000000000000000GERENTE COMERCIAL I 20080218TNQ200000000201910012019072719710927N0000000000
M001SOLDI PROMOTORA DE VENDAS LTDA     0100001320000118002JOSE LEITE RIBEIRO TAVARES         00JOSE LEITE RIBEIRO TAVARES         ADONAI REIS DE MEDEIROS            101778904461010101200191002000000000032441600000741581418023700000000000000000000000000000000000000000000000000000000000000000000000000000000000000000000000000000000000000000000710927101800000000009500132         000000015704980406F0000000000000000000000000000GERENTE COMERCIAL I 20080218TNQ200000000201910022019091919710927N0000000000
M001SOLDI PROMOTORA DE VENDAS LTDA     0100001320000118002JOSE LEITE RIBEIRO TAVARES         01LUCIDIA DE MEDEIROS TAVARES        LABORAT MARCELO MAGALHAES          506645536804031021301191015000000000002751600000741580000369233000000000000000000000000000000000000000000000000000000000000000000000000000000000000000000000000000000000000000000710811210000000000000808132         010011696937000160J0000000000000000000000000000GERENTE COMERCIAL I 20080218TNQ200000000201910152019081719710811N0000000000
M001SOLDI PROMOTORA DE VENDAS LTDA     0100001320000118002JOSE LEITE RIBEIRO TAVARES         00JOSE LEITE RIBEIRO TAVARES         LABORAT MARCELO MAGALHAES          506645536814031121001191015000000000001291600000741580000369233000000000000000000000000000000000000000000000000000000000000000000000000000000000000000000000000000000000000000000710927100000000000000378132         000011696937000160J0000000000000000000000000000GERENTE COMERCIAL I 20080218TNQ200000000201910152019081719710927N0000000000
M001SOLDI PROMOTORA DE VENDAS LTDA     0100001320000118002JOSE LEITE RIBEIRO TAVARES         01LUCIDIA DE MEDEIROS TAVARES        LABORAT MARCELO MAGALHAES          506645536804031041801191015000000000001831600000741580000369233000000000000000000000000000000000000000000000000000000000000000000000000000000000000000000000000000000000000000000710811210000000000000538132         010011696937000160J0000000000000000000000000000GERENTE COMERCIAL I 20080218TNQ200000000201910152019081719710811N0000000000
M001SOLDI PROMOTORA DE VENDAS LTDA     0100001320000118002JOSE LEITE RIBEIRO TAVARES         00JOSE LEITE RIBEIRO TAVARES         LABORAT MARCELO MAGALHAES          506645536814031021301191015000000000002751600000741580000369233000000000000000000000000000000000000000000000000000000000000000000000000000000000000000000000000000000000000000000710927100000000000000808132         000011696937000160J0000000000000000000000000000GERENTE COMERCIAL I 20080218TNQ200000000201910152019081719710927N0000000000
M001SOLDI PROMOTORA DE VENDAS LTDA     0100001320000118002JOSE LEITE RIBEIRO TAVARES         00JOSE LEITE RIBEIRO TAVARES         NUPE                               100149003081010101200191015000000000032441600000741580000738891000000000000000000000000000000000000000000000000000000000000000000000000000000000000000000000000000000000000000000710927100000000000009500132         000010524168000230J0000000000000000000000000000GERENTE COMERCIAL I 20080218TNQ200000000201910152019091619710927N0000000000
M001SOLDI PROMOTORA DE VENDAS LTDA     0100001320000118002JOSE LEITE RIBEIRO TAVARES         03ILANA DE MEDEIROS TAVARES LEITE    INST HOSP DE TRATAMENTO DA VISAO   506648878274130108002191016000000000059911600000741580000269492000000000000000000000000000000000000000000000000000000000000000000000000000000000000000000000000000000000000000000100615220000000000017542132         030005574910000100J0000000000000000000000000000GERENTE COMERCIAL I 20080218TNQ200000000201910162019072620100615N0000000000
M001SOLDI PROMOTORA DE VENDAS LTDA     0100001320000118002JOSE LEITE RIBEIRO TAVARES         03ILANA DE MEDEIROS TAVARES LEITE    INST HOSP DE TRATAMENTO DA VISAO   206648878274130126902191016000000000083881600000741580000269492000000000000000000000000000000000000000000000000000000000000000000000000000000000000000000000000000000000000000000100615220000000000024562132         030005574910000100J0000000000000000000000000000GERENTE COMERCIAL I 20080218TNQ200000000201910162019072620100615N0000000000
M001SOLDI PROMOTORA DE VENDAS LTDA     0100001320000118002JOSE LEITE RIBEIRO TAVARES         00JOSE LEITE RIBEIRO TAVARES         NOVA DIAGNOSTICO POR IMAGEM        606658199304100109501191022000000000160311600000741580000618179000000000000000000000000000000000000000000000000000000000000000000000000000000000000000000000000000000000000000000710927100000000000046940132         000004489715000100J0000000000000000000000000000GERENTE COMERCIAL I 20080218TNQ200000000201910222019083119710927N0000000000
M001SOLDI PROMOTORA DE VENDAS LTDA     0100001320000118002JOSE LEITE RIBEIRO TAVARES         01LUCIDIA DE MEDEIROS TAVARES        NOVA DIAGNOSTICO POR IMAGEM        506658200054090112201191022000000000044091600000741580000618179000000000000000000000000000000000000000000000000000000000000000000000000000000000000000000000000000000000000000000710811210000000000012911132         010004489715000100J0000000000000000000000000000GERENTE COMERCIAL I 20080218TNQ200000000201910222019083119710811N0000000000
M001SOLDI PROMOTORA DE VENDAS LTDA     0100001320000118002JOSE LEITE RIBEIRO TAVARES         00JOSE LEITE RIBEIRO TAVARES         HOSPITAL DAS NEVES                 206665256678400041401191025000000000092210000000741580000432911000000000000000000000000000000000000000000000000000000000000000000000000000000000000000000000000000000000000000000710927100000000000027000132         000001817749000199J0000000000000000000000000000GERENTE COMERCIAL I 20080218TNQ200000000201910252019083119710927N0000000000
M001SOLDI PROMOTORA DE VENDAS LTDA     0100001320000118002JOSE LEITE RIBEIRO TAVARES         02MATEUS DE MEDEIROS TAVARES LEITE   ESPACO INTEGRAR                    206667523295000047005191028000000000067691600000741580000930792000000000000000000000000000000000000000000000000000000000000000000000000000000000000000000000000000000000000000000080324120000000000019820132         020011422364000186J0000000000000000000000000000GERENTE COMERCIAL I 20080218TNQ200000000201910282019070920080324N0000000000
M001SOLDI PROMOTORA DE VENDAS LTDA     0100001400000118013PALOMA SANTANA TEIXEIRA            02MIGUEL SANTANA BARBOSA             HOSPITAL DAS NEVES                 206652940598400334001191016000000000092210000000741580000432911000000000000000000000000000000000000000000000000000000000000000000000000000000000000000000000000000000000000000000181017120000000000027000140         020001817749000199J0000000000000000000000000000CONSULTOR DE VENDAS 20100413TNE100000000201910162019080620181017N0000000000
M001SOLDI PROMOTORA DE VENDAS LTDA     0100001400000118013PALOMA SANTANA TEIXEIRA            02MIGUEL SANTANA BARBOSA             COOPED PB                          100149351381010101200191021000000000032441600000741580000141291000000000000000000000000000000000000000000000000000000000000000000000000000000000000000000000000000000000000000000181017120000000000009500140         020004584679000164J0000000000000000000000000000CONSULTOR DE VENDAS 20100413TNE100000000201910212019091020181017N0000000000
M001SOLDI PROMOTORA DE VENDAS LTDA     0100001400000118013PALOMA SANTANA TEIXEIRA            00PALOMA SANTANA TEIXEIRA            NOVA DIAGNOSTICO POR IMAGEM        506658194264090111401191022000000000015141600000741580000618179000000000000000000000000000000000000000000000000000000000000000000000000000000000000000000000000000000000000000000880227200000000000004435140         000004489715000100J0000000000000000000000000000CONSULTOR DE VENDAS 20100413TNE100000000201910222019081319880227N0000000000
M001SOLDI PROMOTORA DE VENDAS LTDA     0100001400000118013PALOMA SANTANA TEIXEIRA            00PALOMA SANTANA TEIXEIRA            NOVA DIAGNOSTICO POR IMAGEM        506658194264090112201191022000000000044091600000741580000618179000000000000000000000000000000000000000000000000000000000000000000000000000000000000000000000000000000000000000000880227200000000000012911140         000004489715000100J0000000000000000000000000000CONSULTOR DE VENDAS 20100413TNE100000000201910222019081319880227N0000000000
M001SOLDI PROMOTORA DE VENDAS LTDA     0100001400000118013PALOMA SANTANA TEIXEIRA            00PALOMA SANTANA TEIXEIRA            NOVA DIAGNOSTICO POR IMAGEM        506658194264090130001191022000000000017881600000741580000618179000000000000000000000000000000000000000000000000000000000000000000000000000000000000000000000000000000000000000000880227200000000000005236140         000004489715000100J0000000000000000000000000000CONSULTOR DE VENDAS 20100413TNE100000000201910222019081319880227N0000000000
M001SOLDI PROMOTORA DE VENDAS LTDA     0100001400000118013PALOMA SANTANA TEIXEIRA            00PALOMA SANTANA TEIXEIRA            MARCELO MAURICIO GERMOGLIO         191212765451010101200191029000000000032441600000741580018041100000000000000000000000000000000000000000000000000000000000000000000000000000000000000000000000000000000000000000000880227201800000000009500140         000000057032076491F0000000000000000000000000000CONSULTOR DE VENDAS 20100413TNE100000000201910292019090919880227N0000000000
M001SOLDI PROMOTORA DE VENDAS LTDA     0100001400000118013PALOMA SANTANA TEIXEIRA            00PALOMA SANTANA TEIXEIRA            SECICOL                            506667002334130110201191031000000000009501600000741580000484130000000000000000000000000000000000000000000000000000000000000000000000000000000000000000000000000000000000000000000880227200000000000002783140         000009139189000172J0000000000000000000000000000CONSULTOR DE VENDAS 20100413TNE100000000201910312019081519880227N0000000000
M001SOLDI PROMOTORA DE VENDAS LTDA     0100001590000118023THALITA MENDES DE ALMEIDA LIMA     00THALITA MENDES DE ALMEIDA LIMA     HOSPITAL DAS NEVES                 206652938448400041401191014000000000092210000000741580000432911000000000000000000000000000000000000000000000000000000000000000000000000000000000000000000000000000000000000000000891208200000000000027000159         000001817749000199J0000000000000000000000000000CONSULTOR DE VENDAS 20110110TNE100000000201910142019082019891208N0000000000
M001SOLDI PROMOTORA DE VENDAS LTDA     0100001590000118023THALITA MENDES DE ALMEIDA LIMA     00THALITA MENDES DE ALMEIDA LIMA     SECICOL                            506667005234130110201191031000000000009501600000741580000484130000000000000000000000000000000000000000000000000000000000000000000000000000000000000000000000000000000000000000000891208200000000000002783159         000009139189000172J0000000000000000000000000000CONSULTOR DE VENDAS 20110110TNE100000000201910312019081319891208N0000000000
M001SOLDI PROMOTORA DE VENDAS LTDA     0100001750000118029ROSIMERES MARIA DA SILVA           02HENRIQUE SILVA ROSENO VIANA GOMES  ROSIMERES MARIA DA SILVA           200016860235000061601191018000000000023341600000741580000000000000000000000000000000000000000000000000000000000000000000000000000000000000000000000000000000000000000000000000000140426129900000000006836175         020000000000000000 0000000000000000000000000000CONSULTOR DE VENDAS 20110404TNE100000000201910182019092320140426N0000015000
M001SOLDI PROMOTORA DE VENDAS LTDA     0100001750000118029ROSIMERES MARIA DA SILVA           02HENRIQUE SILVA ROSENO VIANA GOMES  ROSIMERES MARIA DA SILVA           200016860245000008001191018000000000022771600000741580000000000000000000000000000000000000000000000000000000000000000000000000000000000000000000000000000000000000000000000000000140426129900000000006669175         020000000000000000 0000000000000000000000000000CONSULTOR DE VENDAS 20110404TNE100000000201910182019092320140426N0000015000
M001SOLDI PROMOTORA DE VENDAS LTDA     0100001830000119012MARINALVA DE FREITAS COSTA         00MARINALVA DE FREITAS COSTA         ACLIMAGEM                          506636211304090130001191001000000000027561600000741580000137774000000000000000000000000000000000000000000000000000000000000000000000000000000000000000000000000000000000000000000781225200000000000008072183         000002436407000191J0000000000000000000000000000SUPERVISOR DE VENDAS20090720TNE100000000201910012019071019781225N0000000000
M001SOLDI PROMOTORA DE VENDAS LTDA     0100001830000119012MARINALVA DE FREITAS COSTA         00MARINALVA DE FREITAS COSTA         ACLIMAGEM                          506636211304090111401191001000000000023361600000741580000137774000000000000000000000000000000000000000000000000000000000000000000000000000000000000000000000000000000000000000000781225200000000000006841183         000002436407000191J0000000000000000000000000000SUPERVISOR DE VENDAS20090720TNE100000000201910012019071019781225N0000000000
M001SOLDI PROMOTORA DE VENDAS LTDA     0100001830000119012MARINALVA DE FREITAS COSTA         00MARINALVA DE FREITAS COSTA         ACLIMAGEM                          506636211304090120301191001000000000023361600000741580000137774000000000000000000000000000000000000000000000000000000000000000000000000000000000000000000000000000000000000000000781225200000000000006841183         000002436407000191J0000000000000000000000000000SUPERVISOR DE VENDAS20090720TNE100000000201910012019071019781225N0000000000
M001SOLDI PROMOTORA DE VENDAS LTDA     0100001830000119012MARINALVA DE FREITAS COSTA         00MARINALVA DE FREITAS COSTA         COOPEGO                            506637261134060112901191001000000000021291600000741580000523070000000000000000000000000000000000000000000000000000000000000000000000000000000000000000000000000000000000000000000781225200000000000006235183         000041314303000166J0000000000000000000000000000SUPERVISOR DE VENDAS20090720TNE100000000201910012019071019781225N0000000000
M001SOLDI PROMOTORA DE VENDAS LTDA     0100001830000119012MARINALVA DE FREITAS COSTA         00MARINALVA DE FREITAS COSTA         COOPANEST CE                       206643583603130317001191003000000000239791600000741580000993123000000000000000000000000000000000000000000000000000000000000000000000000000000000000000000000000000000000000000000781225200000000000070209183         000011807245000141J0000000000000000000000000000SUPERVISOR DE VENDAS20090720TNE100000000201910032019071919781225N0000000000
M001SOLDI PROMOTORA DE VENDAS LTDA     0100001830000119012MARINALVA DE FREITAS COSTA         00MARINALVA DE FREITAS COSTA         COOPANEST CE                       206643583603130329301191003000000000081091600000741580000993123000000000000000000000000000000000000000000000000000000000000000000000000000000000000000000000000000000000000000000781225200000000000023744183         000011807245000141J0000000000000000000000000000SUPERVISOR DE VENDAS20090720TNE100000000201910032019071919781225N0000000000
M001SOLDI PROMOTORA DE VENDAS LTDA     0100001830000119012MARINALVA DE FREITAS COSTA         02BRYAN DE FREITAS SOUSA             ANA ESTELA FERNANDES LEITE         106676834371010101201191007000000000032441600000741580031423500000000000000000000000000000000000000000000000000000000000000000000000000000000000000000000000000000000000000000000190208123100000000009500183         020000022863648349F0000000000000000000000000000SUPERVISOR DE VENDAS20090720TNE100000000201910072019092320190208N0000000000
M001SOLDI PROMOTORA DE VENDAS LTDA     0100001830000119012MARINALVA DE FREITAS COSTA         02BRYAN DE FREITAS SOUSA             CEPECE                             506652395054030839101191017000000000007861600000741580000279811000000000000000000000000000000000000000000000000000000000000000000000000000000000000000000000000000000000000000000190208120000000000002302183         020063386213000113J0000000000000000000000000000SUPERVISOR DE VENDAS20090720TNE100000000201910172019080520190208N0000000000
M001SOLDI PROMOTORA DE VENDAS LTDA     0100001830000119012MARINALVA DE FREITAS COSTA         02BRYAN DE FREITAS SOUSA             CEPECE                             506652395054040385801191017000000000002041600000741580000279811000000000000000000000000000000000000000000000000000000000000000000000000000000000000000000000000000000000000000000190208120000000000000598183         020063386213000113J0000000000000000000000000000SUPERVISOR DE VENDAS20090720TNE100000000201910172019080520190208N0000000000
M001SOLDI PROMOTORA DE VENDAS LTDA     0100001830000119012MARINALVA DE FREITAS COSTA         02BRYAN DE FREITAS SOUSA             CEPECE                             506652395054030250401191017000000000001641600000741580000279811000000000000000000000000000000000000000000000000000000000000000000000000000000000000000000000000000000000000000000190208120000000000000481183         020063386213000113J0000000000000000000000000000SUPERVISOR DE VENDAS20090720TNE100000000201910172019080520190208N0000000000
M001SOLDI PROMOTORA DE VENDAS LTDA     0100001830000119012MARINALVA DE FREITAS COSTA         02BRYAN DE FREITAS SOUSA             CEPECE                             506652395054030231801191017000000000001551600000741580000279811000000000000000000000000000000000000000000000000000000000000000000000000000000000000000000000000000000000000000000190208120000000000000454183         020063386213000113J0000000000000000000000000000SUPERVISOR DE VENDAS20090720TNE100000000201910172019080520190208N0000000000
M001SOLDI PROMOTORA DE VENDAS LTDA     0100001830000119012MARINALVA DE FREITAS COSTA         02BRYAN DE FREITAS SOUSA             CEPECE                             506652395054030242301191017000000000001551600000741580000279811000000000000000000000000000000000000000000000000000000000000000000000000000000000000000000000000000000000000000000190208120000000000000454183         020063386213000113J0000000000000000000000000000SUPERVISOR DE VENDAS20090720TNE100000000201910172019080520190208N0000000000
M001SOLDI PROMOTORA DE VENDAS LTDA     0100001830000119012MARINALVA DE FREITAS COSTA         02BRYAN DE FREITAS SOUSA             CEPECE                             506652395054030258001191017000000000001611600000741580000279811000000000000000000000000000000000000000000000000000000000000000000000000000000000000000000000000000000000000000000190208120000000000000473183         020063386213000113J0000000000000000000000000000SUPERVISOR DE VENDAS20090720TNE100000000201910172019080520190208N0000000000
M001SOLDI PROMOTORA DE VENDAS LTDA     0100001830000119012MARINALVA DE FREITAS COSTA         02BRYAN DE FREITAS SOUSA             CEPECE                             506652395054030436101191017000000000003521600000741580000279811000000000000000000000000000000000000000000000000000000000000000000000000000000000000000000000000000000000000000000190208120000000000001031183         020063386213000113J0000000000000000000000000000SUPERVISOR DE VENDAS20090720TNE100000000201910172019080520190208N0000000000
M001SOLDI PROMOTORA DE VENDAS LTDA     0100001830000119012MARINALVA DE FREITAS COSTA         02BRYAN DE FREITAS SOUSA             CEPECE                             506652395054030437001191017000000000001171600000741580000279811000000000000000000000000000000000000000000000000000000000000000000000000000000000000000000000000000000000000000000190208120000000000000344183         020063386213000113J0000000000000000000000000000SUPERVISOR DE VENDAS20090720TNE100000000201910172019080520190208N0000000000
M001SOLDI PROMOTORA DE VENDAS LTDA     0100001830000119012MARINALVA DE FREITAS COSTA         02BRYAN DE FREITAS SOUSA             CEPECE                             506652395054030163001191017000000000001551600000741580000279811000000000000000000000000000000000000000000000000000000000000000000000000000000000000000000000000000000000000000000190208120000000000000454183         020063386213000113J0000000000000000000000000000SUPERVISOR DE VENDAS20090720TNE100000000201910172019080520190208N0000000000
M001SOLDI PROMOTORA DE VENDAS LTDA     0100001830000119012MARINALVA DE FREITAS COSTA         02BRYAN DE FREITAS SOUSA             CEPECE                             206652395058400014701191017000000000087430000000741580000279811000000000000000000000000000000000000000000000000000000000000000000000000000000000000000000000000000000000000000000190208120000000000025600183         020063386213000113J0000000000000000000000000000SUPERVISOR DE VENDAS20090720TNE100000000201910172019080520190208N0000000000
M001SOLDI PROMOTORA DE VENDAS LTDA     0100001830000119012MARINALVA DE FREITAS COSTA         02BRYAN DE FREITAS SOUSA             CLINICA CAMPOS ELISIOS             206664822238400014701191030000000000051230000000741580000173797000000000000000000000000000000000000000000000000000000000000000000000000000000000000000000000000000000000000000000190208120000000000015000183         020003963412000115J0000000000000000000000000000SUPERVISOR DE VENDAS20090720TNE100000000201910302019091220190208N0000000000
M001SOLDI PROMOTORA DE VENDAS LTDA     0100002050000120018ANDREZA SANTOS HUMSI RAYES         03ALICE SANTOS HUMSI RAYES FRANCISCO CTO RADIOLOGICO CAMPO GRANDE       506639279554080502601191001000000000011641600000741580000373079000000000000000000000000000000000000000000000000000000000000000000000000000000000000000000000000000000000000000000190326220000000000003411205         030001944057000101J0000000000000000000000000000CONSULTOR DE VENDAS 20100809TNE100000000201910012019071120190326N0000000000
M001SOLDI PROMOTORA DE VENDAS LTDA     0100002050000120018ANDREZA SANTOS HUMSI RAYES         02CLAUDIO HENRIQUE PEREIRA FRANCISCO CTO RADIOLOGICO CAMPO GRANDE       506639279664090121101191001000000000024231600000741580000373079000000000000000000000000000000000000000000000000000000000000000000000000000000000000000000000000000000000000000000781104110000000000007097205         020001944057000101J0000000000000000000000000000CONSULTOR DE VENDAS 20100809TNE100000000201910012019071719781104N0000000000
M001SOLDI PROMOTORA DE VENDAS LTDA     0100002050000120018ANDREZA SANTOS HUMSI RAYES         02CLAUDIO HENRIQUE PEREIRA FRANCISCO CLINICA DE CAMPO GRANDE            3   EZB45M70000000100191011000000000678910000000741580000209210000000000001678300000000000000000000000026320000000001178500000000000000000000000366910000000000000000000000000000781104110000000000198780205         020000860841000179J0000000000000000000000000000CONSULTOR DE VENDAS 20100809TNE100000000201910112019081719781104N0000000000
M001SOLDI PROMOTORA DE VENDAS LTDA     0100002050000120018ANDREZA SANTOS HUMSI RAYES         02CLAUDIO HENRIQUE PEREIRA FRANCISCO CLINICA DE CAMPO GRANDE            506644938224080101201191015000000000010661600000741580000209210000000000000000000000000000000000000000000000000000000000000000000000000000000000000000000000000000000000000000000781104110000000000003123205         020000860841000179J0000000000000000000000000000CONSULTOR DE VENDAS 20100809TNE100000000201910152019081619781104N0000000000
M001SOLDI PROMOTORA DE VENDAS LTDA     0100002050000120018ANDREZA SANTOS HUMSI RAYES         02CLAUDIO HENRIQUE PEREIRA FRANCISCO CLINICA DE CAMPO GRANDE            106644938221010103901191015000000000042181600000741580000209210000000000000000000000000000000000000000000000000000000000000000000000000000000000000000000000000000000000000000000781104110000000000012350205         020000860841000179J0000000000000000000000000000CONSULTOR DE VENDAS 20100809TNE100000000201910152019081619781104N0000000000
M001SOLDI PROMOTORA DE VENDAS LTDA     0100002050000120018ANDREZA SANTOS HUMSI RAYES         02CLAUDIO HENRIQUE PEREIRA FRANCISCO CLINICA DE CAMPO GRANDE            506644938224080502601191015000000000011641600000741580000209210000000000000000000000000000000000000000000000000000000000000000000000000000000000000000000000000000000000000000000781104110000000000003411205         020000860841000179J0000000000000000000000000000CONSULTOR DE VENDAS 20100809TNE100000000201910152019081619781104N0000000000
M001SOLDI PROMOTORA DE VENDAS LTDA     0100002050000120018ANDREZA SANTOS HUMSI RAYES         02CLAUDIO HENRIQUE PEREIRA FRANCISCO CLINICA DE CAMPO GRANDE            206644938223401999201191015000000000003240000000741580000209210000000000000000000000000000000000000000000000000000000000000000000000000000000000000000000000000000000000000000000781104110000000000000949205         020000860841000179J0000000000000000000000000000CONSULTOR DE VENDAS 20100809TNE100000000201910152019081619781104N0000000000
M001SOLDI PROMOTORA DE VENDAS LTDA     0100002050000120018ANDREZA SANTOS HUMSI RAYES         02CLAUDIO HENRIQUE PEREIRA FRANCISCO CLINICA DE CAMPO GRANDE            206644938223401999501191015000000000035250000000741580000209210000000000000000000000000000000000000000000000000000000000000000000000000000000000000000000000000000000000000000000781104110000000000010321205         020000860841000179J0000000000000000000000000000CONSULTOR DE VENDAS 20100809TNE100000000201910152019081619781104N0000000000
M001SOLDI PROMOTORA DE VENDAS LTDA     0100002050000120018ANDREZA SANTOS HUMSI RAYES         02CLAUDIO HENRIQUE PEREIRA FRANCISCO CLINICA DE CAMPO GRANDE            206644938223401999101191015000000000011440000000741580000209210000000000000000000000000000000000000000000000000000000000000000000000000000000000000000000000000000000000000000000781104110000000000003351205         020000860841000179J0000000000000000000000000000CONSULTOR DE VENDAS 20100809TNE100000000201910152019081619781104N0000000000
M001SOLDI PROMOTORA DE VENDAS LTDA     0100002050000120018ANDREZA SANTOS HUMSI RAYES         00ANDREZA SANTOS HUMSI RAYES         CDO CTO DE DIAGNOST OFTALMOLOGICOS 106659879911010101201191018000000000032441600000741580000859095000000000000000000000000000000000000000000000000000000000000000000000000000000000000000000000000000000000000000000761030200000000000009500205         000012890020000164J0000000000000000000000000000CONSULTOR DE VENDAS 20100809TNE100000000201910182019073119761030N0000000000
M001SOLDI PROMOTORA DE VENDAS LTDA     0100002050000120018ANDREZA SANTOS HUMSI RAYES         00ANDREZA SANTOS HUMSI RAYES         CDO CTO DE DIAGNOST OFTALMOLOGICOS 506659879914130132301191018000000000004141600000741580000859095000000000000000000000000000000000000000000000000000000000000000000000000000000000000000000000000000000000000000000761030200000000000001215205         000012890020000164J0000000000000000000000000000CONSULTOR DE VENDAS 20100809TNE100000000201910182019073119761030N0000000000
M001SOLDI PROMOTORA DE VENDAS LTDA     0100002050000120018ANDREZA SANTOS HUMSI RAYES         00ANDREZA SANTOS HUMSI RAYES         CDO CTO DE DIAGNOST OFTALMOLOGICOS 606659879914130142002191018000000000119901600000741580000859095000000000000000000000000000000000000000000000000000000000000000000000000000000000000000000000000000000000000000000761030200000000000035106205         000012890020000164J0000000000000000000000000000CONSULTOR DE VENDAS 20100809TNE100000000201910182019073119761030N0000000000
M001SOLDI PROMOTORA DE VENDAS LTDA     0100002050000120018ANDREZA SANTOS HUMSI RAYES         03ALICE SANTOS HUMSI RAYES FRANCISCO CTO RADIOLOGICO CAMPO GRANDE       506662616074080502601191029000000000011641600000741580000373079000000000000000000000000000000000000000000000000000000000000000000000000000000000000000000000000000000000000000000190326220000000000003411205         030001944057000101J0000000000000000000000000000CONSULTOR DE VENDAS 20100809TNE100000000201910292019081220190326N0000000000
M001SOLDI PROMOTORA DE VENDAS LTDA     0100002050000120018ANDREZA SANTOS HUMSI RAYES         03ALICE SANTOS HUMSI RAYES FRANCISCO HOSPITAL DA CRIANCA                106662570471010103901191029000000000063901600000741580000316814000000000000000000000000000000000000000000000000000000000000000000000000000000000000000000000000000000000000000000190326220000000000018712205         030000996264000147J0000000000000000000000000000CONSULTOR DE VENDAS 20100809TNE100000000201910292019081120190326N0000000000
M001SOLDI PROMOTORA DE VENDAS LTDA     0100002050000120018ANDREZA SANTOS HUMSI RAYES         03ALICE SANTOS HUMSI RAYES FRANCISCO HOSPITAL DA CRIANCA                206662570473401999101191029000000000010000000000741580000316814000000000000000000000000000000000000000000000000000000000000000000000000000000000000000000000000000000000000000000190326220000000000002929205         030000996264000147J0000000000000000000000000000CONSULTOR DE VENDAS 20100809TNE100000000201910292019081120190326N0000000000
M001SOLDI PROMOTORA DE VENDAS LTDA     0100002050000120018ANDREZA SANTOS HUMSI RAYES         03ALICE SANTOS HUMSI RAYES FRANCISCO HOSPITAL DA CRIANCA                206662570473401999401191029000000000007400000000741580000316814000000000000000000000000000000000000000000000000000000000000000000000000000000000000000000000000000000000000000000190326220000000000002169205         030000996264000147J0000000000000000000000000000CONSULTOR DE VENDAS 20100809TNE100000000201910292019081120190326N0000000000
M001SOLDI PROMOTORA DE VENDAS LTDA     0100002050000120018ANDREZA SANTOS HUMSI RAYES         03ALICE SANTOS HUMSI RAYES FRANCISCO HOSPITAL DA CRIANCA                106662568081010103901191029000000000063901600000741580000316814000000000000000000000000000000000000000000000000000000000000000000000000000000000000000000000000000000000000000000190326220000000000018712205         030000996264000147J0000000000000000000000000000CONSULTOR DE VENDAS 20100809TNE100000000201910292019080920190326N0000000000
M001SOLDI PROMOTORA DE VENDAS LTDA     0100002640000013086ANTONIA DE SOUSA GOMES FEIJAO      01ANTONIO EGBERTO FEIJAO             HOSPITAL DE OLHOS DE NITEROI       106666179231010101201191025000000000032441600000741580000825492000000000000000000000000000000000000000000000000000000000000000000000000000000000000000000000000000000000000000000550607110000000000009500264         010039256128000318J0000000000000000000000000000AUXILIAR DE SERVICOS20100503TNE100000000201910252019090419550607N0000000000
M001SOLDI PROMOTORA DE VENDAS LTDA     0100002640000013086ANTONIA DE SOUSA GOMES FEIJAO      01ANTONIO EGBERTO FEIJAO             HOSPITAL DE OLHOS DE NITEROI       506666179234130132301191025000000000004141600000741580000825492000000000000000000000000000000000000000000000000000000000000000000000000000000000000000000000000000000000000000000550607110000000000001215264         010039256128000318J0000000000000000000000000000AUXILIAR DE SERVICOS20100503TNE100000000201910252019090419550607N0000000000
M001SOLDI PROMOTORA DE VENDAS LTDA     0100002640000013086ANTONIA DE SOUSA GOMES FEIJAO      00ANTONIA DE SOUSA GOMES FEIJAO      CONLAB SERVICOS MEDICOS            206666799543010149201191031000000000041901600000741580000353329000000000000000000000000000000000000000000000000000000000000000000000000000000000000000000000000000000000000000000601013200000000000012268264         000039185509000191J0000000000000000000000000000AUXILIAR DE SERVICOS20100503TNE100000000201910312019090319601013N0000000000
M001SOLDI PROMOTORA DE VENDAS LTDA     0100002640000013086ANTONIA DE SOUSA GOMES FEIJAO      00ANTONIA DE SOUSA GOMES FEIJAO      CONLAB SERVICOS MEDICOS            206666799543401999101191031000000000008880000000741580000353329000000000000000000000000000000000000000000000000000000000000000000000000000000000000000000000000000000000000000000601013200000000000002601264         000039185509000191J0000000000000000000000000000AUXILIAR DE SERVICOS20100503TNE100000000201910312019090319601013N0000000000
M001SOLDI PROMOTORA DE VENDAS LTDA     0100002640000013086ANTONIA DE SOUSA GOMES FEIJAO      00ANTONIA DE SOUSA GOMES FEIJAO      CONLAB SERVICOS MEDICOS            206666799543401999201191031000000000000310000000741580000353329000000000000000000000000000000000000000000000000000000000000000000000000000000000000000000000000000000000000000000601013200000000000000093264         000039185509000191J0000000000000000000000000000AUXILIAR DE SERVICOS20100503TNE100000000201910312019090319601013N0000000000
M001SOLDI PROMOTORA DE VENDAS LTDA     0100002640000013086ANTONIA DE SOUSA GOMES FEIJAO      00ANTONIA DE SOUSA GOMES FEIJAO      CONLAB SERVICOS MEDICOS            206666799543401999501191031000000000008190000000741580000353329000000000000000000000000000000000000000000000000000000000000000000000000000000000000000000000000000000000000000000601013200000000000002398264         000039185509000191J0000000000000000000000000000AUXILIAR DE SERVICOS20100503TNE100000000201910312019090319601013N0000000000
M001SOLDI PROMOTORA DE VENDAS LTDA     0100002640000013086ANTONIA DE SOUSA GOMES FEIJAO      01ANTONIO EGBERTO FEIJAO             ANTONIA DE SOUSA GOMES FEIJAO      4   EZQMPM03030602700191031000000000191911600000741580000000000000000000000000000000000000000000000000000000000000000000000000000000000000000000000000000000000000000000000000000550607119900000000056191264         010000000000000000 0000000000000000000000000000AUXILIAR DE SERVICOS20100503TNE100000000201910312019093019550607N0000056192
M001SOLDI PROMOTORA DE VENDAS LTDA     0100003020000133127ANA PAULA RODRIGUES BRAGA RAMALHO  00ANA PAULA RODRIGUES BRAGA RAMALHO  HOSPITAL DE OLHOS DO RN            191765448891010101200191018000000000032441600000741580000055202000000000000000000000000000000000000000000000000000000000000000000000000000000000000000000000000000000000000000000880812200000000000009500302         000070026661000171J0000000000000000000000000000CONSULTOR DE VENDAS 20100601TNE100000000201910182019091119880812N0000000000
M001SOLDI PROMOTORA DE VENDAS LTDA     0100003020000133127ANA PAULA RODRIGUES BRAGA RAMALHO  00ANA PAULA RODRIGUES BRAGA RAMALHO  ANGIOCARDIO                        100149588881010101200191021000000000032441600000741580000983420000000000000000000000000000000000000000000000000000000000000000000000000000000000000000000000000000000000000000000880812200000000000009500302         000001411494000160J0000000000000000000000000000CONSULTOR DE VENDAS 20100601TNE100000000201910212019091819880812N0000000000
M001SOLDI PROMOTORA DE VENDAS LTDA     0100003100000133146MARIA BETANIA SILVA DA TRINDADE    00MARIA BETANIA SILVA DA TRINDADE    PRO MULHER                         506641108984090130001191001000000000028611600000741580000356930000000000000000000000000000000000000000000000000000000000000000000000000000000000000000000000000000000000000000000770921200000000000008377310         000070003454000100J0000000000000000000000000000CONSULTOR DE VENDAS 20110601TNE100000000201910012019080219770921N0000000000
M001SOLDI PROMOTORA DE VENDAS LTDA     0100003100000133146MARIA BETANIA SILVA DA TRINDADE    00MARIA BETANIA SILVA DA TRINDADE    PRO MULHER                         506641108964060113701191001000000000012061600000741580000356930000000000000000000000000000000000000000000000000000000000000000000000000000000000000000000000000000000000000000000770921200000000000003533310         000070003454000100J0000000000000000000000000000CONSULTOR DE VENDAS 20110601TNE100000000201910012019080219770921N0000000000
M001SOLDI PROMOTORA DE VENDAS LTDA     0100003100000133146MARIA BETANIA SILVA DA TRINDADE    00MARIA BETANIA SILVA DA TRINDADE    PRO MULHER                         506641108974130110201191001000000000022371600000741580000356930000000000000000000000000000000000000000000000000000000000000000000000000000000000000000000000000000000000000000000770921200000000000006550310         000070003454000100J0000000000000000000000000000CONSULTOR DE VENDAS 20110601TNE100000000201910012019080219770921N0000000000
M001SOLDI PROMOTORA DE VENDAS LTDA     0100003100000133146MARIA BETANIA SILVA DA TRINDADE    00MARIA BETANIA SILVA DA TRINDADE    LAURA MARIA DE ALBUQUERQUE L PORTO 101785984241010101200191018000000000005461600000741580019032100000000000000000000000000000000000000000000000000000000000000000000000000000000000000000000000000000000000000000000770921201900000000001600310         000000013976800406F0000000000000000000000000000CONSULTOR DE VENDAS 20110601TNE100000000201910182019092319770921N0000000000
M001SOLDI PROMOTORA DE VENDAS LTDA     0100003290000133158CARLA C GUILHERME SILVA MARQUES    03LAVINIA ISABELE GUILHERME MARQUES  MEDICOR                            506639627784030275001191001000000000008201600000741580000561339000000000000000000000000000000000000000000000000000000000000000000000000000000000000000000000000000000000000000000140221220000000000002403329         030024318149000181J0000000000000000000000000000CONSULTOR DE VENDAS 20110701TNE100000000201910012019081020140221N0000000000
M001SOLDI PROMOTORA DE VENDAS LTDA     0100003290000133158CARLA C GUILHERME SILVA MARQUES    02LIVIA MARINA GUILHERME MARQUES     MEDICOR                            506639627774030436101191001000000000003511600000741580000561339000000000000000000000000000000000000000000000000000000000000000000000000000000000000000000000000000000000000000000140221220000000000001030329         020024318149000181J0000000000000000000000000000CONSULTOR DE VENDAS 20110701TNE100000000201910012019081020140221N0000000000
M001SOLDI PROMOTORA DE VENDAS LTDA     0100003290000133158CARLA C GUILHERME SILVA MARQUES    02LIVIA MARINA GUILHERME MARQUES     MEDICOR                            506639627774030283001191001000000000009791600000741580000561339000000000000000000000000000000000000000000000000000000000000000000000000000000000000000000000000000000000000000000140221220000000000002868329         020024318149000181J0000000000000000000000000000CONSULTOR DE VENDAS 20110701TNE100000000201910012019081020140221N0000000000
M001SOLDI PROMOTORA DE VENDAS LTDA     0100003290000133158CARLA C GUILHERME SILVA MARQUES    03LAVINIA ISABELE GUILHERME MARQUES  HOSP MEMORIAL ARTHUR RAMOS         206635836083401999101191001000000000013500000000741580000047619000000000000000000000000000000000000000000000000000000000000000000000000000000000000000000000000000000000000000000140221220000000000003955329         030001722424000122J0000000000000000000000000000CONSULTOR DE VENDAS 20110701TNE100000000201910012019050120140221N0000000000
M001SOLDI PROMOTORA DE VENDAS LTDA     0100003290000133158CARLA C GUILHERME SILVA MARQUES    02LIVIA MARINA GUILHERME MARQUES     MEDICOR                            506639627774031121001191001000000000001631600000741580000561339000000000000000000000000000000000000000000000000000000000000000000000000000000000000000000000000000000000000000000140221220000000000000480329         020024318149000181J0000000000000000000000000000CONSULTOR DE VENDAS 20110701TNE100000000201910012019081020140221N0000000000
M001SOLDI PROMOTORA DE VENDAS LTDA     0100003290000133158CARLA C GUILHERME SILVA MARQUES    02LIVIA MARINA GUILHERME MARQUES     MEDICOR                            506639627774030184201191001000000000002111600000741580000561339000000000000000000000000000000000000000000000000000000000000000000000000000000000000000000000000000000000000000000140221220000000000000618329         020024318149000181J0000000000000000000000000000CONSULTOR DE VENDAS 20110701TNE100000000201910012019081020140221N0000000000
M001SOLDI PROMOTORA DE VENDAS LTDA     0100003290000133158CARLA C GUILHERME SILVA MARQUES    03LAVINIA ISABELE GUILHERME MARQUES  MEDICOR                            506639627784030436101191001000000000003511600000741580000561339000000000000000000000000000000000000000000000000000000000000000000000000000000000000000000000000000000000000000000140221220000000000001030329         030024318149000181J0000000000000000000000000000CONSULTOR DE VENDAS 20110701TNE100000000201910012019081020140221N0000000000
M001SOLDI PROMOTORA DE VENDAS LTDA     0100003290000133158CARLA C GUILHERME SILVA MARQUES    00CARLA C GUILHERME SILVA MARQUES    SERVIMED                           106641281951010103901191001000000000034391600000741580000444197000000000000000000000000000000000000000000000000000000000000000000000000000000000000000000000000000000000000000000860131200000000000010070329         000004695546000165J0000000000000000000000000000CONSULTOR DE VENDAS 20110701TNE100000000201910012019073019860131N0000000000
M001SOLDI PROMOTORA DE VENDAS LTDA     0100003290000133158CARLA C GUILHERME SILVA MARQUES    03LAVINIA ISABELE GUILHERME MARQUES  HOSP MEMORIAL ARTHUR RAMOS         106635836081010103901191001000000000042181600000741580000047619000000000000000000000000000000000000000000000000000000000000000000000000000000000000000000000000000000000000000000140221220000000000012350329         030001722424000122J0000000000000000000000000000CONSULTOR DE VENDAS 20110701TNE100000000201910012019050120140221N0000000000
M001SOLDI PROMOTORA DE VENDAS LTDA     0100003290000133158CARLA C GUILHERME SILVA MARQUES    02LIVIA MARINA GUILHERME MARQUES     MEDICOR                            506639627774030275001191001000000000008201600000741580000561339000000000000000000000000000000000000000000000000000000000000000000000000000000000000000000000000000000000000000000140221220000000000002403329         020024318149000181J0000000000000000000000000000CONSULTOR DE VENDAS 20110701TNE100000000201910012019081020140221N0000000000
M001SOLDI PROMOTORA DE VENDAS LTDA     0100003290000133158CARLA C GUILHERME SILVA MARQUES    00CARLA C GUILHERME SILVA MARQUES    HOSP MEMORIAL ARTHUR RAMOS         206635831353401999201191001000000000019360000000741580000047619000000000000000000000000000000000000000000000000000000000000000000000000000000000000000000000000000000000000000000860131200000000000005671329         000001722424000122J0000000000000000000000000000CONSULTOR DE VENDAS 20110701TNE100000000201910012019052419860131N0000000000
M001SOLDI PROMOTORA DE VENDAS LTDA     0100003290000133158CARLA C GUILHERME SILVA MARQUES    03LAVINIA ISABELE GUILHERME MARQUES  MEDICOR                            506639627784030311001191001000000000001631600000741580000561339000000000000000000000000000000000000000000000000000000000000000000000000000000000000000000000000000000000000000000140221220000000000000480329         030024318149000181J0000000000000000000000000000CONSULTOR DE VENDAS 20110701TNE100000000201910012019081020140221N0000000000
M001SOLDI PROMOTORA DE VENDAS LTDA     0100003290000133158CARLA C GUILHERME SILVA MARQUES    03LAVINIA ISABELE GUILHERME MARQUES  HOSP MEMORIAL ARTHUR RAMOS         206635836083401999201191001000000000000980000000741580000047619000000000000000000000000000000000000000000000000000000000000000000000000000000000000000000000000000000000000000000140221220000000000000288329         030001722424000122J0000000000000000000000000000CONSULTOR DE VENDAS 20110701TNE100000000201910012019050120140221N0000000000
M001SOLDI PROMOTORA DE VENDAS LTDA     0100003290000133158CARLA C GUILHERME SILVA MARQUES    02LIVIA MARINA GUILHERME MARQUES     HOSP MEMORIAL ARTHUR RAMOS         106635835281010103901191001000000000032441600000741580000047619000000000000000000000000000000000000000000000000000000000000000000000000000000000000000000000000000000000000000000140221220000000000009500329         020001722424000122J0000000000000000000000000000CONSULTOR DE VENDAS 20110701TNE100000000201910012019050320140221N0000000000
M001SOLDI PROMOTORA DE VENDAS LTDA     0100003290000133158CARLA C GUILHERME SILVA MARQUES    02LIVIA MARINA GUILHERME MARQUES     HOSP MEMORIAL ARTHUR RAMOS         206635835283401999101191001000000000013500000000741580000047619000000000000000000000000000000000000000000000000000000000000000000000000000000000000000000000000000000000000000000140221220000000000003955329         020001722424000122J0000000000000000000000000000CONSULTOR DE VENDAS 20110701TNE100000000201910012019050320140221N0000000000
M001SOLDI PROMOTORA DE VENDAS LTDA     0100003290000133158CARLA C GUILHERME SILVA MARQUES    02LIVIA MARINA GUILHERME MARQUES     HOSP MEMORIAL ARTHUR RAMOS         206635835283401999201191001000000000000760000000741580000047619000000000000000000000000000000000000000000000000000000000000000000000000000000000000000000000000000000000000000000140221220000000000000224329         020001722424000122J0000000000000000000000000000CONSULTOR DE VENDAS 20110701TNE100000000201910012019050320140221N0000000000
M001SOLDI PROMOTORA DE VENDAS LTDA     0100003290000133158CARLA C GUILHERME SILVA MARQUES    02LIVIA MARINA GUILHERME MARQUES     MEDICOR                            506639627774031627001191001000000000014661600000741580000561339000000000000000000000000000000000000000000000000000000000000000000000000000000000000000000000000000000000000000000140221220000000000004294329         020024318149000181J0000000000000000000000000000CONSULTOR DE VENDAS 20110701TNE100000000201910012019081020140221N0000000000
M001SOLDI PROMOTORA DE VENDAS LTDA     0100003290000133158CARLA C GUILHERME SILVA MARQUES    02LIVIA MARINA GUILHERME MARQUES     MEDICOR                            506639627774030204001191001000000000001631600000741580000561339000000000000000000000000000000000000000000000000000000000000000000000000000000000000000000000000000000000000000000140221220000000000000480329         020024318149000181J0000000000000000000000000000CONSULTOR DE VENDAS 20110701TNE100000000201910012019081020140221N0000000000
M001SOLDI PROMOTORA DE VENDAS LTDA     0100003290000133158CARLA C GUILHERME SILVA MARQUES    03LAVINIA ISABELE GUILHERME MARQUES  MEDICOR                            506639627784031121001191001000000000001631600000741580000561339000000000000000000000000000000000000000000000000000000000000000000000000000000000000000000000000000000000000000000140221220000000000000480329         030024318149000181J0000000000000000000000000000CONSULTOR DE VENDAS 20110701TNE100000000201910012019081020140221N0000000000
M001SOLDI PROMOTORA DE VENDAS LTDA     0100003290000133158CARLA C GUILHERME SILVA MARQUES    00CARLA C GUILHERME SILVA MARQUES    MEDICOR                            506639627794030250401191001000000000001631600000741580000561339000000000000000000000000000000000000000000000000000000000000000000000000000000000000000000000000000000000000000000860131200000000000000480329         000024318149000181J0000000000000000000000000000CONSULTOR DE VENDAS 20110701TNE100000000201910012019081019860131N0000000000
M001SOLDI PROMOTORA DE VENDAS LTDA     0100003290000133158CARLA C GUILHERME SILVA MARQUES    00CARLA C GUILHERME SILVA MARQUES    HOSP MEMORIAL ARTHUR RAMOS         206635831353401999501191001000000000001700000000741580000047619000000000000000000000000000000000000000000000000000000000000000000000000000000000000000000000000000000000000000000860131200000000000000500329         000001722424000122J0000000000000000000000000000CONSULTOR DE VENDAS 20110701TNE100000000201910012019052419860131N0000000000
M001SOLDI PROMOTORA DE VENDAS LTDA     0100003290000133158CARLA C GUILHERME SILVA MARQUES    03LAVINIA ISABELE GUILHERME MARQUES  MEDICOR                            506639627784031627001191001000000000014661600000741580000561339000000000000000000000000000000000000000000000000000000000000000000000000000000000000000000000000000000000000000000140221220000000000004294329         030024318149000181J0000000000000000000000000000CONSULTOR DE VENDAS 20110701TNE100000000201910012019081020140221N0000000000
M001SOLDI PROMOTORA DE VENDAS LTDA     0100003290000133158CARLA C GUILHERME SILVA MARQUES    02LIVIA MARINA GUILHERME MARQUES     HOSP MEMORIAL ARTHUR RAMOS         106635830701010103901191001000000000042181600000741580000047619000000000000000000000000000000000000000000000000000000000000000000000000000000000000000000000000000000000000000000140221220000000000012350329         020001722424000122J0000000000000000000000000000CONSULTOR DE VENDAS 20110701TNE100000000201910012019052420140221N0000000000
M001SOLDI PROMOTORA DE VENDAS LTDA     0100003290000133158CARLA C GUILHERME SILVA MARQUES    02LIVIA MARINA GUILHERME MARQUES     MEDICOR                            506639627774030311001191001000000000001631600000741580000561339000000000000000000000000000000000000000000000000000000000000000000000000000000000000000000000000000000000000000000140221220000000000000480329         020024318149000181J0000000000000000000000000000CONSULTOR DE VENDAS 20110701TNE100000000201910012019081020140221N0000000000
M001SOLDI PROMOTORA DE VENDAS LTDA     0100003290000133158CARLA C GUILHERME SILVA MARQUES    03LAVINIA ISABELE GUILHERME MARQUES  MEDICOR                            506639627784030283001191001000000000009791600000741580000561339000000000000000000000000000000000000000000000000000000000000000000000000000000000000000000000000000000000000000000140221220000000000002868329         030024318149000181J0000000000000000000000000000CONSULTOR DE VENDAS 20110701TNE100000000201910012019081020140221N0000000000
M001SOLDI PROMOTORA DE VENDAS LTDA     0100003290000133158CARLA C GUILHERME SILVA MARQUES    03LAVINIA ISABELE GUILHERME MARQUES  MEDICOR                            506639627784030184201191001000000000002111600000741580000561339000000000000000000000000000000000000000000000000000000000000000000000000000000000000000000000000000000000000000000140221220000000000000618329         030024318149000181J0000000000000000000000000000CONSULTOR DE VENDAS 20110701TNE100000000201910012019081020140221N0000000000
M001SOLDI PROMOTORA DE VENDAS LTDA     0100003290000133158CARLA C GUILHERME SILVA MARQUES    00CARLA C GUILHERME SILVA MARQUES    HOSP MEMORIAL ARTHUR RAMOS         206635831353401999101191001000000000004620000000741580000047619000000000000000000000000000000000000000000000000000000000000000000000000000000000000000000000000000000000000000000860131200000000000001355329         000001722424000122J0000000000000000000000000000CONSULTOR DE VENDAS 20110701TNE100000000201910012019052419860131N0000000000
M001SOLDI PROMOTORA DE VENDAS LTDA     0100003290000133158CARLA C GUILHERME SILVA MARQUES    00CARLA C GUILHERME SILVA MARQUES    HOSP MEMORIAL ARTHUR RAMOS         506636105774030839101191001000000000007861600000741580000106232000000000000000000000000000000000000000000000000000000000000000000000000000000000000000000000000000000000000000000860131200000000000002302329         000001722424000122J0000000000000000000000000000CONSULTOR DE VENDAS 20110701TNE100000000201910012019080119860131N0000000000
M001SOLDI PROMOTORA DE VENDAS LTDA     0100003290000133158CARLA C GUILHERME SILVA MARQUES    02LIVIA MARINA GUILHERME MARQUES     HOSP MEMORIAL ARTHUR RAMOS         206635830703401999101191001000000000013500000000741580000047619000000000000000000000000000000000000000000000000000000000000000000000000000000000000000000000000000000000000000000140221220000000000003955329         020001722424000122J0000000000000000000000000000CONSULTOR DE VENDAS 20110701TNE100000000201910012019052420140221N0000000000
M001SOLDI PROMOTORA DE VENDAS LTDA     0100003290000133158CARLA C GUILHERME SILVA MARQUES    00CARLA C GUILHERME SILVA MARQUES    MEDICOR                            506639627794030251201191001000000000001631600000741580000561339000000000000000000000000000000000000000000000000000000000000000000000000000000000000000000000000000000000000000000860131200000000000000480329         000024318149000181J0000000000000000000000000000CONSULTOR DE VENDAS 20110701TNE100000000201910012019081019860131N0000000000
M001SOLDI PROMOTORA DE VENDAS LTDA     0100003290000133158CARLA C GUILHERME SILVA MARQUES    00CARLA C GUILHERME SILVA MARQUES    MEDICOR                            506639627794030436101191001000000000003511600000741580000561339000000000000000000000000000000000000000000000000000000000000000000000000000000000000000000000000000000000000000000860131200000000000001030329         000024318149000181J0000000000000000000000000000CONSULTOR DE VENDAS 20110701TNE100000000201910012019081019860131N0000000000
M001SOLDI PROMOTORA DE VENDAS LTDA     0100003290000133158CARLA C GUILHERME SILVA MARQUES    00CARLA C GUILHERME SILVA MARQUES    HOSP MEMORIAL ARTHUR RAMOS         506636105774030250401191001000000000001641600000741580000106232000000000000000000000000000000000000000000000000000000000000000000000000000000000000000000000000000000000000000000860131200000000000000481329         000001722424000122J0000000000000000000000000000CONSULTOR DE VENDAS 20110701TNE100000000201910012019080119860131N0000000000
M001SOLDI PROMOTORA DE VENDAS LTDA     0100003290000133158CARLA C GUILHERME SILVA MARQUES    00CARLA C GUILHERME SILVA MARQUES    HOSP MEMORIAL ARTHUR RAMOS         506636105774030251201191001000000000001641600000741580000106232000000000000000000000000000000000000000000000000000000000000000000000000000000000000000000000000000000000000000000860131200000000000000481329         000001722424000122J0000000000000000000000000000CONSULTOR DE VENDAS 20110701TNE100000000201910012019080119860131N0000000000
M001SOLDI PROMOTORA DE VENDAS LTDA     0100003290000133158CARLA C GUILHERME SILVA MARQUES    00CARLA C GUILHERME SILVA MARQUES    HOSP MEMORIAL ARTHUR RAMOS         506636105774030436101191001000000000003521600000741580000106232000000000000000000000000000000000000000000000000000000000000000000000000000000000000000000000000000000000000000000860131200000000000001031329         000001722424000122J0000000000000000000000000000CONSULTOR DE VENDAS 20110701TNE100000000201910012019080119860131N0000000000
M001SOLDI PROMOTORA DE VENDAS LTDA     0100003290000133158CARLA C GUILHERME SILVA MARQUES    03LAVINIA ISABELE GUILHERME MARQUES  MEDICOR                            506639627784030204001191001000000000001631600000741580000561339000000000000000000000000000000000000000000000000000000000000000000000000000000000000000000000000000000000000000000140221220000000000000480329         030024318149000181J0000000000000000000000000000CONSULTOR DE VENDAS 20110701TNE100000000201910012019081020140221N0000000000
M001SOLDI PROMOTORA DE VENDAS LTDA     0100003290000133158CARLA C GUILHERME SILVA MARQUES    03LAVINIA ISABELE GUILHERME MARQUES  OTOCLINIC                          100148695451010101200191009000000000032441600000741580000122297000000000000000000000000000000000000000000000000000000000000000000000000000000000000000000000000000000000000000000140221220000000000009500329         030002273152000193J0000000000000000000000000000CONSULTOR DE VENDAS 20110701TNE100000000201910092019091820140221N0000000000
M001SOLDI PROMOTORA DE VENDAS LTDA     0100003290000133158CARLA C GUILHERME SILVA MARQUES    00CARLA C GUILHERME SILVA MARQUES    SERVIMED                           106649718671010103901191016000000000044711600000741580000444197000000000000000000000000000000000000000000000000000000000000000000000000000000000000000000000000000000000000000000860131200000000000013091329         000004695546000165J0000000000000000000000000000CONSULTOR DE VENDAS 20110701TNE100000000201910162019081419860131N0000000000
M001SOLDI PROMOTORA DE VENDAS LTDA     0100003610000017005EDVANE PEREIRA DE OLIVEIRA         00EDVANE PEREIRA DE OLIVEIRA         CL ANNA PAOLA NOYA GATTO           100151325661010101200191029000000000034151600000741580000291129000000000000000000000000000000000000000000000000000000000000000000000000000000000000000000000000000000000000000000801011200000000000010000361         000000867860000127J0000000000000000000000000000SUPERVISOR DE VENDAS20060701TNQ200000000201910292019101619801011N0000000000
M001SOLDI PROMOTORA DE VENDAS LTDA     0100003700000017098CAROLINE MOREIRA CHAMUSCA          00CAROLINE MOREIRA CHAMUSCA          IMAGE MEMORIAL VILAS DO ATLANTICO  606658135104090110601191022000000000095191600000741580000561070000000000000000000000000000000000000000000000000000000000000000000000000000000000000000000000000000000000000000000880307200000000000027871370         000061486650035564J0000000000000000000000000000ASSISTENTE COMERCIAL20090923TNQ200000000201910222019082419880307N0000000000
M001SOLDI PROMOTORA DE VENDAS LTDA     0100003700000017098CAROLINE MOREIRA CHAMUSCA          00CAROLINE MOREIRA CHAMUSCA          IMAGE MEMORIAL VILAS DO ATLANTICO  506658136642010203801191022000000000033941600000741580000561070000000000000000000000000000000000000000000000000000000000000000000000000000000000000000000000000000000000000000000880307200000000000009940370         000061486650035564J0000000000000000000000000000ASSISTENTE COMERCIAL20090923TNQ200000000201910222019082319880307N0000000000
M001SOLDI PROMOTORA DE VENDAS LTDA     0100003700000017098CAROLINE MOREIRA CHAMUSCA          00CAROLINE MOREIRA CHAMUSCA          CLINICA DELFIN VILLAS              506660761098433011201191024000000000028680000000741580000768839000000000000000000000000000000000000000000000000000000000000000000000000000000000000000000000000000000000000000000880307200000000000008400370         000042049064000127J0000000000000000000000000000ASSISTENTE COMERCIAL20090923TNQ200000000201910242019082919880307N0000000000
M001SOLDI PROMOTORA DE VENDAS LTDA     0100003700000017098CAROLINE MOREIRA CHAMUSCA          01MARCELO CHAMUSCA DE LUNA           GASTROCENTRO                       100150345431010101200191024000000000032441600000741580000007302000000000000000000000000000000000000000000000000000000000000000000000000000000000000000000000000000000000000000000801223110000000000009500370         010007122361000150J0000000000000000000000000000ASSISTENTE COMERCIAL20090923TNQ200000000201910242019100119801223N0000000000
M001SOLDI PROMOTORA DE VENDAS LTDA     0100003700000017098CAROLINE MOREIRA CHAMUSCA          00CAROLINE MOREIRA CHAMUSCA          CLINICA DELFIN VILLAS              506660761098433011201191024000000000028680000000741580000768839000000000000000000000000000000000000000000000000000000000000000000000000000000000000000000000000000000000000000000880307200000000000008400370         000042049064000127J0000000000000000000000000000ASSISTENTE COMERCIAL20090923TNQ200000000201910242019082919880307N0000000000
M001SOLDI PROMOTORA DE VENDAS LTDA     0100003700000017098CAROLINE MOREIRA CHAMUSCA          00CAROLINE MOREIRA CHAMUSCA          CLINICA DELFIN VILLAS              506660761098433011201191024000000000028680000000741580000768839000000000000000000000000000000000000000000000000000000000000000000000000000000000000000000000000000000000000000000880307200000000000008400370         000042049064000127J0000000000000000000000000000ASSISTENTE COMERCIAL20090923TNQ200000000201910242019082919880307N0000000000
M001SOLDI PROMOTORA DE VENDAS LTDA     0100003700000017098CAROLINE MOREIRA CHAMUSCA          00CAROLINE MOREIRA CHAMUSCA          CLINICA DELFIN VILLAS              506660761098433011201191024000000000028680000000741580000768839000000000000000000000000000000000000000000000000000000000000000000000000000000000000000000000000000000000000000000880307200000000000008400370         000042049064000127J0000000000000000000000000000ASSISTENTE COMERCIAL20090923TNQ200000000201910242019082919880307N0000000000
M001SOLDI PROMOTORA DE VENDAS LTDA     0100003700000017098CAROLINE MOREIRA CHAMUSCA          00CAROLINE MOREIRA CHAMUSCA          CLINICA DELFIN VILLAS              506660761098433011201191024000000000028680000000741580000768839000000000000000000000000000000000000000000000000000000000000000000000000000000000000000000000000000000000000000000880307200000000000008400370         000042049064000127J0000000000000000000000000000ASSISTENTE COMERCIAL20090923TNQ200000000201910242019082919880307N0000000000
M001SOLDI PROMOTORA DE VENDAS LTDA     0100003700000017098CAROLINE MOREIRA CHAMUSCA          00CAROLINE MOREIRA CHAMUSCA          CLINICA DELFIN VILLAS              506660761128433009001191024000000000054640000000741580000768839000000000000000000000000000000000000000000000000000000000000000000000000000000000000000000000000000000000000000000880307200000000000016000370         000042049064000127J0000000000000000000000000000ASSISTENTE COMERCIAL20090923TNQ200000000201910242019082919880307N0000000000
M001SOLDI PROMOTORA DE VENDAS LTDA     0100003700000017098CAROLINE MOREIRA CHAMUSCA          00CAROLINE MOREIRA CHAMUSCA          CLIN MEDICA SAINT GERMAIN          100150627071010101200191025000000000032441600000741580000401722000000000000000000000000000000000000000000000000000000000000000000000000000000000000000000000000000000000000000000880307200000000000009500370         000096697099000100J0000000000000000000000000000ASSISTENTE COMERCIAL20090923TNQ200000000201910252019091819880307N0000000000
M001SOLDI PROMOTORA DE VENDAS LTDA     0100003880000017124LUCIANA DO ESPIRITO SANTO ARAUJO   00LUCIANA DO ESPIRITO SANTO ARAUJO   CLIVALE PROSAUDE IGUATEMI          101396841321010101200191028000000000032441600000741580000755729000000000000000000000000000000000000000000000000000000000000000000000000000000000000000000000000000000000000000000710322200000000000009500388         000033794132000191J0000000000000000000000000000CONSULTOR DE VENDAS 20100719TNE100000000201910282019092019710322N0000000000
M001SOLDI PROMOTORA DE VENDAS LTDA     0100003880000017124LUCIANA DO ESPIRITO SANTO ARAUJO   00LUCIANA DO ESPIRITO SANTO ARAUJO   CLINICA DE BROTAS                  100151146901010101200191028000000000033411600000741580000738123000000000000000000000000000000000000000000000000000000000000000000000000000000000000000000000000000000000000000000710322200000000000009785388         000096696455000162J0000000000000000000000000000CONSULTOR DE VENDAS 20100719TNE100000000201910282019100119710322N0000000000
M001SOLDI PROMOTORA DE VENDAS LTDA     0100004180000180010DANIELLE BARBOSA DUARTE            00DANIELLE BARBOSA DUARTE            ONCOMED                            206636368923401999201191001000000007304800000000741580000178241000000000000000000000000000000000000000000000000000000000000000000000000000000000000000000000000000000000000000000830513200000000002138783418         000000132229000180J0000000000000000000000000000CONSULTOR DE VENDAS 20111020TNE100000000201910012019081219830513N0000000000
M001SOLDI PROMOTORA DE VENDAS LTDA     0100004180000180010DANIELLE BARBOSA DUARTE            00DANIELLE BARBOSA DUARTE            LABORATORIO SAO MARCOS             506639154574030436101191001000000000003201600000741580000272132000000000000000000000000000000000000000000000000000000000000000000000000000000000000000000000000000000000000000000830513200000000000000939418         000016740086000129J0000000000000000000000000000CONSULTOR DE VENDAS 20111020TNE100000000201910012019081019830513N0000000000
M001SOLDI PROMOTORA DE VENDAS LTDA     0100004180000180010DANIELLE BARBOSA DUARTE            00DANIELLE BARBOSA DUARTE            ONCOMED                            206636368922010430801191001000000000009031600000741580000178241000000000000000000000000000000000000000000000000000000000000000000000000000000000000000000000000000000000000000000830513200000000000002646418         000000132229000180J0000000000000000000000000000CONSULTOR DE VENDAS 20111020TNE100000000201910012019081219830513N0000000000
M001SOLDI PROMOTORA DE VENDAS LTDA     0100004180000180010DANIELLE BARBOSA DUARTE            00DANIELLE BARBOSA DUARTE            ONCOMED                            206636368923401999101191001000000000068300000000741580000178241000000000000000000000000000000000000000000000000000000000000000000000000000000000000000000000000000000000000000000830513200000000000020000418         000000132229000180J0000000000000000000000000000CONSULTOR DE VENDAS 20111020TNE100000000201910012019081219830513N0000000000
M001SOLDI PROMOTORA DE VENDAS LTDA     0100004180000180010DANIELLE BARBOSA DUARTE            00DANIELLE BARBOSA DUARTE            ONCOMED                            206636368923401999501191001000000000258370000000741580000178241000000000000000000000000000000000000000000000000000000000000000000000000000000000000000000000000000000000000000000830513200000000000075650418         000000132229000180J0000000000000000000000000000CONSULTOR DE VENDAS 20111020TNE100000000201910012019081219830513N0000000000
M001SOLDI PROMOTORA DE VENDAS LTDA     0100004180000180010DANIELLE BARBOSA DUARTE            00DANIELLE BARBOSA DUARTE            FELICOOP COOP MEDICA ESPEC         4   E9P9KW41010201900191024000000000024401600000741580000773026000000000000000000000000000000000000000000000000000000000000000000000000000000000000000000000000000000000000000000830513200000000000007145418         000086402385000139J0000000000000000000000000000CONSULTOR DE VENDAS 20111020TNE100000000201910242019060919830513N0000000000
M001SOLDI PROMOTORA DE VENDAS LTDA     0100004180000180010DANIELLE BARBOSA DUARTE            00DANIELLE BARBOSA DUARTE            LABORATORIO SAO MARCOS             506661307304030436101191029000000000003201600000741580000272132000000000000000000000000000000000000000000000000000000000000000000000000000000000000000000000000000000000000000000830513200000000000000939418         000016740086000129J0000000000000000000000000000CONSULTOR DE VENDAS 20111020TNE100000000201910292019090919830513N0000000000
M001SOLDI PROMOTORA DE VENDAS LTDA     0100004180000180010DANIELLE BARBOSA DUARTE            00DANIELLE BARBOSA DUARTE            LABORATORIO SAO MARCOS             506661307304030258001191029000000000001491600000741580000272132000000000000000000000000000000000000000000000000000000000000000000000000000000000000000000000000000000000000000000830513200000000000000438418         000016740086000129J0000000000000000000000000000CONSULTOR DE VENDAS 20111020TNE100000000201910292019090919830513N0000000000
M001SOLDI PROMOTORA DE VENDAS LTDA     0100004180000180010DANIELLE BARBOSA DUARTE            00DANIELLE BARBOSA DUARTE            LABORATORIO SAO MARCOS             506661307304030163001191029000000000001491600000741580000272132000000000000000000000000000000000000000000000000000000000000000000000000000000000000000000000000000000000000000000830513200000000000000438418         000016740086000129J0000000000000000000000000000CONSULTOR DE VENDAS 20111020TNE100000000201910292019090919830513N0000000000
M001SOLDI PROMOTORA DE VENDAS LTDA     0100004180000180010DANIELLE BARBOSA DUARTE            00DANIELLE BARBOSA DUARTE            LABORATORIO SAO MARCOS             506661307304031612201191029000000000020291600000741580000272132000000000000000000000000000000000000000000000000000000000000000000000000000000000000000000000000000000000000000000830513200000000000005942418         000016740086000129J0000000000000000000000000000CONSULTOR DE VENDAS 20111020TNE100000000201910292019090919830513N0000000000
M001SOLDI PROMOTORA DE VENDAS LTDA     0100004180000180010DANIELLE BARBOSA DUARTE            00DANIELLE BARBOSA DUARTE            ONCOMED                            206655004923401999201191031000000000211320000000741580000178241000000000000000000000000000000000000000000000000000000000000000000000000000000000000000000000000000000000000000000830513200000000000061875418         000000132229000180J0000000000000000000000000000CONSULTOR DE VENDAS 20111020TNE100000000201910312019082219830513N0000000000
M001SOLDI PROMOTORA DE VENDAS LTDA     0100005070008800211GLAUBER LARANJEIRA DO NASCIMENTO   03ARTHUR FERREIRA NASCIMENTO         GLAUBER LARANJEIRA DO NASCIMENTO   200015796495000061607191008000000000163441600000741580000000000000000000000000000000000000000000000000000000000000000000000000000000000000000000000000000000000000000000000000000170819129900000000047855507         030000000000000000 0000000000000000000000000000SUPERVISOR DE VENDAS20111002TNE100000000201910082019083020170819N0000084000
M001SOLDI PROMOTORA DE VENDAS LTDA     0100005070008800211GLAUBER LARANJEIRA DO NASCIMENTO   00GLAUBER LARANJEIRA DO NASCIMENTO   SOS OTORRINO                       506645714144010310201191010000000000004111600000741580000405302000000000000000000000000000000000000000000000000000000000000000000000000000000000000000000000000000000000000000000840313200000000000001204507         000010574074000195J0000000000000000000000000000SUPERVISOR DE VENDAS20111002TNE100000000201910102019071619840313N0000000000
M001SOLDI PROMOTORA DE VENDAS LTDA     0100005070008800211GLAUBER LARANJEIRA DO NASCIMENTO   00GLAUBER LARANJEIRA DO NASCIMENTO   SOS OTORRINO                       506645714144010307201191010000000000008221600000741580000405302000000000000000000000000000000000000000000000000000000000000000000000000000000000000000000000000000000000000000000840313200000000000002408507         000010574074000195J0000000000000000000000000000SUPERVISOR DE VENDAS20111002TNE100000000201910102019071619840313N0000000000
M001SOLDI PROMOTORA DE VENDAS LTDA     0100005070008800211GLAUBER LARANJEIRA DO NASCIMENTO   00GLAUBER LARANJEIRA DO NASCIMENTO   SOS OTORRINO                       506645714144010343901191010000000000010791600000741580000405302000000000000000000000000000000000000000000000000000000000000000000000000000000000000000000000000000000000000000000840313200000000000003160507         000010574074000195J0000000000000000000000000000SUPERVISOR DE VENDAS20111002TNE100000000201910102019071619840313N0000000000
M001SOLDI PROMOTORA DE VENDAS LTDA     0100005070008800211GLAUBER LARANJEIRA DO NASCIMENTO   00GLAUBER LARANJEIRA DO NASCIMENTO   SOS OTORRINO                       506645714144010309901191010000000000004111600000741580000405302000000000000000000000000000000000000000000000000000000000000000000000000000000000000000000000000000000000000000000840313200000000000001204507         000010574074000195J0000000000000000000000000000SUPERVISOR DE VENDAS20111002TNE100000000201910102019071619840313N0000000000
M001SOLDI PROMOTORA DE VENDAS LTDA     0100005070008800211GLAUBER LARANJEIRA DO NASCIMENTO   00GLAUBER LARANJEIRA DO NASCIMENTO   SOS OTORRINO                       206645714113401999501191010000000000001120000000741580000405302000000000000000000000000000000000000000000000000000000000000000000000000000000000000000000000000000000000000000000840313200000000000000330507         000010574074000195J0000000000000000000000000000SUPERVISOR DE VENDAS20111002TNE100000000201910102019071619840313N0000000000
M001SOLDI PROMOTORA DE VENDAS LTDA     0100005070008800211GLAUBER LARANJEIRA DO NASCIMENTO   00GLAUBER LARANJEIRA DO NASCIMENTO   SOS OTORRINO                       506645714114020122801191010000000000030421600000741580000405302000000000000000000000000000000000000000000000000000000000000000000000000000000000000000000000000000000000000000000840313200000000000008909507         000010574074000195J0000000000000000000000000000SUPERVISOR DE VENDAS20111002TNE100000000201910102019071619840313N0000000000
M001SOLDI PROMOTORA DE VENDAS LTDA     0100005070008800211GLAUBER LARANJEIRA DO NASCIMENTO   00GLAUBER LARANJEIRA DO NASCIMENTO   SOS OTORRINO                       206645714113401999201191010000000000002580000000741580000405302000000000000000000000000000000000000000000000000000000000000000000000000000000000000000000000000000000000000000000840313200000000000000756507         000010574074000195J0000000000000000000000000000SUPERVISOR DE VENDAS20111002TNE100000000201910102019071619840313N0000000000
M001SOLDI PROMOTORA DE VENDAS LTDA     0100005070008800211GLAUBER LARANJEIRA DO NASCIMENTO   03ARTHUR FERREIRA NASCIMENTO         HOSPITAL DAS NEVES                 206652940018400334001191016000000000092210000000741580000432911000000000000000000000000000000000000000000000000000000000000000000000000000000000000000000000000000000000000000000170819120000000000027000507         030001817749000199J0000000000000000000000000000SUPERVISOR DE VENDAS20111002TNE100000000201910162019081120170819N0000000000
M001SOLDI PROMOTORA DE VENDAS LTDA     0100005070008800211GLAUBER LARANJEIRA DO NASCIMENTO   03ARTHUR FERREIRA NASCIMENTO         GLAUBER LARANJEIRA DO NASCIMENTO   200016870885000008005191018000000000113891600000741580000000000000000000000000000000000000000000000000000000000000000000000000000000000000000000000000000000000000000000000000000170819129900000000033346507         030000000000000000 0000000000000000000000000000SUPERVISOR DE VENDAS20111002TNE100000000201910182019090520170819N0000045000
M001SOLDI PROMOTORA DE VENDAS LTDA     0100005070008800211GLAUBER LARANJEIRA DO NASCIMENTO   01AMELIA FATIMA FERREIRA NASCIMENTO  MAURUS MARQUES DE A HOLANDA        101188873251010101200191025000000000032441600000741580000472999000000000000000000000000000000000000000000000000000000000000000000000000000000000000000000000000000000000000000000881003210000000000009500507         010008382693000136J0000000000000000000000000000SUPERVISOR DE VENDAS20111002TNE100000000201910252019091919881003N0000000000
M001SOLDI PROMOTORA DE VENDAS LTDA     0100005740008800592ALINIR PEREIRA DE ALMEIDA          02AGATHA ALMEIDA PAVAO               HOSPITAL SAMARITANO                206644157418400014701191001000000000047810000000741580000423912000000000000000000000000000000000000000000000000000000000000000000000000000000000000000000000000000000000000000000190606220000000000014000574         020000894710000102J0000000000000000000000000000CONSULTOR DE VENDAS 20120206TNE100000000201910012019080820190606N0000000000
M001SOLDI PROMOTORA DE VENDAS LTDA     0100005740008800592ALINIR PEREIRA DE ALMEIDA          02AGATHA ALMEIDA PAVAO               HOSPITAL SAMARITANO                206644157728400014701191001000000000047810000000741580000423912000000000000000000000000000000000000000000000000000000000000000000000000000000000000000000000000000000000000000000190606220000000000014000574         020000894710000102J0000000000000000000000000000CONSULTOR DE VENDAS 20120206TNE100000000201910012019080920190606N0000000000
M001SOLDI PROMOTORA DE VENDAS LTDA     0100005740008800592ALINIR PEREIRA DE ALMEIDA          02AGATHA ALMEIDA PAVAO               OFTCENTER                          101116552821010101200191010000000000029031600000741580000375993000000000000000000000000000000000000000000000000000000000000000000000000000000000000000000000000000000000000000000190606220000000000008500574         020006306525000136J0000000000000000000000000000CONSULTOR DE VENDAS 20120206TNE100000000201910102019080520190606N0000000000
M001SOLDI PROMOTORA DE VENDAS LTDA     0100005740008800592ALINIR PEREIRA DE ALMEIDA          02AGATHA ALMEIDA PAVAO               MATERNIDADE REGINA PACIS           100150494870001108800191024000000000042340000000741580000232102000000000000000000000000000000000000000000000000000000000000000000000000000000000000000000000000000000000000000000190606220000000000012399574         020014659791000170J0000000000000000000000000000CONSULTOR DE VENDAS 20120206TNE100000000201910242019101120190606N0000000000
M001SOLDI PROMOTORA DE VENDAS LTDA     0100006120008800598ELAINE DANIELE BARBOSA DE SOUZA    00ELAINE DANIELE BARBOSA DE SOUZA    GRUPO OFTALMOLOGICO DE ANANINDEUA  506663124334130132301191023000000000003541600000741580000797693000000000000000000000000000000000000000000000000000000000000000000000000000000000000000000000000000000000000000000910829200000000000001039612         000011907827000108J0000000000000000000000000000CONSULTOR DE VENDAS 20120516TNE100000000201910232019081019910829N0000000000
M001SOLDI PROMOTORA DE VENDAS LTDA     0100006120008800598ELAINE DANIELE BARBOSA DE SOUZA    00ELAINE DANIELE BARBOSA DE SOUZA    GRUPO OFTALMOLOGICO DE ANANINDEUA  506663124334130125002191023000000000014201600000741580000797693000000000000000000000000000000000000000000000000000000000000000000000000000000000000000000000000000000000000000000910829200000000000004158612         000011907827000108J0000000000000000000000000000CONSULTOR DE VENDAS 20120516TNE100000000201910232019081019910829N0000000000
M001SOLDI PROMOTORA DE VENDAS LTDA     0100006390008800606ERICA FRANCISCA DA SILVA           03RAFAEL SALUSTIANO DE ALMEIDA       CTO                                206645263923010194801191015000000000103731600000741580000284025000000000000000000000000000000000000000000000000000000000000000000000000000000000000000000000000000000000000000000811114110000000000030374639         030040818429000105J0000000000000000000000000000ASSISTENTE OPERACION20120903TNE100000000201910152019080819811114N0000000000
M001SOLDI PROMOTORA DE VENDAS LTDA     0100006390008800606ERICA FRANCISCA DA SILVA           03RAFAEL SALUSTIANO DE ALMEIDA       CTO                                206645263923401999201191015000000000001490000000741580000284025000000000000000000000000000000000000000000000000000000000000000000000000000000000000000000000000000000000000000000811114110000000000000437639         030040818429000105J0000000000000000000000000000ASSISTENTE OPERACION20120903TNE100000000201910152019080819811114N0000000000
M001SOLDI PROMOTORA DE VENDAS LTDA     0100006390008800606ERICA FRANCISCA DA SILVA           03RAFAEL SALUSTIANO DE ALMEIDA       CTO                                206645263923401999501191015000000000005160000000741580000284025000000000000000000000000000000000000000000000000000000000000000000000000000000000000000000000000000000000000000000811114110000000000001511639         030040818429000105J0000000000000000000000000000ASSISTENTE OPERACION20120903TNE100000000201910152019080819811114N0000000000
M001SOLDI PROMOTORA DE VENDAS LTDA     0100006630000880061JESSICA LUISE TEXEIRA DE OLIVEIRA  00JESSICA LUISE TEXEIRA DE OLIVEIRA  LABS A + MEDICINA DIAGNOSTICA      606641647544090148302191001000000000144881600000741580000697672000000000000000000000000000000000000000000000000000000000000000000000000000000000000000000000000000000000000000000900822100000000000042421663         000060840055025398J0000000000000000000000000000CONSULTOR DE VENDAS 20111103TNE100000000201910012019081219900822N0000000000
M001SOLDI PROMOTORA DE VENDAS LTDA     0100006630000880061JESSICA LUISE TEXEIRA DE OLIVEIRA  00JESSICA LUISE TEXEIRA DE OLIVEIRA  HOSPITAL NORTE DOR                 206655228178400101101191022000000000105430000000741580000403113000000000000000000000000000000000000000000000000000000000000000000000000000000000000000000000000000000000000000000900822100000000000030870663         000009578217000158J0000000000000000000000000000CONSULTOR DE VENDAS 20111103TNE100000000201910222019082319900822N0000000000
M001SOLDI PROMOTORA DE VENDAS LTDA     0100006630000880061JESSICA LUISE TEXEIRA DE OLIVEIRA  00JESSICA LUISE TEXEIRA DE OLIVEIRA  KR MEDICINA INTERNA                191196912081010101200191028000000000032441600000741580000476402000000000000000000000000000000000000000000000000000000000000000000000000000000000000000000000000000000000000000000900822100000000000009500663         000009601893000103J0000000000000000000000000000CONSULTOR DE VENDAS 20111103TNE100000000201910282019091919900822N0000000000
M001SOLDI PROMOTORA DE VENDAS LTDA     0100006630000880061JESSICA LUISE TEXEIRA DE OLIVEIRA  00JESSICA LUISE TEXEIRA DE OLIVEIRA  PRO MED MEDICINA DIAGNOSTICA       606670536974090110601191031000000000081961600000741580000800970000000000000000000000000000000000000000000000000000000000000000000000000000000000000000000000000000000000000000000900822100000000000024000663         000000869018000205J0000000000000000000000000000CONSULTOR DE VENDAS 20111103TNE100000000201910312019091719900822N0000000000
M001SOLDI PROMOTORA DE VENDAS LTDA     0100007100008800614SOLIMAR EULALIO DA SILVA LOPES     00SOLIMAR EULALIO DA SILVA LOPES     COOPNEURO                          106651927511010103901191014000000000048661600000741580000131302000000000000000000000000000000000000000000000000000000000000000000000000000000000000000000000000000000000000000000720917200000000000014250710         000001495680000124J0000000000000000000000000000CONSULTOR DE VENDAS 20121217TNE100000000201910142019081219720917N0000000000
M001SOLDI PROMOTORA DE VENDAS LTDA     0100007100008800614SOLIMAR EULALIO DA SILVA LOPES     00SOLIMAR EULALIO DA SILVA LOPES     HOSPITAL CURA DAR S                206657220318400041401191022000000000087090000000741580000040312000000000000000000000000000000000000000000000000000000000000000000000000000000000000000000000000000000000000000000720917200000000000025500710         000060975737003509J0000000000000000000000000000CONSULTOR DE VENDAS 20121217TNE100000000201910222019081219720917N0000000000
M001SOLDI PROMOTORA DE VENDAS LTDA     0100007100008800614SOLIMAR EULALIO DA SILVA LOPES     00SOLIMAR EULALIO DA SILVA LOPES     COORLECE                           706663735382010406501191029000000000008971600000741580000390690000000000000000000000000000000000000000000000000000000000000000000000000000000000000000000000000000000000000000000720917200000000000002628710         000003454941000193J0000000000000000000000000000CONSULTOR DE VENDAS 20121217TNE100000000201910292019081419720917N0000000000
M001SOLDI PROMOTORA DE VENDAS LTDA     0100007280008800615ADEMAR LEANDRO RIBEIRO SANTOS      00ADEMAR LEANDRO RIBEIRO SANTOS      HOSP ESCOLA S CAMILO S LUIS        606661083204100101001191029000000000085821600000741580000072010000000000000000000000000000000000000000000000000000000000000000000000000000000000000000000000000000000000000000000771018200000000000025129728         000060975737000909J0000000000000000000000000000CONSULTOR DE VENDAS 20121217TNE100000000201910292019072419771018N0000000000
M001SOLDI PROMOTORA DE VENDAS LTDA     0100007280008800615ADEMAR LEANDRO RIBEIRO SANTOS      00ADEMAR LEANDRO RIBEIRO SANTOS      HOSP ESCOLA S CAMILO S LUIS        106661083291010103901191029000000000040551600000741580000072010000000000000000000000000000000000000000000000000000000000000000000000000000000000000000000000000000000000000000000771018200000000000011875728         000060975737000909J0000000000000000000000000000CONSULTOR DE VENDAS 20121217TNE100000000201910292019072519771018N0000000000
M001SOLDI PROMOTORA DE VENDAS LTDA     0100007280008800615ADEMAR LEANDRO RIBEIRO SANTOS      00ADEMAR LEANDRO RIBEIRO SANTOS      HOSP ESCOLA S CAMILO S LUIS        106661083201010103901191029000000000040551600000741580000072010000000000000000000000000000000000000000000000000000000000000000000000000000000000000000000000000000000000000000000771018200000000000011875728         000060975737000909J0000000000000000000000000000CONSULTOR DE VENDAS 20121217TNE100000000201910292019072419771018N0000000000
M001SOLDI PROMOTORA DE VENDAS LTDA     0100007360008800622ROSELENE SANTOS FERREIRA           00ROSELENE SANTOS FERREIRA           LLB LAB LIQUOROLOGIA BAHIA         506634955734031020502191002000000000015721600000741580000402370000000000000000000000000000000000000000000000000000000000000000000000000000000000000000000000000000000000000000000820729200000000000004604736         000002040164000178J0000000000000000000000000000CONSULTOR DE VENDAS 20130218TNE100000000201910022019071619820729N0000000000
M001SOLDI PROMOTORA DE VENDAS LTDA     0100007360008800622ROSELENE SANTOS FERREIRA           00ROSELENE SANTOS FERREIRA           LLB LAB LIQUOROLOGIA BAHIA         506634955734031424301191002000000000058661600000741580000402370000000000000000000000000000000000000000000000000000000000000000000000000000000000000000000000000000000000000000000820729200000000000017177736         000002040164000178J0000000000000000000000000000CONSULTOR DE VENDAS 20130218TNE100000000201910022019071619820729N0000000000
M001SOLDI PROMOTORA DE VENDAS LTDA     0100007360008800622ROSELENE SANTOS FERREIRA           00ROSELENE SANTOS FERREIRA           LLB LAB LIQUOROLOGIA BAHIA         506634955734031415402191002000000000151421600000741580000402370000000000000000000000000000000000000000000000000000000000000000000000000000000000000000000000000000000000000000000820729200000000000044336736         000002040164000178J0000000000000000000000000000CONSULTOR DE VENDAS 20130218TNE100000000201910022019071619820729N0000000000
M001SOLDI PROMOTORA DE VENDAS LTDA     0100007360008800622ROSELENE SANTOS FERREIRA           00ROSELENE SANTOS FERREIRA           LLB LAB LIQUOROLOGIA BAHIA         506634955734031006001191002000000000001751600000741580000402370000000000000000000000000000000000000000000000000000000000000000000000000000000000000000000000000000000000000000000820729200000000000000513736         000002040164000178J0000000000000000000000000000CONSULTOR DE VENDAS 20130218TNE100000000201910022019071619820729N0000000000
M001SOLDI PROMOTORA DE VENDAS LTDA     0100007360008800622ROSELENE SANTOS FERREIRA           00ROSELENE SANTOS FERREIRA           LLB LAB LIQUOROLOGIA BAHIA         506634955734031023001191002000000000001171600000741580000402370000000000000000000000000000000000000000000000000000000000000000000000000000000000000000000000000000000000000000000820729200000000000000344736         000002040164000178J0000000000000000000000000000CONSULTOR DE VENDAS 20130218TNE100000000201910022019071619820729N0000000000
M001SOLDI PROMOTORA DE VENDAS LTDA     0100007360008800622ROSELENE SANTOS FERREIRA           00ROSELENE SANTOS FERREIRA           LLB LAB LIQUOROLOGIA BAHIA         506634955734031012401191002000000000004101600000741580000402370000000000000000000000000000000000000000000000000000000000000000000000000000000000000000000000000000000000000000000820729200000000000001201736         000002040164000178J0000000000000000000000000000CONSULTOR DE VENDAS 20130218TNE100000000201910022019071619820729N0000000000
M001SOLDI PROMOTORA DE VENDAS LTDA     0100007360008800622ROSELENE SANTOS FERREIRA           00ROSELENE SANTOS FERREIRA           LLB LAB LIQUOROLOGIA BAHIA         506634955734031014001191002000000000003511600000741580000402370000000000000000000000000000000000000000000000000000000000000000000000000000000000000000000000000000000000000000000820729200000000000001028736         000002040164000178J0000000000000000000000000000CONSULTOR DE VENDAS 20130218TNE100000000201910022019071619820729N0000000000
M001SOLDI PROMOTORA DE VENDAS LTDA     0100007360008800622ROSELENE SANTOS FERREIRA           00ROSELENE SANTOS FERREIRA           LLB LAB LIQUOROLOGIA BAHIA         506634955734031013201191002000000000005861600000741580000402370000000000000000000000000000000000000000000000000000000000000000000000000000000000000000000000000000000000000000000820729200000000000001716736         000002040164000178J0000000000000000000000000000CONSULTOR DE VENDAS 20130218TNE100000000201910022019071619820729N0000000000
M001SOLDI PROMOTORA DE VENDAS LTDA     0100007360008800622ROSELENE SANTOS FERREIRA           00ROSELENE SANTOS FERREIRA           TRATE                              100149105201010101200191018000000000032441600000741580000250802000000000000000000000000000000000000000000000000000000000000000000000000000000000000000000000000000000000000000000820729200000000000009500736         000013282906000198J0000000000000000000000000000CONSULTOR DE VENDAS 20130218TNE100000000201910182019092419820729N0000000000
M001SOLDI PROMOTORA DE VENDAS LTDA     0100007440008800622VALQUIRIA CORREIA MOURA            00VALQUIRIA CORREIA MOURA            AMG                                506658218064130132301191022000000000004141600000741580000638196000000000000000000000000000000000000000000000000000000000000000000000000000000000000000000000000000000000000000000861222200000000000001215744         000006555556000120J0000000000000000000000000000CONSULTOR DE VENDAS 20130218TNE100000000201910222019082319861222N0000000000
M001SOLDI PROMOTORA DE VENDAS LTDA     0100007440008800622VALQUIRIA CORREIA MOURA            00VALQUIRIA CORREIA MOURA            AMG                                191082426101010101200191031000000000034151600000741580000638196000000000000000000000000000000000000000000000000000000000000000000000000000000000000000000000000000000000000000000861222200000000000010000744         000006555556000120J0000000000000000000000000000CONSULTOR DE VENDAS 20130218TNE100000000201910312019101719861222N0000000000
M001SOLDI PROMOTORA DE VENDAS LTDA     0100007520008800623CREUZA GONCALVES DOS SANTOS        00CREUZA GONCALVES DOS SANTOS        UNICOOPER                          106660632801010103901191024000000000045971600000741580000594725000000000000000000000000000000000000000000000000000000000000000000000000000000000000000000000000000000000000000000620406200000000000013462752         000003288517000116J0000000000000000000000000000CONSULTOR DE VENDAS 20130304TNE100000000201910242019090719620406N0000000000
M001SOLDI PROMOTORA DE VENDAS LTDA     0100007520008800623CREUZA GONCALVES DOS SANTOS        00CREUZA GONCALVES DOS SANTOS        UNICOOPER                          106661731321010103901191029000000000045971600000741580000594725000000000000000000000000000000000000000000000000000000000000000000000000000000000000000000000000000000000000000000620406200000000000013462752         000003288517000116J0000000000000000000000000000CONSULTOR DE VENDAS 20130304TNE100000000201910292019090719620406N0000000000
M001SOLDI PROMOTORA DE VENDAS LTDA     0100007600008800624OZEAS BEZERRA BARROSO              00OZEAS BEZERRA BARROSO              HOSPITAL MEMORIAL SAO JOSE         3   EWCLH690000000100191001000000000480950000000741580000445916000000000000000000000000000000000000000000000000000000000000000000000000000000000451850000000000000000000000002910831228200000000000140820760         000006047087009276J0000000000000000000000000000GERENTE REGIONAL DE 20130304TNQ200000000201910012019071019831228N0000000000
M001SOLDI PROMOTORA DE VENDAS LTDA     0100007600008800624OZEAS BEZERRA BARROSO              00OZEAS BEZERRA BARROSO              NUPE                               191188833391010101200191015000000000032441600000741580000738891000000000000000000000000000000000000000000000000000000000000000000000000000000000000000000000000000000000000000000831228200000000000009500760         000010524168000230J0000000000000000000000000000GERENTE REGIONAL DE 20130304TNQ200000000201910152019090119831228N0000000000
M001SOLDI PROMOTORA DE VENDAS LTDA     0100007600008800624OZEAS BEZERRA BARROSO              00OZEAS BEZERRA BARROSO              NUPE                               4   EWCLH693120507000191024000000000147541600000741580000958190000000000000000000000000000000000000000000000000000000000000000000000000000000000000000000000000000000000000000000831228200000000000043200760         000010524168000150J0000000000000000000000000000GERENTE REGIONAL DE 20130304TNQ200000000201910242019071019831228N0000000000
M001SOLDI PROMOTORA DE VENDAS LTDA     0100007600008800624OZEAS BEZERRA BARROSO              00OZEAS BEZERRA BARROSO              NUPE                               4   EWCLH693120507000191024000000000491811600000741580000958190000000000000000000000000000000000000000000000000000000000000000000000000000000000000000000000000000000000000000000831228200000000000144000760         000010524168000150J0000000000000000000000000000GERENTE REGIONAL DE 20130304TNQ200000000201910242019071019831228N0000000000
M001SOLDI PROMOTORA DE VENDAS LTDA     0100008170008800630NARCIZO MARQUES PINTO JUNIOR       00NARCIZO MARQUES PINTO JUNIOR       HOSPITAL VERA CRUZ                 206632868763401999201191004000000000006590000000741580000681002000000000000000000000000000000000000000000000000000000000000000000000000000000000000000000000000000000000000000000821120100000000000001930817         000046009718000140J0000000000000000000000000000GERENTE REGIONAL DE 20130506TNQ200000000201910042018092119821120N0000000000
M001SOLDI PROMOTORA DE VENDAS LTDA     0100008170008800630NARCIZO MARQUES PINTO JUNIOR       00NARCIZO MARQUES PINTO JUNIOR       HOSPITAL VERA CRUZ                 206632868763401999101191004000000000291790000000741580000681002000000000000000000000000000000000000000000000000000000000000000000000000000000000000000000000000000000000000000000821120100000000000085436817         000046009718000140J0000000000000000000000000000GERENTE REGIONAL DE 20130506TNQ200000000201910042018092119821120N0000000000
M001SOLDI PROMOTORA DE VENDAS LTDA     0100008170008800630NARCIZO MARQUES PINTO JUNIOR       00NARCIZO MARQUES PINTO JUNIOR       HOSPITAL VERA CRUZ                 206632868763401999501191004000000000166690000000741580000681002000000000000000000000000000000000000000000000000000000000000000000000000000000000000000000000000000000000000000000821120100000000000048808817         000046009718000140J0000000000000000000000000000GERENTE REGIONAL DE 20130506TNQ200000000201910042018092119821120N0000000000
M001SOLDI PROMOTORA DE VENDAS LTDA     0100008250008800630JANAINA SILVA LEITE                00JANAINA SILVA LEITE                HOSPITAL SINO BRASILEIRO           106664938891010101201191025000000000029201600000741580000252102000000000000000000000000000000000000000000000000000000000000000000000000000000000000000000000000000000000000000000800425200000000000008550825         000006047087007656J0000000000000000000000000000CONSULTOR DE VENDAS 20130506TNE100000000201910252019081319800425N0000000000
M001SOLDI PROMOTORA DE VENDAS LTDA     0100008250008800630JANAINA SILVA LEITE                04MARIA ANTONIA LEITE DE SOUZA       HOSPITAL SINO BRASILEIRO           206663821448400448701191030000000000105450000000741580000426210000000000000000000000000000000000000000000000000000000000000000000000000000000000000000000000000000000000000000000160427220000000000030875825         040006047087007656J0000000000000000000000000000CONSULTOR DE VENDAS 20130506TNE100000000201910302019081820160427N0000000000
M001SOLDI PROMOTORA DE VENDAS LTDA     0100008500008800644VERONICA DE SOUZA BARROS SILVA     02GABRIELLA SOUZA SILVA              ORTOCITY SERVICOS MEDICOS          206644934172010351410191008000000000088391600000741580000040240000000000000000000000000000000000000000000000000000000000000000000000000000000000000000000000000000000000000000000990226220000000000025880850         020055577977000168J0000000000000000000000000000AUXILIAR DE SERVICOS20130701TNE100000000201910082019071119990226N0000000000
M001SOLDI PROMOTORA DE VENDAS LTDA     0100008500008800644VERONICA DE SOUZA BARROS SILVA     02GABRIELLA SOUZA SILVA              ORTOCITY SERVICOS MEDICOS          206644934165000044610191008000000000218781600000741580000040240000000000000000000000000000000000000000000000000000000000000000000000000000000000000000000000000000000000000000000990226220000000000064057850         020055577977000168J0000000000000000000000000000AUXILIAR DE SERVICOS20130701TNE100000000201910082019071119990226N0000000000
M001SOLDI PROMOTORA DE VENDAS LTDA     0100008500008800644VERONICA DE SOUZA BARROS SILVA     02GABRIELLA SOUZA SILVA              ORTOCITY SERVICOS MEDICOS          106644330025000014401191015000000000014871600000741580000040240000000000000000000000000000000000000000000000000000000000000000000000000000000000000000000000000000000000000000000990226220000000000004355850         020055577977000168J0000000000000000000000000000AUXILIAR DE SERVICOS20130701TNE100000000201910152019082219990226N0000000000
M001SOLDI PROMOTORA DE VENDAS LTDA     0100008680008800645JESSIANE DA SILVA DOS SANTOS       00JESSIANE DA SILVA DOS SANTOS       CLINICA SAO FELIPE                 206649767698423019301191016000000000153440000000741580000449636000000000000000000000000000000000000000000000000000000000000000000000000000000000000000000000000000000000000000000820122200000000000044928868         000016160822000170J0000000000000000000000000000SUPERVISOR DE VENDAS20130715TNE100000000201910162019082019820122N0000000000
M001SOLDI PROMOTORA DE VENDAS LTDA     0100008680008800645JESSIANE DA SILVA DOS SANTOS       01RODRIGO ALBUQUERQUE SALES          CLINICA SAO FELIPE                 506649767754010206801191016000000000087231600000741580000449636000000000000000000000000000000000000000000000000000000000000000000000000000000000000000000000000000000000000000000640628110000000000025541868         010016160822000170J0000000000000000000000000000SUPERVISOR DE VENDAS20130715TNE100000000201910162019082319640628N0000000000
