HSINISTROS PAGOS074158200420043001000000001000000000000000000000000000000000000000000000000000000000000000000000000000000000000000000000000000000000000000000000000000000000000000000000000000000000000000000000000000000000000000000000000000000000000000000000000000000000000000000000000000000000000000000000000000000000000000000000000000000000000000000000000000000000000000000000000000000000000 012020042020043000000000000000000000000000000000000000000000000000000000000000000000000000000000000000000000
M001SOLDI PROMOTORA DE VENDAS LTDA     0100000190000110157PALOMA TATO RAMOS                  00PALOMA TATO RAMOS                  ASR - CLINICA DE PSICOLOGIA        20680311982500004700120041700000000001450160000074158000035910200000000000000000000000000000000000000000000000000000000000000000000000000000000000000000000000000000000000000000091032820000000000000424619          000022391556000199J0000000000000000000000000000CONSULTOR DE VENDAS 20110503TNE100000000202004172020020419910328N0000000000
M001SOLDI PROMOTORA DE VENDAS LTDA     0100000190000110157PALOMA TATO RAMOS                  00PALOMA TATO RAMOS                  ASR - CLINICA DE PSICOLOGIA        20680311982500004700120041700000000001450160000074158000035910200000000000000000000000000000000000000000000000000000000000000000000000000000000000000000000000000000000000000000091032820000000000000424619          000022391556000199J0000000000000000000000000000CONSULTOR DE VENDAS 20110503TNE100000000202004172020020419910328N0000000000
M001SOLDI PROMOTORA DE VENDAS LTDA     0100000190000110157PALOMA TATO RAMOS                  00PALOMA TATO RAMOS                  ASR - CLINICA DE PSICOLOGIA        20680311982500004700120041700000000001450160000074158000035910200000000000000000000000000000000000000000000000000000000000000000000000000000000000000000000000000000000000000000091032820000000000000424619          000022391556000199J0000000000000000000000000000CONSULTOR DE VENDAS 20110503TNE100000000202004172020020419910328N0000000000
M001SOLDI PROMOTORA DE VENDAS LTDA     0100000190000110157PALOMA TATO RAMOS                  00PALOMA TATO RAMOS                  ASR - CLINICA DE PSICOLOGIA        20680311982500004700120041700000000001450160000074158000035910200000000000000000000000000000000000000000000000000000000000000000000000000000000000000000000000000000000000000000091032820000000000000424619          000022391556000199J0000000000000000000000000000CONSULTOR DE VENDAS 20110503TNE100000000202004172020020419910328N0000000000
M001SOLDI PROMOTORA DE VENDAS LTDA     0100000190000110157PALOMA TATO RAMOS                  00PALOMA TATO RAMOS                  ASR - CLINICA DE PSICOLOGIA        20680311982500004700120041700000000001450160000074158000035910200000000000000000000000000000000000000000000000000000000000000000000000000000000000000000000000000000000000000000091032820000000000000424619          000022391556000199J0000000000000000000000000000CONSULTOR DE VENDAS 20110503TNE100000000202004172020020419910328N0000000000
M001SOLDI PROMOTORA DE VENDAS LTDA     0100001240000116162JULIANI CARDOSO ROGATI             01LEONARDO DE SOUSA ROGATI           DELBONI AURIEMO                    506792022604030254701200415000000000002201600000741580000766135000000000000000000000000000000000000000000000000000000000000000000000000000000000000000000000000000000000000000000910102110000000000000647124         010061486650000183J0000000000000000000000000000ASSISTENTE COMERCIAL20100728TNE100000000202004152019120819910102N0000000000
M001SOLDI PROMOTORA DE VENDAS LTDA     0100001240000116162JULIANI CARDOSO ROGATI             01LEONARDO DE SOUSA ROGATI           DELBONI AURIEMO                    506792022604030231801200415000000000001551600000741580000766135000000000000000000000000000000000000000000000000000000000000000000000000000000000000000000000000000000000000000000910102110000000000000454124         010061486650000183J0000000000000000000000000000ASSISTENTE COMERCIAL20100728TNE100000000202004152019120819910102N0000000000
M001SOLDI PROMOTORA DE VENDAS LTDA     0100001240000116162JULIANI CARDOSO ROGATI             01LEONARDO DE SOUSA ROGATI           DELBONI AURIEMO                    506792022604030269501200415000000000004421600000741580000766135000000000000000000000000000000000000000000000000000000000000000000000000000000000000000000000000000000000000000000910102110000000000001296124         010061486650000183J0000000000000000000000000000ASSISTENTE COMERCIAL20100728TNE100000000202004152019120819910102N0000000000
M001SOLDI PROMOTORA DE VENDAS LTDA     0100001240000116162JULIANI CARDOSO ROGATI             01LEONARDO DE SOUSA ROGATI           DELBONI AURIEMO                    506792022604030436101200415000000000003311600000741580000766135000000000000000000000000000000000000000000000000000000000000000000000000000000000000000000000000000000000000000000910102110000000000000972124         010061486650000183J0000000000000000000000000000ASSISTENTE COMERCIAL20100728TNE100000000202004152019120819910102N0000000000
M001SOLDI PROMOTORA DE VENDAS LTDA     0100001240000116162JULIANI CARDOSO ROGATI             01LEONARDO DE SOUSA ROGATI           DELBONI AURIEMO                    506792022604030437001200415000000000001101600000741580000766135000000000000000000000000000000000000000000000000000000000000000000000000000000000000000000000000000000000000000000910102110000000000000324124         010061486650000183J0000000000000000000000000000ASSISTENTE COMERCIAL20100728TNE100000000202004152019120819910102N0000000000
M001SOLDI PROMOTORA DE VENDAS LTDA     0100001240000116162JULIANI CARDOSO ROGATI             01LEONARDO DE SOUSA ROGATI           DELBONI AURIEMO                    506792022604031121001200415000000000001551600000741580000766135000000000000000000000000000000000000000000000000000000000000000000000000000000000000000000000000000000000000000000910102110000000000000454124         010061486650000183J0000000000000000000000000000ASSISTENTE COMERCIAL20100728TNE100000000202004152019120819910102N0000000000
M001SOLDI PROMOTORA DE VENDAS LTDA     0100001240000116162JULIANI CARDOSO ROGATI             01LEONARDO DE SOUSA ROGATI           DELBONI AURIEMO                    506792022604031652101200415000000000009391600000741580000766135000000000000000000000000000000000000000000000000000000000000000000000000000000000000000000000000000000000000000000910102110000000000002752124         010061486650000183J0000000000000000000000000000ASSISTENTE COMERCIAL20100728TNE100000000202004152019120819910102N0000000000
M001SOLDI PROMOTORA DE VENDAS LTDA     0100001240000116162JULIANI CARDOSO ROGATI             01LEONARDO DE SOUSA ROGATI           DELBONI AURIEMO                    506792022604030163001200415000000000001551600000741580000766135000000000000000000000000000000000000000000000000000000000000000000000000000000000000000000000000000000000000000000910102110000000000000454124         010061486650000183J0000000000000000000000000000ASSISTENTE COMERCIAL20100728TNE100000000202004152019120819910102N0000000000
M001SOLDI PROMOTORA DE VENDAS LTDA     0100001240000116162JULIANI CARDOSO ROGATI             01LEONARDO DE SOUSA ROGATI           DELBONI AURIEMO                    506792022604030160501200415000000000001551600000741580000766135000000000000000000000000000000000000000000000000000000000000000000000000000000000000000000000000000000000000000000910102110000000000000454124         010061486650000183J0000000000000000000000000000ASSISTENTE COMERCIAL20100728TNE100000000202004152019120819910102N0000000000
M001SOLDI PROMOTORA DE VENDAS LTDA     0100001240000116162JULIANI CARDOSO ROGATI             01LEONARDO DE SOUSA ROGATI           DELBONI AURIEMO                    506792022604030115001200415000000000001551600000741580000766135000000000000000000000000000000000000000000000000000000000000000000000000000000000000000000000000000000000000000000910102110000000000000454124         010061486650000183J0000000000000000000000000000ASSISTENTE COMERCIAL20100728TNE100000000202004152019120819910102N0000000000
M001SOLDI PROMOTORA DE VENDAS LTDA     0100001240000116162JULIANI CARDOSO ROGATI             01LEONARDO DE SOUSA ROGATI           DELBONI AURIEMO                    506792022604030122201200415000000000001101600000741580000766135000000000000000000000000000000000000000000000000000000000000000000000000000000000000000000000000000000000000000000910102110000000000000324124         010061486650000183J0000000000000000000000000000ASSISTENTE COMERCIAL20100728TNE100000000202004152019120819910102N0000000000
M001SOLDI PROMOTORA DE VENDAS LTDA     0100001240000116162JULIANI CARDOSO ROGATI             01LEONARDO DE SOUSA ROGATI           DELBONI AURIEMO                    506792022604030158301200415000000000002761600000741580000766135000000000000000000000000000000000000000000000000000000000000000000000000000000000000000000000000000000000000000000910102110000000000000811124         010061486650000183J0000000000000000000000000000ASSISTENTE COMERCIAL20100728TNE100000000202004152019120819910102N0000000000
M001SOLDI PROMOTORA DE VENDAS LTDA     0100001240000116162JULIANI CARDOSO ROGATI             01LEONARDO DE SOUSA ROGATI           DELBONI AURIEMO                    506792022604030159101200415000000000003311600000741580000766135000000000000000000000000000000000000000000000000000000000000000000000000000000000000000000000000000000000000000000910102110000000000000972124         010061486650000183J0000000000000000000000000000ASSISTENTE COMERCIAL20100728TNE100000000202004152019120819910102N0000000000
M001SOLDI PROMOTORA DE VENDAS LTDA     0100001240000116162JULIANI CARDOSO ROGATI             01LEONARDO DE SOUSA ROGATI           DELBONI AURIEMO                    506792022604030204001200415000000000001551600000741580000766135000000000000000000000000000000000000000000000000000000000000000000000000000000000000000000000000000000000000000000910102110000000000000454124         010061486650000183J0000000000000000000000000000ASSISTENTE COMERCIAL20100728TNE100000000202004152019120819910102N0000000000
M001SOLDI PROMOTORA DE VENDAS LTDA     0100001320000118002JOSE LEITE RIBEIRO TAVARES         00JOSE LEITE RIBEIRO TAVARES         DIAGMAX MEDICINA DIAGNOSTICA       606786975898436003801200401000000000204920000000741580000096703000000000000000000000000000000000000000000000000000000000000000000000000000000000000000000000000000000000000000000710927100000000000060000132         000004907130000597J0000000000000000000000000000GERENTE COMERCIAL I 20080218TNQ200000000202004012020010319710927N0000000000
M001SOLDI PROMOTORA DE VENDAS LTDA     0100001320000118002JOSE LEITE RIBEIRO TAVARES         02MATEUS DE MEDEIROS TAVARES LEITE   HOSPITAL DE OLHOS DO RECIFE        506780906054140127102200415000000000014211600000741580000855995000000000000000000000000000000000000000000000000000000000000000000000000000000000000000000000000000000000000000000080324120000000000004162132         020040881302000130J0000000000000000000000000000GERENTE COMERCIAL I 20080218TNQ200000000202004152020020320080324N0000000000
M001SOLDI PROMOTORA DE VENDAS LTDA     0100001320000118002JOSE LEITE RIBEIRO TAVARES         02MATEUS DE MEDEIROS TAVARES LEITE   HOSPITAL DE OLHOS DO RECIFE        206780902963401999101200415000000000027960000000741580000855995000000000000000000000000000000000000000000000000000000000000000000000000000000000000000000000000000000000000000000080324120000000000008187132         020040881302000130J0000000000000000000000000000GERENTE COMERCIAL I 20080218TNQ200000000202004152020020320080324N0000000000
M001SOLDI PROMOTORA DE VENDAS LTDA     0100001320000118002JOSE LEITE RIBEIRO TAVARES         02MATEUS DE MEDEIROS TAVARES LEITE   HOSPITAL DE OLHOS DO RECIFE        606780902964130131502200415000000000013911600000741580000855995000000000000000000000000000000000000000000000000000000000000000000000000000000000000000000000000000000000000000000080324120000000000004074132         020040881302000130J0000000000000000000000000000GERENTE COMERCIAL I 20080218TNQ200000000202004152020020320080324N0000000000
M001SOLDI PROMOTORA DE VENDAS LTDA     0100001320000118002JOSE LEITE RIBEIRO TAVARES         02MATEUS DE MEDEIROS TAVARES LEITE   HOSPITAL DE OLHOS DO RECIFE        106780906051010101201200415000000000034151600000741580000855995000000000000000000000000000000000000000000000000000000000000000000000000000000000000000000000000000000000000000000080324120000000000010000132         020040881302000130J0000000000000000000000000000GERENTE COMERCIAL I 20080218TNQ200000000202004152020020320080324N0000000000
M001SOLDI PROMOTORA DE VENDAS LTDA     0100001320000118002JOSE LEITE RIBEIRO TAVARES         03ILANA DE MEDEIROS TAVARES LEITE    HOSPITAL DE OLHOS DO RECIFE        506780906064140127102200415000000000014211600000741580000855995000000000000000000000000000000000000000000000000000000000000000000000000000000000000000000000000000000000000000000100615220000000000004162132         030040881302000130J0000000000000000000000000000GERENTE COMERCIAL I 20080218TNQ200000000202004152020020320100615N0000000000
M001SOLDI PROMOTORA DE VENDAS LTDA     0100001320000118002JOSE LEITE RIBEIRO TAVARES         03ILANA DE MEDEIROS TAVARES LEITE    HOSPITAL DE OLHOS DO RECIFE        506780906064130125002200415000000000016411600000741580000855995000000000000000000000000000000000000000000000000000000000000000000000000000000000000000000000000000000000000000000100615220000000000004806132         030040881302000130J0000000000000000000000000000GERENTE COMERCIAL I 20080218TNQ200000000202004152020020320100615N0000000000
M001SOLDI PROMOTORA DE VENDAS LTDA     0100001320000118002JOSE LEITE RIBEIRO TAVARES         02MATEUS DE MEDEIROS TAVARES LEITE   HOSPITAL DE OLHOS DO RECIFE        506780906054130125002200415000000000016411600000741580000855995000000000000000000000000000000000000000000000000000000000000000000000000000000000000000000000000000000000000000000080324120000000000004806132         020040881302000130J0000000000000000000000000000GERENTE COMERCIAL I 20080218TNQ200000000202004152020020320080324N0000000000
M001SOLDI PROMOTORA DE VENDAS LTDA     0100001320000118002JOSE LEITE RIBEIRO TAVARES         03ILANA DE MEDEIROS TAVARES LEITE    HOSPITAL DE OLHOS DO RECIFE        106780906061010101201200415000000000034151600000741580000855995000000000000000000000000000000000000000000000000000000000000000000000000000000000000000000000000000000000000000000100615220000000000010000132         030040881302000130J0000000000000000000000000000GERENTE COMERCIAL I 20080218TNQ200000000202004152020020320100615N0000000000
M001SOLDI PROMOTORA DE VENDAS LTDA     0100001320000118002JOSE LEITE RIBEIRO TAVARES         02MATEUS DE MEDEIROS TAVARES LEITE   HOSPITAL DE OLHOS DO RECIFE        506780906054130132301200415000000000004101600000741580000855995000000000000000000000000000000000000000000000000000000000000000000000000000000000000000000000000000000000000000000080324120000000000001201132         020040881302000130J0000000000000000000000000000GERENTE COMERCIAL I 20080218TNQ200000000202004152020020320080324N0000000000
M001SOLDI PROMOTORA DE VENDAS LTDA     0100001320000118002JOSE LEITE RIBEIRO TAVARES         03ILANA DE MEDEIROS TAVARES LEITE    HOSPITAL DE OLHOS DO RECIFE        506780906064130132301200415000000000004101600000741580000855995000000000000000000000000000000000000000000000000000000000000000000000000000000000000000000000000000000000000000000100615220000000000001201132         030040881302000130J0000000000000000000000000000GERENTE COMERCIAL I 20080218TNQ200000000202004152020020320100615N0000000000
M001SOLDI PROMOTORA DE VENDAS LTDA     0100001320000118002JOSE LEITE RIBEIRO TAVARES         03ILANA DE MEDEIROS TAVARES LEITE    ANA ELIZABETH DE VASCONCELLOS GOES 100173345551010101200200416000000000029031600000741580031484700000000000000000000000000000000000000000000000000000000000000000000000000000000000000000000000000000000000000000000100615223100000000008500132         030000073119776491F0000000000000000000000000000GERENTE COMERCIAL I 20080218TNQ200000000202004162020030920100615N0000000000
M001SOLDI PROMOTORA DE VENDAS LTDA     0100001400000118013PALOMA SANTANA TEIXEIRA            00PALOMA SANTANA TEIXEIRA            HOSPITAL DAS NEVES                 100171824551010101200200401000000000032441600000741580000380402000000000000000000000000000000000000000000000000000000000000000000000000000000000000000000000000000000000000000000880227200000000000009500140         000001817749000199J0000000000000000000000000000CONSULTOR DE VENDAS 20100413TNE100000000202004012020022719880227N0000000000
M001SOLDI PROMOTORA DE VENDAS LTDA     0100001400000118013PALOMA SANTANA TEIXEIRA            00PALOMA SANTANA TEIXEIRA            HOSPITAL DE OLHOS DA PARAIBA       100171674701010101200200401000000000034151600000741580000749290000000000000000000000000000000000000000000000000000000000000000000000000000000000000000000000000000000000000000000880227200000000000010000140         000002957395000140J0000000000000000000000000000CONSULTOR DE VENDAS 20100413TNE100000000202004012020030719880227N0000000000
M001SOLDI PROMOTORA DE VENDAS LTDA     0100001400000118013PALOMA SANTANA TEIXEIRA            00PALOMA SANTANA TEIXEIRA            HOSPITAL DAS NEVES                 206801037278423019301200427000000000273230000000741580000968579000000000000000000000000000000000000000000000000000000000000000000000000000000000000000000000000000000000000000000880227200000000000080000140         000001817749000199J0000000000000000000000000000CONSULTOR DE VENDAS 20100413TNE100000000202004272020022119880227N0000000000
M001SOLDI PROMOTORA DE VENDAS LTDA     0100001400000118013PALOMA SANTANA TEIXEIRA            00PALOMA SANTANA TEIXEIRA            NOVA DIAGNOSTICO POR IMAGEM        506803983224090112201200430000000000044091600000741580000618179000000000000000000000000000000000000000000000000000000000000000000000000000000000000000000000000000000000000000000880227200000000000012911140         000004489715000100J0000000000000000000000000000CONSULTOR DE VENDAS 20100413TNE100000000202004302020022019880227N0000000000
M001SOLDI PROMOTORA DE VENDAS LTDA     0100001400000118013PALOMA SANTANA TEIXEIRA            00PALOMA SANTANA TEIXEIRA            NOVA DIAGNOSTICO POR IMAGEM        506803983224090130001200430000000000017881600000741580000618179000000000000000000000000000000000000000000000000000000000000000000000000000000000000000000000000000000000000000000880227200000000000005236140         000004489715000100J0000000000000000000000000000CONSULTOR DE VENDAS 20100413TNE100000000202004302020022019880227N0000000000
M001SOLDI PROMOTORA DE VENDAS LTDA     0100001400000118013PALOMA SANTANA TEIXEIRA            01SEVERINO RAMOS BARBOSA LEITE       NOVA DIAGNOSTICO POR IMAGEM        606803983838436004601200430000000000187840000000741580000618179000000000000000000000000000000000000000000000000000000000000000000000000000000000000000000000000000000000000000000820728110000000000055000140         010004489715000100J0000000000000000000000000000CONSULTOR DE VENDAS 20100413TNE100000000202004302020022819820728N0000000000
M001SOLDI PROMOTORA DE VENDAS LTDA     0100001400000118013PALOMA SANTANA TEIXEIRA            00PALOMA SANTANA TEIXEIRA            NOVA DIAGNOSTICO POR IMAGEM        506803983224090111401200430000000000015141600000741580000618179000000000000000000000000000000000000000000000000000000000000000000000000000000000000000000000000000000000000000000880227200000000000004435140         000004489715000100J0000000000000000000000000000CONSULTOR DE VENDAS 20100413TNE100000000202004302020022019880227N0000000000
M001SOLDI PROMOTORA DE VENDAS LTDA     0100001830000119012MARINALVA DE FREITAS COSTA         02BRYAN DE FREITAS SOUSA             CEPECE                             506787222694031006001200402000000000001801600000741580000279811000000000000000000000000000000000000000000000000000000000000000000000000000000000000000000000000000000000000000000190208120000000000000528183         020063386213000113J0000000000000000000000000000SUPERVISOR DE VENDAS20090720TNE100000000202004022020020720190208N0000000000
M001SOLDI PROMOTORA DE VENDAS LTDA     0100001830000119012MARINALVA DE FREITAS COSTA         02BRYAN DE FREITAS SOUSA             CEPECE                             206787222698400014701200402000000000087430000000741580000279811000000000000000000000000000000000000000000000000000000000000000000000000000000000000000000000000000000000000000000190208120000000000025600183         020063386213000113J0000000000000000000000000000SUPERVISOR DE VENDAS20090720TNE100000000202004022020020720190208N0000000000
M001SOLDI PROMOTORA DE VENDAS LTDA     0100001830000119012MARINALVA DE FREITAS COSTA         02BRYAN DE FREITAS SOUSA             CEPECE                             506787222694031042601200402000000000008451600000741580000279811000000000000000000000000000000000000000000000000000000000000000000000000000000000000000000000000000000000000000000190208120000000000002475183         020063386213000113J0000000000000000000000000000SUPERVISOR DE VENDAS20090720TNE100000000202004022020020720190208N0000000000
M001SOLDI PROMOTORA DE VENDAS LTDA     0100001830000119012MARINALVA DE FREITAS COSTA         02BRYAN DE FREITAS SOUSA             CEPECE                             506787222694031121001200402000000000001691600000741580000279811000000000000000000000000000000000000000000000000000000000000000000000000000000000000000000000000000000000000000000190208120000000000000496183         020063386213000113J0000000000000000000000000000SUPERVISOR DE VENDAS20090720TNE100000000202004022020020720190208N0000000000
M001SOLDI PROMOTORA DE VENDAS LTDA     0100001830000119012MARINALVA DE FREITAS COSTA         02BRYAN DE FREITAS SOUSA             CEPECE                             506787222694031021301200402000000000003611600000741580000279811000000000000000000000000000000000000000000000000000000000000000000000000000000000000000000000000000000000000000000190208120000000000001058183         020063386213000113J0000000000000000000000000000SUPERVISOR DE VENDAS20090720TNE100000000202004022020020720190208N0000000000
M001SOLDI PROMOTORA DE VENDAS LTDA     0100001830000119012MARINALVA DE FREITAS COSTA         02BRYAN DE FREITAS SOUSA             CEPECE                             206787222948400014701200406000000000087430000000741580000279811000000000000000000000000000000000000000000000000000000000000000000000000000000000000000000000000000000000000000000190208120000000000025600183         020063386213000113J0000000000000000000000000000SUPERVISOR DE VENDAS20090720TNE100000000202004062020021320190208N0000000000
M001SOLDI PROMOTORA DE VENDAS LTDA     0100001830000119012MARINALVA DE FREITAS COSTA         02BRYAN DE FREITAS SOUSA             CEPECE                             506787222944031006001200406000000000001801600000741580000279811000000000000000000000000000000000000000000000000000000000000000000000000000000000000000000000000000000000000000000190208120000000000000528183         020063386213000113J0000000000000000000000000000SUPERVISOR DE VENDAS20090720TNE100000000202004062020021320190208N0000000000
M001SOLDI PROMOTORA DE VENDAS LTDA     0100001830000119012MARINALVA DE FREITAS COSTA         02BRYAN DE FREITAS SOUSA             CEPECE                             506787222944031121001200406000000000001691600000741580000279811000000000000000000000000000000000000000000000000000000000000000000000000000000000000000000000000000000000000000000190208120000000000000496183         020063386213000113J0000000000000000000000000000SUPERVISOR DE VENDAS20090720TNE100000000202004062020021320190208N0000000000
M001SOLDI PROMOTORA DE VENDAS LTDA     0100002050000120018ANDREZA SANTOS HUMSI RAYES         01NICOLE B SANTOS RAYES FRANCISCO    SAINE                              106805570121010101201200422000000000034151600000741580000171702000000000000000000000000000000000000000000000000000000000000000000000000000000000000000000000000000000000000000000150427220000000000010000205         010014593607000137J0000000000000000000000000000CONSULTOR DE VENDAS 20100809TNE100000000202004222020021220150427N0000000000
M001SOLDI PROMOTORA DE VENDAS LTDA     0100002050000120018ANDREZA SANTOS HUMSI RAYES         00ANDREZA SANTOS HUMSI RAYES         LABORATORIO BIOCLINICO             506807684284030671201200428000000000006041600000741580000129976000000000000000000000000000000000000000000000000000000000000000000000000000000000000000000000000000000000000000000761030200000000000001770205         000001563691000102J0000000000000000000000000000CONSULTOR DE VENDAS 20100809TNE100000000202004282020021719761030N0000000000
M001SOLDI PROMOTORA DE VENDAS LTDA     0100002050000120018ANDREZA SANTOS HUMSI RAYES         00ANDREZA SANTOS HUMSI RAYES         LABORATORIO BIOCLINICO             506807684284030436101200428000000000003621600000741580000129976000000000000000000000000000000000000000000000000000000000000000000000000000000000000000000000000000000000000000000761030200000000000001062205         000001563691000102J0000000000000000000000000000CONSULTOR DE VENDAS 20100809TNE100000000202004282020021719761030N0000000000
M001SOLDI PROMOTORA DE VENDAS LTDA     0100002050000120018ANDREZA SANTOS HUMSI RAYES         00ANDREZA SANTOS HUMSI RAYES         LABORATORIO BIOCLINICO             506807684284030164801200428000000000006041600000741580000129976000000000000000000000000000000000000000000000000000000000000000000000000000000000000000000000000000000000000000000761030200000000000001770205         000001563691000102J0000000000000000000000000000CONSULTOR DE VENDAS 20100809TNE100000000202004282020021719761030N0000000000
M001SOLDI PROMOTORA DE VENDAS LTDA     0100002050000120018ANDREZA SANTOS HUMSI RAYES         00ANDREZA SANTOS HUMSI RAYES         LABORATORIO BIOCLINICO             506807684284030172901200428000000000003621600000741580000129976000000000000000000000000000000000000000000000000000000000000000000000000000000000000000000000000000000000000000000761030200000000000001062205         000001563691000102J0000000000000000000000000000CONSULTOR DE VENDAS 20100809TNE100000000202004282020021719761030N0000000000
M001SOLDI PROMOTORA DE VENDAS LTDA     0100002050000120018ANDREZA SANTOS HUMSI RAYES         00ANDREZA SANTOS HUMSI RAYES         LABORATORIO BIOCLINICO             506807684284030176101200428000000000004831600000741580000129976000000000000000000000000000000000000000000000000000000000000000000000000000000000000000000000000000000000000000000761030200000000000001415205         000001563691000102J0000000000000000000000000000CONSULTOR DE VENDAS 20100809TNE100000000202004282020021719761030N0000000000
M001SOLDI PROMOTORA DE VENDAS LTDA     0100002050000120018ANDREZA SANTOS HUMSI RAYES         00ANDREZA SANTOS HUMSI RAYES         LABORATORIO BIOCLINICO             506807684284030250401200428000000000001691600000741580000129976000000000000000000000000000000000000000000000000000000000000000000000000000000000000000000000000000000000000000000761030200000000000000496205         000001563691000102J0000000000000000000000000000CONSULTOR DE VENDAS 20100809TNE100000000202004282020021719761030N0000000000
M001SOLDI PROMOTORA DE VENDAS LTDA     0100002050000120018ANDREZA SANTOS HUMSI RAYES         00ANDREZA SANTOS HUMSI RAYES         LABORATORIO BIOCLINICO             506807684284030251201200428000000000001691600000741580000129976000000000000000000000000000000000000000000000000000000000000000000000000000000000000000000000000000000000000000000761030200000000000000496205         000001563691000102J0000000000000000000000000000CONSULTOR DE VENDAS 20100809TNE100000000202004282020021719761030N0000000000
M001SOLDI PROMOTORA DE VENDAS LTDA     0100002050000120018ANDREZA SANTOS HUMSI RAYES         00ANDREZA SANTOS HUMSI RAYES         LABORATORIO BIOCLINICO             506807684284030258001200428000000000001691600000741580000129976000000000000000000000000000000000000000000000000000000000000000000000000000000000000000000000000000000000000000000761030200000000000000496205         000001563691000102J0000000000000000000000000000CONSULTOR DE VENDAS 20100809TNE100000000202004282020021719761030N0000000000
M001SOLDI PROMOTORA DE VENDAS LTDA     0100002050000120018ANDREZA SANTOS HUMSI RAYES         00ANDREZA SANTOS HUMSI RAYES         LABORATORIO BIOCLINICO             506807684284030606201200428000000000004831600000741580000129976000000000000000000000000000000000000000000000000000000000000000000000000000000000000000000000000000000000000000000761030200000000000001415205         000001563691000102J0000000000000000000000000000CONSULTOR DE VENDAS 20100809TNE100000000202004282020021719761030N0000000000
M001SOLDI PROMOTORA DE VENDAS LTDA     0100002050000120018ANDREZA SANTOS HUMSI RAYES         00ANDREZA SANTOS HUMSI RAYES         LABORATORIO BIOCLINICO             506807684284030608901200428000000000004831600000741580000129976000000000000000000000000000000000000000000000000000000000000000000000000000000000000000000000000000000000000000000761030200000000000001415205         000001563691000102J0000000000000000000000000000CONSULTOR DE VENDAS 20100809TNE100000000202004282020021719761030N0000000000
M001SOLDI PROMOTORA DE VENDAS LTDA     0100002050000120018ANDREZA SANTOS HUMSI RAYES         00ANDREZA SANTOS HUMSI RAYES         LABORATORIO BIOCLINICO             506807684284030611901200428000000000004831600000741580000129976000000000000000000000000000000000000000000000000000000000000000000000000000000000000000000000000000000000000000000761030200000000000001415205         000001563691000102J0000000000000000000000000000CONSULTOR DE VENDAS 20100809TNE100000000202004282020021719761030N0000000000
M001SOLDI PROMOTORA DE VENDAS LTDA     0100002050000120018ANDREZA SANTOS HUMSI RAYES         00ANDREZA SANTOS HUMSI RAYES         LABORATORIO BIOCLINICO             506807684284030612701200428000000000004831600000741580000129976000000000000000000000000000000000000000000000000000000000000000000000000000000000000000000000000000000000000000000761030200000000000001415205         000001563691000102J0000000000000000000000000000CONSULTOR DE VENDAS 20100809TNE100000000202004282020021719761030N0000000000
M001SOLDI PROMOTORA DE VENDAS LTDA     0100002050000120018ANDREZA SANTOS HUMSI RAYES         00ANDREZA SANTOS HUMSI RAYES         LABORATORIO BIOCLINICO             506807684284030629101200428000000000004831600000741580000129976000000000000000000000000000000000000000000000000000000000000000000000000000000000000000000000000000000000000000000761030200000000000001415205         000001563691000102J0000000000000000000000000000CONSULTOR DE VENDAS 20100809TNE100000000202004282020021719761030N0000000000
M001SOLDI PROMOTORA DE VENDAS LTDA     0100002050000120018ANDREZA SANTOS HUMSI RAYES         00ANDREZA SANTOS HUMSI RAYES         LABORATORIO BIOCLINICO             506807684284030670401200428000000000006041600000741580000129976000000000000000000000000000000000000000000000000000000000000000000000000000000000000000000000000000000000000000000761030200000000000001770205         000001563691000102J0000000000000000000000000000CONSULTOR DE VENDAS 20100809TNE100000000202004282020021719761030N0000000000
M001SOLDI PROMOTORA DE VENDAS LTDA     0100002050000120018ANDREZA SANTOS HUMSI RAYES         00ANDREZA SANTOS HUMSI RAYES         LABORATORIO BIOCLINICO             506807684284030839101200428000000000008091600000741580000129976000000000000000000000000000000000000000000000000000000000000000000000000000000000000000000000000000000000000000000761030200000000000002371205         000001563691000102J0000000000000000000000000000CONSULTOR DE VENDAS 20100809TNE100000000202004282020021719761030N0000000000
M001SOLDI PROMOTORA DE VENDAS LTDA     0100002050000120018ANDREZA SANTOS HUMSI RAYES         00ANDREZA SANTOS HUMSI RAYES         LABORATORIO BIOCLINICO             506807684284030163001200428000000000001691600000741580000129976000000000000000000000000000000000000000000000000000000000000000000000000000000000000000000000000000000000000000000761030200000000000000496205         000001563691000102J0000000000000000000000000000CONSULTOR DE VENDAS 20100809TNE100000000202004282020021719761030N0000000000
M001SOLDI PROMOTORA DE VENDAS LTDA     0100002050000120018ANDREZA SANTOS HUMSI RAYES         00ANDREZA SANTOS HUMSI RAYES         LABORATORIO BIOCLINICO             506807684284030437001200428000000000001211600000741580000129976000000000000000000000000000000000000000000000000000000000000000000000000000000000000000000000000000000000000000000761030200000000000000355205         000001563691000102J0000000000000000000000000000CONSULTOR DE VENDAS 20100809TNE100000000202004282020021719761030N0000000000
M001SOLDI PROMOTORA DE VENDAS LTDA     0100002050000120018ANDREZA SANTOS HUMSI RAYES         00ANDREZA SANTOS HUMSI RAYES         LABORATORIO BIOCLINICO             506807684284030685201200428000000000003621600000741580000129976000000000000000000000000000000000000000000000000000000000000000000000000000000000000000000000000000000000000000000761030200000000000001062205         000001563691000102J0000000000000000000000000000CONSULTOR DE VENDAS 20100809TNE100000000202004282020021719761030N0000000000
M001SOLDI PROMOTORA DE VENDAS LTDA     0100002050000120018ANDREZA SANTOS HUMSI RAYES         00ANDREZA SANTOS HUMSI RAYES         SER SERVICOS DE REUMATOLOGIA       100174094180001126600200429000000000046780000000741580000265402000000000000000000000000000000000000000000000000000000000000000000000000000000000000000000000000000000000000000000761030200000000000013699205         000013749461000103J0000000000000000000000000000CONSULTOR DE VENDAS 20100809TNE100000000202004292020030519761030N0000000000
M001SOLDI PROMOTORA DE VENDAS LTDA     0100002640000013086ANTONIA DE SOUSA GOMES FEIJAO      00ANTONIA DE SOUSA GOMES FEIJAO      PROSAUDE                           100171912171010101200200402000000000034151600000741580000887927000000000000000000000000000000000000000000000000000000000000000000000000000000000000000000000000000000000000000000601013200000000000010000264         000002355330000125J0000000000000000000000000000AUXILIAR DE SERVICOS20100503TNE100000000202004022020032319601013N0000000000
M001SOLDI PROMOTORA DE VENDAS LTDA     0100002640000013086ANTONIA DE SOUSA GOMES FEIJAO      00ANTONIA DE SOUSA GOMES FEIJAO      LAB SANTA THEREZINHA               506794253604060113701200415000000000011711600000741580000927430000000000000000000000000000000000000000000000000000000000000000000000000000000000000000000000000000000000000000000601013200000000000003430264         000029534476000194J0000000000000000000000000000AUXILIAR DE SERVICOS20100503TNE100000000202004152020020719601013N0000000000
M001SOLDI PROMOTORA DE VENDAS LTDA     0100002640000013086ANTONIA DE SOUSA GOMES FEIJAO      00ANTONIA DE SOUSA GOMES FEIJAO      SERMAFI                            206808237192010349201200423000000000004411600000741580000675245000000000000000000000000000000000000000000000000000000000000000000000000000000000000000000000000000000000000000000601013200000000000001294264         000003425358000154J0000000000000000000000000000AUXILIAR DE SERVICOS20100503TNE100000000202004232019112719601013N0000000000
M001SOLDI PROMOTORA DE VENDAS LTDA     0100002640000013086ANTONIA DE SOUSA GOMES FEIJAO      00ANTONIA DE SOUSA GOMES FEIJAO      SERMAFI                            206808237192010349201200423000000000004411600000741580000675245000000000000000000000000000000000000000000000000000000000000000000000000000000000000000000000000000000000000000000601013200000000000001294264         000003425358000154J0000000000000000000000000000AUXILIAR DE SERVICOS20100503TNE100000000202004232019112719601013N0000000000
M001SOLDI PROMOTORA DE VENDAS LTDA     0100002640000013086ANTONIA DE SOUSA GOMES FEIJAO      00ANTONIA DE SOUSA GOMES FEIJAO      SERMAFI                            206808237192010349201200423000000000004411600000741580000675245000000000000000000000000000000000000000000000000000000000000000000000000000000000000000000000000000000000000000000601013200000000000001294264         000003425358000154J0000000000000000000000000000AUXILIAR DE SERVICOS20100503TNE100000000202004232019112719601013N0000000000
M001SOLDI PROMOTORA DE VENDAS LTDA     0100002640000013086ANTONIA DE SOUSA GOMES FEIJAO      00ANTONIA DE SOUSA GOMES FEIJAO      SERMAFI                            206808237192010349201200423000000000004411600000741580000675245000000000000000000000000000000000000000000000000000000000000000000000000000000000000000000000000000000000000000000601013200000000000001294264         000003425358000154J0000000000000000000000000000AUXILIAR DE SERVICOS20100503TNE100000000202004232019112719601013N0000000000
M001SOLDI PROMOTORA DE VENDAS LTDA     0100002640000013086ANTONIA DE SOUSA GOMES FEIJAO      00ANTONIA DE SOUSA GOMES FEIJAO      SERMAFI                            206808237192010349201200423000000000004411600000741580000675245000000000000000000000000000000000000000000000000000000000000000000000000000000000000000000000000000000000000000000601013200000000000001294264         000003425358000154J0000000000000000000000000000AUXILIAR DE SERVICOS20100503TNE100000000202004232019112719601013N0000000000
M001SOLDI PROMOTORA DE VENDAS LTDA     0100002640000013086ANTONIA DE SOUSA GOMES FEIJAO      00ANTONIA DE SOUSA GOMES FEIJAO      SERMAFI                            206808237192010349201200423000000000004411600000741580000675245000000000000000000000000000000000000000000000000000000000000000000000000000000000000000000000000000000000000000000601013200000000000001294264         000003425358000154J0000000000000000000000000000AUXILIAR DE SERVICOS20100503TNE100000000202004232019112719601013N0000000000
M001SOLDI PROMOTORA DE VENDAS LTDA     0100002640000013086ANTONIA DE SOUSA GOMES FEIJAO      00ANTONIA DE SOUSA GOMES FEIJAO      SERMAFI                            206808237192010349201200423000000000004411600000741580000675245000000000000000000000000000000000000000000000000000000000000000000000000000000000000000000000000000000000000000000601013200000000000001294264         000003425358000154J0000000000000000000000000000AUXILIAR DE SERVICOS20100503TNE100000000202004232019112719601013N0000000000
M001SOLDI PROMOTORA DE VENDAS LTDA     0100002640000013086ANTONIA DE SOUSA GOMES FEIJAO      00ANTONIA DE SOUSA GOMES FEIJAO      SERMAFI                            206808237192010349201200423000000000004411600000741580000675245000000000000000000000000000000000000000000000000000000000000000000000000000000000000000000000000000000000000000000601013200000000000001294264         000003425358000154J0000000000000000000000000000AUXILIAR DE SERVICOS20100503TNE100000000202004232019112719601013N0000000000
M001SOLDI PROMOTORA DE VENDAS LTDA     0100002640000013086ANTONIA DE SOUSA GOMES FEIJAO      00ANTONIA DE SOUSA GOMES FEIJAO      SERMAFI                            206808237192010349201200423000000000004411600000741580000675245000000000000000000000000000000000000000000000000000000000000000000000000000000000000000000000000000000000000000000601013200000000000001294264         000003425358000154J0000000000000000000000000000AUXILIAR DE SERVICOS20100503TNE100000000202004232019112719601013N0000000000
M001SOLDI PROMOTORA DE VENDAS LTDA     0100002800000013097SAMUEL DE FRANCA PESSOA JUNIOR     01ALESSANDRA RODRIGUES BARROS        CASA DE SAUDE N S DE FATIMA        206790210013401999101200409000000000009470000000741580000192619000000000000000000000000000000000000000000000000000000000000000000000000000000000000000000000000000000000000000000920512210000000000002774280         010030742399000147J0000000000000000000000000000CONSULTOR DE VENDAS 20110317TNE100000000202004092020021619920512N0000000000
M001SOLDI PROMOTORA DE VENDAS LTDA     0100002800000013097SAMUEL DE FRANCA PESSOA JUNIOR     01ALESSANDRA RODRIGUES BARROS        CASA DE SAUDE N S DE FATIMA        106790210011010103901200409000000000044401600000741580000192619000000000000000000000000000000000000000000000000000000000000000000000000000000000000000000000000000000000000000000920512210000000000013000280         010030742399000147J0000000000000000000000000000CONSULTOR DE VENDAS 20110317TNE100000000202004092020021619920512N0000000000
M001SOLDI PROMOTORA DE VENDAS LTDA     0100002800000013097SAMUEL DE FRANCA PESSOA JUNIOR     01ALESSANDRA RODRIGUES BARROS        CASA DE SAUDE N S DE FATIMA        206790210013401999501200409000000000050480000000741580000192619000000000000000000000000000000000000000000000000000000000000000000000000000000000000000000000000000000000000000000920512210000000000014781280         010030742399000147J0000000000000000000000000000CONSULTOR DE VENDAS 20110317TNE100000000202004092020021619920512N0000000000
M001SOLDI PROMOTORA DE VENDAS LTDA     0100002800000013097SAMUEL DE FRANCA PESSOA JUNIOR     01ALESSANDRA RODRIGUES BARROS        CASA DE SAUDE N S DE FATIMA        206790210013401999201200409000000000005850000000741580000192619000000000000000000000000000000000000000000000000000000000000000000000000000000000000000000000000000000000000000000920512210000000000001715280         010030742399000147J0000000000000000000000000000CONSULTOR DE VENDAS 20110317TNE100000000202004092020021619920512N0000000000
M001SOLDI PROMOTORA DE VENDAS LTDA     0100002800000013097SAMUEL DE FRANCA PESSOA JUNIOR     01ALESSANDRA RODRIGUES BARROS        LABORATORIO BRONSTEIN              506804631654031212701200423000000000009791600000741580000281972000000000000000000000000000000000000000000000000000000000000000000000000000000000000000000000000000000000000000000920512210000000000002868280         010061486650005061J0000000000000000000000000000CONSULTOR DE VENDAS 20110317TNE100000000202004232020021319920512N0000000000
M001SOLDI PROMOTORA DE VENDAS LTDA     0100002800000013097SAMUEL DE FRANCA PESSOA JUNIOR     01ALESSANDRA RODRIGUES BARROS        LABORATORIO BRONSTEIN              506804631654031215101200423000000000008811600000741580000281972000000000000000000000000000000000000000000000000000000000000000000000000000000000000000000000000000000000000000000920512210000000000002581280         010061486650005061J0000000000000000000000000000CONSULTOR DE VENDAS 20110317TNE100000000202004232020021319920512N0000000000
M001SOLDI PROMOTORA DE VENDAS LTDA     0100002800000013097SAMUEL DE FRANCA PESSOA JUNIOR     01ALESSANDRA RODRIGUES BARROS        LABORATORIO BRONSTEIN              506804631654030163001200423000000000001371600000741580000281972000000000000000000000000000000000000000000000000000000000000000000000000000000000000000000000000000000000000000000920512210000000000000402280         010061486650005061J0000000000000000000000000000CONSULTOR DE VENDAS 20110317TNE100000000202004232020021319920512N0000000000
M001SOLDI PROMOTORA DE VENDAS LTDA     0100002800000013097SAMUEL DE FRANCA PESSOA JUNIOR     01ALESSANDRA RODRIGUES BARROS        LABORATORIO BRONSTEIN              506804631654030128101200423000000000001371600000741580000281972000000000000000000000000000000000000000000000000000000000000000000000000000000000000000000000000000000000000000000920512210000000000000402280         010061486650005061J0000000000000000000000000000CONSULTOR DE VENDAS 20110317TNE100000000202004232020021319920512N0000000000
M001SOLDI PROMOTORA DE VENDAS LTDA     0100002800000013097SAMUEL DE FRANCA PESSOA JUNIOR     01ALESSANDRA RODRIGUES BARROS        LABORATORIO BRONSTEIN              506804631654030204001200423000000000001371600000741580000281972000000000000000000000000000000000000000000000000000000000000000000000000000000000000000000000000000000000000000000920512210000000000000402280         010061486650005061J0000000000000000000000000000CONSULTOR DE VENDAS 20110317TNE100000000202004232020021319920512N0000000000
M001SOLDI PROMOTORA DE VENDAS LTDA     0100002800000013097SAMUEL DE FRANCA PESSOA JUNIOR     01ALESSANDRA RODRIGUES BARROS        LABORATORIO BRONSTEIN              506804631654030219901200423000000000001461600000741580000281972000000000000000000000000000000000000000000000000000000000000000000000000000000000000000000000000000000000000000000920512210000000000000428280         010061486650005061J0000000000000000000000000000CONSULTOR DE VENDAS 20110317TNE100000000202004232020021319920512N0000000000
M001SOLDI PROMOTORA DE VENDAS LTDA     0100002800000013097SAMUEL DE FRANCA PESSOA JUNIOR     01ALESSANDRA RODRIGUES BARROS        LABORATORIO BRONSTEIN              506804631654030258001200423000000000001371600000741580000281972000000000000000000000000000000000000000000000000000000000000000000000000000000000000000000000000000000000000000000920512210000000000000402280         010061486650005061J0000000000000000000000000000CONSULTOR DE VENDAS 20110317TNE100000000202004232020021319920512N0000000000
M001SOLDI PROMOTORA DE VENDAS LTDA     0100002800000013097SAMUEL DE FRANCA PESSOA JUNIOR     01ALESSANDRA RODRIGUES BARROS        LABORATORIO BRONSTEIN              506804631654030275001200423000000000006851600000741580000281972000000000000000000000000000000000000000000000000000000000000000000000000000000000000000000000000000000000000000000920512210000000000002007280         010061486650005061J0000000000000000000000000000CONSULTOR DE VENDAS 20110317TNE100000000202004232020021319920512N0000000000
M001SOLDI PROMOTORA DE VENDAS LTDA     0100002800000013097SAMUEL DE FRANCA PESSOA JUNIOR     01ALESSANDRA RODRIGUES BARROS        LABORATORIO BRONSTEIN              506804631654030436101200423000000000002941600000741580000281972000000000000000000000000000000000000000000000000000000000000000000000000000000000000000000000000000000000000000000920512210000000000000861280         010061486650005061J0000000000000000000000000000CONSULTOR DE VENDAS 20110317TNE100000000202004232020021319920512N0000000000
M001SOLDI PROMOTORA DE VENDAS LTDA     0100002800000013097SAMUEL DE FRANCA PESSOA JUNIOR     01ALESSANDRA RODRIGUES BARROS        LABORATORIO BRONSTEIN              506804631654031649101200423000000000008141600000741580000281972000000000000000000000000000000000000000000000000000000000000000000000000000000000000000000000000000000000000000000920512210000000000002384280         010061486650005061J0000000000000000000000000000CONSULTOR DE VENDAS 20110317TNE100000000202004232020021319920512N0000000000
M001SOLDI PROMOTORA DE VENDAS LTDA     0100002800000013097SAMUEL DE FRANCA PESSOA JUNIOR     01ALESSANDRA RODRIGUES BARROS        LABORATORIO BRONSTEIN              506804631654031652101200423000000000008141600000741580000281972000000000000000000000000000000000000000000000000000000000000000000000000000000000000000000000000000000000000000000920512210000000000002384280         010061486650005061J0000000000000000000000000000CONSULTOR DE VENDAS 20110317TNE100000000202004232020021319920512N0000000000
M001SOLDI PROMOTORA DE VENDAS LTDA     0100003020000133127ANA PAULA RODRIGUES BRAGA RAMALHO  01MATEUS LEVI RAMALHO DE OLIVEIRA    UPDATE                             100171610461010101200200401000000000034151600000741580000882127000000000000000000000000000000000000000000000000000000000000000000000000000000000000000000000000000000000000000000160410120000000000010000302         010002766875000124J0000000000000000000000000000CONSULTOR DE VENDAS 20100601TNE100000000202004012020031220160410N0000000000
M001SOLDI PROMOTORA DE VENDAS LTDA     0100003020000133127ANA PAULA RODRIGUES BRAGA RAMALHO  01MATEUS LEVI RAMALHO DE OLIVEIRA    HOSPITAL PROMATER                  206813326388400014701200429000000000098970000000741580000439711000000000000000000000000000000000000000000000000000000000000000000000000000000000000000000000000000000000000000000160410120000000000028980302         010029435005009851J0000000000000000000000000000CONSULTOR DE VENDAS 20100601TNE100000000202004292020030820160410N0000000000
M001SOLDI PROMOTORA DE VENDAS LTDA     0100003290000133158CARLA C GUILHERME SILVA MARQUES    00CARLA C GUILHERME SILVA MARQUES    CARDIODINAMICA                     100174123731010101200200429000000000034151600000741580000627992000000000000000000000000000000000000000000000000000000000000000000000000000000000000000000000000000000000000000000860103200000000000010000329         000001454407000151J0000000000000000000000000000CONSULTOR DE VENDAS 20110701TNE100000000202004292020031019860103N0000000000
M001SOLDI PROMOTORA DE VENDAS LTDA     0100003290000133158CARLA C GUILHERME SILVA MARQUES    00CARLA C GUILHERME SILVA MARQUES    SERVIMED                           106809797111010103901200429000000000047061600000741580000444197000000000000000000000000000000000000000000000000000000000000000000000000000000000000000000000000000000000000000000860103200000000000013780329         000004695546000165J0000000000000000000000000000CONSULTOR DE VENDAS 20110701TNE100000000202004292020030319860103N0000000000
M001SOLDI PROMOTORA DE VENDAS LTDA     0100003530000014055REGINA HELENA NERY BEZERRA         00REGINA HELENA NERY BEZERRA         HOSPITAL ESPERANCA OLINDA          206793392328400101101200415000000000109200000000741580000408212000000000000000000000000000000000000000000000000000000000000000000000000000000000000000000000000000000000000000000810107200000000000031973353         000006047087001291J0000000000000000000000000000CONSULTOR DE VENDAS 20100804TNE100000000202004152020011319810107N0000000000
M001SOLDI PROMOTORA DE VENDAS LTDA     0100003530000014055REGINA HELENA NERY BEZERRA         00REGINA HELENA NERY BEZERRA         CERPE - GILSON CIDRIM              506813999734030158301200430000000000002591600000741580000149003000000000000000000000000000000000000000000000000000000000000000000000000000000000000000000000000000000000000000000810107200000000000000760353         000061486650088412J0000000000000000000000000000CONSULTOR DE VENDAS 20100804TNE100000000202004302020031219810107N0000000000
M001SOLDI PROMOTORA DE VENDAS LTDA     0100003530000014055REGINA HELENA NERY BEZERRA         00REGINA HELENA NERY BEZERRA         CERPE - GILSON CIDRIM              506813999734031040001200430000000000018151600000741580000149003000000000000000000000000000000000000000000000000000000000000000000000000000000000000000000000000000000000000000000810107200000000000005316353         000061486650088412J0000000000000000000000000000CONSULTOR DE VENDAS 20100804TNE100000000202004302020031219810107N0000000000
M001SOLDI PROMOTORA DE VENDAS LTDA     0100003530000014055REGINA HELENA NERY BEZERRA         00REGINA HELENA NERY BEZERRA         CERPE - GILSON CIDRIM              506813999734031649101200430000000000007751600000741580000149003000000000000000000000000000000000000000000000000000000000000000000000000000000000000000000000000000000000000000000810107200000000000002271353         000061486650088412J0000000000000000000000000000CONSULTOR DE VENDAS 20100804TNE100000000202004302020031219810107N0000000000
M001SOLDI PROMOTORA DE VENDAS LTDA     0100003530000014055REGINA HELENA NERY BEZERRA         00REGINA HELENA NERY BEZERRA         CERPE - GILSON CIDRIM              506813999734030776001200430000000000001031600000741580000149003000000000000000000000000000000000000000000000000000000000000000000000000000000000000000000000000000000000000000000810107200000000000000304353         000061486650088412J0000000000000000000000000000CONSULTOR DE VENDAS 20100804TNE100000000202004302020031219810107N0000000000
M001SOLDI PROMOTORA DE VENDAS LTDA     0100003530000014055REGINA HELENA NERY BEZERRA         00REGINA HELENA NERY BEZERRA         CERPE - GILSON CIDRIM              506813999734030163001200430000000000001451600000741580000149003000000000000000000000000000000000000000000000000000000000000000000000000000000000000000000000000000000000000000000810107200000000000000426353         000061486650088412J0000000000000000000000000000CONSULTOR DE VENDAS 20100804TNE100000000202004302020031219810107N0000000000
M001SOLDI PROMOTORA DE VENDAS LTDA     0100003530000014055REGINA HELENA NERY BEZERRA         00REGINA HELENA NERY BEZERRA         CERPE - GILSON CIDRIM              506813999734030159101200430000000000003111600000741580000149003000000000000000000000000000000000000000000000000000000000000000000000000000000000000000000000000000000000000000000810107200000000000000911353         000061486650088412J0000000000000000000000000000CONSULTOR DE VENDAS 20100804TNE100000000202004302020031219810107N0000000000
M001SOLDI PROMOTORA DE VENDAS LTDA     0100003530000014055REGINA HELENA NERY BEZERRA         00REGINA HELENA NERY BEZERRA         CERPE - GILSON CIDRIM              506813999734030204001200430000000000001451600000741580000149003000000000000000000000000000000000000000000000000000000000000000000000000000000000000000000000000000000000000000000810107200000000000000426353         000061486650088412J0000000000000000000000000000CONSULTOR DE VENDAS 20100804TNE100000000202004302020031219810107N0000000000
M001SOLDI PROMOTORA DE VENDAS LTDA     0100003530000014055REGINA HELENA NERY BEZERRA         00REGINA HELENA NERY BEZERRA         CERPE - GILSON CIDRIM              506813999734030254701200430000000000002071600000741580000149003000000000000000000000000000000000000000000000000000000000000000000000000000000000000000000000000000000000000000000810107200000000000000607353         000061486650088412J0000000000000000000000000000CONSULTOR DE VENDAS 20100804TNE100000000202004302020031219810107N0000000000
M001SOLDI PROMOTORA DE VENDAS LTDA     0100003530000014055REGINA HELENA NERY BEZERRA         00REGINA HELENA NERY BEZERRA         CERPE - GILSON CIDRIM              506813999734030283001200430000000000010371600000741580000149003000000000000000000000000000000000000000000000000000000000000000000000000000000000000000000000000000000000000000000810107200000000000003039353         000061486650088412J0000000000000000000000000000CONSULTOR DE VENDAS 20100804TNE100000000202004302020031219810107N0000000000
M001SOLDI PROMOTORA DE VENDAS LTDA     0100003530000014055REGINA HELENA NERY BEZERRA         00REGINA HELENA NERY BEZERRA         CERPE - GILSON CIDRIM              506813999734030436101200430000000000003111600000741580000149003000000000000000000000000000000000000000000000000000000000000000000000000000000000000000000000000000000000000000000810107200000000000000911353         000061486650088412J0000000000000000000000000000CONSULTOR DE VENDAS 20100804TNE100000000202004302020031219810107N0000000000
M001SOLDI PROMOTORA DE VENDAS LTDA     0100003530000014055REGINA HELENA NERY BEZERRA         00REGINA HELENA NERY BEZERRA         CERPE - GILSON CIDRIM              506813999734031121001200430000000000001451600000741580000149003000000000000000000000000000000000000000000000000000000000000000000000000000000000000000000000000000000000000000000810107200000000000000426353         000061486650088412J0000000000000000000000000000CONSULTOR DE VENDAS 20100804TNE100000000202004302020031219810107N0000000000
M001SOLDI PROMOTORA DE VENDAS LTDA     0100003530000014055REGINA HELENA NERY BEZERRA         00REGINA HELENA NERY BEZERRA         CERPE - GILSON CIDRIM              506813999734031652101200430000000000007751600000741580000149003000000000000000000000000000000000000000000000000000000000000000000000000000000000000000000000000000000000000000000810107200000000000002271353         000061486650088412J0000000000000000000000000000CONSULTOR DE VENDAS 20100804TNE100000000202004302020031219810107N0000000000
M001SOLDI PROMOTORA DE VENDAS LTDA     0100003610000017005EDVANE PEREIRA DE OLIVEIRA         00EDVANE PEREIRA DE OLIVEIRA         ORTOPED                            191626000351010101200200406000000000034151600000741580000121924000000000000000000000000000000000000000000000000000000000000000000000000000000000000000000000000000000000000000000801011200000000000010000361         000033967407000141J0000000000000000000000000000SUPERVISOR DE VENDAS20060701TNQ200000000202004062020021819801011N0000000000
M001SOLDI PROMOTORA DE VENDAS LTDA     0100003610000017005EDVANE PEREIRA DE OLIVEIRA         00EDVANE PEREIRA DE OLIVEIRA         HBA                                606796722358436004601200420000000000225410000000741580000631574000000000000000000000000000000000000000000000000000000000000000000000000000000000000000000000000000000000000000000801011200000000000066000361         000005469172000122J0000000000000000000000000000SUPERVISOR DE VENDAS20060701TNQ200000000202004202020022019801011N0000000000
M001SOLDI PROMOTORA DE VENDAS LTDA     0100003610000017005EDVANE PEREIRA DE OLIVEIRA         00EDVANE PEREIRA DE OLIVEIRA         HBA                                506796722354080411901200420000000000011671600000741580000631574000000000000000000000000000000000000000000000000000000000000000000000000000000000000000000000000000000000000000000801011200000000000003417361         000005469172000122J0000000000000000000000000000SUPERVISOR DE VENDAS20060701TNQ200000000202004202020022019801011N0000000000
M001SOLDI PROMOTORA DE VENDAS LTDA     0100003700000017098CAROLINE MOREIRA CHAMUSCA          00CAROLINE MOREIRA CHAMUSCA          CLINICA DELFIN VILLAS              506780397058433011201200403000000000040980000000741580000768839000000000000000000000000000000000000000000000000000000000000000000000000000000000000000000000000000000000000000000880307200000000000012000370         000042049064000127J0000000000000000000000000000ASSISTENTE COMERCIAL20090923TNQ200000000202004032020011719880307N0000000000
M001SOLDI PROMOTORA DE VENDAS LTDA     0100003700000017098CAROLINE MOREIRA CHAMUSCA          00CAROLINE MOREIRA CHAMUSCA          CLINICA DELFIN VILLAS              506780397068433011201200407000000000028530000000741580000768839000000000000000000000000000000000000000000000000000000000000000000000000000000000000000000000000000000000000000000880307200000000000008356370         000042049064000127J0000000000000000000000000000ASSISTENTE COMERCIAL20090923TNQ200000000202004072020011719880307N0000000000
M001SOLDI PROMOTORA DE VENDAS LTDA     0100003700000017098CAROLINE MOREIRA CHAMUSCA          00CAROLINE MOREIRA CHAMUSCA          CLIN MEDICA SAINT GERMAIN          106800960051010101201200422000000000034151600000741580000401722000000000000000000000000000000000000000000000000000000000000000000000000000000000000000000000000000000000000000000880307200000000000010000370         000096697099000100J0000000000000000000000000000ASSISTENTE COMERCIAL20090923TNQ200000000202004222020022719880307N0000000000
M001SOLDI PROMOTORA DE VENDAS LTDA     0100003700000017098CAROLINE MOREIRA CHAMUSCA          00CAROLINE MOREIRA CHAMUSCA          CLIN MEDICA SAINT GERMAIN          100173841031010101200200424000000000034151600000741580000401722000000000000000000000000000000000000000000000000000000000000000000000000000000000000000000000000000000000000000000880307200000000000010000370         000096697099000100J0000000000000000000000000000ASSISTENTE COMERCIAL20090923TNQ200000000202004242020032419880307N0000000000
M001SOLDI PROMOTORA DE VENDAS LTDA     0100003700000017098CAROLINE MOREIRA CHAMUSCA          00CAROLINE MOREIRA CHAMUSCA          INOOA                              106810572331010103901200430000000000034151600000741580000249513000000000000000000000000000000000000000000000000000000000000000000000000000000000000000000000000000000000000000000880307200000000000010000370         000001428313000108J0000000000000000000000000000ASSISTENTE COMERCIAL20090923TNQ200000000202004302020031219880307N0000000000
M001SOLDI PROMOTORA DE VENDAS LTDA     0100003880000017124LUCIANA DO ESPIRITO SANTO ARAUJO   00LUCIANA DO ESPIRITO SANTO ARAUJO   ECOCARDIO                          506795966724010101001200413000000000007091600000741580000237802000000000000000000000000000000000000000000000000000000000000000000000000000000000000000000000000000000000000000000710322200000000000002076388         000013453246000160J0000000000000000000000000000CONSULTOR DE VENDAS 20100719TNE100000000202004132020022719710322N0000000000
M001SOLDI PROMOTORA DE VENDAS LTDA     0100003880000017124LUCIANA DO ESPIRITO SANTO ARAUJO   00LUCIANA DO ESPIRITO SANTO ARAUJO   COPANEST BA                        4   F2EERQ13091301200200415000000000173571600000741580000097420000000000000000000000000000000000000000000000000000000000000000000000000000000000000000000000000000000000000000000710322200000000000050821388         000013792965000106J0000000000000000000000000000CONSULTOR DE VENDAS 20100719TNE100000000202004152020030519710322N0000000000
M001SOLDI PROMOTORA DE VENDAS LTDA     0100003880000017124LUCIANA DO ESPIRITO SANTO ARAUJO   00LUCIANA DO ESPIRITO SANTO ARAUJO   GMN GRUPO DE MEDIC NUCLEAR         606782860884070810101200415000000000043361600000741580000335371000000000000000000000000000000000000000000000000000000000000000000000000000000000000000000000000000000000000000000710322200000000000012697388         000004821603000105J0000000000000000000000000000CONSULTOR DE VENDAS 20100719TNE100000000202004152020020619710322N0000000000
M001SOLDI PROMOTORA DE VENDAS LTDA     0100003880000017124LUCIANA DO ESPIRITO SANTO ARAUJO   00LUCIANA DO ESPIRITO SANTO ARAUJO   GMN GRUPO DE MEDIC NUCLEAR         606782860884070809801200415000000000120631600000741580000335371000000000000000000000000000000000000000000000000000000000000000000000000000000000000000000000000000000000000000000710322200000000000035320388         000004821603000105J0000000000000000000000000000CONSULTOR DE VENDAS 20100719TNE100000000202004152020020619710322N0000000000
M001SOLDI PROMOTORA DE VENDAS LTDA     0100003880000017124LUCIANA DO ESPIRITO SANTO ARAUJO   00LUCIANA DO ESPIRITO SANTO ARAUJO   GMN GRUPO DE MEDIC NUCLEAR         206782860883401999501200415000000000079910000000741580000335371000000000000000000000000000000000000000000000000000000000000000000000000000000000000000000000000000000000000000000710322200000000000023399388         000004821603000105J0000000000000000000000000000CONSULTOR DE VENDAS 20100719TNE100000000202004152020020619710322N0000000000
M001SOLDI PROMOTORA DE VENDAS LTDA     0100003880000017124LUCIANA DO ESPIRITO SANTO ARAUJO   00LUCIANA DO ESPIRITO SANTO ARAUJO   HOSPITAL PORTUGUES                 3   FCJPSN90000000100200420000000006151420000000741580000028916000000000000499000000000000000000000000535550000000023260100000000000000000000000000000000000000000000000000323996710322200000000001801084388         000015166416000151J0000000000000000000000000000CONSULTOR DE VENDAS 20100719TNE100000000202004202020011819710322N0000000000
M001SOLDI PROMOTORA DE VENDAS LTDA     0100003880000017124LUCIANA DO ESPIRITO SANTO ARAUJO   00LUCIANA DO ESPIRITO SANTO ARAUJO   CLINICA DELFIN                     606804409438434008801200424000000000092210000000741580000099074000000000000000000000000000000000000000000000000000000000000000000000000000000000000000000000000000000000000000000710322200000000000027000388         000016047490000111J0000000000000000000000000000CONSULTOR DE VENDAS 20100719TNE100000000202004242020022119710322N0000000000
M001SOLDI PROMOTORA DE VENDAS LTDA     0100003880000017124LUCIANA DO ESPIRITO SANTO ARAUJO   00LUCIANA DO ESPIRITO SANTO ARAUJO   CLINICA DELFIN                     606804409438434008801200424000000000064530000000741580000099074000000000000000000000000000000000000000000000000000000000000000000000000000000000000000000000000000000000000000000710322200000000000018894388         000016047490000111J0000000000000000000000000000CONSULTOR DE VENDAS 20100719TNE100000000202004242020022119710322N0000000000
M001SOLDI PROMOTORA DE VENDAS LTDA     0100003880000017124LUCIANA DO ESPIRITO SANTO ARAUJO   00LUCIANA DO ESPIRITO SANTO ARAUJO   LABORATORIO SILVANY STUDART        506790515464060101303200427000000000255681600000741580000403130000000000000000000000000000000000000000000000000000000000000000000000000000000000000000000000000000000000000000000710322200000000000074862388         000032601437000177J0000000000000000000000000000CONSULTOR DE VENDAS 20100719TNE100000000202004272020020719710322N0000000000
M001SOLDI PROMOTORA DE VENDAS LTDA     0100003880000017124LUCIANA DO ESPIRITO SANTO ARAUJO   00LUCIANA DO ESPIRITO SANTO ARAUJO   LABORATORIO SILVANY STUDART        506790515464060121802200427000000000091641600000741580000403130000000000000000000000000000000000000000000000000000000000000000000000000000000000000000000000000000000000000000000710322200000000000026834388         000032601437000177J0000000000000000000000000000CONSULTOR DE VENDAS 20100719TNE100000000202004272020020719710322N0000000000
M001SOLDI PROMOTORA DE VENDAS LTDA     0100003880000017124LUCIANA DO ESPIRITO SANTO ARAUJO   00LUCIANA DO ESPIRITO SANTO ARAUJO   LABORATORIO SILVANY STUDART        506790515464060122607200427000000000179061600000741580000403130000000000000000000000000000000000000000000000000000000000000000000000000000000000000000000000000000000000000000000710322200000000000052429388         000032601437000177J0000000000000000000000000000CONSULTOR DE VENDAS 20100719TNE100000000202004272020020719710322N0000000000
M001SOLDI PROMOTORA DE VENDAS LTDA     0100003880000017124LUCIANA DO ESPIRITO SANTO ARAUJO   00LUCIANA DO ESPIRITO SANTO ARAUJO   LABORATORIO SILVANY STUDART        506790515464060117002200427000000000391581600000741580000403130000000000000000000000000000000000000000000000000000000000000000000000000000000000000000000000000000000000000000000710322200000000000114654388         000032601437000177J0000000000000000000000000000CONSULTOR DE VENDAS 20100719TNE100000000202004272020020719710322N0000000000
M001SOLDI PROMOTORA DE VENDAS LTDA     0100003880000017124LUCIANA DO ESPIRITO SANTO ARAUJO   00LUCIANA DO ESPIRITO SANTO ARAUJO   LABORATORIO SILVANY STUDART        506790515464060120004200427000000000134401600000741580000403130000000000000000000000000000000000000000000000000000000000000000000000000000000000000000000000000000000000000000000710322200000000000039352388         000032601437000177J0000000000000000000000000000CONSULTOR DE VENDAS 20100719TNE100000000202004272020020719710322N0000000000
M001SOLDI PROMOTORA DE VENDAS LTDA     0100003880000017124LUCIANA DO ESPIRITO SANTO ARAUJO   00LUCIANA DO ESPIRITO SANTO ARAUJO   LABCHECAP                          506799763814030269501200429000000000004831600000741580000732273000000000000000000000000000000000000000000000000000000000000000000000000000000000000000000000000000000000000000000710322200000000000001415388         000013503479000473J0000000000000000000000000000CONSULTOR DE VENDAS 20100719TNE100000000202004292020022819710322N0000000000
M001SOLDI PROMOTORA DE VENDAS LTDA     0100003880000017124LUCIANA DO ESPIRITO SANTO ARAUJO   00LUCIANA DO ESPIRITO SANTO ARAUJO   LABCHECAP                          506799763814030188501200429000000000002171600000741580000732273000000000000000000000000000000000000000000000000000000000000000000000000000000000000000000000000000000000000000000710322200000000000000638388         000013503479000473J0000000000000000000000000000CONSULTOR DE VENDAS 20100719TNE100000000202004292020022819710322N0000000000
M001SOLDI PROMOTORA DE VENDAS LTDA     0100003880000017124LUCIANA DO ESPIRITO SANTO ARAUJO   00LUCIANA DO ESPIRITO SANTO ARAUJO   LABCHECAP                          506799763814031628901200429000000000007851600000741580000732273000000000000000000000000000000000000000000000000000000000000000000000000000000000000000000000000000000000000000000710322200000000000002301388         000013503479000473J0000000000000000000000000000CONSULTOR DE VENDAS 20100719TNE100000000202004292020022819710322N0000000000
M001SOLDI PROMOTORA DE VENDAS LTDA     0100003880000017124LUCIANA DO ESPIRITO SANTO ARAUJO   00LUCIANA DO ESPIRITO SANTO ARAUJO   LABCHECAP                          506799763814030204001200429000000000001691600000741580000732273000000000000000000000000000000000000000000000000000000000000000000000000000000000000000000000000000000000000000000710322200000000000000496388         000013503479000473J0000000000000000000000000000CONSULTOR DE VENDAS 20100719TNE100000000202004292020022819710322N0000000000
M001SOLDI PROMOTORA DE VENDAS LTDA     0100003880000017124LUCIANA DO ESPIRITO SANTO ARAUJO   00LUCIANA DO ESPIRITO SANTO ARAUJO   LABCHECAP                          506799763814030436101200429000000000003621600000741580000732273000000000000000000000000000000000000000000000000000000000000000000000000000000000000000000000000000000000000000000710322200000000000001062388         000013503479000473J0000000000000000000000000000CONSULTOR DE VENDAS 20100719TNE100000000202004292020022819710322N0000000000
M001SOLDI PROMOTORA DE VENDAS LTDA     0100003880000017124LUCIANA DO ESPIRITO SANTO ARAUJO   00LUCIANA DO ESPIRITO SANTO ARAUJO   LABCHECAP                          506799763814030311001200429000000000001691600000741580000732273000000000000000000000000000000000000000000000000000000000000000000000000000000000000000000000000000000000000000000710322200000000000000496388         000013503479000473J0000000000000000000000000000CONSULTOR DE VENDAS 20100719TNE100000000202004292020022819710322N0000000000
M001SOLDI PROMOTORA DE VENDAS LTDA     0100003880000017124LUCIANA DO ESPIRITO SANTO ARAUJO   00LUCIANA DO ESPIRITO SANTO ARAUJO   LABCHECAP                          506799763814030308001200429000000000001211600000741580000732273000000000000000000000000000000000000000000000000000000000000000000000000000000000000000000000000000000000000000000710322200000000000000355388         000013503479000473J0000000000000000000000000000CONSULTOR DE VENDAS 20100719TNE100000000202004292020022819710322N0000000000
M001SOLDI PROMOTORA DE VENDAS LTDA     0100003880000017124LUCIANA DO ESPIRITO SANTO ARAUJO   00LUCIANA DO ESPIRITO SANTO ARAUJO   LABCHECAP                          506799763814031121001200429000000000001691600000741580000732273000000000000000000000000000000000000000000000000000000000000000000000000000000000000000000000000000000000000000000710322200000000000000496388         000013503479000473J0000000000000000000000000000CONSULTOR DE VENDAS 20100719TNE100000000202004292020022819710322N0000000000
M001SOLDI PROMOTORA DE VENDAS LTDA     0100003880000017124LUCIANA DO ESPIRITO SANTO ARAUJO   00LUCIANA DO ESPIRITO SANTO ARAUJO   LABCHECAP                          506799763814030163001200429000000000001691600000741580000732273000000000000000000000000000000000000000000000000000000000000000000000000000000000000000000000000000000000000000000710322200000000000000496388         000013503479000473J0000000000000000000000000000CONSULTOR DE VENDAS 20100719TNE100000000202004292020022819710322N0000000000
M001SOLDI PROMOTORA DE VENDAS LTDA     0100003880000017124LUCIANA DO ESPIRITO SANTO ARAUJO   00LUCIANA DO ESPIRITO SANTO ARAUJO   LABCHECAP                          506799763814031624601200429000000000012081600000741580000732273000000000000000000000000000000000000000000000000000000000000000000000000000000000000000000000000000000000000000000710322200000000000003538388         000013503479000473J0000000000000000000000000000CONSULTOR DE VENDAS 20100719TNE100000000202004292020022819710322N0000000000
M001SOLDI PROMOTORA DE VENDAS LTDA     0100003880000017124LUCIANA DO ESPIRITO SANTO ARAUJO   00LUCIANA DO ESPIRITO SANTO ARAUJO   LABCHECAP                          506799763814031649101200429000000000010261600000741580000732273000000000000000000000000000000000000000000000000000000000000000000000000000000000000000000000000000000000000000000710322200000000000003006388         000013503479000473J0000000000000000000000000000CONSULTOR DE VENDAS 20100719TNE100000000202004292020022819710322N0000000000
M001SOLDI PROMOTORA DE VENDAS LTDA     0100003880000017124LUCIANA DO ESPIRITO SANTO ARAUJO   00LUCIANA DO ESPIRITO SANTO ARAUJO   LABCHECAP                          506799763814030459001200429000000000001811600000741580000732273000000000000000000000000000000000000000000000000000000000000000000000000000000000000000000000000000000000000000000710322200000000000000531388         000013503479000473J0000000000000000000000000000CONSULTOR DE VENDAS 20100719TNE100000000202004292020022819710322N0000000000
M001SOLDI PROMOTORA DE VENDAS LTDA     0100003880000017124LUCIANA DO ESPIRITO SANTO ARAUJO   00LUCIANA DO ESPIRITO SANTO ARAUJO   LABCHECAP                          506799763814030250401200429000000000001691600000741580000732273000000000000000000000000000000000000000000000000000000000000000000000000000000000000000000000000000000000000000000710322200000000000000496388         000013503479000473J0000000000000000000000000000CONSULTOR DE VENDAS 20100719TNE100000000202004292020022819710322N0000000000
M001SOLDI PROMOTORA DE VENDAS LTDA     0100003880000017124LUCIANA DO ESPIRITO SANTO ARAUJO   00LUCIANA DO ESPIRITO SANTO ARAUJO   LABCHECAP                          506799763814030251201200429000000000001691600000741580000732273000000000000000000000000000000000000000000000000000000000000000000000000000000000000000000000000000000000000000000710322200000000000000496388         000013503479000473J0000000000000000000000000000CONSULTOR DE VENDAS 20100719TNE100000000202004292020022819710322N0000000000
M001SOLDI PROMOTORA DE VENDAS LTDA     0100003880000017124LUCIANA DO ESPIRITO SANTO ARAUJO   00LUCIANA DO ESPIRITO SANTO ARAUJO   LABCHECAP                          506799763814030254701200429000000000002411600000741580000732273000000000000000000000000000000000000000000000000000000000000000000000000000000000000000000000000000000000000000000710322200000000000000707388         000013503479000473J0000000000000000000000000000CONSULTOR DE VENDAS 20100719TNE100000000202004292020022819710322N0000000000
M001SOLDI PROMOTORA DE VENDAS LTDA     0100003880000017124LUCIANA DO ESPIRITO SANTO ARAUJO   00LUCIANA DO ESPIRITO SANTO ARAUJO   LABCHECAP                          506799763814030463901200429000000000001811600000741580000732273000000000000000000000000000000000000000000000000000000000000000000000000000000000000000000000000000000000000000000710322200000000000000531388         000013503479000473J0000000000000000000000000000CONSULTOR DE VENDAS 20100719TNE100000000202004292020022819710322N0000000000
M001SOLDI PROMOTORA DE VENDAS LTDA     0100003880000017124LUCIANA DO ESPIRITO SANTO ARAUJO   00LUCIANA DO ESPIRITO SANTO ARAUJO   LABCHECAP                          506799763814030258001200429000000000001691600000741580000732273000000000000000000000000000000000000000000000000000000000000000000000000000000000000000000000000000000000000000000710322200000000000000496388         000013503479000473J0000000000000000000000000000CONSULTOR DE VENDAS 20100719TNE100000000202004292020022819710322N0000000000
M001SOLDI PROMOTORA DE VENDAS LTDA     0100003880000017124LUCIANA DO ESPIRITO SANTO ARAUJO   00LUCIANA DO ESPIRITO SANTO ARAUJO   LABCHECAP                          506799763814030199001200429000000000002411600000741580000732273000000000000000000000000000000000000000000000000000000000000000000000000000000000000000000000000000000000000000000710322200000000000000707388         000013503479000473J0000000000000000000000000000CONSULTOR DE VENDAS 20100719TNE100000000202004292020022819710322N0000000000
M001SOLDI PROMOTORA DE VENDAS LTDA     0100003880000017124LUCIANA DO ESPIRITO SANTO ARAUJO   00LUCIANA DO ESPIRITO SANTO ARAUJO   LABCHECAP                          506799763814031652101200429000000000010261600000741580000732273000000000000000000000000000000000000000000000000000000000000000000000000000000000000000000000000000000000000000000710322200000000000003006388         000013503479000473J0000000000000000000000000000CONSULTOR DE VENDAS 20100719TNE100000000202004292020022819710322N0000000000
M001SOLDI PROMOTORA DE VENDAS LTDA     0100003880000017124LUCIANA DO ESPIRITO SANTO ARAUJO   00LUCIANA DO ESPIRITO SANTO ARAUJO   LABCHECAP                          506799763814031655601200429000000000007851600000741580000732273000000000000000000000000000000000000000000000000000000000000000000000000000000000000000000000000000000000000000000710322200000000000002301388         000013503479000473J0000000000000000000000000000CONSULTOR DE VENDAS 20100719TNE100000000202004292020022819710322N0000000000
M001SOLDI PROMOTORA DE VENDAS LTDA     0100003880000017124LUCIANA DO ESPIRITO SANTO ARAUJO   00LUCIANA DO ESPIRITO SANTO ARAUJO   LABCHECAP                          506799763814030283001200429000000000011731600000741580000732273000000000000000000000000000000000000000000000000000000000000000000000000000000000000000000000000000000000000000000710322200000000000003435388         000013503479000473J0000000000000000000000000000CONSULTOR DE VENDAS 20100719TNE100000000202004292020022819710322N0000000000
M001SOLDI PROMOTORA DE VENDAS LTDA     0100003880000017124LUCIANA DO ESPIRITO SANTO ARAUJO   00LUCIANA DO ESPIRITO SANTO ARAUJO   LABCHECAP                          506799763814030115001200429000000000001691600000741580000732273000000000000000000000000000000000000000000000000000000000000000000000000000000000000000000000000000000000000000000710322200000000000000496388         000013503479000473J0000000000000000000000000000CONSULTOR DE VENDAS 20100719TNE100000000202004292020022819710322N0000000000
M001SOLDI PROMOTORA DE VENDAS LTDA     0100003880000017124LUCIANA DO ESPIRITO SANTO ARAUJO   00LUCIANA DO ESPIRITO SANTO ARAUJO   LABCHECAP                          506799763814030139701200429000000000001811600000741580000732273000000000000000000000000000000000000000000000000000000000000000000000000000000000000000000000000000000000000000000710322200000000000000531388         000013503479000473J0000000000000000000000000000CONSULTOR DE VENDAS 20100719TNE100000000202004292020022819710322N0000000000
M001SOLDI PROMOTORA DE VENDAS LTDA     0100003880000017124LUCIANA DO ESPIRITO SANTO ARAUJO   00LUCIANA DO ESPIRITO SANTO ARAUJO   LABCHECAP                          506799763814030141901200429000000000002401600000741580000732273000000000000000000000000000000000000000000000000000000000000000000000000000000000000000000000000000000000000000000710322200000000000000705388         000013503479000473J0000000000000000000000000000CONSULTOR DE VENDAS 20100719TNE100000000202004292020022819710322N0000000000
M001SOLDI PROMOTORA DE VENDAS LTDA     0100003880000017124LUCIANA DO ESPIRITO SANTO ARAUJO   00LUCIANA DO ESPIRITO SANTO ARAUJO   LABCHECAP                          506799763814030160501200429000000000001691600000741580000732273000000000000000000000000000000000000000000000000000000000000000000000000000000000000000000000000000000000000000000710322200000000000000496388         000013503479000473J0000000000000000000000000000CONSULTOR DE VENDAS 20100719TNE100000000202004292020022819710322N0000000000
M001SOLDI PROMOTORA DE VENDAS LTDA     0100003880000017124LUCIANA DO ESPIRITO SANTO ARAUJO   00LUCIANA DO ESPIRITO SANTO ARAUJO   LABCHECAP                          506799763814030159101200429000000000003621600000741580000732273000000000000000000000000000000000000000000000000000000000000000000000000000000000000000000000000000000000000000000710322200000000000001062388         000013503479000473J0000000000000000000000000000CONSULTOR DE VENDAS 20100719TNE100000000202004292020022819710322N0000000000
M001SOLDI PROMOTORA DE VENDAS LTDA     0100003880000017124LUCIANA DO ESPIRITO SANTO ARAUJO   00LUCIANA DO ESPIRITO SANTO ARAUJO   LABCHECAP                          506799763814030158301200429000000000003021600000741580000732273000000000000000000000000000000000000000000000000000000000000000000000000000000000000000000000000000000000000000000710322200000000000000886388         000013503479000473J0000000000000000000000000000CONSULTOR DE VENDAS 20100719TNE100000000202004292020022819710322N0000000000
M001SOLDI PROMOTORA DE VENDAS LTDA     0100003880000017124LUCIANA DO ESPIRITO SANTO ARAUJO   00LUCIANA DO ESPIRITO SANTO ARAUJO   CLION                              100174149781010101200200430000000000034151600000741580000104027000000000000000000000000000000000000000000000000000000000000000000000000000000000000000000000000000000000000000000710322200000000000010000388         000013501218000171J0000000000000000000000000000CONSULTOR DE VENDAS 20100719TNE100000000202004302020040119710322N0000000000
M001SOLDI PROMOTORA DE VENDAS LTDA     0100004000000017132JACIRA SOFIA DOS SANTOS            01LUCAS SANTANA DOS SANTOS           SERMECA SERV MED DO CABULA         606792880944010103701200415000000000029841600000741580000208922000000000000000000000000000000000000000000000000000000000000000000000000000000000000000000000000000000000000000000960717120000000000008737400         010014712350000195J0000000000000000000000000000AUXILIAR DE SERVICOS20100722TNE100000000202004152020012319960717N0000000000
M001SOLDI PROMOTORA DE VENDAS LTDA     0100004000000017132JACIRA SOFIA DOS SANTOS            01LUCAS SANTANA DOS SANTOS           SERMECA SERV MED DO CABULA         506792880594010101001200415000000000007091600000741580000208922000000000000000000000000000000000000000000000000000000000000000000000000000000000000000000000000000000000000000000960717120000000000002076400         010014712350000195J0000000000000000000000000000AUXILIAR DE SERVICOS20100722TNE100000000202004152020012119960717N0000000000
M001SOLDI PROMOTORA DE VENDAS LTDA     0100004000000017132JACIRA SOFIA DOS SANTOS            02ERICA SANTANA DOS SANTOS           HOSPITAL SAO RAFAEL                206804836718400040601200420000000000134480000000741580000447811000000000000000000000000000000000000000000000000000000000000000000000000000000000000000000000000000000000000000000001117120000000000039375400         020027372066000169J0000000000000000000000000000AUXILIAR DE SERVICOS20100722TNE100000000202004202020022920001117N0000000000
M001SOLDI PROMOTORA DE VENDAS LTDA     0100004180000180010DANIELLE BARBOSA DUARTE            00DANIELLE BARBOSA DUARTE            ONCOMED                            100174168381010101200200430000000000034151600000741580000231223000000000000000000000000000000000000000000000000000000000000000000000000000000000000000000000000000000000000000000830513200000000000010000418         000000132229000180J0000000000000000000000000000CONSULTOR DE VENDAS 20111020TNE100000000202004302020041519830513N0000000000
M001SOLDI PROMOTORA DE VENDAS LTDA     0100004340000018110MARIA LUCIA DA SILVA               00MARIA LUCIA DA SILVA               S O S TRAUMA                       506805279974080209401200422000000000023071600000741580000016202000000000000000000000000000000000000000000000000000000000000000000000000000000000000000000000000000000000000000000760306200000000000006756434         000012193083000161J0000000000000000000000000000CONSULTOR DE VENDAS 20101122TNE100000000202004222020020119760306N0000000000
M001SOLDI PROMOTORA DE VENDAS LTDA     0100004340000018110MARIA LUCIA DA SILVA               00MARIA LUCIA DA SILVA               S O S TRAUMA                       506805279974080401101200422000000000010721600000741580000016202000000000000000000000000000000000000000000000000000000000000000000000000000000000000000000000000000000000000000000760306200000000000003139434         000012193083000161J0000000000000000000000000000CONSULTOR DE VENDAS 20101122TNE100000000202004222020020119760306N0000000000
M001SOLDI PROMOTORA DE VENDAS LTDA     0100004340000018110MARIA LUCIA DA SILVA               01BERNARDO COELHO LIMA               LABORATORIO ARAUJO                 506803952814030258001200423000000000001691600000741580000578371000000000000000000000000000000000000000000000000000000000000000000000000000000000000000000000000000000000000000000680211110000000000000496434         010004053538000115J0000000000000000000000000000CONSULTOR DE VENDAS 20101122TNE100000000202004232020020519680211N0000000000
M001SOLDI PROMOTORA DE VENDAS LTDA     0100004340000018110MARIA LUCIA DA SILVA               01BERNARDO COELHO LIMA               LABORATORIO ARAUJO                 506803952814030436101200423000000000003621600000741580000578371000000000000000000000000000000000000000000000000000000000000000000000000000000000000000000000000000000000000000000680211110000000000001062434         010004053538000115J0000000000000000000000000000CONSULTOR DE VENDAS 20101122TNE100000000202004232020020519680211N0000000000
M001SOLDI PROMOTORA DE VENDAS LTDA     0100004340000018110MARIA LUCIA DA SILVA               01BERNARDO COELHO LIMA               LABORATORIO ARAUJO                 506803952814030163001200423000000000001691600000741580000578371000000000000000000000000000000000000000000000000000000000000000000000000000000000000000000000000000000000000000000680211110000000000000496434         010004053538000115J0000000000000000000000000000CONSULTOR DE VENDAS 20101122TNE100000000202004232020020519680211N0000000000
M001SOLDI PROMOTORA DE VENDAS LTDA     0100004340000018110MARIA LUCIA DA SILVA               01BERNARDO COELHO LIMA               LABORATORIO ARAUJO                 506803952814030207501200423000000000005431600000741580000578371000000000000000000000000000000000000000000000000000000000000000000000000000000000000000000000000000000000000000000680211110000000000001591434         010004053538000115J0000000000000000000000000000CONSULTOR DE VENDAS 20101122TNE100000000202004232020020519680211N0000000000
M001SOLDI PROMOTORA DE VENDAS LTDA     0100004340000018110MARIA LUCIA DA SILVA               01BERNARDO COELHO LIMA               LABORATORIO ARAUJO                 506803952814030275001200423000000000008451600000741580000578371000000000000000000000000000000000000000000000000000000000000000000000000000000000000000000000000000000000000000000680211110000000000002475434         010004053538000115J0000000000000000000000000000CONSULTOR DE VENDAS 20101122TNE100000000202004232020020519680211N0000000000
M001SOLDI PROMOTORA DE VENDAS LTDA     0100004340000018110MARIA LUCIA DA SILVA               00MARIA LUCIA DA SILVA               LABORATORIO ARAUJO                 506803952734030163001200423000000000001691600000741580000578371000000000000000000000000000000000000000000000000000000000000000000000000000000000000000000000000000000000000000000760306200000000000000496434         000004053538000115J0000000000000000000000000000CONSULTOR DE VENDAS 20101122TNE100000000202004232020013119760306N0000000000
M001SOLDI PROMOTORA DE VENDAS LTDA     0100004340000018110MARIA LUCIA DA SILVA               00MARIA LUCIA DA SILVA               LABORATORIO ARAUJO                 506803952734030250401200423000000000001691600000741580000578371000000000000000000000000000000000000000000000000000000000000000000000000000000000000000000000000000000000000000000760306200000000000000496434         000004053538000115J0000000000000000000000000000CONSULTOR DE VENDAS 20101122TNE100000000202004232020013119760306N0000000000
M001SOLDI PROMOTORA DE VENDAS LTDA     0100004340000018110MARIA LUCIA DA SILVA               00MARIA LUCIA DA SILVA               LABORATORIO ARAUJO                 506803952734030701801200423000000000008451600000741580000578371000000000000000000000000000000000000000000000000000000000000000000000000000000000000000000000000000000000000000000760306200000000000002475434         000004053538000115J0000000000000000000000000000CONSULTOR DE VENDAS 20101122TNE100000000202004232020013119760306N0000000000
M001SOLDI PROMOTORA DE VENDAS LTDA     0100004340000018110MARIA LUCIA DA SILVA               00MARIA LUCIA DA SILVA               LABORATORIO ARAUJO                 506803952734030702601200423000000000018121600000741580000578371000000000000000000000000000000000000000000000000000000000000000000000000000000000000000000000000000000000000000000760306200000000000005308434         000004053538000115J0000000000000000000000000000CONSULTOR DE VENDAS 20101122TNE100000000202004232020013119760306N0000000000
M001SOLDI PROMOTORA DE VENDAS LTDA     0100004340000018110MARIA LUCIA DA SILVA               01BERNARDO COELHO LIMA               LABORATORIO ARAUJO                 506803952814030115001200423000000000001691600000741580000578371000000000000000000000000000000000000000000000000000000000000000000000000000000000000000000000000000000000000000000680211110000000000000496434         010004053538000115J0000000000000000000000000000CONSULTOR DE VENDAS 20101122TNE100000000202004232020020519680211N0000000000
M001SOLDI PROMOTORA DE VENDAS LTDA     0100004340000018110MARIA LUCIA DA SILVA               01BERNARDO COELHO LIMA               LABORATORIO ARAUJO                 506803952784031613001200423000000000021741600000741580000578371000000000000000000000000000000000000000000000000000000000000000000000000000000000000000000000000000000000000000000680211110000000000006368434         010004053538000115J0000000000000000000000000000CONSULTOR DE VENDAS 20101122TNE100000000202004232020020419680211N0000000000
M001SOLDI PROMOTORA DE VENDAS LTDA     0100004340000018110MARIA LUCIA DA SILVA               01BERNARDO COELHO LIMA               LABORATORIO ARAUJO                 506803952784031121001200423000000000001691600000741580000578371000000000000000000000000000000000000000000000000000000000000000000000000000000000000000000000000000000000000000000680211110000000000000496434         010004053538000115J0000000000000000000000000000CONSULTOR DE VENDAS 20101122TNE100000000202004232020020419680211N0000000000
M001SOLDI PROMOTORA DE VENDAS LTDA     0100004340000018110MARIA LUCIA DA SILVA               01BERNARDO COELHO LIMA               LABORATORIO ARAUJO                 506803952814030250401200423000000000001691600000741580000578371000000000000000000000000000000000000000000000000000000000000000000000000000000000000000000000000000000000000000000680211110000000000000496434         010004053538000115J0000000000000000000000000000CONSULTOR DE VENDAS 20101122TNE100000000202004232020020519680211N0000000000
M001SOLDI PROMOTORA DE VENDAS LTDA     0100004340000018110MARIA LUCIA DA SILVA               01BERNARDO COELHO LIMA               LABORATORIO ARAUJO                 506803952814030251201200423000000000001691600000741580000578371000000000000000000000000000000000000000000000000000000000000000000000000000000000000000000000000000000000000000000680211110000000000000496434         010004053538000115J0000000000000000000000000000CONSULTOR DE VENDAS 20101122TNE100000000202004232020020519680211N0000000000
M001SOLDI PROMOTORA DE VENDAS LTDA     0100004340000018110MARIA LUCIA DA SILVA               00MARIA LUCIA DA SILVA               LABORATORIO ARAUJO                 506803952734030275001200423000000000008451600000741580000578371000000000000000000000000000000000000000000000000000000000000000000000000000000000000000000000000000000000000000000760306200000000000002475434         000004053538000115J0000000000000000000000000000CONSULTOR DE VENDAS 20101122TNE100000000202004232020013119760306N0000000000
M001SOLDI PROMOTORA DE VENDAS LTDA     0100004340000018110MARIA LUCIA DA SILVA               00MARIA LUCIA DA SILVA               LABORATORIO ARAUJO                 506803952734031121001200423000000000001691600000741580000578371000000000000000000000000000000000000000000000000000000000000000000000000000000000000000000000000000000000000000000760306200000000000000496434         000004053538000115J0000000000000000000000000000CONSULTOR DE VENDAS 20101122TNE100000000202004232020013119760306N0000000000
M001SOLDI PROMOTORA DE VENDAS LTDA     0100004340000018110MARIA LUCIA DA SILVA               00MARIA LUCIA DA SILVA               LABORATORIO ARAUJO                 506803952734030776001200423000000000001211600000741580000578371000000000000000000000000000000000000000000000000000000000000000000000000000000000000000000000000000000000000000000760306200000000000000355434         000004053538000115J0000000000000000000000000000CONSULTOR DE VENDAS 20101122TNE100000000202004232020013119760306N0000000000
M001SOLDI PROMOTORA DE VENDAS LTDA     0100004340000018110MARIA LUCIA DA SILVA               01BERNARDO COELHO LIMA               LABORATORIO ARAUJO                 506803952814031121001200423000000000001691600000741580000578371000000000000000000000000000000000000000000000000000000000000000000000000000000000000000000000000000000000000000000680211110000000000000496434         010004053538000115J0000000000000000000000000000CONSULTOR DE VENDAS 20101122TNE100000000202004232020020519680211N0000000000
M001SOLDI PROMOTORA DE VENDAS LTDA     0100004340000018110MARIA LUCIA DA SILVA               00MARIA LUCIA DA SILVA               LABORATORIO ARAUJO                 506803952734030436101200423000000000003621600000741580000578371000000000000000000000000000000000000000000000000000000000000000000000000000000000000000000000000000000000000000000760306200000000000001062434         000004053538000115J0000000000000000000000000000CONSULTOR DE VENDAS 20101122TNE100000000202004232020013119760306N0000000000
M001SOLDI PROMOTORA DE VENDAS LTDA     0100004340000018110MARIA LUCIA DA SILVA               00MARIA LUCIA DA SILVA               LABORATORIO ARAUJO                 506803952734030204001200423000000000001691600000741580000578371000000000000000000000000000000000000000000000000000000000000000000000000000000000000000000000000000000000000000000760306200000000000000496434         000004053538000115J0000000000000000000000000000CONSULTOR DE VENDAS 20101122TNE100000000202004232020013119760306N0000000000
M001SOLDI PROMOTORA DE VENDAS LTDA     0100004340000018110MARIA LUCIA DA SILVA               00MARIA LUCIA DA SILVA               LABORATORIO ARAUJO                 506803952734030258001200423000000000001691600000741580000578371000000000000000000000000000000000000000000000000000000000000000000000000000000000000000000000000000000000000000000760306200000000000000496434         000004053538000115J0000000000000000000000000000CONSULTOR DE VENDAS 20101122TNE100000000202004232020013119760306N0000000000
M001SOLDI PROMOTORA DE VENDAS LTDA     0100004340000018110MARIA LUCIA DA SILVA               00MARIA LUCIA DA SILVA               LABORATORIO ARAUJO                 506803952734030251201200423000000000001691600000741580000578371000000000000000000000000000000000000000000000000000000000000000000000000000000000000000000000000000000000000000000760306200000000000000496434         000004053538000115J0000000000000000000000000000CONSULTOR DE VENDAS 20101122TNE100000000202004232020013119760306N0000000000
M001SOLDI PROMOTORA DE VENDAS LTDA     0100004340000018110MARIA LUCIA DA SILVA               00MARIA LUCIA DA SILVA               LABORATORIO ARAUJO                 506803952734031652101200423000000000010261600000741580000578371000000000000000000000000000000000000000000000000000000000000000000000000000000000000000000000000000000000000000000760306200000000000003006434         000004053538000115J0000000000000000000000000000CONSULTOR DE VENDAS 20101122TNE100000000202004232020013119760306N0000000000
M001SOLDI PROMOTORA DE VENDAS LTDA     0100004340000018110MARIA LUCIA DA SILVA               01BERNARDO COELHO LIMA               LABORATORIO ARAUJO                 506803952814030242301200423000000000001691600000741580000578371000000000000000000000000000000000000000000000000000000000000000000000000000000000000000000000000000000000000000000680211110000000000000496434         010004053538000115J0000000000000000000000000000CONSULTOR DE VENDAS 20101122TNE100000000202004232020020519680211N0000000000
M001SOLDI PROMOTORA DE VENDAS LTDA     0100004340000018110MARIA LUCIA DA SILVA               01BERNARDO COELHO LIMA               LABORATORIO ARAUJO                 506803952814030204001200423000000000001691600000741580000578371000000000000000000000000000000000000000000000000000000000000000000000000000000000000000000000000000000000000000000680211110000000000000496434         010004053538000115J0000000000000000000000000000CONSULTOR DE VENDAS 20101122TNE100000000202004232020020519680211N0000000000
M001SOLDI PROMOTORA DE VENDAS LTDA     0100004340000018110MARIA LUCIA DA SILVA               01BERNARDO COELHO LIMA               LABORATORIO ARAUJO                 506803952814030231801200423000000000001691600000741580000578371000000000000000000000000000000000000000000000000000000000000000000000000000000000000000000000000000000000000000000680211110000000000000496434         010004053538000115J0000000000000000000000000000CONSULTOR DE VENDAS 20101122TNE100000000202004232020020519680211N0000000000
M001SOLDI PROMOTORA DE VENDAS LTDA     0100004340000018110MARIA LUCIA DA SILVA               01BERNARDO COELHO LIMA               CLINICA JOAO SILVA FILHO           606807729464010103701200423000000000030731600000741580000173002000000000000000000000000000000000000000000000000000000000000000000000000000000000000000000000000000000000000000000680211110000000000008998434         010008708092000170J0000000000000000000000000000CONSULTOR DE VENDAS 20101122TNE100000000202004232020020719680211N0000000000
M001SOLDI PROMOTORA DE VENDAS LTDA     0100004340000018110MARIA LUCIA DA SILVA               00MARIA LUCIA DA SILVA               LABORATORIO ARAUJO                 506803952734031649101200423000000000010261600000741580000578371000000000000000000000000000000000000000000000000000000000000000000000000000000000000000000000000000000000000000000760306200000000000003006434         000004053538000115J0000000000000000000000000000CONSULTOR DE VENDAS 20101122TNE100000000202004232020013119760306N0000000000
M001SOLDI PROMOTORA DE VENDAS LTDA     0100004340000018110MARIA LUCIA DA SILVA               00MARIA LUCIA DA SILVA               LABORATORIO ARAUJO                 506803952734030115001200423000000000001691600000741580000578371000000000000000000000000000000000000000000000000000000000000000000000000000000000000000000000000000000000000000000760306200000000000000496434         000004053538000115J0000000000000000000000000000CONSULTOR DE VENDAS 20101122TNE100000000202004232020013119760306N0000000000
M001SOLDI PROMOTORA DE VENDAS LTDA     0100004340000018110MARIA LUCIA DA SILVA               00MARIA LUCIA DA SILVA               LABORATORIO ARAUJO                 506803952734030718201200423000000000018121600000741580000578371000000000000000000000000000000000000000000000000000000000000000000000000000000000000000000000000000000000000000000760306200000000000005308434         000004053538000115J0000000000000000000000000000CONSULTOR DE VENDAS 20101122TNE100000000202004232020013119760306N0000000000
M001SOLDI PROMOTORA DE VENDAS LTDA     0100004340000018110MARIA LUCIA DA SILVA               01BERNARDO COELHO LIMA               LABORATORIO ARAUJO                 506803952784031614901200423000000000018121600000741580000578371000000000000000000000000000000000000000000000000000000000000000000000000000000000000000000000000000000000000000000680211110000000000005308434         010004053538000115J0000000000000000000000000000CONSULTOR DE VENDAS 20101122TNE100000000202004232020020419680211N0000000000
M001SOLDI PROMOTORA DE VENDAS LTDA     0100004340000018110MARIA LUCIA DA SILVA               01BERNARDO COELHO LIMA               CLINICA JOAO SILVA FILHO           506808388354090117301200423000000000015491600000741580000855472000000000000000000000000000000000000000000000000000000000000000000000000000000000000000000000000000000000000000000680211110000000000004536434         010008708092000170J0000000000000000000000000000CONSULTOR DE VENDAS 20101122TNE100000000202004232020020419680211N0000000000
M001SOLDI PROMOTORA DE VENDAS LTDA     0100005070008800211GLAUBER LARANJEIRA DO NASCIMENTO   03ARTHUR FERREIRA NASCIMENTO         GLAUBER LARANJEIRA DO NASCIMENTO   200032843025000061609200417000000000430341600000741580000000000000000000000000000000000000000000000000000000000000000000000000000000000000000000000000000000000000000000000000000170819129900000000126000507         030000000000000000 0000000000000000000000000000SUPERVISOR DE VENDAS20111002TNE100000000202004172020030320170819N0000126000
M001SOLDI PROMOTORA DE VENDAS LTDA     0100005070008800211GLAUBER LARANJEIRA DO NASCIMENTO   01AMELIA FATIMA FERREIRA NASCIMENTO  LAB ANAL MED M DE ALMEIDA          506801955694030436101200422000000000003521600000741580000127973000000000000000000000000000000000000000000000000000000000000000000000000000000000000000000000000000000000000000000881003210000000000001031507         010024100554000129J0000000000000000000000000000SUPERVISOR DE VENDAS20111002TNE100000000202004222020012319881003N0000000000
