HSINISTROS PAGOS074158210121012901000000001000000000000000000000000000000000000000000000000000000000000000000000000000000000000000000000000000000000000000000000000000000000000000000000000000000000000000000000000000000000000000000000000000000000000000000000000000000000000000000000000000000000000000000000000000000000000000000000000000000000000000000000000000000000000000000000000000000000000 012021012021012900000000000000000000000000000000000000000000000000000000000000000000000000000000000000000000
M001SOLDI PROMOTORA DE VENDAS LTDA     0100001320000118002JOSE LEITE RIBEIRO TAVARES         03ILANA DE MEDEIROS TAVARES LEITE    HOSPITAL PORTUGUES                 206665149838400329401210104000000000084440000000741580000399702000000000000000000000000000000000000000000000000000000000000000000000000000000000000000000000000000000000000000000100615220000000000024725132         030010892164000205J0000000000000000000000000000GERENTE COMERCIAL I 20080218TNQ200000000202101042019091220100615N0000000000
M001SOLDI PROMOTORA DE VENDAS LTDA     0100001320000118002JOSE LEITE RIBEIRO TAVARES         02MATEUS DE MEDEIROS TAVARES LEITE   HOSPITAL PORTUGUES                 206665149808400329401210104000000000084440000000741580000399702000000000000000000000000000000000000000000000000000000000000000000000000000000000000000000000000000000000000000000080324120000000000024725132         020010892164000205J0000000000000000000000000000GERENTE COMERCIAL I 20080218TNQ200000000202101042019091220080324N0000000000
M001SOLDI PROMOTORA DE VENDAS LTDA     0100001320000118002JOSE LEITE RIBEIRO TAVARES         00JOSE LEITE RIBEIRO TAVARES         HOSPITAL PORTUGUES                 106760208111010103901210104000000000034151600000741580000399702000000000000000000000000000000000000000000000000000000000000000000000000000000000000000000000000000000000000000000710927100000000000010000132         000010892164000205J0000000000000000000000000000GERENTE COMERCIAL I 20080218TNQ200000000202101042019121619710927N0000000000
M001SOLDI PROMOTORA DE VENDAS LTDA     0100001320000118002JOSE LEITE RIBEIRO TAVARES         03ILANA DE MEDEIROS TAVARES LEITE    HOSPITAL PORTUGUES                 206649339448400329401210104000000000084440000000741580000399702000000000000000000000000000000000000000000000000000000000000000000000000000000000000000000000000000000000000000000100615220000000000024725132         030010892164000205J0000000000000000000000000000GERENTE COMERCIAL I 20080218TNQ200000000202101042019082120100615N0000000000
M001SOLDI PROMOTORA DE VENDAS LTDA     0100001320000118002JOSE LEITE RIBEIRO TAVARES         01LUCIDIA DE MEDEIROS TAVARES        HOPE                               106964337301010101201210106000000000035521600000741580000369195000000000000000000000000000000000000000000000000000000000000000000000000000000000000000000000000000000000000000000710811210000000000010400132         010009464629000248J0000000000000000000000000000GERENTE COMERCIAL I 20080218TNQ200000000202101062020112319710811N0000000000
M001SOLDI PROMOTORA DE VENDAS LTDA     0100001320000118002JOSE LEITE RIBEIRO TAVARES         01LUCIDIA DE MEDEIROS TAVARES        LABORAT MARCELO MAGALHAES          506964346814030159101210106000000000002901600000741580000369233000000000000000000000000000000000000000000000000000000000000000000000000000000000000000000000000000000000000000000710811210000000000000851132         010011696937000160J0000000000000000000000000000GERENTE COMERCIAL I 20080218TNQ200000000202101062020112119710811N0000000000
M001SOLDI PROMOTORA DE VENDAS LTDA     0100001320000118002JOSE LEITE RIBEIRO TAVARES         01LUCIDIA DE MEDEIROS TAVARES        LABORAT MARCELO MAGALHAES          506964346814031121001210106000000000001351600000741580000369233000000000000000000000000000000000000000000000000000000000000000000000000000000000000000000000000000000000000000000710811210000000000000397132         010011696937000160J0000000000000000000000000000GERENTE COMERCIAL I 20080218TNQ200000000202101062020112119710811N0000000000
M001SOLDI PROMOTORA DE VENDAS LTDA     0100001320000118002JOSE LEITE RIBEIRO TAVARES         01LUCIDIA DE MEDEIROS TAVARES        LABORAT MARCELO MAGALHAES          506964346814031652101210106000000000008221600000741580000369233000000000000000000000000000000000000000000000000000000000000000000000000000000000000000000000000000000000000000000710811210000000000002409132         010011696937000160J0000000000000000000000000000GERENTE COMERCIAL I 20080218TNQ200000000202101062020112119710811N0000000000
M001SOLDI PROMOTORA DE VENDAS LTDA     0100001320000118002JOSE LEITE RIBEIRO TAVARES         01LUCIDIA DE MEDEIROS TAVARES        LABORAT MARCELO MAGALHAES          506964346814030188501210106000000000001741600000741580000369233000000000000000000000000000000000000000000000000000000000000000000000000000000000000000000000000000000000000000000710811210000000000000511132         010011696937000160J0000000000000000000000000000GERENTE COMERCIAL I 20080218TNQ200000000202101062020112119710811N0000000000
M001SOLDI PROMOTORA DE VENDAS LTDA     0100001320000118002JOSE LEITE RIBEIRO TAVARES         01LUCIDIA DE MEDEIROS TAVARES        LABORAT MARCELO MAGALHAES          506964346814031649101210106000000000008221600000741580000369233000000000000000000000000000000000000000000000000000000000000000000000000000000000000000000000000000000000000000000710811210000000000002409132         010011696937000160J0000000000000000000000000000GERENTE COMERCIAL I 20080218TNQ200000000202101062020112119710811N0000000000
M001SOLDI PROMOTORA DE VENDAS LTDA     0100001320000118002JOSE LEITE RIBEIRO TAVARES         01LUCIDIA DE MEDEIROS TAVARES        LABORAT MARCELO MAGALHAES          506964346814030727101210106000000000003871600000741580000369233000000000000000000000000000000000000000000000000000000000000000000000000000000000000000000000000000000000000000000710811210000000000001135132         010011696937000160J0000000000000000000000000000GERENTE COMERCIAL I 20080218TNQ200000000202101062020112119710811N0000000000
M001SOLDI PROMOTORA DE VENDAS LTDA     0100001320000118002JOSE LEITE RIBEIRO TAVARES         01LUCIDIA DE MEDEIROS TAVARES        HOPE                               506964337304130132301210106000000000004201600000741580000369195000000000000000000000000000000000000000000000000000000000000000000000000000000000000000000000000000000000000000000710811210000000000001231132         010009464629000248J0000000000000000000000000000GERENTE COMERCIAL I 20080218TNQ200000000202101062020112319710811N0000000000
M001SOLDI PROMOTORA DE VENDAS LTDA     0100001320000118002JOSE LEITE RIBEIRO TAVARES         01LUCIDIA DE MEDEIROS TAVARES        HOPE                               506964337844130124201210106000000000015161600000741580000369195000000000000000000000000000000000000000000000000000000000000000000000000000000000000000000000000000000000000000000710811210000000000004440132         010009464629000248J0000000000000000000000000000GERENTE COMERCIAL I 20080218TNQ200000000202101062020112319710811N0000000000
M001SOLDI PROMOTORA DE VENDAS LTDA     0100001320000118002JOSE LEITE RIBEIRO TAVARES         01LUCIDIA DE MEDEIROS TAVARES        LABORAT MARCELO MAGALHAES          506964346814030269501210106000000000003871600000741580000369233000000000000000000000000000000000000000000000000000000000000000000000000000000000000000000000000000000000000000000710811210000000000001135132         010011696937000160J0000000000000000000000000000GERENTE COMERCIAL I 20080218TNQ200000000202101062020112119710811N0000000000
M001SOLDI PROMOTORA DE VENDAS LTDA     0100001320000118002JOSE LEITE RIBEIRO TAVARES         01LUCIDIA DE MEDEIROS TAVARES        LABORAT MARCELO MAGALHAES          506964346814030258001210106000000000001351600000741580000369233000000000000000000000000000000000000000000000000000000000000000000000000000000000000000000000000000000000000000000710811210000000000000397132         010011696937000160J0000000000000000000000000000GERENTE COMERCIAL I 20080218TNQ200000000202101062020112119710811N0000000000
M001SOLDI PROMOTORA DE VENDAS LTDA     0100001320000118002JOSE LEITE RIBEIRO TAVARES         01LUCIDIA DE MEDEIROS TAVARES        LABORAT MARCELO MAGALHAES          506964346814030163001210106000000000001351600000741580000369233000000000000000000000000000000000000000000000000000000000000000000000000000000000000000000000000000000000000000000710811210000000000000397132         010011696937000160J0000000000000000000000000000GERENTE COMERCIAL I 20080218TNQ200000000202101062020112119710811N0000000000
M001SOLDI PROMOTORA DE VENDAS LTDA     0100001320000118002JOSE LEITE RIBEIRO TAVARES         01LUCIDIA DE MEDEIROS TAVARES        LABORAT MARCELO MAGALHAES          506964346814030242301210106000000000001351600000741580000369233000000000000000000000000000000000000000000000000000000000000000000000000000000000000000000000000000000000000000000710811210000000000000397132         010011696937000160J0000000000000000000000000000GERENTE COMERCIAL I 20080218TNQ200000000202101062020112119710811N0000000000
M001SOLDI PROMOTORA DE VENDAS LTDA     0100001320000118002JOSE LEITE RIBEIRO TAVARES         01LUCIDIA DE MEDEIROS TAVARES        LABORAT MARCELO MAGALHAES          506964346814030436101210106000000000002901600000741580000369233000000000000000000000000000000000000000000000000000000000000000000000000000000000000000000000000000000000000000000710811210000000000000851132         010011696937000160J0000000000000000000000000000GERENTE COMERCIAL I 20080218TNQ200000000202101062020112119710811N0000000000
M001SOLDI PROMOTORA DE VENDAS LTDA     0100001320000118002JOSE LEITE RIBEIRO TAVARES         01LUCIDIA DE MEDEIROS TAVARES        LABORAT MARCELO MAGALHAES          506964346814030231801210106000000000001351600000741580000369233000000000000000000000000000000000000000000000000000000000000000000000000000000000000000000000000000000000000000000710811210000000000000397132         010011696937000160J0000000000000000000000000000GERENTE COMERCIAL I 20080218TNQ200000000202101062020112119710811N0000000000
M001SOLDI PROMOTORA DE VENDAS LTDA     0100001320000118002JOSE LEITE RIBEIRO TAVARES         01LUCIDIA DE MEDEIROS TAVARES        LABORAT MARCELO MAGALHAES          506964346814030223701210106000000000001541600000741580000369233000000000000000000000000000000000000000000000000000000000000000000000000000000000000000000000000000000000000000000710811210000000000000453132         010011696937000160J0000000000000000000000000000GERENTE COMERCIAL I 20080218TNQ200000000202101062020112119710811N0000000000
M001SOLDI PROMOTORA DE VENDAS LTDA     0100001320000118002JOSE LEITE RIBEIRO TAVARES         01LUCIDIA DE MEDEIROS TAVARES        LABORAT MARCELO MAGALHAES          506964346814030155901210106000000000001351600000741580000369233000000000000000000000000000000000000000000000000000000000000000000000000000000000000000000000000000000000000000000710811210000000000000397132         010011696937000160J0000000000000000000000000000GERENTE COMERCIAL I 20080218TNQ200000000202101062020112119710811N0000000000
M001SOLDI PROMOTORA DE VENDAS LTDA     0100001320000118002JOSE LEITE RIBEIRO TAVARES         01LUCIDIA DE MEDEIROS TAVARES        LABORAT MARCELO MAGALHAES          506964346814030193101210106000000000001351600000741580000369233000000000000000000000000000000000000000000000000000000000000000000000000000000000000000000000000000000000000000000710811210000000000000397132         010011696937000160J0000000000000000000000000000GERENTE COMERCIAL I 20080218TNQ200000000202101062020112119710811N0000000000
M001SOLDI PROMOTORA DE VENDAS LTDA     0100001320000118002JOSE LEITE RIBEIRO TAVARES         01LUCIDIA DE MEDEIROS TAVARES        LABORAT MARCELO MAGALHAES          506964346814030140001210106000000000001351600000741580000369233000000000000000000000000000000000000000000000000000000000000000000000000000000000000000000000000000000000000000000710811210000000000000397132         010011696937000160J0000000000000000000000000000GERENTE COMERCIAL I 20080218TNQ200000000202101062020112119710811N0000000000
M001SOLDI PROMOTORA DE VENDAS LTDA     0100001320000118002JOSE LEITE RIBEIRO TAVARES         01LUCIDIA DE MEDEIROS TAVARES        LABORAT MARCELO MAGALHAES          506964346814030254701210106000000000001931600000741580000369233000000000000000000000000000000000000000000000000000000000000000000000000000000000000000000000000000000000000000000710811210000000000000567132         010011696937000160J0000000000000000000000000000GERENTE COMERCIAL I 20080218TNQ200000000202101062020112119710811N0000000000
M001SOLDI PROMOTORA DE VENDAS LTDA     0100001320000118002JOSE LEITE RIBEIRO TAVARES         01LUCIDIA DE MEDEIROS TAVARES        LABORAT MARCELO MAGALHAES          506964346814030204001210106000000000001351600000741580000369233000000000000000000000000000000000000000000000000000000000000000000000000000000000000000000000000000000000000000000710811210000000000000397132         010011696937000160J0000000000000000000000000000GERENTE COMERCIAL I 20080218TNQ200000000202101062020112119710811N0000000000
M001SOLDI PROMOTORA DE VENDAS LTDA     0100001320000118002JOSE LEITE RIBEIRO TAVARES         01LUCIDIA DE MEDEIROS TAVARES        LABORAT MARCELO MAGALHAES          506964346814030122201210106000000000000961600000741580000369233000000000000000000000000000000000000000000000000000000000000000000000000000000000000000000000000000000000000000000710811210000000000000284132         010011696937000160J0000000000000000000000000000GERENTE COMERCIAL I 20080218TNQ200000000202101062020112119710811N0000000000
M001SOLDI PROMOTORA DE VENDAS LTDA     0100001320000118002JOSE LEITE RIBEIRO TAVARES         01LUCIDIA DE MEDEIROS TAVARES        LABORAT MARCELO MAGALHAES          506964346814030459001210106000000000001451600000741580000369233000000000000000000000000000000000000000000000000000000000000000000000000000000000000000000000000000000000000000000710811210000000000000426132         010011696937000160J0000000000000000000000000000GERENTE COMERCIAL I 20080218TNQ200000000202101062020112119710811N0000000000
M001SOLDI PROMOTORA DE VENDAS LTDA     0100001320000118002JOSE LEITE RIBEIRO TAVARES         01LUCIDIA DE MEDEIROS TAVARES        LABORAT MARCELO MAGALHAES          506964346814030139701210106000000000001451600000741580000369233000000000000000000000000000000000000000000000000000000000000000000000000000000000000000000000000000000000000000000710811210000000000000426132         010011696937000160J0000000000000000000000000000GERENTE COMERCIAL I 20080218TNQ200000000202101062020112119710811N0000000000
M001SOLDI PROMOTORA DE VENDAS LTDA     0100001320000118002JOSE LEITE RIBEIRO TAVARES         01LUCIDIA DE MEDEIROS TAVARES        LABORAT MARCELO MAGALHAES          506964346814030250401210106000000000001351600000741580000369233000000000000000000000000000000000000000000000000000000000000000000000000000000000000000000000000000000000000000000710811210000000000000397132         010011696937000160J0000000000000000000000000000GERENTE COMERCIAL I 20080218TNQ200000000202101062020112119710811N0000000000
M001SOLDI PROMOTORA DE VENDAS LTDA     0100001320000118002JOSE LEITE RIBEIRO TAVARES         01LUCIDIA DE MEDEIROS TAVARES        LABORAT MARCELO MAGALHAES          506964346814030251201210106000000000001351600000741580000369233000000000000000000000000000000000000000000000000000000000000000000000000000000000000000000000000000000000000000000710811210000000000000397132         010011696937000160J0000000000000000000000000000GERENTE COMERCIAL I 20080218TNQ200000000202101062020112119710811N0000000000
M001SOLDI PROMOTORA DE VENDAS LTDA     0100001320000118002JOSE LEITE RIBEIRO TAVARES         01LUCIDIA DE MEDEIROS TAVARES        LABORAT MARCELO MAGALHAES          506964346814030160501210106000000000001351600000741580000369233000000000000000000000000000000000000000000000000000000000000000000000000000000000000000000000000000000000000000000710811210000000000000397132         010011696937000160J0000000000000000000000000000GERENTE COMERCIAL I 20080218TNQ200000000202101062020112119710811N0000000000
M001SOLDI PROMOTORA DE VENDAS LTDA     0100001320000118002JOSE LEITE RIBEIRO TAVARES         01LUCIDIA DE MEDEIROS TAVARES        LABORAT MARCELO MAGALHAES          506964346814030158301210106000000000002421600000741580000369233000000000000000000000000000000000000000000000000000000000000000000000000000000000000000000000000000000000000000000710811210000000000000710132         010011696937000160J0000000000000000000000000000GERENTE COMERCIAL I 20080218TNQ200000000202101062020112119710811N0000000000
M001SOLDI PROMOTORA DE VENDAS LTDA     0100001320000118002JOSE LEITE RIBEIRO TAVARES         01LUCIDIA DE MEDEIROS TAVARES        LABORAT MARCELO MAGALHAES          506964346814030207501210106000000000004351600000741580000369233000000000000000000000000000000000000000000000000000000000000000000000000000000000000000000000000000000000000000000710811210000000000001275132         010011696937000160J0000000000000000000000000000GERENTE COMERCIAL I 20080218TNQ200000000202101062020112119710811N0000000000
M001SOLDI PROMOTORA DE VENDAS LTDA     0100001320000118002JOSE LEITE RIBEIRO TAVARES         01LUCIDIA DE MEDEIROS TAVARES        LABORAT MARCELO MAGALHAES          506964346814031636001210106000000000005331600000741580000369233000000000000000000000000000000000000000000000000000000000000000000000000000000000000000000000000000000000000000000710811210000000000001561132         010011696937000160J0000000000000000000000000000GERENTE COMERCIAL I 20080218TNQ200000000202101062020112119710811N0000000000
M001SOLDI PROMOTORA DE VENDAS LTDA     0100001320000118002JOSE LEITE RIBEIRO TAVARES         01LUCIDIA DE MEDEIROS TAVARES        LABORAT MARCELO MAGALHAES          506964346814030128101210106000000000001351600000741580000369233000000000000000000000000000000000000000000000000000000000000000000000000000000000000000000000000000000000000000000710811210000000000000397132         010011696937000160J0000000000000000000000000000GERENTE COMERCIAL I 20080218TNQ200000000202101062020112119710811N0000000000
M001SOLDI PROMOTORA DE VENDAS LTDA     0100001320000118002JOSE LEITE RIBEIRO TAVARES         01LUCIDIA DE MEDEIROS TAVARES        LABORAT MARCELO MAGALHAES          506964346814030219901210106000000000001441600000741580000369233000000000000000000000000000000000000000000000000000000000000000000000000000000000000000000000000000000000000000000710811210000000000000423132         010011696937000160J0000000000000000000000000000GERENTE COMERCIAL I 20080218TNQ200000000202101062020112119710811N0000000000
M001SOLDI PROMOTORA DE VENDAS LTDA     0100001320000118002JOSE LEITE RIBEIRO TAVARES         01LUCIDIA DE MEDEIROS TAVARES        LABORAT MARCELO MAGALHAES          506964346814030199001210106000000000001931600000741580000369233000000000000000000000000000000000000000000000000000000000000000000000000000000000000000000000000000000000000000000710811210000000000000567132         010011696937000160J0000000000000000000000000000GERENTE COMERCIAL I 20080218TNQ200000000202101062020112119710811N0000000000
M001SOLDI PROMOTORA DE VENDAS LTDA     0100001320000118002JOSE LEITE RIBEIRO TAVARES         01LUCIDIA DE MEDEIROS TAVARES        LABORAT MARCELO MAGALHAES          506964346814030115001210106000000000001351600000741580000369233000000000000000000000000000000000000000000000000000000000000000000000000000000000000000000000000000000000000000000710811210000000000000397132         010011696937000160J0000000000000000000000000000GERENTE COMERCIAL I 20080218TNQ200000000202101062020112119710811N0000000000
M001SOLDI PROMOTORA DE VENDAS LTDA     0100001320000118002JOSE LEITE RIBEIRO TAVARES         01LUCIDIA DE MEDEIROS TAVARES        CENTRO DE DIAG J ROCHA DE SA       506981546244010507501210125000000000029041600000741580000369373000000000000000000000000000000000000000000000000000000000000000000000000000000000000000000000000000000000000000000710811210000000000008503132         010003007832000128J0000000000000000000000000000GERENTE COMERCIAL I 20080218TNQ200000000202101252020120119710811N0000000000
M001SOLDI PROMOTORA DE VENDAS LTDA     0100001320000118002JOSE LEITE RIBEIRO TAVARES         01LUCIDIA DE MEDEIROS TAVARES        HOSPITAL DE OLHOS DO RECIFE        106975361351010101201210126000000000035521600000741580000855995000000000000000000000000000000000000000000000000000000000000000000000000000000000000000000000000000000000000000000710811210000000000010400132         010040881302000130J0000000000000000000000000000GERENTE COMERCIAL I 20080218TNQ200000000202101262020112719710811N0000000000
M001SOLDI PROMOTORA DE VENDAS LTDA     0100001320000118002JOSE LEITE RIBEIRO TAVARES         01LUCIDIA DE MEDEIROS TAVARES        HOSPITAL DE OLHOS DO RECIFE        506975361354130132301210126000000000004201600000741580000855995000000000000000000000000000000000000000000000000000000000000000000000000000000000000000000000000000000000000000000710811210000000000001231132         010040881302000130J0000000000000000000000000000GERENTE COMERCIAL I 20080218TNQ200000000202101262020112719710811N0000000000
M001SOLDI PROMOTORA DE VENDAS LTDA     0100001590000118023THALITA MENDES DE ALMEIDA LIMA     00THALITA MENDES DE ALMEIDA LIMA     HOSPITAL DAS NEVES                 206961853368400040601210112000000000112700000000741580000432911000000000000000000000000000000000000000000000000000000000000000000000000000000000000000000000000000000000000000000891208200000000000033000159         000001817749000199J0000000000000000000000000000CONSULTOR DE VENDAS 20110110TNE100000000202101122020111019891208N0000000000
M001SOLDI PROMOTORA DE VENDAS LTDA     0100001590000118023THALITA MENDES DE ALMEIDA LIMA     00THALITA MENDES DE ALMEIDA LIMA     SECICOL                            206976470993130302101210119000000000024051600000741580000484130000000000000000000000000000000000000000000000000000000000000000000000000000000000000000000000000000000000000000000891208200000000000007044159         000009139189000172J0000000000000000000000000000CONSULTOR DE VENDAS 20110110TNE100000000202101192020112619891208N0000000000
M001SOLDI PROMOTORA DE VENDAS LTDA     0100001830000119012MARINALVA DE FREITAS COSTA         02BRYAN DE FREITAS SOUSA             CEPECE                             206968730138400014701210108000000000087430000000741580000279811010000000000000000000000000000000000000000000000000000000000000000000000000000000000000000000000000000000000000000190208120000000000025600183         020063386213000113J0000000000000000000000000000SUPERVISOR DE VENDAS20090720TNE100000000202101082020110420190208N0000000000
M001SOLDI PROMOTORA DE VENDAS LTDA     0100001830000119012MARINALVA DE FREITAS COSTA         02BRYAN DE FREITAS SOUSA             CEPECE                             206968730298400014701210108000000000087430000000741580000279811010000000000000000000000000000000000000000000000000000000000000000000000000000000000000000000000000000000000000000190208120000000000025600183         020063386213000113J0000000000000000000000000000SUPERVISOR DE VENDAS20090720TNE100000000202101082020111220190208N0000000000
M001SOLDI PROMOTORA DE VENDAS LTDA     0100001830000119012MARINALVA DE FREITAS COSTA         02BRYAN DE FREITAS SOUSA             CEPECE                             206968730088400014701210108000000000087430000000741580000279811000000000000000000000000000000000000000000000000000000000000000000000000000000000000000000000000000000000000000000190208120000000000025600183         020063386213000113J0000000000000000000000000000SUPERVISOR DE VENDAS20090720TNE100000000202101082020110120190208N0000000000
M001SOLDI PROMOTORA DE VENDAS LTDA     0100001830000119012MARINALVA DE FREITAS COSTA         02BRYAN DE FREITAS SOUSA             CEPECE                             206968730118400014701210108000000000087430000000741580000279811000000000000000000000000000000000000000000000000000000000000000000000000000000000000000000000000000000000000000000190208120000000000025600183         020063386213000113J0000000000000000000000000000SUPERVISOR DE VENDAS20090720TNE100000000202101082020110320190208N0000000000
M001SOLDI PROMOTORA DE VENDAS LTDA     0100001830000119012MARINALVA DE FREITAS COSTA         02BRYAN DE FREITAS SOUSA             CEPECE                             3   F5N83B80000000100210114000000001156540000000741580000279811000000000006506000000000000000000000000183360000000000000000000000000000000000000322580000000000000000000000000000190208120000000000338627183         020063386213000113J0000000000000000000000000000SUPERVISOR DE VENDAS20090720TNE100000000202101142020110420190208N0000000000
M001SOLDI PROMOTORA DE VENDAS LTDA     0100002050000120018ANDREZA SANTOS HUMSI RAYES         00ANDREZA SANTOS HUMSI RAYES         ORTOTRAUMA                         101574844491010101200210121000000000035521600000741580000814822000000000000000000000000000000000000000000000000000000000000000000000000000000000000000000000000000000000000000000761030200000000000010400205         000037527256000161J0000000000000000000000000000CONSULTOR DE VENDAS 20100809TNE100000000202101212021011219761030N0000000000
M001SOLDI PROMOTORA DE VENDAS LTDA     0100002640000013086ANTONIA DE SOUSA GOMES FEIJAO      00ANTONIA DE SOUSA GOMES FEIJAO      MONALIZA GOMES DE CARVALHO         191552574801010101200210114000000000035521600000741580038034000000000000000000000000000000000000000000000000000000000000000000000000000000000000000000000000000000000000000000000601013203800000000010400264         000000072921889749F0000000000000000000000000000AUXILIAR DE SERVICOS20100503TNE100000000202101142020122119601013N0000000000
M001SOLDI PROMOTORA DE VENDAS LTDA     0100002640000013086ANTONIA DE SOUSA GOMES FEIJAO      01ANTONIO EGBERTO FEIJAO             HOSPITAL DE OLHOS NITEROI          206961109943401999501210118000000000000020000000741580000133612000000000000000000000000000000000000000000000000000000000000000000000000000000000000000000000000000000000000000000550607110000000000000008264         010039256128000156J0000000000000000000000000000AUXILIAR DE SERVICOS20100503TNE100000000202101182020111719550607N0000000000
M001SOLDI PROMOTORA DE VENDAS LTDA     0100002640000013086ANTONIA DE SOUSA GOMES FEIJAO      01ANTONIO EGBERTO FEIJAO             HOSPITAL DE OLHOS NITEROI          206961109943031204302210118000000000162101600000741580000133612000000000000000000000000000000000000000000000000000000000000000000000000000000000000000000000000000000000000000000550607110000000000047464264         010039256128000156J0000000000000000000000000000AUXILIAR DE SERVICOS20100503TNE100000000202101182020111719550607N0000000000
M001SOLDI PROMOTORA DE VENDAS LTDA     0100002640000013086ANTONIA DE SOUSA GOMES FEIJAO      01ANTONIO EGBERTO FEIJAO             HOSPITAL DE OLHOS NITEROI          206961109943401999201210118000000000003170000000741580000133612000000000000000000000000000000000000000000000000000000000000000000000000000000000000000000000000000000000000000000550607110000000000000930264         010039256128000156J0000000000000000000000000000AUXILIAR DE SERVICOS20100503TNE100000000202101182020111719550607N0000000000
M001SOLDI PROMOTORA DE VENDAS LTDA     0100002800000013097SAMUEL DE FRANCA PESSOA JUNIOR     02EMANUELLE RODRIGUES PESSOA         JOSE ROBERTO FERNANDES             100199644001010101200210118000000000034151600000741580031205900000000000000000000000000000000000000000000000000000000000000000000000000000000000000000000000000000000000000000000141216223100000000010000280         020000030350603715F0000000000000000000000000000CONSULTOR DE VENDAS 20110317TNE100000000202101182020122220141216N0000000000
M001SOLDI PROMOTORA DE VENDAS LTDA     0100003020000133127ANA PAULA RODRIGUES BRAGA RAMALHO  01MATEUS LEVI RAMALHO DE OLIVEIRA    UPDATE                             206962543973401999101210119000000000024240000000741580000882127000000000000000000000000000000000000000000000000000000000000000000000000000000000000000000000000000000000000000000160410120000000000007100302         010002766875000124J0000000000000000000000000000CONSULTOR DE VENDAS 20100601TNE100000000202101192020103120160410N0000000000
M001SOLDI PROMOTORA DE VENDAS LTDA     0100003020000133127ANA PAULA RODRIGUES BRAGA RAMALHO  01MATEUS LEVI RAMALHO DE OLIVEIRA    UPDATE                             206962543973401999201210119000000000024450000000741580000882127000000000000000000000000000000000000000000000000000000000000000000000000000000000000000000000000000000000000000000160410120000000000007159302         010002766875000124J0000000000000000000000000000CONSULTOR DE VENDAS 20100601TNE100000000202101192020103120160410N0000000000
M001SOLDI PROMOTORA DE VENDAS LTDA     0100003020000133127ANA PAULA RODRIGUES BRAGA RAMALHO  01MATEUS LEVI RAMALHO DE OLIVEIRA    UPDATE                             206962543973401999501210119000000000002190000000741580000882127000000000000000000000000000000000000000000000000000000000000000000000000000000000000000000000000000000000000000000160410120000000000000642302         010002766875000124J0000000000000000000000000000CONSULTOR DE VENDAS 20100601TNE100000000202101192020103120160410N0000000000
M001SOLDI PROMOTORA DE VENDAS LTDA     0100003020000133127ANA PAULA RODRIGUES BRAGA RAMALHO  01MATEUS LEVI RAMALHO DE OLIVEIRA    UPDATE                             206962543973010146803210119000000000051261600000741580000882127000000000000000000000000000000000000000000000000000000000000000000000000000000000000000000000000000000000000000000160410120000000000015009302         010002766875000124J0000000000000000000000000000CONSULTOR DE VENDAS 20100601TNE100000000202101192020103120160410N0000000000
M001SOLDI PROMOTORA DE VENDAS LTDA     0100003020000133127ANA PAULA RODRIGUES BRAGA RAMALHO  01MATEUS LEVI RAMALHO DE OLIVEIRA    UPDATE                             206962543973010146801210119000000000034171600000741580000882127000000000000000000000000000000000000000000000000000000000000000000000000000000000000000000000000000000000000000000160410120000000000010006302         010002766875000124J0000000000000000000000000000CONSULTOR DE VENDAS 20100601TNE100000000202101192020103120160410N0000000000
M001SOLDI PROMOTORA DE VENDAS LTDA     0100003020000133127ANA PAULA RODRIGUES BRAGA RAMALHO  01MATEUS LEVI RAMALHO DE OLIVEIRA    COOPANEST RN                       206976231593010146801210127000000000155741600000741580000194002000000000000000000000000000000000000000000000000000000000000000000000000000000000000000000000000000000000000000000160410120000000000045602302         010070141940000186J0000000000000000000000000000CONSULTOR DE VENDAS 20100601TNE100000000202101272020103120160410N0000000000
M001SOLDI PROMOTORA DE VENDAS LTDA     0100003020000133127ANA PAULA RODRIGUES BRAGA RAMALHO  01MATEUS LEVI RAMALHO DE OLIVEIRA    COOPANEST RN                       206976231593010146803210127000000000233621600000741580000194002000000000000000000000000000000000000000000000000000000000000000000000000000000000000000000000000000000000000000000160410120000000000068403302         010070141940000186J0000000000000000000000000000CONSULTOR DE VENDAS 20100601TNE100000000202101272020103120160410N0000000000
M001SOLDI PROMOTORA DE VENDAS LTDA     0100003100000133146MARIA BETANIA SILVA DA TRINDADE    00MARIA BETANIA SILVA DA TRINDADE    SANTACOOP - MCZ                    100200266901010101200210126000000000038361600000741580000666327000000000000000000000000000000000000000000000000000000000000000000000000000000000000000000000000000000000000000000770921200000000000011233310         000001707112000140J0000000000000000000000000000CONSULTOR DE VENDAS 20110601TNE100000000202101262021011419770921N0000000000
M001SOLDI PROMOTORA DE VENDAS LTDA     0100003100000133146MARIA BETANIA SILVA DA TRINDADE    01MURILO GABRIEL TRINDADE TENORIO    SANTACOOP - MCZ                    191202122891010101200210126000000000038361600000741580000666327000000000000000000000000000000000000000000000000000000000000000000000000000000000000000000000000000000000000000000120518120000000000011233310         010001707112000140J0000000000000000000000000000CONSULTOR DE VENDAS 20110601TNE100000000202101262021011420120518N0000000000
M001SOLDI PROMOTORA DE VENDAS LTDA     0100003290000133158CARLA C GUILHERME SILVA MARQUES    02LIVIA MARINA GUILHERME MARQUES     HUMANUS                            206957384425000046201210106000000000015311600000741580000271002000000000000000000000000000000000000000000000000000000000000000000000000000000000000000000000000000000000000000000140221220000000000004485329         020010234997000106J0000000000000000000000000000CONSULTOR DE VENDAS 20110701TNE100000000202101062020101420140221N0000000000
M001SOLDI PROMOTORA DE VENDAS LTDA     0100003290000133158CARLA C GUILHERME SILVA MARQUES    00CARLA C GUILHERME SILVA MARQUES    FISIOTERAVIDA                      206958438963160101401210106000000000017541600000741580000878693000000000000000000000000000000000000000000000000000000000000000000000000000000000000000000000000000000000000000000860103200000000000005136329         000005246196000112J0000000000000000000000000000CONSULTOR DE VENDAS 20110701TNE100000000202101062020100819860103N0000000000
M001SOLDI PROMOTORA DE VENDAS LTDA     0100003290000133158CARLA C GUILHERME SILVA MARQUES    03LAVINIA ISABELE GUILHERME MARQUES  HUMANUS                            206957384415000047001210106000000000013941600000741580000271002000000000000000000000000000000000000000000000000000000000000000000000000000000000000000000000000000000000000000000140221220000000000004083329         030010234997000106J0000000000000000000000000000CONSULTOR DE VENDAS 20110701TNE100000000202101062020101420140221N0000000000
M001SOLDI PROMOTORA DE VENDAS LTDA     0100003290000133158CARLA C GUILHERME SILVA MARQUES    03LAVINIA ISABELE GUILHERME MARQUES  HUMANUS                            206957384415000047001210106000000000013941600000741580000271002000000000000000000000000000000000000000000000000000000000000000000000000000000000000000000000000000000000000000000140221220000000000004083329         030010234997000106J0000000000000000000000000000CONSULTOR DE VENDAS 20110701TNE100000000202101062020101420140221N0000000000
M001SOLDI PROMOTORA DE VENDAS LTDA     0100003290000133158CARLA C GUILHERME SILVA MARQUES    03LAVINIA ISABELE GUILHERME MARQUES  HUMANUS                            206957384415000047001210106000000000013941600000741580000271002000000000000000000000000000000000000000000000000000000000000000000000000000000000000000000000000000000000000000000140221220000000000004083329         030010234997000106J0000000000000000000000000000CONSULTOR DE VENDAS 20110701TNE100000000202101062020101420140221N0000000000
M001SOLDI PROMOTORA DE VENDAS LTDA     0100003290000133158CARLA C GUILHERME SILVA MARQUES    03LAVINIA ISABELE GUILHERME MARQUES  HUMANUS                            206957384415000047001210106000000000013941600000741580000271002000000000000000000000000000000000000000000000000000000000000000000000000000000000000000000000000000000000000000000140221220000000000004083329         030010234997000106J0000000000000000000000000000CONSULTOR DE VENDAS 20110701TNE100000000202101062020101420140221N0000000000
M001SOLDI PROMOTORA DE VENDAS LTDA     0100003290000133158CARLA C GUILHERME SILVA MARQUES    00CARLA C GUILHERME SILVA MARQUES    FISIOTERAVIDA                      206958438963160101401210106000000000017541600000741580000878693000000000000000000000000000000000000000000000000000000000000000000000000000000000000000000000000000000000000000000860103200000000000005136329         000005246196000112J0000000000000000000000000000CONSULTOR DE VENDAS 20110701TNE100000000202101062020100819860103N0000000000
M001SOLDI PROMOTORA DE VENDAS LTDA     0100003290000133158CARLA C GUILHERME SILVA MARQUES    00CARLA C GUILHERME SILVA MARQUES    FISIOTERAVIDA                      206958438963160101401210106000000000017541600000741580000878693000000000000000000000000000000000000000000000000000000000000000000000000000000000000000000000000000000000000000000860103200000000000005136329         000005246196000112J0000000000000000000000000000CONSULTOR DE VENDAS 20110701TNE100000000202101062020100819860103N0000000000
M001SOLDI PROMOTORA DE VENDAS LTDA     0100003290000133158CARLA C GUILHERME SILVA MARQUES    02LIVIA MARINA GUILHERME MARQUES     HUMANUS                            206957384425000047001210106000000000013941600000741580000271002000000000000000000000000000000000000000000000000000000000000000000000000000000000000000000000000000000000000000000140221220000000000004083329         020010234997000106J0000000000000000000000000000CONSULTOR DE VENDAS 20110701TNE100000000202101062020101420140221N0000000000
M001SOLDI PROMOTORA DE VENDAS LTDA     0100003290000133158CARLA C GUILHERME SILVA MARQUES    02LIVIA MARINA GUILHERME MARQUES     HUMANUS                            206957384425000047001210106000000000013941600000741580000271002000000000000000000000000000000000000000000000000000000000000000000000000000000000000000000000000000000000000000000140221220000000000004083329         020010234997000106J0000000000000000000000000000CONSULTOR DE VENDAS 20110701TNE100000000202101062020101420140221N0000000000
M001SOLDI PROMOTORA DE VENDAS LTDA     0100003290000133158CARLA C GUILHERME SILVA MARQUES    02LIVIA MARINA GUILHERME MARQUES     HUMANUS                            206957384425000047001210106000000000013941600000741580000271002000000000000000000000000000000000000000000000000000000000000000000000000000000000000000000000000000000000000000000140221220000000000004083329         020010234997000106J0000000000000000000000000000CONSULTOR DE VENDAS 20110701TNE100000000202101062020101420140221N0000000000
M001SOLDI PROMOTORA DE VENDAS LTDA     0100003290000133158CARLA C GUILHERME SILVA MARQUES    02LIVIA MARINA GUILHERME MARQUES     HUMANUS                            206957384425000047001210106000000000013941600000741580000271002000000000000000000000000000000000000000000000000000000000000000000000000000000000000000000000000000000000000000000140221220000000000004083329         020010234997000106J0000000000000000000000000000CONSULTOR DE VENDAS 20110701TNE100000000202101062020101420140221N0000000000
M001SOLDI PROMOTORA DE VENDAS LTDA     0100003290000133158CARLA C GUILHERME SILVA MARQUES    00CARLA C GUILHERME SILVA MARQUES    FISIOTERAVIDA                      206958438963160101401210106000000000017541600000741580000878693000000000000000000000000000000000000000000000000000000000000000000000000000000000000000000000000000000000000000000860103200000000000005136329         000005246196000112J0000000000000000000000000000CONSULTOR DE VENDAS 20110701TNE100000000202101062020100819860103N0000000000
M001SOLDI PROMOTORA DE VENDAS LTDA     0100003290000133158CARLA C GUILHERME SILVA MARQUES    00CARLA C GUILHERME SILVA MARQUES    FISIOTERAVIDA                      206958438963160101401210106000000000017541600000741580000878693000000000000000000000000000000000000000000000000000000000000000000000000000000000000000000000000000000000000000000860103200000000000005136329         000005246196000112J0000000000000000000000000000CONSULTOR DE VENDAS 20110701TNE100000000202101062020100819860103N0000000000
M001SOLDI PROMOTORA DE VENDAS LTDA     0100003290000133158CARLA C GUILHERME SILVA MARQUES    00CARLA C GUILHERME SILVA MARQUES    FISIOTERAVIDA                      206958438963160101401210106000000000017541600000741580000878693000000000000000000000000000000000000000000000000000000000000000000000000000000000000000000000000000000000000000000860103200000000000005136329         000005246196000112J0000000000000000000000000000CONSULTOR DE VENDAS 20110701TNE100000000202101062020100819860103N0000000000
M001SOLDI PROMOTORA DE VENDAS LTDA     0100003290000133158CARLA C GUILHERME SILVA MARQUES    00CARLA C GUILHERME SILVA MARQUES    FISIOTERAVIDA                      206958438963160101401210106000000000017541600000741580000878693000000000000000000000000000000000000000000000000000000000000000000000000000000000000000000000000000000000000000000860103200000000000005136329         000005246196000112J0000000000000000000000000000CONSULTOR DE VENDAS 20110701TNE100000000202101062020100819860103N0000000000
M001SOLDI PROMOTORA DE VENDAS LTDA     0100003290000133158CARLA C GUILHERME SILVA MARQUES    00CARLA C GUILHERME SILVA MARQUES    FISIOTERAVIDA                      206958438963160101401210106000000000017541600000741580000878693000000000000000000000000000000000000000000000000000000000000000000000000000000000000000000000000000000000000000000860103200000000000005136329         000005246196000112J0000000000000000000000000000CONSULTOR DE VENDAS 20110701TNE100000000202101062020100819860103N0000000000
M001SOLDI PROMOTORA DE VENDAS LTDA     0100003290000133158CARLA C GUILHERME SILVA MARQUES    00CARLA C GUILHERME SILVA MARQUES    FISIOTERAVIDA                      206958438963160101401210106000000000017541600000741580000878693000000000000000000000000000000000000000000000000000000000000000000000000000000000000000000000000000000000000000000860103200000000000005136329         000005246196000112J0000000000000000000000000000CONSULTOR DE VENDAS 20110701TNE100000000202101062020100819860103N0000000000
M001SOLDI PROMOTORA DE VENDAS LTDA     0100003290000133158CARLA C GUILHERME SILVA MARQUES    00CARLA C GUILHERME SILVA MARQUES    FISIOTERAVIDA                      206958438963160101401210106000000000017541600000741580000878693000000000000000000000000000000000000000000000000000000000000000000000000000000000000000000000000000000000000000000860103200000000000005136329         000005246196000112J0000000000000000000000000000CONSULTOR DE VENDAS 20110701TNE100000000202101062020100819860103N0000000000
M001SOLDI PROMOTORA DE VENDAS LTDA     0100003290000133158CARLA C GUILHERME SILVA MARQUES    03LAVINIA ISABELE GUILHERME MARQUES  HUMANUS                            206957384415000046201210106000000000015311600000741580000271002000000000000000000000000000000000000000000000000000000000000000000000000000000000000000000000000000000000000000000140221220000000000004485329         030010234997000106J0000000000000000000000000000CONSULTOR DE VENDAS 20110701TNE100000000202101062020101420140221N0000000000
M001SOLDI PROMOTORA DE VENDAS LTDA     0100003290000133158CARLA C GUILHERME SILVA MARQUES    00CARLA C GUILHERME SILVA MARQUES    FISIOTERAVIDA                      206963242185000047001210112000000000014501600000741580000878693000000000000000000000000000000000000000000000000000000000000000000000000000000000000000000000000000000000000000000860103200000000000004246329         000005246196000112J0000000000000000000000000000CONSULTOR DE VENDAS 20110701TNE100000000202101122020111219860103N0000000000
M001SOLDI PROMOTORA DE VENDAS LTDA     0100003290000133158CARLA C GUILHERME SILVA MARQUES    00CARLA C GUILHERME SILVA MARQUES    FISIOTERAVIDA                      206963242185000047001210112000000000014501600000741580000878693000000000000000000000000000000000000000000000000000000000000000000000000000000000000000000000000000000000000000000860103200000000000004246329         000005246196000112J0000000000000000000000000000CONSULTOR DE VENDAS 20110701TNE100000000202101122020111219860103N0000000000
M001SOLDI PROMOTORA DE VENDAS LTDA     0100003290000133158CARLA C GUILHERME SILVA MARQUES    00CARLA C GUILHERME SILVA MARQUES    FISIOTERAVIDA                      206963242185000047001210112000000000014501600000741580000878693000000000000000000000000000000000000000000000000000000000000000000000000000000000000000000000000000000000000000000860103200000000000004246329         000005246196000112J0000000000000000000000000000CONSULTOR DE VENDAS 20110701TNE100000000202101122020111219860103N0000000000
M001SOLDI PROMOTORA DE VENDAS LTDA     0100003290000133158CARLA C GUILHERME SILVA MARQUES    00CARLA C GUILHERME SILVA MARQUES    FISIOTERAVIDA                      206963242185000047001210112000000000014501600000741580000878693000000000000000000000000000000000000000000000000000000000000000000000000000000000000000000000000000000000000000000860103200000000000004246329         000005246196000112J0000000000000000000000000000CONSULTOR DE VENDAS 20110701TNE100000000202101122020111219860103N0000000000
M001SOLDI PROMOTORA DE VENDAS LTDA     0100003290000133158CARLA C GUILHERME SILVA MARQUES    01JOSE WELLINGTON MARQUES            FISIOTERAVIDA                      206972775232010348401210112000000000003781600000741580000604348000000000000000000000000000000000000000000000000000000000000000000000000000000000000000000000000000000000000000000770116110000000000001108329         010005246196000112J0000000000000000000000000000CONSULTOR DE VENDAS 20110701TNE100000000202101122020110619770116N0000000000
M001SOLDI PROMOTORA DE VENDAS LTDA     0100003290000133158CARLA C GUILHERME SILVA MARQUES    00CARLA C GUILHERME SILVA MARQUES    FISIOTERAVIDA                      206963242185000047001210112000000000014501600000741580000878693000000000000000000000000000000000000000000000000000000000000000000000000000000000000000000000000000000000000000000860103200000000000004246329         000005246196000112J0000000000000000000000000000CONSULTOR DE VENDAS 20110701TNE100000000202101122020111219860103N0000000000
M001SOLDI PROMOTORA DE VENDAS LTDA     0100003290000133158CARLA C GUILHERME SILVA MARQUES    00CARLA C GUILHERME SILVA MARQUES    STA CASA DE MIS DE MACEIO          506979821924031632701210122000000000007851600000741580000100633000000000000000000000000000000000000000000000000000000000000000000000000000000000000000000000000000000000000000000860103200000000000002301329         000012307187000150J0000000000000000000000000000CONSULTOR DE VENDAS 20110701TNE100000000202101222020111319860103N0000000000
M001SOLDI PROMOTORA DE VENDAS LTDA     0100003530000014055REGINA HELENA NERY BEZERRA         01HELENA PATRICIA NERY DOS SANTOS    EDNA REGINA CLINICA MEDICA         191087008461010101200210106000000000035521600000741580000331002000000000000000000000000000000000000000000000000000000000000000000000000000000000000000000000000000000000000000000000331220000000000010400353         010020076084000154J0000000000000000000000000000CONSULTOR DE VENDAS 20100804TNE100000000202101062020120720000331N0000000000
M001SOLDI PROMOTORA DE VENDAS LTDA     0100003530000014055REGINA HELENA NERY BEZERRA         01HELENA PATRICIA NERY DOS SANTOS    COOPANEST PE                       4   F5J94N03130905400210111000000000667711600000741580000147923000000000000000000000000000000000000000000000000000000000000000000000000000000000000000000000000000000000000000000000331220000000000195500353         010011187085000185J0000000000000000000000000000CONSULTOR DE VENDAS 20100804TNE100000000202101112020102920000331N0000000000
M001SOLDI PROMOTORA DE VENDAS LTDA     0100003530000014055REGINA HELENA NERY BEZERRA         01HELENA PATRICIA NERY DOS SANTOS    EDNA REGINA CLINICA MEDICA         101087008471010101200210128000000000035521600000741580000331002000000000000000000000000000000000000000000000000000000000000000000000000000000000000000000000000000000000000000000000331220000000000010400353         010020076084000154J0000000000000000000000000000CONSULTOR DE VENDAS 20100804TNE100000000202101282021010820000331N0000000000
M001SOLDI PROMOTORA DE VENDAS LTDA     0100003610000017005EDVANE PEREIRA DE OLIVEIRA         00EDVANE PEREIRA DE OLIVEIRA         HOSPITAL SANTA IZABEL              206968154888400251401210120000000000128070000000741580000059811000000000000000000000000000000000000000000000000000000000000000000000000000000000000000000000000000000000000000000801011200000000000037500361         000015153745000249J0000000000000000000000000000SUPERVISOR DE VENDAS20060701TNQ200000000202101202020111619801011N0000000000
M001SOLDI PROMOTORA DE VENDAS LTDA     0100003700000017098CAROLINE MOREIRA CHAMUSCA          00CAROLINE MOREIRA CHAMUSCA          IMAGE MEMORIAL ITAIGARA            506962039868433017101210112000000000045380000000741580000587478000000000000000000000000000000000000000000000000000000000000000000000000000000000000000000000000000000000000000000880307200000000000013288370         000061486650025682J0000000000000000000000000000ASSISTENTE COMERCIAL20090923TNQ200000000202101122020102919880307N0000000000
M001SOLDI PROMOTORA DE VENDAS LTDA     0100003700000017098CAROLINE MOREIRA CHAMUSCA          00CAROLINE MOREIRA CHAMUSCA          SANLAZZARO MEDICINA AVANCADA       206971850263401999501210122000000000001770000000741580000330396000000000000000000000000000000000000000000000000000000000000000000000000000000000000000000000000000000000000000000880307200000000000000519370         000073734709000194J0000000000000000000000000000ASSISTENTE COMERCIAL20090923TNQ200000000202101222020112419880307N0000000000
M001SOLDI PROMOTORA DE VENDAS LTDA     0100003700000017098CAROLINE MOREIRA CHAMUSCA          00CAROLINE MOREIRA CHAMUSCA          SANLAZZARO MEDICINA AVANCADA       206971850263010149201210122000000000045971600000741580000330396000000000000000000000000000000000000000000000000000000000000000000000000000000000000000000000000000000000000000000880307200000000000013461370         000073734709000194J0000000000000000000000000000ASSISTENTE COMERCIAL20090923TNQ200000000202101222020112419880307N0000000000
M001SOLDI PROMOTORA DE VENDAS LTDA     0100003700000017098CAROLINE MOREIRA CHAMUSCA          00CAROLINE MOREIRA CHAMUSCA          SANLAZZARO MEDICINA AVANCADA       206971850263010129802210122000000000036051600000741580000330396000000000000000000000000000000000000000000000000000000000000000000000000000000000000000000000000000000000000000000880307200000000000010556370         000073734709000194J0000000000000000000000000000ASSISTENTE COMERCIAL20090923TNQ200000000202101222020112419880307N0000000000
M001SOLDI PROMOTORA DE VENDAS LTDA     0100003700000017098CAROLINE MOREIRA CHAMUSCA          00CAROLINE MOREIRA CHAMUSCA          SANLAZZARO MEDICINA AVANCADA       206971850263401999201210122000000000006900000000741580000330396000000000000000000000000000000000000000000000000000000000000000000000000000000000000000000000000000000000000000000880307200000000000002023370         000073734709000194J0000000000000000000000000000ASSISTENTE COMERCIAL20090923TNQ200000000202101222020112419880307N0000000000
M001SOLDI PROMOTORA DE VENDAS LTDA     0100003880000017124LUCIANA DO ESPIRITO SANTO ARAUJO   00LUCIANA DO ESPIRITO SANTO ARAUJO   CLION                              206959734283401999201210111000000000172750000000741580000599646000000000000000000000000000000000000000000000000000000000000000000000000000000000000000000000000000000000000000000710322200000000000050580388         000013501218000171J0000000000000000000000000000CONSULTOR DE VENDAS 20100719TNE100000000202101112020111019710322N0000000000
M001SOLDI PROMOTORA DE VENDAS LTDA     0100003880000017124LUCIANA DO ESPIRITO SANTO ARAUJO   00LUCIANA DO ESPIRITO SANTO ARAUJO   CLION                              206980763283401999201210122000000000172750000000741580000599646000000000000000000000000000000000000000000000000000000000000000000000000000000000000000000000000000000000000000000710322200000000000050580388         000013501218000171J0000000000000000000000000000CONSULTOR DE VENDAS 20100719TNE100000000202101222020121019710322N0000000000
M001SOLDI PROMOTORA DE VENDAS LTDA     0100003880000017124LUCIANA DO ESPIRITO SANTO ARAUJO   00LUCIANA DO ESPIRITO SANTO ARAUJO   CLION                              100200295001010101200210126000000000035521600000741580000104027000000000000000000000000000000000000000000000000000000000000000000000000000000000000000000000000000000000000000000710322200000000000010400388         000013501218000171J0000000000000000000000000000CONSULTOR DE VENDAS 20100719TNE100000000202101262021010519710322N0000000000
M001SOLDI PROMOTORA DE VENDAS LTDA     0100004000000017132JACIRA SOFIA SANTOS                02ERICA SANTANA DOS SANTOS           COPANEST BA                        106963389321010101201210106000000000035521600000741580000097420000000000000000000000000000000000000000000000000000000000000000000000000000000000000000000000000000000000000000000001117120000000000010400400         020013792965000106J0000000000000000000000000000AUXILIAR DE SERVICOS20100722TNE100000000202101062020111720001117N0000000000
M001SOLDI PROMOTORA DE VENDAS LTDA     0100004000000017132JACIRA SOFIA SANTOS                02ERICA SANTANA DOS SANTOS           COPANEST BA                        4   FLSSJM78454042700210107000000001645980000000741580000097420000000000000000000000000000000000000000000000000000000000000000000000000000000000000000000000000000000000000000000001117120000000000481929400         020013792965000106J0000000000000000000000000000AUXILIAR DE SERVICOS20100722TNE100000000202101072020100220001117N0000000000
M001SOLDI PROMOTORA DE VENDAS LTDA     0100004000000017132JACIRA SOFIA SANTOS                02ERICA SANTANA DOS SANTOS           COPANEST BA                        4   FLSSJM78454043500210107000000000748170000000741580000097420000000000000000000000000000000000000000000000000000000000000000000000000000000000000000000000000000000000000000000001117120000000000219059400         020013792965000106J0000000000000000000000000000AUXILIAR DE SERVICOS20100722TNE100000000202101072020100220001117N0000000000
M001SOLDI PROMOTORA DE VENDAS LTDA     0100004000000017132JACIRA SOFIA SANTOS                02ERICA SANTANA DOS SANTOS           HBA                                3   FLSSJM70000000100210114000000028142010000000741580000396710000000000000891100000000000000000000000385610000000006295700000000000000000000001756310000000000000000000002528141001117120000000008239732400         020005469172000122J0000000000000000000000000000AUXILIAR DE SERVICOS20100722TNE100000000202101142020100220001117N0000000000
M001SOLDI PROMOTORA DE VENDAS LTDA     0100004180000180010DANIELLE BARBOSA DUARTE            00DANIELLE BARBOSA DUARTE            HEMOSERVICE                        706910559774040317301210119000000000003321600000741580000802441010000000000000000000000000000000000000000000000000000000000000000000000000000000000000000000000000000000000000000830513200000000000000973418         000019418169000194J0000000000000000000000000000CONSULTOR DE VENDAS 20111020TNE100000000202101192020082519830513N0000000000
M001SOLDI PROMOTORA DE VENDAS LTDA     0100004180000180010DANIELLE BARBOSA DUARTE            00DANIELLE BARBOSA DUARTE            HEMOSERVICE                        706910559774040334301210119000000000002971600000741580000802441010000000000000000000000000000000000000000000000000000000000000000000000000000000000000000000000000000000000000000830513200000000000000871418         000019418169000194J0000000000000000000000000000CONSULTOR DE VENDAS 20111020TNE100000000202101192020082519830513N0000000000
M001SOLDI PROMOTORA DE VENDAS LTDA     0100004180000180010DANIELLE BARBOSA DUARTE            00DANIELLE BARBOSA DUARTE            HEMOSERVICE                        706910559774040340804210119000000000014901600000741580000802441010000000000000000000000000000000000000000000000000000000000000000000000000000000000000000000000000000000000000000830513200000000000004364418         000019418169000194J0000000000000000000000000000CONSULTOR DE VENDAS 20111020TNE100000000202101192020082519830513N0000000000
M001SOLDI PROMOTORA DE VENDAS LTDA     0100004180000180010DANIELLE BARBOSA DUARTE            00DANIELLE BARBOSA DUARTE            ONCOMED                            206969960083401999101210129000000000068300000000741580000178241000000000000000000000000000000000000000000000000000000000000000000000000000000000000000000000000000000000000000000830513200000000000020000418         000000132229000180J0000000000000000000000000000CONSULTOR DE VENDAS 20111020TNE100000000202101292020113019830513N0000000000
M001SOLDI PROMOTORA DE VENDAS LTDA     0100004180000180010DANIELLE BARBOSA DUARTE            00DANIELLE BARBOSA DUARTE            ONCOMED                            206969960083401999201210129000000006823750000000741580000178241000000000000000000000000000000000000000000000000000000000000000000000000000000000000000000000000000000000000000000830513200000000001997934418         000000132229000180J0000000000000000000000000000CONSULTOR DE VENDAS 20111020TNE100000000202101292020113019830513N0000000000
M001SOLDI PROMOTORA DE VENDAS LTDA     0100004180000180010DANIELLE BARBOSA DUARTE            00DANIELLE BARBOSA DUARTE            ONCOMED                            206969960082010429401210129000000000061211600000741580000178241000000000000000000000000000000000000000000000000000000000000000000000000000000000000000000000000000000000000000000830513200000000000017924418         000000132229000180J0000000000000000000000000000CONSULTOR DE VENDAS 20111020TNE100000000202101292020113019830513N0000000000
M001SOLDI PROMOTORA DE VENDAS LTDA     0100004340000018110MARIA LUCIA DA SILVA               00MARIA LUCIA DA SILVA               LABORATORIO BRASILIENSE            506962222264060111001210104000000000024591600000741580000692077000000000000000000000000000000000000000000000000000000000000000000000000000000000000000000000000000000000000000000760306200000000000007202434         000000065847000154J0000000000000000000000000000CONSULTOR DE VENDAS 20101122TNE100000000202101042020102819760306N0000000000
M001SOLDI PROMOTORA DE VENDAS LTDA     0100004340000018110MARIA LUCIA DA SILVA               00MARIA LUCIA DA SILVA               LABORATORIO ARAUJO                 506964507324030718201210106000000000018121600000741580000578371000000000000000000000000000000000000000000000000000000000000000000000000000000000000000000000000000000000000000000760306200000000000005308434         000004053538000115J0000000000000000000000000000CONSULTOR DE VENDAS 20101122TNE100000000202101062020111719760306N0000000000
M001SOLDI PROMOTORA DE VENDAS LTDA     0100004340000018110MARIA LUCIA DA SILVA               00MARIA LUCIA DA SILVA               CLINICA JOAO SILVA FILHO           100199636691010101200210118000000000035521600000741580000173002000000000000000000000000000000000000000000000000000000000000000000000000000000000000000000000000000000000000000000760306200000000000010400434         000008708092000170J0000000000000000000000000000CONSULTOR DE VENDAS 20101122TNE100000000202101182020120219760306N0000000000
M001SOLDI PROMOTORA DE VENDAS LTDA     0100004340000018110MARIA LUCIA DA SILVA               00MARIA LUCIA DA SILVA               CLINICA JOAO SILVA FILHO           191534232061010101200210118000000000035521600000741580000173002000000000000000000000000000000000000000000000000000000000000000000000000000000000000000000000000000000000000000000760306200000000000010400434         000008708092000170J0000000000000000000000000000CONSULTOR DE VENDAS 20101122TNE100000000202101182020120919760306N0000000000
M001SOLDI PROMOTORA DE VENDAS LTDA     0100004340000018110MARIA LUCIA DA SILVA               00MARIA LUCIA DA SILVA               CLINICA DIAGNOSTICOS               506971469074090112201210121000000000032651600000741580000030903000000000000000000000000000000000000000000000000000000000000000000000000000000000000000000000000000000000000000000760306200000000000009561434         000006188263000152J0000000000000000000000000000CONSULTOR DE VENDAS 20101122TNE100000000202101212020111719760306N0000000000
M001SOLDI PROMOTORA DE VENDAS LTDA     0100004340000018110MARIA LUCIA DA SILVA               00MARIA LUCIA DA SILVA               COOPANEST DF                       506979334694020203801210121000000000164141600000741580000726222000000000000000000000000000000000000000000000000000000000000000000000000000000000000000000000000000000000000000000760306200000000000048059434         000024905234000146J0000000000000000000000000000CONSULTOR DE VENDAS 20101122TNE100000000202101212020102819760306N0000000000
M001SOLDI PROMOTORA DE VENDAS LTDA     0100005070008800211GLAUBER LARANJEIRA DO NASCIMENTO   00GLAUBER LARANJEIRA DO NASCIMENTO   HOSPITAL DAS NEVES                 206975624098400040601210126000000000112700000000741580000432911000000000000000000000000000000000000000000000000000000000000000000000000000000000000000000000000000000000000000000840313200000000000033000507         000001817749000199J0000000000000000000000000000SUPERVISOR DE VENDAS20111002TNE100000000202101262020112719840313N0000000000
M001SOLDI PROMOTORA DE VENDAS LTDA     0100005070008800211GLAUBER LARANJEIRA DO NASCIMENTO   01AMELIA FATIMA FERREIRA NASCIMENTO  HOSPITAL DAS NEVES                 206975624488400040601210126000000000112700000000741580000432911000000000000000000000000000000000000000000000000000000000000000000000000000000000000000000000000000000000000000000881003210000000000033000507         010001817749000199J0000000000000000000000000000SUPERVISOR DE VENDAS20111002TNE100000000202101262020112719881003N0000000000
M001SOLDI PROMOTORA DE VENDAS LTDA     0100005070008800211GLAUBER LARANJEIRA DO NASCIMENTO   03ARTHUR FERREIRA NASCIMENTO         GLAUBER LARANJEIRA DO NASCIMENTO   200058966393401999501210129000000000952890000000741580000000000000000000000000000000000000000000000000000000000000000000000000000000000000000000000000000000000000000000000000000170819129900000000279000507         030000000000000000 0000000000000000000000000000SUPERVISOR DE VENDAS20111002TNE100000000202101292020120220170819N0000279000
M001SOLDI PROMOTORA DE VENDAS LTDA     0100005070008800211GLAUBER LARANJEIRA DO NASCIMENTO   03ARTHUR FERREIRA NASCIMENTO         GLAUBER LARANJEIRA DO NASCIMENTO   200058966523401999501210129000000001075850000000741580000000000000000000000000000000000000000000000000000000000000000000000000000000000000000000000000000000000000000000000000000170819129900000000315000507         030000000000000000 0000000000000000000000000000SUPERVISOR DE VENDAS20111002TNE100000000202101292020120220170819N0000315000
M001SOLDI PROMOTORA DE VENDAS LTDA     0100005070008800211GLAUBER LARANJEIRA DO NASCIMENTO   03ARTHUR FERREIRA NASCIMENTO         GLAUBER LARANJEIRA DO NASCIMENTO   200058966513401999501210129000000001045110000000741580000000000000000000000000000000000000000000000000000000000000000000000000000000000000000000000000000000000000000000000000000170819129900000000306000507         030000000000000000 0000000000000000000000000000SUPERVISOR DE VENDAS20111002TNE100000000202101292020110420170819N0000306000
M001SOLDI PROMOTORA DE VENDAS LTDA     0100005070008800211GLAUBER LARANJEIRA DO NASCIMENTO   03ARTHUR FERREIRA NASCIMENTO         GLAUBER LARANJEIRA DO NASCIMENTO   200058966413401999501210129000000001260280000000741580000000000000000000000000000000000000000000000000000000000000000000000000000000000000000000000000000000000000000000000000000170819129900000000369000507         030000000000000000 0000000000000000000000000000SUPERVISOR DE VENDAS20111002TNE100000000202101292020110320170819N0000369000
M001SOLDI PROMOTORA DE VENDAS LTDA     0100005070008800211GLAUBER LARANJEIRA DO NASCIMENTO   03ARTHUR FERREIRA NASCIMENTO         GLAUBER LARANJEIRA DO NASCIMENTO   200058966315000008010210129000000000444001600000741580000000000000000000000000000000000000000000000000000000000000000000000000000000000000000000000000000000000000000000000000000170819129900000000130000507         030000000000000000 0000000000000000000000000000SUPERVISOR DE VENDAS20111002TNE100000000202101292020120120170819N0000130000
M001SOLDI PROMOTORA DE VENDAS LTDA     0100005070008800211GLAUBER LARANJEIRA DO NASCIMENTO   03ARTHUR FERREIRA NASCIMENTO         GLAUBER LARANJEIRA DO NASCIMENTO   200058966345000008008210129000000000355201600000741580000000000000000000000000000000000000000000000000000000000000000000000000000000000000000000000000000000000000000000000000000170819129900000000104000507         030000000000000000 0000000000000000000000000000SUPERVISOR DE VENDAS20111002TNE100000000202101292020110320170819N0000104000
M001SOLDI PROMOTORA DE VENDAS LTDA     0100005070008800211GLAUBER LARANJEIRA DO NASCIMENTO   03ARTHUR FERREIRA NASCIMENTO         GLAUBER LARANJEIRA DO NASCIMENTO   200058966345000008006210129000000000266401600000741580000000000000000000000000000000000000000000000000000000000000000000000000000000000000000000000000000000000000000000000000000170819129900000000078000507         030000000000000000 0000000000000000000000000000SUPERVISOR DE VENDAS20111002TNE100000000202101292020110320170819N0000078000
M001SOLDI PROMOTORA DE VENDAS LTDA     0100005070008800211GLAUBER LARANJEIRA DO NASCIMENTO   03ARTHUR FERREIRA NASCIMENTO         GLAUBER LARANJEIRA DO NASCIMENTO   200058966375000061613210129000000000621601600000741580000000000000000000000000000000000000000000000000000000000000000000000000000000000000000000000000000000000000000000000000000170819129900000000182000507         030000000000000000 0000000000000000000000000000SUPERVISOR DE VENDAS20111002TNE100000000202101292020110320170819N0000182000
M001SOLDI PROMOTORA DE VENDAS LTDA     0100005740008800592ALINIR PEREIRA DE ALMEIDA PAVAO    02AGATHA ALMEIDA PAVAO               HOSPITAL SAMARITANO                206955560268400115101210118000000000047810000000741580000423912000000000000000000000000000000000000000000000000000000000000000000000000000000000000000000000000000000000000000000190606220000000000014000574         020000894710000102J0000000000000000000000000000CONSULTOR DE VENDAS 20120206TNE100000000202101182020103020190606N0000000000
M001SOLDI PROMOTORA DE VENDAS LTDA     0100005740008800592ALINIR PEREIRA DE ALMEIDA PAVAO    02AGATHA ALMEIDA PAVAO               HOSPITAL SAMARITANO                206963654908400115101210118000000000047810000000741580000423912000000000000000000000000000000000000000000000000000000000000000000000000000000000000000000000000000000000000000000190606220000000000014000574         020000894710000102J0000000000000000000000000000CONSULTOR DE VENDAS 20120206TNE100000000202101182020111520190606N0000000000
M001SOLDI PROMOTORA DE VENDAS LTDA     0100006390008800606ERICA FRANCISCA DA SILVA           00ERICA FRANCISCA DA SILVA           NEAP                               706962644484130109901210118000000000002831600000741580000036277000000000000000000000000000000000000000000000000000000000000000000000000000000000000000000000000000000000000000000800815200000000000000831639         000011965795000199J0000000000000000000000000000ASSISTENTE OPERACION20120903TNE100000000202101182020110719800815N0000000000
M001SOLDI PROMOTORA DE VENDAS LTDA     0100006390008800606ERICA FRANCISCA DA SILVA           00ERICA FRANCISCA DA SILVA           NEAP                               206962644488445052501210118000000000068300000000741580000036277000000000000000000000000000000000000000000000000000000000000000000000000000000000000000000000000000000000000000000800815200000000000020000639         000011965795000199J0000000000000000000000000000ASSISTENTE OPERACION20120903TNE100000000202101182020110719800815N0000000000
M001SOLDI PROMOTORA DE VENDAS LTDA     0100006390008800606ERICA FRANCISCA DA SILVA           00ERICA FRANCISCA DA SILVA           NEAP                               506962644484060113701210118000000000012541600000741580000036277000000000000000000000000000000000000000000000000000000000000000000000000000000000000000000000000000000000000000000800815200000000000003674639         000011965795000199J0000000000000000000000000000ASSISTENTE OPERACION20120903TNE100000000202101182020110719800815N0000000000
M001SOLDI PROMOTORA DE VENDAS LTDA     0100007360008800622ROSELENE SANTOS FERREIRA           00ROSELENE SANTOS FERREIRA           ORTOPED                            206982091883401999101210126000000000001850000000741580000121924000000000000000000000000000000000000000000000000000000000000000000000000000000000000000000000000000000000000000000820729200000000000000542736         000033967407000141J0000000000000000000000000000CONSULTOR DE VENDAS 20130218TNE100000000202101262020121419820729N0000000000
M001SOLDI PROMOTORA DE VENDAS LTDA     0100007360008800622ROSELENE SANTOS FERREIRA           00ROSELENE SANTOS FERREIRA           ORTOPED                            206982091883401999201210126000000000013960000000741580000121924000000000000000000000000000000000000000000000000000000000000000000000000000000000000000000000000000000000000000000820729200000000000004088736         000033967407000141J0000000000000000000000000000CONSULTOR DE VENDAS 20130218TNE100000000202101262020121419820729N0000000000
M001SOLDI PROMOTORA DE VENDAS LTDA     0100007360008800622ROSELENE SANTOS FERREIRA           00ROSELENE SANTOS FERREIRA           ORTOPED                            206982091883401999501210126000000000001420000000741580000121924000000000000000000000000000000000000000000000000000000000000000000000000000000000000000000000000000000000000000000820729200000000000000416736         000033967407000141J0000000000000000000000000000CONSULTOR DE VENDAS 20130218TNE100000000202101262020121419820729N0000000000
M001SOLDI PROMOTORA DE VENDAS LTDA     0100007360008800622ROSELENE SANTOS FERREIRA           00ROSELENE SANTOS FERREIRA           ORTOPED                            106982091851010103901210126000000000035521600000741580000121924000000000000000000000000000000000000000000000000000000000000000000000000000000000000000000000000000000000000000000820729200000000000010400736         000033967407000141J0000000000000000000000000000CONSULTOR DE VENDAS 20130218TNE100000000202101262020121419820729N0000000000
M001SOLDI PROMOTORA DE VENDAS LTDA     0100007440008800622VALQUIRIA CORREIA MOURA            01NICOLE MOURA BISPO                 QUALYVIDA SERVICOS MEDICOS         101120362811010101200210106000000000034151600000741580000111902000000000000000000000000000000000000000000000000000000000000000000000000000000000000000000000000000000000000000000180105220000000000010000744         010011278522000176J0000000000000000000000000000CONSULTOR DE VENDAS 20130218TNE100000000202101062020121020180105N0000000000
M001SOLDI PROMOTORA DE VENDAS LTDA     0100007440008800622VALQUIRIA CORREIA MOURA            01NICOLE MOURA BISPO                 LABCHECAP                          506974911874030160501210126000000000001721600000741580000732273000000000000000000000000000000000000000000000000000000000000000000000000000000000000000000000000000000000000000000180105220000000000000505744         010013503479000473J0000000000000000000000000000CONSULTOR DE VENDAS 20130218TNE100000000202101262020112820180105N0000000000
M001SOLDI PROMOTORA DE VENDAS LTDA     0100007440008800622VALQUIRIA CORREIA MOURA            01NICOLE MOURA BISPO                 LABCHECAP                          506974911874030204001210126000000000001721600000741580000732273000000000000000000000000000000000000000000000000000000000000000000000000000000000000000000000000000000000000000000180105220000000000000505744         010013503479000473J0000000000000000000000000000CONSULTOR DE VENDAS 20130218TNE100000000202101262020112820180105N0000000000
M001SOLDI PROMOTORA DE VENDAS LTDA     0100007440008800622VALQUIRIA CORREIA MOURA            01NICOLE MOURA BISPO                 LABCHECAP                          506974911874030254701210126000000000002461600000741580000732273000000000000000000000000000000000000000000000000000000000000000000000000000000000000000000000000000000000000000000180105220000000000000721744         010013503479000473J0000000000000000000000000000CONSULTOR DE VENDAS 20130218TNE100000000202101262020112820180105N0000000000
M001SOLDI PROMOTORA DE VENDAS LTDA     0100007440008800622VALQUIRIA CORREIA MOURA            01NICOLE MOURA BISPO                 LABCHECAP                          506974911874030159101210126000000000003691600000741580000732273000000000000000000000000000000000000000000000000000000000000000000000000000000000000000000000000000000000000000000180105220000000000001083744         010013503479000473J0000000000000000000000000000CONSULTOR DE VENDAS 20130218TNE100000000202101262020112820180105N0000000000
M001SOLDI PROMOTORA DE VENDAS LTDA     0100007440008800622VALQUIRIA CORREIA MOURA            01NICOLE MOURA BISPO                 LABCHECAP                          506974911874030269501210126000000000004921600000741580000732273000000000000000000000000000000000000000000000000000000000000000000000000000000000000000000000000000000000000000000180105220000000000001443744         010013503479000473J0000000000000000000000000000CONSULTOR DE VENDAS 20130218TNE100000000202101262020112820180105N0000000000
M001SOLDI PROMOTORA DE VENDAS LTDA     0100007440008800622VALQUIRIA CORREIA MOURA            01NICOLE MOURA BISPO                 LABCHECAP                          506974911874030308003210126000000000003691600000741580000732273000000000000000000000000000000000000000000000000000000000000000000000000000000000000000000000000000000000000000000180105220000000000001083744         010013503479000473J0000000000000000000000000000CONSULTOR DE VENDAS 20130218TNE100000000202101262020112820180105N0000000000
M001SOLDI PROMOTORA DE VENDAS LTDA     0100007440008800622VALQUIRIA CORREIA MOURA            01NICOLE MOURA BISPO                 LABCHECAP                          506974911874030311003210126000000000005171600000741580000732273000000000000000000000000000000000000000000000000000000000000000000000000000000000000000000000000000000000000000000180105220000000000001515744         010013503479000473J0000000000000000000000000000CONSULTOR DE VENDAS 20130218TNE100000000202101262020112820180105N0000000000
M001SOLDI PROMOTORA DE VENDAS LTDA     0100007440008800622VALQUIRIA CORREIA MOURA            01NICOLE MOURA BISPO                 LABCHECAP                          506974911874030428001210126000000000003691600000741580000732273000000000000000000000000000000000000000000000000000000000000000000000000000000000000000000000000000000000000000000180105220000000000001083744         010013503479000473J0000000000000000000000000000CONSULTOR DE VENDAS 20130218TNE100000000202101262020112820180105N0000000000
M001SOLDI PROMOTORA DE VENDAS LTDA     0100007440008800622VALQUIRIA CORREIA MOURA            01NICOLE MOURA BISPO                 LABCHECAP                          506974911874030429901210126000000000002221600000741580000732273000000000000000000000000000000000000000000000000000000000000000000000000000000000000000000000000000000000000000000180105220000000000000650744         010013503479000473J0000000000000000000000000000CONSULTOR DE VENDAS 20130218TNE100000000202101262020112820180105N0000000000
M001SOLDI PROMOTORA DE VENDAS LTDA     0100007440008800622VALQUIRIA CORREIA MOURA            01NICOLE MOURA BISPO                 LABCHECAP                          506974911874030436101210126000000000003691600000741580000732273000000000000000000000000000000000000000000000000000000000000000000000000000000000000000000000000000000000000000000180105220000000000001083744         010013503479000473J0000000000000000000000000000CONSULTOR DE VENDAS 20130218TNE100000000202101262020112820180105N0000000000
M001SOLDI PROMOTORA DE VENDAS LTDA     0100007440008800622VALQUIRIA CORREIA MOURA            01NICOLE MOURA BISPO                 LABCHECAP                          506974911874030283001210126000000000011961600000741580000732273000000000000000000000000000000000000000000000000000000000000000000000000000000000000000000000000000000000000000000180105220000000000003503744         010013503479000473J0000000000000000000000000000CONSULTOR DE VENDAS 20130218TNE100000000202101262020112820180105N0000000000
M001SOLDI PROMOTORA DE VENDAS LTDA     0100007440008800622VALQUIRIA CORREIA MOURA            01NICOLE MOURA BISPO                 LABCHECAP                          506974911874031121001210126000000000001721600000741580000732273000000000000000000000000000000000000000000000000000000000000000000000000000000000000000000000000000000000000000000180105220000000000000505744         010013503479000473J0000000000000000000000000000CONSULTOR DE VENDAS 20130218TNE100000000202101262020112820180105N0000000000
M001SOLDI PROMOTORA DE VENDAS LTDA     0100007440008800622VALQUIRIA CORREIA MOURA            01NICOLE MOURA BISPO                 LABCHECAP                          506974911874030163001210126000000000001721600000741580000732273000000000000000000000000000000000000000000000000000000000000000000000000000000000000000000000000000000000000000000180105220000000000000505744         010013503479000473J0000000000000000000000000000CONSULTOR DE VENDAS 20130218TNE100000000202101262020112820180105N0000000000
M001SOLDI PROMOTORA DE VENDAS LTDA     0100007440008800622VALQUIRIA CORREIA MOURA            01NICOLE MOURA BISPO                 LABCHECAP                          506974911874030158301210126000000000003081600000741580000732273000000000000000000000000000000000000000000000000000000000000000000000000000000000000000000000000000000000000000000180105220000000000000903744         010013503479000473J0000000000000000000000000000CONSULTOR DE VENDAS 20130218TNE100000000202101262020112820180105N0000000000
M001SOLDI PROMOTORA DE VENDAS LTDA     0100007440008800622VALQUIRIA CORREIA MOURA            01NICOLE MOURA BISPO                 LABCHECAP                          506974911874030140001210126000000000001721600000741580000732273000000000000000000000000000000000000000000000000000000000000000000000000000000000000000000000000000000000000000000180105220000000000000505744         010013503479000473J0000000000000000000000000000CONSULTOR DE VENDAS 20130218TNE100000000202101262020112820180105N0000000000
M001SOLDI PROMOTORA DE VENDAS LTDA     0100007520008800623CREUZA GONCALVES DOS SANTOS        00CREUZA GONCALVES DOS SANTOS        UNICOOPER                          106980742731010103901210122000000000038711600000741580000594725000000000000000000000000000000000000000000000000000000000000000000000000000000000000000000000000000000000000000000620406200000000000011336752         000003288517000116J0000000000000000000000000000CONSULTOR DE VENDAS 20130304TNE100000000202101222020120119620406N0000000000
M001SOLDI PROMOTORA DE VENDAS LTDA     0100007520008800623CREUZA GONCALVES DOS SANTOS        00CREUZA GONCALVES DOS SANTOS        UNICOOPER                          106980747261010103901210122000000000038711600000741580000594725000000000000000000000000000000000000000000000000000000000000000000000000000000000000000000000000000000000000000000620406200000000000011336752         000003288517000116J0000000000000000000000000000CONSULTOR DE VENDAS 20130304TNE100000000202101222020113019620406N0000000000
M001SOLDI PROMOTORA DE VENDAS LTDA     0100007520008800623CREUZA GONCALVES DOS SANTOS        00CREUZA GONCALVES DOS SANTOS        HOSPITAL MATER DEI                 206983555523401999201210129000000000012200000000741580000030910000000000000000000000000000000000000000000000000000000000000000000000000000000000000000000000000000000000000000000620406200000000000003574752         000016676520000159J0000000000000000000000000000CONSULTOR DE VENDAS 20130304TNE100000000202101292020113019620406N0000000000
M001SOLDI PROMOTORA DE VENDAS LTDA     0100007520008800623CREUZA GONCALVES DOS SANTOS        00CREUZA GONCALVES DOS SANTOS        HOSPITAL MATER DEI                 706983555520004005301210129000000000000000000000741580000030910000000000000000000000000000000000000000000000000000000000000000000000000000000000000000000000000000000000000000000620406200000000000000001752         000016676520000159J0000000000000000000000000000CONSULTOR DE VENDAS 20130304TNE100000000202101292020113019620406N0000000000
M001SOLDI PROMOTORA DE VENDAS LTDA     0100007520008800623CREUZA GONCALVES DOS SANTOS        00CREUZA GONCALVES DOS SANTOS        HOSPITAL MATER DEI                 206983555523401999101210129000000000023200000000741580000030910000000000000000000000000000000000000000000000000000000000000000000000000000000000000000000000000000000000000000000620406200000000000006794752         000016676520000159J0000000000000000000000000000CONSULTOR DE VENDAS 20130304TNE100000000202101292020113019620406N0000000000
M001SOLDI PROMOTORA DE VENDAS LTDA     0100007520008800623CREUZA GONCALVES DOS SANTOS        00CREUZA GONCALVES DOS SANTOS        HOSPITAL MATER DEI                 206983555523401999501210129000000000005280000000741580000030910000000000000000000000000000000000000000000000000000000000000000000000000000000000000000000000000000000000000000000620406200000000000001547752         000016676520000159J0000000000000000000000000000CONSULTOR DE VENDAS 20130304TNE100000000202101292020113019620406N0000000000
M001SOLDI PROMOTORA DE VENDAS LTDA     0100008250008800630JANAINA SILVA LEITE                00JANAINA SILVA LEITE                CL SALES ATENDIMENTO EM SAUDE MENTA206958290795000047001210106000000000014501600000741580000772602000000000000000000000000000000000000000000000000000000000000000000000000000000000000000000000000000000000000000000800425200000000000004246825         000033812465000104J0000000000000000000000000000CONSULTOR DE VENDAS 20130506TNE100000000202101062020100619800425N0000000000
M001SOLDI PROMOTORA DE VENDAS LTDA     0100008250008800630JANAINA SILVA LEITE                00JANAINA SILVA LEITE                CL SALES ATENDIMENTO EM SAUDE MENTA206958290795000047001210106000000000014501600000741580000772602000000000000000000000000000000000000000000000000000000000000000000000000000000000000000000000000000000000000000000800425200000000000004246825         000033812465000104J0000000000000000000000000000CONSULTOR DE VENDAS 20130506TNE100000000202101062020100619800425N0000000000
M001SOLDI PROMOTORA DE VENDAS LTDA     0100008250008800630JANAINA SILVA LEITE                02MARIA EDUARDA LEITE SANTOS         CL SALES ATENDIMENTO EM SAUDE MENTA206958290885000047001210106000000000014501600000741580000772602000000000000000000000000000000000000000000000000000000000000000000000000000000000000000000000000000000000000000000030705220000000000004246825         020033812465000104J0000000000000000000000000000CONSULTOR DE VENDAS 20130506TNE100000000202101062020100920030705N0000000000
M001SOLDI PROMOTORA DE VENDAS LTDA     0100008250008800630JANAINA SILVA LEITE                00JANAINA SILVA LEITE                CL SALES ATENDIMENTO EM SAUDE MENTA206958290795000047001210106000000000014501600000741580000772602000000000000000000000000000000000000000000000000000000000000000000000000000000000000000000000000000000000000000000800425200000000000004246825         000033812465000104J0000000000000000000000000000CONSULTOR DE VENDAS 20130506TNE100000000202101062020100619800425N0000000000
M001SOLDI PROMOTORA DE VENDAS LTDA     0100008250008800630JANAINA SILVA LEITE                02MARIA EDUARDA LEITE SANTOS         CL SALES ATENDIMENTO EM SAUDE MENTA206958290885000047001210106000000000014501600000741580000772602000000000000000000000000000000000000000000000000000000000000000000000000000000000000000000000000000000000000000000030705220000000000004246825         020033812465000104J0000000000000000000000000000CONSULTOR DE VENDAS 20130506TNE100000000202101062020100920030705N0000000000
M001SOLDI PROMOTORA DE VENDAS LTDA     0100008250008800630JANAINA SILVA LEITE                00JANAINA SILVA LEITE                CL SALES ATENDIMENTO EM SAUDE MENTA206958290795000047001210106000000000014501600000741580000772602000000000000000000000000000000000000000000000000000000000000000000000000000000000000000000000000000000000000000000800425200000000000004246825         000033812465000104J0000000000000000000000000000CONSULTOR DE VENDAS 20130506TNE100000000202101062020100619800425N0000000000
M001SOLDI PROMOTORA DE VENDAS LTDA     0100008250008800630JANAINA SILVA LEITE                02MARIA EDUARDA LEITE SANTOS         CL SALES ATENDIMENTO EM SAUDE MENTA206958290885000047001210106000000000014501600000741580000772602000000000000000000000000000000000000000000000000000000000000000000000000000000000000000000000000000000000000000000030705220000000000004246825         020033812465000104J0000000000000000000000000000CONSULTOR DE VENDAS 20130506TNE100000000202101062020100920030705N0000000000
M001SOLDI PROMOTORA DE VENDAS LTDA     0100008250008800630JANAINA SILVA LEITE                02MARIA EDUARDA LEITE SANTOS         CL SALES ATENDIMENTO EM SAUDE MENTA206958290885000047001210106000000000014501600000741580000772602000000000000000000000000000000000000000000000000000000000000000000000000000000000000000000000000000000000000000000030705220000000000004246825         020033812465000104J0000000000000000000000000000CONSULTOR DE VENDAS 20130506TNE100000000202101062020100920030705N0000000000
M001SOLDI PROMOTORA DE VENDAS LTDA     0100008250008800630JANAINA SILVA LEITE                01PALOMA LEITE SANTOS                HOSPITAL SINO BRASILEIRO           106961370431010101201210112000000000031961600000741580000252102000000000000000000000000000000000000000000000000000000000000000000000000000000000000000000000000000000000000000000991002220000000000009360825         010006047087007656J0000000000000000000000000000CONSULTOR DE VENDAS 20130506TNE100000000202101122020111919991002N0000000000
M001SOLDI PROMOTORA DE VENDAS LTDA     0100008250008800630JANAINA SILVA LEITE                01PALOMA LEITE SANTOS                INST OLHOS DR RAUL S SANTOS        206962693658450074301210114000000000056350000000741580000092622000000000000000000000000000000000000000000000000000000000000000000000000000000000000000000000000000000000000000000991002220000000000016499825         010060542644000133J0000000000000000000000000000CONSULTOR DE VENDAS 20130506TNE100000000202101142020112019991002N0000000000
M001SOLDI PROMOTORA DE VENDAS LTDA     0100008250008800630JANAINA SILVA LEITE                00JANAINA SILVA LEITE                CLINICA FARES                      191603743411010101200210128000000000035521600000741580000758602000000000000000000000000000000000000000000000000000000000000000000000000000000000000000000000000000000000000000000800425200000000000010400825         000023181573000164J0000000000000000000000000000CONSULTOR DE VENDAS 20130506TNE100000000202101282021010719800425N0000000000
M001SOLDI PROMOTORA DE VENDAS LTDA     0100008500008800644VERONICA DE SOUZA BARROS SILVA     00VERONICA DE SOUZA BARROS SILVA     HOSPITAL ALBERT SABIN              206961155488400040601210104000000000099830000000741580000146110000000000000000000000000000000000000000000000000000000000000000000000000000000000000000000000000000000000000000000760616200000000000029230850         000062996640000150J0000000000000000000000000000AUXILIAR DE SERVICOS20130701TNE100000000202101042020111619760616N0000000000
M001SOLDI PROMOTORA DE VENDAS LTDA     0100010150008800662ERIC DE BRITO REIS                 00ERIC DE BRITO REIS                 CENTRO OFTALMOLOGICO LOPES DA MOTTA2069696955784500743012101210000000000683000000007415800009950960000000000000000000000000000000000000000000000000000000000000000000000000000000000000000000000000000000000000000008901171000000000000200001015        000010821111000112J0000000000000000000000000000CONSULTOR DE VENDAS 20131202TNE100000000202101212020111619890117N0000000000
M001SOLDI PROMOTORA DE VENDAS LTDA     0100010230008800664ADRIANA CERQUEIRA DE ARAUJO        00ADRIANA CERQUEIRA DE ARAUJO        LABORATORIO EMILIO RIBAS           5069712893040304361012101120000000000031416000007415800007994320000000000000000000000000000000000000000000000000000000000000000000000000000000000000000000000000000000000000000007812232000000000000009201023        000009472754000119J0000000000000000000000000000COORDENADOR DE AREA 20131211TNE100000000202101122020112619781223N0000000000
M001SOLDI PROMOTORA DE VENDAS LTDA     0100010230008800664ADRIANA CERQUEIRA DE ARAUJO        00ADRIANA CERQUEIRA DE ARAUJO        LABORATORIO EMILIO RIBAS           5069712893040308391012101120000000000070216000007415800007994320000000000000000000000000000000000000000000000000000000000000000000000000000000000000000000000000000000000000000007812232000000000000020561023        000009472754000119J0000000000000000000000000000COORDENADOR DE AREA 20131211TNE100000000202101122020112619781223N0000000000
M001SOLDI PROMOTORA DE VENDAS LTDA     0100010230008800664ADRIANA CERQUEIRA DE ARAUJO        00ADRIANA CERQUEIRA DE ARAUJO        ECOGENESIS SERV MEDICOS DE IMAGENS 5068851980940901211012101250000000000212016000007415800007605790000000000000000000000000000000000000000000000000000000000000000000000000000000000000000000000000000000000000000007812232000000000000062101023        000006157683000171J0000000000000000000000000000COORDENADOR DE AREA 20131211TNE100000000202101252020072019781223N0000000000
M001SOLDI PROMOTORA DE VENDAS LTDA     0100010310008800665FABIOLA ELCKY DE SA FIUZA          00FABIOLA ELCKY DE SA FIUZA          HOSPITAL OTOCLINICA                1001986117010101012002101060000000000355216000007415800006622910000000000000000000000000000000000000000000000000000000000000000000000000000000000000000000000000000000000000000008202092000000000000104001031        000023443518000103J0000000000000000000000000000CONSULTOR DE VENDAS 20131218TNE100000000202101062020120419820209N0000000000
M001SOLDI PROMOTORA DE VENDAS LTDA     0100010310008800665FABIOLA ELCKY DE SA FIUZA          00FABIOLA ELCKY DE SA FIUZA          VLADMIR PINHEIRO DE OLIVEIRA       1912120582910101012002101210000000000341516000007415828350003000000000000000000000000000000000000000000000000000000000000000000000000000000000000000000000000000000000000000000008202092035000000000100001031        000000033052492349F0000000000000000000000000000CONSULTOR DE VENDAS 20131218TNE100000000202101212020121019820209N0000000000
M001SOLDI PROMOTORA DE VENDAS LTDA     0100013090008800694BEATRIZ DOS SANTOS NUNES           01KAIO ROBERTO SANTOS NUNES DA SILVA COTRAUMA                           1919785714010101012002101180000000000355216000007415800004189940000000000000000000000000000000000000000000000000000000000000000000000000000000000000000000000000000000000000000000602191200000000000104001309        010035124726000200J0000000000000000000000000000CONSULTOR DE VENDAS 20140520TNQ200000000202101182020121220060219N0000000000
M001SOLDI PROMOTORA DE VENDAS LTDA     0100013760008800699VANIA BORGES DA SILVA              00VANIA BORGES DA SILVA              HOSPITAL SANTA HELENA              2069740590584000406012101150000000000956300000007415800000292110000000000000000000000000000000000000000000000000000000000000000000000000000000000000000000000000000000000000000008507312000000000000280001376        000001656123000148J0000000000000000000000000000AUXILIAR DE SERVICOS20140603TNE100000000202101152020112719850731N0000000000
M001SOLDI PROMOTORA DE VENDAS LTDA     0100013760008800699VANIA BORGES DA SILVA              00VANIA BORGES DA SILVA              HOSP E MATERNIDADE S LUCAS         1069744480610101039012101150000000000341516000007415800002545170000000000000000000000000000000000000000000000000000000000000000000000000000000000000000000000000000000000000000008507312000000000000100001376        000001534437000178J0000000000000000000000000000AUXILIAR DE SERVICOS20140603TNE100000000202101152020120219850731N0000000000
M001SOLDI PROMOTORA DE VENDAS LTDA     0100013920008800700NARA NUBIA COELHO DE SOUZA         01ERBERT FRANCISCO PEREIRA           HOB BRASILIA                       2069700441284500735012101250000000000803000000007415800002849200000000000000000000000000000000000000000000000000000000000000000000000000000000000000000000000000000000000000000008006121100000000000235131392        010000649756000166J0000000000000000000000000000SUPERVISOR DE VENDAS20140610TNE100000000202101252020120219800612N0000000000
M001SOLDI PROMOTORA DE VENDAS LTDA     0100013920008800700NARA NUBIA COELHO DE SOUZA         01ERBERT FRANCISCO PEREIRA           HOB BRASILIA                       2069754723284500280012101270000000002467900000007415800002849200000000000000000000000000000000000000000000000000000000000000000000000000000000000000000000000000000000000000000008006121100000000000722581392        010000649756000166J0000000000000000000000000000SUPERVISOR DE VENDAS20140610TNE100000000202101272020120819800612N0000000000
M001SOLDI PROMOTORA DE VENDAS LTDA     0100013920008800700NARA NUBIA COELHO DE SOUZA         01ERBERT FRANCISCO PEREIRA           HOB BRASILIA                       2069754723284500280012101270000000001727500000007415800002849200000000000000000000000000000000000000000000000000000000000000000000000000000000000000000000000000000000000000000008006121100000000000505811392        010000649756000166J0000000000000000000000000000SUPERVISOR DE VENDAS20140610TNE100000000202101272020120819800612N0000000000
M001SOLDI PROMOTORA DE VENDAS LTDA     0100014810008800706KLEBEA PEREIRA DA SILVA            01NATALIA KETILLY SILVA NUNES        BIOCARDIOS                         5069631030440101010012101120000000000074816000007415800006425020000000000000000000000000000000000000000000000000000000000000000000000000000000000000000000000000000000000000000009711072200000000000021911481        010005544035000377J0000000000000000000000000000CONSULTOR DE VENDAS 20140708TNE100000000202101122020102019971107N0000000000
M001SOLDI PROMOTORA DE VENDAS LTDA     0100014810008800706KLEBEA PEREIRA DA SILVA            00KLEBEA PEREIRA DA SILVA            SANTA HELENA                       5069732890840805026012101140000000000096816000007415800003006750000000000000000000000000000000000000000000000000000000000000000000000000000000000000000000000000000000000000000008009282000000000000028371481        000000049791000144J0000000000000000000000000000CONSULTOR DE VENDAS 20140708TNE100000000202101142020112619800928N0000000000
M001SOLDI PROMOTORA DE VENDAS LTDA     0100014810008800706KLEBEA PEREIRA DA SILVA            01NATALIA KETILLY SILVA NUNES        COOPANEST DF                       4   F5PBVJ930602076002101180000000001641416000007415800007262220000000000000000000000000000000000000000000000000000000000000000000000000000000000000000000000000000000000000000009711072200000000000480591481        010024905234000146J0000000000000000000000000000CONSULTOR DE VENDAS 20140708TNE100000000202101182020111419971107N0000000000
M001SOLDI PROMOTORA DE VENDAS LTDA     0100014810008800706KLEBEA PEREIRA DA SILVA            01NATALIA KETILLY SILVA NUNES        COOPANEST DF                       1069758320310101012012101180000000000341516000007415800007262220000000000000000000000000000000000000000000000000000000000000000000000000000000000000000000000000000000000000000009711072200000000000100001481        010024905234000146J0000000000000000000000000000CONSULTOR DE VENDAS 20140708TNE100000000202101182020112019971107N0000000000
M001SOLDI PROMOTORA DE VENDAS LTDA     0100014810008800706KLEBEA PEREIRA DA SILVA            01NATALIA KETILLY SILVA NUNES        COOPANEST DF                       4   F5PBVJ930602076002101180000000001148916000007415800007262220000000000000000000000000000000000000000000000000000000000000000000000000000000000000000000000000000000000000000009711072200000000000336411481        010024905234000146J0000000000000000000000000000CONSULTOR DE VENDAS 20140708TNE100000000202101182020111419971107N0000000000
M001SOLDI PROMOTORA DE VENDAS LTDA     0100014810008800706KLEBEA PEREIRA DA SILVA            00KLEBEA PEREIRA DA SILVA            GINECUS                            1002000756210101012002101210000000000355216000007415800008826900000000000000000000000000000000000000000000000000000000000000000000000000000000000000000000000000000000000000000008009282000000000000104001481        000005893903000162J0000000000000000000000000000CONSULTOR DE VENDAS 20140708TNE100000000202101212020122819800928N0000000000
M001SOLDI PROMOTORA DE VENDAS LTDA     0100015200008800711LUCIANA VIEIRA MAGALHAES           03MARIA JULIA MAGALHAES MONTEIRO     CEPECE                             2069687305784000147012101080000000000874300000007415800002798110000000000000000000000000000000000000000000000000000000000000000000000000000000000000000000000000000000000000000001702262200000000000256001520        030063386213000113J0000000000000000000000000000CONSULTOR DE VENDAS 20140801TNE100000000202101082020112920170226N0000000000
M001SOLDI PROMOTORA DE VENDAS LTDA     0100015200008800711LUCIANA VIEIRA MAGALHAES           02BIANCA HILLARY MAGALHAES SALES     CL OLHOS LEIRIA DE ANDRADE         2069685823034019992012101080000000000004700000007415800001735170000000000000000000000000000000000000000000000000000000000000000000000000000000000000000000000000000000000000000000606192200000000000001401520        020007303837000159J0000000000000000000000000000CONSULTOR DE VENDAS 20140801TNE100000000202101082020111420060619N0000000000
M001SOLDI PROMOTORA DE VENDAS LTDA     0100015200008800711LUCIANA VIEIRA MAGALHAES           01NATHANAEL DE SOUZA MONTEIRO        SONIMAGEM                          6069691700441001095012101080000000000214116000007415800005396350000000000000000000000000000000000000000000000000000000000000000000000000000000000000000000000000000000000000000008507141100000000000062691520        010035065028000191J0000000000000000000000000000CONSULTOR DE VENDAS 20140801TNE100000000202101082020112419850714N0000000000
M001SOLDI PROMOTORA DE VENDAS LTDA     0100015200008800711LUCIANA VIEIRA MAGALHAES           03MARIA JULIA MAGALHAES MONTEIRO     CL OLHOS LEIRIA DE ANDRADE         1069685822610101039012101080000000000461716000007415800001735170000000000000000000000000000000000000000000000000000000000000000000000000000000000000000000000000000000000000000001702262200000000000135201520        030007303837000159J0000000000000000000000000000CONSULTOR DE VENDAS 20140801TNE100000000202101082020112820170226N0000000000
M001SOLDI PROMOTORA DE VENDAS LTDA     0100015200008800711LUCIANA VIEIRA MAGALHAES           02BIANCA HILLARY MAGALHAES SALES     CL OLHOS LEIRIA DE ANDRADE         5069685823041301080022101080000000000623116000007415800001735170000000000000000000000000000000000000000000000000000000000000000000000000000000000000000000000000000000000000000000606192200000000000182441520        020007303837000159J0000000000000000000000000000CONSULTOR DE VENDAS 20140801TNE100000000202101082020111420060619N0000000000
M001SOLDI PROMOTORA DE VENDAS LTDA     0100015200008800711LUCIANA VIEIRA MAGALHAES           02BIANCA HILLARY MAGALHAES SALES     CL OLHOS LEIRIA DE ANDRADE         5069685823041301250022101080000000000172716000007415800001735170000000000000000000000000000000000000000000000000000000000000000000000000000000000000000000000000000000000000000000606192200000000000050581520        020007303837000159J0000000000000000000000000000CONSULTOR DE VENDAS 20140801TNE100000000202101082020111420060619N0000000000
M001SOLDI PROMOTORA DE VENDAS LTDA     0100015200008800711LUCIANA VIEIRA MAGALHAES           02BIANCA HILLARY MAGALHAES SALES     CL OLHOS LEIRIA DE ANDRADE         2069685823041301269022101080000000000872416000007415800001735170000000000000000000000000000000000000000000000000000000000000000000000000000000000000000000000000000000000000000000606192200000000000255441520        020007303837000159J0000000000000000000000000000CONSULTOR DE VENDAS 20140801TNE100000000202101082020111420060619N0000000000
M001SOLDI PROMOTORA DE VENDAS LTDA     0100015200008800711LUCIANA VIEIRA MAGALHAES           02BIANCA HILLARY MAGALHAES SALES     CL OLHOS LEIRIA DE ANDRADE         5069685823041501128022101080000000000373816000007415800001735170000000000000000000000000000000000000000000000000000000000000000000000000000000000000000000000000000000000000000000606192200000000000109461520        020007303837000159J0000000000000000000000000000CONSULTOR DE VENDAS 20140801TNE100000000202101082020111420060619N0000000000
M001SOLDI PROMOTORA DE VENDAS LTDA     0100015200008800711LUCIANA VIEIRA MAGALHAES           02BIANCA HILLARY MAGALHAES SALES     CL OLHOS LEIRIA DE ANDRADE         6069685823041301315022101080000000000146416000007415800001735170000000000000000000000000000000000000000000000000000000000000000000000000000000000000000000000000000000000000000000606192200000000000042881520        020007303837000159J0000000000000000000000000000CONSULTOR DE VENDAS 20140801TNE100000000202101082020111420060619N0000000000
