HSINISTROS PAGOS074158200920093001000000001000000000000000000000000000000000000000000000000000000000000000000000000000000000000000000000000000000000000000000000000000000000000000000000000000000000000000000000000000000000000000000000000000000000000000000000000000000000000000000000000000000000000000000000000000000000000000000000000000000000000000000000000000000000000000000000000000000000000 012020092020093000000000000000000000000000000000000000000000000000000000000000000000000000000000000000000000
M001SOLDI PROMOTORA DE VENDAS LTDA     0100000190000110157PALOMA TATO RAMOS                  00PALOMA TATO RAMOS                  PALOMA TATO RAMOS                  10004319325101010120120090200000000003091160000074158000000000000000000000000000000000000000000000000000000000000000000000000000000000000000000000000000000000000000000000000000091032820990000000000905219          000000000000000000 0000000000000000000000000000CONSULTOR DE VENDAS 20110503TNE100000000202009022020080419910328N0000025000
M001SOLDI PROMOTORA DE VENDAS LTDA     0100000190000110157PALOMA TATO RAMOS                  00PALOMA TATO RAMOS                  PALOMA TATO RAMOS                  4   FE5G7H6402020380020090400000000011065160000074158000000000000000000000000000000000000000000000000000000000000000000000000000000000000000000000000000000000000000000000000000091032820990000000003240019          000000000000000000 0000000000000000000000000000CONSULTOR DE VENDAS 20110503TNE100000000202009042020082019910328N0000065000
M001SOLDI PROMOTORA DE VENDAS LTDA     0100000190000110157PALOMA TATO RAMOS                  00PALOMA TATO RAMOS                  LAFE LABORATORIO DE ANALISES CLINIC50688996547403043610120092200000000000258160000074158000086057300000000000000000000000000000000000000000000000000000000000000000000000000000000000000000000000000000000000000000091032820000000000000075819          000019571321000174J0000000000000000000000000000CONSULTOR DE VENDAS 20110503TNE100000000202009222020080619910328N0000000000
M001SOLDI PROMOTORA DE VENDAS LTDA     0100000190000110157PALOMA TATO RAMOS                  00PALOMA TATO RAMOS                  LAFE LABORATORIO DE ANALISES CLINIC50688996543403083910120092200000000000577160000074158000086057300000000000000000000000000000000000000000000000000000000000000000000000000000000000000000000000000000000000000000091032820000000000000169219          000019571321000174J0000000000000000000000000000CONSULTOR DE VENDAS 20110503TNE100000000202009222020080619910328N0000000000
M001SOLDI PROMOTORA DE VENDAS LTDA     0100000190000110157PALOMA TATO RAMOS                  00PALOMA TATO RAMOS                  LAFE LABORATORIO DE ANALISES CLINIC50688996546403043700120092200000000000086160000074158000086057300000000000000000000000000000000000000000000000000000000000000000000000000000000000000000000000000000000000000000091032820000000000000025219          000019571321000174J0000000000000000000000000000CONSULTOR DE VENDAS 20110503TNE100000000202009222020080619910328N0000000000
M001SOLDI PROMOTORA DE VENDAS LTDA     0100000190000110157PALOMA TATO RAMOS                  00PALOMA TATO RAMOS                  LAFE LABORATORIO DE ANALISES CLINIC50688996548403025470120092200000000000172160000074158000086057300000000000000000000000000000000000000000000000000000000000000000000000000000000000000000000000000000000000000000091032820000000000000050419          000019571321000174J0000000000000000000000000000CONSULTOR DE VENDAS 20110503TNE100000000202009222020080619910328N0000000000
M001SOLDI PROMOTORA DE VENDAS LTDA     0100000190000110157PALOMA TATO RAMOS                  00PALOMA TATO RAMOS                  LAFE LABORATORIO DE ANALISES CLINIC50688996548403026950120092200000000000344160000074158000086057300000000000000000000000000000000000000000000000000000000000000000000000000000000000000000000000000000000000000000091032820000000000000101019          000019571321000174J0000000000000000000000000000CONSULTOR DE VENDAS 20110503TNE100000000202009222020080619910328N0000000000
M001SOLDI PROMOTORA DE VENDAS LTDA     0100000190000110157PALOMA TATO RAMOS                  00PALOMA TATO RAMOS                  LAFE LABORATORIO DE ANALISES CLINIC50688996546403021990120092200000000000128160000074158000086057300000000000000000000000000000000000000000000000000000000000000000000000000000000000000000000000000000000000000000091032820000000000000037719          000019571321000174J0000000000000000000000000000CONSULTOR DE VENDAS 20110503TNE100000000202009222020080619910328N0000000000
M001SOLDI PROMOTORA DE VENDAS LTDA     0100000190000110157PALOMA TATO RAMOS                  00PALOMA TATO RAMOS                  LAFE LABORATORIO DE ANALISES CLINIC50688996544403011500120092200000000000120160000074158000086057300000000000000000000000000000000000000000000000000000000000000000000000000000000000000000000000000000000000000000091032820000000000000035419          000019571321000174J0000000000000000000000000000CONSULTOR DE VENDAS 20110503TNE100000000202009222020080619910328N0000000000
M001SOLDI PROMOTORA DE VENDAS LTDA     0100000190000110157PALOMA TATO RAMOS                  00PALOMA TATO RAMOS                  LAFE LABORATORIO DE ANALISES CLINIC50688996544403018850120092200000000000155160000074158000086057300000000000000000000000000000000000000000000000000000000000000000000000000000000000000000000000000000000000000000091032820000000000000045519          000019571321000174J0000000000000000000000000000CONSULTOR DE VENDAS 20110503TNE100000000202009222020080619910328N0000000000
M001SOLDI PROMOTORA DE VENDAS LTDA     0100000190000110157PALOMA TATO RAMOS                  00PALOMA TATO RAMOS                  LAFE LABORATORIO DE ANALISES CLINIC50688996544403019900120092200000000000172160000074158000086057300000000000000000000000000000000000000000000000000000000000000000000000000000000000000000000000000000000000000000091032820000000000000050419          000019571321000174J0000000000000000000000000000CONSULTOR DE VENDAS 20110503TNE100000000202009222020080619910328N0000000000
M001SOLDI PROMOTORA DE VENDAS LTDA     0100000190000110157PALOMA TATO RAMOS                  00PALOMA TATO RAMOS                  LAFE LABORATORIO DE ANALISES CLINIC50688996544403023850120092200000000000129160000074158000086057300000000000000000000000000000000000000000000000000000000000000000000000000000000000000000000000000000000000000000091032820000000000000037919          000019571321000174J0000000000000000000000000000CONSULTOR DE VENDAS 20110503TNE100000000202009222020080619910328N0000000000
M001SOLDI PROMOTORA DE VENDAS LTDA     0100000190000110157PALOMA TATO RAMOS                  00PALOMA TATO RAMOS                  LAFE LABORATORIO DE ANALISES CLINIC50688996544403064370120092200000000000690160000074158000086057300000000000000000000000000000000000000000000000000000000000000000000000000000000000000000000000000000000000000000091032820000000000000202219          000019571321000174J0000000000000000000000000000CONSULTOR DE VENDAS 20110503TNE100000000202009222020080619910328N0000000000
M001SOLDI PROMOTORA DE VENDAS LTDA     0100000190000110157PALOMA TATO RAMOS                  00PALOMA TATO RAMOS                  LAFE LABORATORIO DE ANALISES CLINIC50688996548403016050120092200000000000120160000074158000086057300000000000000000000000000000000000000000000000000000000000000000000000000000000000000000000000000000000000000000091032820000000000000035419          000019571321000174J0000000000000000000000000000CONSULTOR DE VENDAS 20110503TNE100000000202009222020080619910328N0000000000
M001SOLDI PROMOTORA DE VENDAS LTDA     0100000190000110157PALOMA TATO RAMOS                  00PALOMA TATO RAMOS                  LAFE LABORATORIO DE ANALISES CLINIC50688996544403014190120092200000000000171160000074158000086057300000000000000000000000000000000000000000000000000000000000000000000000000000000000000000000000000000000000000000091032820000000000000050319          000019571321000174J0000000000000000000000000000CONSULTOR DE VENDAS 20110503TNE100000000202009222020080619910328N0000000000
M001SOLDI PROMOTORA DE VENDAS LTDA     0100000190000110157PALOMA TATO RAMOS                  00PALOMA TATO RAMOS                  LAFE LABORATORIO DE ANALISES CLINIC50688996548403015910120092200000000000258160000074158000086057300000000000000000000000000000000000000000000000000000000000000000000000000000000000000000000000000000000000000000091032820000000000000075819          000019571321000174J0000000000000000000000000000CONSULTOR DE VENDAS 20110503TNE100000000202009222020080619910328N0000000000
M001SOLDI PROMOTORA DE VENDAS LTDA     0100000190000110157PALOMA TATO RAMOS                  00PALOMA TATO RAMOS                  LAFE LABORATORIO DE ANALISES CLINIC50688996548403016300120092200000000000120160000074158000086057300000000000000000000000000000000000000000000000000000000000000000000000000000000000000000000000000000000000000000091032820000000000000035419          000019571321000174J0000000000000000000000000000CONSULTOR DE VENDAS 20110503TNE100000000202009222020080619910328N0000000000
M001SOLDI PROMOTORA DE VENDAS LTDA     0100000190000110157PALOMA TATO RAMOS                  00PALOMA TATO RAMOS                  LAFE LABORATORIO DE ANALISES CLINIC50688996548403025040120092200000000000120160000074158000086057300000000000000000000000000000000000000000000000000000000000000000000000000000000000000000000000000000000000000000091032820000000000000035419          000019571321000174J0000000000000000000000000000CONSULTOR DE VENDAS 20110503TNE100000000202009222020080619910328N0000000000
M001SOLDI PROMOTORA DE VENDAS LTDA     0100000190000110157PALOMA TATO RAMOS                  00PALOMA TATO RAMOS                  LAFE LABORATORIO DE ANALISES CLINIC50688996548403025120120092200000000000120160000074158000086057300000000000000000000000000000000000000000000000000000000000000000000000000000000000000000000000000000000000000000091032820000000000000035419          000019571321000174J0000000000000000000000000000CONSULTOR DE VENDAS 20110503TNE100000000202009222020080619910328N0000000000
M001SOLDI PROMOTORA DE VENDAS LTDA     0100000190000110157PALOMA TATO RAMOS                  00PALOMA TATO RAMOS                  LAFE LABORATORIO DE ANALISES CLINIC50688996546403010870120092200000000000516160000074158000086057300000000000000000000000000000000000000000000000000000000000000000000000000000000000000000000000000000000000000000091032820000000000000151319          000019571321000174J0000000000000000000000000000CONSULTOR DE VENDAS 20110503TNE100000000202009222020080619910328N0000000000
M001SOLDI PROMOTORA DE VENDAS LTDA     0100000190000110157PALOMA TATO RAMOS                  00PALOMA TATO RAMOS                  LAFE LABORATORIO DE ANALISES CLINIC50688996547403049220120092200000000000301160000074158000086057300000000000000000000000000000000000000000000000000000000000000000000000000000000000000000000000000000000000000000091032820000000000000088219          000019571321000174J0000000000000000000000000000CONSULTOR DE VENDAS 20110503TNE100000000202009222020080619910328N0000000000
M001SOLDI PROMOTORA DE VENDAS LTDA     0100000190000110157PALOMA TATO RAMOS                  00PALOMA TATO RAMOS                  LAFE LABORATORIO DE ANALISES CLINIC50688996544403161060120092200000000000905160000074158000086057300000000000000000000000000000000000000000000000000000000000000000000000000000000000000000000000000000000000000000091032820000000000000265119          000019571321000174J0000000000000000000000000000CONSULTOR DE VENDAS 20110503TNE100000000202009222020080619910328N0000000000
M001SOLDI PROMOTORA DE VENDAS LTDA     0100000190000110157PALOMA TATO RAMOS                  00PALOMA TATO RAMOS                  LAFE LABORATORIO DE ANALISES CLINIC50688996544403164910120092200000000000732160000074158000086057300000000000000000000000000000000000000000000000000000000000000000000000000000000000000000000000000000000000000000091032820000000000000214519          000019571321000174J0000000000000000000000000000CONSULTOR DE VENDAS 20110503TNE100000000202009222020080619910328N0000000000
M001SOLDI PROMOTORA DE VENDAS LTDA     0100000190000110157PALOMA TATO RAMOS                  00PALOMA TATO RAMOS                  LAFE LABORATORIO DE ANALISES CLINIC50688996544403165210120092200000000000732160000074158000086057300000000000000000000000000000000000000000000000000000000000000000000000000000000000000000000000000000000000000000091032820000000000000214519          000019571321000174J0000000000000000000000000000CONSULTOR DE VENDAS 20110503TNE100000000202009222020080619910328N0000000000
M001SOLDI PROMOTORA DE VENDAS LTDA     0100000190000110157PALOMA TATO RAMOS                  00PALOMA TATO RAMOS                  LAFE LABORATORIO DE ANALISES CLINIC50688996546403012810120092200000000000120160000074158000086057300000000000000000000000000000000000000000000000000000000000000000000000000000000000000000000000000000000000000000091032820000000000000035419          000019571321000174J0000000000000000000000000000CONSULTOR DE VENDAS 20110503TNE100000000202009222020080619910328N0000000000
M001SOLDI PROMOTORA DE VENDAS LTDA     0100000190000110157PALOMA TATO RAMOS                  00PALOMA TATO RAMOS                  LAFE LABORATORIO DE ANALISES CLINIC50688996546403018420120092200000000000155160000074158000086057300000000000000000000000000000000000000000000000000000000000000000000000000000000000000000000000000000000000000000091032820000000000000045519          000019571321000174J0000000000000000000000000000CONSULTOR DE VENDAS 20110503TNE100000000202009222020080619910328N0000000000
M001SOLDI PROMOTORA DE VENDAS LTDA     0100000190000110157PALOMA TATO RAMOS                  00PALOMA TATO RAMOS                  LAFE LABORATORIO DE ANALISES CLINIC50688996546403025200120092200000000000344160000074158000086057300000000000000000000000000000000000000000000000000000000000000000000000000000000000000000000000000000000000000000091032820000000000000101019          000019571321000174J0000000000000000000000000000CONSULTOR DE VENDAS 20110503TNE100000000202009222020080619910328N0000000000
M001SOLDI PROMOTORA DE VENDAS LTDA     0100000190000110157PALOMA TATO RAMOS                  00PALOMA TATO RAMOS                  LAFE LABORATORIO DE ANALISES CLINIC50688996546403028300120092200000000000906160000074158000086057300000000000000000000000000000000000000000000000000000000000000000000000000000000000000000000000000000000000000000091032820000000000000265519          000019571321000174J0000000000000000000000000000CONSULTOR DE VENDAS 20110503TNE100000000202009222020080619910328N0000000000
M001SOLDI PROMOTORA DE VENDAS LTDA     0100000190000110157PALOMA TATO RAMOS                  00PALOMA TATO RAMOS                  LAFE LABORATORIO DE ANALISES CLINIC50688996546403162700120092200000000001078160000074158000086057300000000000000000000000000000000000000000000000000000000000000000000000000000000000000000000000000000000000000000091032820000000000000315819          000019571321000174J0000000000000000000000000000CONSULTOR DE VENDAS 20110503TNE100000000202009222020080619910328N0000000000
M001SOLDI PROMOTORA DE VENDAS LTDA     0100000190000110157PALOMA TATO RAMOS                  00PALOMA TATO RAMOS                  LAFE LABORATORIO DE ANALISES CLINIC50688996546403165720120092200000000000732160000074158000086057300000000000000000000000000000000000000000000000000000000000000000000000000000000000000000000000000000000000000000091032820000000000000214519          000019571321000174J0000000000000000000000000000CONSULTOR DE VENDAS 20110503TNE100000000202009222020080619910328N0000000000
M001SOLDI PROMOTORA DE VENDAS LTDA     0100000190000110157PALOMA TATO RAMOS                  00PALOMA TATO RAMOS                  LAFE LABORATORIO DE ANALISES CLINIC50688996547403015590120092200000000000120160000074158000086057300000000000000000000000000000000000000000000000000000000000000000000000000000000000000000000000000000000000000000091032820000000000000035419          000019571321000174J0000000000000000000000000000CONSULTOR DE VENDAS 20110503TNE100000000202009222020080619910328N0000000000
M001SOLDI PROMOTORA DE VENDAS LTDA     0100000190000110157PALOMA TATO RAMOS                  00PALOMA TATO RAMOS                  LAFE LABORATORIO DE ANALISES CLINIC50688996547403020400120092200000000000120160000074158000086057300000000000000000000000000000000000000000000000000000000000000000000000000000000000000000000000000000000000000000091032820000000000000035419          000019571321000174J0000000000000000000000000000CONSULTOR DE VENDAS 20110503TNE100000000202009222020080619910328N0000000000
M001SOLDI PROMOTORA DE VENDAS LTDA     0100000190000110157PALOMA TATO RAMOS                  00PALOMA TATO RAMOS                  LAFE LABORATORIO DE ANALISES CLINIC50688996547403020750120092200000000000387160000074158000086057300000000000000000000000000000000000000000000000000000000000000000000000000000000000000000000000000000000000000000091032820000000000000113619          000019571321000174J0000000000000000000000000000CONSULTOR DE VENDAS 20110503TNE100000000202009222020080619910328N0000000000
M001SOLDI PROMOTORA DE VENDAS LTDA     0100000190000110157PALOMA TATO RAMOS                  00PALOMA TATO RAMOS                  LAFE LABORATORIO DE ANALISES CLINIC50688996547403023180120092200000000000120160000074158000086057300000000000000000000000000000000000000000000000000000000000000000000000000000000000000000000000000000000000000000091032820000000000000035419          000019571321000174J0000000000000000000000000000CONSULTOR DE VENDAS 20110503TNE100000000202009222020080619910328N0000000000
M001SOLDI PROMOTORA DE VENDAS LTDA     0100000190000110157PALOMA TATO RAMOS                  00PALOMA TATO RAMOS                  LAFE LABORATORIO DE ANALISES CLINIC50688996547403024230120092200000000000120160000074158000086057300000000000000000000000000000000000000000000000000000000000000000000000000000000000000000000000000000000000000000091032820000000000000035419          000019571321000174J0000000000000000000000000000CONSULTOR DE VENDAS 20110503TNE100000000202009222020080619910328N0000000000
M001SOLDI PROMOTORA DE VENDAS LTDA     0100000190000110157PALOMA TATO RAMOS                  00PALOMA TATO RAMOS                  LAFE LABORATORIO DE ANALISES CLINIC50688996547403025800120092200000000000120160000074158000086057300000000000000000000000000000000000000000000000000000000000000000000000000000000000000000000000000000000000000000091032820000000000000035419          000019571321000174J0000000000000000000000000000CONSULTOR DE VENDAS 20110503TNE100000000202009222020080619910328N0000000000
M001SOLDI PROMOTORA DE VENDAS LTDA     0100000190000110157PALOMA TATO RAMOS                  00PALOMA TATO RAMOS                  LAFE LABORATORIO DE ANALISES CLINIC50688996547403163600120092200000000000474160000074158000086057300000000000000000000000000000000000000000000000000000000000000000000000000000000000000000000000000000000000000000091032820000000000000138919          000019571321000174J0000000000000000000000000000CONSULTOR DE VENDAS 20110503TNE100000000202009222020080619910328N0000000000
M001SOLDI PROMOTORA DE VENDAS LTDA     0100000190000110157PALOMA TATO RAMOS                  00PALOMA TATO RAMOS                  LAFE LABORATORIO DE ANALISES CLINIC50688996548403013970120092200000000000129160000074158000086057300000000000000000000000000000000000000000000000000000000000000000000000000000000000000000000000000000000000000000091032820000000000000037919          000019571321000174J0000000000000000000000000000CONSULTOR DE VENDAS 20110503TNE100000000202009222020080619910328N0000000000
M001SOLDI PROMOTORA DE VENDAS LTDA     0100000190000110157PALOMA TATO RAMOS                  00PALOMA TATO RAMOS                  LAFE LABORATORIO DE ANALISES CLINIC50688996548403015830120092200000000000215160000074158000086057300000000000000000000000000000000000000000000000000000000000000000000000000000000000000000000000000000000000000000091032820000000000000063219          000019571321000174J0000000000000000000000000000CONSULTOR DE VENDAS 20110503TNE100000000202009222020080619910328N0000000000
M001SOLDI PROMOTORA DE VENDAS LTDA     0100000190000110157PALOMA TATO RAMOS                  00PALOMA TATO RAMOS                  CLINICA OTO ALERGICA               10018757146101010120020092300000000003415160000074158000006500200000000000000000000000000000000000000000000000000000000000000000000000000000000000000000000000000000000000000000091032820000000000001000019          000005503967000100J0000000000000000000000000000CONSULTOR DE VENDAS 20110503TNE100000000202009232020081719910328N0000000000
M001SOLDI PROMOTORA DE VENDAS LTDA     0100000190000110157PALOMA TATO RAMOS                  01ANTONIO CARLOS FRAGA DE JESUS      HOSPITAL SAO RAFAEL                50689338738408050260120092900000000001358160000074158000010080300000000000000000000000000000000000000000000000000000000000000000000000000000000000000000000000000000000000000000079061411000000000000397819          010027372066000169J0000000000000000000000000000CONSULTOR DE VENDAS 20110503TNE100000000202009292020080819790614N0000000000
M001SOLDI PROMOTORA DE VENDAS LTDA     0100000190000110157PALOMA TATO RAMOS                  01ANTONIO CARLOS FRAGA DE JESUS      HOSPITAL SAO RAFAEL                60689338723401010370120092900000000004567160000074158000010080300000000000000000000000000000000000000000000000000000000000000000000000000000000000000000000000000000000000000000079061411000000000001337419          010027372066000169J0000000000000000000000000000CONSULTOR DE VENDAS 20110503TNE100000000202009292020080819790614N0000000000
M001SOLDI PROMOTORA DE VENDAS LTDA     0100000190000110157PALOMA TATO RAMOS                  01ANTONIO CARLOS FRAGA DE JESUS      HOSPITAL SAO RAFAEL                50689338573401010100120092900000000000855160000074158000010080300000000000000000000000000000000000000000000000000000000000000000000000000000000000000000000000000000000000000000079061411000000000000250519          010027372066000169J0000000000000000000000000000CONSULTOR DE VENDAS 20110503TNE100000000202009292020080119790614N0000000000
M001SOLDI PROMOTORA DE VENDAS LTDA     0100000860000111116ALINE GONCALVES ALBUQUERQUE        00ALINE GONCALVES ALBUQUERQUE        SEMIU                              10687350098101010390120090100000000003415160000074158000027091100000000000000000000000000000000000000000000000000000000000000000000000000000000000000000000000000000000000000000078020920000000000001000086          000034165969000134J0000000000000000000000000000SUPERVISOR DE VENDAS20101206TNQ200000000202009012020071419780209N0000000000
M001SOLDI PROMOTORA DE VENDAS LTDA     0100000860000111116ALINE GONCALVES ALBUQUERQUE        00ALINE GONCALVES ALBUQUERQUE        SEMIU                              50687350098408010630120090100000000001007160000074158000027091100000000000000000000000000000000000000000000000000000000000000000000000000000000000000000000000000000000000000000078020920000000000000294986          000034165969000134J0000000000000000000000000000SUPERVISOR DE VENDAS20101206TNQ200000000202009012020071419780209N0000000000
M001SOLDI PROMOTORA DE VENDAS LTDA     0100001320000118002JOSE LEITE RIBEIRO TAVARES         03ILANA DE MEDEIROS TAVARES LEITE    ESPACO INTEGRAR                    206888955365000046201200922000000000015931600000741580000930792000000000000000000000000000000000000000000000000000000000000000000000000000000000000000000000000000000000000000000100615220000000000004665132         030011422364000186J0000000000000000000000000000GERENTE COMERCIAL I 20080218TNQ200000000202009222020070720100615N0000000000
M001SOLDI PROMOTORA DE VENDAS LTDA     0100001320000118002JOSE LEITE RIBEIRO TAVARES         03ILANA DE MEDEIROS TAVARES LEITE    ESPACO INTEGRAR                    206888955485000047001200922000000000014501600000741580000930792000000000000000000000000000000000000000000000000000000000000000000000000000000000000000000000000000000000000000000100615220000000000004246132         030011422364000186J0000000000000000000000000000GERENTE COMERCIAL I 20080218TNQ200000000202009222020070920100615N0000000000
M001SOLDI PROMOTORA DE VENDAS LTDA     0100001320000118002JOSE LEITE RIBEIRO TAVARES         03ILANA DE MEDEIROS TAVARES LEITE    ESPACO INTEGRAR                    206888955485000047001200922000000000014501600000741580000930792000000000000000000000000000000000000000000000000000000000000000000000000000000000000000000000000000000000000000000100615220000000000004246132         030011422364000186J0000000000000000000000000000GERENTE COMERCIAL I 20080218TNQ200000000202009222020070920100615N0000000000
M001SOLDI PROMOTORA DE VENDAS LTDA     0100001320000118002JOSE LEITE RIBEIRO TAVARES         03ILANA DE MEDEIROS TAVARES LEITE    ESPACO INTEGRAR                    206888955485000047001200922000000000014501600000741580000930792000000000000000000000000000000000000000000000000000000000000000000000000000000000000000000000000000000000000000000100615220000000000004246132         030011422364000186J0000000000000000000000000000GERENTE COMERCIAL I 20080218TNQ200000000202009222020070920100615N0000000000
M001SOLDI PROMOTORA DE VENDAS LTDA     0100001320000118002JOSE LEITE RIBEIRO TAVARES         03ILANA DE MEDEIROS TAVARES LEITE    ESPACO INTEGRAR                    206888955485000047001200922000000000014501600000741580000930792000000000000000000000000000000000000000000000000000000000000000000000000000000000000000000000000000000000000000000100615220000000000004246132         030011422364000186J0000000000000000000000000000GERENTE COMERCIAL I 20080218TNQ200000000202009222020070920100615N0000000000
M001SOLDI PROMOTORA DE VENDAS LTDA     0100001320000118002JOSE LEITE RIBEIRO TAVARES         00JOSE LEITE RIBEIRO TAVARES         MARIA ROZIVERA ARAUJO RODRIGUES    101287987061010101200200923000000000034151600000741582324004600000000000000000000000000000000000000000000000000000000000000000000000000000000000000000000000000000000000000000000710927102400000000010000132         000000012684015449F0000000000000000000000000000GERENTE COMERCIAL I 20080218TNQ200000000202009232020082619710927N0000000000
M001SOLDI PROMOTORA DE VENDAS LTDA     0100001590000118023THALITA MENDES DE ALMEIDA LIMA     00THALITA MENDES DE ALMEIDA LIMA     LUPPA                              506887734124060113701200921000000000012541600000741580000207977000000000000000000000000000000000000000000000000000000000000000000000000000000000000000000000000000000000000000000891208200000000000003674159         000008406456000168J0000000000000000000000000000CONSULTOR DE VENDAS 20110110TNE100000000202009212020080419891208N0000000000
M001SOLDI PROMOTORA DE VENDAS LTDA     0100001590000118023THALITA MENDES DE ALMEIDA LIMA     00THALITA MENDES DE ALMEIDA LIMA     COOPECIR                           100187287451010101200200921000000000036541600000741580000215198000000000000000000000000000000000000000000000000000000000000000000000000000000000000000000000000000000000000000000891208200000000000010700159         000001236433000103J0000000000000000000000000000CONSULTOR DE VENDAS 20110110TNE100000000202009212020081719891208N0000000000
M001SOLDI PROMOTORA DE VENDAS LTDA     0100001590000118023THALITA MENDES DE ALMEIDA LIMA     00THALITA MENDES DE ALMEIDA LIMA     CLIM                               106892298281010103901200928000000000034151600000741580000306711000000000000000000000000000000000000000000000000000000000000000000000000000000000000000000000000000000000000000000891208200000000000010000159         000041226432000100J0000000000000000000000000000CONSULTOR DE VENDAS 20110110TNE100000000202009282020080419891208N0000000000
M001SOLDI PROMOTORA DE VENDAS LTDA     0100001830000119012MARINALVA DE FREITAS COSTA         02BRYAN DE FREITAS SOUSA             CLINICA CAMPOS ELISIOS             206580044648400014701200901000000000015360000000741580000173797000000000000000000000000000000000000000000000000000000000000000000000000000000000000000000000000000000000000000000190208120000000000004500183         020003963412000115J0000000000000000000000000000SUPERVISOR DE VENDAS20090720TNE100000000202009012019050320190208N0000000000
M001SOLDI PROMOTORA DE VENDAS LTDA     0100002050000120018ANDREZA SANTOS HUMSI RAYES         00ANDREZA SANTOS HUMSI RAYES         LABORATORIO BIOCLINICO             506884420114030254701200915000000000002411600000741580000129976000000000000000000000000000000000000000000000000000000000000000000000000000000000000000000000000000000000000000000761030200000000000000707205         000001563691000102J0000000000000000000000000000CONSULTOR DE VENDAS 20100809TNE100000000202009152020073119761030N0000000000
M001SOLDI PROMOTORA DE VENDAS LTDA     0100002050000120018ANDREZA SANTOS HUMSI RAYES         00ANDREZA SANTOS HUMSI RAYES         LABORATORIO BIOCLINICO             506884420114030437001200915000000000001211600000741580000129976000000000000000000000000000000000000000000000000000000000000000000000000000000000000000000000000000000000000000000761030200000000000000355205         000001563691000102J0000000000000000000000000000CONSULTOR DE VENDAS 20100809TNE100000000202009152020073119761030N0000000000
M001SOLDI PROMOTORA DE VENDAS LTDA     0100002050000120018ANDREZA SANTOS HUMSI RAYES         00ANDREZA SANTOS HUMSI RAYES         LABORATORIO BIOCLINICO             506884419324031642401200915000000000024161600000741580000129976000000000000000000000000000000000000000000000000000000000000000000000000000000000000000000000000000000000000000000761030200000000000007076205         000001563691000102J0000000000000000000000000000CONSULTOR DE VENDAS 20100809TNE100000000202009152020072219761030N0000000000
M001SOLDI PROMOTORA DE VENDAS LTDA     0100002050000120018ANDREZA SANTOS HUMSI RAYES         00ANDREZA SANTOS HUMSI RAYES         LABORATORIO BIOCLINICO             506884420114030204001200915000000000001691600000741580000129976000000000000000000000000000000000000000000000000000000000000000000000000000000000000000000000000000000000000000000761030200000000000000496205         000001563691000102J0000000000000000000000000000CONSULTOR DE VENDAS 20100809TNE100000000202009152020073119761030N0000000000
M001SOLDI PROMOTORA DE VENDAS LTDA     0100002050000120018ANDREZA SANTOS HUMSI RAYES         00ANDREZA SANTOS HUMSI RAYES         LABORATORIO BIOCLINICO             506884420114030223701200915000000000001931600000741580000129976000000000000000000000000000000000000000000000000000000000000000000000000000000000000000000000000000000000000000000761030200000000000000566205         000001563691000102J0000000000000000000000000000CONSULTOR DE VENDAS 20100809TNE100000000202009152020073119761030N0000000000
M001SOLDI PROMOTORA DE VENDAS LTDA     0100002050000120018ANDREZA SANTOS HUMSI RAYES         00ANDREZA SANTOS HUMSI RAYES         LABORATORIO BIOCLINICO             506884420114030115001200915000000000001691600000741580000129976000000000000000000000000000000000000000000000000000000000000000000000000000000000000000000000000000000000000000000761030200000000000000496205         000001563691000102J0000000000000000000000000000CONSULTOR DE VENDAS 20100809TNE100000000202009152020073119761030N0000000000
M001SOLDI PROMOTORA DE VENDAS LTDA     0100002050000120018ANDREZA SANTOS HUMSI RAYES         00ANDREZA SANTOS HUMSI RAYES         LABORATORIO BIOCLINICO             506884420114030122201200915000000000001211600000741580000129976000000000000000000000000000000000000000000000000000000000000000000000000000000000000000000000000000000000000000000761030200000000000000355205         000001563691000102J0000000000000000000000000000CONSULTOR DE VENDAS 20100809TNE100000000202009152020073119761030N0000000000
M001SOLDI PROMOTORA DE VENDAS LTDA     0100002050000120018ANDREZA SANTOS HUMSI RAYES         00ANDREZA SANTOS HUMSI RAYES         LABORATORIO BIOCLINICO             506884420114030158301200915000000000003021600000741580000129976000000000000000000000000000000000000000000000000000000000000000000000000000000000000000000000000000000000000000000761030200000000000000886205         000001563691000102J0000000000000000000000000000CONSULTOR DE VENDAS 20100809TNE100000000202009152020073119761030N0000000000
M001SOLDI PROMOTORA DE VENDAS LTDA     0100002050000120018ANDREZA SANTOS HUMSI RAYES         00ANDREZA SANTOS HUMSI RAYES         LABORATORIO BIOCLINICO             506884420114030160501200915000000000001691600000741580000129976000000000000000000000000000000000000000000000000000000000000000000000000000000000000000000000000000000000000000000761030200000000000000496205         000001563691000102J0000000000000000000000000000CONSULTOR DE VENDAS 20100809TNE100000000202009152020073119761030N0000000000
M001SOLDI PROMOTORA DE VENDAS LTDA     0100002050000120018ANDREZA SANTOS HUMSI RAYES         00ANDREZA SANTOS HUMSI RAYES         LABORATORIO BIOCLINICO             506884420114030163001200915000000000001691600000741580000129976000000000000000000000000000000000000000000000000000000000000000000000000000000000000000000000000000000000000000000761030200000000000000496205         000001563691000102J0000000000000000000000000000CONSULTOR DE VENDAS 20100809TNE100000000202009152020073119761030N0000000000
M001SOLDI PROMOTORA DE VENDAS LTDA     0100002050000120018ANDREZA SANTOS HUMSI RAYES         00ANDREZA SANTOS HUMSI RAYES         LABORATORIO BIOCLINICO             506884420114030164801200915000000000006041600000741580000129976000000000000000000000000000000000000000000000000000000000000000000000000000000000000000000000000000000000000000000761030200000000000001770205         000001563691000102J0000000000000000000000000000CONSULTOR DE VENDAS 20100809TNE100000000202009152020073119761030N0000000000
M001SOLDI PROMOTORA DE VENDAS LTDA     0100002050000120018ANDREZA SANTOS HUMSI RAYES         00ANDREZA SANTOS HUMSI RAYES         LABORATORIO BIOCLINICO             506884420114030195801200915000000000005171600000741580000129976000000000000000000000000000000000000000000000000000000000000000000000000000000000000000000000000000000000000000000761030200000000000001515205         000001563691000102J0000000000000000000000000000CONSULTOR DE VENDAS 20100809TNE100000000202009152020073119761030N0000000000
M001SOLDI PROMOTORA DE VENDAS LTDA     0100002050000120018ANDREZA SANTOS HUMSI RAYES         00ANDREZA SANTOS HUMSI RAYES         LABORATORIO BIOCLINICO             506884419324031652101200915000000000010261600000741580000129976000000000000000000000000000000000000000000000000000000000000000000000000000000000000000000000000000000000000000000761030200000000000003006205         000001563691000102J0000000000000000000000000000CONSULTOR DE VENDAS 20100809TNE100000000202009152020072219761030N0000000000
M001SOLDI PROMOTORA DE VENDAS LTDA     0100002050000120018ANDREZA SANTOS HUMSI RAYES         00ANDREZA SANTOS HUMSI RAYES         LABORATORIO BIOCLINICO             506884420114030231801200915000000000001691600000741580000129976000000000000000000000000000000000000000000000000000000000000000000000000000000000000000000000000000000000000000000761030200000000000000496205         000001563691000102J0000000000000000000000000000CONSULTOR DE VENDAS 20100809TNE100000000202009152020073119761030N0000000000
M001SOLDI PROMOTORA DE VENDAS LTDA     0100002050000120018ANDREZA SANTOS HUMSI RAYES         00ANDREZA SANTOS HUMSI RAYES         LABORATORIO BIOCLINICO             506884420114030435301200915000000000003261600000741580000129976000000000000000000000000000000000000000000000000000000000000000000000000000000000000000000000000000000000000000000761030200000000000000956205         000001563691000102J0000000000000000000000000000CONSULTOR DE VENDAS 20100809TNE100000000202009152020073119761030N0000000000
M001SOLDI PROMOTORA DE VENDAS LTDA     0100002050000120018ANDREZA SANTOS HUMSI RAYES         00ANDREZA SANTOS HUMSI RAYES         LABORATORIO BIOCLINICO             506884420114030436101200915000000000003621600000741580000129976000000000000000000000000000000000000000000000000000000000000000000000000000000000000000000000000000000000000000000761030200000000000001062205         000001563691000102J0000000000000000000000000000CONSULTOR DE VENDAS 20100809TNE100000000202009152020073119761030N0000000000
M001SOLDI PROMOTORA DE VENDAS LTDA     0100002050000120018ANDREZA SANTOS HUMSI RAYES         00ANDREZA SANTOS HUMSI RAYES         LABORATORIO BIOCLINICO             506884420114031121001200915000000000001691600000741580000129976000000000000000000000000000000000000000000000000000000000000000000000000000000000000000000000000000000000000000000761030200000000000000496205         000001563691000102J0000000000000000000000000000CONSULTOR DE VENDAS 20100809TNE100000000202009152020073119761030N0000000000
M001SOLDI PROMOTORA DE VENDAS LTDA     0100002050000120018ANDREZA SANTOS HUMSI RAYES         00ANDREZA SANTOS HUMSI RAYES         LABORATORIO BIOCLINICO             506884420114031627001200915000000000015101600000741580000129976000000000000000000000000000000000000000000000000000000000000000000000000000000000000000000000000000000000000000000761030200000000000004424205         000001563691000102J0000000000000000000000000000CONSULTOR DE VENDAS 20100809TNE100000000202009152020073119761030N0000000000
M001SOLDI PROMOTORA DE VENDAS LTDA     0100002050000120018ANDREZA SANTOS HUMSI RAYES         00ANDREZA SANTOS HUMSI RAYES         LABORATORIO BIOCLINICO             506884420114031657201200915000000000010261600000741580000129976000000000000000000000000000000000000000000000000000000000000000000000000000000000000000000000000000000000000000000761030200000000000003006205         000001563691000102J0000000000000000000000000000CONSULTOR DE VENDAS 20100809TNE100000000202009152020073119761030N0000000000
M001SOLDI PROMOTORA DE VENDAS LTDA     0100002050000120018ANDREZA SANTOS HUMSI RAYES         00ANDREZA SANTOS HUMSI RAYES         LABORATORIO BIOCLINICO             506884419324030250401200915000000000001691600000741580000129976000000000000000000000000000000000000000000000000000000000000000000000000000000000000000000000000000000000000000000761030200000000000000496205         000001563691000102J0000000000000000000000000000CONSULTOR DE VENDAS 20100809TNE100000000202009152020072219761030N0000000000
M001SOLDI PROMOTORA DE VENDAS LTDA     0100002050000120018ANDREZA SANTOS HUMSI RAYES         00ANDREZA SANTOS HUMSI RAYES         LABORATORIO BIOCLINICO             506884419324030251201200915000000000001691600000741580000129976000000000000000000000000000000000000000000000000000000000000000000000000000000000000000000000000000000000000000000761030200000000000000496205         000001563691000102J0000000000000000000000000000CONSULTOR DE VENDAS 20100809TNE100000000202009152020072219761030N0000000000
M001SOLDI PROMOTORA DE VENDAS LTDA     0100002050000120018ANDREZA SANTOS HUMSI RAYES         00ANDREZA SANTOS HUMSI RAYES         LABORATORIO BIOCLINICO             506884419324030140001200915000000000001691600000741580000129976000000000000000000000000000000000000000000000000000000000000000000000000000000000000000000000000000000000000000000761030200000000000000496205         000001563691000102J0000000000000000000000000000CONSULTOR DE VENDAS 20100809TNE100000000202009152020072219761030N0000000000
M001SOLDI PROMOTORA DE VENDAS LTDA     0100002050000120018ANDREZA SANTOS HUMSI RAYES         00ANDREZA SANTOS HUMSI RAYES         LABORATORIO BIOCLINICO             506884419324030141901200915000000000002401600000741580000129976000000000000000000000000000000000000000000000000000000000000000000000000000000000000000000000000000000000000000000761030200000000000000705205         000001563691000102J0000000000000000000000000000CONSULTOR DE VENDAS 20100809TNE100000000202009152020072219761030N0000000000
M001SOLDI PROMOTORA DE VENDAS LTDA     0100002050000120018ANDREZA SANTOS HUMSI RAYES         00ANDREZA SANTOS HUMSI RAYES         LABORATORIO BIOCLINICO             506884419324030188501200915000000000002171600000741580000129976000000000000000000000000000000000000000000000000000000000000000000000000000000000000000000000000000000000000000000761030200000000000000638205         000001563691000102J0000000000000000000000000000CONSULTOR DE VENDAS 20100809TNE100000000202009152020072219761030N0000000000
M001SOLDI PROMOTORA DE VENDAS LTDA     0100002050000120018ANDREZA SANTOS HUMSI RAYES         01NICOLE B SANTOS RAYES FRANCISCO    HOSPITAL NOSSO LAR                 106886952121010101201200918000000000034151600000741580000433810000000000000000000000000000000000000000000000000000000000000000000000000000000000000000000000000000000000000000000150427220000000000010000205         010003267101000464J0000000000000000000000000000CONSULTOR DE VENDAS 20100809TNE100000000202009182020070320150427N0000000000
M001SOLDI PROMOTORA DE VENDAS LTDA     0100002640000013086ANTONIA DE SOUSA GOMES FEIJAO      00ANTONIA DE SOUSA GOMES FEIJAO      PROSAUDE                           506875985344030275001200903000000000008451600000741580000089903000000000000000000000000000000000000000000000000000000000000000000000000000000000000000000000000000000000000000000601013200000000000002475264         000002355330000125J0000000000000000000000000000AUXILIAR DE SERVICOS20100503TNE100000000202009032020072019601013N0000000000
M001SOLDI PROMOTORA DE VENDAS LTDA     0100002640000013086ANTONIA DE SOUSA GOMES FEIJAO      00ANTONIA DE SOUSA GOMES FEIJAO      LABS A + MEDICINA DIAGNOSTICA      606877220274010103701200904000000000044591600000741580000697672000000000000000000000000000000000000000000000000000000000000000000000000000000000000000000000000000000000000000000601013200000000000013056264         000060840055025398J0000000000000000000000000000AUXILIAR DE SERVICOS20100503TNE100000000202009042020072819601013N0000000000
M001SOLDI PROMOTORA DE VENDAS LTDA     0100002640000013086ANTONIA DE SOUSA GOMES FEIJAO      01ANTONIO EGBERTO FEIJAO             PROSAUDE                           191283208281010101200200910000000000034151600000741580000887927000000000000000000000000000000000000000000000000000000000000000000000000000000000000000000000000000000000000000000550607110000000000010000264         010002355330000125J0000000000000000000000000000AUXILIAR DE SERVICOS20100503TNE100000000202009102020082419550607N0000000000
M001SOLDI PROMOTORA DE VENDAS LTDA     0100002640000013086ANTONIA DE SOUSA GOMES FEIJAO      00ANTONIA DE SOUSA GOMES FEIJAO      MONALIZA GOMES DE CARVALHO         101224865581010101200200914000000000034151600000741580038034000000000000000000000000000000000000000000000000000000000000000000000000000000000000000000000000000000000000000000000601013203800000000010000264         000000072921889749F0000000000000000000000000000AUXILIAR DE SERVICOS20100503TNE100000000202009142020081719601013N0000000000
M001SOLDI PROMOTORA DE VENDAS LTDA     0100002640000013086ANTONIA DE SOUSA GOMES FEIJAO      01ANTONIO EGBERTO FEIJAO             PROSAUDE                           506893010284030258001200929000000000001691600000741580000089903000000000000000000000000000000000000000000000000000000000000000000000000000000000000000000000000000000000000000000550607110000000000000496264         010002355330000125J0000000000000000000000000000AUXILIAR DE SERVICOS20100503TNE100000000202009292020081119550607N0000000000
M001SOLDI PROMOTORA DE VENDAS LTDA     0100002640000013086ANTONIA DE SOUSA GOMES FEIJAO      01ANTONIO EGBERTO FEIJAO             PROSAUDE                           506893010284030273301200929000000000013911600000741580000089903000000000000000000000000000000000000000000000000000000000000000000000000000000000000000000000000000000000000000000550607110000000000004073264         010002355330000125J0000000000000000000000000000AUXILIAR DE SERVICOS20100503TNE100000000202009292020081119550607N0000000000
M001SOLDI PROMOTORA DE VENDAS LTDA     0100002640000013086ANTONIA DE SOUSA GOMES FEIJAO      01ANTONIO EGBERTO FEIJAO             PROSAUDE                           506893010284030204001200929000000000001691600000741580000089903000000000000000000000000000000000000000000000000000000000000000000000000000000000000000000000000000000000000000000550607110000000000000496264         010002355330000125J0000000000000000000000000000AUXILIAR DE SERVICOS20100503TNE100000000202009292020081119550607N0000000000
M001SOLDI PROMOTORA DE VENDAS LTDA     0100002640000013086ANTONIA DE SOUSA GOMES FEIJAO      01ANTONIO EGBERTO FEIJAO             PROSAUDE                           506893010284030163001200929000000000001641600000741580000089903000000000000000000000000000000000000000000000000000000000000000000000000000000000000000000000000000000000000000000550607110000000000000481264         010002355330000125J0000000000000000000000000000AUXILIAR DE SERVICOS20100503TNE100000000202009292020081119550607N0000000000
M001SOLDI PROMOTORA DE VENDAS LTDA     0100002640000013086ANTONIA DE SOUSA GOMES FEIJAO      00ANTONIA DE SOUSA GOMES FEIJAO      SAMCORDIS                          206885630793401999101200930000000000008820000000741580000134716000000000000000000000000000000000000000000000000000000000000000000000000000000000000000000000000000000000000000000601013200000000000002583264         000030358881000188J0000000000000000000000000000AUXILIAR DE SERVICOS20100503TNE100000000202009302020071819601013N0000000000
M001SOLDI PROMOTORA DE VENDAS LTDA     0100002640000013086ANTONIA DE SOUSA GOMES FEIJAO      00ANTONIA DE SOUSA GOMES FEIJAO      SAMCORDIS                          206885630793401999201200930000000000000140000000741580000134716000000000000000000000000000000000000000000000000000000000000000000000000000000000000000000000000000000000000000000601013200000000000000042264         000030358881000188J0000000000000000000000000000AUXILIAR DE SERVICOS20100503TNE100000000202009302020071819601013N0000000000
M001SOLDI PROMOTORA DE VENDAS LTDA     0100002640000013086ANTONIA DE SOUSA GOMES FEIJAO      00ANTONIA DE SOUSA GOMES FEIJAO      SAMCORDIS                          106885630791010103901200930000000000031821600000741580000134716000000000000000000000000000000000000000000000000000000000000000000000000000000000000000000000000000000000000000000601013200000000000009318264         000030358881000188J0000000000000000000000000000AUXILIAR DE SERVICOS20100503TNE100000000202009302020071819601013N0000000000
M001SOLDI PROMOTORA DE VENDAS LTDA     0100002640000013086ANTONIA DE SOUSA GOMES FEIJAO      00ANTONIA DE SOUSA GOMES FEIJAO      SAMCORDIS                          506885630794030166401200930000000000012081600000741580000134716000000000000000000000000000000000000000000000000000000000000000000000000000000000000000000000000000000000000000000601013200000000000003538264         000030358881000188J0000000000000000000000000000AUXILIAR DE SERVICOS20100503TNE100000000202009302020071819601013N0000000000
M001SOLDI PROMOTORA DE VENDAS LTDA     0100002640000013086ANTONIA DE SOUSA GOMES FEIJAO      00ANTONIA DE SOUSA GOMES FEIJAO      SAMCORDIS                          506885630794030257101200930000000000007851600000741580000134716000000000000000000000000000000000000000000000000000000000000000000000000000000000000000000000000000000000000000000601013200000000000002300264         000030358881000188J0000000000000000000000000000AUXILIAR DE SERVICOS20100503TNE100000000202009302020071819601013N0000000000
M001SOLDI PROMOTORA DE VENDAS LTDA     0100002640000013086ANTONIA DE SOUSA GOMES FEIJAO      00ANTONIA DE SOUSA GOMES FEIJAO      SAMCORDIS                          506885630794030436101200930000000000003621600000741580000134716000000000000000000000000000000000000000000000000000000000000000000000000000000000000000000000000000000000000000000601013200000000000001062264         000030358881000188J0000000000000000000000000000AUXILIAR DE SERVICOS20100503TNE100000000202009302020071819601013N0000000000
M001SOLDI PROMOTORA DE VENDAS LTDA     0100002800000013097SAMUEL DE FRANCA PESSOA JUNIOR     01ALESSANDRA RODRIGUES BARROS        CLIN NEUR ELET NOVA IGUACU         506875933244010319601200903000000000057031600000741580000048321000000000000000000000000000000000000000000000000000000000000000000000000000000000000000000000000000000000000000000920512210000000000016700280         010029108628000197J0000000000000000000000000000CONSULTOR DE VENDAS 20110317TNE100000000202009032020072019920512N0000000000
M001SOLDI PROMOTORA DE VENDAS LTDA     0100002800000013097SAMUEL DE FRANCA PESSOA JUNIOR     01ALESSANDRA RODRIGUES BARROS        LABORATORIO BRONSTEIN              506886789154060113701200918000000000011971600000741580000281972000000000000000000000000000000000000000000000000000000000000000000000000000000000000000000000000000000000000000000920512210000000000003507280         010061486650005061J0000000000000000000000000000CONSULTOR DE VENDAS 20110317TNE100000000202009182020080519920512N0000000000
M001SOLDI PROMOTORA DE VENDAS LTDA     0100002800000013097SAMUEL DE FRANCA PESSOA JUNIOR     01ALESSANDRA RODRIGUES BARROS        CRISTIANE ALVES PADAO              101226682831010101200200924000000000034151600000741581926431300000000000000000000000000000000000000000000000000000000000000000000000000000000000000000000000000000000000000000000920512212600000000010000280         010000091619939720F0000000000000000000000000000CONSULTOR DE VENDAS 20110317TNE100000000202009242020082619920512N0000000000
M001SOLDI PROMOTORA DE VENDAS LTDA     0100002800000013097SAMUEL DE FRANCA PESSOA JUNIOR     00SAMUEL DE FRANCA PESSOA JUNIOR     ALERGO AR                          101322002121010101200200928000000000034151600000741580000770702000000000000000000000000000000000000000000000000000000000000000000000000000000000000000000000000000000000000000000830427200000000000010000280         000030091191000105J0000000000000000000000000000CONSULTOR DE VENDAS 20110317TNE100000000202009282020091219830427N0000000000
M001SOLDI PROMOTORA DE VENDAS LTDA     0100003020000133127ANA PAULA RODRIGUES BRAGA RAMALHO  00ANA PAULA RODRIGUES BRAGA RAMALHO  CASA DE SAUDE SAO LUCAS            206872966248400040601200901000000000099450000000741580000042919000000000000000000000000000000000000000000000000000000000000000000000000000000000000000000000000000000000000000000880812200000000000029120302         000008319329000121J0000000000000000000000000000CONSULTOR DE VENDAS 20100601TNE100000000202009012020070719880812N0000000000
M001SOLDI PROMOTORA DE VENDAS LTDA     0100003020000133127ANA PAULA RODRIGUES BRAGA RAMALHO  00ANA PAULA RODRIGUES BRAGA RAMALHO  CASA DE SAUDE SAO LUCAS            506872966244031461801200901000000000051231600000741580000042919000000000000000000000000000000000000000000000000000000000000000000000000000000000000000000000000000000000000000000880812200000000000015000302         000008319329000121J0000000000000000000000000000CONSULTOR DE VENDAS 20100601TNE100000000202009012020070719880812N0000000000
M001SOLDI PROMOTORA DE VENDAS LTDA     0100003020000133127ANA PAULA RODRIGUES BRAGA RAMALHO  00ANA PAULA RODRIGUES BRAGA RAMALHO  DNA CENTER                         506886468584031461801200917000000000095631600000741580000937479000000000000000000000000000000000000000000000000000000000000000000000000000000000000000000000000000000000000000000880812200000000000028000302         000003787962000120J0000000000000000000000000000CONSULTOR DE VENDAS 20100601TNE100000000202009172020071619880812N0000000000
M001SOLDI PROMOTORA DE VENDAS LTDA     0100003290000133158CARLA C GUILHERME SILVA MARQUES    01JOSE WELLINGTON MARQUES            OTOCLINIC                          706875087972010406501200901000000000006531600000741580000122297000000000000000000000000000000000000000000000000000000000000000000000000000000000000000000000000000000000000000000770116110000000000001914329         010002273152000193J0000000000000000000000000000CONSULTOR DE VENDAS 20110701TNE100000000202009012020072019770116N0000000000
M001SOLDI PROMOTORA DE VENDAS LTDA     0100003290000133158CARLA C GUILHERME SILVA MARQUES    02LIVIA MARINA GUILHERME MARQUES     YASCARA MARIA CANTARELLI CUNHA     101276784721010101200200902000000000030601600000741580015130200000000000000000000000000000000000000000000000000000000000000000000000000000000000000000000000000000000000000000000140221221500000000008960329         020000044501242434F0000000000000000000000000000CONSULTOR DE VENDAS 20110701TNE100000000202009022020082020140221N0000000000
M001SOLDI PROMOTORA DE VENDAS LTDA     0100003290000133158CARLA C GUILHERME SILVA MARQUES    00CARLA C GUILHERME SILVA MARQUES    YASCARA MARIA CANTARELLI CUNHA     101276797371010101200200902000000000030601600000741580015130200000000000000000000000000000000000000000000000000000000000000000000000000000000000000000000000000000000000000000000860103201500000000008960329         000000044501242434F0000000000000000000000000000CONSULTOR DE VENDAS 20110701TNE100000000202009022020082019860103N0000000000
M001SOLDI PROMOTORA DE VENDAS LTDA     0100003290000133158CARLA C GUILHERME SILVA MARQUES    02LIVIA MARINA GUILHERME MARQUES     YASCARA MARIA CANTARELLI CUNHA     191276792311010101200200910000000000030601600000741580015130200000000000000000000000000000000000000000000000000000000000000000000000000000000000000000000000000000000000000000000140221221500000000008960329         020000044501242434F0000000000000000000000000000CONSULTOR DE VENDAS 20110701TNE100000000202009102020082020140221N0000000000
M001SOLDI PROMOTORA DE VENDAS LTDA     0100003290000133158CARLA C GUILHERME SILVA MARQUES    00CARLA C GUILHERME SILVA MARQUES    HOSPITAL DE OLHOS SANTA LUZIA      101317807801010101200200924000000000034151600000741580000165402000000000000000000000000000000000000000000000000000000000000000000000000000000000000000000000000000000000000000000860103200000000000010000329         000012305371000160J0000000000000000000000000000CONSULTOR DE VENDAS 20110701TNE100000000202009242020091019860103N0000000000
M001SOLDI PROMOTORA DE VENDAS LTDA     0100003290000133158CARLA C GUILHERME SILVA MARQUES    01JOSE WELLINGTON MARQUES            HOSPITAL DE OLHOS SANTA LUZIA      191317865131010101200200924000000000034151600000741580000165402000000000000000000000000000000000000000000000000000000000000000000000000000000000000000000000000000000000000000000770116110000000000010000329         010012305371000160J0000000000000000000000000000CONSULTOR DE VENDAS 20110701TNE100000000202009242020091019770116N0000000000
M001SOLDI PROMOTORA DE VENDAS LTDA     0100003530000014055REGINA HELENA NERY BEZERRA         01HELENA PATRICIA NERY DOS SANTOS    PREVIMAGEM                         606873766134090126201200901000000000042501600000741580000404179000000000000000000000000000000000000000000000000000000000000000000000000000000000000000000000000000000000000000000000331220000000000012444353         010001100989000178J0000000000000000000000000000CONSULTOR DE VENDAS 20100804TNE100000000202009012020071420000331N0000000000
M001SOLDI PROMOTORA DE VENDAS LTDA     0100003530000014055REGINA HELENA NERY BEZERRA         02LUCAS RODRIGO NERY DOS SANTOS      HOSPITAL ESPERANCA OLINDA          206889464988400101101200922000000000109200000000741580000408212000000000000000000000000000000000000000000000000000000000000000000000000000000000000000000000000000000000000000000000331120000000000031973353         020006047087001291J0000000000000000000000000000CONSULTOR DE VENDAS 20100804TNE100000000202009222020071820000331N0000000000
M001SOLDI PROMOTORA DE VENDAS LTDA     0100003530000014055REGINA HELENA NERY BEZERRA         02LUCAS RODRIGO NERY DOS SANTOS      HOSPITAL ESPERANCA OLINDA          3   FEB7H850000000100200925000000001651690000000741580000408212000000000013978500000000000000000000000058760000000000134800000000000000000000000136740000000000000000000000004486000331120000000000483603353         020006047087001291J0000000000000000000000000000CONSULTOR DE VENDAS 20100804TNE100000000202009252020071920000331N0000000000
M001SOLDI PROMOTORA DE VENDAS LTDA     0100003530000014055REGINA HELENA NERY BEZERRA         01HELENA PATRICIA NERY DOS SANTOS    CERPE - GILSON CIDRIM              506891153144030695001200925000000000010371600000741580000149003000000000000000000000000000000000000000000000000000000000000000000000000000000000000000000000000000000000000000000000331220000000000003037353         010061486650088412J0000000000000000000000000000CONSULTOR DE VENDAS 20100804TNE100000000202009252020072920000331N0000000000
M001SOLDI PROMOTORA DE VENDAS LTDA     0100003530000014055REGINA HELENA NERY BEZERRA         01HELENA PATRICIA NERY DOS SANTOS    CERPE - GILSON CIDRIM              506891153144030204001200925000000000001451600000741580000149003000000000000000000000000000000000000000000000000000000000000000000000000000000000000000000000000000000000000000000000331220000000000000426353         010061486650088412J0000000000000000000000000000CONSULTOR DE VENDAS 20100804TNE100000000202009252020072920000331N0000000000
M001SOLDI PROMOTORA DE VENDAS LTDA     0100003530000014055REGINA HELENA NERY BEZERRA         01HELENA PATRICIA NERY DOS SANTOS    CERPE - GILSON CIDRIM              506891153144030697601200925000000000006211600000741580000149003000000000000000000000000000000000000000000000000000000000000000000000000000000000000000000000000000000000000000000000331220000000000001819353         010061486650088412J0000000000000000000000000000CONSULTOR DE VENDAS 20100804TNE100000000202009252020072920000331N0000000000
M001SOLDI PROMOTORA DE VENDAS LTDA     0100003530000014055REGINA HELENA NERY BEZERRA         01HELENA PATRICIA NERY DOS SANTOS    CERPE - GILSON CIDRIM              506891153144030696801200925000000000008301600000741580000149003000000000000000000000000000000000000000000000000000000000000000000000000000000000000000000000000000000000000000000000331220000000000002431353         010061486650088412J0000000000000000000000000000CONSULTOR DE VENDAS 20100804TNE100000000202009252020072920000331N0000000000
M001SOLDI PROMOTORA DE VENDAS LTDA     0100003530000014055REGINA HELENA NERY BEZERRA         01HELENA PATRICIA NERY DOS SANTOS    CERPE - GILSON CIDRIM              506891153144030699201200925000000000006211600000741580000149003000000000000000000000000000000000000000000000000000000000000000000000000000000000000000000000000000000000000000000000331220000000000001819353         010061486650088412J0000000000000000000000000000CONSULTOR DE VENDAS 20100804TNE100000000202009252020072920000331N0000000000
M001SOLDI PROMOTORA DE VENDAS LTDA     0100003530000014055REGINA HELENA NERY BEZERRA         01HELENA PATRICIA NERY DOS SANTOS    CERPE - GILSON CIDRIM              506891153144030258001200925000000000001451600000741580000149003000000000000000000000000000000000000000000000000000000000000000000000000000000000000000000000000000000000000000000000331220000000000000426353         010061486650088412J0000000000000000000000000000CONSULTOR DE VENDAS 20100804TNE100000000202009252020072920000331N0000000000
M001SOLDI PROMOTORA DE VENDAS LTDA     0100003530000014055REGINA HELENA NERY BEZERRA         01HELENA PATRICIA NERY DOS SANTOS    CERPE - GILSON CIDRIM              506891153144030115001200925000000000001451600000741580000149003000000000000000000000000000000000000000000000000000000000000000000000000000000000000000000000000000000000000000000000331220000000000000426353         010061486650088412J0000000000000000000000000000CONSULTOR DE VENDAS 20100804TNE100000000202009252020072920000331N0000000000
M001SOLDI PROMOTORA DE VENDAS LTDA     0100003530000014055REGINA HELENA NERY BEZERRA         01HELENA PATRICIA NERY DOS SANTOS    CERPE - GILSON CIDRIM              506891153144030283001200925000000000010371600000741580000149003000000000000000000000000000000000000000000000000000000000000000000000000000000000000000000000000000000000000000000000331220000000000003039353         010061486650088412J0000000000000000000000000000CONSULTOR DE VENDAS 20100804TNE100000000202009252020072920000331N0000000000
M001SOLDI PROMOTORA DE VENDAS LTDA     0100003530000014055REGINA HELENA NERY BEZERRA         01HELENA PATRICIA NERY DOS SANTOS    CERPE - GILSON CIDRIM              506891153144030701801200925000000000007251600000741580000149003000000000000000000000000000000000000000000000000000000000000000000000000000000000000000000000000000000000000000000000331220000000000002125353         010061486650088412J0000000000000000000000000000CONSULTOR DE VENDAS 20100804TNE100000000202009252020072920000331N0000000000
M001SOLDI PROMOTORA DE VENDAS LTDA     0100003530000014055REGINA HELENA NERY BEZERRA         01HELENA PATRICIA NERY DOS SANTOS    CERPE - GILSON CIDRIM              506891153144030702601200925000000000015551600000741580000149003000000000000000000000000000000000000000000000000000000000000000000000000000000000000000000000000000000000000000000000331220000000000004555353         010061486650088412J0000000000000000000000000000CONSULTOR DE VENDAS 20100804TNE100000000202009252020072920000331N0000000000
M001SOLDI PROMOTORA DE VENDAS LTDA     0100003530000014055REGINA HELENA NERY BEZERRA         01HELENA PATRICIA NERY DOS SANTOS    CERPE - GILSON CIDRIM              506891153144030718201200925000000000015551600000741580000149003000000000000000000000000000000000000000000000000000000000000000000000000000000000000000000000000000000000000000000000331220000000000004555353         010061486650088412J0000000000000000000000000000CONSULTOR DE VENDAS 20100804TNE100000000202009252020072920000331N0000000000
M001SOLDI PROMOTORA DE VENDAS LTDA     0100003530000014055REGINA HELENA NERY BEZERRA         01HELENA PATRICIA NERY DOS SANTOS    CERPE - GILSON CIDRIM              506891153144030721201200925000000000010371600000741580000149003000000000000000000000000000000000000000000000000000000000000000000000000000000000000000000000000000000000000000000000331220000000000003037353         010061486650088412J0000000000000000000000000000CONSULTOR DE VENDAS 20100804TNE100000000202009252020072920000331N0000000000
M001SOLDI PROMOTORA DE VENDAS LTDA     0100003530000014055REGINA HELENA NERY BEZERRA         01HELENA PATRICIA NERY DOS SANTOS    CERPE - GILSON CIDRIM              506891153144030769701200925000000000004141600000741580000149003000000000000000000000000000000000000000000000000000000000000000000000000000000000000000000000000000000000000000000000331220000000000001215353         010061486650088412J0000000000000000000000000000CONSULTOR DE VENDAS 20100804TNE100000000202009252020072920000331N0000000000
M001SOLDI PROMOTORA DE VENDAS LTDA     0100003530000014055REGINA HELENA NERY BEZERRA         01HELENA PATRICIA NERY DOS SANTOS    CERPE - GILSON CIDRIM              506891153144030770001200925000000000012441600000741580000149003000000000000000000000000000000000000000000000000000000000000000000000000000000000000000000000000000000000000000000000331220000000000003644353         010061486650088412J0000000000000000000000000000CONSULTOR DE VENDAS 20100804TNE100000000202009252020072920000331N0000000000
M001SOLDI PROMOTORA DE VENDAS LTDA     0100003530000014055REGINA HELENA NERY BEZERRA         01HELENA PATRICIA NERY DOS SANTOS    CERPE - GILSON CIDRIM              506891153144030776001200925000000000001031600000741580000149003000000000000000000000000000000000000000000000000000000000000000000000000000000000000000000000000000000000000000000000331220000000000000304353         010061486650088412J0000000000000000000000000000CONSULTOR DE VENDAS 20100804TNE100000000202009252020072920000331N0000000000
M001SOLDI PROMOTORA DE VENDAS LTDA     0100003530000014055REGINA HELENA NERY BEZERRA         01HELENA PATRICIA NERY DOS SANTOS    CERPE - GILSON CIDRIM              506891153144030782401200925000000000008301600000741580000149003000000000000000000000000000000000000000000000000000000000000000000000000000000000000000000000000000000000000000000000331220000000000002431353         010061486650088412J0000000000000000000000000000CONSULTOR DE VENDAS 20100804TNE100000000202009252020072920000331N0000000000
M001SOLDI PROMOTORA DE VENDAS LTDA     0100003530000014055REGINA HELENA NERY BEZERRA         01HELENA PATRICIA NERY DOS SANTOS    CERPE - GILSON CIDRIM              506891153144030429901200925000000000001861600000741580000149003000000000000000000000000000000000000000000000000000000000000000000000000000000000000000000000000000000000000000000000331220000000000000547353         010061486650088412J0000000000000000000000000000CONSULTOR DE VENDAS 20100804TNE100000000202009252020072920000331N0000000000
M001SOLDI PROMOTORA DE VENDAS LTDA     0100003530000014055REGINA HELENA NERY BEZERRA         01HELENA PATRICIA NERY DOS SANTOS    CERPE - GILSON CIDRIM              506891153144030436101200925000000000003111600000741580000149003000000000000000000000000000000000000000000000000000000000000000000000000000000000000000000000000000000000000000000000331220000000000000911353         010061486650088412J0000000000000000000000000000CONSULTOR DE VENDAS 20100804TNE100000000202009252020072920000331N0000000000
M001SOLDI PROMOTORA DE VENDAS LTDA     0100003530000014055REGINA HELENA NERY BEZERRA         01HELENA PATRICIA NERY DOS SANTOS    CERPE - GILSON CIDRIM              506891153144030666601200925000000000006951600000741580000149003000000000000000000000000000000000000000000000000000000000000000000000000000000000000000000000000000000000000000000000331220000000000002035353         010061486650088412J0000000000000000000000000000CONSULTOR DE VENDAS 20100804TNE100000000202009252020072920000331N0000000000
M001SOLDI PROMOTORA DE VENDAS LTDA     0100003530000014055REGINA HELENA NERY BEZERRA         01HELENA PATRICIA NERY DOS SANTOS    CERPE - GILSON CIDRIM              506891153144030783201200925000000000008301600000741580000149003000000000000000000000000000000000000000000000000000000000000000000000000000000000000000000000000000000000000000000000331220000000000002431353         010061486650088412J0000000000000000000000000000CONSULTOR DE VENDAS 20100804TNE100000000202009252020072920000331N0000000000
M001SOLDI PROMOTORA DE VENDAS LTDA     0100003530000014055REGINA HELENA NERY BEZERRA         01HELENA PATRICIA NERY DOS SANTOS    CERPE - GILSON CIDRIM              506891153144031040001200925000000000018151600000741580000149003000000000000000000000000000000000000000000000000000000000000000000000000000000000000000000000000000000000000000000000331220000000000005316353         010061486650088412J0000000000000000000000000000CONSULTOR DE VENDAS 20100804TNE100000000202009252020072920000331N0000000000
M001SOLDI PROMOTORA DE VENDAS LTDA     0100003530000014055REGINA HELENA NERY BEZERRA         01HELENA PATRICIA NERY DOS SANTOS    CERPE - GILSON CIDRIM              506891153144031121001200925000000000001451600000741580000149003000000000000000000000000000000000000000000000000000000000000000000000000000000000000000000000000000000000000000000000331220000000000000426353         010061486650088412J0000000000000000000000000000CONSULTOR DE VENDAS 20100804TNE100000000202009252020072920000331N0000000000
M001SOLDI PROMOTORA DE VENDAS LTDA     0100003530000014055REGINA HELENA NERY BEZERRA         01HELENA PATRICIA NERY DOS SANTOS    CERPE - GILSON CIDRIM              506891153144031649101200925000000000007751600000741580000149003000000000000000000000000000000000000000000000000000000000000000000000000000000000000000000000000000000000000000000000331220000000000002271353         010061486650088412J0000000000000000000000000000CONSULTOR DE VENDAS 20100804TNE100000000202009252020072920000331N0000000000
M001SOLDI PROMOTORA DE VENDAS LTDA     0100003530000014055REGINA HELENA NERY BEZERRA         01HELENA PATRICIA NERY DOS SANTOS    CERPE - GILSON CIDRIM              506891153144031652101200925000000000007751600000741580000149003000000000000000000000000000000000000000000000000000000000000000000000000000000000000000000000000000000000000000000000331220000000000002271353         010061486650088412J0000000000000000000000000000CONSULTOR DE VENDAS 20100804TNE100000000202009252020072920000331N0000000000
M001SOLDI PROMOTORA DE VENDAS LTDA     0100003530000014055REGINA HELENA NERY BEZERRA         01HELENA PATRICIA NERY DOS SANTOS    CERPE - GILSON CIDRIM              506891153144030667401200925000000000008301600000741580000149003000000000000000000000000000000000000000000000000000000000000000000000000000000000000000000000000000000000000000000000331220000000000002431353         010061486650088412J0000000000000000000000000000CONSULTOR DE VENDAS 20100804TNE100000000202009252020072920000331N0000000000
M001SOLDI PROMOTORA DE VENDAS LTDA     0100003530000014055REGINA HELENA NERY BEZERRA         01HELENA PATRICIA NERY DOS SANTOS    CERPE - GILSON CIDRIM              506891153144031640801200925000000000009581600000741580000149003000000000000000000000000000000000000000000000000000000000000000000000000000000000000000000000000000000000000000000000331220000000000002805353         010061486650088412J0000000000000000000000000000CONSULTOR DE VENDAS 20100804TNE100000000202009252020072920000331N0000000000
M001SOLDI PROMOTORA DE VENDAS LTDA     0100003530000014055REGINA HELENA NERY BEZERRA         01HELENA PATRICIA NERY DOS SANTOS    CERPE - GILSON CIDRIM              506891153144030163001200925000000000001451600000741580000149003000000000000000000000000000000000000000000000000000000000000000000000000000000000000000000000000000000000000000000000331220000000000000426353         010061486650088412J0000000000000000000000000000CONSULTOR DE VENDAS 20100804TNE100000000202009252020072920000331N0000000000
M001SOLDI PROMOTORA DE VENDAS LTDA     0100003530000014055REGINA HELENA NERY BEZERRA         01HELENA PATRICIA NERY DOS SANTOS    CERPE - GILSON CIDRIM              506891153144031655601200925000000000005931600000741580000149003000000000000000000000000000000000000000000000000000000000000000000000000000000000000000000000000000000000000000000000331220000000000001738353         010061486650088412J0000000000000000000000000000CONSULTOR DE VENDAS 20100804TNE100000000202009252020072920000331N0000000000
M001SOLDI PROMOTORA DE VENDAS LTDA     0100003700000017098CAROLINE MOREIRA CHAMUSCA          02GUILHERME MOREIRA CHAMUSCA DE LUNA LABACLEN                           506874599814030251201200901000000000001601600000741580000770639000000000000000000000000000000000000000000000000000000000000000000000000000000000000000000000000000000000000000000140911120000000000000471370         020032637787000517J0000000000000000000000000000ASSISTENTE COMERCIAL20090923TNQ200000000202009012020071420140911N0000000000
M001SOLDI PROMOTORA DE VENDAS LTDA     0100003700000017098CAROLINE MOREIRA CHAMUSCA          03GAEL MOREIRA CHAMUSCA DE LUNA      LABACLEN                           506874599824030485001200901000000000007801600000741580000770639000000000000000000000000000000000000000000000000000000000000000000000000000000000000000000000000000000000000000000200508120000000000002285370         030032637787000517J0000000000000000000000000000ASSISTENTE COMERCIAL20090923TNQ200000000202009012020071420200508N0000000000
M001SOLDI PROMOTORA DE VENDAS LTDA     0100003700000017098CAROLINE MOREIRA CHAMUSCA          02GUILHERME MOREIRA CHAMUSCA DE LUNA LABACLEN                           506874599814030727101200901000000000004591600000741580000770639000000000000000000000000000000000000000000000000000000000000000000000000000000000000000000000000000000000000000000140911120000000000001344370         020032637787000517J0000000000000000000000000000ASSISTENTE COMERCIAL20090923TNQ200000000202009012020071420140911N0000000000
M001SOLDI PROMOTORA DE VENDAS LTDA     0100003700000017098CAROLINE MOREIRA CHAMUSCA          02GUILHERME MOREIRA CHAMUSCA DE LUNA LABACLEN                           506874599814030204001200901000000000001601600000741580000770639000000000000000000000000000000000000000000000000000000000000000000000000000000000000000000000000000000000000000000140911120000000000000471370         020032637787000517J0000000000000000000000000000ASSISTENTE COMERCIAL20090923TNQ200000000202009012020071420140911N0000000000
M001SOLDI PROMOTORA DE VENDAS LTDA     0100003700000017098CAROLINE MOREIRA CHAMUSCA          03GAEL MOREIRA CHAMUSCA DE LUNA      LABACLEN                           506874599824030648801200901000000000004591600000741580000770639000000000000000000000000000000000000000000000000000000000000000000000000000000000000000000000000000000000000000000200508120000000000001344370         030032637787000517J0000000000000000000000000000ASSISTENTE COMERCIAL20090923TNQ200000000202009012020071420200508N0000000000
M001SOLDI PROMOTORA DE VENDAS LTDA     0100003700000017098CAROLINE MOREIRA CHAMUSCA          03GAEL MOREIRA CHAMUSCA DE LUNA      LABACLEN                           506874599824030197401200901000000000004591600000741580000770639000000000000000000000000000000000000000000000000000000000000000000000000000000000000000000000000000000000000000000200508120000000000001344370         030032637787000517J0000000000000000000000000000ASSISTENTE COMERCIAL20090923TNQ200000000202009012020071420200508N0000000000
M001SOLDI PROMOTORA DE VENDAS LTDA     0100003700000017098CAROLINE MOREIRA CHAMUSCA          02GUILHERME MOREIRA CHAMUSCA DE LUNA LABACLEN                           506874599814030254701200901000000000002291600000741580000770639000000000000000000000000000000000000000000000000000000000000000000000000000000000000000000000000000000000000000000140911120000000000000671370         020032637787000517J0000000000000000000000000000ASSISTENTE COMERCIAL20090923TNQ200000000202009012020071420140911N0000000000
M001SOLDI PROMOTORA DE VENDAS LTDA     0100003700000017098CAROLINE MOREIRA CHAMUSCA          03GAEL MOREIRA CHAMUSCA DE LUNA      LABACLEN                           506874599824030783201200901000000000009181600000741580000770639000000000000000000000000000000000000000000000000000000000000000000000000000000000000000000000000000000000000000000200508120000000000002690370         030032637787000517J0000000000000000000000000000ASSISTENTE COMERCIAL20090923TNQ200000000202009012020071420200508N0000000000
M001SOLDI PROMOTORA DE VENDAS LTDA     0100003700000017098CAROLINE MOREIRA CHAMUSCA          02GUILHERME MOREIRA CHAMUSCA DE LUNA LABACLEN                           506874599814030160501200901000000000001601600000741580000770639000000000000000000000000000000000000000000000000000000000000000000000000000000000000000000000000000000000000000000140911120000000000000471370         020032637787000517J0000000000000000000000000000ASSISTENTE COMERCIAL20090923TNQ200000000202009012020071420140911N0000000000
M001SOLDI PROMOTORA DE VENDAS LTDA     0100003700000017098CAROLINE MOREIRA CHAMUSCA          02GUILHERME MOREIRA CHAMUSCA DE LUNA LABACLEN                           506874599814030158301200901000000000002871600000741580000770639000000000000000000000000000000000000000000000000000000000000000000000000000000000000000000000000000000000000000000140911120000000000000841370         020032637787000517J0000000000000000000000000000ASSISTENTE COMERCIAL20090923TNQ200000000202009012020071420140911N0000000000
M001SOLDI PROMOTORA DE VENDAS LTDA     0100003700000017098CAROLINE MOREIRA CHAMUSCA          02GUILHERME MOREIRA CHAMUSCA DE LUNA LABACLEN                           506874599814030159101200901000000000003441600000741580000770639000000000000000000000000000000000000000000000000000000000000000000000000000000000000000000000000000000000000000000140911120000000000001008370         020032637787000517J0000000000000000000000000000ASSISTENTE COMERCIAL20090923TNQ200000000202009012020071420140911N0000000000
M001SOLDI PROMOTORA DE VENDAS LTDA     0100003700000017098CAROLINE MOREIRA CHAMUSCA          02GUILHERME MOREIRA CHAMUSCA DE LUNA LABACLEN                           506874599814030269501200901000000000004591600000741580000770639000000000000000000000000000000000000000000000000000000000000000000000000000000000000000000000000000000000000000000140911120000000000001344370         020032637787000517J0000000000000000000000000000ASSISTENTE COMERCIAL20090923TNQ200000000202009012020071420140911N0000000000
M001SOLDI PROMOTORA DE VENDAS LTDA     0100003700000017098CAROLINE MOREIRA CHAMUSCA          03GAEL MOREIRA CHAMUSCA DE LUNA      LABACLEN                           506874599824031654801200901000000000007461600000741580000770639000000000000000000000000000000000000000000000000000000000000000000000000000000000000000000000000000000000000000000200508120000000000002185370         030032637787000517J0000000000000000000000000000ASSISTENTE COMERCIAL20090923TNQ200000000202009012020071420200508N0000000000
M001SOLDI PROMOTORA DE VENDAS LTDA     0100003700000017098CAROLINE MOREIRA CHAMUSCA          03GAEL MOREIRA CHAMUSCA DE LUNA      LABACLEN                           506874599824031652101200901000000000009751600000741580000770639000000000000000000000000000000000000000000000000000000000000000000000000000000000000000000000000000000000000000000200508120000000000002855370         030032637787000517J0000000000000000000000000000ASSISTENTE COMERCIAL20090923TNQ200000000202009012020071420200508N0000000000
M001SOLDI PROMOTORA DE VENDAS LTDA     0100003700000017098CAROLINE MOREIRA CHAMUSCA          03GAEL MOREIRA CHAMUSCA DE LUNA      LABACLEN                           506874599824030256301200901000000000004591600000741580000770639000000000000000000000000000000000000000000000000000000000000000000000000000000000000000000000000000000000000000000200508120000000000001344370         030032637787000517J0000000000000000000000000000ASSISTENTE COMERCIAL20090923TNQ200000000202009012020071420200508N0000000000
M001SOLDI PROMOTORA DE VENDAS LTDA     0100003700000017098CAROLINE MOREIRA CHAMUSCA          02GUILHERME MOREIRA CHAMUSCA DE LUNA LABACLEN                           506874599814030436101200901000000000003441600000741580000770639000000000000000000000000000000000000000000000000000000000000000000000000000000000000000000000000000000000000000000140911120000000000001008370         020032637787000517J0000000000000000000000000000ASSISTENTE COMERCIAL20090923TNQ200000000202009012020071420140911N0000000000
M001SOLDI PROMOTORA DE VENDAS LTDA     0100003700000017098CAROLINE MOREIRA CHAMUSCA          02GUILHERME MOREIRA CHAMUSCA DE LUNA LABACLEN                           506874599814030311002200901000000000003211600000741580000770639000000000000000000000000000000000000000000000000000000000000000000000000000000000000000000000000000000000000000000140911120000000000000942370         020032637787000517J0000000000000000000000000000ASSISTENTE COMERCIAL20090923TNQ200000000202009012020071420140911N0000000000
M001SOLDI PROMOTORA DE VENDAS LTDA     0100003700000017098CAROLINE MOREIRA CHAMUSCA          02GUILHERME MOREIRA CHAMUSCA DE LUNA LABACLEN                           506874599814030308002200901000000000002301600000741580000770639000000000000000000000000000000000000000000000000000000000000000000000000000000000000000000000000000000000000000000140911120000000000000674370         020032637787000517J0000000000000000000000000000ASSISTENTE COMERCIAL20090923TNQ200000000202009012020071420140911N0000000000
M001SOLDI PROMOTORA DE VENDAS LTDA     0100003700000017098CAROLINE MOREIRA CHAMUSCA          02GUILHERME MOREIRA CHAMUSCA DE LUNA LABACLEN                           506874599814031121001200901000000000001601600000741580000770639000000000000000000000000000000000000000000000000000000000000000000000000000000000000000000000000000000000000000000140911120000000000000471370         020032637787000517J0000000000000000000000000000ASSISTENTE COMERCIAL20090923TNQ200000000202009012020071420140911N0000000000
M001SOLDI PROMOTORA DE VENDAS LTDA     0100003700000017098CAROLINE MOREIRA CHAMUSCA          03GAEL MOREIRA CHAMUSCA DE LUNA      LABACLEN                           506874599824030205901200901000000000003441600000741580000770639000000000000000000000000000000000000000000000000000000000000000000000000000000000000000000000000000000000000000000200508120000000000001008370         030032637787000517J0000000000000000000000000000ASSISTENTE COMERCIAL20090923TNQ200000000202009012020071420200508N0000000000
M001SOLDI PROMOTORA DE VENDAS LTDA     0100003700000017098CAROLINE MOREIRA CHAMUSCA          03GAEL MOREIRA CHAMUSCA DE LUNA      LABACLEN                           506874599824030167201200901000000000007691600000741580000770639000000000000000000000000000000000000000000000000000000000000000000000000000000000000000000000000000000000000000000200508120000000000002252370         030032637787000517J0000000000000000000000000000ASSISTENTE COMERCIAL20090923TNQ200000000202009012020071420200508N0000000000
M001SOLDI PROMOTORA DE VENDAS LTDA     0100003700000017098CAROLINE MOREIRA CHAMUSCA          02GUILHERME MOREIRA CHAMUSCA DE LUNA LABACLEN                           506874599814031649101200901000000000009751600000741580000770639000000000000000000000000000000000000000000000000000000000000000000000000000000000000000000000000000000000000000000140911120000000000002855370         020032637787000517J0000000000000000000000000000ASSISTENTE COMERCIAL20090923TNQ200000000202009012020071420140911N0000000000
M001SOLDI PROMOTORA DE VENDAS LTDA     0100003700000017098CAROLINE MOREIRA CHAMUSCA          03GAEL MOREIRA CHAMUSCA DE LUNA      LABACLEN                           506874599824030181801200901000000000005741600000741580000770639000000000000000000000000000000000000000000000000000000000000000000000000000000000000000000000000000000000000000000200508120000000000001681370         030032637787000517J0000000000000000000000000000ASSISTENTE COMERCIAL20090923TNQ200000000202009012020071420200508N0000000000
M001SOLDI PROMOTORA DE VENDAS LTDA     0100003700000017098CAROLINE MOREIRA CHAMUSCA          03GAEL MOREIRA CHAMUSCA DE LUNA      LABACLEN                           506874599824031601701200901000000000018941600000741580000770639000000000000000000000000000000000000000000000000000000000000000000000000000000000000000000000000000000000000000000200508120000000000005547370         030032637787000517J0000000000000000000000000000ASSISTENTE COMERCIAL20090923TNQ200000000202009012020071420200508N0000000000
M001SOLDI PROMOTORA DE VENDAS LTDA     0100003700000017098CAROLINE MOREIRA CHAMUSCA          02GUILHERME MOREIRA CHAMUSCA DE LUNA LABACLEN                           506874599814031652101200901000000000009751600000741580000770639000000000000000000000000000000000000000000000000000000000000000000000000000000000000000000000000000000000000000000140911120000000000002855370         020032637787000517J0000000000000000000000000000ASSISTENTE COMERCIAL20090923TNQ200000000202009012020071420140911N0000000000
M001SOLDI PROMOTORA DE VENDAS LTDA     0100003700000017098CAROLINE MOREIRA CHAMUSCA          02GUILHERME MOREIRA CHAMUSCA DE LUNA LABACLEN                           506874599814030250401200901000000000001601600000741580000770639000000000000000000000000000000000000000000000000000000000000000000000000000000000000000000000000000000000000000000140911120000000000000471370         020032637787000517J0000000000000000000000000000ASSISTENTE COMERCIAL20090923TNQ200000000202009012020071420140911N0000000000
M001SOLDI PROMOTORA DE VENDAS LTDA     0100003700000017098CAROLINE MOREIRA CHAMUSCA          02GUILHERME MOREIRA CHAMUSCA DE LUNA LABACLEN                           506874599814030258001200901000000000001601600000741580000770639000000000000000000000000000000000000000000000000000000000000000000000000000000000000000000000000000000000000000000140911120000000000000471370         020032637787000517J0000000000000000000000000000ASSISTENTE COMERCIAL20090923TNQ200000000202009012020071420140911N0000000000
M001SOLDI PROMOTORA DE VENDAS LTDA     0100003700000017098CAROLINE MOREIRA CHAMUSCA          02GUILHERME MOREIRA CHAMUSCA DE LUNA LABACLEN                           506874599814030163001200901000000000001601600000741580000770639000000000000000000000000000000000000000000000000000000000000000000000000000000000000000000000000000000000000000000140911120000000000000471370         020032637787000517J0000000000000000000000000000ASSISTENTE COMERCIAL20090923TNQ200000000202009012020071420140911N0000000000
M001SOLDI PROMOTORA DE VENDAS LTDA     0100003700000017098CAROLINE MOREIRA CHAMUSCA          03GAEL MOREIRA CHAMUSCA DE LUNA      CLINICA MARIO HENRIQUE GUIMARAES   101286703570001150900200909000000000051230000000741580000640302000000000000000000000000000000000000000000000000000000000000000000000000000000000000000000000000000000000000000000200508120000000000015000370         030003828059000160J0000000000000000000000000000ASSISTENTE COMERCIAL20090923TNQ200000000202009092020082520200508N0000000000
M001SOLDI PROMOTORA DE VENDAS LTDA     0100003700000017098CAROLINE MOREIRA CHAMUSCA          01MARCELO CHAMUSCA DE LUNA           HOSPITAL SAO RAFAEL                606881548734010103701200911000000000045671600000741580000100803000000000000000000000000000000000000000000000000000000000000000000000000000000000000000000000000000000000000000000801223110000000000013374370         010027372066000169J0000000000000000000000000000ASSISTENTE COMERCIAL20090923TNQ200000000202009112020072919801223N0000000000
M001SOLDI PROMOTORA DE VENDAS LTDA     0100003700000017098CAROLINE MOREIRA CHAMUSCA          01MARCELO CHAMUSCA DE LUNA           HOSPITAL SAO RAFAEL                606881552274090110601200911000000000092661600000741580000100803000000000000000000000000000000000000000000000000000000000000000000000000000000000000000000000000000000000000000000801223110000000000027132370         010027372066000169J0000000000000000000000000000ASSISTENTE COMERCIAL20090923TNQ200000000202009112020072219801223N0000000000
M001SOLDI PROMOTORA DE VENDAS LTDA     0100003700000017098CAROLINE MOREIRA CHAMUSCA          00CAROLINE MOREIRA CHAMUSCA          COPANEST BA                        106885587971010101201200917000000000034151600000741580000097420000000000000000000000000000000000000000000000000000000000000000000000000000000000000000000000000000000000000000000880307200000000000010000370         000013792965000106J0000000000000000000000000000ASSISTENTE COMERCIAL20090923TNQ200000000202009172020080619880307N0000000000
M001SOLDI PROMOTORA DE VENDAS LTDA     0100003700000017098CAROLINE MOREIRA CHAMUSCA          00CAROLINE MOREIRA CHAMUSCA          CEPARH                             206887783358445013401200921000000000395640000000741580000273996000000000000000000000000000000000000000000000000000000000000000000000000000000000000000000000000000000000000000000880307200000000000115840370         000014797815000158J0000000000000000000000000000ASSISTENTE COMERCIAL20090923TNQ200000000202009212020081019880307N0000000000
M001SOLDI PROMOTORA DE VENDAS LTDA     0100003700000017098CAROLINE MOREIRA CHAMUSCA          00CAROLINE MOREIRA CHAMUSCA          CEPARH                             3   FE3ZZ890000000100200924000000001033650000000741580000173614000000000000000000000000000000000000000000000000000000000000000000000000000000001033650000000000000000000000000000880307200000000000302645370         000014797815000158J0000000000000000000000000000ASSISTENTE COMERCIAL20090923TNQ200000000202009242020072919880307N0000000000
M001SOLDI PROMOTORA DE VENDAS LTDA     0100003700000017098CAROLINE MOREIRA CHAMUSCA          00CAROLINE MOREIRA CHAMUSCA          CLINICA DELFIN VILLAS              506891805118433011201200925000000000040980000000741580000768839000000000000000000000000000000000000000000000000000000000000000000000000000000000000000000000000000000000000000000880307200000000000012000370         000042049064000127J0000000000000000000000000000ASSISTENTE COMERCIAL20090923TNQ200000000202009252020072419880307N0000000000
M001SOLDI PROMOTORA DE VENDAS LTDA     0100003700000017098CAROLINE MOREIRA CHAMUSCA          00CAROLINE MOREIRA CHAMUSCA          LABORATORIO SILVANY STUDART        506891361604060119601200925000000000048111600000741580000403130000000000000000000000000000000000000000000000000000000000000000000000000000000000000000000000000000000000000000000880307200000000000014087370         000032601437000177J0000000000000000000000000000ASSISTENTE COMERCIAL20090923TNQ200000000202009252020081119880307N0000000000
M001SOLDI PROMOTORA DE VENDAS LTDA     0100003700000017098CAROLINE MOREIRA CHAMUSCA          00CAROLINE MOREIRA CHAMUSCA          CLIVALE PROSAUDE IGUATEMI          101317600851010101200200930000000000034151600000741580000755729000000000000000000000000000000000000000000000000000000000000000000000000000000000000000000000000000000000000000000880307200000000000010000370         000033794132000191J0000000000000000000000000000ASSISTENTE COMERCIAL20090923TNQ200000000202009302020091019880307N0000000000
M001SOLDI PROMOTORA DE VENDAS LTDA     0100003880000017124LUCIANA DO ESPIRITO SANTO ARAUJO   00LUCIANA DO ESPIRITO SANTO ARAUJO   CLION                              206869601853401999101200910000000000051230000000741580000599646000000000000000000000000000000000000000000000000000000000000000000000000000000000000000000000000000000000000000000710322200000000000015000388         000013501218000171J0000000000000000000000000000CONSULTOR DE VENDAS 20100719TNE100000000202009102020070619710322N0000000000
M001SOLDI PROMOTORA DE VENDAS LTDA     0100003880000017124LUCIANA DO ESPIRITO SANTO ARAUJO   00LUCIANA DO ESPIRITO SANTO ARAUJO   CLION                              206869601773401999201200910000000000298980000000741580000599646000000000000000000000000000000000000000000000000000000000000000000000000000000000000000000000000000000000000000000710322200000000000087540388         000013501218000171J0000000000000000000000000000CONSULTOR DE VENDAS 20100719TNE100000000202009102020070619710322N0000000000
M001SOLDI PROMOTORA DE VENDAS LTDA     0100003880000017124LUCIANA DO ESPIRITO SANTO ARAUJO   00LUCIANA DO ESPIRITO SANTO ARAUJO   CLION                              206869601853401999201200910000000000580540000000741580000599646000000000000000000000000000000000000000000000000000000000000000000000000000000000000000000000000000000000000000000710322200000000000169978388         000013501218000171J0000000000000000000000000000CONSULTOR DE VENDAS 20100719TNE100000000202009102020070619710322N0000000000
M001SOLDI PROMOTORA DE VENDAS LTDA     0100003880000017124LUCIANA DO ESPIRITO SANTO ARAUJO   02ANA BEATRIZ ESPIRITO SANTO ARAUJO  ROBERTO PITON NASCIMENTO           100186875021010101200200917000000000034151600000741580000652602000000000000000000000000000000000000000000000000000000000000000000000000000000000000000000000000000000000000000000120417220000000000010000388         020073885444000125J0000000000000000000000000000CONSULTOR DE VENDAS 20100719TNE100000000202009172020090920120417N0000000000
M001SOLDI PROMOTORA DE VENDAS LTDA     0100003880000017124LUCIANA DO ESPIRITO SANTO ARAUJO   01ULISSES SOUZA ARAUJO               ECOCARDIO                          101291192891010101200200921000000000034151600000741580000237802000000000000000000000000000000000000000000000000000000000000000000000000000000000000000000000000000000000000000000811116110000000000010000388         010013453246000160J0000000000000000000000000000CONSULTOR DE VENDAS 20100719TNE100000000202009212020082719811116N0000000000
M001SOLDI PROMOTORA DE VENDAS LTDA     0100003880000017124LUCIANA DO ESPIRITO SANTO ARAUJO   00LUCIANA DO ESPIRITO SANTO ARAUJO   HOSPITAL SAO RAFAEL                206881549754120306201200924000000004050591600000741580000827746000000000000000000000000000000000000000000000000000000000000000000000000000000000000000000000000000000000000000000710322200000000001185979388         000027372066000169J0000000000000000000000000000CONSULTOR DE VENDAS 20100719TNE100000000202009242020072019710322N0000000000
M001SOLDI PROMOTORA DE VENDAS LTDA     0100003880000017124LUCIANA DO ESPIRITO SANTO ARAUJO   00LUCIANA DO ESPIRITO SANTO ARAUJO   HOSPITAL SAO RAFAEL                206881549754120406901200924000000000107351600000741580000827746000000000000000000000000000000000000000000000000000000000000000000000000000000000000000000000000000000000000000000710322200000000000031434388         000027372066000169J0000000000000000000000000000CONSULTOR DE VENDAS 20100719TNE100000000202009242020072019710322N0000000000
M001SOLDI PROMOTORA DE VENDAS LTDA     0100003880000017124LUCIANA DO ESPIRITO SANTO ARAUJO   00LUCIANA DO ESPIRITO SANTO ARAUJO   CAM CLIN DE ASSIST A MULHER        100187943731010101200200928000000000034151600000741580000770825000000000000000000000000000000000000000000000000000000000000000000000000000000000000000000000000000000000000000000710322200000000000010000388         000014526487000155J0000000000000000000000000000CONSULTOR DE VENDAS 20100719TNE100000000202009282020091519710322N0000000000
M001SOLDI PROMOTORA DE VENDAS LTDA     0100003880000017124LUCIANA DO ESPIRITO SANTO ARAUJO   00LUCIANA DO ESPIRITO SANTO ARAUJO   CAM CLIN DE ASSIST A MULHER        100187943741010101200200928000000000034151600000741580000770825000000000000000000000000000000000000000000000000000000000000000000000000000000000000000000000000000000000000000000710322200000000000010000388         000014526487000155J0000000000000000000000000000CONSULTOR DE VENDAS 20100719TNE100000000202009282020091519710322N0000000000
M001SOLDI PROMOTORA DE VENDAS LTDA     0100004000000017132JACIRA SOFIA DOS SANTOS            02ERICA SANTANA DOS SANTOS           HBA                                606880288358436004601200925000000000225410000000741580000631574000000000000000000000000000000000000000000000000000000000000000000000000000000000000000000000000000000000000000000001117120000000000066000400         020005469172000122J0000000000000000000000000000AUXILIAR DE SERVICOS20100722TNE100000000202009252020072020001117N0000000000
M001SOLDI PROMOTORA DE VENDAS LTDA     0100004180000180010DANIELLE BARBOSA DUARTE            00DANIELLE BARBOSA DUARTE            COOPANEST/MG                       106876067941010101201200903000000000034151600000741580000135828000000000000000000000000000000000000000000000000000000000000000000000000000000000000000000000000000000000000000000830513200000000000010000418         000023908064000190J0000000000000000000000000000CONSULTOR DE VENDAS 20111020TNE100000000202009032020070219830513N0000000000
M001SOLDI PROMOTORA DE VENDAS LTDA     0100004180000180010DANIELLE BARBOSA DUARTE            00DANIELLE BARBOSA DUARTE            AXIAL MEDICINA DIAGNOSTICA         606866744558434008801200910000000000092210000000741580000741779000000000000000000000000000000000000000000000000000000000000000000000000000000000000000000000000000000000000000000830513200000000000027000418         000042771949000640J0000000000000000000000000000CONSULTOR DE VENDAS 20111020TNE100000000202009102020062619830513N0000000000
M001SOLDI PROMOTORA DE VENDAS LTDA     0100004180000180010DANIELLE BARBOSA DUARTE            01LARISSA ANTONELLA DUARTE NUNES     BELCOOP                            106888106751010101201200921000000000035861600000741580000686220000000000000000000000000000000000000000000000000000000000000000000000000000000000000000000000000000000000000000000051218220000000000010500418         010086383973000172J0000000000000000000000000000CONSULTOR DE VENDAS 20111020TNE100000000202009212020080420051218N0000000000
M001SOLDI PROMOTORA DE VENDAS LTDA     0100004340000018110MARIA LUCIA DA SILVA               00MARIA LUCIA DA SILVA               CLINICA JOAO SILVA FILHO           106879452321010101201200909000000000034151600000741580000173002000000000000000000000000000000000000000000000000000000000000000000000000000000000000000000000000000000000000000000760306200000000000010000434         000008708092000170J0000000000000000000000000000CONSULTOR DE VENDAS 20101122TNE100000000202009092020062619760306N0000000000
M001SOLDI PROMOTORA DE VENDAS LTDA     0100005070008800211GLAUBER LARANJEIRA DO NASCIMENTO   01AMELIA FATIMA FERREIRA NASCIMENTO  CLIM                               3   FDS3LV50000000100200909000000000726600000000741580000306711000000000000473700000000000000000000000115170000000002642800000000000000000000000000000000000000000000000000029978881003210000000000212744507         010041226432000100J0000000000000000000000000000SUPERVISOR DE VENDAS20111002TNE100000000202009092020070319881003N0000000000
M001SOLDI PROMOTORA DE VENDAS LTDA     0100005070008800211GLAUBER LARANJEIRA DO NASCIMENTO   01AMELIA FATIMA FERREIRA NASCIMENTO  HOSPITAL NAPOLEAO LAUREANO         506881909554060121802200915000000000060011600000741580000605271000000000000000000000000000000000000000000000000000000000000000000000000000000000000000000000000000000000000000000881003210000000000017572507         010009112236000194J0000000000000000000000000000SUPERVISOR DE VENDAS20111002TNE100000000202009152020071719881003N0000000000
M001SOLDI PROMOTORA DE VENDAS LTDA     0100005070008800211GLAUBER LARANJEIRA DO NASCIMENTO   03ARTHUR FERREIRA NASCIMENTO         GLAUBER LARANJEIRA DO NASCIMENTO   200044863225000061614200921000000000669411600000741580000000000000000000000000000000000000000000000000000000000000000000000000000000000000000000000000000000000000000000000000000170819129900000000196000507         030000000000000000 0000000000000000000000000000SUPERVISOR DE VENDAS20111002TNE100000000202009212020060120170819N0000196000
M001SOLDI PROMOTORA DE VENDAS LTDA     0100005070008800211GLAUBER LARANJEIRA DO NASCIMENTO   03ARTHUR FERREIRA NASCIMENTO         GLAUBER LARANJEIRA DO NASCIMENTO   200044863063401999516200921000000000983630000000741580000000000000000000000000000000000000000000000000000000000000000000000000000000000000000000000000000000000000000000000000000170819129900000000288000507         030000000000000000 0000000000000000000000000000SUPERVISOR DE VENDAS20111002TNE100000000202009212020080620170819N0000288000
M001SOLDI PROMOTORA DE VENDAS LTDA     0100005070008800211GLAUBER LARANJEIRA DO NASCIMENTO   03ARTHUR FERREIRA NASCIMENTO         GLAUBER LARANJEIRA DO NASCIMENTO   200044863013401999519200921000000001506190000000741580000000000000000000000000000000000000000000000000000000000000000000000000000000000000000000000000000000000000000000000000000170819129900000000441000507         030000000000000000 0000000000000000000000000000SUPERVISOR DE VENDAS20111002TNE100000000202009212020080320170819N0000441000
M001SOLDI PROMOTORA DE VENDAS LTDA     0100005070008800211GLAUBER LARANJEIRA DO NASCIMENTO   03ARTHUR FERREIRA NASCIMENTO         GLAUBER LARANJEIRA DO NASCIMENTO   200044862985000061613200921000000000621601600000741580000000000000000000000000000000000000000000000000000000000000000000000000000000000000000000000000000000000000000000000000000170819129900000000182000507         030000000000000000 0000000000000000000000000000SUPERVISOR DE VENDAS20111002TNE100000000202009212020080320170819N0000182000
M001SOLDI PROMOTORA DE VENDAS LTDA     0100005740008800592ALINIR PEREIRA DE ALMEIDA          02AGATHA ALMEIDA PAVAO               CEOF                               506888087264130125002200921000000000025901600000741580000650099000000000000000000000000000000000000000000000000000000000000000000000000000000000000000000000000000000000000000000190606220000000000007586574         020003119645000136J0000000000000000000000000000CONSULTOR DE VENDAS 20120206TNE100000000202009212020070820190606N0000000000
M001SOLDI PROMOTORA DE VENDAS LTDA     0100005740008800592ALINIR PEREIRA DE ALMEIDA          01MAGNO ALEXANDRE SANTOS PAVAO       INAO                               100187159771010101200200921000000000061201600000741580000292602000000000000000000000000000000000000000000000000000000000000000000000000000000000000000000000000000000000000000000730826110000000000017920574         010022093039000133J0000000000000000000000000000CONSULTOR DE VENDAS 20120206TNE100000000202009212020082619730826N0000000000
M001SOLDI PROMOTORA DE VENDAS LTDA     0100006390008800606ERICA FRANCISCA DA SILVA           03RAFAEL SALUSTIANO DE ALMEIDA       NEURODOR                           100187394021010101200200921000000000034151600000741580000647202000000000000000000000000000000000000000000000000000000000000000000000000000000000000000000000000000000000000000000811114110000000000010000639         030021860496000224J0000000000000000000000000000ASSISTENTE OPERACION20120903TNE100000000202009212020081419811114N0000000000
