HSINISTROS PAGOS074158200520052901000000001000000000000000000000000000000000000000000000000000000000000000000000000000000000000000000000000000000000000000000000000000000000000000000000000000000000000000000000000000000000000000000000000000000000000000000000000000000000000000000000000000000000000000000000000000000000000000000000000000000000000000000000000000000000000000000000000000000000000 012020052020052900000000000000000000000000000000000000000000000000000000000000000000000000000000000000000000
M001SOLDI PROMOTORA DE VENDAS LTDA     0100001320000118002JOSE LEITE RIBEIRO TAVARES         02MATEUS DE MEDEIROS TAVARES LEITE   ESPACO INTEGRAR                    206828914065000047001200521000000000014501600000741580000930792000000000000000000000000000000000000000000000000000000000000000000000000000000000000000000000000000000000000000000080324120000000000004246132         020011422364000186J0000000000000000000000000000GERENTE COMERCIAL I 20080218TNQ200000000202005212020031020080324N0000000000
M001SOLDI PROMOTORA DE VENDAS LTDA     0100001320000118002JOSE LEITE RIBEIRO TAVARES         02MATEUS DE MEDEIROS TAVARES LEITE   ESPACO INTEGRAR                    206828914065000047001200521000000000014501600000741580000930792000000000000000000000000000000000000000000000000000000000000000000000000000000000000000000000000000000000000000000080324120000000000004246132         020011422364000186J0000000000000000000000000000GERENTE COMERCIAL I 20080218TNQ200000000202005212020031020080324N0000000000
M001SOLDI PROMOTORA DE VENDAS LTDA     0100001320000118002JOSE LEITE RIBEIRO TAVARES         02MATEUS DE MEDEIROS TAVARES LEITE   ESPACO INTEGRAR                    206828914065000047001200521000000000014501600000741580000930792000000000000000000000000000000000000000000000000000000000000000000000000000000000000000000000000000000000000000000080324120000000000004246132         020011422364000186J0000000000000000000000000000GERENTE COMERCIAL I 20080218TNQ200000000202005212020031020080324N0000000000
M001SOLDI PROMOTORA DE VENDAS LTDA     0100001320000118002JOSE LEITE RIBEIRO TAVARES         02MATEUS DE MEDEIROS TAVARES LEITE   ESPACO INTEGRAR                    206828914065000047001200521000000000014501600000741580000930792000000000000000000000000000000000000000000000000000000000000000000000000000000000000000000000000000000000000000000080324120000000000004246132         020011422364000186J0000000000000000000000000000GERENTE COMERCIAL I 20080218TNQ200000000202005212020031020080324N0000000000
M001SOLDI PROMOTORA DE VENDAS LTDA     0100001320000118002JOSE LEITE RIBEIRO TAVARES         02MATEUS DE MEDEIROS TAVARES LEITE   ESPACO INTEGRAR                    206828914065000047001200521000000000014501600000741580000930792000000000000000000000000000000000000000000000000000000000000000000000000000000000000000000000000000000000000000000080324120000000000004246132         020011422364000186J0000000000000000000000000000GERENTE COMERCIAL I 20080218TNQ200000000202005212020031020080324N0000000000
M001SOLDI PROMOTORA DE VENDAS LTDA     0100001400000118013PALOMA SANTANA TEIXEIRA            00PALOMA SANTANA TEIXEIRA            ANALISIS LAB CLINICO               506812566974030158301200505000000000002931600000741580000509337000000000000000000000000000000000000000000000000000000000000000000000000000000000000000000000000000000000000000000880227200000000000000860140         000012929451000197J0000000000000000000000000000CONSULTOR DE VENDAS 20100413TNE100000000202005052020022219880227N0000000000
M001SOLDI PROMOTORA DE VENDAS LTDA     0100001400000118013PALOMA SANTANA TEIXEIRA            00PALOMA SANTANA TEIXEIRA            ANALISIS LAB CLINICO               506812566974031652101200505000000000009961600000741580000509337000000000000000000000000000000000000000000000000000000000000000000000000000000000000000000000000000000000000000000880227200000000000002919140         000012929451000197J0000000000000000000000000000CONSULTOR DE VENDAS 20100413TNE100000000202005052020022219880227N0000000000
M001SOLDI PROMOTORA DE VENDAS LTDA     0100001400000118013PALOMA SANTANA TEIXEIRA            00PALOMA SANTANA TEIXEIRA            ANALISIS LAB CLINICO               506812566974030313601200505000000000001111600000741580000509337000000000000000000000000000000000000000000000000000000000000000000000000000000000000000000000000000000000000000000880227200000000000000327140         000012929451000197J0000000000000000000000000000CONSULTOR DE VENDAS 20100413TNE100000000202005052020022219880227N0000000000
M001SOLDI PROMOTORA DE VENDAS LTDA     0100001400000118013PALOMA SANTANA TEIXEIRA            00PALOMA SANTANA TEIXEIRA            ANALISIS LAB CLINICO               506812566974030115001200505000000000001481600000741580000509337000000000000000000000000000000000000000000000000000000000000000000000000000000000000000000000000000000000000000000880227200000000000000436140         000012929451000197J0000000000000000000000000000CONSULTOR DE VENDAS 20100413TNE100000000202005052020022219880227N0000000000
M001SOLDI PROMOTORA DE VENDAS LTDA     0100001400000118013PALOMA SANTANA TEIXEIRA            00PALOMA SANTANA TEIXEIRA            ANALISIS LAB CLINICO               506812566974030311001200505000000000001641600000741580000509337000000000000000000000000000000000000000000000000000000000000000000000000000000000000000000000000000000000000000000880227200000000000000481140         000012929451000197J0000000000000000000000000000CONSULTOR DE VENDAS 20100413TNE100000000202005052020022219880227N0000000000
M001SOLDI PROMOTORA DE VENDAS LTDA     0100001400000118013PALOMA SANTANA TEIXEIRA            00PALOMA SANTANA TEIXEIRA            ANALISIS LAB CLINICO               506812566974030159101200505000000000003521600000741580000509337000000000000000000000000000000000000000000000000000000000000000000000000000000000000000000000000000000000000000000880227200000000000001031140         000012929451000197J0000000000000000000000000000CONSULTOR DE VENDAS 20100413TNE100000000202005052020022219880227N0000000000
M001SOLDI PROMOTORA DE VENDAS LTDA     0100001400000118013PALOMA SANTANA TEIXEIRA            00PALOMA SANTANA TEIXEIRA            ANALISIS LAB CLINICO               506812566974031655601200505000000000007631600000741580000509337000000000000000000000000000000000000000000000000000000000000000000000000000000000000000000000000000000000000000000880227200000000000002234140         000012929451000197J0000000000000000000000000000CONSULTOR DE VENDAS 20100413TNE100000000202005052020022219880227N0000000000
M001SOLDI PROMOTORA DE VENDAS LTDA     0100001400000118013PALOMA SANTANA TEIXEIRA            00PALOMA SANTANA TEIXEIRA            ANALISIS LAB CLINICO               506812566974031649101200505000000000009961600000741580000509337000000000000000000000000000000000000000000000000000000000000000000000000000000000000000000000000000000000000000000880227200000000000002919140         000012929451000197J0000000000000000000000000000CONSULTOR DE VENDAS 20100413TNE100000000202005052020022219880227N0000000000
M001SOLDI PROMOTORA DE VENDAS LTDA     0100001400000118013PALOMA SANTANA TEIXEIRA            00PALOMA SANTANA TEIXEIRA            ANALISIS LAB CLINICO               506812566974030436101200505000000000003521600000741580000509337000000000000000000000000000000000000000000000000000000000000000000000000000000000000000000000000000000000000000000880227200000000000001031140         000012929451000197J0000000000000000000000000000CONSULTOR DE VENDAS 20100413TNE100000000202005052020022219880227N0000000000
M001SOLDI PROMOTORA DE VENDAS LTDA     0100001400000118013PALOMA SANTANA TEIXEIRA            00PALOMA SANTANA TEIXEIRA            ANALISIS LAB CLINICO               506812566974030501501200505000000000015491600000741580000509337000000000000000000000000000000000000000000000000000000000000000000000000000000000000000000000000000000000000000000880227200000000000004536140         000012929451000197J0000000000000000000000000000CONSULTOR DE VENDAS 20100413TNE100000000202005052020022219880227N0000000000
M001SOLDI PROMOTORA DE VENDAS LTDA     0100001400000118013PALOMA SANTANA TEIXEIRA            00PALOMA SANTANA TEIXEIRA            ANALISIS LAB CLINICO               506812566974030160501200505000000000001641600000741580000509337000000000000000000000000000000000000000000000000000000000000000000000000000000000000000000000000000000000000000000880227200000000000000481140         000012929451000197J0000000000000000000000000000CONSULTOR DE VENDAS 20100413TNE100000000202005052020022219880227N0000000000
M001SOLDI PROMOTORA DE VENDAS LTDA     0100001400000118013PALOMA SANTANA TEIXEIRA            00PALOMA SANTANA TEIXEIRA            ANALISIS LAB CLINICO               506812566974030163001200505000000000001641600000741580000509337000000000000000000000000000000000000000000000000000000000000000000000000000000000000000000000000000000000000000000880227200000000000000481140         000012929451000197J0000000000000000000000000000CONSULTOR DE VENDAS 20100413TNE100000000202005052020022219880227N0000000000
M001SOLDI PROMOTORA DE VENDAS LTDA     0100001400000118013PALOMA SANTANA TEIXEIRA            00PALOMA SANTANA TEIXEIRA            ANALISIS LAB CLINICO               506812566974031121001200505000000000001641600000741580000509337000000000000000000000000000000000000000000000000000000000000000000000000000000000000000000000000000000000000000000880227200000000000000481140         000012929451000197J0000000000000000000000000000CONSULTOR DE VENDAS 20100413TNE100000000202005052020022219880227N0000000000
M001SOLDI PROMOTORA DE VENDAS LTDA     0100001400000118013PALOMA SANTANA TEIXEIRA            00PALOMA SANTANA TEIXEIRA            ANALISIS LAB CLINICO               506812566974030204001200505000000000001641600000741580000509337000000000000000000000000000000000000000000000000000000000000000000000000000000000000000000000000000000000000000000880227200000000000000481140         000012929451000197J0000000000000000000000000000CONSULTOR DE VENDAS 20100413TNE100000000202005052020022219880227N0000000000
M001SOLDI PROMOTORA DE VENDAS LTDA     0100001400000118013PALOMA SANTANA TEIXEIRA            00PALOMA SANTANA TEIXEIRA            ANALISIS LAB CLINICO               506812566974030250401200505000000000001641600000741580000509337000000000000000000000000000000000000000000000000000000000000000000000000000000000000000000000000000000000000000000880227200000000000000481140         000012929451000197J0000000000000000000000000000CONSULTOR DE VENDAS 20100413TNE100000000202005052020022219880227N0000000000
M001SOLDI PROMOTORA DE VENDAS LTDA     0100001400000118013PALOMA SANTANA TEIXEIRA            00PALOMA SANTANA TEIXEIRA            ANALISIS LAB CLINICO               506812566974030251201200505000000000001641600000741580000509337000000000000000000000000000000000000000000000000000000000000000000000000000000000000000000000000000000000000000000880227200000000000000481140         000012929451000197J0000000000000000000000000000CONSULTOR DE VENDAS 20100413TNE100000000202005052020022219880227N0000000000
M001SOLDI PROMOTORA DE VENDAS LTDA     0100001400000118013PALOMA SANTANA TEIXEIRA            00PALOMA SANTANA TEIXEIRA            ANALISIS LAB CLINICO               506812566974030254701200505000000000002341600000741580000509337000000000000000000000000000000000000000000000000000000000000000000000000000000000000000000000000000000000000000000880227200000000000000686140         000012929451000197J0000000000000000000000000000CONSULTOR DE VENDAS 20100413TNE100000000202005052020022219880227N0000000000
M001SOLDI PROMOTORA DE VENDAS LTDA     0100001400000118013PALOMA SANTANA TEIXEIRA            00PALOMA SANTANA TEIXEIRA            ANALISIS LAB CLINICO               506812566974030258001200505000000000001641600000741580000509337000000000000000000000000000000000000000000000000000000000000000000000000000000000000000000000000000000000000000000880227200000000000000481140         000012929451000197J0000000000000000000000000000CONSULTOR DE VENDAS 20100413TNE100000000202005052020022219880227N0000000000
M001SOLDI PROMOTORA DE VENDAS LTDA     0100001400000118013PALOMA SANTANA TEIXEIRA            01SEVERINO RAMOS BARBOSA LEITE       PRONTO SOC CENTRAL FRATURAS        106813306281010101201200505000000000034151600000741580000429325000000000000000000000000000000000000000000000000000000000000000000000000000000000000000000000000000000000000000000820728110000000000010000140         010008682890000170J0000000000000000000000000000CONSULTOR DE VENDAS 20100413TNE100000000202005052020022119820728N0000000000
M001SOLDI PROMOTORA DE VENDAS LTDA     0100001400000118013PALOMA SANTANA TEIXEIRA            00PALOMA SANTANA TEIXEIRA            CLIM                               106821922141010103901200508000000000034151600000741580000306711000000000000000000000000000000000000000000000000000000000000000000000000000000000000000000000000000000000000000000880227200000000000010000140         000041226432000100J0000000000000000000000000000CONSULTOR DE VENDAS 20100413TNE100000000202005082020020419880227N0000000000
M001SOLDI PROMOTORA DE VENDAS LTDA     0100001400000118013PALOMA SANTANA TEIXEIRA            00PALOMA SANTANA TEIXEIRA            SECICOL                            506822141284060113701200508000000000012061600000741580000484130000000000000000000000000000000000000000000000000000000000000000000000000000000000000000000000000000000000000000000880227200000000000003533140         000009139189000172J0000000000000000000000000000CONSULTOR DE VENDAS 20100413TNE100000000202005082020020519880227N0000000000
M001SOLDI PROMOTORA DE VENDAS LTDA     0100001400000118013PALOMA SANTANA TEIXEIRA            00PALOMA SANTANA TEIXEIRA            COPANEST                           506827055304020261501200518000000000139721600000741580000203629000000000000000000000000000000000000000000000000000000000000000000000000000000000000000000000000000000000000000000880227200000000000040910140         000035491356000150J0000000000000000000000000000CONSULTOR DE VENDAS 20100413TNE100000000202005182020022119880227N0000000000
M001SOLDI PROMOTORA DE VENDAS LTDA     0100001590000118023THALITA MENDES DE ALMEIDA LIMA     02MARINA MENDES LIMA                 NOVA DIAGNOSTICO POR IMAGEM        506819871744090118101200505000000000013231600000741580000618179000000000000000000000000000000000000000000000000000000000000000000000000000000000000000000000000000000000000000000091216220000000000003876159         020004489715000100J0000000000000000000000000000CONSULTOR DE VENDAS 20110110TNE100000000202005052020030820091216N0000000000
M001SOLDI PROMOTORA DE VENDAS LTDA     0100001590000118023THALITA MENDES DE ALMEIDA LIMA     02MARINA MENDES LIMA                 LAB DE PESQUISAS MEDICAS           506818380454030269501200512000000000004831600000741580000610232000000000000000000000000000000000000000000000000000000000000000000000000000000000000000000000000000000000000000000091216220000000000001415159         020000276970000114J0000000000000000000000000000CONSULTOR DE VENDAS 20110110TNE100000000202005122020022920091216N0000000000
M001SOLDI PROMOTORA DE VENDAS LTDA     0100001590000118023THALITA MENDES DE ALMEIDA LIMA     02MARINA MENDES LIMA                 LAB DE PESQUISAS MEDICAS           506818380454030501501200512000000000015951600000741580000610232000000000000000000000000000000000000000000000000000000000000000000000000000000000000000000000000000000000000000000091216220000000000004672159         020000276970000114J0000000000000000000000000000CONSULTOR DE VENDAS 20110110TNE100000000202005122020022920091216N0000000000
M001SOLDI PROMOTORA DE VENDAS LTDA     0100001590000118023THALITA MENDES DE ALMEIDA LIMA     02MARINA MENDES LIMA                 LAB DE PESQUISAS MEDICAS           506818380454031633501200512000000000007851600000741580000610232000000000000000000000000000000000000000000000000000000000000000000000000000000000000000000000000000000000000000000091216220000000000002301159         020000276970000114J0000000000000000000000000000CONSULTOR DE VENDAS 20110110TNE100000000202005122020022920091216N0000000000
M001SOLDI PROMOTORA DE VENDAS LTDA     0100001590000118023THALITA MENDES DE ALMEIDA LIMA     02MARINA MENDES LIMA                 LAB DE PESQUISAS MEDICAS           506818380454031649101200512000000000010261600000741580000610232000000000000000000000000000000000000000000000000000000000000000000000000000000000000000000000000000000000000000000091216220000000000003006159         020000276970000114J0000000000000000000000000000CONSULTOR DE VENDAS 20110110TNE100000000202005122020022920091216N0000000000
M001SOLDI PROMOTORA DE VENDAS LTDA     0100001590000118023THALITA MENDES DE ALMEIDA LIMA     02MARINA MENDES LIMA                 LAB DE PESQUISAS MEDICAS           506818380454031652101200512000000000010261600000741580000610232000000000000000000000000000000000000000000000000000000000000000000000000000000000000000000000000000000000000000000091216220000000000003006159         020000276970000114J0000000000000000000000000000CONSULTOR DE VENDAS 20110110TNE100000000202005122020022920091216N0000000000
M001SOLDI PROMOTORA DE VENDAS LTDA     0100001590000118023THALITA MENDES DE ALMEIDA LIMA     02MARINA MENDES LIMA                 LAB DE PESQUISAS MEDICAS           506818380454030140001200512000000000001691600000741580000610232000000000000000000000000000000000000000000000000000000000000000000000000000000000000000000000000000000000000000000091216220000000000000496159         020000276970000114J0000000000000000000000000000CONSULTOR DE VENDAS 20110110TNE100000000202005122020022920091216N0000000000
M001SOLDI PROMOTORA DE VENDAS LTDA     0100001590000118023THALITA MENDES DE ALMEIDA LIMA     02MARINA MENDES LIMA                 LAB DE PESQUISAS MEDICAS           506818380454030158301200512000000000003021600000741580000610232000000000000000000000000000000000000000000000000000000000000000000000000000000000000000000000000000000000000000000091216220000000000000886159         020000276970000114J0000000000000000000000000000CONSULTOR DE VENDAS 20110110TNE100000000202005122020022920091216N0000000000
M001SOLDI PROMOTORA DE VENDAS LTDA     0100001590000118023THALITA MENDES DE ALMEIDA LIMA     02MARINA MENDES LIMA                 LAB DE PESQUISAS MEDICAS           506818380454030159101200512000000000003621600000741580000610232000000000000000000000000000000000000000000000000000000000000000000000000000000000000000000000000000000000000000000091216220000000000001062159         020000276970000114J0000000000000000000000000000CONSULTOR DE VENDAS 20110110TNE100000000202005122020022920091216N0000000000
M001SOLDI PROMOTORA DE VENDAS LTDA     0100001590000118023THALITA MENDES DE ALMEIDA LIMA     02MARINA MENDES LIMA                 LAB DE PESQUISAS MEDICAS           506818380454030436101200512000000000003621600000741580000610232000000000000000000000000000000000000000000000000000000000000000000000000000000000000000000000000000000000000000000091216220000000000001062159         020000276970000114J0000000000000000000000000000CONSULTOR DE VENDAS 20110110TNE100000000202005122020022920091216N0000000000
M001SOLDI PROMOTORA DE VENDAS LTDA     0100001590000118023THALITA MENDES DE ALMEIDA LIMA     02MARINA MENDES LIMA                 LAB DE PESQUISAS MEDICAS           506818380454031628901200512000000000007851600000741580000610232000000000000000000000000000000000000000000000000000000000000000000000000000000000000000000000000000000000000000000091216220000000000002301159         020000276970000114J0000000000000000000000000000CONSULTOR DE VENDAS 20110110TNE100000000202005122020022920091216N0000000000
M001SOLDI PROMOTORA DE VENDAS LTDA     0100001590000118023THALITA MENDES DE ALMEIDA LIMA     02MARINA MENDES LIMA                 LAB DE PESQUISAS MEDICAS           506818380454030204001200512000000000001691600000741580000610232000000000000000000000000000000000000000000000000000000000000000000000000000000000000000000000000000000000000000000091216220000000000000496159         020000276970000114J0000000000000000000000000000CONSULTOR DE VENDAS 20110110TNE100000000202005122020022920091216N0000000000
M001SOLDI PROMOTORA DE VENDAS LTDA     0100001590000118023THALITA MENDES DE ALMEIDA LIMA     02MARINA MENDES LIMA                 LAB DE PESQUISAS MEDICAS           506818380454030254701200512000000000002411600000741580000610232000000000000000000000000000000000000000000000000000000000000000000000000000000000000000000000000000000000000000000091216220000000000000707159         020000276970000114J0000000000000000000000000000CONSULTOR DE VENDAS 20110110TNE100000000202005122020022920091216N0000000000
M001SOLDI PROMOTORA DE VENDAS LTDA     0100001590000118023THALITA MENDES DE ALMEIDA LIMA     02MARINA MENDES LIMA                 LAB DE PESQUISAS MEDICAS           506818380454030160501200512000000000001691600000741580000610232000000000000000000000000000000000000000000000000000000000000000000000000000000000000000000000000000000000000000000091216220000000000000496159         020000276970000114J0000000000000000000000000000CONSULTOR DE VENDAS 20110110TNE100000000202005122020022920091216N0000000000
M001SOLDI PROMOTORA DE VENDAS LTDA     0100001750000118029ROSIMERES MARIA DA SILVA           02HENRIQUE SILVA ROSENO VIANA GOMES  AMIP                               206826848248400014701200518000000000078550000000741580000048917000000000000000000000000000000000000000000000000000000000000000000000000000000000000000000000000000000000000000000140426120000000000023000175         020009127333000150J0000000000000000000000000000CONSULTOR DE VENDAS 20110404TNE100000000202005182020030720140426N0000000000
M001SOLDI PROMOTORA DE VENDAS LTDA     0100002050000120018ANDREZA SANTOS HUMSI RAYES         01NICOLE B SANTOS RAYES FRANCISCO    HOSPITAL DA CRIANCA                106819225821010103901200505000000000051751600000741580000316814000000000000000000000000000000000000000000000000000000000000000000000000000000000000000000000000000000000000000000150427220000000000015152205         010000996264000147J0000000000000000000000000000CONSULTOR DE VENDAS 20100809TNE100000000202005052020031620150427N0000000000
M001SOLDI PROMOTORA DE VENDAS LTDA     0100002050000120018ANDREZA SANTOS HUMSI RAYES         03ALICE SANTOS HUMSI RAYES FRANCISCO HOSPITAL DA CRIANCA                106813110681010103901200505000000000051751600000741580000316814000000000000000000000000000000000000000000000000000000000000000000000000000000000000000000000000000000000000000000190326220000000000015152205         030000996264000147J0000000000000000000000000000CONSULTOR DE VENDAS 20100809TNE100000000202005052020031220190326N0000000000
M001SOLDI PROMOTORA DE VENDAS LTDA     0100002050000120018ANDREZA SANTOS HUMSI RAYES         03ALICE SANTOS HUMSI RAYES FRANCISCO HOSPITAL DA CRIANCA                106813111041010103901200505000000000051751600000741580000316814000000000000000000000000000000000000000000000000000000000000000000000000000000000000000000000000000000000000000000190326220000000000015152205         030000996264000147J0000000000000000000000000000CONSULTOR DE VENDAS 20100809TNE100000000202005052020031620190326N0000000000
M001SOLDI PROMOTORA DE VENDAS LTDA     0100002050000120018ANDREZA SANTOS HUMSI RAYES         01NICOLE B SANTOS RAYES FRANCISCO    HOSPITAL DA CRIANCA                106813110691010103901200505000000000051751600000741580000316814000000000000000000000000000000000000000000000000000000000000000000000000000000000000000000000000000000000000000000150427220000000000015152205         010000996264000147J0000000000000000000000000000CONSULTOR DE VENDAS 20100809TNE100000000202005052020031220150427N0000000000
M001SOLDI PROMOTORA DE VENDAS LTDA     0100002050000120018ANDREZA SANTOS HUMSI RAYES         00ANDREZA SANTOS HUMSI RAYES         MARCO AURELIO VINHOSA BASTOS JUNIOR106835715880001115001200512000000000048660000000741580016072700000000000000000000000000000000000000000000000000000000000000000000000000000000000000000000000000000000000000000000761030201600000000014250205         000000007960550760F0000000000000000000000000000CONSULTOR DE VENDAS 20100809TNE100000000202005122020041519761030N0000000000
M001SOLDI PROMOTORA DE VENDAS LTDA     0100002050000120018ANDREZA SANTOS HUMSI RAYES         01NICOLE B SANTOS RAYES FRANCISCO    HOSPITAL NOSSO LAR                 106828073131010101201200519000000000034151600000741580000433810000000000000000000000000000000000000000000000000000000000000000000000000000000000000000000000000000000000000000000150427220000000000010000205         010003267101000464J0000000000000000000000000000CONSULTOR DE VENDAS 20100809TNE100000000202005192020030620150427N0000000000
M001SOLDI PROMOTORA DE VENDAS LTDA     0100002640000013086ANTONIA DE SOUSA GOMES FEIJAO      00ANTONIA DE SOUSA GOMES FEIJAO      PROSAUDE                           506819520704030437001200505000000000001211600000741580000089903000000000000000000000000000000000000000000000000000000000000000000000000000000000000000000000000000000000000000000601013200000000000000355264         000002355330000125J0000000000000000000000000000AUXILIAR DE SERVICOS20100503TNE100000000202005052020032319601013N0000000000
M001SOLDI PROMOTORA DE VENDAS LTDA     0100002640000013086ANTONIA DE SOUSA GOMES FEIJAO      00ANTONIA DE SOUSA GOMES FEIJAO      PROSAUDE                           506819520704030436101200505000000000003621600000741580000089903000000000000000000000000000000000000000000000000000000000000000000000000000000000000000000000000000000000000000000601013200000000000001062264         000002355330000125J0000000000000000000000000000AUXILIAR DE SERVICOS20100503TNE100000000202005052020032319601013N0000000000
M001SOLDI PROMOTORA DE VENDAS LTDA     0100002640000013086ANTONIA DE SOUSA GOMES FEIJAO      00ANTONIA DE SOUSA GOMES FEIJAO      PROSAUDE                           506819520704030839101200505000000000008091600000741580000089903000000000000000000000000000000000000000000000000000000000000000000000000000000000000000000000000000000000000000000601013200000000000002371264         000002355330000125J0000000000000000000000000000AUXILIAR DE SERVICOS20100503TNE100000000202005052020032319601013N0000000000
M001SOLDI PROMOTORA DE VENDAS LTDA     0100002640000013086ANTONIA DE SOUSA GOMES FEIJAO      00ANTONIA DE SOUSA GOMES FEIJAO      PROSAUDE                           506819520704031215101200505000000000010871600000741580000089903000000000000000000000000000000000000000000000000000000000000000000000000000000000000000000000000000000000000000000601013200000000000003184264         000002355330000125J0000000000000000000000000000AUXILIAR DE SERVICOS20100503TNE100000000202005052020032319601013N0000000000
M001SOLDI PROMOTORA DE VENDAS LTDA     0100002640000013086ANTONIA DE SOUSA GOMES FEIJAO      00ANTONIA DE SOUSA GOMES FEIJAO      CONLAB SERVICOS MEDICOS            100174932091010101200200514000000000034151600000741580000353329000000000000000000000000000000000000000000000000000000000000000000000000000000000000000000000000000000000000000000601013200000000000010000264         000039185509000191J0000000000000000000000000000AUXILIAR DE SERVICOS20100503TNE100000000202005142020043019601013N0000000000
M001SOLDI PROMOTORA DE VENDAS LTDA     0100002640000013086ANTONIA DE SOUSA GOMES FEIJAO      00ANTONIA DE SOUSA GOMES FEIJAO      PROSAUDE                           191123540441010101200200522000000000034151600000741580000887927000000000000000000000000000000000000000000000000000000000000000000000000000000000000000000000000000000000000000000601013200000000000010000264         000002355330000125J0000000000000000000000000000AUXILIAR DE SERVICOS20100503TNE100000000202005222020051119601013N0000000000
M001SOLDI PROMOTORA DE VENDAS LTDA     0100003020000133127ANA PAULA RODRIGUES BRAGA RAMALHO  01MATEUS LEVI RAMALHO DE OLIVEIRA    HEMOLAB                            506815431444030312801200506000000000001751600000741580000808130000000000000000000000000000000000000000000000000000000000000000000000000000000000000000000000000000000000000000000160410120000000000000513302         010040774796000154J0000000000000000000000000000CONSULTOR DE VENDAS 20100601TNE100000000202005062020031420160410N0000000000
M001SOLDI PROMOTORA DE VENDAS LTDA     0100003020000133127ANA PAULA RODRIGUES BRAGA RAMALHO  01MATEUS LEVI RAMALHO DE OLIVEIRA    HEMOLAB                            506815431444031627001200506000000000014661600000741580000808130000000000000000000000000000000000000000000000000000000000000000000000000000000000000000000000000000000000000000000160410120000000000004295302         010040774796000154J0000000000000000000000000000CONSULTOR DE VENDAS 20100601TNE100000000202005062020031420160410N0000000000
M001SOLDI PROMOTORA DE VENDAS LTDA     0100003020000133127ANA PAULA RODRIGUES BRAGA RAMALHO  01MATEUS LEVI RAMALHO DE OLIVEIRA    HEMOLAB                            506815431444030140001200506000000000001641600000741580000808130000000000000000000000000000000000000000000000000000000000000000000000000000000000000000000000000000000000000000000160410120000000000000481302         010040774796000154J0000000000000000000000000000CONSULTOR DE VENDAS 20100601TNE100000000202005062020031420160410N0000000000
M001SOLDI PROMOTORA DE VENDAS LTDA     0100003020000133127ANA PAULA RODRIGUES BRAGA RAMALHO  01MATEUS LEVI RAMALHO DE OLIVEIRA    HEMOLAB                            506815431444031652101200506000000000009961600000741580000808130000000000000000000000000000000000000000000000000000000000000000000000000000000000000000000000000000000000000000000160410120000000000002919302         010040774796000154J0000000000000000000000000000CONSULTOR DE VENDAS 20100601TNE100000000202005062020031420160410N0000000000
M001SOLDI PROMOTORA DE VENDAS LTDA     0100003020000133127ANA PAULA RODRIGUES BRAGA RAMALHO  01MATEUS LEVI RAMALHO DE OLIVEIRA    HEMOLAB                            506815431444030283001200506000000000011731600000741580000808130000000000000000000000000000000000000000000000000000000000000000000000000000000000000000000000000000000000000000000160410120000000000003437302         010040774796000154J0000000000000000000000000000CONSULTOR DE VENDAS 20100601TNE100000000202005062020031420160410N0000000000
M001SOLDI PROMOTORA DE VENDAS LTDA     0100003020000133127ANA PAULA RODRIGUES BRAGA RAMALHO  01MATEUS LEVI RAMALHO DE OLIVEIRA    HEMOLAB                            506815431444030160501200506000000000001641600000741580000808130000000000000000000000000000000000000000000000000000000000000000000000000000000000000000000000000000000000000000000160410120000000000000481302         010040774796000154J0000000000000000000000000000CONSULTOR DE VENDAS 20100601TNE100000000202005062020031420160410N0000000000
M001SOLDI PROMOTORA DE VENDAS LTDA     0100003020000133127ANA PAULA RODRIGUES BRAGA RAMALHO  01MATEUS LEVI RAMALHO DE OLIVEIRA    HEMOLAB                            506815431444030436101200506000000000003521600000741580000808130000000000000000000000000000000000000000000000000000000000000000000000000000000000000000000000000000000000000000000160410120000000000001031302         010040774796000154J0000000000000000000000000000CONSULTOR DE VENDAS 20100601TNE100000000202005062020031420160410N0000000000
M001SOLDI PROMOTORA DE VENDAS LTDA     0100003020000133127ANA PAULA RODRIGUES BRAGA RAMALHO  01MATEUS LEVI RAMALHO DE OLIVEIRA    HEMOLAB                            506815431444030839101200506000000000007861600000741580000808130000000000000000000000000000000000000000000000000000000000000000000000000000000000000000000000000000000000000000000160410120000000000002302302         010040774796000154J0000000000000000000000000000CONSULTOR DE VENDAS 20100601TNE100000000202005062020031420160410N0000000000
M001SOLDI PROMOTORA DE VENDAS LTDA     0100003020000133127ANA PAULA RODRIGUES BRAGA RAMALHO  01MATEUS LEVI RAMALHO DE OLIVEIRA    HEMOLAB                            506815431444030159101200506000000000003521600000741580000808130000000000000000000000000000000000000000000000000000000000000000000000000000000000000000000000000000000000000000000160410120000000000001031302         010040774796000154J0000000000000000000000000000CONSULTOR DE VENDAS 20100601TNE100000000202005062020031420160410N0000000000
M001SOLDI PROMOTORA DE VENDAS LTDA     0100003020000133127ANA PAULA RODRIGUES BRAGA RAMALHO  01MATEUS LEVI RAMALHO DE OLIVEIRA    HEMOLAB                            506815431444030250401200506000000000001641600000741580000808130000000000000000000000000000000000000000000000000000000000000000000000000000000000000000000000000000000000000000000160410120000000000000481302         010040774796000154J0000000000000000000000000000CONSULTOR DE VENDAS 20100601TNE100000000202005062020031420160410N0000000000
M001SOLDI PROMOTORA DE VENDAS LTDA     0100003020000133127ANA PAULA RODRIGUES BRAGA RAMALHO  01MATEUS LEVI RAMALHO DE OLIVEIRA    HEMOLAB                            506815431444030254701200506000000000002341600000741580000808130000000000000000000000000000000000000000000000000000000000000000000000000000000000000000000000000000000000000000000160410120000000000000686302         010040774796000154J0000000000000000000000000000CONSULTOR DE VENDAS 20100601TNE100000000202005062020031420160410N0000000000
M001SOLDI PROMOTORA DE VENDAS LTDA     0100003020000133127ANA PAULA RODRIGUES BRAGA RAMALHO  01MATEUS LEVI RAMALHO DE OLIVEIRA    HEMOLAB                            506815431444031649101200506000000000009961600000741580000808130000000000000000000000000000000000000000000000000000000000000000000000000000000000000000000000000000000000000000000160410120000000000002919302         010040774796000154J0000000000000000000000000000CONSULTOR DE VENDAS 20100601TNE100000000202005062020031420160410N0000000000
M001SOLDI PROMOTORA DE VENDAS LTDA     0100003020000133127ANA PAULA RODRIGUES BRAGA RAMALHO  01MATEUS LEVI RAMALHO DE OLIVEIRA    HEMOLAB                            506815431444030251201200506000000000001641600000741580000808130000000000000000000000000000000000000000000000000000000000000000000000000000000000000000000000000000000000000000000160410120000000000000481302         010040774796000154J0000000000000000000000000000CONSULTOR DE VENDAS 20100601TNE100000000202005062020031420160410N0000000000
M001SOLDI PROMOTORA DE VENDAS LTDA     0100003020000133127ANA PAULA RODRIGUES BRAGA RAMALHO  01MATEUS LEVI RAMALHO DE OLIVEIRA    HEMOLAB                            506815431444030258001200506000000000001641600000741580000808130000000000000000000000000000000000000000000000000000000000000000000000000000000000000000000000000000000000000000000160410120000000000000481302         010040774796000154J0000000000000000000000000000CONSULTOR DE VENDAS 20100601TNE100000000202005062020031420160410N0000000000
M001SOLDI PROMOTORA DE VENDAS LTDA     0100003020000133127ANA PAULA RODRIGUES BRAGA RAMALHO  01MATEUS LEVI RAMALHO DE OLIVEIRA    HEMOLAB                            506815431444031121001200506000000000001641600000741580000808130000000000000000000000000000000000000000000000000000000000000000000000000000000000000000000000000000000000000000000160410120000000000000481302         010040774796000154J0000000000000000000000000000CONSULTOR DE VENDAS 20100601TNE100000000202005062020031420160410N0000000000
M001SOLDI PROMOTORA DE VENDAS LTDA     0100003020000133127ANA PAULA RODRIGUES BRAGA RAMALHO  01MATEUS LEVI RAMALHO DE OLIVEIRA    HEMOLAB                            506815431444030163001200506000000000001641600000741580000808130000000000000000000000000000000000000000000000000000000000000000000000000000000000000000000000000000000000000000000160410120000000000000481302         010040774796000154J0000000000000000000000000000CONSULTOR DE VENDAS 20100601TNE100000000202005062020031420160410N0000000000
M001SOLDI PROMOTORA DE VENDAS LTDA     0100003020000133127ANA PAULA RODRIGUES BRAGA RAMALHO  01MATEUS LEVI RAMALHO DE OLIVEIRA    HEMOLAB                            506815431444030204001200506000000000001641600000741580000808130000000000000000000000000000000000000000000000000000000000000000000000000000000000000000000000000000000000000000000160410120000000000000481302         010040774796000154J0000000000000000000000000000CONSULTOR DE VENDAS 20100601TNE100000000202005062020031420160410N0000000000
M001SOLDI PROMOTORA DE VENDAS LTDA     0100003020000133127ANA PAULA RODRIGUES BRAGA RAMALHO  01MATEUS LEVI RAMALHO DE OLIVEIRA    HEMOLAB                            506815431444030158301200506000000000002931600000741580000808130000000000000000000000000000000000000000000000000000000000000000000000000000000000000000000000000000000000000000000160410120000000000000860302         010040774796000154J0000000000000000000000000000CONSULTOR DE VENDAS 20100601TNE100000000202005062020031420160410N0000000000
M001SOLDI PROMOTORA DE VENDAS LTDA     0100003530000014055REGINA HELENA NERY BEZERRA         01HELENA PATRICIA NERY DOS SANTOS    CERPE - GILSON CIDRIM              506832718144030204001200528000000000001451600000741580000149003000000000000000000000000000000000000000000000000000000000000000000000000000000000000000000000000000000000000000000000331220000000000000426353         010061486650088412J0000000000000000000000000000CONSULTOR DE VENDAS 20100804TNE100000000202005282020041320000331N0000000000
M001SOLDI PROMOTORA DE VENDAS LTDA     0100003530000014055REGINA HELENA NERY BEZERRA         01HELENA PATRICIA NERY DOS SANTOS    CERPE - GILSON CIDRIM              506832718144030158301200528000000000002591600000741580000149003000000000000000000000000000000000000000000000000000000000000000000000000000000000000000000000000000000000000000000000331220000000000000760353         010061486650088412J0000000000000000000000000000CONSULTOR DE VENDAS 20100804TNE100000000202005282020041320000331N0000000000
M001SOLDI PROMOTORA DE VENDAS LTDA     0100003530000014055REGINA HELENA NERY BEZERRA         01HELENA PATRICIA NERY DOS SANTOS    CERPE - GILSON CIDRIM              506832718144030159101200528000000000003111600000741580000149003000000000000000000000000000000000000000000000000000000000000000000000000000000000000000000000000000000000000000000000331220000000000000911353         010061486650088412J0000000000000000000000000000CONSULTOR DE VENDAS 20100804TNE100000000202005282020041320000331N0000000000
M001SOLDI PROMOTORA DE VENDAS LTDA     0100003530000014055REGINA HELENA NERY BEZERRA         01HELENA PATRICIA NERY DOS SANTOS    CERPE - GILSON CIDRIM              506832718144030163001200528000000000001451600000741580000149003000000000000000000000000000000000000000000000000000000000000000000000000000000000000000000000000000000000000000000000331220000000000000426353         010061486650088412J0000000000000000000000000000CONSULTOR DE VENDAS 20100804TNE100000000202005282020041320000331N0000000000
M001SOLDI PROMOTORA DE VENDAS LTDA     0100003530000014055REGINA HELENA NERY BEZERRA         01HELENA PATRICIA NERY DOS SANTOS    CERPE - GILSON CIDRIM              506832718144030254701200528000000000002071600000741580000149003000000000000000000000000000000000000000000000000000000000000000000000000000000000000000000000000000000000000000000000331220000000000000607353         010061486650088412J0000000000000000000000000000CONSULTOR DE VENDAS 20100804TNE100000000202005282020041320000331N0000000000
M001SOLDI PROMOTORA DE VENDAS LTDA     0100003530000014055REGINA HELENA NERY BEZERRA         01HELENA PATRICIA NERY DOS SANTOS    CERPE - GILSON CIDRIM              506832718144030283001200528000000000010371600000741580000149003000000000000000000000000000000000000000000000000000000000000000000000000000000000000000000000000000000000000000000000331220000000000003039353         010061486650088412J0000000000000000000000000000CONSULTOR DE VENDAS 20100804TNE100000000202005282020041320000331N0000000000
M001SOLDI PROMOTORA DE VENDAS LTDA     0100003530000014055REGINA HELENA NERY BEZERRA         01HELENA PATRICIA NERY DOS SANTOS    CERPE - GILSON CIDRIM              506832718144030436101200528000000000003111600000741580000149003000000000000000000000000000000000000000000000000000000000000000000000000000000000000000000000000000000000000000000000331220000000000000911353         010061486650088412J0000000000000000000000000000CONSULTOR DE VENDAS 20100804TNE100000000202005282020041320000331N0000000000
M001SOLDI PROMOTORA DE VENDAS LTDA     0100003530000014055REGINA HELENA NERY BEZERRA         01HELENA PATRICIA NERY DOS SANTOS    CERPE - GILSON CIDRIM              506832718144030776001200528000000000001031600000741580000149003000000000000000000000000000000000000000000000000000000000000000000000000000000000000000000000000000000000000000000000331220000000000000304353         010061486650088412J0000000000000000000000000000CONSULTOR DE VENDAS 20100804TNE100000000202005282020041320000331N0000000000
M001SOLDI PROMOTORA DE VENDAS LTDA     0100003530000014055REGINA HELENA NERY BEZERRA         01HELENA PATRICIA NERY DOS SANTOS    CERPE - GILSON CIDRIM              506832718144031040001200528000000000018151600000741580000149003000000000000000000000000000000000000000000000000000000000000000000000000000000000000000000000000000000000000000000000331220000000000005316353         010061486650088412J0000000000000000000000000000CONSULTOR DE VENDAS 20100804TNE100000000202005282020041320000331N0000000000
M001SOLDI PROMOTORA DE VENDAS LTDA     0100003530000014055REGINA HELENA NERY BEZERRA         01HELENA PATRICIA NERY DOS SANTOS    CERPE - GILSON CIDRIM              506832718144031121001200528000000000001451600000741580000149003000000000000000000000000000000000000000000000000000000000000000000000000000000000000000000000000000000000000000000000331220000000000000426353         010061486650088412J0000000000000000000000000000CONSULTOR DE VENDAS 20100804TNE100000000202005282020041320000331N0000000000
M001SOLDI PROMOTORA DE VENDAS LTDA     0100003530000014055REGINA HELENA NERY BEZERRA         01HELENA PATRICIA NERY DOS SANTOS    CERPE - GILSON CIDRIM              506832718144031649101200528000000000007751600000741580000149003000000000000000000000000000000000000000000000000000000000000000000000000000000000000000000000000000000000000000000000331220000000000002271353         010061486650088412J0000000000000000000000000000CONSULTOR DE VENDAS 20100804TNE100000000202005282020041320000331N0000000000
M001SOLDI PROMOTORA DE VENDAS LTDA     0100003530000014055REGINA HELENA NERY BEZERRA         01HELENA PATRICIA NERY DOS SANTOS    CERPE - GILSON CIDRIM              506832718144031652101200528000000000007751600000741580000149003000000000000000000000000000000000000000000000000000000000000000000000000000000000000000000000000000000000000000000000331220000000000002271353         010061486650088412J0000000000000000000000000000CONSULTOR DE VENDAS 20100804TNE100000000202005282020041320000331N0000000000
M001SOLDI PROMOTORA DE VENDAS LTDA     0100003610000017005EDVANE PEREIRA DE OLIVEIRA         00EDVANE PEREIRA DE OLIVEIRA         NEWLAB ANALISES CLINICAS           506829948794030140001200526000000000001441600000741580000248231000000000000000000000000000000000000000000000000000000000000000000000000000000000000000000000000000000000000000000801011200000000000000422361         000034444588000194J0000000000000000000000000000SUPERVISOR DE VENDAS20060701TNQ200000000202005262020041419801011N0000000000
M001SOLDI PROMOTORA DE VENDAS LTDA     0100003610000017005EDVANE PEREIRA DE OLIVEIRA         00EDVANE PEREIRA DE OLIVEIRA         NEWLAB ANALISES CLINICAS           506829948794030141901200526000000000002041600000741580000248231000000000000000000000000000000000000000000000000000000000000000000000000000000000000000000000000000000000000000000801011200000000000000600361         000034444588000194J0000000000000000000000000000SUPERVISOR DE VENDAS20060701TNQ200000000202005262020041419801011N0000000000
M001SOLDI PROMOTORA DE VENDAS LTDA     0100003610000017005EDVANE PEREIRA DE OLIVEIRA         00EDVANE PEREIRA DE OLIVEIRA         NEWLAB ANALISES CLINICAS           506829948794030223701200526000000000001641600000741580000248231000000000000000000000000000000000000000000000000000000000000000000000000000000000000000000000000000000000000000000801011200000000000000481361         000034444588000194J0000000000000000000000000000SUPERVISOR DE VENDAS20060701TNQ200000000202005262020041419801011N0000000000
M001SOLDI PROMOTORA DE VENDAS LTDA     0100003610000017005EDVANE PEREIRA DE OLIVEIRA         00EDVANE PEREIRA DE OLIVEIRA         NEWLAB ANALISES CLINICAS           506829948794030269501200526000000000004101600000741580000248231000000000000000000000000000000000000000000000000000000000000000000000000000000000000000000000000000000000000000000801011200000000000001203361         000034444588000194J0000000000000000000000000000SUPERVISOR DE VENDAS20060701TNQ200000000202005262020041419801011N0000000000
M001SOLDI PROMOTORA DE VENDAS LTDA     0100003610000017005EDVANE PEREIRA DE OLIVEIRA         00EDVANE PEREIRA DE OLIVEIRA         NEWLAB ANALISES CLINICAS           506829948794031622001200526000000000016431600000741580000248231000000000000000000000000000000000000000000000000000000000000000000000000000000000000000000000000000000000000000000801011200000000000004811361         000034444588000194J0000000000000000000000000000SUPERVISOR DE VENDAS20060701TNQ200000000202005262020041419801011N0000000000
M001SOLDI PROMOTORA DE VENDAS LTDA     0100003610000017005EDVANE PEREIRA DE OLIVEIRA         00EDVANE PEREIRA DE OLIVEIRA         NEWLAB ANALISES CLINICAS           506829948794031651301200526000000000010781600000741580000248231000000000000000000000000000000000000000000000000000000000000000000000000000000000000000000000000000000000000000000801011200000000000003157361         000034444588000194J0000000000000000000000000000SUPERVISOR DE VENDAS20060701TNQ200000000202005262020041419801011N0000000000
M001SOLDI PROMOTORA DE VENDAS LTDA     0100003610000017005EDVANE PEREIRA DE OLIVEIRA         00EDVANE PEREIRA DE OLIVEIRA         NEWLAB ANALISES CLINICAS           506829948794030115001200526000000000001441600000741580000248231000000000000000000000000000000000000000000000000000000000000000000000000000000000000000000000000000000000000000000801011200000000000000422361         000034444588000194J0000000000000000000000000000SUPERVISOR DE VENDAS20060701TNQ200000000202005262020041419801011N0000000000
M001SOLDI PROMOTORA DE VENDAS LTDA     0100003610000017005EDVANE PEREIRA DE OLIVEIRA         00EDVANE PEREIRA DE OLIVEIRA         NEWLAB ANALISES CLINICAS           506829948794030128101200526000000000001441600000741580000248231000000000000000000000000000000000000000000000000000000000000000000000000000000000000000000000000000000000000000000801011200000000000000422361         000034444588000194J0000000000000000000000000000SUPERVISOR DE VENDAS20060701TNQ200000000202005262020041419801011N0000000000
M001SOLDI PROMOTORA DE VENDAS LTDA     0100003610000017005EDVANE PEREIRA DE OLIVEIRA         00EDVANE PEREIRA DE OLIVEIRA         NEWLAB ANALISES CLINICAS           506829948794030135401200526000000000010271600000741580000248231000000000000000000000000000000000000000000000000000000000000000000000000000000000000000000000000000000000000000000801011200000000000003007361         000034444588000194J0000000000000000000000000000SUPERVISOR DE VENDAS20060701TNQ200000000202005262020041419801011N0000000000
M001SOLDI PROMOTORA DE VENDAS LTDA     0100003610000017005EDVANE PEREIRA DE OLIVEIRA         00EDVANE PEREIRA DE OLIVEIRA         NEWLAB ANALISES CLINICAS           506829948794030139701200526000000000001541600000741580000248231000000000000000000000000000000000000000000000000000000000000000000000000000000000000000000000000000000000000000000801011200000000000000452361         000034444588000194J0000000000000000000000000000SUPERVISOR DE VENDAS20060701TNQ200000000202005262020041419801011N0000000000
M001SOLDI PROMOTORA DE VENDAS LTDA     0100003610000017005EDVANE PEREIRA DE OLIVEIRA         00EDVANE PEREIRA DE OLIVEIRA         NEWLAB ANALISES CLINICAS           506829948794030155901200526000000000001441600000741580000248231000000000000000000000000000000000000000000000000000000000000000000000000000000000000000000000000000000000000000000801011200000000000000422361         000034444588000194J0000000000000000000000000000SUPERVISOR DE VENDAS20060701TNQ200000000202005262020041419801011N0000000000
M001SOLDI PROMOTORA DE VENDAS LTDA     0100003610000017005EDVANE PEREIRA DE OLIVEIRA         00EDVANE PEREIRA DE OLIVEIRA         NEWLAB ANALISES CLINICAS           506829948794030158301200526000000000002571600000741580000248231000000000000000000000000000000000000000000000000000000000000000000000000000000000000000000000000000000000000000000801011200000000000000753361         000034444588000194J0000000000000000000000000000SUPERVISOR DE VENDAS20060701TNQ200000000202005262020041419801011N0000000000
M001SOLDI PROMOTORA DE VENDAS LTDA     0100003610000017005EDVANE PEREIRA DE OLIVEIRA         00EDVANE PEREIRA DE OLIVEIRA         NEWLAB ANALISES CLINICAS           506829948794030159101200526000000000003081600000741580000248231000000000000000000000000000000000000000000000000000000000000000000000000000000000000000000000000000000000000000000801011200000000000000902361         000034444588000194J0000000000000000000000000000SUPERVISOR DE VENDAS20060701TNQ200000000202005262020041419801011N0000000000
M001SOLDI PROMOTORA DE VENDAS LTDA     0100003610000017005EDVANE PEREIRA DE OLIVEIRA         00EDVANE PEREIRA DE OLIVEIRA         NEWLAB ANALISES CLINICAS           506829948794030160501200526000000000001441600000741580000248231000000000000000000000000000000000000000000000000000000000000000000000000000000000000000000000000000000000000000000801011200000000000000422361         000034444588000194J0000000000000000000000000000SUPERVISOR DE VENDAS20060701TNQ200000000202005262020041419801011N0000000000
M001SOLDI PROMOTORA DE VENDAS LTDA     0100003610000017005EDVANE PEREIRA DE OLIVEIRA         00EDVANE PEREIRA DE OLIVEIRA         NEWLAB ANALISES CLINICAS           506829948794030163001200526000000000001441600000741580000248231000000000000000000000000000000000000000000000000000000000000000000000000000000000000000000000000000000000000000000801011200000000000000422361         000034444588000194J0000000000000000000000000000SUPERVISOR DE VENDAS20060701TNQ200000000202005262020041419801011N0000000000
M001SOLDI PROMOTORA DE VENDAS LTDA     0100003610000017005EDVANE PEREIRA DE OLIVEIRA         00EDVANE PEREIRA DE OLIVEIRA         NEWLAB ANALISES CLINICAS           506829948794031645901200526000000000011291600000741580000248231000000000000000000000000000000000000000000000000000000000000000000000000000000000000000000000000000000000000000000801011200000000000003308361         000034444588000194J0000000000000000000000000000SUPERVISOR DE VENDAS20060701TNQ200000000202005262020041419801011N0000000000
M001SOLDI PROMOTORA DE VENDAS LTDA     0100003610000017005EDVANE PEREIRA DE OLIVEIRA         00EDVANE PEREIRA DE OLIVEIRA         NEWLAB ANALISES CLINICAS           506829948794031646701200526000000000007291600000741580000248231000000000000000000000000000000000000000000000000000000000000000000000000000000000000000000000000000000000000000000801011200000000000002136361         000034444588000194J0000000000000000000000000000SUPERVISOR DE VENDAS20060701TNQ200000000202005262020041419801011N0000000000
M001SOLDI PROMOTORA DE VENDAS LTDA     0100003610000017005EDVANE PEREIRA DE OLIVEIRA         00EDVANE PEREIRA DE OLIVEIRA         NEWLAB ANALISES CLINICAS           506829948794031652101200526000000000008721600000741580000248231000000000000000000000000000000000000000000000000000000000000000000000000000000000000000000000000000000000000000000801011200000000000002555361         000034444588000194J0000000000000000000000000000SUPERVISOR DE VENDAS20060701TNQ200000000202005262020041419801011N0000000000
M001SOLDI PROMOTORA DE VENDAS LTDA     0100003610000017005EDVANE PEREIRA DE OLIVEIRA         00EDVANE PEREIRA DE OLIVEIRA         NEWLAB ANALISES CLINICAS           506829948794031654801200526000000000006671600000741580000248231000000000000000000000000000000000000000000000000000000000000000000000000000000000000000000000000000000000000000000801011200000000000001955361         000034444588000194J0000000000000000000000000000SUPERVISOR DE VENDAS20060701TNQ200000000202005262020041419801011N0000000000
M001SOLDI PROMOTORA DE VENDAS LTDA     0100003610000017005EDVANE PEREIRA DE OLIVEIRA         00EDVANE PEREIRA DE OLIVEIRA         NEWLAB ANALISES CLINICAS           506829948794031655601200526000000000006671600000741580000248231000000000000000000000000000000000000000000000000000000000000000000000000000000000000000000000000000000000000000000801011200000000000001955361         000034444588000194J0000000000000000000000000000SUPERVISOR DE VENDAS20060701TNQ200000000202005262020041419801011N0000000000
M001SOLDI PROMOTORA DE VENDAS LTDA     0100003610000017005EDVANE PEREIRA DE OLIVEIRA         00EDVANE PEREIRA DE OLIVEIRA         NEWLAB ANALISES CLINICAS           506829948794030199001200526000000000002051600000741580000248231000000000000000000000000000000000000000000000000000000000000000000000000000000000000000000000000000000000000000000801011200000000000000601361         000034444588000194J0000000000000000000000000000SUPERVISOR DE VENDAS20060701TNQ200000000202005262020041419801011N0000000000
M001SOLDI PROMOTORA DE VENDAS LTDA     0100003610000017005EDVANE PEREIRA DE OLIVEIRA         00EDVANE PEREIRA DE OLIVEIRA         NEWLAB ANALISES CLINICAS           506829948794030231801200526000000000001441600000741580000248231000000000000000000000000000000000000000000000000000000000000000000000000000000000000000000000000000000000000000000801011200000000000000422361         000034444588000194J0000000000000000000000000000SUPERVISOR DE VENDAS20060701TNQ200000000202005262020041419801011N0000000000
M001SOLDI PROMOTORA DE VENDAS LTDA     0100003610000017005EDVANE PEREIRA DE OLIVEIRA         00EDVANE PEREIRA DE OLIVEIRA         NEWLAB ANALISES CLINICAS           506829948794031657201200526000000000008721600000741580000248231000000000000000000000000000000000000000000000000000000000000000000000000000000000000000000000000000000000000000000801011200000000000002555361         000034444588000194J0000000000000000000000000000SUPERVISOR DE VENDAS20060701TNQ200000000202005262020041419801011N0000000000
M001SOLDI PROMOTORA DE VENDAS LTDA     0100003610000017005EDVANE PEREIRA DE OLIVEIRA         00EDVANE PEREIRA DE OLIVEIRA         NEWLAB ANALISES CLINICAS           506829948794031650501200526000000000015411600000741580000248231000000000000000000000000000000000000000000000000000000000000000000000000000000000000000000000000000000000000000000801011200000000000004512361         000034444588000194J0000000000000000000000000000SUPERVISOR DE VENDAS20060701TNQ200000000202005262020041419801011N0000000000
M001SOLDI PROMOTORA DE VENDAS LTDA     0100003610000017005EDVANE PEREIRA DE OLIVEIRA         00EDVANE PEREIRA DE OLIVEIRA         NEWLAB ANALISES CLINICAS           506829948794030839101200526000000000006881600000741580000248231000000000000000000000000000000000000000000000000000000000000000000000000000000000000000000000000000000000000000000801011200000000000002016361         000034444588000194J0000000000000000000000000000SUPERVISOR DE VENDAS20060701TNQ200000000202005262020041419801011N0000000000
M001SOLDI PROMOTORA DE VENDAS LTDA     0100003610000017005EDVANE PEREIRA DE OLIVEIRA         00EDVANE PEREIRA DE OLIVEIRA         NEWLAB ANALISES CLINICAS           506829948794031649101200526000000000008721600000741580000248231000000000000000000000000000000000000000000000000000000000000000000000000000000000000000000000000000000000000000000801011200000000000002555361         000034444588000194J0000000000000000000000000000SUPERVISOR DE VENDAS20060701TNQ200000000202005262020041419801011N0000000000
M001SOLDI PROMOTORA DE VENDAS LTDA     0100003610000017005EDVANE PEREIRA DE OLIVEIRA         00EDVANE PEREIRA DE OLIVEIRA         NEWLAB ANALISES CLINICAS           506829948794030258001200526000000000001441600000741580000248231000000000000000000000000000000000000000000000000000000000000000000000000000000000000000000000000000000000000000000801011200000000000000422361         000034444588000194J0000000000000000000000000000SUPERVISOR DE VENDAS20060701TNQ200000000202005262020041419801011N0000000000
M001SOLDI PROMOTORA DE VENDAS LTDA     0100003610000017005EDVANE PEREIRA DE OLIVEIRA         00EDVANE PEREIRA DE OLIVEIRA         NEWLAB ANALISES CLINICAS           506829948794031627001200526000000000012841600000741580000248231000000000000000000000000000000000000000000000000000000000000000000000000000000000000000000000000000000000000000000801011200000000000003760361         000034444588000194J0000000000000000000000000000SUPERVISOR DE VENDAS20060701TNQ200000000202005262020041419801011N0000000000
M001SOLDI PROMOTORA DE VENDAS LTDA     0100003610000017005EDVANE PEREIRA DE OLIVEIRA         00EDVANE PEREIRA DE OLIVEIRA         NEWLAB ANALISES CLINICAS           506829948794030204001200526000000000001441600000741580000248231000000000000000000000000000000000000000000000000000000000000000000000000000000000000000000000000000000000000000000801011200000000000000422361         000034444588000194J0000000000000000000000000000SUPERVISOR DE VENDAS20060701TNQ200000000202005262020041419801011N0000000000
M001SOLDI PROMOTORA DE VENDAS LTDA     0100003610000017005EDVANE PEREIRA DE OLIVEIRA         00EDVANE PEREIRA DE OLIVEIRA         NEWLAB ANALISES CLINICAS           506829948794031325501200526000000000005221600000741580000248231000000000000000000000000000000000000000000000000000000000000000000000000000000000000000000000000000000000000000000801011200000000000001531361         000034444588000194J0000000000000000000000000000SUPERVISOR DE VENDAS20060701TNQ200000000202005262020041419801011N0000000000
M001SOLDI PROMOTORA DE VENDAS LTDA     0100003610000017005EDVANE PEREIRA DE OLIVEIRA         00EDVANE PEREIRA DE OLIVEIRA         NEWLAB ANALISES CLINICAS           506829948794030184201200526000000000001851600000741580000248231000000000000000000000000000000000000000000000000000000000000000000000000000000000000000000000000000000000000000000801011200000000000000542361         000034444588000194J0000000000000000000000000000SUPERVISOR DE VENDAS20060701TNQ200000000202005262020041419801011N0000000000
M001SOLDI PROMOTORA DE VENDAS LTDA     0100003610000017005EDVANE PEREIRA DE OLIVEIRA         00EDVANE PEREIRA DE OLIVEIRA         NEWLAB ANALISES CLINICAS           506829948794030188501200526000000000001851600000741580000248231000000000000000000000000000000000000000000000000000000000000000000000000000000000000000000000000000000000000000000801011200000000000000542361         000034444588000194J0000000000000000000000000000SUPERVISOR DE VENDAS20060701TNQ200000000202005262020041419801011N0000000000
M001SOLDI PROMOTORA DE VENDAS LTDA     0100003610000017005EDVANE PEREIRA DE OLIVEIRA         00EDVANE PEREIRA DE OLIVEIRA         NEWLAB ANALISES CLINICAS           506829948794030211301200526000000000015411600000741580000248231000000000000000000000000000000000000000000000000000000000000000000000000000000000000000000000000000000000000000000801011200000000000004512361         000034444588000194J0000000000000000000000000000SUPERVISOR DE VENDAS20060701TNQ200000000202005262020041419801011N0000000000
M001SOLDI PROMOTORA DE VENDAS LTDA     0100003610000017005EDVANE PEREIRA DE OLIVEIRA         00EDVANE PEREIRA DE OLIVEIRA         NEWLAB ANALISES CLINICAS           506829948794030219901200526000000000001531600000741580000248231000000000000000000000000000000000000000000000000000000000000000000000000000000000000000000000000000000000000000000801011200000000000000449361         000034444588000194J0000000000000000000000000000SUPERVISOR DE VENDAS20060701TNQ200000000202005262020041419801011N0000000000
M001SOLDI PROMOTORA DE VENDAS LTDA     0100003610000017005EDVANE PEREIRA DE OLIVEIRA         00EDVANE PEREIRA DE OLIVEIRA         NEWLAB ANALISES CLINICAS           506829948794030238501200526000000000001541600000741580000248231000000000000000000000000000000000000000000000000000000000000000000000000000000000000000000000000000000000000000000801011200000000000000452361         000034444588000194J0000000000000000000000000000SUPERVISOR DE VENDAS20060701TNQ200000000202005262020041419801011N0000000000
M001SOLDI PROMOTORA DE VENDAS LTDA     0100003610000017005EDVANE PEREIRA DE OLIVEIRA         00EDVANE PEREIRA DE OLIVEIRA         NEWLAB ANALISES CLINICAS           506829948794030242301200526000000000001441600000741580000248231000000000000000000000000000000000000000000000000000000000000000000000000000000000000000000000000000000000000000000801011200000000000000422361         000034444588000194J0000000000000000000000000000SUPERVISOR DE VENDAS20060701TNQ200000000202005262020041419801011N0000000000
M001SOLDI PROMOTORA DE VENDAS LTDA     0100003610000017005EDVANE PEREIRA DE OLIVEIRA         00EDVANE PEREIRA DE OLIVEIRA         NEWLAB ANALISES CLINICAS           506829948794030250401200526000000000001441600000741580000248231000000000000000000000000000000000000000000000000000000000000000000000000000000000000000000000000000000000000000000801011200000000000000422361         000034444588000194J0000000000000000000000000000SUPERVISOR DE VENDAS20060701TNQ200000000202005262020041419801011N0000000000
M001SOLDI PROMOTORA DE VENDAS LTDA     0100003610000017005EDVANE PEREIRA DE OLIVEIRA         00EDVANE PEREIRA DE OLIVEIRA         NEWLAB ANALISES CLINICAS           506829948794030251201200526000000000001441600000741580000248231000000000000000000000000000000000000000000000000000000000000000000000000000000000000000000000000000000000000000000801011200000000000000422361         000034444588000194J0000000000000000000000000000SUPERVISOR DE VENDAS20060701TNQ200000000202005262020041419801011N0000000000
M001SOLDI PROMOTORA DE VENDAS LTDA     0100003610000017005EDVANE PEREIRA DE OLIVEIRA         00EDVANE PEREIRA DE OLIVEIRA         NEWLAB ANALISES CLINICAS           506829948794030252001200526000000000004101600000741580000248231000000000000000000000000000000000000000000000000000000000000000000000000000000000000000000000000000000000000000000801011200000000000001203361         000034444588000194J0000000000000000000000000000SUPERVISOR DE VENDAS20060701TNQ200000000202005262020041419801011N0000000000
M001SOLDI PROMOTORA DE VENDAS LTDA     0100003610000017005EDVANE PEREIRA DE OLIVEIRA         00EDVANE PEREIRA DE OLIVEIRA         NEWLAB ANALISES CLINICAS           506829948794030254701200526000000000002051600000741580000248231000000000000000000000000000000000000000000000000000000000000000000000000000000000000000000000000000000000000000000801011200000000000000601361         000034444588000194J0000000000000000000000000000SUPERVISOR DE VENDAS20060701TNQ200000000202005262020041419801011N0000000000
M001SOLDI PROMOTORA DE VENDAS LTDA     0100003610000017005EDVANE PEREIRA DE OLIVEIRA         00EDVANE PEREIRA DE OLIVEIRA         NEWLAB ANALISES CLINICAS           506829948794030282201200526000000000010271600000741580000248231000000000000000000000000000000000000000000000000000000000000000000000000000000000000000000000000000000000000000000801011200000000000003009361         000034444588000194J0000000000000000000000000000SUPERVISOR DE VENDAS20060701TNQ200000000202005262020041419801011N0000000000
M001SOLDI PROMOTORA DE VENDAS LTDA     0100003610000017005EDVANE PEREIRA DE OLIVEIRA         00EDVANE PEREIRA DE OLIVEIRA         NEWLAB ANALISES CLINICAS           506829948794030426401200526000000000002051600000741580000248231000000000000000000000000000000000000000000000000000000000000000000000000000000000000000000000000000000000000000000801011200000000000000601361         000034444588000194J0000000000000000000000000000SUPERVISOR DE VENDAS20060701TNQ200000000202005262020041419801011N0000000000
M001SOLDI PROMOTORA DE VENDAS LTDA     0100003610000017005EDVANE PEREIRA DE OLIVEIRA         00EDVANE PEREIRA DE OLIVEIRA         NEWLAB ANALISES CLINICAS           506829948794030436101200526000000000003081600000741580000248231000000000000000000000000000000000000000000000000000000000000000000000000000000000000000000000000000000000000000000801011200000000000000902361         000034444588000194J0000000000000000000000000000SUPERVISOR DE VENDAS20060701TNQ200000000202005262020041419801011N0000000000
M001SOLDI PROMOTORA DE VENDAS LTDA     0100003610000017005EDVANE PEREIRA DE OLIVEIRA         00EDVANE PEREIRA DE OLIVEIRA         NEWLAB ANALISES CLINICAS           506829948794030437001200526000000000001021600000741580000248231000000000000000000000000000000000000000000000000000000000000000000000000000000000000000000000000000000000000000000801011200000000000000301361         000034444588000194J0000000000000000000000000000SUPERVISOR DE VENDAS20060701TNQ200000000202005262020041419801011N0000000000
M001SOLDI PROMOTORA DE VENDAS LTDA     0100003610000017005EDVANE PEREIRA DE OLIVEIRA         00EDVANE PEREIRA DE OLIVEIRA         NEWLAB ANALISES CLINICAS           506829948794030634801200526000000000010781600000741580000248231000000000000000000000000000000000000000000000000000000000000000000000000000000000000000000000000000000000000000000801011200000000000003157361         000034444588000194J0000000000000000000000000000SUPERVISOR DE VENDAS20060701TNQ200000000202005262020041419801011N0000000000
M001SOLDI PROMOTORA DE VENDAS LTDA     0100003610000017005EDVANE PEREIRA DE OLIVEIRA         00EDVANE PEREIRA DE OLIVEIRA         NEWLAB ANALISES CLINICAS           506829948794031121001200526000000000001441600000741580000248231000000000000000000000000000000000000000000000000000000000000000000000000000000000000000000000000000000000000000000801011200000000000000422361         000034444588000194J0000000000000000000000000000SUPERVISOR DE VENDAS20060701TNQ200000000202005262020041419801011N0000000000
M001SOLDI PROMOTORA DE VENDAS LTDA     0100003610000017005EDVANE PEREIRA DE OLIVEIRA         00EDVANE PEREIRA DE OLIVEIRA         NEWLAB ANALISES CLINICAS           506829948794031319001200526000000000008221600000741580000248231000000000000000000000000000000000000000000000000000000000000000000000000000000000000000000000000000000000000000000801011200000000000002407361         000034444588000194J0000000000000000000000000000SUPERVISOR DE VENDAS20060701TNQ200000000202005262020041419801011N0000000000
M001SOLDI PROMOTORA DE VENDAS LTDA     0100003610000017005EDVANE PEREIRA DE OLIVEIRA         00EDVANE PEREIRA DE OLIVEIRA         NEWLAB ANALISES CLINICAS           506829948794031607601200526000000000016431600000741580000248231000000000000000000000000000000000000000000000000000000000000000000000000000000000000000000000000000000000000000000801011200000000000004811361         000034444588000194J0000000000000000000000000000SUPERVISOR DE VENDAS20060701TNQ200000000202005262020041419801011N0000000000
M001SOLDI PROMOTORA DE VENDAS LTDA     0100003610000017005EDVANE PEREIRA DE OLIVEIRA         00EDVANE PEREIRA DE OLIVEIRA         NEWLAB ANALISES CLINICAS           506829948794031610601200526000000000010781600000741580000248231000000000000000000000000000000000000000000000000000000000000000000000000000000000000000000000000000000000000000000801011200000000000003157361         000034444588000194J0000000000000000000000000000SUPERVISOR DE VENDAS20060701TNQ200000000202005262020041419801011N0000000000
M001SOLDI PROMOTORA DE VENDAS LTDA     0100003610000017005EDVANE PEREIRA DE OLIVEIRA         00EDVANE PEREIRA DE OLIVEIRA         NEWLAB ANALISES CLINICAS           506829948794031630001200526000000000014381600000741580000248231000000000000000000000000000000000000000000000000000000000000000000000000000000000000000000000000000000000000000000801011200000000000004211361         000034444588000194J0000000000000000000000000000SUPERVISOR DE VENDAS20060701TNQ200000000202005262020041419801011N0000000000
M001SOLDI PROMOTORA DE VENDAS LTDA     0100003610000017005EDVANE PEREIRA DE OLIVEIRA         00EDVANE PEREIRA DE OLIVEIRA         NEWLAB ANALISES CLINICAS           506829948794031640801200526000000000010781600000741580000248231000000000000000000000000000000000000000000000000000000000000000000000000000000000000000000000000000000000000000000801011200000000000003157361         000034444588000194J0000000000000000000000000000SUPERVISOR DE VENDAS20060701TNQ200000000202005262020041419801011N0000000000
M001SOLDI PROMOTORA DE VENDAS LTDA     0100003700000017098CAROLINE MOREIRA CHAMUSCA          00CAROLINE MOREIRA CHAMUSCA          IMAGE MEMORIAL ITAIGARA            506816145564030270901200507000000000005401600000741580000587478000000000000000000000000000000000000000000000000000000000000000000000000000000000000000000000000000000000000000000880307200000000000001584370         000061486650025682J0000000000000000000000000000ASSISTENTE COMERCIAL20090923TNQ200000000202005072020022919880307N0000000000
M001SOLDI PROMOTORA DE VENDAS LTDA     0100003700000017098CAROLINE MOREIRA CHAMUSCA          00CAROLINE MOREIRA CHAMUSCA          IMAGE MEMORIAL ITAIGARA            506816145564031121001200507000000000001381600000741580000587478000000000000000000000000000000000000000000000000000000000000000000000000000000000000000000000000000000000000000000880307200000000000000405370         000061486650025682J0000000000000000000000000000ASSISTENTE COMERCIAL20090923TNQ200000000202005072020022919880307N0000000000
M001SOLDI PROMOTORA DE VENDAS LTDA     0100003700000017098CAROLINE MOREIRA CHAMUSCA          00CAROLINE MOREIRA CHAMUSCA          CLIN MEDICA SAINT GERMAIN          100175125211010101200200518000000000034151600000741580000401722000000000000000000000000000000000000000000000000000000000000000000000000000000000000000000000000000000000000000000880307200000000000010000370         000096697099000100J0000000000000000000000000000ASSISTENTE COMERCIAL20090923TNQ200000000202005182020050419880307N0000000000
M001SOLDI PROMOTORA DE VENDAS LTDA     0100003700000017098CAROLINE MOREIRA CHAMUSCA          00CAROLINE MOREIRA CHAMUSCA          CLINICA DELFIN VILLAS              506824079878433009001200519000000000054640000000741580000768839000000000000000000000000000000000000000000000000000000000000000000000000000000000000000000000000000000000000000000880307200000000000016000370         000042049064000127J0000000000000000000000000000ASSISTENTE COMERCIAL20090923TNQ200000000202005192020032319880307N0000000000
M001SOLDI PROMOTORA DE VENDAS LTDA     0100003700000017098CAROLINE MOREIRA CHAMUSCA          00CAROLINE MOREIRA CHAMUSCA          CLIN MEDICA SAINT GERMAIN          4   F2S4YG83130905400200525000000000652531600000741580000401722000000000000000000000000000000000000000000000000000000000000000000000000000000000000000000000000000000000000000000880307200000000000191057370         000096697099000100J0000000000000000000000000000ASSISTENTE COMERCIAL20090923TNQ200000000202005252020041719880307N0000000000
M001SOLDI PROMOTORA DE VENDAS LTDA     0100003700000017098CAROLINE MOREIRA CHAMUSCA          00CAROLINE MOREIRA CHAMUSCA          CLIN MEDICA SAINT GERMAIN          106830218761010101201200526000000000034151600000741580000401722000000000000000000000000000000000000000000000000000000000000000000000000000000000000000000000000000000000000000000880307200000000000010000370         000096697099000100J0000000000000000000000000000ASSISTENTE COMERCIAL20090923TNQ200000000202005262020041419880307N0000000000
M001SOLDI PROMOTORA DE VENDAS LTDA     0100003700000017098CAROLINE MOREIRA CHAMUSCA          00CAROLINE MOREIRA CHAMUSCA          IMAGE MEMORIAL ITAIGARA            506838608874030251201200528000000000001381600000741580000587478000000000000000000000000000000000000000000000000000000000000000000000000000000000000000000000000000000000000000000880307200000000000000405370         000061486650025682J0000000000000000000000000000ASSISTENTE COMERCIAL20090923TNQ200000000202005282020050519880307N0000000000
M001SOLDI PROMOTORA DE VENDAS LTDA     0100003700000017098CAROLINE MOREIRA CHAMUSCA          00CAROLINE MOREIRA CHAMUSCA          IMAGE MEMORIAL ITAIGARA            506838608874030163001200528000000000001381600000741580000587478000000000000000000000000000000000000000000000000000000000000000000000000000000000000000000000000000000000000000000880307200000000000000405370         000061486650025682J0000000000000000000000000000ASSISTENTE COMERCIAL20090923TNQ200000000202005282020050519880307N0000000000
M001SOLDI PROMOTORA DE VENDAS LTDA     0100003700000017098CAROLINE MOREIRA CHAMUSCA          00CAROLINE MOREIRA CHAMUSCA          IMAGE MEMORIAL ITAIGARA            506838608874030231801200528000000000001381600000741580000587478000000000000000000000000000000000000000000000000000000000000000000000000000000000000000000000000000000000000000000880307200000000000000405370         000061486650025682J0000000000000000000000000000ASSISTENTE COMERCIAL20090923TNQ200000000202005282020050519880307N0000000000
M001SOLDI PROMOTORA DE VENDAS LTDA     0100003700000017098CAROLINE MOREIRA CHAMUSCA          00CAROLINE MOREIRA CHAMUSCA          IMAGE MEMORIAL ITAIGARA            506838608874030258001200528000000000001381600000741580000587478000000000000000000000000000000000000000000000000000000000000000000000000000000000000000000000000000000000000000000880307200000000000000405370         000061486650025682J0000000000000000000000000000ASSISTENTE COMERCIAL20090923TNQ200000000202005282020050519880307N0000000000
M001SOLDI PROMOTORA DE VENDAS LTDA     0100003700000017098CAROLINE MOREIRA CHAMUSCA          00CAROLINE MOREIRA CHAMUSCA          IMAGE MEMORIAL ITAIGARA            506838608874031121001200528000000000001381600000741580000587478000000000000000000000000000000000000000000000000000000000000000000000000000000000000000000000000000000000000000000880307200000000000000405370         000061486650025682J0000000000000000000000000000ASSISTENTE COMERCIAL20090923TNQ200000000202005282020050519880307N0000000000
M001SOLDI PROMOTORA DE VENDAS LTDA     0100003700000017098CAROLINE MOREIRA CHAMUSCA          00CAROLINE MOREIRA CHAMUSCA          IMAGE MEMORIAL ITAIGARA            506838608874030250401200528000000000001381600000741580000587478000000000000000000000000000000000000000000000000000000000000000000000000000000000000000000000000000000000000000000880307200000000000000405370         000061486650025682J0000000000000000000000000000ASSISTENTE COMERCIAL20090923TNQ200000000202005282020050519880307N0000000000
M001SOLDI PROMOTORA DE VENDAS LTDA     0100003700000017098CAROLINE MOREIRA CHAMUSCA          00CAROLINE MOREIRA CHAMUSCA          IMAGE MEMORIAL ITAIGARA            506838608874030139701200528000000000001481600000741580000587478000000000000000000000000000000000000000000000000000000000000000000000000000000000000000000000000000000000000000000880307200000000000000434370         000061486650025682J0000000000000000000000000000ASSISTENTE COMERCIAL20090923TNQ200000000202005282020050519880307N0000000000
M001SOLDI PROMOTORA DE VENDAS LTDA     0100003700000017098CAROLINE MOREIRA CHAMUSCA          00CAROLINE MOREIRA CHAMUSCA          IMAGE MEMORIAL ITAIGARA            506838608874030172901200528000000000002961600000741580000587478000000000000000000000000000000000000000000000000000000000000000000000000000000000000000000000000000000000000000000880307200000000000000868370         000061486650025682J0000000000000000000000000000ASSISTENTE COMERCIAL20090923TNQ200000000202005282020050519880307N0000000000
M001SOLDI PROMOTORA DE VENDAS LTDA     0100003700000017098CAROLINE MOREIRA CHAMUSCA          00CAROLINE MOREIRA CHAMUSCA          IMAGE MEMORIAL ITAIGARA            506838608864030782401200528000000000007901600000741580000587478000000000000000000000000000000000000000000000000000000000000000000000000000000000000000000000000000000000000000000880307200000000000002315370         000061486650025682J0000000000000000000000000000ASSISTENTE COMERCIAL20090923TNQ200000000202005282020050219880307N0000000000
M001SOLDI PROMOTORA DE VENDAS LTDA     0100003700000017098CAROLINE MOREIRA CHAMUSCA          00CAROLINE MOREIRA CHAMUSCA          IMAGE MEMORIAL ITAIGARA            506838608864031040001200528000000000017291600000741580000587478000000000000000000000000000000000000000000000000000000000000000000000000000000000000000000000000000000000000000000880307200000000000005063370         000061486650025682J0000000000000000000000000000ASSISTENTE COMERCIAL20090923TNQ200000000202005282020050219880307N0000000000
M001SOLDI PROMOTORA DE VENDAS LTDA     0100003700000017098CAROLINE MOREIRA CHAMUSCA          00CAROLINE MOREIRA CHAMUSCA          IMAGE MEMORIAL ITAIGARA            506838608864030702601200528000000000014811600000741580000587478000000000000000000000000000000000000000000000000000000000000000000000000000000000000000000000000000000000000000000880307200000000000004339370         000061486650025682J0000000000000000000000000000ASSISTENTE COMERCIAL20090923TNQ200000000202005282020050219880307N0000000000
M001SOLDI PROMOTORA DE VENDAS LTDA     0100003700000017098CAROLINE MOREIRA CHAMUSCA          00CAROLINE MOREIRA CHAMUSCA          IMAGE MEMORIAL ITAIGARA            506838608864030718201200528000000000014811600000741580000587478000000000000000000000000000000000000000000000000000000000000000000000000000000000000000000000000000000000000000000880307200000000000004339370         000061486650025682J0000000000000000000000000000ASSISTENTE COMERCIAL20090923TNQ200000000202005282020050219880307N0000000000
M001SOLDI PROMOTORA DE VENDAS LTDA     0100003700000017098CAROLINE MOREIRA CHAMUSCA          00CAROLINE MOREIRA CHAMUSCA          IMAGE MEMORIAL ITAIGARA            506838608864030273301200528000000000011371600000741580000587478000000000000000000000000000000000000000000000000000000000000000000000000000000000000000000000000000000000000000000880307200000000000003330370         000061486650025682J0000000000000000000000000000ASSISTENTE COMERCIAL20090923TNQ200000000202005282020050219880307N0000000000
M001SOLDI PROMOTORA DE VENDAS LTDA     0100003700000017098CAROLINE MOREIRA CHAMUSCA          00CAROLINE MOREIRA CHAMUSCA          IMAGE MEMORIAL ITAIGARA            506838608864030283001200528000000000009881600000741580000587478000000000000000000000000000000000000000000000000000000000000000000000000000000000000000000000000000000000000000000880307200000000000002893370         000061486650025682J0000000000000000000000000000ASSISTENTE COMERCIAL20090923TNQ200000000202005282020050219880307N0000000000
M001SOLDI PROMOTORA DE VENDAS LTDA     0100003700000017098CAROLINE MOREIRA CHAMUSCA          00CAROLINE MOREIRA CHAMUSCA          IMAGE MEMORIAL ITAIGARA            506838608864030721201200528000000000009871600000741580000587478000000000000000000000000000000000000000000000000000000000000000000000000000000000000000000000000000000000000000000880307200000000000002892370         000061486650025682J0000000000000000000000000000ASSISTENTE COMERCIAL20090923TNQ200000000202005282020050219880307N0000000000
M001SOLDI PROMOTORA DE VENDAS LTDA     0100003700000017098CAROLINE MOREIRA CHAMUSCA          00CAROLINE MOREIRA CHAMUSCA          IMAGE MEMORIAL ITAIGARA            506838608864031649101200528000000000008391600000741580000587478000000000000000000000000000000000000000000000000000000000000000000000000000000000000000000000000000000000000000000880307200000000000002457370         000061486650025682J0000000000000000000000000000ASSISTENTE COMERCIAL20090923TNQ200000000202005282020050219880307N0000000000
M001SOLDI PROMOTORA DE VENDAS LTDA     0100003700000017098CAROLINE MOREIRA CHAMUSCA          00CAROLINE MOREIRA CHAMUSCA          IMAGE MEMORIAL ITAIGARA            506838608864030783201200528000000000007901600000741580000587478000000000000000000000000000000000000000000000000000000000000000000000000000000000000000000000000000000000000000000880307200000000000002315370         000061486650025682J0000000000000000000000000000ASSISTENTE COMERCIAL20090923TNQ200000000202005282020050219880307N0000000000
M001SOLDI PROMOTORA DE VENDAS LTDA     0100003700000017098CAROLINE MOREIRA CHAMUSCA          00CAROLINE MOREIRA CHAMUSCA          IMAGE MEMORIAL ITAIGARA            506838608874030242301200528000000000001381600000741580000587478000000000000000000000000000000000000000000000000000000000000000000000000000000000000000000000000000000000000000000880307200000000000000405370         000061486650025682J0000000000000000000000000000ASSISTENTE COMERCIAL20090923TNQ200000000202005282020050519880307N0000000000
M001SOLDI PROMOTORA DE VENDAS LTDA     0100003700000017098CAROLINE MOREIRA CHAMUSCA          00CAROLINE MOREIRA CHAMUSCA          IMAGE MEMORIAL ITAIGARA            506838608874030204001200528000000000001381600000741580000587478000000000000000000000000000000000000000000000000000000000000000000000000000000000000000000000000000000000000000000880307200000000000000405370         000061486650025682J0000000000000000000000000000ASSISTENTE COMERCIAL20090923TNQ200000000202005282020050519880307N0000000000
M001SOLDI PROMOTORA DE VENDAS LTDA     0100003700000017098CAROLINE MOREIRA CHAMUSCA          00CAROLINE MOREIRA CHAMUSCA          IMAGE MEMORIAL ITAIGARA            506838608864031652101200528000000000008391600000741580000587478000000000000000000000000000000000000000000000000000000000000000000000000000000000000000000000000000000000000000000880307200000000000002457370         000061486650025682J0000000000000000000000000000ASSISTENTE COMERCIAL20090923TNQ200000000202005282020050219880307N0000000000
M001SOLDI PROMOTORA DE VENDAS LTDA     0100003700000017098CAROLINE MOREIRA CHAMUSCA          00CAROLINE MOREIRA CHAMUSCA          IMAGE MEMORIAL ITAIGARA            506838608864030701801200528000000000006911600000741580000587478000000000000000000000000000000000000000000000000000000000000000000000000000000000000000000000000000000000000000000880307200000000000002024370         000061486650025682J0000000000000000000000000000ASSISTENTE COMERCIAL20090923TNQ200000000202005282020050219880307N0000000000
M001SOLDI PROMOTORA DE VENDAS LTDA     0100003700000017098CAROLINE MOREIRA CHAMUSCA          00CAROLINE MOREIRA CHAMUSCA          IMAGE MEMORIAL ITAIGARA            506838608864031042601200528000000000006911600000741580000587478000000000000000000000000000000000000000000000000000000000000000000000000000000000000000000000000000000000000000000880307200000000000002024370         000061486650025682J0000000000000000000000000000ASSISTENTE COMERCIAL20090923TNQ200000000202005282020050219880307N0000000000
M001SOLDI PROMOTORA DE VENDAS LTDA     0100003700000017098CAROLINE MOREIRA CHAMUSCA          00CAROLINE MOREIRA CHAMUSCA          IMAGE MEMORIAL ITAIGARA            506838608864030436101200528000000000002961600000741580000587478000000000000000000000000000000000000000000000000000000000000000000000000000000000000000000000000000000000000000000880307200000000000000868370         000061486650025682J0000000000000000000000000000ASSISTENTE COMERCIAL20090923TNQ200000000202005282020050219880307N0000000000
M001SOLDI PROMOTORA DE VENDAS LTDA     0100003700000017098CAROLINE MOREIRA CHAMUSCA          00CAROLINE MOREIRA CHAMUSCA          IMAGE MEMORIAL ITAIGARA            506838608864030459001200528000000000001481600000741580000587478000000000000000000000000000000000000000000000000000000000000000000000000000000000000000000000000000000000000000000880307200000000000000434370         000061486650025682J0000000000000000000000000000ASSISTENTE COMERCIAL20090923TNQ200000000202005282020050219880307N0000000000
M001SOLDI PROMOTORA DE VENDAS LTDA     0100003700000017098CAROLINE MOREIRA CHAMUSCA          00CAROLINE MOREIRA CHAMUSCA          IMAGE MEMORIAL ITAIGARA            506838608864030463901200528000000000001481600000741580000587478000000000000000000000000000000000000000000000000000000000000000000000000000000000000000000000000000000000000000000880307200000000000000434370         000061486650025682J0000000000000000000000000000ASSISTENTE COMERCIAL20090923TNQ200000000202005282020050219880307N0000000000
M001SOLDI PROMOTORA DE VENDAS LTDA     0100003700000017098CAROLINE MOREIRA CHAMUSCA          00CAROLINE MOREIRA CHAMUSCA          IMAGE MEMORIAL ITAIGARA            506838608864030204001200528000000000001381600000741580000587478000000000000000000000000000000000000000000000000000000000000000000000000000000000000000000000000000000000000000000880307200000000000000405370         000061486650025682J0000000000000000000000000000ASSISTENTE COMERCIAL20090923TNQ200000000202005282020050219880307N0000000000
M001SOLDI PROMOTORA DE VENDAS LTDA     0100003700000017098CAROLINE MOREIRA CHAMUSCA          00CAROLINE MOREIRA CHAMUSCA          IMAGE MEMORIAL ITAIGARA            506838608864031121001200528000000000001381600000741580000587478000000000000000000000000000000000000000000000000000000000000000000000000000000000000000000000000000000000000000000880307200000000000000405370         000061486650025682J0000000000000000000000000000ASSISTENTE COMERCIAL20090923TNQ200000000202005282020050219880307N0000000000
M001SOLDI PROMOTORA DE VENDAS LTDA     0100003700000017098CAROLINE MOREIRA CHAMUSCA          00CAROLINE MOREIRA CHAMUSCA          IMAGE MEMORIAL ITAIGARA            506838608864030776001200528000000000000981600000741580000587478000000000000000000000000000000000000000000000000000000000000000000000000000000000000000000000000000000000000000000880307200000000000000289370         000061486650025682J0000000000000000000000000000ASSISTENTE COMERCIAL20090923TNQ200000000202005282020050219880307N0000000000
M001SOLDI PROMOTORA DE VENDAS LTDA     0100003700000017098CAROLINE MOREIRA CHAMUSCA          00CAROLINE MOREIRA CHAMUSCA          IMAGE MEMORIAL ITAIGARA            506838608874030238501200528000000000001481600000741580000587478000000000000000000000000000000000000000000000000000000000000000000000000000000000000000000000000000000000000000000880307200000000000000434370         000061486650025682J0000000000000000000000000000ASSISTENTE COMERCIAL20090923TNQ200000000202005282020050519880307N0000000000
M001SOLDI PROMOTORA DE VENDAS LTDA     0100003700000017098CAROLINE MOREIRA CHAMUSCA          00CAROLINE MOREIRA CHAMUSCA          IMAGE MEMORIAL ITAIGARA            506838608874030115001200528000000000001381600000741580000587478000000000000000000000000000000000000000000000000000000000000000000000000000000000000000000000000000000000000000000880307200000000000000405370         000061486650025682J0000000000000000000000000000ASSISTENTE COMERCIAL20090923TNQ200000000202005282020050519880307N0000000000
M001SOLDI PROMOTORA DE VENDAS LTDA     0100003880000017124LUCIANA DO ESPIRITO SANTO ARAUJO   00LUCIANA DO ESPIRITO SANTO ARAUJO   COOPERVASC                         4   F2EERQ13091301200200504000000000026321600000741580000584602000000000000000000000000000000000000000000000000000000000000000000000000000000000000000000000000000000000000000000710322200000000000007708388         000020280363000135J0000000000000000000000000000CONSULTOR DE VENDAS 20100719TNE100000000202005042020030519710322N0000000000
M001SOLDI PROMOTORA DE VENDAS LTDA     0100003880000017124LUCIANA DO ESPIRITO SANTO ARAUJO   00LUCIANA DO ESPIRITO SANTO ARAUJO   COOPERVASC                         4   F2EERQ13091301200200504000000000263241600000741580000584602000000000000000000000000000000000000000000000000000000000000000000000000000000000000000000000000000000000000000000710322200000000000077076388         000020280363000135J0000000000000000000000000000CONSULTOR DE VENDAS 20100719TNE100000000202005042020030519710322N0000000000
M001SOLDI PROMOTORA DE VENDAS LTDA     0100003880000017124LUCIANA DO ESPIRITO SANTO ARAUJO   00LUCIANA DO ESPIRITO SANTO ARAUJO   ECOCARDIO                          606815735752010202001200505000000000053641600000741580000237802000000000000000000000000000000000000000000000000000000000000000000000000000000000000000000000000000000000000000000710322200000000000015706388         000013453246000160J0000000000000000000000000000CONSULTOR DE VENDAS 20100719TNE100000000202005052020030219710322N0000000000
M001SOLDI PROMOTORA DE VENDAS LTDA     0100003880000017124LUCIANA DO ESPIRITO SANTO ARAUJO   00LUCIANA DO ESPIRITO SANTO ARAUJO   CLION                              206814449272010429401200505000000000060011600000741580000599646000000000000000000000000000000000000000000000000000000000000000000000000000000000000000000000000000000000000000000710322200000000000017573388         000013501218000171J0000000000000000000000000000CONSULTOR DE VENDAS 20100719TNE100000000202005052020031219710322N0000000000
M001SOLDI PROMOTORA DE VENDAS LTDA     0100003880000017124LUCIANA DO ESPIRITO SANTO ARAUJO   00LUCIANA DO ESPIRITO SANTO ARAUJO   CLION                              206814449273401999101200505000000000051230000000741580000599646000000000000000000000000000000000000000000000000000000000000000000000000000000000000000000000000000000000000000000710322200000000000015000388         000013501218000171J0000000000000000000000000000CONSULTOR DE VENDAS 20100719TNE100000000202005052020031219710322N0000000000
M001SOLDI PROMOTORA DE VENDAS LTDA     0100003880000017124LUCIANA DO ESPIRITO SANTO ARAUJO   00LUCIANA DO ESPIRITO SANTO ARAUJO   CLION                              206814449273401999201200505000000005218500000000741580000599646000000000000000000000000000000000000000000000000000000000000000000000000000000000000000000000000000000000000000000710322200000000001527931388         000013501218000171J0000000000000000000000000000CONSULTOR DE VENDAS 20100719TNE100000000202005052020031219710322N0000000000
M001SOLDI PROMOTORA DE VENDAS LTDA     0100003880000017124LUCIANA DO ESPIRITO SANTO ARAUJO   00LUCIANA DO ESPIRITO SANTO ARAUJO   ANGIOMED                           606813172404090137801200505000000000067711600000741580000368075000000000000000000000000000000000000000000000000000000000000000000000000000000000000000000000000000000000000000000710322200000000000019825388         000096705660000147J0000000000000000000000000000CONSULTOR DE VENDAS 20100719TNE100000000202005052020030619710322N0000000000
M001SOLDI PROMOTORA DE VENDAS LTDA     0100003880000017124LUCIANA DO ESPIRITO SANTO ARAUJO   00LUCIANA DO ESPIRITO SANTO ARAUJO   ANGIOMED                           506813079644150110102200507000000000008591600000741580000294799000000000000000000000000000000000000000000000000000000000000000000000000000000000000000000000000000000000000000000710322200000000000002518388         000096705660000147J0000000000000000000000000000CONSULTOR DE VENDAS 20100719TNE100000000202005072020030319710322N0000000000
M001SOLDI PROMOTORA DE VENDAS LTDA     0100003880000017124LUCIANA DO ESPIRITO SANTO ARAUJO   00LUCIANA DO ESPIRITO SANTO ARAUJO   LABCHECAP                          506825125134030492201200512000000000004221600000741580000732273000000000000000000000000000000000000000000000000000000000000000000000000000000000000000000000000000000000000000000710322200000000000001237388         000013503479000473J0000000000000000000000000000CONSULTOR DE VENDAS 20100719TNE100000000202005122020031819710322N0000000000
M001SOLDI PROMOTORA DE VENDAS LTDA     0100003880000017124LUCIANA DO ESPIRITO SANTO ARAUJO   00LUCIANA DO ESPIRITO SANTO ARAUJO   LABCHECAP                          506825125134030436101200512000000000003621600000741580000732273000000000000000000000000000000000000000000000000000000000000000000000000000000000000000000000000000000000000000000710322200000000000001062388         000013503479000473J0000000000000000000000000000CONSULTOR DE VENDAS 20100719TNE100000000202005122020031819710322N0000000000
M001SOLDI PROMOTORA DE VENDAS LTDA     0100003880000017124LUCIANA DO ESPIRITO SANTO ARAUJO   00LUCIANA DO ESPIRITO SANTO ARAUJO   ITAIGARA MEMORIAL HOSPITAL DIA     3   F2EERQ10000000100200515000000001337010000000741580000248312000000000000404200000000000000000000000106790000000002542100000000000000000000000000000000000000000000000000093559710322200000000000391466388         000001519101000136J0000000000000000000000000000CONSULTOR DE VENDAS 20100719TNE100000000202005152020030519710322N0000000000
M001SOLDI PROMOTORA DE VENDAS LTDA     0100003880000017124LUCIANA DO ESPIRITO SANTO ARAUJO   00LUCIANA DO ESPIRITO SANTO ARAUJO   CLION                              206827372013401999101200518000000000051230000000741580000599646000000000000000000000000000000000000000000000000000000000000000000000000000000000000000000000000000000000000000000710322200000000000015000388         000013501218000171J0000000000000000000000000000CONSULTOR DE VENDAS 20100719TNE100000000202005182020040219710322N0000000000
M001SOLDI PROMOTORA DE VENDAS LTDA     0100003880000017124LUCIANA DO ESPIRITO SANTO ARAUJO   00LUCIANA DO ESPIRITO SANTO ARAUJO   CLION                              206827372013401999201200518000000005218500000000741580000599646000000000000000000000000000000000000000000000000000000000000000000000000000000000000000000000000000000000000000000710322200000000001527931388         000013501218000171J0000000000000000000000000000CONSULTOR DE VENDAS 20100719TNE100000000202005182020040219710322N0000000000
M001SOLDI PROMOTORA DE VENDAS LTDA     0100003880000017124LUCIANA DO ESPIRITO SANTO ARAUJO   00LUCIANA DO ESPIRITO SANTO ARAUJO   CLION                              206827372013401999501200518000000000068300000000741580000599646000000000000000000000000000000000000000000000000000000000000000000000000000000000000000000000000000000000000000000710322200000000000020000388         000013501218000171J0000000000000000000000000000CONSULTOR DE VENDAS 20100719TNE100000000202005182020040219710322N0000000000
M001SOLDI PROMOTORA DE VENDAS LTDA     0100003880000017124LUCIANA DO ESPIRITO SANTO ARAUJO   00LUCIANA DO ESPIRITO SANTO ARAUJO   CLION                              206827372012010429401200518000000000060011600000741580000599646000000000000000000000000000000000000000000000000000000000000000000000000000000000000000000000000000000000000000000710322200000000000017573388         000013501218000171J0000000000000000000000000000CONSULTOR DE VENDAS 20100719TNE100000000202005182020040219710322N0000000000
M001SOLDI PROMOTORA DE VENDAS LTDA     0100003880000017124LUCIANA DO ESPIRITO SANTO ARAUJO   00LUCIANA DO ESPIRITO SANTO ARAUJO   COPANEST BA                        106826916031010101201200518000000000034151600000741580000097420000000000000000000000000000000000000000000000000000000000000000000000000000000000000000000000000000000000000000000710322200000000000009999388         000013792965000106J0000000000000000000000000000CONSULTOR DE VENDAS 20100719TNE100000000202005182020032019710322N0000000000
M001SOLDI PROMOTORA DE VENDAS LTDA     0100003880000017124LUCIANA DO ESPIRITO SANTO ARAUJO   00LUCIANA DO ESPIRITO SANTO ARAUJO   LABCHECAP                          506828860144030436101200521000000000003621600000741580000732273000000000000000000000000000000000000000000000000000000000000000000000000000000000000000000000000000000000000000000710322200000000000001062388         000013503479000473J0000000000000000000000000000CONSULTOR DE VENDAS 20100719TNE100000000202005212020033019710322N0000000000
M001SOLDI PROMOTORA DE VENDAS LTDA     0100003880000017124LUCIANA DO ESPIRITO SANTO ARAUJO   00LUCIANA DO ESPIRITO SANTO ARAUJO   LABCHECAP                          506828860144030231801200521000000000001691600000741580000732273000000000000000000000000000000000000000000000000000000000000000000000000000000000000000000000000000000000000000000710322200000000000000496388         000013503479000473J0000000000000000000000000000CONSULTOR DE VENDAS 20100719TNE100000000202005212020033019710322N0000000000
M001SOLDI PROMOTORA DE VENDAS LTDA     0100003880000017124LUCIANA DO ESPIRITO SANTO ARAUJO   00LUCIANA DO ESPIRITO SANTO ARAUJO   LABCHECAP                          506828860144030223701200521000000000001931600000741580000732273000000000000000000000000000000000000000000000000000000000000000000000000000000000000000000000000000000000000000000710322200000000000000566388         000013503479000473J0000000000000000000000000000CONSULTOR DE VENDAS 20100719TNE100000000202005212020033019710322N0000000000
M001SOLDI PROMOTORA DE VENDAS LTDA     0100003880000017124LUCIANA DO ESPIRITO SANTO ARAUJO   00LUCIANA DO ESPIRITO SANTO ARAUJO   LABCHECAP                          506828860144030242301200521000000000001691600000741580000732273000000000000000000000000000000000000000000000000000000000000000000000000000000000000000000000000000000000000000000710322200000000000000496388         000013503479000473J0000000000000000000000000000CONSULTOR DE VENDAS 20100719TNE100000000202005212020033019710322N0000000000
M001SOLDI PROMOTORA DE VENDAS LTDA     0100003880000017124LUCIANA DO ESPIRITO SANTO ARAUJO   00LUCIANA DO ESPIRITO SANTO ARAUJO   LABCHECAP                          506828860144030250401200521000000000001691600000741580000732273000000000000000000000000000000000000000000000000000000000000000000000000000000000000000000000000000000000000000000710322200000000000000496388         000013503479000473J0000000000000000000000000000CONSULTOR DE VENDAS 20100719TNE100000000202005212020033019710322N0000000000
M001SOLDI PROMOTORA DE VENDAS LTDA     0100003880000017124LUCIANA DO ESPIRITO SANTO ARAUJO   00LUCIANA DO ESPIRITO SANTO ARAUJO   LABCHECAP                          506828860144030251201200521000000000001691600000741580000732273000000000000000000000000000000000000000000000000000000000000000000000000000000000000000000000000000000000000000000710322200000000000000496388         000013503479000473J0000000000000000000000000000CONSULTOR DE VENDAS 20100719TNE100000000202005212020033019710322N0000000000
M001SOLDI PROMOTORA DE VENDAS LTDA     0100003880000017124LUCIANA DO ESPIRITO SANTO ARAUJO   00LUCIANA DO ESPIRITO SANTO ARAUJO   LABCHECAP                          506828860144030258001200521000000000001691600000741580000732273000000000000000000000000000000000000000000000000000000000000000000000000000000000000000000000000000000000000000000710322200000000000000496388         000013503479000473J0000000000000000000000000000CONSULTOR DE VENDAS 20100719TNE100000000202005212020033019710322N0000000000
M001SOLDI PROMOTORA DE VENDAS LTDA     0100003880000017124LUCIANA DO ESPIRITO SANTO ARAUJO   00LUCIANA DO ESPIRITO SANTO ARAUJO   LABCHECAP                          506828860144030139701200521000000000001811600000741580000732273000000000000000000000000000000000000000000000000000000000000000000000000000000000000000000000000000000000000000000710322200000000000000531388         000013503479000473J0000000000000000000000000000CONSULTOR DE VENDAS 20100719TNE100000000202005212020033019710322N0000000000
M001SOLDI PROMOTORA DE VENDAS LTDA     0100003880000017124LUCIANA DO ESPIRITO SANTO ARAUJO   00LUCIANA DO ESPIRITO SANTO ARAUJO   LABCHECAP                          506828860144030163001200521000000000001691600000741580000732273000000000000000000000000000000000000000000000000000000000000000000000000000000000000000000000000000000000000000000710322200000000000000496388         000013503479000473J0000000000000000000000000000CONSULTOR DE VENDAS 20100719TNE100000000202005212020033019710322N0000000000
M001SOLDI PROMOTORA DE VENDAS LTDA     0100003880000017124LUCIANA DO ESPIRITO SANTO ARAUJO   00LUCIANA DO ESPIRITO SANTO ARAUJO   LABCHECAP                          506828860144030204001200521000000000001691600000741580000732273000000000000000000000000000000000000000000000000000000000000000000000000000000000000000000000000000000000000000000710322200000000000000496388         000013503479000473J0000000000000000000000000000CONSULTOR DE VENDAS 20100719TNE100000000202005212020033019710322N0000000000
M001SOLDI PROMOTORA DE VENDAS LTDA     0100003880000017124LUCIANA DO ESPIRITO SANTO ARAUJO   00LUCIANA DO ESPIRITO SANTO ARAUJO   CLION                              100175811931010101200200528000000000034151600000741580000104027000000000000000000000000000000000000000000000000000000000000000000000000000000000000000000000000000000000000000000710322200000000000010000388         000013501218000171J0000000000000000000000000000CONSULTOR DE VENDAS 20100719TNE100000000202005282020051519710322N0000000000
