HSINISTROS PAGOS074158200720073101000000001000000000000000000000000000000000000000000000000000000000000000000000000000000000000000000000000000000000000000000000000000000000000000000000000000000000000000000000000000000000000000000000000000000000000000000000000000000000000000000000000000000000000000000000000000000000000000000000000000000000000000000000000000000000000000000000000000000000000 012020072020073100000000000000000000000000000000000000000000000000000000000000000000000000000000000000000000
M001SOLDI PROMOTORA DE VENDAS LTDA     0100000190000110157PALOMA TATO RAMOS                  02DIEGO FERREIRA SOARES              ALERGO AR                          10017890716101010120020070200000000003415160000074158000000272000000000000000000000000000000000000000000000000000000000000000000000000000000000000000000000000000000000000000000084042311000000000001000019          020027195106000659J0000000000000000000000000000CONSULTOR DE VENDAS 20110503TNE100000000202007022020060619840423N0000000000
M001SOLDI PROMOTORA DE VENDAS LTDA     0100000190000110157PALOMA TATO RAMOS                  00PALOMA TATO RAMOS                  EMILIANE SIMONEK MALUF CAVALCANTE  19114795494101010120020070700000000003415160000074158192100460000000000000000000000000000000000000000000000000000000000000000000000000000000000000000000000000000000000000000000091032820210000000001000019          000000079704581734F0000000000000000000000000000CONSULTOR DE VENDAS 20110503TNE100000000202007072020061619910328N0000000000
M001SOLDI PROMOTORA DE VENDAS LTDA     0100000190000110157PALOMA TATO RAMOS                  00PALOMA TATO RAMOS                  CLINICA OTO ALERGICA               19111194093101010120020071400000000003415160000074158000006500200000000000000000000000000000000000000000000000000000000000000000000000000000000000000000000000000000000000000000091032820000000000001000019          000005503967000100J0000000000000000000000000000CONSULTOR DE VENDAS 20110503TNE100000000202007142020062419910328N0000000000
M001SOLDI PROMOTORA DE VENDAS LTDA     0100000190000110157PALOMA TATO RAMOS                  02DIEGO FERREIRA SOARES              ALERGO AR                          50685507781414013950120072800000000000769160000074158000077070200000000000000000000000000000000000000000000000000000000000000000000000000000000000000000000000000000000000000000084042311000000000000225419          020030091191000105J0000000000000000000000000000CONSULTOR DE VENDAS 20110503TNE100000000202007282020060619840423N0000000000
M001SOLDI PROMOTORA DE VENDAS LTDA     0100000190000110157PALOMA TATO RAMOS                  02DIEGO FERREIRA SOARES              ALERGO AR                          50685507781414013790120072800000000000769160000074158000077070200000000000000000000000000000000000000000000000000000000000000000000000000000000000000000000000000000000000000000084042311000000000000225419          020030091191000105J0000000000000000000000000000CONSULTOR DE VENDAS 20110503TNE100000000202007282020060619840423N0000000000
M001SOLDI PROMOTORA DE VENDAS LTDA     0100000190000110157PALOMA TATO RAMOS                  02DIEGO FERREIRA SOARES              ALERGO AR                          50685507781414015300120072800000000000821160000074158000077070200000000000000000000000000000000000000000000000000000000000000000000000000000000000000000000000000000000000000000084042311000000000000240619          020030091191000105J0000000000000000000000000000CONSULTOR DE VENDAS 20110503TNE100000000202007282020060619840423N0000000000
M001SOLDI PROMOTORA DE VENDAS LTDA     0100000190000110157PALOMA TATO RAMOS                  02DIEGO FERREIRA SOARES              ALERGO AR                          50685507781414013870120072800000000000769160000074158000077070200000000000000000000000000000000000000000000000000000000000000000000000000000000000000000000000000000000000000000084042311000000000000225419          020030091191000105J0000000000000000000000000000CONSULTOR DE VENDAS 20110503TNE100000000202007282020060619840423N0000000000
M001SOLDI PROMOTORA DE VENDAS LTDA     0100000190000110157PALOMA TATO RAMOS                  02DIEGO FERREIRA SOARES              ALERGO AR                          50685507781414013600120072800000000000769160000074158000077070200000000000000000000000000000000000000000000000000000000000000000000000000000000000000000000000000000000000000000084042311000000000000225419          020030091191000105J0000000000000000000000000000CONSULTOR DE VENDAS 20110503TNE100000000202007282020060619840423N0000000000
M001SOLDI PROMOTORA DE VENDAS LTDA     0100000190000110157PALOMA TATO RAMOS                  02DIEGO FERREIRA SOARES              ALERGO AR                          50685507781414014090120072800000000000769160000074158000077070200000000000000000000000000000000000000000000000000000000000000000000000000000000000000000000000000000000000000000084042311000000000000225419          020030091191000105J0000000000000000000000000000CONSULTOR DE VENDAS 20110503TNE100000000202007282020060619840423N0000000000
M001SOLDI PROMOTORA DE VENDAS LTDA     0100000190000110157PALOMA TATO RAMOS                  02DIEGO FERREIRA SOARES              ALERGO AR                          70685507781414010850120072800000000000276160000074158000077070200000000000000000000000000000000000000000000000000000000000000000000000000000000000000000000000000000000000000000084042311000000000000081019          020030091191000105J0000000000000000000000000000CONSULTOR DE VENDAS 20110503TNE100000000202007282020060619840423N0000000000
M001SOLDI PROMOTORA DE VENDAS LTDA     0100000190000110157PALOMA TATO RAMOS                  02DIEGO FERREIRA SOARES              ALERGO AR                          50685507781414010690120072800000000000769160000074158000077070200000000000000000000000000000000000000000000000000000000000000000000000000000000000000000000000000000000000000000084042311000000000000225419          020030091191000105J0000000000000000000000000000CONSULTOR DE VENDAS 20110503TNE100000000202007282020060619840423N0000000000
M001SOLDI PROMOTORA DE VENDAS LTDA     0100000190000110157PALOMA TATO RAMOS                  02DIEGO FERREIRA SOARES              ALERGO AR                          50685507781414010770120072800000000000769160000074158000077070200000000000000000000000000000000000000000000000000000000000000000000000000000000000000000000000000000000000000000084042311000000000000225419          020030091191000105J0000000000000000000000000000CONSULTOR DE VENDAS 20110503TNE100000000202007282020060619840423N0000000000
M001SOLDI PROMOTORA DE VENDAS LTDA     0100000860000111116ALINE GONCALVES ALBUQUERQUE        01LEONARDO RICARDO PEREIRA FILHO     SEMIU                              10684974225101010390120071600000000003415160000074158000027091100000000000000000000000000000000000000000000000000000000000000000000000000000000000000000000000000000000000000000097080612000000000001000086          010034165969000134J0000000000000000000000000000SUPERVISOR DE VENDAS20101206TNQ200000000202007162020050619970806N0000000000
M001SOLDI PROMOTORA DE VENDAS LTDA     0100000860000111116ALINE GONCALVES ALBUQUERQUE        00ALINE GONCALVES ALBUQUERQUE        SEMIU                              10684974188101010390120071600000000003415160000074158000027091100000000000000000000000000000000000000000000000000000000000000000000000000000000000000000000000000000000000000000078020920000000000001000086          000034165969000134J0000000000000000000000000000SUPERVISOR DE VENDAS20101206TNQ200000000202007162020051919780209N0000000000
M001SOLDI PROMOTORA DE VENDAS LTDA     0100000860000111116ALINE GONCALVES ALBUQUERQUE        00ALINE GONCALVES ALBUQUERQUE        SEMIU                              20684974188340199920120071600000000000028000000074158000027091100000000000000000000000000000000000000000000000000000000000000000000000000000000000000000000000000000000000000000078020920000000000000008286          000034165969000134J0000000000000000000000000000SUPERVISOR DE VENDAS20101206TNQ200000000202007162020051919780209N0000000000
M001SOLDI PROMOTORA DE VENDAS LTDA     0100000860000111116ALINE GONCALVES ALBUQUERQUE        00ALINE GONCALVES ALBUQUERQUE        SEMIU                              60684974188410010790120071600000000010562160000074158000027091100000000000000000000000000000000000000000000000000000000000000000000000000000000000000000000000000000000000000000078020920000000000003092686          000034165969000134J0000000000000000000000000000SUPERVISOR DE VENDAS20101206TNQ200000000202007162020051919780209N0000000000
M001SOLDI PROMOTORA DE VENDAS LTDA     0100001320000118002JOSE LEITE RIBEIRO TAVARES         00JOSE LEITE RIBEIRO TAVARES         MARINA GENESIA DA SILVA REGUEIRA   101181669271010101200200721000000000034151600000741581560001900000000000000000000000000000000000000000000000000000000000000000000000000000000000000000000000000000000000000000000710927106000000000010000132         000000007198508430F0000000000000000000000000000GERENTE COMERCIAL I 20080218TNQ200000000202007212020070319710927N0000000000
M001SOLDI PROMOTORA DE VENDAS LTDA     0100001320000118002JOSE LEITE RIBEIRO TAVARES         02MATEUS DE MEDEIROS TAVARES LEITE   MARINA GENESIA DA SILVA REGUEIRA   101181669281010101200200721000000000034151600000741581560001900000000000000000000000000000000000000000000000000000000000000000000000000000000000000000000000000000000000000000000080324126000000000010000132         020000007198508430F0000000000000000000000000000GERENTE COMERCIAL I 20080218TNQ200000000202007212020070320080324N0000000000
M001SOLDI PROMOTORA DE VENDAS LTDA     0100001320000118002JOSE LEITE RIBEIRO TAVARES         02MATEUS DE MEDEIROS TAVARES LEITE   ESPACO INTEGRAR                    206853370395000047001200723000000000014501600000741580000930792000000000000000000000000000000000000000000000000000000000000000000000000000000000000000000000000000000000000000000080324120000000000004246132         020011422364000186J0000000000000000000000000000GERENTE COMERCIAL I 20080218TNQ200000000202007232020052920080324N0000000000
M001SOLDI PROMOTORA DE VENDAS LTDA     0100001320000118002JOSE LEITE RIBEIRO TAVARES         02MATEUS DE MEDEIROS TAVARES LEITE   ESPACO INTEGRAR                    206853370395000047001200723000000000014501600000741580000930792000000000000000000000000000000000000000000000000000000000000000000000000000000000000000000000000000000000000000000080324120000000000004246132         020011422364000186J0000000000000000000000000000GERENTE COMERCIAL I 20080218TNQ200000000202007232020052920080324N0000000000
M001SOLDI PROMOTORA DE VENDAS LTDA     0100001320000118002JOSE LEITE RIBEIRO TAVARES         02MATEUS DE MEDEIROS TAVARES LEITE   ESPACO INTEGRAR                    206853370395000047001200723000000000014501600000741580000930792000000000000000000000000000000000000000000000000000000000000000000000000000000000000000000000000000000000000000000080324120000000000004246132         020011422364000186J0000000000000000000000000000GERENTE COMERCIAL I 20080218TNQ200000000202007232020052920080324N0000000000
M001SOLDI PROMOTORA DE VENDAS LTDA     0100001320000118002JOSE LEITE RIBEIRO TAVARES         02MATEUS DE MEDEIROS TAVARES LEITE   ESPACO INTEGRAR                    206853370395000047001200723000000000014501600000741580000930792000000000000000000000000000000000000000000000000000000000000000000000000000000000000000000000000000000000000000000080324120000000000004246132         020011422364000186J0000000000000000000000000000GERENTE COMERCIAL I 20080218TNQ200000000202007232020052920080324N0000000000
M001SOLDI PROMOTORA DE VENDAS LTDA     0100001320000118002JOSE LEITE RIBEIRO TAVARES         02MATEUS DE MEDEIROS TAVARES LEITE   ESPACO INTEGRAR                    206853370395000047001200723000000000014501600000741580000930792000000000000000000000000000000000000000000000000000000000000000000000000000000000000000000000000000000000000000000080324120000000000004246132         020011422364000186J0000000000000000000000000000GERENTE COMERCIAL I 20080218TNQ200000000202007232020052920080324N0000000000
M001SOLDI PROMOTORA DE VENDAS LTDA     0100001400000118013PALOMA SANTANA TEIXEIRA            02MIGUEL SANTANA BARBOSA             COOPED PB                          100180424641010101200200715000000000034151600000741580000141291000000000000000000000000000000000000000000000000000000000000000000000000000000000000000000000000000000000000000000181017120000000000010000140         020004584679000164J0000000000000000000000000000CONSULTOR DE VENDAS 20100413TNE100000000202007152020061020181017N0000000000
M001SOLDI PROMOTORA DE VENDAS LTDA     0100001400000118013PALOMA SANTANA TEIXEIRA            00PALOMA SANTANA TEIXEIRA            HOSPITAL DAS NEVES                 206853029238400040601200723000000000112700000000741580000432911000000000000000000000000000000000000000000000000000000000000000000000000000000000000000000000000000000000000000000880227200000000000033000140         000001817749000199J0000000000000000000000000000CONSULTOR DE VENDAS 20100413TNE100000000202007232020061019880227N0000000000
M001SOLDI PROMOTORA DE VENDAS LTDA     0100001400000118013PALOMA SANTANA TEIXEIRA            02MIGUEL SANTANA BARBOSA             HOSPITAL DAS NEVES                 206557956088400334001200731000000000092210000000741580000432911000000000000000000000000000000000000000000000000000000000000000000000000000000000000000000000000000000000000000000181017120000000000027000140         020001817749000199J0000000000000000000000000000CONSULTOR DE VENDAS 20100413TNE100000000202007312019042020181017N0000000000
M001SOLDI PROMOTORA DE VENDAS LTDA     0100001590000118023THALITA MENDES DE ALMEIDA LIMA     00THALITA MENDES DE ALMEIDA LIMA     HOSPITAL DAS NEVES                 206856765168400040601200731000000000112700000000741580000432911000000000000000000000000000000000000000000000000000000000000000000000000000000000000000000000000000000000000000000891208200000000000033000159         000001817749000199J0000000000000000000000000000CONSULTOR DE VENDAS 20110110TNE100000000202007312020061619891208N0000000000
M001SOLDI PROMOTORA DE VENDAS LTDA     0100002050000120018ANDREZA SANTOS HUMSI RAYES         01NICOLE B SANTOS RAYES FRANCISCO    HOSPITAL NOSSO LAR                 106850001431010101201200716000000000034151600000741580000433810000000000000000000000000000000000000000000000000000000000000000000000000000000000000000000000000000000000000000000150427220000000000010000205         010003267101000464J0000000000000000000000000000CONSULTOR DE VENDAS 20100809TNE100000000202007162020051120150427N0000000000
M001SOLDI PROMOTORA DE VENDAS LTDA     0100002640000013086ANTONIA DE SOUSA GOMES FEIJAO      00ANTONIA DE SOUSA GOMES FEIJAO      CLINICA SAO GONCALO                206843053928400040601200702000000000068200000000741580000140619000000000000000000000000000000000000000000000000000000000000000000000000000000000000000000000000000000000000000000601013200000000000019969264         000031671480000146J0000000000000000000000000000AUXILIAR DE SERVICOS20100503TNE100000000202007022020052119601013N0000000000
M001SOLDI PROMOTORA DE VENDAS LTDA     0100002640000013086ANTONIA DE SOUSA GOMES FEIJAO      00ANTONIA DE SOUSA GOMES FEIJAO      CLINICA SAO GONCALO                206843459368400040601200703000000000068200000000741580000140619000000000000000000000000000000000000000000000000000000000000000000000000000000000000000000000000000000000000000000601013200000000000019969264         000031671480000146J0000000000000000000000000000AUXILIAR DE SERVICOS20100503TNE100000000202007032020052519601013N0000000000
M001SOLDI PROMOTORA DE VENDAS LTDA     0100002640000013086ANTONIA DE SOUSA GOMES FEIJAO      00ANTONIA DE SOUSA GOMES FEIJAO      PROSAUDE                           506846972834010101001200707000000000007301600000741580000887927000000000000000000000000000000000000000000000000000000000000000000000000000000000000000000000000000000000000000000601013200000000000002138264         000002355330000125J0000000000000000000000000000AUXILIAR DE SERVICOS20100503TNE100000000202007072020052719601013N0000000000
M001SOLDI PROMOTORA DE VENDAS LTDA     0100002640000013086ANTONIA DE SOUSA GOMES FEIJAO      00ANTONIA DE SOUSA GOMES FEIJAO      MONALIZA GOMES DE CARVALHO         191223792631010101200200713000000000034151600000741580038034000000000000000000000000000000000000000000000000000000000000000000000000000000000000000000000000000000000000000000000601013203800000000010000264         000000072921889749F0000000000000000000000000000AUXILIAR DE SERVICOS20100503TNE100000000202007132020061519601013N0000000000
M001SOLDI PROMOTORA DE VENDAS LTDA     0100002640000013086ANTONIA DE SOUSA GOMES FEIJAO      01ANTONIO EGBERTO FEIJAO             PROSAUDE                           191163346711010101200200714000000000034151600000741580000887927000000000000000000000000000000000000000000000000000000000000000000000000000000000000000000000000000000000000000000550607110000000000010000264         010002355330000125J0000000000000000000000000000AUXILIAR DE SERVICOS20100503TNE100000000202007142020063019550607N0000000000
M001SOLDI PROMOTORA DE VENDAS LTDA     0100003290000133158CARLA C GUILHERME SILVA MARQUES    00CARLA C GUILHERME SILVA MARQUES    HOSP MEMORIAL ARTHUR RAMOS         206635831353401999501200709000000000021500000000741580000047619000000000000000000000000000000000000000000000000000000000000000000000000000000000000000000000000000000000000000000860103200000000000006297329         000001722424000122J0000000000000000000000000000CONSULTOR DE VENDAS 20110701TNE100000000202007092019052419860103N0000000000
M001SOLDI PROMOTORA DE VENDAS LTDA     0100003290000133158CARLA C GUILHERME SILVA MARQUES    03LAVINIA ISABELE GUILHERME MARQUES  HOSP MEMORIAL ARTHUR RAMOS         206713560643401999101200731000000000012900000000741580000047619000000000000000000000000000000000000000000000000000000000000000000000000000000000000000000000000000000000000000000140221220000000000003778329         030001722424000122J0000000000000000000000000000CONSULTOR DE VENDAS 20110701TNE100000000202007312019081320140221N0000000000
M001SOLDI PROMOTORA DE VENDAS LTDA     0100003530000014055REGINA HELENA NERY BEZERRA         02LUCAS RODRIGO NERY DOS SANTOS      HOSPITAL ESPERANCA OLINDA          206276652938400101101200702000000000004950000000741580000408212000000000000000000000000000000000000000000000000000000000000000000000000000000000000000000000000000000000000000000000331120000000000001451353         020006047087001291J0000000000000000000000000000CONSULTOR DE VENDAS 20100804TNE100000000202007022018050320000331N0000000000
M001SOLDI PROMOTORA DE VENDAS LTDA     0100003530000014055REGINA HELENA NERY BEZERRA         01HELENA PATRICIA NERY DOS SANTOS    EDNA REGINA CLINICA MEDICA         191229435931010101200200728000000000034151600000741580000331002000000000000000000000000000000000000000000000000000000000000000000000000000000000000000000000000000000000000000000000331220000000000010000353         010020076084000154J0000000000000000000000000000CONSULTOR DE VENDAS 20100804TNE100000000202007282020062220000331N0000000000
M001SOLDI PROMOTORA DE VENDAS LTDA     0100003610000017005EDVANE PEREIRA DE OLIVEIRA         00EDVANE PEREIRA DE OLIVEIRA         CLIVALE LAURO DE FREITAS           606843638844090147502200703000000000127581600000741580000390102000000000000000000000000000000000000000000000000000000000000000000000000000000000000000000000000000000000000000000801011200000000000037355361         000014579940000353J0000000000000000000000000000SUPERVISOR DE VENDAS20060701TNQ200000000202007032020051819801011N0000000000
M001SOLDI PROMOTORA DE VENDAS LTDA     0100003610000017005EDVANE PEREIRA DE OLIVEIRA         00EDVANE PEREIRA DE OLIVEIRA         CLIVALE LAURO DE FREITAS           606843638844090148302200703000000000167381600000741580000390102000000000000000000000000000000000000000000000000000000000000000000000000000000000000000000000000000000000000000000801011200000000000049008361         000014579940000353J0000000000000000000000000000SUPERVISOR DE VENDAS20060701TNQ200000000202007032020051819801011N0000000000
M001SOLDI PROMOTORA DE VENDAS LTDA     0100003700000017098CAROLINE MOREIRA CHAMUSCA          00CAROLINE MOREIRA CHAMUSCA          HEMATO                             706844002444040334301200703000000000011201600000741580000659347010000000000000000000000000000000000000000000000000000000000000000000000000000000000000000000000000000000000000000880307200000000000003281370         000013894995000123J0000000000000000000000000000ASSISTENTE COMERCIAL20090923TNQ200000000202007032020050819880307N0000000000
M001SOLDI PROMOTORA DE VENDAS LTDA     0100003700000017098CAROLINE MOREIRA CHAMUSCA          00CAROLINE MOREIRA CHAMUSCA          HEMATO                             506844002444040368801200703000000000008431600000741580000659347010000000000000000000000000000000000000000000000000000000000000000000000000000000000000000000000000000000000000000880307200000000000002470370         000013894995000123J0000000000000000000000000000ASSISTENTE COMERCIAL20090923TNQ200000000202007032020050819880307N0000000000
M001SOLDI PROMOTORA DE VENDAS LTDA     0100003700000017098CAROLINE MOREIRA CHAMUSCA          00CAROLINE MOREIRA CHAMUSCA          ANGIOCLAM VILLAS                   606843996524090136001200707000000000056991600000741580000640476000000000000000000000000000000000000000000000000000000000000000000000000000000000000000000000000000000000000000000880307200000000000016689370         000011510568000179J0000000000000000000000000000ASSISTENTE COMERCIAL20090923TNQ200000000202007072020052519880307N0000000000
M001SOLDI PROMOTORA DE VENDAS LTDA     0100003700000017098CAROLINE MOREIRA CHAMUSCA          00CAROLINE MOREIRA CHAMUSCA          ANGIOCLAM VILLAS                   606843996524090146701200707000000000072261600000741580000640476000000000000000000000000000000000000000000000000000000000000000000000000000000000000000000000000000000000000000000880307200000000000021159370         000011510568000179J0000000000000000000000000000ASSISTENTE COMERCIAL20090923TNQ200000000202007072020052519880307N0000000000
M001SOLDI PROMOTORA DE VENDAS LTDA     0100003700000017098CAROLINE MOREIRA CHAMUSCA          00CAROLINE MOREIRA CHAMUSCA          ANGIOCLAM VILLAS                   606843996524090146701200707000000000072261600000741580000640476000000000000000000000000000000000000000000000000000000000000000000000000000000000000000000000000000000000000000000880307200000000000021159370         000011510568000179J0000000000000000000000000000ASSISTENTE COMERCIAL20090923TNQ200000000202007072020052519880307N0000000000
M001SOLDI PROMOTORA DE VENDAS LTDA     0100003700000017098CAROLINE MOREIRA CHAMUSCA          00CAROLINE MOREIRA CHAMUSCA          ANGIOCLAM VILLAS                   606843996524090147501200707000000000066181600000741580000640476000000000000000000000000000000000000000000000000000000000000000000000000000000000000000000000000000000000000000000880307200000000000019377370         000011510568000179J0000000000000000000000000000ASSISTENTE COMERCIAL20090923TNQ200000000202007072020052519880307N0000000000
M001SOLDI PROMOTORA DE VENDAS LTDA     0100003700000017098CAROLINE MOREIRA CHAMUSCA          01MARCELO CHAMUSCA DE LUNA           ANGIOCLAM VILLAS                   506846863562010203801200707000000000050111600000741580000799491000000000000000000000000000000000000000000000000000000000000000000000000000000000000000000000000000000000000000000801223110000000000014673370         010011510568000179J0000000000000000000000000000ASSISTENTE COMERCIAL20090923TNQ200000000202007072020052519801223N0000000000
M001SOLDI PROMOTORA DE VENDAS LTDA     0100003700000017098CAROLINE MOREIRA CHAMUSCA          00CAROLINE MOREIRA CHAMUSCA          ANGIOCLAM VILLAS                   606843996524090147501200707000000000066181600000741580000640476000000000000000000000000000000000000000000000000000000000000000000000000000000000000000000000000000000000000000000880307200000000000019377370         000011510568000179J0000000000000000000000000000ASSISTENTE COMERCIAL20090923TNQ200000000202007072020052519880307N0000000000
M001SOLDI PROMOTORA DE VENDAS LTDA     0100003700000017098CAROLINE MOREIRA CHAMUSCA          00CAROLINE MOREIRA CHAMUSCA          ANGIOCLAM VILLAS                   606843996524090148301200707000000000101481600000741580000640476000000000000000000000000000000000000000000000000000000000000000000000000000000000000000000000000000000000000000000880307200000000000029713370         000011510568000179J0000000000000000000000000000ASSISTENTE COMERCIAL20090923TNQ200000000202007072020052519880307N0000000000
M001SOLDI PROMOTORA DE VENDAS LTDA     0100003700000017098CAROLINE MOREIRA CHAMUSCA          00CAROLINE MOREIRA CHAMUSCA          ANGIOCLAM VILLAS                   606843996524090145901200707000000000066181600000741580000640476000000000000000000000000000000000000000000000000000000000000000000000000000000000000000000000000000000000000000000880307200000000000019377370         000011510568000179J0000000000000000000000000000ASSISTENTE COMERCIAL20090923TNQ200000000202007072020052519880307N0000000000
M001SOLDI PROMOTORA DE VENDAS LTDA     0100003700000017098CAROLINE MOREIRA CHAMUSCA          00CAROLINE MOREIRA CHAMUSCA          ANGIOCLAM VILLAS                   606843996524090145901200707000000000066181600000741580000640476000000000000000000000000000000000000000000000000000000000000000000000000000000000000000000000000000000000000000000880307200000000000019377370         000011510568000179J0000000000000000000000000000ASSISTENTE COMERCIAL20090923TNQ200000000202007072020052519880307N0000000000
M001SOLDI PROMOTORA DE VENDAS LTDA     0100003700000017098CAROLINE MOREIRA CHAMUSCA          00CAROLINE MOREIRA CHAMUSCA          ANGIOCLAM VILLAS                   606843996524090148301200707000000000072261600000741580000640476000000000000000000000000000000000000000000000000000000000000000000000000000000000000000000000000000000000000000000880307200000000000021159370         000011510568000179J0000000000000000000000000000ASSISTENTE COMERCIAL20090923TNQ200000000202007072020052519880307N0000000000
M001SOLDI PROMOTORA DE VENDAS LTDA     0100003700000017098CAROLINE MOREIRA CHAMUSCA          00CAROLINE MOREIRA CHAMUSCA          NEWLIFE                            100181783991010101200200731000000000034151600000741580000276602000000000000000000000000000000000000000000000000000000000000000000000000000000000000000000000000000000000000000000880307200000000000010000370         000018899204000171J0000000000000000000000000000ASSISTENTE COMERCIAL20090923TNQ200000000202007312020071519880307N0000000000
M001SOLDI PROMOTORA DE VENDAS LTDA     0100003880000017124LUCIANA DO ESPIRITO SANTO ARAUJO   00LUCIANA DO ESPIRITO SANTO ARAUJO   CLION                              100179441651010101200200708000000000034151600000741580000104027000000000000000000000000000000000000000000000000000000000000000000000000000000000000000000000000000000000000000000710322200000000000010000388         000013501218000171J0000000000000000000000000000CONSULTOR DE VENDAS 20100719TNE100000000202007082020062519710322N0000000000
M001SOLDI PROMOTORA DE VENDAS LTDA     0100003880000017124LUCIANA DO ESPIRITO SANTO ARAUJO   00LUCIANA DO ESPIRITO SANTO ARAUJO   LABCHECAP                          506850348104030250401200716000000000001691600000741580000731676000000000000000000000000000000000000000000000000000000000000000000000000000000000000000000000000000000000000000000710322200000000000000496388         000013503479000201J0000000000000000000000000000CONSULTOR DE VENDAS 20100719TNE100000000202007162020060119710322N0000000000
M001SOLDI PROMOTORA DE VENDAS LTDA     0100003880000017124LUCIANA DO ESPIRITO SANTO ARAUJO   00LUCIANA DO ESPIRITO SANTO ARAUJO   LABCHECAP                          506850348104030251201200716000000000001691600000741580000731676000000000000000000000000000000000000000000000000000000000000000000000000000000000000000000000000000000000000000000710322200000000000000496388         000013503479000201J0000000000000000000000000000CONSULTOR DE VENDAS 20100719TNE100000000202007162020060119710322N0000000000
M001SOLDI PROMOTORA DE VENDAS LTDA     0100003880000017124LUCIANA DO ESPIRITO SANTO ARAUJO   00LUCIANA DO ESPIRITO SANTO ARAUJO   LABCHECAP                          506850348104030258001200716000000000001691600000741580000731676000000000000000000000000000000000000000000000000000000000000000000000000000000000000000000000000000000000000000000710322200000000000000496388         000013503479000201J0000000000000000000000000000CONSULTOR DE VENDAS 20100719TNE100000000202007162020060119710322N0000000000
M001SOLDI PROMOTORA DE VENDAS LTDA     0100003880000017124LUCIANA DO ESPIRITO SANTO ARAUJO   00LUCIANA DO ESPIRITO SANTO ARAUJO   LABCHECAP                          506850348104030436101200716000000000003621600000741580000731676000000000000000000000000000000000000000000000000000000000000000000000000000000000000000000000000000000000000000000710322200000000000001062388         000013503479000201J0000000000000000000000000000CONSULTOR DE VENDAS 20100719TNE100000000202007162020060119710322N0000000000
M001SOLDI PROMOTORA DE VENDAS LTDA     0100003880000017124LUCIANA DO ESPIRITO SANTO ARAUJO   00LUCIANA DO ESPIRITO SANTO ARAUJO   LABCHECAP                          506850348104030204001200716000000000001691600000741580000731676000000000000000000000000000000000000000000000000000000000000000000000000000000000000000000000000000000000000000000710322200000000000000496388         000013503479000201J0000000000000000000000000000CONSULTOR DE VENDAS 20100719TNE100000000202007162020060119710322N0000000000
M001SOLDI PROMOTORA DE VENDAS LTDA     0100003880000017124LUCIANA DO ESPIRITO SANTO ARAUJO   00LUCIANA DO ESPIRITO SANTO ARAUJO   LABCHECAP                          506850348104030163001200716000000000001691600000741580000731676000000000000000000000000000000000000000000000000000000000000000000000000000000000000000000000000000000000000000000710322200000000000000496388         000013503479000201J0000000000000000000000000000CONSULTOR DE VENDAS 20100719TNE100000000202007162020060119710322N0000000000
M001SOLDI PROMOTORA DE VENDAS LTDA     0100003880000017124LUCIANA DO ESPIRITO SANTO ARAUJO   00LUCIANA DO ESPIRITO SANTO ARAUJO   HOSPITAL SAO RAFAEL                191034227741010101200200721000000000034151600000741580000657002000000000000000000000000000000000000000000000000000000000000000000000000000000000000000000000000000000000000000000710322200000000000010000388         000027372066000169J0000000000000000000000000000CONSULTOR DE VENDAS 20100719TNE100000000202007212020070819710322N0000000000
M001SOLDI PROMOTORA DE VENDAS LTDA     0100003880000017124LUCIANA DO ESPIRITO SANTO ARAUJO   00LUCIANA DO ESPIRITO SANTO ARAUJO   CLION                              206852459823401999501200727000000000068300000000741580000599646000000000000000000000000000000000000000000000000000000000000000000000000000000000000000000000000000000000000000000710322200000000000020000388         000013501218000171J0000000000000000000000000000CONSULTOR DE VENDAS 20100719TNE100000000202007272020060419710322N0000000000
M001SOLDI PROMOTORA DE VENDAS LTDA     0100003880000017124LUCIANA DO ESPIRITO SANTO ARAUJO   00LUCIANA DO ESPIRITO SANTO ARAUJO   CLION                              206852459823401999101200727000000000051230000000741580000599646000000000000000000000000000000000000000000000000000000000000000000000000000000000000000000000000000000000000000000710322200000000000015000388         000013501218000171J0000000000000000000000000000CONSULTOR DE VENDAS 20100719TNE100000000202007272020060419710322N0000000000
M001SOLDI PROMOTORA DE VENDAS LTDA     0100003880000017124LUCIANA DO ESPIRITO SANTO ARAUJO   00LUCIANA DO ESPIRITO SANTO ARAUJO   CLION                              206852459823401999201200727000000004839140000000741580000599646000000000000000000000000000000000000000000000000000000000000000000000000000000000000000000000000000000000000000000710322200000000001416860388         000013501218000171J0000000000000000000000000000CONSULTOR DE VENDAS 20100719TNE100000000202007272020060419710322N0000000000
M001SOLDI PROMOTORA DE VENDAS LTDA     0100003880000017124LUCIANA DO ESPIRITO SANTO ARAUJO   00LUCIANA DO ESPIRITO SANTO ARAUJO   CLION                              206852459822010429401200727000000000060011600000741580000599646000000000000000000000000000000000000000000000000000000000000000000000000000000000000000000000000000000000000000000710322200000000000017573388         000013501218000171J0000000000000000000000000000CONSULTOR DE VENDAS 20100719TNE100000000202007272020060419710322N0000000000
M001SOLDI PROMOTORA DE VENDAS LTDA     0100004000000017132JACIRA SOFIA DOS SANTOS            00JACIRA SOFIA DOS SANTOS            HOSPITAL SANTA IZABEL              206843001538400251401200702000000000128070000000741580000059811000000000000000000000000000000000000000000000000000000000000000000000000000000000000000000000000000000000000000000700303200000000000037500400         000015153745000249J0000000000000000000000000000AUXILIAR DE SERVICOS20100722TNE100000000202007022020052019700303N0000000000
M001SOLDI PROMOTORA DE VENDAS LTDA     0100004180000180010DANIELLE BARBOSA DUARTE            00DANIELLE BARBOSA DUARTE            HOSPITAL FELICIO ROCHO             506845239564060111001200707000000000025581600000741580000563072000000000000000000000000000000000000000000000000000000000000000000000000000000000000000000000000000000000000000000830513200000000000007490418         000017214149000176J0000000000000000000000000000CONSULTOR DE VENDAS 20111020TNE100000000202007072020050619830513N0000000000
M001SOLDI PROMOTORA DE VENDAS LTDA     0100004180000180010DANIELLE BARBOSA DUARTE            00DANIELLE BARBOSA DUARTE            LABORATORIO SAO MARCOS             506852277534030199001200721000000000002131600000741580000272132000000000000000000000000000000000000000000000000000000000000000000000000000000000000000000000000000000000000000000830513200000000000000625418         000016740086000129J0000000000000000000000000000CONSULTOR DE VENDAS 20111020TNE100000000202007212020060319830513N0000000000
M001SOLDI PROMOTORA DE VENDAS LTDA     0100004180000180010DANIELLE BARBOSA DUARTE            00DANIELLE BARBOSA DUARTE            LABORATORIO SAO MARCOS             506852277534030172901200721000000000003201600000741580000272132000000000000000000000000000000000000000000000000000000000000000000000000000000000000000000000000000000000000000000830513200000000000000939418         000016740086000129J0000000000000000000000000000CONSULTOR DE VENDAS 20111020TNE100000000202007212020060319830513N0000000000
M001SOLDI PROMOTORA DE VENDAS LTDA     0100004180000180010DANIELLE BARBOSA DUARTE            00DANIELLE BARBOSA DUARTE            LABORATORIO SAO MARCOS             506852277534030436101200721000000000003201600000741580000272132000000000000000000000000000000000000000000000000000000000000000000000000000000000000000000000000000000000000000000830513200000000000000939418         000016740086000129J0000000000000000000000000000CONSULTOR DE VENDAS 20111020TNE100000000202007212020060319830513N0000000000
M001SOLDI PROMOTORA DE VENDAS LTDA     0100004180000180010DANIELLE BARBOSA DUARTE            00DANIELLE BARBOSA DUARTE            LABORATORIO SAO MARCOS             506852277534030258001200721000000000001491600000741580000272132000000000000000000000000000000000000000000000000000000000000000000000000000000000000000000000000000000000000000000830513200000000000000438418         000016740086000129J0000000000000000000000000000CONSULTOR DE VENDAS 20111020TNE100000000202007212020060319830513N0000000000
M001SOLDI PROMOTORA DE VENDAS LTDA     0100004180000180010DANIELLE BARBOSA DUARTE            00DANIELLE BARBOSA DUARTE            LABORATORIO SAO MARCOS             506852277534030188501200721000000000001921600000741580000272132000000000000000000000000000000000000000000000000000000000000000000000000000000000000000000000000000000000000000000830513200000000000000564418         000016740086000129J0000000000000000000000000000CONSULTOR DE VENDAS 20111020TNE100000000202007212020060319830513N0000000000
M001SOLDI PROMOTORA DE VENDAS LTDA     0100004180000180010DANIELLE BARBOSA DUARTE            00DANIELLE BARBOSA DUARTE            LABORATORIO SAO MARCOS             506852277534030163001200721000000000001491600000741580000272132000000000000000000000000000000000000000000000000000000000000000000000000000000000000000000000000000000000000000000830513200000000000000438418         000016740086000129J0000000000000000000000000000CONSULTOR DE VENDAS 20111020TNE100000000202007212020060319830513N0000000000
M001SOLDI PROMOTORA DE VENDAS LTDA     0100004180000180010DANIELLE BARBOSA DUARTE            00DANIELLE BARBOSA DUARTE            LABORATORIO SAO MARCOS             506852277534030250401200721000000000001491600000741580000272132000000000000000000000000000000000000000000000000000000000000000000000000000000000000000000000000000000000000000000830513200000000000000438418         000016740086000129J0000000000000000000000000000CONSULTOR DE VENDAS 20111020TNE100000000202007212020060319830513N0000000000
M001SOLDI PROMOTORA DE VENDAS LTDA     0100004180000180010DANIELLE BARBOSA DUARTE            00DANIELLE BARBOSA DUARTE            LABORATORIO SAO MARCOS             506852277534031612201200721000000000020291600000741580000272132000000000000000000000000000000000000000000000000000000000000000000000000000000000000000000000000000000000000000000830513200000000000005942418         000016740086000129J0000000000000000000000000000CONSULTOR DE VENDAS 20111020TNE100000000202007212020060319830513N0000000000
M001SOLDI PROMOTORA DE VENDAS LTDA     0100004180000180010DANIELLE BARBOSA DUARTE            00DANIELLE BARBOSA DUARTE            LABORATORIO SAO MARCOS             506852277534030251201200721000000000001491600000741580000272132000000000000000000000000000000000000000000000000000000000000000000000000000000000000000000000000000000000000000000830513200000000000000438418         000016740086000129J0000000000000000000000000000CONSULTOR DE VENDAS 20111020TNE100000000202007212020060319830513N0000000000
M001SOLDI PROMOTORA DE VENDAS LTDA     0100004180000180010DANIELLE BARBOSA DUARTE            01LARISSA ANTONELLA DUARTE NUNES     BELCOOP                            191167471321010101200200722000000000035861600000741580000686220000000000000000000000000000000000000000000000000000000000000000000000000000000000000000000000000000000000000000000051218220000000000010500418         010086383973000172J0000000000000000000000000000CONSULTOR DE VENDAS 20111020TNE100000000202007222020070320051218N0000000000
M001SOLDI PROMOTORA DE VENDAS LTDA     0100004340000018110MARIA LUCIA DA SILVA               00MARIA LUCIA DA SILVA               CLINICA JOAO SILVA FILHO           506846933864080303102200707000000000023591600000741580000855472000000000000000000000000000000000000000000000000000000000000000000000000000000000000000000000000000000000000000000760306200000000000006908434         000008708092000170J0000000000000000000000000000CONSULTOR DE VENDAS 20101122TNE100000000202007072020050919760306N0000000000
M001SOLDI PROMOTORA DE VENDAS LTDA     0100005070008800211GLAUBER LARANJEIRA DO NASCIMENTO   03ARTHUR FERREIRA NASCIMENTO         GLAUBER LARANJEIRA DO NASCIMENTO   200038501335000047010200715000000000614771600000741580000000000000000000000000000000000000000000000000000000000000000000000000000000000000000000000000000000000000000000000000000170819129900000000180000507         030000000000000000 0000000000000000000000000000SUPERVISOR DE VENDAS20111002TNE100000000202007152020060220170819N0000180000
M001SOLDI PROMOTORA DE VENDAS LTDA     0100005070008800211GLAUBER LARANJEIRA DO NASCIMENTO   03ARTHUR FERREIRA NASCIMENTO         GLAUBER LARANJEIRA DO NASCIMENTO   200038501345000047013200715000000000799201600000741580000000000000000000000000000000000000000000000000000000000000000000000000000000000000000000000000000000000000000000000000000170819129900000000234000507         030000000000000000 0000000000000000000000000000SUPERVISOR DE VENDAS20111002TNE100000000202007152020060120170819N0000234000
M001SOLDI PROMOTORA DE VENDAS LTDA     0100005070008800211GLAUBER LARANJEIRA DO NASCIMENTO   03ARTHUR FERREIRA NASCIMENTO         GLAUBER LARANJEIRA DO NASCIMENTO   200038501395000061603200715000000000143441600000741580000000000000000000000000000000000000000000000000000000000000000000000000000000000000000000000000000000000000000000000000000170819129900000000042000507         030000000000000000 0000000000000000000000000000SUPERVISOR DE VENDAS20111002TNE100000000202007152020050420170819N0000042000
M001SOLDI PROMOTORA DE VENDAS LTDA     0100005070008800211GLAUBER LARANJEIRA DO NASCIMENTO   03ARTHUR FERREIRA NASCIMENTO         GLAUBER LARANJEIRA DO NASCIMENTO   200038501393401999509200715000000000430340000000741580000000000000000000000000000000000000000000000000000000000000000000000000000000000000000000000000000000000000000000000000000170819129900000000126000507         030000000000000000 0000000000000000000000000000SUPERVISOR DE VENDAS20111002TNE100000000202007152020050420170819N0000126000
M001SOLDI PROMOTORA DE VENDAS LTDA     0100005070008800211GLAUBER LARANJEIRA DO NASCIMENTO   03ARTHUR FERREIRA NASCIMENTO         GLAUBER LARANJEIRA DO NASCIMENTO   200038501425000008006200715000000000266401600000741580000000000000000000000000000000000000000000000000000000000000000000000000000000000000000000000000000000000000000000000000000170819129900000000078000507         030000000000000000 0000000000000000000000000000SUPERVISOR DE VENDAS20111002TNE100000000202007152020060220170819N0000078000
M001SOLDI PROMOTORA DE VENDAS LTDA     0100005070008800211GLAUBER LARANJEIRA DO NASCIMENTO   01AMELIA FATIMA FERREIRA NASCIMENTO  COOPECIR                           100180833741010101200200721000000000036541600000741580000215198000000000000000000000000000000000000000000000000000000000000000000000000000000000000000000000000000000000000000000881003210000000000010700507         010001236433000103J0000000000000000000000000000SUPERVISOR DE VENDAS20111002TNE100000000202007212020060419881003N0000000000
M001SOLDI PROMOTORA DE VENDAS LTDA     0100005070008800211GLAUBER LARANJEIRA DO NASCIMENTO   00GLAUBER LARANJEIRA DO NASCIMENTO   HOSPITAL DAS NEVES                 206854713658400040601200728000000000112700000000741580000432911000000000000000000000000000000000000000000000000000000000000000000000000000000000000000000000000000000000000000000840313200000000000033000507         000001817749000199J0000000000000000000000000000SUPERVISOR DE VENDAS20111002TNE100000000202007282020061419840313N0000000000
M001SOLDI PROMOTORA DE VENDAS LTDA     0100005740008800592ALINIR PEREIRA DE ALMEIDA          01MAGNO ALEXANDRE SANTOS PAVAO       HOSPITAL DAS CLINICAS              206844452918400042201200707000000000061470000000741580000257311000000000000000000000000000000000000000000000000000000000000000000000000000000000000000000000000000000000000000000730826110000000000018000574         010084715051000190J0000000000000000000000000000CONSULTOR DE VENDAS 20120206TNE100000000202007072020022119730826N0000000000
M001SOLDI PROMOTORA DE VENDAS LTDA     0100005740008800592ALINIR PEREIRA DE ALMEIDA          00ALINIR PEREIRA DE ALMEIDA          HOSPITAL DAS CLINICAS              206849010838400040601200714000000000076840000000741580000257311000000000000000000000000000000000000000000000000000000000000000000000000000000000000000000000000000000000000000000910117200000000000022500574         000084715051000190J0000000000000000000000000000CONSULTOR DE VENDAS 20120206TNE100000000202007142020011419910117N0000000000
M001SOLDI PROMOTORA DE VENDAS LTDA     0100007100008800614SOLIMAR EULALIO DA SILVA LOPES     00SOLIMAR EULALIO DA SILVA LOPES     COOPEND                            191106138640001001400200715000000000034150000000741580000478997000000000000000000000000000000000000000000000000000000000000000000000000000000000000000000000000000000000000000000720917200000000000010000710         000001540765000187J0000000000000000000000000000CONSULTOR DE VENDAS 20121217TNE100000000202007152020061319720917N0000000000
M001SOLDI PROMOTORA DE VENDAS LTDA     0100007280008800615ADEMAR LEANDRO RIBEIRO SANTOS      00ADEMAR LEANDRO RIBEIRO SANTOS      INSTITUTO CRISTAO DE CARDIOLOGIA   606844175534100107901200703000000000105621600000741580000769070000000000000000000000000000000000000000000000000000000000000000000000000000000000000000000000000000000000000000000771018200000000000030926728         000006341180000151J0000000000000000000000000000CONSULTOR DE VENDAS 20121217TNE100000000202007032020051819771018N0000000000
M001SOLDI PROMOTORA DE VENDAS LTDA     0100007280008800615ADEMAR LEANDRO RIBEIRO SANTOS      00ADEMAR LEANDRO RIBEIRO SANTOS      HOSP ESCOLA S CAMILO S LUIS        206844326673401999201200707000000000008040000000741580000072010000000000000000000000000000000000000000000000000000000000000000000000000000000000000000000000000000000000000000000771018200000000000002356728         000060975737000909J0000000000000000000000000000CONSULTOR DE VENDAS 20121217TNE100000000202007072020051019771018N0000000000
M001SOLDI PROMOTORA DE VENDAS LTDA     0100007280008800615ADEMAR LEANDRO RIBEIRO SANTOS      00ADEMAR LEANDRO RIBEIRO SANTOS      HOSP ESCOLA S CAMILO S LUIS        106844326671010103901200707000000000055501600000741580000072010000000000000000000000000000000000000000000000000000000000000000000000000000000000000000000000000000000000000000000771018200000000000016250728         000060975737000909J0000000000000000000000000000CONSULTOR DE VENDAS 20121217TNE100000000202007072020051019771018N0000000000
M001SOLDI PROMOTORA DE VENDAS LTDA     0100007280008800615ADEMAR LEANDRO RIBEIRO SANTOS      00ADEMAR LEANDRO RIBEIRO SANTOS      HOSP ESCOLA S CAMILO S LUIS        206844326673401999501200707000000000008280000000741580000072010000000000000000000000000000000000000000000000000000000000000000000000000000000000000000000000000000000000000000000771018200000000000002427728         000060975737000909J0000000000000000000000000000CONSULTOR DE VENDAS 20121217TNE100000000202007072020051019771018N0000000000
M001SOLDI PROMOTORA DE VENDAS LTDA     0100007280008800615ADEMAR LEANDRO RIBEIRO SANTOS      00ADEMAR LEANDRO RIBEIRO SANTOS      HOSP ESCOLA S CAMILO S LUIS        206844326673401999101200707000000000001950000000741580000072010000000000000000000000000000000000000000000000000000000000000000000000000000000000000000000000000000000000000000000771018200000000000000573728         000060975737000909J0000000000000000000000000000CONSULTOR DE VENDAS 20121217TNE100000000202007072020051019771018N0000000000
M001SOLDI PROMOTORA DE VENDAS LTDA     0100007520008800623CREUZA GONCALVES DOS SANTOS        00CREUZA GONCALVES DOS SANTOS        HOSPITAL MATER DEI                 606843364374090110601200703000000000106561600000741580000106038000000000000000000000000000000000000000000000000000000000000000000000000000000000000000000000000000000000000000000620406200000000000031201752         000016676520000159J0000000000000000000000000000CONSULTOR DE VENDAS 20130304TNE100000000202007032020051919620406N0000000000
M001SOLDI PROMOTORA DE VENDAS LTDA     0100007520008800623CREUZA GONCALVES DOS SANTOS        00CREUZA GONCALVES DOS SANTOS        HOSPITAL MATER DEI                 506669787474031021301200709000000000003511600000741580000030910000000000000000000000000000000000000000000000000000000000000000000000000000000000000000000000000000000000000000000620406200000000000001028752         000016676520000159J0000000000000000000000000000CONSULTOR DE VENDAS 20130304TNE100000000202007092019090719620406N0000000000
M001SOLDI PROMOTORA DE VENDAS LTDA     0100007520008800623CREUZA GONCALVES DOS SANTOS        00CREUZA GONCALVES DOS SANTOS        HOSPITAL MATER DEI                 506669787474010101001200709000000000007091600000741580000030910000000000000000000000000000000000000000000000000000000000000000000000000000000000000000000000000000000000000000000620406200000000000002076752         000016676520000159J0000000000000000000000000000CONSULTOR DE VENDAS 20130304TNE100000000202007092019090719620406N0000000000
M001SOLDI PROMOTORA DE VENDAS LTDA     0100007520008800623CREUZA GONCALVES DOS SANTOS        00CREUZA GONCALVES DOS SANTOS        HOSPITAL MATER DEI                 506669787474031006001200709000000000001751600000741580000030910000000000000000000000000000000000000000000000000000000000000000000000000000000000000000000000000000000000000000000620406200000000000000513752         000016676520000159J0000000000000000000000000000CONSULTOR DE VENDAS 20130304TNE100000000202007092019090719620406N0000000000
M001SOLDI PROMOTORA DE VENDAS LTDA     0100007520008800623CREUZA GONCALVES DOS SANTOS        00CREUZA GONCALVES DOS SANTOS        HOSPITAL MATER DEI                 506669787474031121001200709000000000001641600000741580000030910000000000000000000000000000000000000000000000000000000000000000000000000000000000000000000000000000000000000000000620406200000000000000481752         000016676520000159J0000000000000000000000000000CONSULTOR DE VENDAS 20130304TNE100000000202007092019090719620406N0000000000
M001SOLDI PROMOTORA DE VENDAS LTDA     0100007520008800623CREUZA GONCALVES DOS SANTOS        00CREUZA GONCALVES DOS SANTOS        HOSPITAL MATER DEI                 206669787473401999501200709000000000000260000000741580000030910000000000000000000000000000000000000000000000000000000000000000000000000000000000000000000000000000000000000000000620406200000000000000078752         000016676520000159J0000000000000000000000000000CONSULTOR DE VENDAS 20130304TNE100000000202007092019090719620406N0000000000
M001SOLDI PROMOTORA DE VENDAS LTDA     0100007520008800623CREUZA GONCALVES DOS SANTOS        00CREUZA GONCALVES DOS SANTOS        HOSPITAL MATER DEI                 206669787473401999101200709000000000034780000000741580000030910000000000000000000000000000000000000000000000000000000000000000000000000000000000000000000000000000000000000000000620406200000000000010184752         000016676520000159J0000000000000000000000000000CONSULTOR DE VENDAS 20130304TNE100000000202007092019090719620406N0000000000
M001SOLDI PROMOTORA DE VENDAS LTDA     0100007520008800623CREUZA GONCALVES DOS SANTOS        00CREUZA GONCALVES DOS SANTOS        HOSPITAL MATER DEI                 206669787473401999201200709000000000001610000000741580000030910000000000000000000000000000000000000000000000000000000000000000000000000000000000000000000000000000000000000000000620406200000000000000474752         000016676520000159J0000000000000000000000000000CONSULTOR DE VENDAS 20130304TNE100000000202007092019090719620406N0000000000
M001SOLDI PROMOTORA DE VENDAS LTDA     0100007520008800623CREUZA GONCALVES DOS SANTOS        00CREUZA GONCALVES DOS SANTOS        HOSPITAL MATER DEI                 506847236834030257101200710000000000007851600000741580000030910000000000000000000000000000000000000000000000000000000000000000000000000000000000000000000000000000000000000000000620406200000000000002300752         000016676520000159J0000000000000000000000000000CONSULTOR DE VENDAS 20130304TNE100000000202007102020051819620406N0000000000
M001SOLDI PROMOTORA DE VENDAS LTDA     0100007520008800623CREUZA GONCALVES DOS SANTOS        00CREUZA GONCALVES DOS SANTOS        HOSPITAL MATER DEI                 206847236833401999101200710000000000034780000000741580000030910000000000000000000000000000000000000000000000000000000000000000000000000000000000000000000000000000000000000000000620406200000000000010184752         000016676520000159J0000000000000000000000000000CONSULTOR DE VENDAS 20130304TNE100000000202007102020051819620406N0000000000
M001SOLDI PROMOTORA DE VENDAS LTDA     0100007520008800623CREUZA GONCALVES DOS SANTOS        00CREUZA GONCALVES DOS SANTOS        HOSPITAL MATER DEI                 506847236834030277601200710000000000024161600000741580000030910000000000000000000000000000000000000000000000000000000000000000000000000000000000000000000000000000000000000000000620406200000000000007076752         000016676520000159J0000000000000000000000000000CONSULTOR DE VENDAS 20130304TNE100000000202007102020051819620406N0000000000
M001SOLDI PROMOTORA DE VENDAS LTDA     0100007520008800623CREUZA GONCALVES DOS SANTOS        00CREUZA GONCALVES DOS SANTOS        HOSPITAL MATER DEI                 206847236833401999201200710000000000000580000000741580000030910000000000000000000000000000000000000000000000000000000000000000000000000000000000000000000000000000000000000000000620406200000000000000170752         000016676520000159J0000000000000000000000000000CONSULTOR DE VENDAS 20130304TNE100000000202007102020051819620406N0000000000
M001SOLDI PROMOTORA DE VENDAS LTDA     0100007520008800623CREUZA GONCALVES DOS SANTOS        00CREUZA GONCALVES DOS SANTOS        HOSPITAL MATER DEI                 506847236834010101001200710000000000007301600000741580000030910000000000000000000000000000000000000000000000000000000000000000000000000000000000000000000000000000000000000000000620406200000000000002138752         000016676520000159J0000000000000000000000000000CONSULTOR DE VENDAS 20130304TNE100000000202007102020051819620406N0000000000
M001SOLDI PROMOTORA DE VENDAS LTDA     0100007520008800623CREUZA GONCALVES DOS SANTOS        00CREUZA GONCALVES DOS SANTOS        HOSPITAL MATER DEI                 506847236834030163001200710000000000001691600000741580000030910000000000000000000000000000000000000000000000000000000000000000000000000000000000000000000000000000000000000000000620406200000000000000496752         000016676520000159J0000000000000000000000000000CONSULTOR DE VENDAS 20130304TNE100000000202007102020051819620406N0000000000
M001SOLDI PROMOTORA DE VENDAS LTDA     0100007520008800623CREUZA GONCALVES DOS SANTOS        00CREUZA GONCALVES DOS SANTOS        HOSPITAL MATER DEI                 506847236834080502601200710000000000013811600000741580000030910000000000000000000000000000000000000000000000000000000000000000000000000000000000000000000000000000000000000000000620406200000000000004045752         000016676520000159J0000000000000000000000000000CONSULTOR DE VENDAS 20130304TNE100000000202007102020051819620406N0000000000
M001SOLDI PROMOTORA DE VENDAS LTDA     0100007520008800623CREUZA GONCALVES DOS SANTOS        00CREUZA GONCALVES DOS SANTOS        HOSPITAL MATER DEI                 506847236834030436101200710000000000003621600000741580000030910000000000000000000000000000000000000000000000000000000000000000000000000000000000000000000000000000000000000000000620406200000000000001062752         000016676520000159J0000000000000000000000000000CONSULTOR DE VENDAS 20130304TNE100000000202007102020051819620406N0000000000
M001SOLDI PROMOTORA DE VENDAS LTDA     0100007520008800623CREUZA GONCALVES DOS SANTOS        00CREUZA GONCALVES DOS SANTOS        HOSPITAL MATER DEI                 506847236834030258001200710000000000001691600000741580000030910000000000000000000000000000000000000000000000000000000000000000000000000000000000000000000000000000000000000000000620406200000000000000496752         000016676520000159J0000000000000000000000000000CONSULTOR DE VENDAS 20130304TNE100000000202007102020051819620406N0000000000
M001SOLDI PROMOTORA DE VENDAS LTDA     0100007520008800623CREUZA GONCALVES DOS SANTOS        00CREUZA GONCALVES DOS SANTOS        HOSPITAL MATER DEI                 506847236834030490601200710000000000018121600000741580000030910000000000000000000000000000000000000000000000000000000000000000000000000000000000000000000000000000000000000000000620406200000000000005308752         000016676520000159J0000000000000000000000000000CONSULTOR DE VENDAS 20130304TNE100000000202007102020051819620406N0000000000
M001SOLDI PROMOTORA DE VENDAS LTDA     0100007520008800623CREUZA GONCALVES DOS SANTOS        00CREUZA GONCALVES DOS SANTOS        HOSPITAL MATER DEI                 506847236834030839101200710000000000008091600000741580000030910000000000000000000000000000000000000000000000000000000000000000000000000000000000000000000000000000000000000000000620406200000000000002371752         000016676520000159J0000000000000000000000000000CONSULTOR DE VENDAS 20130304TNE100000000202007102020051819620406N0000000000
M001SOLDI PROMOTORA DE VENDAS LTDA     0100007520008800623CREUZA GONCALVES DOS SANTOS        00CREUZA GONCALVES DOS SANTOS        UNICOOPER                          106851852801010103901200721000000000037221600000741580000594725000000000000000000000000000000000000000000000000000000000000000000000000000000000000000000000000000000000000000000620406200000000000010900752         000003288517000116J0000000000000000000000000000CONSULTOR DE VENDAS 20130304TNE100000000202007212020051819620406N0000000000
M001SOLDI PROMOTORA DE VENDAS LTDA     0100007600008800624OZEAS BEZERRA BARROSO              00OZEAS BEZERRA BARROSO              NUPE                               191188834521010101200200716000000000034151600000741580000958190000000000000000000000000000000000000000000000000000000000000000000000000000000000000000000000000000000000000000000831228100000000000010000760         000010524168000150J0000000000000000000000000000GERENTE REGIONAL DE 20130304TNQ200000000202007162020070119831228N0000000000
M001SOLDI PROMOTORA DE VENDAS LTDA     0100007950008800629CINTIA ARAUJO SANTANA              02BENJAMIM ARAUJO OLIVEIRA           HOSPITAL SAO LUCAS                 206849379828400335901200713000000000147030000000741580000039616000000000000000000000000000000000000000000000000000000000000000000000000000000000000000000000000000000000000000000181018120000000000043050795         020013131370000100J0000000000000000000000000000CONSULTOR DE VENDAS 20130506TNE100000000202007132020060320181018N0000000000
M001SOLDI PROMOTORA DE VENDAS LTDA     0100008170008800630NARCIZO MARQUES PINTO JUNIOR       00NARCIZO MARQUES PINTO JUNIOR       CLINICA LIBERMAN                   100178843011010101200200702000000000034151600000741580000984698000000000000000000000000000000000000000000000000000000000000000000000000000000000000000000000000000000000000000000821120100000000000010000817         000054677992000115J0000000000000000000000000000GERENTE REGIONAL DE 20130506TNQ200000000202007022020061019821120N0000000000
M001SOLDI PROMOTORA DE VENDAS LTDA     0100008170008800630NARCIZO MARQUES PINTO JUNIOR       00NARCIZO MARQUES PINTO JUNIOR       CONFIANCE MEDICINA DIAGNOSTICA     506854911784030160501200728000000000001691600000741580000804576000000000000000000000000000000000000000000000000000000000000000000000000000000000000000000000000000000000000000000821120100000000000000496817         000002278625000145J0000000000000000000000000000GERENTE REGIONAL DE 20130506TNQ200000000202007282020052819821120N0000000000
M001SOLDI PROMOTORA DE VENDAS LTDA     0100008170008800630NARCIZO MARQUES PINTO JUNIOR       00NARCIZO MARQUES PINTO JUNIOR       CONFIANCE MEDICINA DIAGNOSTICA     506854911784030158301200728000000000003021600000741580000804576000000000000000000000000000000000000000000000000000000000000000000000000000000000000000000000000000000000000000000821120100000000000000886817         000002278625000145J0000000000000000000000000000GERENTE REGIONAL DE 20130506TNQ200000000202007282020052819821120N0000000000
M001SOLDI PROMOTORA DE VENDAS LTDA     0100008170008800630NARCIZO MARQUES PINTO JUNIOR       00NARCIZO MARQUES PINTO JUNIOR       CONFIANCE MEDICINA DIAGNOSTICA     506854911784030159101200728000000000003621600000741580000804576000000000000000000000000000000000000000000000000000000000000000000000000000000000000000000000000000000000000000000821120100000000000001062817         000002278625000145J0000000000000000000000000000GERENTE REGIONAL DE 20130506TNQ200000000202007282020052819821120N0000000000
M001SOLDI PROMOTORA DE VENDAS LTDA     0100008170008800630NARCIZO MARQUES PINTO JUNIOR       00NARCIZO MARQUES PINTO JUNIOR       CONFIANCE MEDICINA DIAGNOSTICA     506854911784030269501200728000000000004831600000741580000804576000000000000000000000000000000000000000000000000000000000000000000000000000000000000000000000000000000000000000000821120100000000000001415817         000002278625000145J0000000000000000000000000000GERENTE REGIONAL DE 20130506TNQ200000000202007282020052819821120N0000000000
M001SOLDI PROMOTORA DE VENDAS LTDA     0100008170008800630NARCIZO MARQUES PINTO JUNIOR       00NARCIZO MARQUES PINTO JUNIOR       CONFIANCE MEDICINA DIAGNOSTICA     506854911784030254701200728000000000002411600000741580000804576000000000000000000000000000000000000000000000000000000000000000000000000000000000000000000000000000000000000000000821120100000000000000707817         000002278625000145J0000000000000000000000000000GERENTE REGIONAL DE 20130506TNQ200000000202007282020052819821120N0000000000
M001SOLDI PROMOTORA DE VENDAS LTDA     0100008170008800630NARCIZO MARQUES PINTO JUNIOR       00NARCIZO MARQUES PINTO JUNIOR       CONFIANCE MEDICINA DIAGNOSTICA     506854911784030204001200728000000000001691600000741580000804576000000000000000000000000000000000000000000000000000000000000000000000000000000000000000000000000000000000000000000821120100000000000000496817         000002278625000145J0000000000000000000000000000GERENTE REGIONAL DE 20130506TNQ200000000202007282020052819821120N0000000000
M001SOLDI PROMOTORA DE VENDAS LTDA     0100008170008800630NARCIZO MARQUES PINTO JUNIOR       00NARCIZO MARQUES PINTO JUNIOR       CLINICA LIBERMAN                   506856121704010101001200730000000000007301600000741580000748579000000000000000000000000000000000000000000000000000000000000000000000000000000000000000000000000000000000000000000821120100000000000002138817         000054677992000115J0000000000000000000000000000GERENTE REGIONAL DE 20130506TNQ200000000202007302020061019821120N0000000000
M001SOLDI PROMOTORA DE VENDAS LTDA     0100008250008800630JANAINA SILVA LEITE                00JANAINA SILVA LEITE                DELBONI AURIEMO                    506844261078433016302200706000000000073470000000741580000766135000000000000000000000000000000000000000000000000000000000000000000000000000000000000000000000000000000000000000000800425200000000000021514825         000061486650000183J0000000000000000000000000000CONSULTOR DE VENDAS 20130506TNE100000000202007062020051819800425N0000000000
M001SOLDI PROMOTORA DE VENDAS LTDA     0100008500008800644VERONICA DE SOUZA BARROS SILVA     01MANUEL FRANCISCO BARROS SILVA      A+ MEDICINA DIAGNOSTICA            506847693824030163001200710000000000001581600000741580000575674000000000000000000000000000000000000000000000000000000000000000000000000000000000000000000000000000000000000000000661225110000000000000463850         010060840055010447J0000000000000000000000000000AUXILIAR DE SERVICOS20130701TNE100000000202007102020053019661225N0000000000
M001SOLDI PROMOTORA DE VENDAS LTDA     0100008500008800644VERONICA DE SOUZA BARROS SILVA     01MANUEL FRANCISCO BARROS SILVA      A+ MEDICINA DIAGNOSTICA            506847693824031652101200710000000000009581600000741580000575674000000000000000000000000000000000000000000000000000000000000000000000000000000000000000000000000000000000000000000661225110000000000002806850         010060840055010447J0000000000000000000000000000AUXILIAR DE SERVICOS20130701TNE100000000202007102020053019661225N0000000000
M001SOLDI PROMOTORA DE VENDAS LTDA     0100008500008800644VERONICA DE SOUZA BARROS SILVA     01MANUEL FRANCISCO BARROS SILVA      A+ MEDICINA DIAGNOSTICA            506847693824031657201200710000000000009581600000741580000575674000000000000000000000000000000000000000000000000000000000000000000000000000000000000000000000000000000000000000000661225110000000000002806850         010060840055010447J0000000000000000000000000000AUXILIAR DE SERVICOS20130701TNE100000000202007102020053019661225N0000000000
M001SOLDI PROMOTORA DE VENDAS LTDA     0100008500008800644VERONICA DE SOUZA BARROS SILVA     01MANUEL FRANCISCO BARROS SILVA      A+ MEDICINA DIAGNOSTICA            506847693824030251201200710000000000001581600000741580000575674000000000000000000000000000000000000000000000000000000000000000000000000000000000000000000000000000000000000000000661225110000000000000463850         010060840055010447J0000000000000000000000000000AUXILIAR DE SERVICOS20130701TNE100000000202007102020053019661225N0000000000
M001SOLDI PROMOTORA DE VENDAS LTDA     0100008500008800644VERONICA DE SOUZA BARROS SILVA     01MANUEL FRANCISCO BARROS SILVA      A+ MEDICINA DIAGNOSTICA            506847693824030258001200710000000000001581600000741580000575674000000000000000000000000000000000000000000000000000000000000000000000000000000000000000000000000000000000000000000661225110000000000000463850         010060840055010447J0000000000000000000000000000AUXILIAR DE SERVICOS20130701TNE100000000202007102020053019661225N0000000000
M001SOLDI PROMOTORA DE VENDAS LTDA     0100008500008800644VERONICA DE SOUZA BARROS SILVA     01MANUEL FRANCISCO BARROS SILVA      A+ MEDICINA DIAGNOSTICA            506847693804031121001200710000000000001581600000741580000575674000000000000000000000000000000000000000000000000000000000000000000000000000000000000000000000000000000000000000000661225110000000000000463850         010060840055010447J0000000000000000000000000000AUXILIAR DE SERVICOS20130701TNE100000000202007102020053019661225N0000000000
M001SOLDI PROMOTORA DE VENDAS LTDA     0100008500008800644VERONICA DE SOUZA BARROS SILVA     01MANUEL FRANCISCO BARROS SILVA      A+ MEDICINA DIAGNOSTICA            506847693814030158301200710000000000002821600000741580000575674000000000000000000000000000000000000000000000000000000000000000000000000000000000000000000000000000000000000000000661225110000000000000826850         010060840055010447J0000000000000000000000000000AUXILIAR DE SERVICOS20130701TNE100000000202007102020053019661225N0000000000
M001SOLDI PROMOTORA DE VENDAS LTDA     0100008500008800644VERONICA DE SOUZA BARROS SILVA     01MANUEL FRANCISCO BARROS SILVA      A+ MEDICINA DIAGNOSTICA            506847693824030283001200710000000000015751600000741580000575674000000000000000000000000000000000000000000000000000000000000000000000000000000000000000000000000000000000000000000661225110000000000004612850         010060840055010447J0000000000000000000000000000AUXILIAR DE SERVICOS20130701TNE100000000202007102020053019661225N0000000000
M001SOLDI PROMOTORA DE VENDAS LTDA     0100008500008800644VERONICA DE SOUZA BARROS SILVA     01MANUEL FRANCISCO BARROS SILVA      A+ MEDICINA DIAGNOSTICA            506847693824031614901200710000000000016911600000741580000575674000000000000000000000000000000000000000000000000000000000000000000000000000000000000000000000000000000000000000000661225110000000000004953850         010060840055010447J0000000000000000000000000000AUXILIAR DE SERVICOS20130701TNE100000000202007102020053019661225N0000000000
M001SOLDI PROMOTORA DE VENDAS LTDA     0100008500008800644VERONICA DE SOUZA BARROS SILVA     01MANUEL FRANCISCO BARROS SILVA      A+ MEDICINA DIAGNOSTICA            506847693814030159101200710000000000003381600000741580000575674000000000000000000000000000000000000000000000000000000000000000000000000000000000000000000000000000000000000000000661225110000000000000991850         010060840055010447J0000000000000000000000000000AUXILIAR DE SERVICOS20130701TNE100000000202007102020053019661225N0000000000
M001SOLDI PROMOTORA DE VENDAS LTDA     0100008500008800644VERONICA DE SOUZA BARROS SILVA     01MANUEL FRANCISCO BARROS SILVA      A+ MEDICINA DIAGNOSTICA            506847693814030160501200710000000000001581600000741580000575674000000000000000000000000000000000000000000000000000000000000000000000000000000000000000000000000000000000000000000661225110000000000000463850         010060840055010447J0000000000000000000000000000AUXILIAR DE SERVICOS20130701TNE100000000202007102020053019661225N0000000000
M001SOLDI PROMOTORA DE VENDAS LTDA     0100008500008800644VERONICA DE SOUZA BARROS SILVA     01MANUEL FRANCISCO BARROS SILVA      A+ MEDICINA DIAGNOSTICA            506847693824031649101200710000000000009581600000741580000575674000000000000000000000000000000000000000000000000000000000000000000000000000000000000000000000000000000000000000000661225110000000000002806850         010060840055010447J0000000000000000000000000000AUXILIAR DE SERVICOS20130701TNE100000000202007102020053019661225N0000000000
M001SOLDI PROMOTORA DE VENDAS LTDA     0100008500008800644VERONICA DE SOUZA BARROS SILVA     01MANUEL FRANCISCO BARROS SILVA      A+ MEDICINA DIAGNOSTICA            506847693814030204001200710000000000001581600000741580000575674000000000000000000000000000000000000000000000000000000000000000000000000000000000000000000000000000000000000000000661225110000000000000463850         010060840055010447J0000000000000000000000000000AUXILIAR DE SERVICOS20130701TNE100000000202007102020053019661225N0000000000
M001SOLDI PROMOTORA DE VENDAS LTDA     0100008500008800644VERONICA DE SOUZA BARROS SILVA     01MANUEL FRANCISCO BARROS SILVA      A+ MEDICINA DIAGNOSTICA            506847693814030273301200710000000000012981600000741580000575674000000000000000000000000000000000000000000000000000000000000000000000000000000000000000000000000000000000000000000661225110000000000003802850         010060840055010447J0000000000000000000000000000AUXILIAR DE SERVICOS20130701TNE100000000202007102020053019661225N0000000000
M001SOLDI PROMOTORA DE VENDAS LTDA     0100008500008800644VERONICA DE SOUZA BARROS SILVA     01MANUEL FRANCISCO BARROS SILVA      A+ MEDICINA DIAGNOSTICA            506847693824030115001200710000000000001581600000741580000575674000000000000000000000000000000000000000000000000000000000000000000000000000000000000000000000000000000000000000000661225110000000000000463850         010060840055010447J0000000000000000000000000000AUXILIAR DE SERVICOS20130701TNE100000000202007102020053019661225N0000000000
M001SOLDI PROMOTORA DE VENDAS LTDA     0100008500008800644VERONICA DE SOUZA BARROS SILVA     01MANUEL FRANCISCO BARROS SILVA      A+ MEDICINA DIAGNOSTICA            506847693814030250401200710000000000001581600000741580000575674000000000000000000000000000000000000000000000000000000000000000000000000000000000000000000000000000000000000000000661225110000000000000463850         010060840055010447J0000000000000000000000000000AUXILIAR DE SERVICOS20130701TNE100000000202007102020053019661225N0000000000
M001SOLDI PROMOTORA DE VENDAS LTDA     0100008500008800644VERONICA DE SOUZA BARROS SILVA     01MANUEL FRANCISCO BARROS SILVA      A+ MEDICINA DIAGNOSTICA            506847693814030254701200710000000000002251600000741580000575674000000000000000000000000000000000000000000000000000000000000000000000000000000000000000000000000000000000000000000661225110000000000000660850         010060840055010447J0000000000000000000000000000AUXILIAR DE SERVICOS20130701TNE100000000202007102020053019661225N0000000000
M001SOLDI PROMOTORA DE VENDAS LTDA     0100008500008800644VERONICA DE SOUZA BARROS SILVA     01MANUEL FRANCISCO BARROS SILVA      A+ MEDICINA DIAGNOSTICA            506847693814030269501200710000000000004511600000741580000575674000000000000000000000000000000000000000000000000000000000000000000000000000000000000000000000000000000000000000000661225110000000000001321850         010060840055010447J0000000000000000000000000000AUXILIAR DE SERVICOS20130701TNE100000000202007102020053019661225N0000000000
M001SOLDI PROMOTORA DE VENDAS LTDA     0100008500008800644VERONICA DE SOUZA BARROS SILVA     01MANUEL FRANCISCO BARROS SILVA      A+ MEDICINA DIAGNOSTICA            506847693814030436101200710000000000003381600000741580000575674000000000000000000000000000000000000000000000000000000000000000000000000000000000000000000000000000000000000000000661225110000000000000991850         010060840055010447J0000000000000000000000000000AUXILIAR DE SERVICOS20130701TNE100000000202007102020053019661225N0000000000
M001SOLDI PROMOTORA DE VENDAS LTDA     0100008500008800644VERONICA DE SOUZA BARROS SILVA     01MANUEL FRANCISCO BARROS SILVA      A+ MEDICINA DIAGNOSTICA            606490264444100109501200715000000000102961600000741580000575674000000000000000000000000000000000000000000000000000000000000000000000000000000000000000000000000000000000000000000661225110000000000030148850         010060840055010447J0000000000000000000000000000AUXILIAR DE SERVICOS20130701TNE100000000202007152018122119661225N0000000000
M001SOLDI PROMOTORA DE VENDAS LTDA     0100008500008800644VERONICA DE SOUZA BARROS SILVA     01MANUEL FRANCISCO BARROS SILVA      A+ MEDICINA DIAGNOSTICA            206490264443401999201200715000000000066220000000741580000575674000000000000000000000000000000000000000000000000000000000000000000000000000000000000000000000000000000000000000000661225110000000000019390850         010060840055010447J0000000000000000000000000000AUXILIAR DE SERVICOS20130701TNE100000000202007152018122119661225N0000000000
M001SOLDI PROMOTORA DE VENDAS LTDA     0100008500008800644VERONICA DE SOUZA BARROS SILVA     01MANUEL FRANCISCO BARROS SILVA      A+ MEDICINA DIAGNOSTICA            206490264443401999501200715000000000159830000000741580000575674000000000000000000000000000000000000000000000000000000000000000000000000000000000000000000000000000000000000000000661225110000000000046799850         010060840055010447J0000000000000000000000000000AUXILIAR DE SERVICOS20130701TNE100000000202007152018122119661225N0000000000
M001SOLDI PROMOTORA DE VENDAS LTDA     0100008500008800644VERONICA DE SOUZA BARROS SILVA     01MANUEL FRANCISCO BARROS SILVA      HOSPITAL ALBERT SABIN              606849582664090110601200716000000000089251600000741580000416134000000000000000000000000000000000000000000000000000000000000000000000000000000000000000000000000000000000000000000661225110000000000026134850         010062996640000150J0000000000000000000000000000AUXILIAR DE SERVICOS20130701TNE100000000202007162020060219661225N0000000000
M001SOLDI PROMOTORA DE VENDAS LTDA     0100008500008800644VERONICA DE SOUZA BARROS SILVA     01MANUEL FRANCISCO BARROS SILVA      HOSPITAL ALBERT SABIN              506849582684090112201200728000000000051541600000741580000416134000000000000000000000000000000000000000000000000000000000000000000000000000000000000000000000000000000000000000000661225110000000000015093850         010062996640000150J0000000000000000000000000000AUXILIAR DE SERVICOS20130701TNE100000000202007282020060319661225N0000000000
M001SOLDI PROMOTORA DE VENDAS LTDA     0100008500008800644VERONICA DE SOUZA BARROS SILVA     01MANUEL FRANCISCO BARROS SILVA      HOSPITAL ALBERT SABIN              506849582684090120301200728000000000017761600000741580000416134000000000000000000000000000000000000000000000000000000000000000000000000000000000000000000000000000000000000000000661225110000000000005200850         010062996640000150J0000000000000000000000000000AUXILIAR DE SERVICOS20130701TNE100000000202007282020060319661225N0000000000
M001SOLDI PROMOTORA DE VENDAS LTDA     0100008500008800644VERONICA DE SOUZA BARROS SILVA     01MANUEL FRANCISCO BARROS SILVA      HOSPITAL ALBERT SABIN              506849582684090138601200728000000000015491600000741580000416134000000000000000000000000000000000000000000000000000000000000000000000000000000000000000000000000000000000000000000661225110000000000004537850         010062996640000150J0000000000000000000000000000AUXILIAR DE SERVICOS20130701TNE100000000202007282020060319661225N0000000000
M001SOLDI PROMOTORA DE VENDAS LTDA     0100008500008800644VERONICA DE SOUZA BARROS SILVA     01MANUEL FRANCISCO BARROS SILVA      HOSPITAL ALBERT SABIN              206855338688423019301200730000000000150740000000741580000416134000000000000000000000000000000000000000000000000000000000000000000000000000000000000000000000000000000000000000000661225110000000000044136850         010062996640000150J0000000000000000000000000000AUXILIAR DE SERVICOS20130701TNE100000000202007302020060919661225N0000000000
M001SOLDI PROMOTORA DE VENDAS LTDA     0100008500008800644VERONICA DE SOUZA BARROS SILVA     02GABRIELLA SOUZA SILVA              ORTOCITY SERVICOS MEDICOS          206745782785000044601200731000000000021871600000741580000040240000000000000000000000000000000000000000000000000000000000000000000000000000000000000000000000000000000000000000000990226220000000000006406850         020055577977000168J0000000000000000000000000000AUXILIAR DE SERVICOS20130701TNE100000000202007312019100119990226N0000000000
M001SOLDI PROMOTORA DE VENDAS LTDA     0100008500008800644VERONICA DE SOUZA BARROS SILVA     02GABRIELLA SOUZA SILVA              ORTOCITY SERVICOS MEDICOS          206745782785000044601200731000000000022751600000741580000040240000000000000000000000000000000000000000000000000000000000000000000000000000000000000000000000000000000000000000000990226220000000000006662850         020055577977000168J0000000000000000000000000000AUXILIAR DE SERVICOS20130701TNE100000000202007312019100119990226N0000000000
M001SOLDI PROMOTORA DE VENDAS LTDA     0100008500008800644VERONICA DE SOUZA BARROS SILVA     02GABRIELLA SOUZA SILVA              ORTOCITY SERVICOS MEDICOS          206745782785000044601200731000000000022751600000741580000040240000000000000000000000000000000000000000000000000000000000000000000000000000000000000000000000000000000000000000000990226220000000000006662850         020055577977000168J0000000000000000000000000000AUXILIAR DE SERVICOS20130701TNE100000000202007312019100119990226N0000000000
M001SOLDI PROMOTORA DE VENDAS LTDA     0100008500008800644VERONICA DE SOUZA BARROS SILVA     02GABRIELLA SOUZA SILVA              ORTOCITY SERVICOS MEDICOS          206745782785000044601200731000000000021871600000741580000040240000000000000000000000000000000000000000000000000000000000000000000000000000000000000000000000000000000000000000000990226220000000000006406850         020055577977000168J0000000000000000000000000000AUXILIAR DE SERVICOS20130701TNE100000000202007312019100119990226N0000000000
M001SOLDI PROMOTORA DE VENDAS LTDA     0100008500008800644VERONICA DE SOUZA BARROS SILVA     02GABRIELLA SOUZA SILVA              ORTOCITY SERVICOS MEDICOS          206745782785000044601200731000000000022751600000741580000040240000000000000000000000000000000000000000000000000000000000000000000000000000000000000000000000000000000000000000000990226220000000000006662850         020055577977000168J0000000000000000000000000000AUXILIAR DE SERVICOS20130701TNE100000000202007312019100119990226N0000000000
M001SOLDI PROMOTORA DE VENDAS LTDA     0100008500008800644VERONICA DE SOUZA BARROS SILVA     02GABRIELLA SOUZA SILVA              ORTOCITY SERVICOS MEDICOS          206745782785000044601200731000000000022751600000741580000040240000000000000000000000000000000000000000000000000000000000000000000000000000000000000000000000000000000000000000000990226220000000000006662850         020055577977000168J0000000000000000000000000000AUXILIAR DE SERVICOS20130701TNE100000000202007312019100119990226N0000000000
M001SOLDI PROMOTORA DE VENDAS LTDA     0100008500008800644VERONICA DE SOUZA BARROS SILVA     02GABRIELLA SOUZA SILVA              ORTOCITY SERVICOS MEDICOS          206745782785000044601200731000000000022751600000741580000040240000000000000000000000000000000000000000000000000000000000000000000000000000000000000000000000000000000000000000000990226220000000000006662850         020055577977000168J0000000000000000000000000000AUXILIAR DE SERVICOS20130701TNE100000000202007312019100119990226N0000000000
M001SOLDI PROMOTORA DE VENDAS LTDA     0100008500008800644VERONICA DE SOUZA BARROS SILVA     02GABRIELLA SOUZA SILVA              ORTOCITY SERVICOS MEDICOS          206745782785000044601200731000000000022751600000741580000040240000000000000000000000000000000000000000000000000000000000000000000000000000000000000000000000000000000000000000000990226220000000000006662850         020055577977000168J0000000000000000000000000000AUXILIAR DE SERVICOS20130701TNE100000000202007312019100119990226N0000000000
M001SOLDI PROMOTORA DE VENDAS LTDA     0100008500008800644VERONICA DE SOUZA BARROS SILVA     02GABRIELLA SOUZA SILVA              ORTOCITY SERVICOS MEDICOS          206745782785000044601200731000000000021871600000741580000040240000000000000000000000000000000000000000000000000000000000000000000000000000000000000000000000000000000000000000000990226220000000000006406850         020055577977000168J0000000000000000000000000000AUXILIAR DE SERVICOS20130701TNE100000000202007312019100119990226N0000000000
M001SOLDI PROMOTORA DE VENDAS LTDA     0100009060008800647MARY ANNE CAVALCANTE SOARES        00MARY ANNE CAVALCANTE SOARES        LABORATORIO SABIN                  506838721164031461801200713000000000068301600000741580000710377000000000000000000000000000000000000000000000000000000000000000000000000000000000000000000000000000000000000000000790925200000000000020000906         000000718528006565J0000000000000000000000000000CONSULTOR DE VENDAS 20130805TNE100000000202007132020050219790925N0000000000
M001SOLDI PROMOTORA DE VENDAS LTDA     0100009060008800647MARY ANNE CAVALCANTE SOARES        00MARY ANNE CAVALCANTE SOARES        CHECK UP HOSPITAL                  101751748891010101200200716000000000034151600000741580000352497000000000000000000000000000000000000000000000000000000000000000000000000000000000000000000000000000000000000000000790925200000000000010000906         000005460308000133J0000000000000000000000000000CONSULTOR DE VENDAS 20130805TNE100000000202007162020061019790925N0000000000
M001SOLDI PROMOTORA DE VENDAS LTDA     0100009900008800660CAMILLA ARAUJO                     00CAMILLA ARAUJO                     REABILITY CENTER                   100181535821010101200200729000000000034151600000741580000950890000000000000000000000000000000000000000000000000000000000000000000000000000000000000000000000000000000000000000000890831200000000000010000990         000005244214000127J0000000000000000000000000000CONSULTOR DE VENDAS 20131104TNE100000000202007292020071019890831N0000000000
M001SOLDI PROMOTORA DE VENDAS LTDA     0100010230008800664ADRIANA CERQUEIRA DE ARAUJO        01FRANCISCO PEREIRA DE ANDRADE JUNIORHOSPITAL OTOCLINICA                2068430659184000414012007020000000000803900000007415800001822140000000000000000000000000000000000000000000000000000000000000000000000000000000000000000000000000000000000000000008005081100000000000235401023        010023443518000103J0000000000000000000000000000COORDENADOR DE AREA 20131211TNE100000000202007022020052119800508N0000000000
M001SOLDI PROMOTORA DE VENDAS LTDA     0100010230008800664ADRIANA CERQUEIRA DE ARAUJO        03ANA BEATRIZ CERQUEIRA DE ANDRADE   HOSPITAL CURA DAR S                2062806541984000147012007090000000000303600000007415800000403120000000000000000000000000000000000000000000000000000000000000000000000000000000000000000000000000000000000000000001201132200000000000088921023        030060975737003509J0000000000000000000000000000COORDENADOR DE AREA 20131211TNE100000000202007092018041120120113N0000000000
M001SOLDI PROMOTORA DE VENDAS LTDA     0100010230008800664ADRIANA CERQUEIRA DE ARAUJO        03ANA BEATRIZ CERQUEIRA DE ANDRADE   TEREZINHA DE JESUS LIMA            1012318392810101012002007100000000000341516000007415800310759000000000000000000000000000000000000000000000000000000000000000000000000000000000000000000000000000000000000000000001201132231000000000100001023        030000014107678334F0000000000000000000000000000COORDENADOR DE AREA 20131211TNE100000000202007102020061120120113N0000000000
M001SOLDI PROMOTORA DE VENDAS LTDA     0100010230008800664ADRIANA CERQUEIRA DE ARAUJO        01FRANCISCO PEREIRA DE ANDRADE JUNIORCLINICA OTOIMAGEM                  6068505500484340088012007160000000001058700000007415800009398700000000000000000000000000000000000000000000000000000000000000000000000000000000000000000000000000000000000000000008005081100000000000310001023        010007824131000132J0000000000000000000000000000COORDENADOR DE AREA 20131211TNE100000000202007162020052119800508N0000000000
M001SOLDI PROMOTORA DE VENDAS LTDA     0100010310008800665FABIOLA ELCKY DE SA FIUZA          03SARAH DE SA FIUZA                  HOSPITAL CURA DAR S                2063223818184000147012007090000000000303600000007415800000403120000000000000000000000000000000000000000000000000000000000000000000000000000000000000000000000000000000000000000001705062200000000000088921031        030060975737003509J0000000000000000000000000000CONSULTOR DE VENDAS 20131218TNE100000000202007092018060920170506N0000000000
M001SOLDI PROMOTORA DE VENDAS LTDA     0100010310008800665FABIOLA ELCKY DE SA FIUZA          00FABIOLA ELCKY DE SA FIUZA          COOPEGO                            1911715124810101012002007200000000000341516000007415800006337980000000000000000000000000000000000000000000000000000000000000000000000000000000000000000000000000000000000000000008202092000000000000100001031        000041314303000166J0000000000000000000000000000CONSULTOR DE VENDAS 20131218TNE100000000202007202020061619820209N0000000000
M001SOLDI PROMOTORA DE VENDAS LTDA     0100011040008800671JOELMIR LIMA DE LIMA               00JOELMIR LIMA DE LIMA               HOSP ADVENTISTA DE MANAUS          5068489262340314618012007160000000000768416000007415800001285110000000000000000000000000000000000000000000000000000000000000000000000000000000000000000000000000000000000000000009103012000000000000225001104        000083367342000767J0000000000000000000000000000CONSULTOR DE VENDAS 20140120TNE100000000202007162020052619910301N0000000000
M001SOLDI PROMOTORA DE VENDAS LTDA     0100011040008800671JOELMIR LIMA DE LIMA               00JOELMIR LIMA DE LIMA               HOSP ADVENTISTA DE MANAUS          2068489262384000406012007160000000001694400000007415800001285110000000000000000000000000000000000000000000000000000000000000000000000000000000000000000000000000000000000000000009103012000000000000496131104        000083367342000767J0000000000000000000000000000CONSULTOR DE VENDAS 20140120TNE100000000202007162020052619910301N0000000000
M001SOLDI PROMOTORA DE VENDAS LTDA     0100013090008800694BEATRIZ DOS SANTOS NUNES           02FLAVIO ROGERIO SILVA PENHA         CEGINE                             1001790092110101012002007030000000000341516000007415800004103900000000000000000000000000000000000000000000000000000000000000000000000000000000000000000000000000000000000000000008809151100000000000100001309        020063408348000132J0000000000000000000000000000CONSULTOR DE VENDAS 20140520TNQ200000000202007032020062419880915N0000000000
M001SOLDI PROMOTORA DE VENDAS LTDA     0100013090008800694BEATRIZ DOS SANTOS NUNES           00BEATRIZ DOS SANTOS NUNES           UDI HOSPITAL                       6068481311141001079012007130000000001056216000007415800001389030000000000000000000000000000000000000000000000000000000000000000000000000000000000000000000000000000000000000000008804042000000000000309261309        000002284062001170J0000000000000000000000000000CONSULTOR DE VENDAS 20140520TNQ200000000202007132020052919880404N0000000000
M001SOLDI PROMOTORA DE VENDAS LTDA     0100013090008800694BEATRIZ DOS SANTOS NUNES           00BEATRIZ DOS SANTOS NUNES           UDI HOSPITAL                       6068489406441101227012007140000000001901116000007415800001389030000000000000000000000000000000000000000000000000000000000000000000000000000000000000000000000000000000000000000008804042000000000000556641309        000002284062001170J0000000000000000000000000000CONSULTOR DE VENDAS 20140520TNQ200000000202007142020052919880404N0000000000
M001SOLDI PROMOTORA DE VENDAS LTDA     0100013090008800694BEATRIZ DOS SANTOS NUNES           00BEATRIZ DOS SANTOS NUNES           UDI HOSPITAL                       6068489406441101227012007140000000001520916000007415800001389030000000000000000000000000000000000000000000000000000000000000000000000000000000000000000000000000000000000000000008804042000000000000445311309        000002284062001170J0000000000000000000000000000CONSULTOR DE VENDAS 20140520TNQ200000000202007142020052919880404N0000000000
M001SOLDI PROMOTORA DE VENDAS LTDA     0100013090008800694BEATRIZ DOS SANTOS NUNES           00BEATRIZ DOS SANTOS NUNES           COTRAUMA                           5068508826340802086012007200000000000154016000007415800004358720000000000000000000000000000000000000000000000000000000000000000000000000000000000000000000000000000000000000000008804042000000000000045101309        000035124726000200J0000000000000000000000000000CONSULTOR DE VENDAS 20140520TNQ200000000202007202020051819880404N0000000000
M001SOLDI PROMOTORA DE VENDAS LTDA     0100013090008800694BEATRIZ DOS SANTOS NUNES           00BEATRIZ DOS SANTOS NUNES           COTRAUMA                           5068508826340803074022007200000000000209016000007415800004358720000000000000000000000000000000000000000000000000000000000000000000000000000000000000000000000000000000000000000008804042000000000000061201309        000035124726000200J0000000000000000000000000000CONSULTOR DE VENDAS 20140520TNQ200000000202007202020051819880404N0000000000
M001SOLDI PROMOTORA DE VENDAS LTDA     0100013090008800694BEATRIZ DOS SANTOS NUNES           00BEATRIZ DOS SANTOS NUNES           COTRAUMA                           5068508826340802019012007200000000000108216000007415800004358720000000000000000000000000000000000000000000000000000000000000000000000000000000000000000000000000000000000000000008804042000000000000031701309        000035124726000200J0000000000000000000000000000CONSULTOR DE VENDAS 20140520TNQ200000000202007202020051819880404N0000000000
M001SOLDI PROMOTORA DE VENDAS LTDA     0100013920008800700NARA NUBIA COELHO DE SOUZA         01ERBERT FRANCISCO PEREIRA           HOSPITAL PRONTONORTE               2068515337284000406012007210000000001024600000007415800000818170000000000000000000000000000000000000000000000000000000000000000000000000000000000000000000000000000000000000000008006121100000000000300001392        010000511816000180J0000000000000000000000000000SUPERVISOR DE VENDAS20140610TNE100000000202007212020060819800612N0000000000
M001SOLDI PROMOTORA DE VENDAS LTDA     0100013920008800700NARA NUBIA COELHO DE SOUZA         01ERBERT FRANCISCO PEREIRA           HOSPITAL PRONTONORTE               2068552090084000406012007300000000001024600000007415800000818170000000000000000000000000000000000000000000000000000000000000000000000000000000000000000000000000000000000000000008006121100000000000300001392        010000511816000180J0000000000000000000000000000SUPERVISOR DE VENDAS20140610TNE100000000202007302020061819800612N0000000000
M001SOLDI PROMOTORA DE VENDAS LTDA     0100014570008800705ROSANA RODRIGUES GUIMARAES         00ROSANA RODRIGUES GUIMARAES         CLINICA FISIO GAMA                 2068422032720103115012007010000000000064516000007415800006215440000000000000000000000000000000000000000000000000000000000000000000000000000000000000000000000000000000000000000006812282000000000000018891457        000005251170000162J0000000000000000000000000000SUPERVISOR DE VENDAS20140708TNE100000000202007012020050619681228N0000000000
M001SOLDI PROMOTORA DE VENDAS LTDA     0100014570008800705ROSANA RODRIGUES GUIMARAES         00ROSANA RODRIGUES GUIMARAES         CLINICA FISIO GAMA                 2068422032720103115012007010000000000064516000007415800006215440000000000000000000000000000000000000000000000000000000000000000000000000000000000000000000000000000000000000000006812282000000000000018891457        000005251170000162J0000000000000000000000000000SUPERVISOR DE VENDAS20140708TNE100000000202007012020050619681228N0000000000
M001SOLDI PROMOTORA DE VENDAS LTDA     0100014570008800705ROSANA RODRIGUES GUIMARAES         00ROSANA RODRIGUES GUIMARAES         CLINICA FISIO GAMA                 2068422032720103115012007010000000000064516000007415800006215440000000000000000000000000000000000000000000000000000000000000000000000000000000000000000000000000000000000000000006812282000000000000018891457        000005251170000162J0000000000000000000000000000SUPERVISOR DE VENDAS20140708TNE100000000202007012020050619681228N0000000000
M001SOLDI PROMOTORA DE VENDAS LTDA     0100014570008800705ROSANA RODRIGUES GUIMARAES         00ROSANA RODRIGUES GUIMARAES         CLINICA FISIO GAMA                 2068422032720103115012007010000000000064516000007415800006215440000000000000000000000000000000000000000000000000000000000000000000000000000000000000000000000000000000000000000006812282000000000000018891457        000005251170000162J0000000000000000000000000000SUPERVISOR DE VENDAS20140708TNE100000000202007012020050619681228N0000000000
M001SOLDI PROMOTORA DE VENDAS LTDA     0100014570008800705ROSANA RODRIGUES GUIMARAES         00ROSANA RODRIGUES GUIMARAES         CLINICA FISIO GAMA                 2068422032720103115012007010000000000064516000007415800006215440000000000000000000000000000000000000000000000000000000000000000000000000000000000000000000000000000000000000000006812282000000000000018891457        000005251170000162J0000000000000000000000000000SUPERVISOR DE VENDAS20140708TNE100000000202007012020050619681228N0000000000
M001SOLDI PROMOTORA DE VENDAS LTDA     0100014570008800705ROSANA RODRIGUES GUIMARAES         00ROSANA RODRIGUES GUIMARAES         CLINICA FISIO GAMA                 2068422032720103115012007010000000000064516000007415800006215440000000000000000000000000000000000000000000000000000000000000000000000000000000000000000000000000000000000000000006812282000000000000018891457        000005251170000162J0000000000000000000000000000SUPERVISOR DE VENDAS20140708TNE100000000202007012020050619681228N0000000000
M001SOLDI PROMOTORA DE VENDAS LTDA     0100014570008800705ROSANA RODRIGUES GUIMARAES         00ROSANA RODRIGUES GUIMARAES         CLINICA FISIO GAMA                 2068422032720103115012007010000000000064516000007415800006215440000000000000000000000000000000000000000000000000000000000000000000000000000000000000000000000000000000000000000006812282000000000000018891457        000005251170000162J0000000000000000000000000000SUPERVISOR DE VENDAS20140708TNE100000000202007012020050619681228N0000000000
M001SOLDI PROMOTORA DE VENDAS LTDA     0100014570008800705ROSANA RODRIGUES GUIMARAES         00ROSANA RODRIGUES GUIMARAES         CLINICA FISIO GAMA                 2068422032720103115012007010000000000064516000007415800006215440000000000000000000000000000000000000000000000000000000000000000000000000000000000000000000000000000000000000000006812282000000000000018891457        000005251170000162J0000000000000000000000000000SUPERVISOR DE VENDAS20140708TNE100000000202007012020050619681228N0000000000
M001SOLDI PROMOTORA DE VENDAS LTDA     0100014570008800705ROSANA RODRIGUES GUIMARAES         00ROSANA RODRIGUES GUIMARAES         CLINICA FISIO GAMA                 1068422032750000144012007010000000000148716000007415800006215440000000000000000000000000000000000000000000000000000000000000000000000000000000000000000000000000000000000000000006812282000000000000043551457        000005251170000162J0000000000000000000000000000SUPERVISOR DE VENDAS20140708TNE100000000202007012020050619681228N0000000000
M001SOLDI PROMOTORA DE VENDAS LTDA     0100014570008800705ROSANA RODRIGUES GUIMARAES         00ROSANA RODRIGUES GUIMARAES         CLINICA FISIO GAMA                 2068422032720103115012007010000000000064516000007415800006215440000000000000000000000000000000000000000000000000000000000000000000000000000000000000000000000000000000000000000006812282000000000000018891457        000005251170000162J0000000000000000000000000000SUPERVISOR DE VENDAS20140708TNE100000000202007012020050619681228N0000000000
M001SOLDI PROMOTORA DE VENDAS LTDA     0100014570008800705ROSANA RODRIGUES GUIMARAES         00ROSANA RODRIGUES GUIMARAES         CLINICA FISIO GAMA                 2068422032720103115012007010000000000064516000007415800006215440000000000000000000000000000000000000000000000000000000000000000000000000000000000000000000000000000000000000000006812282000000000000018891457        000005251170000162J0000000000000000000000000000SUPERVISOR DE VENDAS20140708TNE100000000202007012020050619681228N0000000000
M001SOLDI PROMOTORA DE VENDAS LTDA     0100014570008800705ROSANA RODRIGUES GUIMARAES         00ROSANA RODRIGUES GUIMARAES         NUCLEO DE PNEUMO E MED DO SONO DE T2068440132484220007012007030000000001707700000007415800006914700000000000000000000000000000000000000000000000000000000000000000000000000000000000000000000000000000000000000000006812282000000000000500001457        000004024440000130J0000000000000000000000000000SUPERVISOR DE VENDAS20140708TNE100000000202007032020050619681228N0000000000
M001SOLDI PROMOTORA DE VENDAS LTDA     0100014570008800705ROSANA RODRIGUES GUIMARAES         00ROSANA RODRIGUES GUIMARAES         CLINUP                             2068469199650000470012007070000000000145016000007415800008437920000000000000000000000000000000000000000000000000000000000000000000000000000000000000000000000000000000000000000006812282000000000000042461457        000010408531000171J0000000000000000000000000000SUPERVISOR DE VENDAS20140708TNE100000000202007072020021919681228N0000000000
M001SOLDI PROMOTORA DE VENDAS LTDA     0100014570008800705ROSANA RODRIGUES GUIMARAES         00ROSANA RODRIGUES GUIMARAES         CLINUP                             2068469199650000470012007070000000000145016000007415800008437920000000000000000000000000000000000000000000000000000000000000000000000000000000000000000000000000000000000000000006812282000000000000042461457        000010408531000171J0000000000000000000000000000SUPERVISOR DE VENDAS20140708TNE100000000202007072020021919681228N0000000000
M001SOLDI PROMOTORA DE VENDAS LTDA     0100014570008800705ROSANA RODRIGUES GUIMARAES         00ROSANA RODRIGUES GUIMARAES         CLINUP                             2068469199650000470012007070000000000145016000007415800008437920000000000000000000000000000000000000000000000000000000000000000000000000000000000000000000000000000000000000000006812282000000000000042461457        000010408531000171J0000000000000000000000000000SUPERVISOR DE VENDAS20140708TNE100000000202007072020021919681228N0000000000
M001SOLDI PROMOTORA DE VENDAS LTDA     0100014570008800705ROSANA RODRIGUES GUIMARAES         00ROSANA RODRIGUES GUIMARAES         CLINUP                             2068469199650000470012007070000000000145016000007415800008437920000000000000000000000000000000000000000000000000000000000000000000000000000000000000000000000000000000000000000006812282000000000000042461457        000010408531000171J0000000000000000000000000000SUPERVISOR DE VENDAS20140708TNE100000000202007072020021919681228N0000000000
M001SOLDI PROMOTORA DE VENDAS LTDA     0100014570008800705ROSANA RODRIGUES GUIMARAES         00ROSANA RODRIGUES GUIMARAES         CLINUP                             2068469199650000470012007070000000000145016000007415800008437920000000000000000000000000000000000000000000000000000000000000000000000000000000000000000000000000000000000000000006812282000000000000042461457        000010408531000171J0000000000000000000000000000SUPERVISOR DE VENDAS20140708TNE100000000202007072020021919681228N0000000000
M001SOLDI PROMOTORA DE VENDAS LTDA     0100014570008800705ROSANA RODRIGUES GUIMARAES         00ROSANA RODRIGUES GUIMARAES         HOSPITAL MARIA AUXILIADORA         5068490003340805026012007140000000000119216000007415800006746300000000000000000000000000000000000000000000000000000000000000000000000000000000000000000000000000000000000000000006812282000000000000034911457        000038000485000196J0000000000000000000000000000SUPERVISOR DE VENDAS20140708TNE100000000202007142020060119681228N0000000000
M001SOLDI PROMOTORA DE VENDAS LTDA     0100014570008800705ROSANA RODRIGUES GUIMARAES         00ROSANA RODRIGUES GUIMARAES         CLIN STA MARIA AUXILIADORA         2068537260650000560012007240000000000153116000007415800005036220000000000000000000000000000000000000000000000000000000000000000000000000000000000000000000000000000000000000000006812282000000000000044851457        000036771012000167J0000000000000000000000000000SUPERVISOR DE VENDAS20140708TNE100000000202007242020060919681228N0000000000
