HSINISTROS PAGOS074158200620063001000000001000000000000000000000000000000000000000000000000000000000000000000000000000000000000000000000000000000000000000000000000000000000000000000000000000000000000000000000000000000000000000000000000000000000000000000000000000000000000000000000000000000000000000000000000000000000000000000000000000000000000000000000000000000000000000000000000000000000000 012020062020063000000000000000000000000000000000000000000000000000000000000000000000000000000000000000000000
M001SOLDI PROMOTORA DE VENDAS LTDA     0100000190000110157PALOMA TATO RAMOS                  00PALOMA TATO RAMOS                  SEMIU                              50683194161408050180120060100000000001013160000074158000027091100000000000000000000000000000000000000000000000000000000000000000000000000000000000000000000000000000000000000000091032820000000000000296619          000034165969000134J0000000000000000000000000000CONSULTOR DE VENDAS 20110503TNE100000000202006012020041419910328N0000000000
M001SOLDI PROMOTORA DE VENDAS LTDA     0100000190000110157PALOMA TATO RAMOS                  00PALOMA TATO RAMOS                  SEMIU                              20683194161340199950120060100000000001006000000074158000027091100000000000000000000000000000000000000000000000000000000000000000000000000000000000000000000000000000000000000000091032820000000000000294619          000034165969000134J0000000000000000000000000000CONSULTOR DE VENDAS 20110503TNE100000000202006012020041419910328N0000000000
M001SOLDI PROMOTORA DE VENDAS LTDA     0100000190000110157PALOMA TATO RAMOS                  00PALOMA TATO RAMOS                  SEMIU                              10683194161101010390120060100000000003415160000074158000027091100000000000000000000000000000000000000000000000000000000000000000000000000000000000000000000000000000000000000000091032820000000000001000019          000034165969000134J0000000000000000000000000000CONSULTOR DE VENDAS 20110503TNE100000000202006012020041419910328N0000000000
M001SOLDI PROMOTORA DE VENDAS LTDA     0100000190000110157PALOMA TATO RAMOS                  00PALOMA TATO RAMOS                  SEMIU                              50683194161401010100120060100000000000719160000074158000027091100000000000000000000000000000000000000000000000000000000000000000000000000000000000000000000000000000000000000000091032820000000000000210819          000034165969000134J0000000000000000000000000000CONSULTOR DE VENDAS 20110503TNE100000000202006012020041419910328N0000000000
M001SOLDI PROMOTORA DE VENDAS LTDA     0100000190000110157PALOMA TATO RAMOS                  00PALOMA TATO RAMOS                  ULTRA CENTER                       50683324794409013000120060500000000002131160000074158000018883200000000000000000000000000000000000000000000000000000000000000000000000000000000000000000000000000000000000000000091032820000000000000624119          000036060044000154J0000000000000000000000000000CONSULTOR DE VENDAS 20110503TNE100000000202006052020012719910328N0000000000
M001SOLDI PROMOTORA DE VENDAS LTDA     0100000190000110157PALOMA TATO RAMOS                  00PALOMA TATO RAMOS                  ULTRA CENTER                       50683324792409011220120060500000000003744160000074158000018883200000000000000000000000000000000000000000000000000000000000000000000000000000000000000000000000000000000000000000091032820000000000001096419          000036060044000154J0000000000000000000000000000CONSULTOR DE VENDAS 20110503TNE100000000202006052020012719910328N0000000000
M001SOLDI PROMOTORA DE VENDAS LTDA     0100000190000110157PALOMA TATO RAMOS                  00PALOMA TATO RAMOS                  CLINICA CRISTO REI                 20683723034340199920120061600000000000008000000074158000025851200000000000000000000000000000000000000000000000000000000000000000000000000000000000000000000000000000000000000000091032820000000000000002619          000027952316000130J0000000000000000000000000000CONSULTOR DE VENDAS 20110503TNE100000000202006162020042819910328N0000000000
M001SOLDI PROMOTORA DE VENDAS LTDA     0100000190000110157PALOMA TATO RAMOS                  00PALOMA TATO RAMOS                  CLINICA CRISTO REI                 10683723034101010390120061600000000002729160000074158000025851200000000000000000000000000000000000000000000000000000000000000000000000000000000000000000000000000000000000000000091032820000000000000799219          000027952316000130J0000000000000000000000000000CONSULTOR DE VENDAS 20110503TNE100000000202006162020042819910328N0000000000
M001SOLDI PROMOTORA DE VENDAS LTDA     0100000190000110157PALOMA TATO RAMOS                  00PALOMA TATO RAMOS                  MARCIO MAGNO GADELHA MACIEL        10017793103101010120020062200000000003415160000074158041405280000000000000000000000000000000000000000000000000000000000000000000000000000000000000000000000000000000000000000000091032820140000000001000019          000000054419999772F0000000000000000000000000000CONSULTOR DE VENDAS 20110503TNE100000000202006222020060619910328N0000000000
M001SOLDI PROMOTORA DE VENDAS LTDA     0100000190000110157PALOMA TATO RAMOS                  02DIEGO FERREIRA SOARES              MARCIO MAGNO GADELHA MACIEL        19114063775101010120020062200000000003415160000074158041405280000000000000000000000000000000000000000000000000000000000000000000000000000000000000000000000000000000000000000000084042311140000000001000019          020000054419999772F0000000000000000000000000000CONSULTOR DE VENDAS 20110503TNE100000000202006222020060619840423N0000000000
M001SOLDI PROMOTORA DE VENDAS LTDA     0100000190000110157PALOMA TATO RAMOS                  00PALOMA TATO RAMOS                  HOSPITAL OESTE D OR                20651849471840010110120062900000000009324000000074158000042601600000000000000000000000000000000000000000000000000000000000000000000000000000000000000000000000000000000000000000091032820000000000002730019          000006047087003316J0000000000000000000000000000CONSULTOR DE VENDAS 20110503TNE100000000202006292019020319910328N0000000000
M001SOLDI PROMOTORA DE VENDAS LTDA     0100000860000111116ALINE GONCALVES ALBUQUERQUE        00ALINE GONCALVES ALBUQUERQUE        HOSPITAL PASTEUR                   20683990481840004060120062300000000007165000000074158000041951600000000000000000000000000000000000000000000000000000000000000000000000000000000000000000000000000000000000000000078020920000000000002098086          000029435005005783J0000000000000000000000000000SUPERVISOR DE VENDAS20101206TNQ200000000202006232020050419780209N0000000000
M001SOLDI PROMOTORA DE VENDAS LTDA     0100000860000111116ALINE GONCALVES ALBUQUERQUE        00ALINE GONCALVES ALBUQUERQUE        SEMIU                              10684192595101010390120063000000000003415160000074158000027091100000000000000000000000000000000000000000000000000000000000000000000000000000000000000000000000000000000000000000078020920000000000001000086          000034165969000134J0000000000000000000000000000SUPERVISOR DE VENDAS20101206TNQ200000000202006302020051219780209N0000000000
M001SOLDI PROMOTORA DE VENDAS LTDA     0100001320000118002JOSE LEITE RIBEIRO TAVARES         00JOSE LEITE RIBEIRO TAVARES         HOSPITAL DE OLHOS DO RECIFE        106834687521010103901200609000000000034151600000741580000176710000000000000000000000000000000000000000000000000000000000000000000000000000000000000000000000000000000000000000000710927100000000000010000132         000040881302000130J0000000000000000000000000000GERENTE COMERCIAL I 20080218TNQ200000000202006092020042919710927N0000000000
M001SOLDI PROMOTORA DE VENDAS LTDA     0100001320000118002JOSE LEITE RIBEIRO TAVARES         00JOSE LEITE RIBEIRO TAVARES         LABORAT MARCELO MAGALHAES          506837272004030172901200616000000000002841600000741580000369233000000000000000000000000000000000000000000000000000000000000000000000000000000000000000000000000000000000000000000710927100000000000000834132         000011696937000160J0000000000000000000000000000GERENTE COMERCIAL I 20080218TNQ200000000202006162020050219710927N0000000000
M001SOLDI PROMOTORA DE VENDAS LTDA     0100001320000118002JOSE LEITE RIBEIRO TAVARES         00JOSE LEITE RIBEIRO TAVARES         LABORAT MARCELO MAGALHAES          506837272004030436101200616000000000002841600000741580000369233000000000000000000000000000000000000000000000000000000000000000000000000000000000000000000000000000000000000000000710927100000000000000834132         000011696937000160J0000000000000000000000000000GERENTE COMERCIAL I 20080218TNQ200000000202006162020050219710927N0000000000
M001SOLDI PROMOTORA DE VENDAS LTDA     0100001320000118002JOSE LEITE RIBEIRO TAVARES         00JOSE LEITE RIBEIRO TAVARES         LABORAT MARCELO MAGALHAES          506837272004030838301200616000000000001421600000741580000369233000000000000000000000000000000000000000000000000000000000000000000000000000000000000000000000000000000000000000000710927100000000000000417132         000011696937000160J0000000000000000000000000000GERENTE COMERCIAL I 20080218TNQ200000000202006162020050219710927N0000000000
M001SOLDI PROMOTORA DE VENDAS LTDA     0100001320000118002JOSE LEITE RIBEIRO TAVARES         00JOSE LEITE RIBEIRO TAVARES         LABORAT MARCELO MAGALHAES          506837272004030188501200616000000000001711600000741580000369233000000000000000000000000000000000000000000000000000000000000000000000000000000000000000000000000000000000000000000710927100000000000000501132         000011696937000160J0000000000000000000000000000GERENTE COMERCIAL I 20080218TNQ200000000202006162020050219710927N0000000000
M001SOLDI PROMOTORA DE VENDAS LTDA     0100001320000118002JOSE LEITE RIBEIRO TAVARES         00JOSE LEITE RIBEIRO TAVARES         LABORAT MARCELO MAGALHAES          506837272004030258001200616000000000001331600000741580000369233000000000000000000000000000000000000000000000000000000000000000000000000000000000000000000000000000000000000000000710927100000000000000390132         000011696937000160J0000000000000000000000000000GERENTE COMERCIAL I 20080218TNQ200000000202006162020050219710927N0000000000
M001SOLDI PROMOTORA DE VENDAS LTDA     0100001320000118002JOSE LEITE RIBEIRO TAVARES         00JOSE LEITE RIBEIRO TAVARES         LABORAT MARCELO MAGALHAES          506837272004030163001200616000000000001331600000741580000369233000000000000000000000000000000000000000000000000000000000000000000000000000000000000000000000000000000000000000000710927100000000000000390132         000011696937000160J0000000000000000000000000000GERENTE COMERCIAL I 20080218TNQ200000000202006162020050219710927N0000000000
M001SOLDI PROMOTORA DE VENDAS LTDA     0100001320000118002JOSE LEITE RIBEIRO TAVARES         00JOSE LEITE RIBEIRO TAVARES         LABORAT MARCELO MAGALHAES          506837272004030231801200616000000000001331600000741580000369233000000000000000000000000000000000000000000000000000000000000000000000000000000000000000000000000000000000000000000710927100000000000000390132         000011696937000160J0000000000000000000000000000GERENTE COMERCIAL I 20080218TNQ200000000202006162020050219710927N0000000000
M001SOLDI PROMOTORA DE VENDAS LTDA     0100001320000118002JOSE LEITE RIBEIRO TAVARES         00JOSE LEITE RIBEIRO TAVARES         LABORAT MARCELO MAGALHAES          506837272004030242301200616000000000001331600000741580000369233000000000000000000000000000000000000000000000000000000000000000000000000000000000000000000000000000000000000000000710927100000000000000390132         000011696937000160J0000000000000000000000000000GERENTE COMERCIAL I 20080218TNQ200000000202006162020050219710927N0000000000
M001SOLDI PROMOTORA DE VENDAS LTDA     0100001320000118002JOSE LEITE RIBEIRO TAVARES         00JOSE LEITE RIBEIRO TAVARES         LABORAT MARCELO MAGALHAES          506837272004030199001200616000000000001891600000741580000369233000000000000000000000000000000000000000000000000000000000000000000000000000000000000000000000000000000000000000000710927100000000000000556132         000011696937000160J0000000000000000000000000000GERENTE COMERCIAL I 20080218TNQ200000000202006162020050219710927N0000000000
M001SOLDI PROMOTORA DE VENDAS LTDA     0100001320000118002JOSE LEITE RIBEIRO TAVARES         00JOSE LEITE RIBEIRO TAVARES         LABORAT MARCELO MAGALHAES          506837272004030250401200616000000000001331600000741580000369233000000000000000000000000000000000000000000000000000000000000000000000000000000000000000000000000000000000000000000710927100000000000000390132         000011696937000160J0000000000000000000000000000GERENTE COMERCIAL I 20080218TNQ200000000202006162020050219710927N0000000000
M001SOLDI PROMOTORA DE VENDAS LTDA     0100001320000118002JOSE LEITE RIBEIRO TAVARES         00JOSE LEITE RIBEIRO TAVARES         LABORAT MARCELO MAGALHAES          506837272004030251201200616000000000001331600000741580000369233000000000000000000000000000000000000000000000000000000000000000000000000000000000000000000000000000000000000000000710927100000000000000390132         000011696937000160J0000000000000000000000000000GERENTE COMERCIAL I 20080218TNQ200000000202006162020050219710927N0000000000
M001SOLDI PROMOTORA DE VENDAS LTDA     0100001320000118002JOSE LEITE RIBEIRO TAVARES         00JOSE LEITE RIBEIRO TAVARES         LABORAT MARCELO MAGALHAES          506837272004030164801200616000000000004751600000741580000369233000000000000000000000000000000000000000000000000000000000000000000000000000000000000000000000000000000000000000000710927100000000000001391132         000011696937000160J0000000000000000000000000000GERENTE COMERCIAL I 20080218TNQ200000000202006162020050219710927N0000000000
M001SOLDI PROMOTORA DE VENDAS LTDA     0100001320000118002JOSE LEITE RIBEIRO TAVARES         00JOSE LEITE RIBEIRO TAVARES         LABORAT MARCELO MAGALHAES          506837272004031627001200616000000000011871600000741580000369233000000000000000000000000000000000000000000000000000000000000000000000000000000000000000000000000000000000000000000710927100000000000003476132         000011696937000160J0000000000000000000000000000GERENTE COMERCIAL I 20080218TNQ200000000202006162020050219710927N0000000000
M001SOLDI PROMOTORA DE VENDAS LTDA     0100001320000118002JOSE LEITE RIBEIRO TAVARES         00JOSE LEITE RIBEIRO TAVARES         LABORAT MARCELO MAGALHAES          506837272004030490601200616000000000014241600000741580000369233000000000000000000000000000000000000000000000000000000000000000000000000000000000000000000000000000000000000000000710927100000000000004171132         000011696937000160J0000000000000000000000000000GERENTE COMERCIAL I 20080218TNQ200000000202006162020050219710927N0000000000
M001SOLDI PROMOTORA DE VENDAS LTDA     0100001320000118002JOSE LEITE RIBEIRO TAVARES         00JOSE LEITE RIBEIRO TAVARES         LABORAT MARCELO MAGALHAES          506837272004030155901200616000000000001331600000741580000369233000000000000000000000000000000000000000000000000000000000000000000000000000000000000000000000000000000000000000000710927100000000000000390132         000011696937000160J0000000000000000000000000000GERENTE COMERCIAL I 20080218TNQ200000000202006162020050219710927N0000000000
M001SOLDI PROMOTORA DE VENDAS LTDA     0100001320000118002JOSE LEITE RIBEIRO TAVARES         00JOSE LEITE RIBEIRO TAVARES         LABORAT MARCELO MAGALHAES          506837272004030240701200616000000000001331600000741580000369233000000000000000000000000000000000000000000000000000000000000000000000000000000000000000000000000000000000000000000710927100000000000000390132         000011696937000160J0000000000000000000000000000GERENTE COMERCIAL I 20080218TNQ200000000202006162020050219710927N0000000000
M001SOLDI PROMOTORA DE VENDAS LTDA     0100001400000118013PALOMA SANTANA TEIXEIRA            02MIGUEL SANTANA BARBOSA             HOSPITAL DAS NEVES                 206838469708400014701200619000000000112700000000741580000432911000000000000000000000000000000000000000000000000000000000000000000000000000000000000000000000000000000000000000000181017120000000000033000140         020001817749000199J0000000000000000000000000000CONSULTOR DE VENDAS 20100413TNE100000000202006192020050320181017N0000000000
M001SOLDI PROMOTORA DE VENDAS LTDA     0100002640000013086ANTONIA DE SOUSA GOMES FEIJAO      00ANTONIA DE SOUSA GOMES FEIJAO      PROSAUDE                           100176990631010101200200609000000000034151600000741580000887927000000000000000000000000000000000000000000000000000000000000000000000000000000000000000000000000000000000000000000601013200000000000010000264         000002355330000125J0000000000000000000000000000AUXILIAR DE SERVICOS20100503TNE100000000202006092020052719601013N0000000000
M001SOLDI PROMOTORA DE VENDAS LTDA     0100002640000013086ANTONIA DE SOUSA GOMES FEIJAO      00ANTONIA DE SOUSA GOMES FEIJAO      MONALIZA GOMES DE CARVALHO         101223792391010101200200612000000000034151600000741580038034000000000000000000000000000000000000000000000000000000000000000000000000000000000000000000000000000000000000000000000601013203800000000010000264         000000072921889749F0000000000000000000000000000AUXILIAR DE SERVICOS20100503TNE100000000202006122020052119601013N0000000000
M001SOLDI PROMOTORA DE VENDAS LTDA     0100002640000013086ANTONIA DE SOUSA GOMES FEIJAO      00ANTONIA DE SOUSA GOMES FEIJAO      MONALIZA GOMES DE CARVALHO         181223792251010101200200612000000000034151600000741580038034000000000000000000000000000000000000000000000000000000000000000000000000000000000000000000000000000000000000000000000601013203800000000010000264         000000072921889749F0000000000000000000000000000AUXILIAR DE SERVICOS20100503TNE100000000202006122020051519601013N0000000000
M001SOLDI PROMOTORA DE VENDAS LTDA     0100002800000013097SAMUEL DE FRANCA PESSOA JUNIOR     02EMANUELLE RODRIGUES PESSOA         JOSE ROBERTO FERNANDES JUNIOR      100176735951010101200200608000000000034151600000741580031443600000000000000000000000000000000000000000000000000000000000000000000000000000000000000000000000000000000000000000000141216223100000000010000280         020000005386107780F0000000000000000000000000000CONSULTOR DE VENDAS 20110317TNE100000000202006082020050620141216N0000000000
M001SOLDI PROMOTORA DE VENDAS LTDA     0100003290000133158CARLA C GUILHERME SILVA MARQUES    00CARLA C GUILHERME SILVA MARQUES    HOSP MEMORIAL ARTHUR RAMOS         506833962274031021301200608000000000003611600000741580000047619000000000000000000000000000000000000000000000000000000000000000000000000000000000000000000000000000000000000000000860103200000000000001058329         000001722424000122J0000000000000000000000000000CONSULTOR DE VENDAS 20110701TNE100000000202006082020030319860103N0000000000
M001SOLDI PROMOTORA DE VENDAS LTDA     0100003290000133158CARLA C GUILHERME SILVA MARQUES    00CARLA C GUILHERME SILVA MARQUES    HOSP MEMORIAL ARTHUR RAMOS         206833962273401999501200608000000000060160000000741580000047619000000000000000000000000000000000000000000000000000000000000000000000000000000000000000000000000000000000000000000860103200000000000017615329         000001722424000122J0000000000000000000000000000CONSULTOR DE VENDAS 20110701TNE100000000202006082020030319860103N0000000000
M001SOLDI PROMOTORA DE VENDAS LTDA     0100003290000133158CARLA C GUILHERME SILVA MARQUES    00CARLA C GUILHERME SILVA MARQUES    HOSP MEMORIAL ARTHUR RAMOS         506833962274030258001200608000000000001691600000741580000047619000000000000000000000000000000000000000000000000000000000000000000000000000000000000000000000000000000000000000000860103200000000000000496329         000001722424000122J0000000000000000000000000000CONSULTOR DE VENDAS 20110701TNE100000000202006082020030319860103N0000000000
M001SOLDI PROMOTORA DE VENDAS LTDA     0100003290000133158CARLA C GUILHERME SILVA MARQUES    00CARLA C GUILHERME SILVA MARQUES    HOSP MEMORIAL ARTHUR RAMOS         506833962274030436101200608000000000003621600000741580000047619000000000000000000000000000000000000000000000000000000000000000000000000000000000000000000000000000000000000000000860103200000000000001062329         000001722424000122J0000000000000000000000000000CONSULTOR DE VENDAS 20110701TNE100000000202006082020030319860103N0000000000
M001SOLDI PROMOTORA DE VENDAS LTDA     0100003290000133158CARLA C GUILHERME SILVA MARQUES    00CARLA C GUILHERME SILVA MARQUES    HOSP MEMORIAL ARTHUR RAMOS         506833962274031121001200608000000000001691600000741580000047619000000000000000000000000000000000000000000000000000000000000000000000000000000000000000000000000000000000000000000860103200000000000000496329         000001722424000122J0000000000000000000000000000CONSULTOR DE VENDAS 20110701TNE100000000202006082020030319860103N0000000000
M001SOLDI PROMOTORA DE VENDAS LTDA     0100003290000133158CARLA C GUILHERME SILVA MARQUES    00CARLA C GUILHERME SILVA MARQUES    HOSP MEMORIAL ARTHUR RAMOS         506833962274030163001200608000000000001691600000741580000047619000000000000000000000000000000000000000000000000000000000000000000000000000000000000000000000000000000000000000000860103200000000000000496329         000001722424000122J0000000000000000000000000000CONSULTOR DE VENDAS 20110701TNE100000000202006082020030319860103N0000000000
M001SOLDI PROMOTORA DE VENDAS LTDA     0100003290000133158CARLA C GUILHERME SILVA MARQUES    00CARLA C GUILHERME SILVA MARQUES    HOSP MEMORIAL ARTHUR RAMOS         206833962273401999201200608000000000004480000000741580000047619000000000000000000000000000000000000000000000000000000000000000000000000000000000000000000000000000000000000000000860103200000000000001314329         000001722424000122J0000000000000000000000000000CONSULTOR DE VENDAS 20110701TNE100000000202006082020030319860103N0000000000
M001SOLDI PROMOTORA DE VENDAS LTDA     0100003290000133158CARLA C GUILHERME SILVA MARQUES    00CARLA C GUILHERME SILVA MARQUES    HOSP MEMORIAL ARTHUR RAMOS         206833962273401999101200608000000000028620000000741580000047619000000000000000000000000000000000000000000000000000000000000000000000000000000000000000000000000000000000000000000860103200000000000008382329         000001722424000122J0000000000000000000000000000CONSULTOR DE VENDAS 20110701TNE100000000202006082020030319860103N0000000000
M001SOLDI PROMOTORA DE VENDAS LTDA     0100003530000014055REGINA HELENA NERY BEZERRA         01HELENA PATRICIA NERY DOS SANTOS    EDNA REGINA CLINICA MEDICA         101208398201010101200200615000000000034151600000741580000331002000000000000000000000000000000000000000000000000000000000000000000000000000000000000000000000000000000000000000000000331220000000000010000353         010020076084000154J0000000000000000000000000000CONSULTOR DE VENDAS 20100804TNE100000000202006152020050820000331N0000000000
M001SOLDI PROMOTORA DE VENDAS LTDA     0100003610000017005EDVANE PEREIRA DE OLIVEIRA         00EDVANE PEREIRA DE OLIVEIRA         CLIVALE LAURO DE FREITAS           191127334731010101200200601000000000034151600000741580000390102000000000000000000000000000000000000000000000000000000000000000000000000000000000000000000000000000000000000000000801011200000000000010000361         000014579940000353J0000000000000000000000000000SUPERVISOR DE VENDAS20060701TNQ200000000202006012020051819801011N0000000000
M001SOLDI PROMOTORA DE VENDAS LTDA     0100003700000017098CAROLINE MOREIRA CHAMUSCA          00CAROLINE MOREIRA CHAMUSCA          ANGIOCLAM VILLAS                   100176427171010101200200603000000000034151600000741580000799491000000000000000000000000000000000000000000000000000000000000000000000000000000000000000000000000000000000000000000880307200000000000010000370         000011510568000179J0000000000000000000000000000ASSISTENTE COMERCIAL20090923TNQ200000000202006032020052519880307N0000000000
M001SOLDI PROMOTORA DE VENDAS LTDA     0100003700000017098CAROLINE MOREIRA CHAMUSCA          01MARCELO CHAMUSCA DE LUNA           ANGIOCLAM VILLAS                   100176427181010101200200603000000000034151600000741580000799491000000000000000000000000000000000000000000000000000000000000000000000000000000000000000000000000000000000000000000801223110000000000010000370         010011510568000179J0000000000000000000000000000ASSISTENTE COMERCIAL20090923TNQ200000000202006032020052519801223N0000000000
M001SOLDI PROMOTORA DE VENDAS LTDA     0100003700000017098CAROLINE MOREIRA CHAMUSCA          00CAROLINE MOREIRA CHAMUSCA          LLB LAB LIQUOROLOGIA BAHIA         506833435414031022102200605000000000009661600000741580000402370000000000000000000000000000000000000000000000000000000000000000000000000000000000000000000000000000000000000000000880307200000000000002830370         000002040164000178J0000000000000000000000000000ASSISTENTE COMERCIAL20090923TNQ200000000202006052020041619880307N0000000000
M001SOLDI PROMOTORA DE VENDAS LTDA     0100003700000017098CAROLINE MOREIRA CHAMUSCA          00CAROLINE MOREIRA CHAMUSCA          IMAGE MEMORIAL ITAIGARA            206835219468433015501200609000000000082970000000741580000587478000000000000000000000000000000000000000000000000000000000000000000000000000000000000000000000000000000000000000000880307200000000000024295370         000061486650025682J0000000000000000000000000000ASSISTENTE COMERCIAL20090923TNQ200000000202006092020022019880307N0000000000
M001SOLDI PROMOTORA DE VENDAS LTDA     0100003700000017098CAROLINE MOREIRA CHAMUSCA          00CAROLINE MOREIRA CHAMUSCA          COPANEST BA                        4   F2S4YG83130905400200612000000000793971600000741580000097420000000000000000000000000000000000000000000000000000000000000000000000000000000000000000000000000000000000000000000880307200000000000232468370         000013792965000106J0000000000000000000000000000ASSISTENTE COMERCIAL20090923TNQ200000000202006122020041719880307N0000000000
M001SOLDI PROMOTORA DE VENDAS LTDA     0100003700000017098CAROLINE MOREIRA CHAMUSCA          00CAROLINE MOREIRA CHAMUSCA          HOSPITAL ALIANCA                   3   F2S4YG80000000100200615000000002522150000000741580000152315000000000000000000000000000000000000000000000000000000000000000000000000000000002522150000000000000000000000000000880307200000000000738466370         000013016092000140J0000000000000000000000000000ASSISTENTE COMERCIAL20090923TNQ200000000202006152020041719880307N0000000000
M001SOLDI PROMOTORA DE VENDAS LTDA     0100003700000017098CAROLINE MOREIRA CHAMUSCA          00CAROLINE MOREIRA CHAMUSCA          IMAGE MEMORIAL ITAIGARA            506838610528433017101200619000000000045380000000741580000587478000000000000000000000000000000000000000000000000000000000000000000000000000000000000000000000000000000000000000000880307200000000000013288370         000061486650025682J0000000000000000000000000000ASSISTENTE COMERCIAL20090923TNQ200000000202006192020050219880307N0000000000
M001SOLDI PROMOTORA DE VENDAS LTDA     0100003700000017098CAROLINE MOREIRA CHAMUSCA          00CAROLINE MOREIRA CHAMUSCA          CLINICA MARIO HENRIQUE GUIMARAES   106840030710001150901200623000000000051230000000741580000640302000000000000000000000000000000000000000000000000000000000000000000000000000000000000000000000000000000000000000000880307200000000000015000370         000003828059000160J0000000000000000000000000000ASSISTENTE COMERCIAL20090923TNQ200000000202006232020051219880307N0000000000
M001SOLDI PROMOTORA DE VENDAS LTDA     0100003700000017098CAROLINE MOREIRA CHAMUSCA          02GUILHERME MOREIRA CHAMUSCA DE LUNA CLINICA MARIO HENRIQUE GUIMARAES   106840030700001150901200623000000000051230000000741580000640302000000000000000000000000000000000000000000000000000000000000000000000000000000000000000000000000000000000000000000140911120000000000015000370         020003828059000160J0000000000000000000000000000ASSISTENTE COMERCIAL20090923TNQ200000000202006232020051220140911N0000000000
M001SOLDI PROMOTORA DE VENDAS LTDA     0100003700000017098CAROLINE MOREIRA CHAMUSCA          03GAEL MOREIRA CHAMUSCA DE LUNA      CLINICA MARIO HENRIQUE GUIMARAES   100178080830001150900200624000000000051230000000741580000640302000000000000000000000000000000000000000000000000000000000000000000000000000000000000000000000000000000000000000000200508120000000000015000370         030003828059000160J0000000000000000000000000000ASSISTENTE COMERCIAL20090923TNQ200000000202006242020060920200508N0000000000
M001SOLDI PROMOTORA DE VENDAS LTDA     0100003700000017098CAROLINE MOREIRA CHAMUSCA          00CAROLINE MOREIRA CHAMUSCA          COPANEST BA                        106841756251010101201200630000000000034151600000741580000097420000000000000000000000000000000000000000000000000000000000000000000000000000000000000000000000000000000000000000000880307200000000000009999370         000013792965000106J0000000000000000000000000000ASSISTENTE COMERCIAL20090923TNQ200000000202006302020050819880307N0000000000
M001SOLDI PROMOTORA DE VENDAS LTDA     0100003700000017098CAROLINE MOREIRA CHAMUSCA          00CAROLINE MOREIRA CHAMUSCA          HEMATO                             506841395764040368801200630000000000008431600000741580000659347010000000000000000000000000000000000000000000000000000000000000000000000000000000000000000000000000000000000000000880307200000000000002470370         000013894995000123J0000000000000000000000000000ASSISTENTE COMERCIAL20090923TNQ200000000202006302020050819880307N0000000000
M001SOLDI PROMOTORA DE VENDAS LTDA     0100003700000017098CAROLINE MOREIRA CHAMUSCA          00CAROLINE MOREIRA CHAMUSCA          HEMATO                             706841395764040334301200630000000000011201600000741580000659347010000000000000000000000000000000000000000000000000000000000000000000000000000000000000000000000000000000000000000880307200000000000003281370         000013894995000123J0000000000000000000000000000ASSISTENTE COMERCIAL20090923TNQ200000000202006302020050819880307N0000000000
M001SOLDI PROMOTORA DE VENDAS LTDA     0100003880000017124LUCIANA DO ESPIRITO SANTO ARAUJO   00LUCIANA DO ESPIRITO SANTO ARAUJO   LABCHECAP                          506833688794030258001200605000000000001691600000741580000732079000000000000000000000000000000000000000000000000000000000000000000000000000000000000000000000000000000000000000000710322200000000000000496388         000013503479000392J0000000000000000000000000000CONSULTOR DE VENDAS 20100719TNE100000000202006052020042119710322N0000000000
M001SOLDI PROMOTORA DE VENDAS LTDA     0100003880000017124LUCIANA DO ESPIRITO SANTO ARAUJO   00LUCIANA DO ESPIRITO SANTO ARAUJO   LABCHECAP                          506833688794030223701200605000000000001931600000741580000732079000000000000000000000000000000000000000000000000000000000000000000000000000000000000000000000000000000000000000000710322200000000000000566388         000013503479000392J0000000000000000000000000000CONSULTOR DE VENDAS 20100719TNE100000000202006052020042119710322N0000000000
M001SOLDI PROMOTORA DE VENDAS LTDA     0100003880000017124LUCIANA DO ESPIRITO SANTO ARAUJO   00LUCIANA DO ESPIRITO SANTO ARAUJO   LABCHECAP                          506833688794030436101200605000000000003621600000741580000732079000000000000000000000000000000000000000000000000000000000000000000000000000000000000000000000000000000000000000000710322200000000000001062388         000013503479000392J0000000000000000000000000000CONSULTOR DE VENDAS 20100719TNE100000000202006052020042119710322N0000000000
M001SOLDI PROMOTORA DE VENDAS LTDA     0100003880000017124LUCIANA DO ESPIRITO SANTO ARAUJO   00LUCIANA DO ESPIRITO SANTO ARAUJO   LABCHECAP                          506833688794030251201200605000000000001691600000741580000732079000000000000000000000000000000000000000000000000000000000000000000000000000000000000000000000000000000000000000000710322200000000000000496388         000013503479000392J0000000000000000000000000000CONSULTOR DE VENDAS 20100719TNE100000000202006052020042119710322N0000000000
M001SOLDI PROMOTORA DE VENDAS LTDA     0100003880000017124LUCIANA DO ESPIRITO SANTO ARAUJO   00LUCIANA DO ESPIRITO SANTO ARAUJO   LABCHECAP                          506833688794030204001200605000000000001691600000741580000732079000000000000000000000000000000000000000000000000000000000000000000000000000000000000000000000000000000000000000000710322200000000000000496388         000013503479000392J0000000000000000000000000000CONSULTOR DE VENDAS 20100719TNE100000000202006052020042119710322N0000000000
M001SOLDI PROMOTORA DE VENDAS LTDA     0100003880000017124LUCIANA DO ESPIRITO SANTO ARAUJO   00LUCIANA DO ESPIRITO SANTO ARAUJO   LABCHECAP                          506833688794030250401200605000000000001691600000741580000732079000000000000000000000000000000000000000000000000000000000000000000000000000000000000000000000000000000000000000000710322200000000000000496388         000013503479000392J0000000000000000000000000000CONSULTOR DE VENDAS 20100719TNE100000000202006052020042119710322N0000000000
M001SOLDI PROMOTORA DE VENDAS LTDA     0100003880000017124LUCIANA DO ESPIRITO SANTO ARAUJO   00LUCIANA DO ESPIRITO SANTO ARAUJO   CLION                              206833582083401999501200605000000000068300000000741580000599646000000000000000000000000000000000000000000000000000000000000000000000000000000000000000000000000000000000000000000710322200000000000020000388         000013501218000171J0000000000000000000000000000CONSULTOR DE VENDAS 20100719TNE100000000202006052020042319710322N0000000000
M001SOLDI PROMOTORA DE VENDAS LTDA     0100003880000017124LUCIANA DO ESPIRITO SANTO ARAUJO   00LUCIANA DO ESPIRITO SANTO ARAUJO   LABCHECAP                          506833688794030139701200605000000000001811600000741580000732079000000000000000000000000000000000000000000000000000000000000000000000000000000000000000000000000000000000000000000710322200000000000000531388         000013503479000392J0000000000000000000000000000CONSULTOR DE VENDAS 20100719TNE100000000202006052020042119710322N0000000000
M001SOLDI PROMOTORA DE VENDAS LTDA     0100003880000017124LUCIANA DO ESPIRITO SANTO ARAUJO   00LUCIANA DO ESPIRITO SANTO ARAUJO   CLION                              206833582083401999201200605000000005218500000000741580000599646000000000000000000000000000000000000000000000000000000000000000000000000000000000000000000000000000000000000000000710322200000000001527931388         000013501218000171J0000000000000000000000000000CONSULTOR DE VENDAS 20100719TNE100000000202006052020042319710322N0000000000
M001SOLDI PROMOTORA DE VENDAS LTDA     0100003880000017124LUCIANA DO ESPIRITO SANTO ARAUJO   00LUCIANA DO ESPIRITO SANTO ARAUJO   LABCHECAP                          506833688794030231801200605000000000001691600000741580000732079000000000000000000000000000000000000000000000000000000000000000000000000000000000000000000000000000000000000000000710322200000000000000496388         000013503479000392J0000000000000000000000000000CONSULTOR DE VENDAS 20100719TNE100000000202006052020042119710322N0000000000
M001SOLDI PROMOTORA DE VENDAS LTDA     0100003880000017124LUCIANA DO ESPIRITO SANTO ARAUJO   00LUCIANA DO ESPIRITO SANTO ARAUJO   CLION                              206833582082010429401200605000000000060011600000741580000599646000000000000000000000000000000000000000000000000000000000000000000000000000000000000000000000000000000000000000000710322200000000000017573388         000013501218000171J0000000000000000000000000000CONSULTOR DE VENDAS 20100719TNE100000000202006052020042319710322N0000000000
M001SOLDI PROMOTORA DE VENDAS LTDA     0100003880000017124LUCIANA DO ESPIRITO SANTO ARAUJO   00LUCIANA DO ESPIRITO SANTO ARAUJO   LABCHECAP                          506833688794030242301200605000000000001691600000741580000732079000000000000000000000000000000000000000000000000000000000000000000000000000000000000000000000000000000000000000000710322200000000000000496388         000013503479000392J0000000000000000000000000000CONSULTOR DE VENDAS 20100719TNE100000000202006052020042119710322N0000000000
M001SOLDI PROMOTORA DE VENDAS LTDA     0100003880000017124LUCIANA DO ESPIRITO SANTO ARAUJO   00LUCIANA DO ESPIRITO SANTO ARAUJO   CLION                              206833582083401999101200605000000000051230000000741580000599646000000000000000000000000000000000000000000000000000000000000000000000000000000000000000000000000000000000000000000710322200000000000015000388         000013501218000171J0000000000000000000000000000CONSULTOR DE VENDAS 20100719TNE100000000202006052020042319710322N0000000000
M001SOLDI PROMOTORA DE VENDAS LTDA     0100003880000017124LUCIANA DO ESPIRITO SANTO ARAUJO   00LUCIANA DO ESPIRITO SANTO ARAUJO   LABCHECAP                          506833688794030163001200605000000000001691600000741580000732079000000000000000000000000000000000000000000000000000000000000000000000000000000000000000000000000000000000000000000710322200000000000000496388         000013503479000392J0000000000000000000000000000CONSULTOR DE VENDAS 20100719TNE100000000202006052020042119710322N0000000000
M001SOLDI PROMOTORA DE VENDAS LTDA     0100003880000017124LUCIANA DO ESPIRITO SANTO ARAUJO   00LUCIANA DO ESPIRITO SANTO ARAUJO   CLION                              206841350022010429401200629000000000060011600000741580000599646000000000000000000000000000000000000000000000000000000000000000000000000000000000000000000000000000000000000000000710322200000000000017573388         000013501218000171J0000000000000000000000000000CONSULTOR DE VENDAS 20100719TNE100000000202006292020051419710322N0000000000
M001SOLDI PROMOTORA DE VENDAS LTDA     0100003880000017124LUCIANA DO ESPIRITO SANTO ARAUJO   00LUCIANA DO ESPIRITO SANTO ARAUJO   CLION                              206841350023401999501200629000000000068300000000741580000599646000000000000000000000000000000000000000000000000000000000000000000000000000000000000000000000000000000000000000000710322200000000000020000388         000013501218000171J0000000000000000000000000000CONSULTOR DE VENDAS 20100719TNE100000000202006292020051419710322N0000000000
M001SOLDI PROMOTORA DE VENDAS LTDA     0100003880000017124LUCIANA DO ESPIRITO SANTO ARAUJO   00LUCIANA DO ESPIRITO SANTO ARAUJO   CLION                              206841350023401999101200629000000000092210000000741580000599646000000000000000000000000000000000000000000000000000000000000000000000000000000000000000000000000000000000000000000710322200000000000027000388         000013501218000171J0000000000000000000000000000CONSULTOR DE VENDAS 20100719TNE100000000202006292020051419710322N0000000000
M001SOLDI PROMOTORA DE VENDAS LTDA     0100003880000017124LUCIANA DO ESPIRITO SANTO ARAUJO   00LUCIANA DO ESPIRITO SANTO ARAUJO   CLION                              206841350023401999201200629000000004839670000000741580000599646000000000000000000000000000000000000000000000000000000000000000000000000000000000000000000000000000000000000000000710322200000000001417015388         000013501218000171J0000000000000000000000000000CONSULTOR DE VENDAS 20100719TNE100000000202006292020051419710322N0000000000
M001SOLDI PROMOTORA DE VENDAS LTDA     0100003880000017124LUCIANA DO ESPIRITO SANTO ARAUJO   00LUCIANA DO ESPIRITO SANTO ARAUJO   LABCHECAP                          506842265084030139701200630000000000001811600000741580000731676000000000000000000000000000000000000000000000000000000000000000000000000000000000000000000000000000000000000000000710322200000000000000531388         000013503479000201J0000000000000000000000000000CONSULTOR DE VENDAS 20100719TNE100000000202006302020051119710322N0000000000
M001SOLDI PROMOTORA DE VENDAS LTDA     0100003880000017124LUCIANA DO ESPIRITO SANTO ARAUJO   00LUCIANA DO ESPIRITO SANTO ARAUJO   LABCHECAP                          506842265084030163001200630000000000001691600000741580000731676000000000000000000000000000000000000000000000000000000000000000000000000000000000000000000000000000000000000000000710322200000000000000496388         000013503479000201J0000000000000000000000000000CONSULTOR DE VENDAS 20100719TNE100000000202006302020051119710322N0000000000
M001SOLDI PROMOTORA DE VENDAS LTDA     0100003880000017124LUCIANA DO ESPIRITO SANTO ARAUJO   00LUCIANA DO ESPIRITO SANTO ARAUJO   LABCHECAP                          506842265084030204001200630000000000001691600000741580000731676000000000000000000000000000000000000000000000000000000000000000000000000000000000000000000000000000000000000000000710322200000000000000496388         000013503479000201J0000000000000000000000000000CONSULTOR DE VENDAS 20100719TNE100000000202006302020051119710322N0000000000
M001SOLDI PROMOTORA DE VENDAS LTDA     0100003880000017124LUCIANA DO ESPIRITO SANTO ARAUJO   00LUCIANA DO ESPIRITO SANTO ARAUJO   LABCHECAP                          506842265084030436101200630000000000003621600000741580000731676000000000000000000000000000000000000000000000000000000000000000000000000000000000000000000000000000000000000000000710322200000000000001062388         000013503479000201J0000000000000000000000000000CONSULTOR DE VENDAS 20100719TNE100000000202006302020051119710322N0000000000
M001SOLDI PROMOTORA DE VENDAS LTDA     0100003880000017124LUCIANA DO ESPIRITO SANTO ARAUJO   00LUCIANA DO ESPIRITO SANTO ARAUJO   LABCHECAP                          506842265084030251201200630000000000001691600000741580000731676000000000000000000000000000000000000000000000000000000000000000000000000000000000000000000000000000000000000000000710322200000000000000496388         000013503479000201J0000000000000000000000000000CONSULTOR DE VENDAS 20100719TNE100000000202006302020051119710322N0000000000
M001SOLDI PROMOTORA DE VENDAS LTDA     0100003880000017124LUCIANA DO ESPIRITO SANTO ARAUJO   00LUCIANA DO ESPIRITO SANTO ARAUJO   LABCHECAP                          506842265084030258001200630000000000001691600000741580000731676000000000000000000000000000000000000000000000000000000000000000000000000000000000000000000000000000000000000000000710322200000000000000496388         000013503479000201J0000000000000000000000000000CONSULTOR DE VENDAS 20100719TNE100000000202006302020051119710322N0000000000
M001SOLDI PROMOTORA DE VENDAS LTDA     0100003880000017124LUCIANA DO ESPIRITO SANTO ARAUJO   00LUCIANA DO ESPIRITO SANTO ARAUJO   LABCHECAP                          506842265084030231801200630000000000001691600000741580000731676000000000000000000000000000000000000000000000000000000000000000000000000000000000000000000000000000000000000000000710322200000000000000496388         000013503479000201J0000000000000000000000000000CONSULTOR DE VENDAS 20100719TNE100000000202006302020051119710322N0000000000
M001SOLDI PROMOTORA DE VENDAS LTDA     0100003880000017124LUCIANA DO ESPIRITO SANTO ARAUJO   00LUCIANA DO ESPIRITO SANTO ARAUJO   LABCHECAP                          506842265084030242301200630000000000001691600000741580000731676000000000000000000000000000000000000000000000000000000000000000000000000000000000000000000000000000000000000000000710322200000000000000496388         000013503479000201J0000000000000000000000000000CONSULTOR DE VENDAS 20100719TNE100000000202006302020051119710322N0000000000
M001SOLDI PROMOTORA DE VENDAS LTDA     0100003880000017124LUCIANA DO ESPIRITO SANTO ARAUJO   00LUCIANA DO ESPIRITO SANTO ARAUJO   LABCHECAP                          506842265084030223701200630000000000001931600000741580000731676000000000000000000000000000000000000000000000000000000000000000000000000000000000000000000000000000000000000000000710322200000000000000566388         000013503479000201J0000000000000000000000000000CONSULTOR DE VENDAS 20100719TNE100000000202006302020051119710322N0000000000
M001SOLDI PROMOTORA DE VENDAS LTDA     0100003880000017124LUCIANA DO ESPIRITO SANTO ARAUJO   00LUCIANA DO ESPIRITO SANTO ARAUJO   LABCHECAP                          506842265084030250401200630000000000001691600000741580000731676000000000000000000000000000000000000000000000000000000000000000000000000000000000000000000000000000000000000000000710322200000000000000496388         000013503479000201J0000000000000000000000000000CONSULTOR DE VENDAS 20100719TNE100000000202006302020051119710322N0000000000
M001SOLDI PROMOTORA DE VENDAS LTDA     0100004180000180010DANIELLE BARBOSA DUARTE            00DANIELLE BARBOSA DUARTE            HOSPITAL FELICIO ROCHO             206837657828423015001200616000000000262980000000741580000563072000000000000000000000000000000000000000000000000000000000000000000000000000000000000000000000000000000000000000000830513200000000000077000418         000017214149000176J0000000000000000000000000000CONSULTOR DE VENDAS 20111020TNE100000000202006162020050619830513N0000000000
M001SOLDI PROMOTORA DE VENDAS LTDA     0100004180000180010DANIELLE BARBOSA DUARTE            00DANIELLE BARBOSA DUARTE            COOPANEST/MG                       106837796841010101201200618000000000034151600000741580000135828000000000000000000000000000000000000000000000000000000000000000000000000000000000000000000000000000000000000000000830513200000000000010000418         000023908064000190J0000000000000000000000000000CONSULTOR DE VENDAS 20111020TNE100000000202006182020040619830513N0000000000
M001SOLDI PROMOTORA DE VENDAS LTDA     0100004180000180010DANIELLE BARBOSA DUARTE            00DANIELLE BARBOSA DUARTE            ONCOMED                            100177900561010101200200622000000000034151600000741580000231223000000000000000000000000000000000000000000000000000000000000000000000000000000000000000000000000000000000000000000830513200000000000010000418         000000132229000180J0000000000000000000000000000CONSULTOR DE VENDAS 20111020TNE100000000202006222020060319830513N0000000000
M001SOLDI PROMOTORA DE VENDAS LTDA     0100004180000180010DANIELLE BARBOSA DUARTE            00DANIELLE BARBOSA DUARTE            COOPANEST/MG                       206840725314020266601200626000000000162121600000741580000135828000000000000000000000000000000000000000000000000000000000000000000000000000000000000000000000000000000000000000000830513200000000000047469418         000023908064000190J0000000000000000000000000000CONSULTOR DE VENDAS 20111020TNE100000000202006262020050619830513N0000000000
M001SOLDI PROMOTORA DE VENDAS LTDA     0100004180000180010DANIELLE BARBOSA DUARTE            00DANIELLE BARBOSA DUARTE            LABORATORIO HERMES PARDINI         506841112174030188501200629000000000002041600000741580000343471000000000000000000000000000000000000000000000000000000000000000000000000000000000000000000000000000000000000000000830513200000000000000600418         000019378769002977J0000000000000000000000000000CONSULTOR DE VENDAS 20111020TNE100000000202006292020042019830513N0000000000
M001SOLDI PROMOTORA DE VENDAS LTDA     0100004180000180010DANIELLE BARBOSA DUARTE            00DANIELLE BARBOSA DUARTE            LABORATORIO HERMES PARDINI         506841112174030158301200629000000000002841600000741580000343471000000000000000000000000000000000000000000000000000000000000000000000000000000000000000000000000000000000000000000830513200000000000000833418         000019378769002977J0000000000000000000000000000CONSULTOR DE VENDAS 20111020TNE100000000202006292020042019830513N0000000000
M001SOLDI PROMOTORA DE VENDAS LTDA     0100004180000180010DANIELLE BARBOSA DUARTE            00DANIELLE BARBOSA DUARTE            LABORATORIO HERMES PARDINI         506841112174030159101200629000000000003401600000741580000343471000000000000000000000000000000000000000000000000000000000000000000000000000000000000000000000000000000000000000000830513200000000000000998418         000019378769002977J0000000000000000000000000000CONSULTOR DE VENDAS 20111020TNE100000000202006292020042019830513N0000000000
M001SOLDI PROMOTORA DE VENDAS LTDA     0100004180000180010DANIELLE BARBOSA DUARTE            00DANIELLE BARBOSA DUARTE            LABORATORIO HERMES PARDINI         506841112174030160501200629000000000001591600000741580000343471000000000000000000000000000000000000000000000000000000000000000000000000000000000000000000000000000000000000000000830513200000000000000466418         000019378769002977J0000000000000000000000000000CONSULTOR DE VENDAS 20111020TNE100000000202006292020042019830513N0000000000
M001SOLDI PROMOTORA DE VENDAS LTDA     0100004180000180010DANIELLE BARBOSA DUARTE            00DANIELLE BARBOSA DUARTE            LABORATORIO HERMES PARDINI         506841112174030163001200629000000000001591600000741580000343471000000000000000000000000000000000000000000000000000000000000000000000000000000000000000000000000000000000000000000830513200000000000000466418         000019378769002977J0000000000000000000000000000CONSULTOR DE VENDAS 20111020TNE100000000202006292020042019830513N0000000000
M001SOLDI PROMOTORA DE VENDAS LTDA     0100004180000180010DANIELLE BARBOSA DUARTE            00DANIELLE BARBOSA DUARTE            LABORATORIO HERMES PARDINI         506841112174030172901200629000000000003401600000741580000343471000000000000000000000000000000000000000000000000000000000000000000000000000000000000000000000000000000000000000000830513200000000000000998418         000019378769002977J0000000000000000000000000000CONSULTOR DE VENDAS 20111020TNE100000000202006292020042019830513N0000000000
M001SOLDI PROMOTORA DE VENDAS LTDA     0100004180000180010DANIELLE BARBOSA DUARTE            00DANIELLE BARBOSA DUARTE            LABORATORIO HERMES PARDINI         506841112174030199001200629000000000002271600000741580000343471000000000000000000000000000000000000000000000000000000000000000000000000000000000000000000000000000000000000000000830513200000000000000665418         000019378769002977J0000000000000000000000000000CONSULTOR DE VENDAS 20111020TNE100000000202006292020042019830513N0000000000
M001SOLDI PROMOTORA DE VENDAS LTDA     0100004180000180010DANIELLE BARBOSA DUARTE            00DANIELLE BARBOSA DUARTE            LABORATORIO HERMES PARDINI         506841112174030204001200629000000000001591600000741580000343471000000000000000000000000000000000000000000000000000000000000000000000000000000000000000000000000000000000000000000830513200000000000000466418         000019378769002977J0000000000000000000000000000CONSULTOR DE VENDAS 20111020TNE100000000202006292020042019830513N0000000000
M001SOLDI PROMOTORA DE VENDAS LTDA     0100004180000180010DANIELLE BARBOSA DUARTE            00DANIELLE BARBOSA DUARTE            LABORATORIO HERMES PARDINI         506841112174030250401200629000000000001591600000741580000343471000000000000000000000000000000000000000000000000000000000000000000000000000000000000000000000000000000000000000000830513200000000000000466418         000019378769002977J0000000000000000000000000000CONSULTOR DE VENDAS 20111020TNE100000000202006292020042019830513N0000000000
M001SOLDI PROMOTORA DE VENDAS LTDA     0100004180000180010DANIELLE BARBOSA DUARTE            00DANIELLE BARBOSA DUARTE            LABORATORIO HERMES PARDINI         506841112174030251201200629000000000001591600000741580000343471000000000000000000000000000000000000000000000000000000000000000000000000000000000000000000000000000000000000000000830513200000000000000466418         000019378769002977J0000000000000000000000000000CONSULTOR DE VENDAS 20111020TNE100000000202006292020042019830513N0000000000
M001SOLDI PROMOTORA DE VENDAS LTDA     0100004180000180010DANIELLE BARBOSA DUARTE            00DANIELLE BARBOSA DUARTE            LABORATORIO HERMES PARDINI         506841112174030254701200629000000000002271600000741580000343471000000000000000000000000000000000000000000000000000000000000000000000000000000000000000000000000000000000000000000830513200000000000000665418         000019378769002977J0000000000000000000000000000CONSULTOR DE VENDAS 20111020TNE100000000202006292020042019830513N0000000000
M001SOLDI PROMOTORA DE VENDAS LTDA     0100004180000180010DANIELLE BARBOSA DUARTE            00DANIELLE BARBOSA DUARTE            LABORATORIO HERMES PARDINI         506841112174030258001200629000000000001591600000741580000343471000000000000000000000000000000000000000000000000000000000000000000000000000000000000000000000000000000000000000000830513200000000000000466418         000019378769002977J0000000000000000000000000000CONSULTOR DE VENDAS 20111020TNE100000000202006292020042019830513N0000000000
M001SOLDI PROMOTORA DE VENDAS LTDA     0100004180000180010DANIELLE BARBOSA DUARTE            00DANIELLE BARBOSA DUARTE            LABORATORIO HERMES PARDINI         506841112174030269501200629000000000004541600000741580000343471000000000000000000000000000000000000000000000000000000000000000000000000000000000000000000000000000000000000000000830513200000000000001330418         000019378769002977J0000000000000000000000000000CONSULTOR DE VENDAS 20111020TNE100000000202006292020042019830513N0000000000
M001SOLDI PROMOTORA DE VENDAS LTDA     0100004180000180010DANIELLE BARBOSA DUARTE            00DANIELLE BARBOSA DUARTE            LABORATORIO HERMES PARDINI         506841112174030436101200629000000000003401600000741580000343471000000000000000000000000000000000000000000000000000000000000000000000000000000000000000000000000000000000000000000830513200000000000000998418         000019378769002977J0000000000000000000000000000CONSULTOR DE VENDAS 20111020TNE100000000202006292020042019830513N0000000000
M001SOLDI PROMOTORA DE VENDAS LTDA     0100004180000180010DANIELLE BARBOSA DUARTE            00DANIELLE BARBOSA DUARTE            LABORATORIO HERMES PARDINI         506841112174031612201200629000000000021581600000741580000343471000000000000000000000000000000000000000000000000000000000000000000000000000000000000000000000000000000000000000000830513200000000000006319418         000019378769002977J0000000000000000000000000000CONSULTOR DE VENDAS 20111020TNE100000000202006292020042019830513N0000000000
M001SOLDI PROMOTORA DE VENDAS LTDA     0100004180000180010DANIELLE BARBOSA DUARTE            00DANIELLE BARBOSA DUARTE            LABORATORIO HERMES PARDINI         506841112174031649101200629000000000009651600000741580000343471000000000000000000000000000000000000000000000000000000000000000000000000000000000000000000000000000000000000000000830513200000000000002826418         000019378769002977J0000000000000000000000000000CONSULTOR DE VENDAS 20111020TNE100000000202006292020042019830513N0000000000
M001SOLDI PROMOTORA DE VENDAS LTDA     0100004180000180010DANIELLE BARBOSA DUARTE            00DANIELLE BARBOSA DUARTE            LABORATORIO HERMES PARDINI         506841112174031652101200629000000000009651600000741580000343471000000000000000000000000000000000000000000000000000000000000000000000000000000000000000000000000000000000000000000830513200000000000002826418         000019378769002977J0000000000000000000000000000CONSULTOR DE VENDAS 20111020TNE100000000202006292020042019830513N0000000000
M001SOLDI PROMOTORA DE VENDAS LTDA     0100004340000018110MARIA LUCIA DA SILVA               01BERNARDO COELHO LIMA               CLINICA JOAO SILVA FILHO           100177025361010101200200609000000000034151600000741580000173002000000000000000000000000000000000000000000000000000000000000000000000000000000000000000000000000000000000000000000680211110000000000010000434         010008708092000170J0000000000000000000000000000CONSULTOR DE VENDAS 20101122TNE100000000202006092020051119680211N0000000000
M001SOLDI PROMOTORA DE VENDAS LTDA     0100004340000018110MARIA LUCIA DA SILVA               00MARIA LUCIA DA SILVA               CLINICA JOAO SILVA FILHO           191122630291010101200200609000000000034151600000741580000173002000000000000000000000000000000000000000000000000000000000000000000000000000000000000000000000000000000000000000000760306200000000000010000434         000008708092000170J0000000000000000000000000000CONSULTOR DE VENDAS 20101122TNE100000000202006092020050819760306N0000000000
M001SOLDI PROMOTORA DE VENDAS LTDA     0100004340000018110MARIA LUCIA DA SILVA               01BERNARDO COELHO LIMA               CLINICA JOAO SILVA FILHO           191124184401010101200200609000000000034151600000741580000173002000000000000000000000000000000000000000000000000000000000000000000000000000000000000000000000000000000000000000000680211110000000000010000434         010008708092000170J0000000000000000000000000000CONSULTOR DE VENDAS 20101122TNE100000000202006092020051219680211N0000000000
M001SOLDI PROMOTORA DE VENDAS LTDA     0100004340000018110MARIA LUCIA DA SILVA               01BERNARDO COELHO LIMA               CLINICA JOAO SILVA FILHO           100177025371010101200200609000000000034151600000741580000173002000000000000000000000000000000000000000000000000000000000000000000000000000000000000000000000000000000000000000000680211110000000000010000434         010008708092000170J0000000000000000000000000000CONSULTOR DE VENDAS 20101122TNE100000000202006092020051119680211N0000000000
M001SOLDI PROMOTORA DE VENDAS LTDA     0100005070008800211GLAUBER LARANJEIRA DO NASCIMENTO   03ARTHUR FERREIRA NASCIMENTO         GLAUBER LARANJEIRA DO NASCIMENTO   200035326265000008005200602000000000222001600000741580000000000000000000000000000000000000000000000000000000000000000000000000000000000000000000000000000000000000000000000000000170819129900000000065000507         030000000000000000 0000000000000000000000000000SUPERVISOR DE VENDAS20111002TNE100000000202006022020042320170819N0000065000
M001SOLDI PROMOTORA DE VENDAS LTDA     0100005070008800211GLAUBER LARANJEIRA DO NASCIMENTO   03ARTHUR FERREIRA NASCIMENTO         GLAUBER LARANJEIRA DO NASCIMENTO   200035326025000061612200602000000000573781600000741580000000000000000000000000000000000000000000000000000000000000000000000000000000000000000000000000000000000000000000000000000170819129900000000168000507         030000000000000000 0000000000000000000000000000SUPERVISOR DE VENDAS20111002TNE100000000202006022020040120170819N0000168000
M001SOLDI PROMOTORA DE VENDAS LTDA     0100005070008800211GLAUBER LARANJEIRA DO NASCIMENTO   03ARTHUR FERREIRA NASCIMENTO         GLAUBER LARANJEIRA DO NASCIMENTO   200035956345000047002200610000000000050041600000741580000000000000000000000000000000000000000000000000000000000000000000000000000000000000000000000000000000000000000000000000000170819129900000000014653507         030000000000000000 0000000000000000000000000000SUPERVISOR DE VENDAS20111002TNE100000000202006102020060120170819N0000900000
M001SOLDI PROMOTORA DE VENDAS LTDA     0100005070008800211GLAUBER LARANJEIRA DO NASCIMENTO   01AMELIA FATIMA FERREIRA NASCIMENTO  SERGIO AUGUSTO PENAZZI JUNIOR      101231340391010101200200612000000000034151600000741580011033500000000000000000000000000000000000000000000000000000000000000000000000000000000000000000000000000000000000000000000881003211100000000010000507         010000050434780472F0000000000000000000000000000SUPERVISOR DE VENDAS20111002TNE100000000202006122020052519881003N0000000000
M001SOLDI PROMOTORA DE VENDAS LTDA     0100005070008800211GLAUBER LARANJEIRA DO NASCIMENTO   03ARTHUR FERREIRA NASCIMENTO         GLAUBER LARANJEIRA DO NASCIMENTO   200036090775000008008200615000000000355201600000741580000000000000000000000000000000000000000000000000000000000000000000000000000000000000000000000000000000000000000000000000000170819129900000000104000507         030000000000000000 0000000000000000000000000000SUPERVISOR DE VENDAS20111002TNE100000000202006152020050420170819N0000104000
M001SOLDI PROMOTORA DE VENDAS LTDA     0100005070008800211GLAUBER LARANJEIRA DO NASCIMENTO   03ARTHUR FERREIRA NASCIMENTO         GLAUBER LARANJEIRA DO NASCIMENTO   200036316783401999502200617000000003023810000000741580000000000000000000000000000000000000000000000000000000000000000000000000000000000000000000000000000000000000000000000000000170819129900000000885347507         030000000000000000 0000000000000000000000000000SUPERVISOR DE VENDAS20111002TNE100000000202006172020060120170819N0000900000
M001SOLDI PROMOTORA DE VENDAS LTDA     0100005070008800211GLAUBER LARANJEIRA DO NASCIMENTO   03ARTHUR FERREIRA NASCIMENTO         GLAUBER LARANJEIRA DO NASCIMENTO   200037009033401999512200625000000000737720000000741580000000000000000000000000000000000000000000000000000000000000000000000000000000000000000000000000000000000000000000000000000170819129900000000216000507         030000000000000000 0000000000000000000000000000SUPERVISOR DE VENDAS20111002TNE100000000202006252020050520170819N0000216000
M001SOLDI PROMOTORA DE VENDAS LTDA     0100005070008800211GLAUBER LARANJEIRA DO NASCIMENTO   03ARTHUR FERREIRA NASCIMENTO         GLAUBER LARANJEIRA DO NASCIMENTO   200037009023401999508200625000000000491810000000741580000000000000000000000000000000000000000000000000000000000000000000000000000000000000000000000000000000000000000000000000000170819129900000000144000507         030000000000000000 0000000000000000000000000000SUPERVISOR DE VENDAS20111002TNE100000000202006252020050520170819N0000144000
M001SOLDI PROMOTORA DE VENDAS LTDA     0100005740008800592ALINIR PEREIRA DE ALMEIDA          01MAGNO ALEXANDRE SANTOS PAVAO       HOSPITAL DAS CLINICAS              206838150048400042201200619000000000061470000000741580000257311000000000000000000000000000000000000000000000000000000000000000000000000000000000000000000000000000000000000000000730826110000000000018000574         010084715051000190J0000000000000000000000000000CONSULTOR DE VENDAS 20120206TNE100000000202006192020041719730826N0000000000
M001SOLDI PROMOTORA DE VENDAS LTDA     0100005740008800592ALINIR PEREIRA DE ALMEIDA          01MAGNO ALEXANDRE SANTOS PAVAO       HOSPITAL CENTRAL                   106841780911010103901200630000000000032441600000741580000114812000000000000000000000000000000000000000000000000000000000000000000000000000000000000000000000000000000000000000000730826110000000000009500574         010015895196000105J0000000000000000000000000000CONSULTOR DE VENDAS 20120206TNE100000000202006302020040919730826N0000000000
M001SOLDI PROMOTORA DE VENDAS LTDA     0100005740008800592ALINIR PEREIRA DE ALMEIDA          01MAGNO ALEXANDRE SANTOS PAVAO       HOSPITAL CENTRAL                   106841781151010103901200630000000000032441600000741580000114812000000000000000000000000000000000000000000000000000000000000000000000000000000000000000000000000000000000000000000730826110000000000009500574         010015895196000105J0000000000000000000000000000CONSULTOR DE VENDAS 20120206TNE100000000202006302020041819730826N0000000000
M001SOLDI PROMOTORA DE VENDAS LTDA     0100005740008800592ALINIR PEREIRA DE ALMEIDA          01MAGNO ALEXANDRE SANTOS PAVAO       HOSPITAL CENTRAL                   206841781153401999501200630000000000024530000000741580000114812000000000000000000000000000000000000000000000000000000000000000000000000000000000000000000000000000000000000000000730826110000000000007185574         010015895196000105J0000000000000000000000000000CONSULTOR DE VENDAS 20120206TNE100000000202006302020041819730826N0000000000
M001SOLDI PROMOTORA DE VENDAS LTDA     0100005740008800592ALINIR PEREIRA DE ALMEIDA          01MAGNO ALEXANDRE SANTOS PAVAO       HOSPITAL CENTRAL                   206841781153401999101200630000000000051320000000741580000114812000000000000000000000000000000000000000000000000000000000000000000000000000000000000000000000000000000000000000000730826110000000000015027574         010015895196000105J0000000000000000000000000000CONSULTOR DE VENDAS 20120206TNE100000000202006302020041819730826N0000000000
M001SOLDI PROMOTORA DE VENDAS LTDA     0100005740008800592ALINIR PEREIRA DE ALMEIDA          01MAGNO ALEXANDRE SANTOS PAVAO       HOSPITAL CENTRAL                   206841781153401999201200630000000000014990000000741580000114812000000000000000000000000000000000000000000000000000000000000000000000000000000000000000000000000000000000000000000730826110000000000004389574         010015895196000105J0000000000000000000000000000CONSULTOR DE VENDAS 20120206TNE100000000202006302020041819730826N0000000000
M001SOLDI PROMOTORA DE VENDAS LTDA     0100005740008800592ALINIR PEREIRA DE ALMEIDA          01MAGNO ALEXANDRE SANTOS PAVAO       HOSPITAL CENTRAL                   206841780913401999501200630000000000000400000000741580000114812000000000000000000000000000000000000000000000000000000000000000000000000000000000000000000000000000000000000000000730826110000000000000120574         010015895196000105J0000000000000000000000000000CONSULTOR DE VENDAS 20120206TNE100000000202006302020040919730826N0000000000
M001SOLDI PROMOTORA DE VENDAS LTDA     0100005740008800592ALINIR PEREIRA DE ALMEIDA          01MAGNO ALEXANDRE SANTOS PAVAO       HOSPITAL CENTRAL                   206841780913401999101200630000000000020000000000741580000114812000000000000000000000000000000000000000000000000000000000000000000000000000000000000000000000000000000000000000000730826110000000000005858574         010015895196000105J0000000000000000000000000000CONSULTOR DE VENDAS 20120206TNE100000000202006302020040919730826N0000000000
M001SOLDI PROMOTORA DE VENDAS LTDA     0100005740008800592ALINIR PEREIRA DE ALMEIDA          01MAGNO ALEXANDRE SANTOS PAVAO       HOSPITAL CENTRAL                   206841780913401999201200630000000000005200000000741580000114812000000000000000000000000000000000000000000000000000000000000000000000000000000000000000000000000000000000000000000730826110000000000001523574         010015895196000105J0000000000000000000000000000CONSULTOR DE VENDAS 20120206TNE100000000202006302020040919730826N0000000000
M001SOLDI PROMOTORA DE VENDAS LTDA     0100006630000880061JESSICA LUISE TEXEIRA DE OLIVEIRA  00JESSICA LUISE TEXEIRA DE OLIVEIRA  KR MEDICINA INTERNA                100176552921010101200200604000000000034151600000741580000476402000000000000000000000000000000000000000000000000000000000000000000000000000000000000000000000000000000000000000000900822100000000000010000663         000009601893000103J0000000000000000000000000000CONSULTOR DE VENDAS 20111103TNE100000000202006042020050619900822N0000000000
M001SOLDI PROMOTORA DE VENDAS LTDA     0100007280008800615ADEMAR LEANDRO RIBEIRO SANTOS      00ADEMAR LEANDRO RIBEIRO SANTOS      INSTITUTO CRISTAO DE CARDIOLOGIA   100176436771010101200200603000000000034151600000741580000991996000000000000000000000000000000000000000000000000000000000000000000000000000000000000000000000000000000000000000000771018200000000000010000728         000006341180000151J0000000000000000000000000000CONSULTOR DE VENDAS 20121217TNE100000000202006032020051819771018N0000000000
M001SOLDI PROMOTORA DE VENDAS LTDA     0100007280008800615ADEMAR LEANDRO RIBEIRO SANTOS      00ADEMAR LEANDRO RIBEIRO SANTOS      HOSP ESCOLA S CAMILO S LUIS        206833972763401999201200608000000000009270000000741580000072010000000000000000000000000000000000000000000000000000000000000000000000000000000000000000000000000000000000000000000771018200000000000002716728         000060975737000909J0000000000000000000000000000CONSULTOR DE VENDAS 20121217TNE100000000202006082020032919771018N0000000000
M001SOLDI PROMOTORA DE VENDAS LTDA     0100007280008800615ADEMAR LEANDRO RIBEIRO SANTOS      00ADEMAR LEANDRO RIBEIRO SANTOS      HOSP ESCOLA S CAMILO S LUIS        206833972763401999501200608000000000036960000000741580000072010000000000000000000000000000000000000000000000000000000000000000000000000000000000000000000000000000000000000000000771018200000000000010823728         000060975737000909J0000000000000000000000000000CONSULTOR DE VENDAS 20121217TNE100000000202006082020032919771018N0000000000
M001SOLDI PROMOTORA DE VENDAS LTDA     0100007280008800615ADEMAR LEANDRO RIBEIRO SANTOS      00ADEMAR LEANDRO RIBEIRO SANTOS      HOSP ESCOLA S CAMILO S LUIS        206833972763401999101200608000000000001950000000741580000072010000000000000000000000000000000000000000000000000000000000000000000000000000000000000000000000000000000000000000000771018200000000000000573728         000060975737000909J0000000000000000000000000000CONSULTOR DE VENDAS 20121217TNE100000000202006082020032919771018N0000000000
M001SOLDI PROMOTORA DE VENDAS LTDA     0100007280008800615ADEMAR LEANDRO RIBEIRO SANTOS      00ADEMAR LEANDRO RIBEIRO SANTOS      HOSP ESCOLA S CAMILO S LUIS        106833972761010103901200608000000000042691600000741580000072010000000000000000000000000000000000000000000000000000000000000000000000000000000000000000000000000000000000000000000771018200000000000012500728         000060975737000909J0000000000000000000000000000CONSULTOR DE VENDAS 20121217TNE100000000202006082020032919771018N0000000000
M001SOLDI PROMOTORA DE VENDAS LTDA     0100007600008800624OZEAS BEZERRA BARROSO              01LUIZA CLEIDIANE BEZERRA DE LIMA    REAMO BEIKE                        206834090275000047001200608000000000014501600000741580000310402000000000000000000000000000000000000000000000000000000000000000000000000000000000000000000000000000000000000000000870710210000000000004246760         010012593453000158J0000000000000000000000000000GERENTE REGIONAL DE 20130304TNQ200000000202006082020020319870710N0000000000
M001SOLDI PROMOTORA DE VENDAS LTDA     0100007600008800624OZEAS BEZERRA BARROSO              01LUIZA CLEIDIANE BEZERRA DE LIMA    REAMO BEIKE                        206834090275000047001200608000000000014501600000741580000310402000000000000000000000000000000000000000000000000000000000000000000000000000000000000000000000000000000000000000000870710210000000000004246760         010012593453000158J0000000000000000000000000000GERENTE REGIONAL DE 20130304TNQ200000000202006082020020319870710N0000000000
M001SOLDI PROMOTORA DE VENDAS LTDA     0100007600008800624OZEAS BEZERRA BARROSO              01LUIZA CLEIDIANE BEZERRA DE LIMA    REAMO BEIKE                        206834090275000047001200608000000000014501600000741580000310402000000000000000000000000000000000000000000000000000000000000000000000000000000000000000000000000000000000000000000870710210000000000004246760         010012593453000158J0000000000000000000000000000GERENTE REGIONAL DE 20130304TNQ200000000202006082020020319870710N0000000000
M001SOLDI PROMOTORA DE VENDAS LTDA     0100007600008800624OZEAS BEZERRA BARROSO              01LUIZA CLEIDIANE BEZERRA DE LIMA    REAMO BEIKE                        206834090275000047001200608000000000014501600000741580000310402000000000000000000000000000000000000000000000000000000000000000000000000000000000000000000000000000000000000000000870710210000000000004246760         010012593453000158J0000000000000000000000000000GERENTE REGIONAL DE 20130304TNQ200000000202006082020020319870710N0000000000
M001SOLDI PROMOTORA DE VENDAS LTDA     0100007600008800624OZEAS BEZERRA BARROSO              01LUIZA CLEIDIANE BEZERRA DE LIMA    REAMO BEIKE                        206834090275000047001200608000000000014501600000741580000310402000000000000000000000000000000000000000000000000000000000000000000000000000000000000000000000000000000000000000000870710210000000000004246760         010012593453000158J0000000000000000000000000000GERENTE REGIONAL DE 20130304TNQ200000000202006082020020319870710N0000000000
M001SOLDI PROMOTORA DE VENDAS LTDA     0100008250008800630JANAINA SILVA LEITE                02MARIA EDUARDA LEITE SANTOS         A E M SERVICOS MEDICOS             100178613351010101200200629000000000034151600000741580000326895000000000000000000000000000000000000000000000000000000000000000000000000000000000000000000000000000000000000000000030705220000000000010000825         020004011033000198J0000000000000000000000000000CONSULTOR DE VENDAS 20130506TNE100000000202006292020061220030705N0000000000
M001SOLDI PROMOTORA DE VENDAS LTDA     0100008250008800630JANAINA SILVA LEITE                00JANAINA SILVA LEITE                A E M SERVICOS MEDICOS             100178613341010101200200629000000000034151600000741580000326895000000000000000000000000000000000000000000000000000000000000000000000000000000000000000000000000000000000000000000800425200000000000010000825         000004011033000198J0000000000000000000000000000CONSULTOR DE VENDAS 20130506TNE100000000202006292020061219800425N0000000000
M001SOLDI PROMOTORA DE VENDAS LTDA     0100008500008800644VERONICA DE SOUZA BARROS SILVA     01MANUEL FRANCISCO BARROS SILVA      HOSPITAL ALBERT SABIN              100177691541010101200200616000000000034151600000741580000582402000000000000000000000000000000000000000000000000000000000000000000000000000000000000000000000000000000000000000000661225110000000000010000850         010062996640000150J0000000000000000000000000000AUXILIAR DE SERVICOS20130701TNE100000000202006162020052919661225N0000000000
M001SOLDI PROMOTORA DE VENDAS LTDA     0100008500008800644VERONICA DE SOUZA BARROS SILVA     00VERONICA DE SOUZA BARROS SILVA     HOSPITAL ALBERT SABIN              206842499688400040601200630000000000095990000000741580000146110000000000000000000000000000000000000000000000000000000000000000000000000000000000000000000000000000000000000000000760616200000000000028107850         000062996640000150J0000000000000000000000000000AUXILIAR DE SERVICOS20130701TNE100000000202006302020051419760616N0000000000
M001SOLDI PROMOTORA DE VENDAS LTDA     0100009060008800647MARY ANNE CAVALCANTE SOARES        00MARY ANNE CAVALCANTE SOARES        HOSP ADVENTISTA DE MANAUS          206837148898400040601200616000000000169440000000741580000128511000000000000000000000000000000000000000000000000000000000000000000000000000000000000000000000000000000000000000000790925200000000000049613906         000083367342000767J0000000000000000000000000000CONSULTOR DE VENDAS 20130805TNE100000000202006162020042719790925N0000000000
M001SOLDI PROMOTORA DE VENDAS LTDA     0100009060008800647MARY ANNE CAVALCANTE SOARES        00MARY ANNE CAVALCANTE SOARES        HOSP ADVENTISTA DE MANAUS          206840260298400040601200625000000000169440000000741580000128511000000000000000000000000000000000000000000000000000000000000000000000000000000000000000000000000000000000000000000790925200000000000049613906         000083367342000767J0000000000000000000000000000CONSULTOR DE VENDAS 20130805TNE100000000202006252020050419790925N0000000000
M001SOLDI PROMOTORA DE VENDAS LTDA     0100009140008800648TATIANA DE SOUZA BRITTO            00TATIANA DE SOUZA BRITTO            CAM CLIN DE ASSIST A MULHER        506834293954090111401200608000000000029241600000741580000324035000000000000000000000000000000000000000000000000000000000000000000000000000000000000000000000000000000000000000000800830200000000000008562914         000014526487000155J0000000000000000000000000000CONSULTOR DE VENDAS 20130805TNE100000000202006082020042219800830N0000000000
M001SOLDI PROMOTORA DE VENDAS LTDA     0100009140008800648TATIANA DE SOUZA BRITTO            00TATIANA DE SOUZA BRITTO            CAM CLIN DE ASSIST A MULHER        506836903414090111401200615000000000029241600000741580000324035000000000000000000000000000000000000000000000000000000000000000000000000000000000000000000000000000000000000000000800830200000000000008562914         000014526487000155J0000000000000000000000000000CONSULTOR DE VENDAS 20130805TNE100000000202006152020042919800830N0000000000
M001SOLDI PROMOTORA DE VENDAS LTDA     0100009140008800648TATIANA DE SOUZA BRITTO            00TATIANA DE SOUZA BRITTO            CAM CLIN DE ASSIST A MULHER        206836903413401999501200615000000000005490000000741580000324035000000000000000000000000000000000000000000000000000000000000000000000000000000000000000000000000000000000000000000800830200000000000001609914         000014526487000155J0000000000000000000000000000CONSULTOR DE VENDAS 20130805TNE100000000202006152020042919800830N0000000000
M001SOLDI PROMOTORA DE VENDAS LTDA     0100009140008800648TATIANA DE SOUZA BRITTO            00TATIANA DE SOUZA BRITTO            CAM CLIN DE ASSIST A MULHER        606836903414080823801200615000000000070881600000741580000324035000000000000000000000000000000000000000000000000000000000000000000000000000000000000000000000000000000000000000000800830200000000000020754914         000014526487000155J0000000000000000000000000000CONSULTOR DE VENDAS 20130805TNE100000000202006152020042919800830N0000000000
M001SOLDI PROMOTORA DE VENDAS LTDA     0100009140008800648TATIANA DE SOUZA BRITTO            00TATIANA DE SOUZA BRITTO            CAM CLIN DE ASSIST A MULHER        506836902994060119601200615000000000048111600000741580000324035000000000000000000000000000000000000000000000000000000000000000000000000000000000000000000000000000000000000000000800830200000000000014087914         000014526487000155J0000000000000000000000000000CONSULTOR DE VENDAS 20130805TNE100000000202006152020042919800830N0000000000
M001SOLDI PROMOTORA DE VENDAS LTDA     0100009900008800660CAMILLA ARAUJO                     00CAMILLA ARAUJO                     UPDATE                             100176314761010101200200601000000000034151600000741580000882127000000000000000000000000000000000000000000000000000000000000000000000000000000000000000000000000000000000000000000890831200000000000010000990         000002766875000124J0000000000000000000000000000CONSULTOR DE VENDAS 20131104TNE100000000202006012020042319890831N0000000000
M001SOLDI PROMOTORA DE VENDAS LTDA     0100009900008800660CAMILLA ARAUJO                     00CAMILLA ARAUJO                     UPDATE                             506833842814020125201200605000000000045271600000741580000882127000000000000000000000000000000000000000000000000000000000000000000000000000000000000000000000000000000000000000000890831200000000000013257990         000002766875000124J0000000000000000000000000000CONSULTOR DE VENDAS 20131104TNE100000000202006052020042319890831N0000000000
M001SOLDI PROMOTORA DE VENDAS LTDA     0100009900008800660CAMILLA ARAUJO                     00CAMILLA ARAUJO                     INST DE RADIOLOGIA DE NATAL        606838824074100107901200619000000000098981600000741580000807435000000000000000000000000000000000000000000000000000000000000000000000000000000000000000000000000000000000000000000890831200000000000028981990         000008419947000143J0000000000000000000000000000CONSULTOR DE VENDAS 20131104TNE100000000202006192020042319890831N0000000000
M001SOLDI PROMOTORA DE VENDAS LTDA     0100010230008800664ADRIANA CERQUEIRA DE ARAUJO        00ADRIANA CERQUEIRA DE ARAUJO        HOSPITAL OTOCLINICA                2064404602084000414012006260000000000539800000007415800001822140000000000000000000000000000000000000000000000000000000000000000000000000000000000000000000000000000000000000000007812232000000000000158061023        000023443518000103J0000000000000000000000000000COORDENADOR DE AREA 20131211TNE100000000202006262018112919781223N0000000000
M001SOLDI PROMOTORA DE VENDAS LTDA     0100010660008800669ANA NAJARA BOMFIM VIEIRA           01SARAH POLYANNA BONFIM ALVES        CLINIAFAGU                         1001778524410101012002006180000000000341516000007415800009471990000000000000000000000000000000000000000000000000000000000000000000000000000000000000000000000000000000000000000009902252200000000000100001066        010011263034000195J0000000000000000000000000000SUPERVISOR DE VENDAS20140106TNE100000000202006182020051419990225N0000000000
M001SOLDI PROMOTORA DE VENDAS LTDA     0100010660008800669ANA NAJARA BOMFIM VIEIRA           00ANA NAJARA BOMFIM VIEIRA           CLINIAFAGU                         1911294661810101012002006180000000000341516000007415800009471990000000000000000000000000000000000000000000000000000000000000000000000000000000000000000000000000000000000000000008407022000000000000100001066        000011263034000195J0000000000000000000000000000SUPERVISOR DE VENDAS20140106TNE100000000202006182020052119840702N0000000000
M001SOLDI PROMOTORA DE VENDAS LTDA     0100010660008800669ANA NAJARA BOMFIM VIEIRA           03PEDRO RIQUELME BOMFIM RICARTE      CLINIAFAGU                         1011278388710101012002006180000000000341516000007415800009471990000000000000000000000000000000000000000000000000000000000000000000000000000000000000000000000000000000000000000000605311200000000000100001066        030011263034000195J0000000000000000000000000000SUPERVISOR DE VENDAS20140106TNE100000000202006182020051920060531N0000000000
M001SOLDI PROMOTORA DE VENDAS LTDA     0100010660008800669ANA NAJARA BOMFIM VIEIRA           01SARAH POLYANNA BONFIM ALVES        CLINICA DE OLHOS DO CARIRI         1068329552410101012012006240000000000341516000007415800007281020000000000000000000000000000000000000000000000000000000000000000000000000000000000000000000000000000000000000000009902252200000000000100001066        010007977036000179J0000000000000000000000000000SUPERVISOR DE VENDAS20140106TNE100000000202006242020020619990225N0000000000
M001SOLDI PROMOTORA DE VENDAS LTDA     0100010660008800669ANA NAJARA BOMFIM VIEIRA           01SARAH POLYANNA BONFIM ALVES        CLINICA DE OLHOS DO CARIRI         5068329552441301200012006240000000000070316000007415800007281020000000000000000000000000000000000000000000000000000000000000000000000000000000000000000000000000000000000000000009902252200000000000020601066        010007977036000179J0000000000000000000000000000SUPERVISOR DE VENDAS20140106TNE100000000202006242020020619990225N0000000000
M001SOLDI PROMOTORA DE VENDAS LTDA     0100010660008800669ANA NAJARA BOMFIM VIEIRA           01SARAH POLYANNA BONFIM ALVES        CLINICA DE OLHOS DO CARIRI         5068329552441301323012006240000000000041416000007415800007281020000000000000000000000000000000000000000000000000000000000000000000000000000000000000000000000000000000000000000009902252200000000000012151066        010007977036000179J0000000000000000000000000000SUPERVISOR DE VENDAS20140106TNE100000000202006242020020619990225N0000000000
M001SOLDI PROMOTORA DE VENDAS LTDA     0100010660008800669ANA NAJARA BOMFIM VIEIRA           01SARAH POLYANNA BONFIM ALVES        CLINICA DE OLHOS DO CARIRI         5068329552441301250022006240000000000166116000007415800007281020000000000000000000000000000000000000000000000000000000000000000000000000000000000000000000000000000000000000000009902252200000000000048641066        010007977036000179J0000000000000000000000000000SUPERVISOR DE VENDAS20140106TNE100000000202006242020020619990225N0000000000
M001SOLDI PROMOTORA DE VENDAS LTDA     0100010660008800669ANA NAJARA BOMFIM VIEIRA           02ANA BEATRIZ BONFIM RICARTE         CLINICA DE OLHOS DO CARIRI         5067968588741301250012006260000000000166116000007415800007281020000000000000000000000000000000000000000000000000000000000000000000000000000000000000000000000000000000000000000000304292200000000000048641066        020007977036000179J0000000000000000000000000000SUPERVISOR DE VENDAS20140106TNE100000000202006262020013020030429N0000000000
M001SOLDI PROMOTORA DE VENDAS LTDA     0100010660008800669ANA NAJARA BOMFIM VIEIRA           02ANA BEATRIZ BONFIM RICARTE         CLINICA DE OLHOS DO CARIRI         5067968588741301200012006260000000000070316000007415800007281020000000000000000000000000000000000000000000000000000000000000000000000000000000000000000000000000000000000000000000304292200000000000020601066        020007977036000179J0000000000000000000000000000SUPERVISOR DE VENDAS20140106TNE100000000202006262020013020030429N0000000000
M001SOLDI PROMOTORA DE VENDAS LTDA     0100010660008800669ANA NAJARA BOMFIM VIEIRA           03PEDRO RIQUELME BOMFIM RICARTE      CLINICA DE OLHOS DO CARIRI         5067968588841301323012006260000000000041416000007415800007281020000000000000000000000000000000000000000000000000000000000000000000000000000000000000000000000000000000000000000000605311200000000000012151066        030007977036000179J0000000000000000000000000000SUPERVISOR DE VENDAS20140106TNE100000000202006262020013020060531N0000000000
M001SOLDI PROMOTORA DE VENDAS LTDA     0100010660008800669ANA NAJARA BOMFIM VIEIRA           02ANA BEATRIZ BONFIM RICARTE         CLINICA DE OLHOS DO CARIRI         5067968588741301323012006260000000000041416000007415800007281020000000000000000000000000000000000000000000000000000000000000000000000000000000000000000000000000000000000000000000304292200000000000012151066        020007977036000179J0000000000000000000000000000SUPERVISOR DE VENDAS20140106TNE100000000202006262020013020030429N0000000000
M001SOLDI PROMOTORA DE VENDAS LTDA     0100010660008800669ANA NAJARA BOMFIM VIEIRA           03PEDRO RIQUELME BOMFIM RICARTE      CLINICA DE OLHOS DO CARIRI         5067968588841301250012006260000000000166116000007415800007281020000000000000000000000000000000000000000000000000000000000000000000000000000000000000000000000000000000000000000000605311200000000000048641066        030007977036000179J0000000000000000000000000000SUPERVISOR DE VENDAS20140106TNE100000000202006262020013020060531N0000000000
M001SOLDI PROMOTORA DE VENDAS LTDA     0100010660008800669ANA NAJARA BOMFIM VIEIRA           03PEDRO RIQUELME BOMFIM RICARTE      CLINICA DE OLHOS DO CARIRI         5067968588841301200012006260000000000070316000007415800007281020000000000000000000000000000000000000000000000000000000000000000000000000000000000000000000000000000000000000000000605311200000000000020601066        030007977036000179J0000000000000000000000000000SUPERVISOR DE VENDAS20140106TNE100000000202006262020013020060531N0000000000
M001SOLDI PROMOTORA DE VENDAS LTDA     0100012280008800688ANGELA MARTINS ALVES               04DAVI ALVES VITAGLIANO              SARA SAUDE                         2068379931350000470012006190000000000145016000007415800001193020000000000000000000000000000000000000000000000000000000000000000000000000000000000000000000000000000000000000000001501191200000000000042461228        040017367718000113J0000000000000000000000000000CONSULTOR DE VENDAS 20140415TNE100000000202006192020042820150119N0000000000
M001SOLDI PROMOTORA DE VENDAS LTDA     0100012280008800688ANGELA MARTINS ALVES               04DAVI ALVES VITAGLIANO              SARA SAUDE                         2068379931350000470012006190000000000145016000007415800001193020000000000000000000000000000000000000000000000000000000000000000000000000000000000000000000000000000000000000000001501191200000000000042461228        040017367718000113J0000000000000000000000000000CONSULTOR DE VENDAS 20140415TNE100000000202006192020042820150119N0000000000
M001SOLDI PROMOTORA DE VENDAS LTDA     0100012280008800688ANGELA MARTINS ALVES               04DAVI ALVES VITAGLIANO              SARA SAUDE                         2068379931350000470012006190000000000145016000007415800001193020000000000000000000000000000000000000000000000000000000000000000000000000000000000000000000000000000000000000000001501191200000000000042461228        040017367718000113J0000000000000000000000000000CONSULTOR DE VENDAS 20140415TNE100000000202006192020042820150119N0000000000
M001SOLDI PROMOTORA DE VENDAS LTDA     0100012280008800688ANGELA MARTINS ALVES               04DAVI ALVES VITAGLIANO              SARA SAUDE                         2068379931350000470012006190000000000145016000007415800001193020000000000000000000000000000000000000000000000000000000000000000000000000000000000000000000000000000000000000000001501191200000000000042461228        040017367718000113J0000000000000000000000000000CONSULTOR DE VENDAS 20140415TNE100000000202006192020042820150119N0000000000
M001SOLDI PROMOTORA DE VENDAS LTDA     0100013090008800694BEATRIZ DOS SANTOS NUNES           00BEATRIZ DOS SANTOS NUNES           COTRAUMA                           1919785285210101012002006170000000000341516000007415800004189940000000000000000000000000000000000000000000000000000000000000000000000000000000000000000000000000000000000000000008804042000000000000100001309        000035124726000200J0000000000000000000000000000CONSULTOR DE VENDAS 20140520TNQ200000000202006172020051819880404N0000000000
M001SOLDI PROMOTORA DE VENDAS LTDA     0100013090008800694BEATRIZ DOS SANTOS NUNES           02FLAVIO ROGERIO SILVA PENHA         HOSPITAL SAO DOMINGOS              2068378886684000406012006190000000001422300000007415800000599190000000000000000000000000000000000000000000000000000000000000000000000000000000000000000000000000000000000000000008809151100000000000416451309        020011006293000130J0000000000000000000000000000CONSULTOR DE VENDAS 20140520TNQ200000000202006192020042419880915N0000000000
M001SOLDI PROMOTORA DE VENDAS LTDA     0100013760008800699VANIA BORGES DA SILVA              01ANA LUIZA BORGES FURTADO           HOSPITAL DA CRIANCA                1068344385510101039012006090000000000421816000007415800000326110000000000000000000000000000000000000000000000000000000000000000000000000000000000000000000000000000000000000000001804022200000000000123501376        010001407360000175J0000000000000000000000000000AUXILIAR DE SERVICOS20140603TNE100000000202006092020041920180402N0000000000
M001SOLDI PROMOTORA DE VENDAS LTDA     0100013920008800700NARA NUBIA COELHO DE SOUZA         01ERBERT FRANCISCO PEREIRA           CENTRO CLINICO MOVIMENTO           2068329567020103484012006040000000000037816000007415800007319430000000000000000000000000000000000000000000000000000000000000000000000000000000000000000000000000000000000000000008006121100000000000011081392        010012195523000110J0000000000000000000000000000SUPERVISOR DE VENDAS20140610TNE100000000202006042020041619800612N0000000000
M001SOLDI PROMOTORA DE VENDAS LTDA     0100013920008800700NARA NUBIA COELHO DE SOUZA         01ERBERT FRANCISCO PEREIRA           CENTRO CLINICO MOVIMENTO           2068329567220103484012006040000000000037816000007415800007319430000000000000000000000000000000000000000000000000000000000000000000000000000000000000000000000000000000000000000008006121100000000000011081392        010012195523000110J0000000000000000000000000000SUPERVISOR DE VENDAS20140610TNE100000000202006042020041719800612N0000000000
M001SOLDI PROMOTORA DE VENDAS LTDA     0100013920008800700NARA NUBIA COELHO DE SOUZA         01ERBERT FRANCISCO PEREIRA           CENTRO CLINICO MOVIMENTO           1068329566250000144012006150000000000153116000007415800007319430000000000000000000000000000000000000000000000000000000000000000000000000000000000000000000000000000000000000000008006121100000000000044851392        010012195523000110J0000000000000000000000000000SUPERVISOR DE VENDAS20140610TNE100000000202006152020041519800612N0000000000
M001SOLDI PROMOTORA DE VENDAS LTDA     0100013920008800700NARA NUBIA COELHO DE SOUZA         01ERBERT FRANCISCO PEREIRA           CENTRO CLINICO MOVIMENTO           2068329566220103484012006150000000000037816000007415800007319430000000000000000000000000000000000000000000000000000000000000000000000000000000000000000000000000000000000000000008006121100000000000011081392        010012195523000110J0000000000000000000000000000SUPERVISOR DE VENDAS20140610TNE100000000202006152020041519800612N0000000000
M001SOLDI PROMOTORA DE VENDAS LTDA     0100014570008800705ROSANA RODRIGUES GUIMARAES         00ROSANA RODRIGUES GUIMARAES         NUCLEO DE PNEUMO E MED DO SONO DE T1001765672410101012002006040000000000341516000007415800008779990000000000000000000000000000000000000000000000000000000000000000000000000000000000000000000000000000000000000000006812282000000000000100001457        000004024440000130J0000000000000000000000000000SUPERVISOR DE VENDAS20140708TNE100000000202006042020052019681228N0000000000
M001SOLDI PROMOTORA DE VENDAS LTDA     0100014570008800705ROSANA RODRIGUES GUIMARAES         00ROSANA RODRIGUES GUIMARAES         CENTRO CLINICO CARDIO MEDICI       1911094127810101012002006120000000000341516000007415800001659020000000000000000000000000000000000000000000000000000000000000000000000000000000000000000000000000000000000000000006812282000000000000100001457        000004330537000170J0000000000000000000000000000SUPERVISOR DE VENDAS20140708TNE100000000202006122020052819681228N0000000000
M001SOLDI PROMOTORA DE VENDAS LTDA     0100014570008800705ROSANA RODRIGUES GUIMARAES         00ROSANA RODRIGUES GUIMARAES         HOSPITAL SANTA MARTA               1010592814810101012002006170000000000341516000007415800006168020000000000000000000000000000000000000000000000000000000000000000000000000000000000000000000000000000000000000000006812282000000000000100001457        000000610980000144J0000000000000000000000000000SUPERVISOR DE VENDAS20140708TNE100000000202006172020060419681228N0000000000
M001SOLDI PROMOTORA DE VENDAS LTDA     0100014570008800705ROSANA RODRIGUES GUIMARAES         01RODRIGO GUIMARAES SILVA            COOPANEST DF                       4   EZML7R330715369002006190000000000378116000007415800007262220000000000000000000000000000000000000000000000000000000000000000000000000000000000000000000000000000000000000000000003031200000000000110721457        010024905234000146J0000000000000000000000000000SUPERVISOR DE VENDAS20140708TNE100000000202006192019091020000303N0000000000
M001SOLDI PROMOTORA DE VENDAS LTDA     0100014570008800705ROSANA RODRIGUES GUIMARAES         00ROSANA RODRIGUES GUIMARAES         HOSPITAL DE OLHOS DO GAMA          2068407016084500735012006250000000000768400000007415800009855200000000000000000000000000000000000000000000000000000000000000000000000000000000000000000000000000000000000000000006812282000000000000225001457        000002769526000166J0000000000000000000000000000SUPERVISOR DE VENDAS20140708TNE100000000202006252020051319681228N0000000000
M001SOLDI PROMOTORA DE VENDAS LTDA     0100014570008800705ROSANA RODRIGUES GUIMARAES         00ROSANA RODRIGUES GUIMARAES         CLINUP                             2068428680750000470012006300000000000145016000007415800008437920000000000000000000000000000000000000000000000000000000000000000000000000000000000000000000000000000000000000000006812282000000000000042461457        000010408531000171J0000000000000000000000000000SUPERVISOR DE VENDAS20140708TNE100000000202006302020040719681228N0000000000
M001SOLDI PROMOTORA DE VENDAS LTDA     0100014570008800705ROSANA RODRIGUES GUIMARAES         00ROSANA RODRIGUES GUIMARAES         CLINUP                             2068428680750000470012006300000000000145016000007415800008437920000000000000000000000000000000000000000000000000000000000000000000000000000000000000000000000000000000000000000006812282000000000000042461457        000010408531000171J0000000000000000000000000000SUPERVISOR DE VENDAS20140708TNE100000000202006302020040719681228N0000000000
M001SOLDI PROMOTORA DE VENDAS LTDA     0100014570008800705ROSANA RODRIGUES GUIMARAES         00ROSANA RODRIGUES GUIMARAES         CLINUP                             2068428680750000470012006300000000000145016000007415800008437920000000000000000000000000000000000000000000000000000000000000000000000000000000000000000000000000000000000000000006812282000000000000042461457        000010408531000171J0000000000000000000000000000SUPERVISOR DE VENDAS20140708TNE100000000202006302020040719681228N0000000000
M001SOLDI PROMOTORA DE VENDAS LTDA     0100014570008800705ROSANA RODRIGUES GUIMARAES         00ROSANA RODRIGUES GUIMARAES         CLINUP                             2068428680750000470012006300000000000145016000007415800008437920000000000000000000000000000000000000000000000000000000000000000000000000000000000000000000000000000000000000000006812282000000000000042461457        000010408531000171J0000000000000000000000000000SUPERVISOR DE VENDAS20140708TNE100000000202006302020040719681228N0000000000
M001SOLDI PROMOTORA DE VENDAS LTDA     0100014570008800705ROSANA RODRIGUES GUIMARAES         00ROSANA RODRIGUES GUIMARAES         CLINUP                             2068428680750000470012006300000000000145016000007415800008437920000000000000000000000000000000000000000000000000000000000000000000000000000000000000000000000000000000000000000006812282000000000000042461457        000010408531000171J0000000000000000000000000000SUPERVISOR DE VENDAS20140708TNE100000000202006302020040719681228N0000000000
M001SOLDI PROMOTORA DE VENDAS LTDA     0100014810008800706KLEBEA PEREIRA DA SILVA            02NAYRA KAROLINE SILVA NUNES         EXATO MEDICINA DIAGNOSTICA         5068405205740301281012006250000000000015116000007415800006382770000000000000000000000000000000000000000000000000000000000000000000000000000000000000000000000000000000000000000009904162200000000000004441481        020009331272000149J0000000000000000000000000000CONSULTOR DE VENDAS 20140708TNE100000000202006252020051319990416N0000000000
M001SOLDI PROMOTORA DE VENDAS LTDA     0100014810008800706KLEBEA PEREIRA DA SILVA            02NAYRA KAROLINE SILVA NUNES         EXATO MEDICINA DIAGNOSTICA         5068405205440302580012006250000000000015116000007415800006382770000000000000000000000000000000000000000000000000000000000000000000000000000000000000000000000000000000000000000009904162200000000000004441481        020009331272000149J0000000000000000000000000000CONSULTOR DE VENDAS 20140708TNE100000000202006252020051319990416N0000000000
M001SOLDI PROMOTORA DE VENDAS LTDA     0100014810008800706KLEBEA PEREIRA DA SILVA            02NAYRA KAROLINE SILVA NUNES         EXATO MEDICINA DIAGNOSTICA         5068405205440301630012006250000000000015116000007415800006382770000000000000000000000000000000000000000000000000000000000000000000000000000000000000000000000000000000000000000009904162200000000000004441481        020009331272000149J0000000000000000000000000000CONSULTOR DE VENDAS 20140708TNE100000000202006252020051319990416N0000000000
M001SOLDI PROMOTORA DE VENDAS LTDA     0100014810008800706KLEBEA PEREIRA DA SILVA            02NAYRA KAROLINE SILVA NUNES         EXATO MEDICINA DIAGNOSTICA         5068405205440301150012006250000000000015116000007415800006382770000000000000000000000000000000000000000000000000000000000000000000000000000000000000000000000000000000000000000009904162200000000000004441481        020009331272000149J0000000000000000000000000000CONSULTOR DE VENDAS 20140708TNE100000000202006252020051319990416N0000000000
M001SOLDI PROMOTORA DE VENDAS LTDA     0100014810008800706KLEBEA PEREIRA DA SILVA            02NAYRA KAROLINE SILVA NUNES         EXATO MEDICINA DIAGNOSTICA         5068405205440302504012006250000000000015116000007415800006382770000000000000000000000000000000000000000000000000000000000000000000000000000000000000000000000000000000000000000009904162200000000000004441481        020009331272000149J0000000000000000000000000000CONSULTOR DE VENDAS 20140708TNE100000000202006252020051319990416N0000000000
M001SOLDI PROMOTORA DE VENDAS LTDA     0100014810008800706KLEBEA PEREIRA DA SILVA            02NAYRA KAROLINE SILVA NUNES         EXATO MEDICINA DIAGNOSTICA         5068405205740302423012006250000000000015116000007415800006382770000000000000000000000000000000000000000000000000000000000000000000000000000000000000000000000000000000000000000009904162200000000000004441481        020009331272000149J0000000000000000000000000000CONSULTOR DE VENDAS 20140708TNE100000000202006252020051319990416N0000000000
M001SOLDI PROMOTORA DE VENDAS LTDA     0100014810008800706KLEBEA PEREIRA DA SILVA            02NAYRA KAROLINE SILVA NUNES         EXATO MEDICINA DIAGNOSTICA         5068405205640301397012006250000000000016216000007415800006382770000000000000000000000000000000000000000000000000000000000000000000000000000000000000000000000000000000000000000009904162200000000000004751481        020009331272000149J0000000000000000000000000000CONSULTOR DE VENDAS 20140708TNE100000000202006252020051319990416N0000000000
M001SOLDI PROMOTORA DE VENDAS LTDA     0100014810008800706KLEBEA PEREIRA DA SILVA            02NAYRA KAROLINE SILVA NUNES         EXATO MEDICINA DIAGNOSTICA         5068405205640316521012006250000000000091816000007415800006382770000000000000000000000000000000000000000000000000000000000000000000000000000000000000000000000000000000000000000009904162200000000000026891481        020009331272000149J0000000000000000000000000000CONSULTOR DE VENDAS 20140708TNE100000000202006252020051319990416N0000000000
M001SOLDI PROMOTORA DE VENDAS LTDA     0100014810008800706KLEBEA PEREIRA DA SILVA            02NAYRA KAROLINE SILVA NUNES         EXATO MEDICINA DIAGNOSTICA         5068405205640316513012006250000000000113416000007415800006382770000000000000000000000000000000000000000000000000000000000000000000000000000000000000000000000000000000000000000009904162200000000000033211481        020009331272000149J0000000000000000000000000000CONSULTOR DE VENDAS 20140708TNE100000000202006252020051319990416N0000000000
M001SOLDI PROMOTORA DE VENDAS LTDA     0100014810008800706KLEBEA PEREIRA DA SILVA            02NAYRA KAROLINE SILVA NUNES         EXATO MEDICINA DIAGNOSTICA         5068405205640316491012006250000000000091816000007415800006382770000000000000000000000000000000000000000000000000000000000000000000000000000000000000000000000000000000000000000009904162200000000000026891481        020009331272000149J0000000000000000000000000000CONSULTOR DE VENDAS 20140708TNE100000000202006252020051319990416N0000000000
