HSINISTROS PAGOS074158200820083101000000001000000000000000000000000000000000000000000000000000000000000000000000000000000000000000000000000000000000000000000000000000000000000000000000000000000000000000000000000000000000000000000000000000000000000000000000000000000000000000000000000000000000000000000000000000000000000000000000000000000000000000000000000000000000000000000000000000000000000 012020082020083100000000000000000000000000000000000000000000000000000000000000000000000000000000000000000000
M001SOLDI PROMOTORA DE VENDAS LTDA     0100000190000110157PALOMA TATO RAMOS                  00PALOMA TATO RAMOS                  PRO MED MEDICINA DIAGNOSTICA       60685886399409011060120080400000000008925160000074158000080127500000000000000000000000000000000000000000000000000000000000000000000000000000000000000000000000000000000000000000091032820000000000002613419          000000869018000396J0000000000000000000000000000CONSULTOR DE VENDAS 20110503TNE100000000202008042020061919910328N0000000000
M001SOLDI PROMOTORA DE VENDAS LTDA     0100000190000110157PALOMA TATO RAMOS                  02DIEGO FERREIRA SOARES              PRO MED MEDICINA DIAGNOSTICA       60685886400409011060120080400000000008925160000074158000080127500000000000000000000000000000000000000000000000000000000000000000000000000000000000000000000000000000000000000000084042311000000000002613419          020000869018000396J0000000000000000000000000000CONSULTOR DE VENDAS 20110503TNE100000000202008042020061919840423N0000000000
M001SOLDI PROMOTORA DE VENDAS LTDA     0100000190000110157PALOMA TATO RAMOS                  00PALOMA TATO RAMOS                  HOSPITAL CAXIAS DOR                20686353487840010110120081300000000010543000000074158000041421200000000000000000000000000000000000000000000000000000000000000000000000000000000000000000000000000000000000000000091032820000000000003087019          000006047087001372J0000000000000000000000000000CONSULTOR DE VENDAS 20110503TNE100000000202008132020031819910328N0000000000
M001SOLDI PROMOTORA DE VENDAS LTDA     0100000190000110157PALOMA TATO RAMOS                  00PALOMA TATO RAMOS                  CLINICA OTO ALERGICA               50686294718402012100120081300000000003354160000074158000006500200000000000000000000000000000000000000000000000000000000000000000000000000000000000000000000000000000000000000000091032820000000000000982319          000005503967000100J0000000000000000000000000000CONSULTOR DE VENDAS 20110503TNE100000000202008132020062419910328N0000000000
M001SOLDI PROMOTORA DE VENDAS LTDA     0100000190000110157PALOMA TATO RAMOS                  00PALOMA TATO RAMOS                  INODUC                             10687059323101010120120082500000000003060160000074158000007592200000000000000000000000000000000000000000000000000000000000000000000000000000000000000000000000000000000000000000091032820000000000000896019          000031638208000164J0000000000000000000000000000CONSULTOR DE VENDAS 20110503TNE100000000202008252020070819910328N0000000000
M001SOLDI PROMOTORA DE VENDAS LTDA     0100000190000110157PALOMA TATO RAMOS                  00PALOMA TATO RAMOS                  INODUC                             50687059323413013230120082500000000000310160000074158000007592200000000000000000000000000000000000000000000000000000000000000000000000000000000000000000000000000000000000000000091032820000000000000090819          000031638208000164J0000000000000000000000000000CONSULTOR DE VENDAS 20110503TNE100000000202008252020070819910328N0000000000
M001SOLDI PROMOTORA DE VENDAS LTDA     0100001320000118002JOSE LEITE RIBEIRO TAVARES         01LUCIDIA DE MEDEIROS TAVARES        GOT                                106865709821010101201200817000000000034151600000741580000642126000000000000000000000000000000000000000000000000000000000000000000000000000000000000000000000000000000000000000000710811210000000000010000132         010002451851000186J0000000000000000000000000000GERENTE COMERCIAL I 20080218TNQ200000000202008172020070119710811N0000000000
M001SOLDI PROMOTORA DE VENDAS LTDA     0100001320000118002JOSE LEITE RIBEIRO TAVARES         01LUCIDIA DE MEDEIROS TAVARES        GOT                                506865709834080201901200817000000000010821600000741580000642126000000000000000000000000000000000000000000000000000000000000000000000000000000000000000000000000000000000000000000710811210000000000003170132         010002451851000186J0000000000000000000000000000GERENTE COMERCIAL I 20080218TNQ200000000202008172020070119710811N0000000000
M001SOLDI PROMOTORA DE VENDAS LTDA     0100001320000118002JOSE LEITE RIBEIRO TAVARES         00JOSE LEITE RIBEIRO TAVARES         LABORAT MARCELO MAGALHAES          506866499154030492201200818000000000003311600000741580000369233000000000000000000000000000000000000000000000000000000000000000000000000000000000000000000000000000000000000000000710927100000000000000972132         000011696937000160J0000000000000000000000000000GERENTE COMERCIAL I 20080218TNQ200000000202008182020070419710927N0000000000
M001SOLDI PROMOTORA DE VENDAS LTDA     0100001320000118002JOSE LEITE RIBEIRO TAVARES         00JOSE LEITE RIBEIRO TAVARES         LABORAT MARCELO MAGALHAES          506866499154030250401200818000000000001331600000741580000369233000000000000000000000000000000000000000000000000000000000000000000000000000000000000000000000000000000000000000000710927100000000000000390132         000011696937000160J0000000000000000000000000000GERENTE COMERCIAL I 20080218TNQ200000000202008182020070419710927N0000000000
M001SOLDI PROMOTORA DE VENDAS LTDA     0100001320000118002JOSE LEITE RIBEIRO TAVARES         00JOSE LEITE RIBEIRO TAVARES         LABORAT MARCELO MAGALHAES          506866499154030251201200818000000000001331600000741580000369233000000000000000000000000000000000000000000000000000000000000000000000000000000000000000000000000000000000000000000710927100000000000000390132         000011696937000160J0000000000000000000000000000GERENTE COMERCIAL I 20080218TNQ200000000202008182020070419710927N0000000000
M001SOLDI PROMOTORA DE VENDAS LTDA     0100001320000118002JOSE LEITE RIBEIRO TAVARES         00JOSE LEITE RIBEIRO TAVARES         LABORAT MARCELO MAGALHAES          506866499154030160501200818000000000001331600000741580000369233000000000000000000000000000000000000000000000000000000000000000000000000000000000000000000000000000000000000000000710927100000000000000390132         000011696937000160J0000000000000000000000000000GERENTE COMERCIAL I 20080218TNQ200000000202008182020070419710927N0000000000
M001SOLDI PROMOTORA DE VENDAS LTDA     0100001320000118002JOSE LEITE RIBEIRO TAVARES         00JOSE LEITE RIBEIRO TAVARES         LABORAT MARCELO MAGALHAES          506866499154030701801200818000000000006641600000741580000369233000000000000000000000000000000000000000000000000000000000000000000000000000000000000000000000000000000000000000000710927100000000000001945132         000011696937000160J0000000000000000000000000000GERENTE COMERCIAL I 20080218TNQ200000000202008182020070419710927N0000000000
M001SOLDI PROMOTORA DE VENDAS LTDA     0100001320000118002JOSE LEITE RIBEIRO TAVARES         00JOSE LEITE RIBEIRO TAVARES         LABORAT MARCELO MAGALHAES          506866499154030695001200818000000000009491600000741580000369233000000000000000000000000000000000000000000000000000000000000000000000000000000000000000000000000000000000000000000710927100000000000002780132         000011696937000160J0000000000000000000000000000GERENTE COMERCIAL I 20080218TNQ200000000202008182020070419710927N0000000000
M001SOLDI PROMOTORA DE VENDAS LTDA     0100001320000118002JOSE LEITE RIBEIRO TAVARES         00JOSE LEITE RIBEIRO TAVARES         LABORAT MARCELO MAGALHAES          506866499154030696801200818000000000007591600000741580000369233000000000000000000000000000000000000000000000000000000000000000000000000000000000000000000000000000000000000000000710927100000000000002225132         000011696937000160J0000000000000000000000000000GERENTE COMERCIAL I 20080218TNQ200000000202008182020070419710927N0000000000
M001SOLDI PROMOTORA DE VENDAS LTDA     0100001320000118002JOSE LEITE RIBEIRO TAVARES         00JOSE LEITE RIBEIRO TAVARES         LABORAT MARCELO MAGALHAES          506866499154030699201200818000000000005691600000741580000369233000000000000000000000000000000000000000000000000000000000000000000000000000000000000000000000000000000000000000000710927100000000000001666132         000011696937000160J0000000000000000000000000000GERENTE COMERCIAL I 20080218TNQ200000000202008182020070419710927N0000000000
M001SOLDI PROMOTORA DE VENDAS LTDA     0100001320000118002JOSE LEITE RIBEIRO TAVARES         00JOSE LEITE RIBEIRO TAVARES         LABORAT MARCELO MAGALHAES          506866499154030158301200818000000000002371600000741580000369233000000000000000000000000000000000000000000000000000000000000000000000000000000000000000000000000000000000000000000710927100000000000000696132         000011696937000160J0000000000000000000000000000GERENTE COMERCIAL I 20080218TNQ200000000202008182020070419710927N0000000000
M001SOLDI PROMOTORA DE VENDAS LTDA     0100001320000118002JOSE LEITE RIBEIRO TAVARES         00JOSE LEITE RIBEIRO TAVARES         LABORAT MARCELO MAGALHAES          506866499154030159101200818000000000002841600000741580000369233000000000000000000000000000000000000000000000000000000000000000000000000000000000000000000000000000000000000000000710927100000000000000834132         000011696937000160J0000000000000000000000000000GERENTE COMERCIAL I 20080218TNQ200000000202008182020070419710927N0000000000
M001SOLDI PROMOTORA DE VENDAS LTDA     0100001320000118002JOSE LEITE RIBEIRO TAVARES         00JOSE LEITE RIBEIRO TAVARES         LABORAT MARCELO MAGALHAES          506866499154030269501200818000000000003791600000741580000369233000000000000000000000000000000000000000000000000000000000000000000000000000000000000000000000000000000000000000000710927100000000000001112132         000011696937000160J0000000000000000000000000000GERENTE COMERCIAL I 20080218TNQ200000000202008182020070419710927N0000000000
M001SOLDI PROMOTORA DE VENDAS LTDA     0100001320000118002JOSE LEITE RIBEIRO TAVARES         00JOSE LEITE RIBEIRO TAVARES         LABORAT MARCELO MAGALHAES          506866499154030254701200818000000000001891600000741580000369233000000000000000000000000000000000000000000000000000000000000000000000000000000000000000000000000000000000000000000710927100000000000000556132         000011696937000160J0000000000000000000000000000GERENTE COMERCIAL I 20080218TNQ200000000202008182020070419710927N0000000000
M001SOLDI PROMOTORA DE VENDAS LTDA     0100001320000118002JOSE LEITE RIBEIRO TAVARES         00JOSE LEITE RIBEIRO TAVARES         LABORAT MARCELO MAGALHAES          506866499154030199001200818000000000001891600000741580000369233000000000000000000000000000000000000000000000000000000000000000000000000000000000000000000000000000000000000000000710927100000000000000556132         000011696937000160J0000000000000000000000000000GERENTE COMERCIAL I 20080218TNQ200000000202008182020070419710927N0000000000
M001SOLDI PROMOTORA DE VENDAS LTDA     0100001320000118002JOSE LEITE RIBEIRO TAVARES         00JOSE LEITE RIBEIRO TAVARES         LABORAT MARCELO MAGALHAES          506866499154030188501200818000000000001711600000741580000369233000000000000000000000000000000000000000000000000000000000000000000000000000000000000000000000000000000000000000000710927100000000000000501132         000011696937000160J0000000000000000000000000000GERENTE COMERCIAL I 20080218TNQ200000000202008182020070419710927N0000000000
M001SOLDI PROMOTORA DE VENDAS LTDA     0100001320000118002JOSE LEITE RIBEIRO TAVARES         00JOSE LEITE RIBEIRO TAVARES         LABORAT MARCELO MAGALHAES          506866499154030139701200818000000000001421600000741580000369233000000000000000000000000000000000000000000000000000000000000000000000000000000000000000000000000000000000000000000710927100000000000000417132         000011696937000160J0000000000000000000000000000GERENTE COMERCIAL I 20080218TNQ200000000202008182020070419710927N0000000000
M001SOLDI PROMOTORA DE VENDAS LTDA     0100001320000118002JOSE LEITE RIBEIRO TAVARES         00JOSE LEITE RIBEIRO TAVARES         LABORAT MARCELO MAGALHAES          506866499154030702601200818000000000014241600000741580000369233000000000000000000000000000000000000000000000000000000000000000000000000000000000000000000000000000000000000000000710927100000000000004171132         000011696937000160J0000000000000000000000000000GERENTE COMERCIAL I 20080218TNQ200000000202008182020070419710927N0000000000
M001SOLDI PROMOTORA DE VENDAS LTDA     0100001320000118002JOSE LEITE RIBEIRO TAVARES         00JOSE LEITE RIBEIRO TAVARES         LABORAT MARCELO MAGALHAES          506866499154030204001200818000000000001331600000741580000369233000000000000000000000000000000000000000000000000000000000000000000000000000000000000000000000000000000000000000000710927100000000000000390132         000011696937000160J0000000000000000000000000000GERENTE COMERCIAL I 20080218TNQ200000000202008182020070419710927N0000000000
M001SOLDI PROMOTORA DE VENDAS LTDA     0100001320000118002JOSE LEITE RIBEIRO TAVARES         02MATEUS DE MEDEIROS TAVARES LEITE   ESPACO INTEGRAR                    206868271175000047001200820000000000014501600000741580000930792000000000000000000000000000000000000000000000000000000000000000000000000000000000000000000000000000000000000000000080324120000000000004246132         020011422364000186J0000000000000000000000000000GERENTE COMERCIAL I 20080218TNQ200000000202008202020062220080324N0000000000
M001SOLDI PROMOTORA DE VENDAS LTDA     0100001320000118002JOSE LEITE RIBEIRO TAVARES         02MATEUS DE MEDEIROS TAVARES LEITE   ESPACO INTEGRAR                    206868271175000047001200820000000000014501600000741580000930792000000000000000000000000000000000000000000000000000000000000000000000000000000000000000000000000000000000000000000080324120000000000004246132         020011422364000186J0000000000000000000000000000GERENTE COMERCIAL I 20080218TNQ200000000202008202020062220080324N0000000000
M001SOLDI PROMOTORA DE VENDAS LTDA     0100001320000118002JOSE LEITE RIBEIRO TAVARES         02MATEUS DE MEDEIROS TAVARES LEITE   ESPACO INTEGRAR                    206868271175000047001200820000000000014501600000741580000930792000000000000000000000000000000000000000000000000000000000000000000000000000000000000000000000000000000000000000000080324120000000000004246132         020011422364000186J0000000000000000000000000000GERENTE COMERCIAL I 20080218TNQ200000000202008202020062220080324N0000000000
M001SOLDI PROMOTORA DE VENDAS LTDA     0100001320000118002JOSE LEITE RIBEIRO TAVARES         02MATEUS DE MEDEIROS TAVARES LEITE   ESPACO INTEGRAR                    206868271175000047001200820000000000014501600000741580000930792000000000000000000000000000000000000000000000000000000000000000000000000000000000000000000000000000000000000000000080324120000000000004246132         020011422364000186J0000000000000000000000000000GERENTE COMERCIAL I 20080218TNQ200000000202008202020062220080324N0000000000
M001SOLDI PROMOTORA DE VENDAS LTDA     0100001320000118002JOSE LEITE RIBEIRO TAVARES         02MATEUS DE MEDEIROS TAVARES LEITE   ESPACO INTEGRAR                    206868271175000047001200820000000000014501600000741580000930792000000000000000000000000000000000000000000000000000000000000000000000000000000000000000000000000000000000000000000080324120000000000004246132         020011422364000186J0000000000000000000000000000GERENTE COMERCIAL I 20080218TNQ200000000202008202020062220080324N0000000000
M001SOLDI PROMOTORA DE VENDAS LTDA     0100001590000118023THALITA MENDES DE ALMEIDA LIMA     00THALITA MENDES DE ALMEIDA LIMA     LUPPA                              506866370734030163001200818000000000001691600000741580000207977000000000000000000000000000000000000000000000000000000000000000000000000000000000000000000000000000000000000000000891208200000000000000496159         000008406456000168J0000000000000000000000000000CONSULTOR DE VENDAS 20110110TNE100000000202008182020070419891208N0000000000
M001SOLDI PROMOTORA DE VENDAS LTDA     0100001590000118023THALITA MENDES DE ALMEIDA LIMA     00THALITA MENDES DE ALMEIDA LIMA     LUPPA                              506866370734030164801200818000000000006041600000741580000207977000000000000000000000000000000000000000000000000000000000000000000000000000000000000000000000000000000000000000000891208200000000000001770159         000008406456000168J0000000000000000000000000000CONSULTOR DE VENDAS 20110110TNE100000000202008182020070419891208N0000000000
M001SOLDI PROMOTORA DE VENDAS LTDA     0100001590000118023THALITA MENDES DE ALMEIDA LIMA     00THALITA MENDES DE ALMEIDA LIMA     LUPPA                              506866370734030436101200818000000000003621600000741580000207977000000000000000000000000000000000000000000000000000000000000000000000000000000000000000000000000000000000000000000891208200000000000001062159         000008406456000168J0000000000000000000000000000CONSULTOR DE VENDAS 20110110TNE100000000202008182020070419891208N0000000000
M001SOLDI PROMOTORA DE VENDAS LTDA     0100001590000118023THALITA MENDES DE ALMEIDA LIMA     00THALITA MENDES DE ALMEIDA LIMA     LUPPA                              506866370734031627001200818000000000015101600000741580000207977000000000000000000000000000000000000000000000000000000000000000000000000000000000000000000000000000000000000000000891208200000000000004424159         000008406456000168J0000000000000000000000000000CONSULTOR DE VENDAS 20110110TNE100000000202008182020070419891208N0000000000
M001SOLDI PROMOTORA DE VENDAS LTDA     0100001590000118023THALITA MENDES DE ALMEIDA LIMA     00THALITA MENDES DE ALMEIDA LIMA     LUPPA                              506866370734030242301200818000000000001691600000741580000207977000000000000000000000000000000000000000000000000000000000000000000000000000000000000000000000000000000000000000000891208200000000000000496159         000008406456000168J0000000000000000000000000000CONSULTOR DE VENDAS 20110110TNE100000000202008182020070419891208N0000000000
M001SOLDI PROMOTORA DE VENDAS LTDA     0100001590000118023THALITA MENDES DE ALMEIDA LIMA     00THALITA MENDES DE ALMEIDA LIMA     LUPPA                              506866370734030250401200818000000000001691600000741580000207977000000000000000000000000000000000000000000000000000000000000000000000000000000000000000000000000000000000000000000891208200000000000000496159         000008406456000168J0000000000000000000000000000CONSULTOR DE VENDAS 20110110TNE100000000202008182020070419891208N0000000000
M001SOLDI PROMOTORA DE VENDAS LTDA     0100001590000118023THALITA MENDES DE ALMEIDA LIMA     00THALITA MENDES DE ALMEIDA LIMA     LUPPA                              506866370734030251201200818000000000001691600000741580000207977000000000000000000000000000000000000000000000000000000000000000000000000000000000000000000000000000000000000000000891208200000000000000496159         000008406456000168J0000000000000000000000000000CONSULTOR DE VENDAS 20110110TNE100000000202008182020070419891208N0000000000
M001SOLDI PROMOTORA DE VENDAS LTDA     0100001590000118023THALITA MENDES DE ALMEIDA LIMA     00THALITA MENDES DE ALMEIDA LIMA     LUPPA                              506866370734030258001200818000000000001691600000741580000207977000000000000000000000000000000000000000000000000000000000000000000000000000000000000000000000000000000000000000000891208200000000000000496159         000008406456000168J0000000000000000000000000000CONSULTOR DE VENDAS 20110110TNE100000000202008182020070419891208N0000000000
M001SOLDI PROMOTORA DE VENDAS LTDA     0100001590000118023THALITA MENDES DE ALMEIDA LIMA     00THALITA MENDES DE ALMEIDA LIMA     LUPPA                              506866370734030172901200818000000000003621600000741580000207977000000000000000000000000000000000000000000000000000000000000000000000000000000000000000000000000000000000000000000891208200000000000001062159         000008406456000168J0000000000000000000000000000CONSULTOR DE VENDAS 20110110TNE100000000202008182020070419891208N0000000000
M001SOLDI PROMOTORA DE VENDAS LTDA     0100001590000118023THALITA MENDES DE ALMEIDA LIMA     00THALITA MENDES DE ALMEIDA LIMA     LUPPA                              506866370744030838301200818000000000001811600000741580000207977000000000000000000000000000000000000000000000000000000000000000000000000000000000000000000000000000000000000000000891208200000000000000531159         000008406456000168J0000000000000000000000000000CONSULTOR DE VENDAS 20110110TNE100000000202008182020070419891208N0000000000
M001SOLDI PROMOTORA DE VENDAS LTDA     0100001590000118023THALITA MENDES DE ALMEIDA LIMA     00THALITA MENDES DE ALMEIDA LIMA     LUPPA                              506866370744030231801200818000000000001691600000741580000207977000000000000000000000000000000000000000000000000000000000000000000000000000000000000000000000000000000000000000000891208200000000000000496159         000008406456000168J0000000000000000000000000000CONSULTOR DE VENDAS 20110110TNE100000000202008182020070419891208N0000000000
M001SOLDI PROMOTORA DE VENDAS LTDA     0100001590000118023THALITA MENDES DE ALMEIDA LIMA     00THALITA MENDES DE ALMEIDA LIMA     DIAGSON                            506592054214090121101200824000000000016961600000741580000160571000000000000000000000000000000000000000000000000000000000000000000000000000000000000000000000000000000000000000000891208200000000000004968159         000000149703000186J0000000000000000000000000000CONSULTOR DE VENDAS 20110110TNE100000000202008242019052119891208N0000000000
M001SOLDI PROMOTORA DE VENDAS LTDA     0100001590000118023THALITA MENDES DE ALMEIDA LIMA     02MARINA MENDES LIMA                 HOSPITAL DAS NEVES                 206870782778400014701200825000000000112700000000741580000432911000000000000000000000000000000000000000000000000000000000000000000000000000000000000000000000000000000000000000000091216220000000000033000159         020001817749000199J0000000000000000000000000000CONSULTOR DE VENDAS 20110110TNE100000000202008252020071420091216N0000000000
M001SOLDI PROMOTORA DE VENDAS LTDA     0100001590000118023THALITA MENDES DE ALMEIDA LIMA     00THALITA MENDES DE ALMEIDA LIMA     DIAGSON                            506761996784090121101200831000000000017761600000741580000160571000000000000000000000000000000000000000000000000000000000000000000000000000000000000000000000000000000000000000000891208200000000000005200159         000000149703000186J0000000000000000000000000000CONSULTOR DE VENDAS 20110110TNE100000000202008312020010619891208N0000000000
M001SOLDI PROMOTORA DE VENDAS LTDA     0100001910000119027DESYANE O GUIMARAES NASCIMENTO     01VITORIA H GUIMARAES NASCIMENTO     HOSPITAL CURA DAR S                206860689038400014701200810000000000100750000000741580000040312000000000000000000000000000000000000000000000000000000000000000000000000000000000000000000000000000000000000000000040618220000000000029500191         010060975737003509J0000000000000000000000000000CONSULTOR DE VENDAS 20100901TNE100000000202008102020051820040618N0000000000
M001SOLDI PROMOTORA DE VENDAS LTDA     0100001910000119027DESYANE O GUIMARAES NASCIMENTO     01VITORIA H GUIMARAES NASCIMENTO     HOSPITAL CURA DAR S                506860689034090112201200810000000000051541600000741580000040312000000000000000000000000000000000000000000000000000000000000000000000000000000000000000000000000000000000000000000040618220000000000015093191         010060975737003509J0000000000000000000000000000CONSULTOR DE VENDAS 20100901TNE100000000202008102020051820040618N0000000000
M001SOLDI PROMOTORA DE VENDAS LTDA     0100002050000120018ANDREZA SANTOS HUMSI RAYES         00ANDREZA SANTOS HUMSI RAYES         MARCO AURELIO VINHOSA BASTOS JUNIOR106880838320001115001200811000000000051220000000741580016072700000000000000000000000000000000000000000000000000000000000000000000000000000000000000000000000000000000000000000000761030201600000000014999205         000000007960550760F0000000000000000000000000000CONSULTOR DE VENDAS 20100809TNE100000000202008112020072719761030N0000000000
M001SOLDI PROMOTORA DE VENDAS LTDA     0100002050000120018ANDREZA SANTOS HUMSI RAYES         00ANDREZA SANTOS HUMSI RAYES         PRONCOR                            106863343661010103901200813000000000034151600000741580000304719000000000000000000000000000000000000000000000000000000000000000000000000000000000000000000000000000000000000000000761030200000000000010000205         000003121241000187J0000000000000000000000000000CONSULTOR DE VENDAS 20100809TNE100000000202008132020062619761030N0000000000
M001SOLDI PROMOTORA DE VENDAS LTDA     0100002050000120018ANDREZA SANTOS HUMSI RAYES         00ANDREZA SANTOS HUMSI RAYES         PRONCOR                            206863343663401999101200813000000000043260000000741580000304719000000000000000000000000000000000000000000000000000000000000000000000000000000000000000000000000000000000000000000761030200000000000012669205         000003121241000187J0000000000000000000000000000CONSULTOR DE VENDAS 20100809TNE100000000202008132020062619761030N0000000000
M001SOLDI PROMOTORA DE VENDAS LTDA     0100002050000120018ANDREZA SANTOS HUMSI RAYES         00ANDREZA SANTOS HUMSI RAYES         PRONCOR                            206863343663401999201200813000000000011780000000741580000304719000000000000000000000000000000000000000000000000000000000000000000000000000000000000000000000000000000000000000000761030200000000000003452205         000003121241000187J0000000000000000000000000000CONSULTOR DE VENDAS 20100809TNE100000000202008132020062619761030N0000000000
M001SOLDI PROMOTORA DE VENDAS LTDA     0100002050000120018ANDREZA SANTOS HUMSI RAYES         00ANDREZA SANTOS HUMSI RAYES         PRONCOR                            206863343663401999501200813000000000010080000000741580000304719000000000000000000000000000000000000000000000000000000000000000000000000000000000000000000000000000000000000000000761030200000000000002954205         000003121241000187J0000000000000000000000000000CONSULTOR DE VENDAS 20100809TNE100000000202008132020062619761030N0000000000
M001SOLDI PROMOTORA DE VENDAS LTDA     0100002640000013086ANTONIA DE SOUSA GOMES FEIJAO      00ANTONIA DE SOUSA GOMES FEIJAO      PROSAUDE                           101184669561010101200200803000000000034151600000741580000887927000000000000000000000000000000000000000000000000000000000000000000000000000000000000000000000000000000000000000000601013200000000000010000264         000002355330000125J0000000000000000000000000000AUXILIAR DE SERVICOS20100503TNE100000000202008032020071719601013N0000000000
M001SOLDI PROMOTORA DE VENDAS LTDA     0100002640000013086ANTONIA DE SOUSA GOMES FEIJAO      00ANTONIA DE SOUSA GOMES FEIJAO      PROSAUDE                           506858458914030242301200804000000000001691600000741580000089903000000000000000000000000000000000000000000000000000000000000000000000000000000000000000000000000000000000000000000601013200000000000000496264         000002355330000125J0000000000000000000000000000AUXILIAR DE SERVICOS20100503TNE100000000202008042020062419601013N0000000000
M001SOLDI PROMOTORA DE VENDAS LTDA     0100002640000013086ANTONIA DE SOUSA GOMES FEIJAO      01ANTONIO EGBERTO FEIJAO             PROSAUDE                           506857558934030195801200804000000000005431600000741580000089903000000000000000000000000000000000000000000000000000000000000000000000000000000000000000000000000000000000000000000550607110000000000001591264         010002355330000125J0000000000000000000000000000AUXILIAR DE SERVICOS20100503TNE100000000202008042020062319550607N0000000000
M001SOLDI PROMOTORA DE VENDAS LTDA     0100002640000013086ANTONIA DE SOUSA GOMES FEIJAO      01ANTONIO EGBERTO FEIJAO             PROSAUDE                           506857558934030158301200804000000000003021600000741580000089903000000000000000000000000000000000000000000000000000000000000000000000000000000000000000000000000000000000000000000550607110000000000000886264         010002355330000125J0000000000000000000000000000AUXILIAR DE SERVICOS20100503TNE100000000202008042020062319550607N0000000000
M001SOLDI PROMOTORA DE VENDAS LTDA     0100002640000013086ANTONIA DE SOUSA GOMES FEIJAO      00ANTONIA DE SOUSA GOMES FEIJAO      PROSAUDE                           506858458924030115001200804000000000001691600000741580000089903000000000000000000000000000000000000000000000000000000000000000000000000000000000000000000000000000000000000000000601013200000000000000496264         000002355330000125J0000000000000000000000000000AUXILIAR DE SERVICOS20100503TNE100000000202008042020062419601013N0000000000
M001SOLDI PROMOTORA DE VENDAS LTDA     0100002640000013086ANTONIA DE SOUSA GOMES FEIJAO      01ANTONIO EGBERTO FEIJAO             PROSAUDE                           506857558934030204001200804000000000001691600000741580000089903000000000000000000000000000000000000000000000000000000000000000000000000000000000000000000000000000000000000000000550607110000000000000496264         010002355330000125J0000000000000000000000000000AUXILIAR DE SERVICOS20100503TNE100000000202008042020062319550607N0000000000
M001SOLDI PROMOTORA DE VENDAS LTDA     0100002640000013086ANTONIA DE SOUSA GOMES FEIJAO      01ANTONIO EGBERTO FEIJAO             PROSAUDE                           506857558934030160501200804000000000001691600000741580000089903000000000000000000000000000000000000000000000000000000000000000000000000000000000000000000000000000000000000000000550607110000000000000496264         010002355330000125J0000000000000000000000000000AUXILIAR DE SERVICOS20100503TNE100000000202008042020062319550607N0000000000
M001SOLDI PROMOTORA DE VENDAS LTDA     0100002640000013086ANTONIA DE SOUSA GOMES FEIJAO      01ANTONIO EGBERTO FEIJAO             PROSAUDE                           506857558934030273301200804000000000013911600000741580000089903000000000000000000000000000000000000000000000000000000000000000000000000000000000000000000000000000000000000000000550607110000000000004073264         010002355330000125J0000000000000000000000000000AUXILIAR DE SERVICOS20100503TNE100000000202008042020062319550607N0000000000
M001SOLDI PROMOTORA DE VENDAS LTDA     0100002640000013086ANTONIA DE SOUSA GOMES FEIJAO      00ANTONIA DE SOUSA GOMES FEIJAO      PROSAUDE                           506858458924031649101200804000000000010261600000741580000089903000000000000000000000000000000000000000000000000000000000000000000000000000000000000000000000000000000000000000000601013200000000000003006264         000002355330000125J0000000000000000000000000000AUXILIAR DE SERVICOS20100503TNE100000000202008042020062419601013N0000000000
M001SOLDI PROMOTORA DE VENDAS LTDA     0100002640000013086ANTONIA DE SOUSA GOMES FEIJAO      00ANTONIA DE SOUSA GOMES FEIJAO      PROSAUDE                           506858458914030204001200804000000000001691600000741580000089903000000000000000000000000000000000000000000000000000000000000000000000000000000000000000000000000000000000000000000601013200000000000000496264         000002355330000125J0000000000000000000000000000AUXILIAR DE SERVICOS20100503TNE100000000202008042020062419601013N0000000000
M001SOLDI PROMOTORA DE VENDAS LTDA     0100002640000013086ANTONIA DE SOUSA GOMES FEIJAO      00ANTONIA DE SOUSA GOMES FEIJAO      PROSAUDE                           506858458914031215101200804000000000010871600000741580000089903000000000000000000000000000000000000000000000000000000000000000000000000000000000000000000000000000000000000000000601013200000000000003184264         000002355330000125J0000000000000000000000000000AUXILIAR DE SERVICOS20100503TNE100000000202008042020062419601013N0000000000
M001SOLDI PROMOTORA DE VENDAS LTDA     0100002640000013086ANTONIA DE SOUSA GOMES FEIJAO      00ANTONIA DE SOUSA GOMES FEIJAO      PROSAUDE                           506858458914030273301200804000000000013911600000741580000089903000000000000000000000000000000000000000000000000000000000000000000000000000000000000000000000000000000000000000000601013200000000000004073264         000002355330000125J0000000000000000000000000000AUXILIAR DE SERVICOS20100503TNE100000000202008042020062419601013N0000000000
M001SOLDI PROMOTORA DE VENDAS LTDA     0100002640000013086ANTONIA DE SOUSA GOMES FEIJAO      00ANTONIA DE SOUSA GOMES FEIJAO      PROSAUDE                           506858458924030562701200804000000000030211600000741580000089903000000000000000000000000000000000000000000000000000000000000000000000000000000000000000000000000000000000000000000601013200000000000008848264         000002355330000125J0000000000000000000000000000AUXILIAR DE SERVICOS20100503TNE100000000202008042020062419601013N0000000000
M001SOLDI PROMOTORA DE VENDAS LTDA     0100002640000013086ANTONIA DE SOUSA GOMES FEIJAO      00ANTONIA DE SOUSA GOMES FEIJAO      PROSAUDE                           506858458914030231801200804000000000001691600000741580000089903000000000000000000000000000000000000000000000000000000000000000000000000000000000000000000000000000000000000000000601013200000000000000496264         000002355330000125J0000000000000000000000000000AUXILIAR DE SERVICOS20100503TNE100000000202008042020062419601013N0000000000
M001SOLDI PROMOTORA DE VENDAS LTDA     0100002640000013086ANTONIA DE SOUSA GOMES FEIJAO      00ANTONIA DE SOUSA GOMES FEIJAO      PROSAUDE                           506858458914030436101200804000000000003621600000741580000089903000000000000000000000000000000000000000000000000000000000000000000000000000000000000000000000000000000000000000000601013200000000000001062264         000002355330000125J0000000000000000000000000000AUXILIAR DE SERVICOS20100503TNE100000000202008042020062419601013N0000000000
M001SOLDI PROMOTORA DE VENDAS LTDA     0100002640000013086ANTONIA DE SOUSA GOMES FEIJAO      00ANTONIA DE SOUSA GOMES FEIJAO      PROSAUDE                           506858458914030258001200804000000000001691600000741580000089903000000000000000000000000000000000000000000000000000000000000000000000000000000000000000000000000000000000000000000601013200000000000000496264         000002355330000125J0000000000000000000000000000AUXILIAR DE SERVICOS20100503TNE100000000202008042020062419601013N0000000000
M001SOLDI PROMOTORA DE VENDAS LTDA     0100002640000013086ANTONIA DE SOUSA GOMES FEIJAO      00ANTONIA DE SOUSA GOMES FEIJAO      PROSAUDE                           506858458914030163001200804000000000001641600000741580000089903000000000000000000000000000000000000000000000000000000000000000000000000000000000000000000000000000000000000000000601013200000000000000481264         000002355330000125J0000000000000000000000000000AUXILIAR DE SERVICOS20100503TNE100000000202008042020062419601013N0000000000
M001SOLDI PROMOTORA DE VENDAS LTDA     0100002640000013086ANTONIA DE SOUSA GOMES FEIJAO      00ANTONIA DE SOUSA GOMES FEIJAO      PROSAUDE                           506858458854030283001200804000000000011501600000741580000089903000000000000000000000000000000000000000000000000000000000000000000000000000000000000000000000000000000000000000000601013200000000000003369264         000002355330000125J0000000000000000000000000000AUXILIAR DE SERVICOS20100503TNE100000000202008042020062419601013N0000000000
M001SOLDI PROMOTORA DE VENDAS LTDA     0100002640000013086ANTONIA DE SOUSA GOMES FEIJAO      00ANTONIA DE SOUSA GOMES FEIJAO      PROSAUDE                           506858458854031657201200804000000000010261600000741580000089903000000000000000000000000000000000000000000000000000000000000000000000000000000000000000000000000000000000000000000601013200000000000003006264         000002355330000125J0000000000000000000000000000AUXILIAR DE SERVICOS20100503TNE100000000202008042020062419601013N0000000000
M001SOLDI PROMOTORA DE VENDAS LTDA     0100002640000013086ANTONIA DE SOUSA GOMES FEIJAO      00ANTONIA DE SOUSA GOMES FEIJAO      MONALIZA GOMES DE CARVALHO         191220425661010101200200813000000000034151600000741580038034000000000000000000000000000000000000000000000000000000000000000000000000000000000000000000000000000000000000000000000601013203800000000010000264         000000072921889749F0000000000000000000000000000AUXILIAR DE SERVICOS20100503TNE100000000202008132020071619601013N0000000000
M001SOLDI PROMOTORA DE VENDAS LTDA     0100002640000013086ANTONIA DE SOUSA GOMES FEIJAO      00ANTONIA DE SOUSA GOMES FEIJAO      LABS A + MEDICINA DIAGNOSTICA      606872728974090110601200831000000000098541600000741580000697672000000000000000000000000000000000000000000000000000000000000000000000000000000000000000000000000000000000000000000601013200000000000028854264         000060840055025398J0000000000000000000000000000AUXILIAR DE SERVICOS20100503TNE100000000202008312020072119601013N0000000000
M001SOLDI PROMOTORA DE VENDAS LTDA     0100002640000013086ANTONIA DE SOUSA GOMES FEIJAO      00ANTONIA DE SOUSA GOMES FEIJAO      LABS A + MEDICINA DIAGNOSTICA      606872728974090136001200831000000000054221600000741580000697672000000000000000000000000000000000000000000000000000000000000000000000000000000000000000000000000000000000000000000601013200000000000015877264         000060840055025398J0000000000000000000000000000AUXILIAR DE SERVICOS20100503TNE100000000202008312020072119601013N0000000000
M001SOLDI PROMOTORA DE VENDAS LTDA     0100002800000013097SAMUEL DE FRANCA PESSOA JUNIOR     01ALESSANDRA RODRIGUES BARROS        CLIN NEUR ELET NOVA IGUACU         100182032191010101200200803000000000034151600000741580000048321000000000000000000000000000000000000000000000000000000000000000000000000000000000000000000000000000000000000000000920512210000000000010000280         010029108628000197J0000000000000000000000000000CONSULTOR DE VENDAS 20110317TNE100000000202008032020071619920512N0000000000
M001SOLDI PROMOTORA DE VENDAS LTDA     0100002800000013097SAMUEL DE FRANCA PESSOA JUNIOR     00SAMUEL DE FRANCA PESSOA JUNIOR     CASA DE SAUDE N S DE FATIMA        106555367331010103901200807000000000009731600000741580000192619000000000000000000000000000000000000000000000000000000000000000000000000000000000000000000000000000000000000000000830427200000000000002850280         000030742399000147J0000000000000000000000000000CONSULTOR DE VENDAS 20110317TNE100000000202008072019042319830427N0000000000
M001SOLDI PROMOTORA DE VENDAS LTDA     0100002800000013097SAMUEL DE FRANCA PESSOA JUNIOR     01ALESSANDRA RODRIGUES BARROS        CRISTIANE ALVES PADAO              191226682711010101200200824000000000034151600000741581926431300000000000000000000000000000000000000000000000000000000000000000000000000000000000000000000000000000000000000000000920512212600000000010000280         010000091619939720F0000000000000000000000000000CONSULTOR DE VENDAS 20110317TNE100000000202008242020080519920512N0000000000
M001SOLDI PROMOTORA DE VENDAS LTDA     0100002800000013097SAMUEL DE FRANCA PESSOA JUNIOR     01ALESSANDRA RODRIGUES BARROS        CASA DE SAUDE N S DE FATIMA        206870665038400040601200825000000000085380000000741580000192619000000000000000000000000000000000000000000000000000000000000000000000000000000000000000000000000000000000000000000920512210000000000025000280         010030742399000147J0000000000000000000000000000CONSULTOR DE VENDAS 20110317TNE100000000202008252020071519920512N0000000000
M001SOLDI PROMOTORA DE VENDAS LTDA     0100003020000133127ANA PAULA RODRIGUES BRAGA RAMALHO  00ANA PAULA RODRIGUES BRAGA RAMALHO  UPDATE                             191259102701010101200200827000000000034151600000741580000882127000000000000000000000000000000000000000000000000000000000000000000000000000000000000000000000000000000000000000000880812200000000000010000302         000002766875000124J0000000000000000000000000000CONSULTOR DE VENDAS 20100601TNE100000000202008272020081319880812N0000000000
M001SOLDI PROMOTORA DE VENDAS LTDA     0100003020000133127ANA PAULA RODRIGUES BRAGA RAMALHO  01MATEUS LEVI RAMALHO DE OLIVEIRA    UPDATE                             100184747861010101200200827000000000034151600000741580000882127000000000000000000000000000000000000000000000000000000000000000000000000000000000000000000000000000000000000000000160410120000000000010000302         010002766875000124J0000000000000000000000000000CONSULTOR DE VENDAS 20100601TNE100000000202008272020081320160410N0000000000
M001SOLDI PROMOTORA DE VENDAS LTDA     0100003290000133158CARLA C GUILHERME SILVA MARQUES    01JOSE WELLINGTON MARQUES            OTOCLINIC                          100181818241010101200200803000000000034151600000741580000122297000000000000000000000000000000000000000000000000000000000000000000000000000000000000000000000000000000000000000000770116110000000000010000329         010002273152000193J0000000000000000000000000000CONSULTOR DE VENDAS 20110701TNE100000000202008032020072019770116N0000000000
M001SOLDI PROMOTORA DE VENDAS LTDA     0100003290000133158CARLA C GUILHERME SILVA MARQUES    00CARLA C GUILHERME SILVA MARQUES    OTOCLINIC                          191400170451010101200200803000000000034151600000741580000122297000000000000000000000000000000000000000000000000000000000000000000000000000000000000000000000000000000000000000000860103200000000000010000329         000002273152000193J0000000000000000000000000000CONSULTOR DE VENDAS 20110701TNE100000000202008032020072019860103N0000000000
M001SOLDI PROMOTORA DE VENDAS LTDA     0100003290000133158CARLA C GUILHERME SILVA MARQUES    02LIVIA MARINA GUILHERME MARQUES     YASCARA MARIA CANTARELLI CUNHA     191182479051010101200200804000000000030601600000741580015130200000000000000000000000000000000000000000000000000000000000000000000000000000000000000000000000000000000000000000000140221221500000000008960329         020000044501242434F0000000000000000000000000000CONSULTOR DE VENDAS 20110701TNE100000000202008042020071620140221N0000000000
M001SOLDI PROMOTORA DE VENDAS LTDA     0100003290000133158CARLA C GUILHERME SILVA MARQUES    03LAVINIA ISABELE GUILHERME MARQUES  HOSP MEMORIAL ARTHUR RAMOS         206717307173401999501200807000000000013560000000741580000047619000000000000000000000000000000000000000000000000000000000000000000000000000000000000000000000000000000000000000000140221220000000000003972329         030001722424000122J0000000000000000000000000000CONSULTOR DE VENDAS 20110701TNE100000000202008072019081420140221N0000000000
M001SOLDI PROMOTORA DE VENDAS LTDA     0100003290000133158CARLA C GUILHERME SILVA MARQUES    02LIVIA MARINA GUILHERME MARQUES     STA CASA DE MIS DE MACEIO          106869063751010103901200824000000000034151600000741580000041610000000000000000000000000000000000000000000000000000000000000000000000000000000000000000000000000000000000000000000140221220000000000010000329         020012307187000150J0000000000000000000000000000CONSULTOR DE VENDAS 20110701TNE100000000202008242020062420140221N0000000000
M001SOLDI PROMOTORA DE VENDAS LTDA     0100003290000133158CARLA C GUILHERME SILVA MARQUES    02LIVIA MARINA GUILHERME MARQUES     STA CASA DE MIS DE MACEIO          206869063753401999101200824000000000015530000000741580000041610000000000000000000000000000000000000000000000000000000000000000000000000000000000000000000000000000000000000000000140221220000000000004549329         020012307187000150J0000000000000000000000000000CONSULTOR DE VENDAS 20110701TNE100000000202008242020062420140221N0000000000
M001SOLDI PROMOTORA DE VENDAS LTDA     0100003530000014055REGINA HELENA NERY BEZERRA         01HELENA PATRICIA NERY DOS SANTOS    HOSPITAL ESPERANCA OLINDA          206872176088400101101200831000000000109200000000741580000408212000000000000000000000000000000000000000000000000000000000000000000000000000000000000000000000000000000000000000000000331220000000000031973353         010006047087001291J0000000000000000000000000000CONSULTOR DE VENDAS 20100804TNE100000000202008312020062920000331N0000000000
M001SOLDI PROMOTORA DE VENDAS LTDA     0100003700000017098CAROLINE MOREIRA CHAMUSCA          00CAROLINE MOREIRA CHAMUSCA          CLIN MEDICA SAINT GERMAIN          100182025881010101200200803000000000034151600000741580000401722000000000000000000000000000000000000000000000000000000000000000000000000000000000000000000000000000000000000000000880307200000000000010000370         000096697099000100J0000000000000000000000000000ASSISTENTE COMERCIAL20090923TNQ200000000202008032020070719880307N0000000000
M001SOLDI PROMOTORA DE VENDAS LTDA     0100003700000017098CAROLINE MOREIRA CHAMUSCA          03GAEL MOREIRA CHAMUSCA DE LUNA      CLINICA MARIO HENRIQUE GUIMARAES   100182235100001150900200805000000000051230000000741580000640302000000000000000000000000000000000000000000000000000000000000000000000000000000000000000000000000000000000000000000200508120000000000015000370         030003828059000160J0000000000000000000000000000ASSISTENTE COMERCIAL20090923TNQ200000000202008052020072320200508N0000000000
M001SOLDI PROMOTORA DE VENDAS LTDA     0100003700000017098CAROLINE MOREIRA CHAMUSCA          02GUILHERME MOREIRA CHAMUSCA DE LUNA CLINICA MARIO HENRIQUE GUIMARAES   100182235110001150900200805000000000051230000000741580000640302000000000000000000000000000000000000000000000000000000000000000000000000000000000000000000000000000000000000000000140911120000000000015000370         020003828059000160J0000000000000000000000000000ASSISTENTE COMERCIAL20090923TNQ200000000202008052020072320140911N0000000000
M001SOLDI PROMOTORA DE VENDAS LTDA     0100003700000017098CAROLINE MOREIRA CHAMUSCA          01MARCELO CHAMUSCA DE LUNA           HOSPITAL SAO RAFAEL                100183303891010101200200812000000000034151600000741580000657002000000000000000000000000000000000000000000000000000000000000000000000000000000000000000000000000000000000000000000801223110000000000010000370         010027372066000169J0000000000000000000000000000ASSISTENTE COMERCIAL20090923TNQ200000000202008122020072119801223N0000000000
M001SOLDI PROMOTORA DE VENDAS LTDA     0100003700000017098CAROLINE MOREIRA CHAMUSCA          01MARCELO CHAMUSCA DE LUNA           HOSPITAL SAO RAFAEL                100182967281010101200200812000000000034151600000741580000657002000000000000000000000000000000000000000000000000000000000000000000000000000000000000000000000000000000000000000000801223110000000000010000370         010027372066000169J0000000000000000000000000000ASSISTENTE COMERCIAL20090923TNQ200000000202008122020072919801223N0000000000
M001SOLDI PROMOTORA DE VENDAS LTDA     0100003700000017098CAROLINE MOREIRA CHAMUSCA          00CAROLINE MOREIRA CHAMUSCA          COPANEST BA                        4   FE3ZZ893130317000200821000000000528651600000741580000097420000000000000000000000000000000000000000000000000000000000000000000000000000000000000000000000000000000000000000000880307200000000000154786370         000013792965000106J0000000000000000000000000000ASSISTENTE COMERCIAL20090923TNQ200000000202008212020072919880307N0000000000
M001SOLDI PROMOTORA DE VENDAS LTDA     0100003700000017098CAROLINE MOREIRA CHAMUSCA          03GAEL MOREIRA CHAMUSCA DE LUNA      CLINICA MARIO HENRIQUE GUIMARAES   106869623440001150901200824000000000051230000000741580000640302000000000000000000000000000000000000000000000000000000000000000000000000000000000000000000000000000000000000000000200508120000000000015000370         030003828059000160J0000000000000000000000000000ASSISTENTE COMERCIAL20090923TNQ200000000202008242020063020200508N0000000000
M001SOLDI PROMOTORA DE VENDAS LTDA     0100003700000017098CAROLINE MOREIRA CHAMUSCA          02GUILHERME MOREIRA CHAMUSCA DE LUNA CLINICA MARIO HENRIQUE GUIMARAES   106869623500001150901200824000000000051230000000741580000640302000000000000000000000000000000000000000000000000000000000000000000000000000000000000000000000000000000000000000000140911120000000000015000370         020003828059000160J0000000000000000000000000000ASSISTENTE COMERCIAL20090923TNQ200000000202008242020063020140911N0000000000
M001SOLDI PROMOTORA DE VENDAS LTDA     0100003700000017098CAROLINE MOREIRA CHAMUSCA          03GAEL MOREIRA CHAMUSCA DE LUNA      HOSPITAL SAO RAFAEL                100185060431010101200200831000000000034151600000741580000657002000000000000000000000000000000000000000000000000000000000000000000000000000000000000000000000000000000000000000000200508120000000000010000370         030027372066000169J0000000000000000000000000000ASSISTENTE COMERCIAL20090923TNQ200000000202008312020080420200508N0000000000
M001SOLDI PROMOTORA DE VENDAS LTDA     0100003880000017124LUCIANA DO ESPIRITO SANTO ARAUJO   00LUCIANA DO ESPIRITO SANTO ARAUJO   LABCHECAP                          506861305474030139701200810000000000001811600000741580000731676000000000000000000000000000000000000000000000000000000000000000000000000000000000000000000000000000000000000000000710322200000000000000531388         000013503479000201J0000000000000000000000000000CONSULTOR DE VENDAS 20100719TNE100000000202008102020062219710322N0000000000
M001SOLDI PROMOTORA DE VENDAS LTDA     0100003880000017124LUCIANA DO ESPIRITO SANTO ARAUJO   00LUCIANA DO ESPIRITO SANTO ARAUJO   LABCHECAP                          506861305474030163001200810000000000001691600000741580000731676000000000000000000000000000000000000000000000000000000000000000000000000000000000000000000000000000000000000000000710322200000000000000496388         000013503479000201J0000000000000000000000000000CONSULTOR DE VENDAS 20100719TNE100000000202008102020062219710322N0000000000
M001SOLDI PROMOTORA DE VENDAS LTDA     0100003880000017124LUCIANA DO ESPIRITO SANTO ARAUJO   00LUCIANA DO ESPIRITO SANTO ARAUJO   LABCHECAP                          506861305474030204001200810000000000001691600000741580000731676000000000000000000000000000000000000000000000000000000000000000000000000000000000000000000000000000000000000000000710322200000000000000496388         000013503479000201J0000000000000000000000000000CONSULTOR DE VENDAS 20100719TNE100000000202008102020062219710322N0000000000
M001SOLDI PROMOTORA DE VENDAS LTDA     0100003880000017124LUCIANA DO ESPIRITO SANTO ARAUJO   00LUCIANA DO ESPIRITO SANTO ARAUJO   LABCHECAP                          506861305474030436101200810000000000003621600000741580000731676000000000000000000000000000000000000000000000000000000000000000000000000000000000000000000000000000000000000000000710322200000000000001062388         000013503479000201J0000000000000000000000000000CONSULTOR DE VENDAS 20100719TNE100000000202008102020062219710322N0000000000
M001SOLDI PROMOTORA DE VENDAS LTDA     0100003880000017124LUCIANA DO ESPIRITO SANTO ARAUJO   00LUCIANA DO ESPIRITO SANTO ARAUJO   LABCHECAP                          506861305474030250401200810000000000001691600000741580000731676000000000000000000000000000000000000000000000000000000000000000000000000000000000000000000000000000000000000000000710322200000000000000496388         000013503479000201J0000000000000000000000000000CONSULTOR DE VENDAS 20100719TNE100000000202008102020062219710322N0000000000
M001SOLDI PROMOTORA DE VENDAS LTDA     0100003880000017124LUCIANA DO ESPIRITO SANTO ARAUJO   00LUCIANA DO ESPIRITO SANTO ARAUJO   LABCHECAP                          506861305474030251201200810000000000001691600000741580000731676000000000000000000000000000000000000000000000000000000000000000000000000000000000000000000000000000000000000000000710322200000000000000496388         000013503479000201J0000000000000000000000000000CONSULTOR DE VENDAS 20100719TNE100000000202008102020062219710322N0000000000
M001SOLDI PROMOTORA DE VENDAS LTDA     0100003880000017124LUCIANA DO ESPIRITO SANTO ARAUJO   00LUCIANA DO ESPIRITO SANTO ARAUJO   LABCHECAP                          506861305474030258001200810000000000001691600000741580000731676000000000000000000000000000000000000000000000000000000000000000000000000000000000000000000000000000000000000000000710322200000000000000496388         000013503479000201J0000000000000000000000000000CONSULTOR DE VENDAS 20100719TNE100000000202008102020062219710322N0000000000
M001SOLDI PROMOTORA DE VENDAS LTDA     0100003880000017124LUCIANA DO ESPIRITO SANTO ARAUJO   00LUCIANA DO ESPIRITO SANTO ARAUJO   LABCHECAP                          506861305474030199001200810000000000002411600000741580000731676000000000000000000000000000000000000000000000000000000000000000000000000000000000000000000000000000000000000000000710322200000000000000707388         000013503479000201J0000000000000000000000000000CONSULTOR DE VENDAS 20100719TNE100000000202008102020062219710322N0000000000
M001SOLDI PROMOTORA DE VENDAS LTDA     0100003880000017124LUCIANA DO ESPIRITO SANTO ARAUJO   00LUCIANA DO ESPIRITO SANTO ARAUJO   LABCHECAP                          506865811034030258001200817000000000001691600000741580000731676000000000000000000000000000000000000000000000000000000000000000000000000000000000000000000000000000000000000000000710322200000000000000496388         000013503479000201J0000000000000000000000000000CONSULTOR DE VENDAS 20100719TNE100000000202008172020070319710322N0000000000
M001SOLDI PROMOTORA DE VENDAS LTDA     0100003880000017124LUCIANA DO ESPIRITO SANTO ARAUJO   00LUCIANA DO ESPIRITO SANTO ARAUJO   LABCHECAP                          506865811034030251201200817000000000001691600000741580000731676000000000000000000000000000000000000000000000000000000000000000000000000000000000000000000000000000000000000000000710322200000000000000496388         000013503479000201J0000000000000000000000000000CONSULTOR DE VENDAS 20100719TNE100000000202008172020070319710322N0000000000
M001SOLDI PROMOTORA DE VENDAS LTDA     0100003880000017124LUCIANA DO ESPIRITO SANTO ARAUJO   00LUCIANA DO ESPIRITO SANTO ARAUJO   LABCHECAP                          506865811034030250401200817000000000001691600000741580000731676000000000000000000000000000000000000000000000000000000000000000000000000000000000000000000000000000000000000000000710322200000000000000496388         000013503479000201J0000000000000000000000000000CONSULTOR DE VENDAS 20100719TNE100000000202008172020070319710322N0000000000
M001SOLDI PROMOTORA DE VENDAS LTDA     0100003880000017124LUCIANA DO ESPIRITO SANTO ARAUJO   00LUCIANA DO ESPIRITO SANTO ARAUJO   LABCHECAP                          506865811034030199001200817000000000002411600000741580000731676000000000000000000000000000000000000000000000000000000000000000000000000000000000000000000000000000000000000000000710322200000000000000707388         000013503479000201J0000000000000000000000000000CONSULTOR DE VENDAS 20100719TNE100000000202008172020070319710322N0000000000
M001SOLDI PROMOTORA DE VENDAS LTDA     0100003880000017124LUCIANA DO ESPIRITO SANTO ARAUJO   00LUCIANA DO ESPIRITO SANTO ARAUJO   LABCHECAP                          506865811034030139701200817000000000001811600000741580000731676000000000000000000000000000000000000000000000000000000000000000000000000000000000000000000000000000000000000000000710322200000000000000531388         000013503479000201J0000000000000000000000000000CONSULTOR DE VENDAS 20100719TNE100000000202008172020070319710322N0000000000
M001SOLDI PROMOTORA DE VENDAS LTDA     0100003880000017124LUCIANA DO ESPIRITO SANTO ARAUJO   00LUCIANA DO ESPIRITO SANTO ARAUJO   LABCHECAP                          506865811034030163001200817000000000001691600000741580000731676000000000000000000000000000000000000000000000000000000000000000000000000000000000000000000000000000000000000000000710322200000000000000496388         000013503479000201J0000000000000000000000000000CONSULTOR DE VENDAS 20100719TNE100000000202008172020070319710322N0000000000
M001SOLDI PROMOTORA DE VENDAS LTDA     0100003880000017124LUCIANA DO ESPIRITO SANTO ARAUJO   00LUCIANA DO ESPIRITO SANTO ARAUJO   LABCHECAP                          506865811034030204001200817000000000001691600000741580000731676000000000000000000000000000000000000000000000000000000000000000000000000000000000000000000000000000000000000000000710322200000000000000496388         000013503479000201J0000000000000000000000000000CONSULTOR DE VENDAS 20100719TNE100000000202008172020070319710322N0000000000
M001SOLDI PROMOTORA DE VENDAS LTDA     0100003880000017124LUCIANA DO ESPIRITO SANTO ARAUJO   00LUCIANA DO ESPIRITO SANTO ARAUJO   LABCHECAP                          506865811034030436101200817000000000003621600000741580000731676000000000000000000000000000000000000000000000000000000000000000000000000000000000000000000000000000000000000000000710322200000000000001062388         000013503479000201J0000000000000000000000000000CONSULTOR DE VENDAS 20100719TNE100000000202008172020070319710322N0000000000
M001SOLDI PROMOTORA DE VENDAS LTDA     0100003880000017124LUCIANA DO ESPIRITO SANTO ARAUJO   00LUCIANA DO ESPIRITO SANTO ARAUJO   HOSPITAL SAO RAFAEL                606867250204100107901200818000000000123041600000741580000100803000000000000000000000000000000000000000000000000000000000000000000000000000000000000000000000000000000000000000000710322200000000000036026388         000027372066000169J0000000000000000000000000000CONSULTOR DE VENDAS 20100719TNE100000000202008182020070919710322N0000000000
M001SOLDI PROMOTORA DE VENDAS LTDA     0100003880000017124LUCIANA DO ESPIRITO SANTO ARAUJO   00LUCIANA DO ESPIRITO SANTO ARAUJO   ITAIGARA MEMORIAL HOSPITAL DIA     3   F2EERQ10000000200200821000000000050290000000741580000248312000000000000000000000000000000000000000000000000000000502900000000000000000000000000000000000000000000000000000000710322200000000000014726388         000001519101000136J0000000000000000000000000000CONSULTOR DE VENDAS 20100719TNE100000000202008212020030519710322N0000000000
M001SOLDI PROMOTORA DE VENDAS LTDA     0100003880000017124LUCIANA DO ESPIRITO SANTO ARAUJO   00LUCIANA DO ESPIRITO SANTO ARAUJO   CLION                              206860354673401999101200825000000000051230000000741580000599646000000000000000000000000000000000000000000000000000000000000000000000000000000000000000000000000000000000000000000710322200000000000015000388         000013501218000171J0000000000000000000000000000CONSULTOR DE VENDAS 20100719TNE100000000202008252020062519710322N0000000000
M001SOLDI PROMOTORA DE VENDAS LTDA     0100003880000017124LUCIANA DO ESPIRITO SANTO ARAUJO   00LUCIANA DO ESPIRITO SANTO ARAUJO   CLION                              206860354673401999501200825000000000068300000000741580000599646000000000000000000000000000000000000000000000000000000000000000000000000000000000000000000000000000000000000000000710322200000000000020000388         000013501218000171J0000000000000000000000000000CONSULTOR DE VENDAS 20100719TNE100000000202008252020062519710322N0000000000
M001SOLDI PROMOTORA DE VENDAS LTDA     0100003880000017124LUCIANA DO ESPIRITO SANTO ARAUJO   00LUCIANA DO ESPIRITO SANTO ARAUJO   CLION                              206860354672010429401200825000000000060011600000741580000599646000000000000000000000000000000000000000000000000000000000000000000000000000000000000000000000000000000000000000000710322200000000000017573388         000013501218000171J0000000000000000000000000000CONSULTOR DE VENDAS 20100719TNE100000000202008252020062519710322N0000000000
M001SOLDI PROMOTORA DE VENDAS LTDA     0100003880000017124LUCIANA DO ESPIRITO SANTO ARAUJO   00LUCIANA DO ESPIRITO SANTO ARAUJO   CLION                              206860354673401999201200825000000002153250000000741580000599646000000000000000000000000000000000000000000000000000000000000000000000000000000000000000000000000000000000000000000710322200000000000630455388         000013501218000171J0000000000000000000000000000CONSULTOR DE VENDAS 20100719TNE100000000202008252020062519710322N0000000000
M001SOLDI PROMOTORA DE VENDAS LTDA     0100004000000017132JACIRA SOFIA DOS SANTOS            00JACIRA SOFIA DOS SANTOS            LABOCLIN                           506857480764032455901200804000000000011831600000741580000014877000000000000000000000000000000000000000000000000000000000000000000000000000000000000000000000000000000000000000000700303200000000000003466400         000013551767000150J0000000000000000000000000000AUXILIAR DE SERVICOS20100722TNE100000000202008042020052819700303N0000000000
M001SOLDI PROMOTORA DE VENDAS LTDA     0100004000000017132JACIRA SOFIA DOS SANTOS            00JACIRA SOFIA DOS SANTOS            LABOCLIN                           506857480764032417601200804000000000023201600000741580000014877000000000000000000000000000000000000000000000000000000000000000000000000000000000000000000000000000000000000000000700303200000000000006795400         000013551767000150J0000000000000000000000000000AUXILIAR DE SERVICOS20100722TNE100000000202008042020052819700303N0000000000
M001SOLDI PROMOTORA DE VENDAS LTDA     0100004000000017132JACIRA SOFIA DOS SANTOS            00JACIRA SOFIA DOS SANTOS            LABOCLIN                           506857480764032456701200804000000000011831600000741580000014877000000000000000000000000000000000000000000000000000000000000000000000000000000000000000000000000000000000000000000700303200000000000003466400         000013551767000150J0000000000000000000000000000AUXILIAR DE SERVICOS20100722TNE100000000202008042020052819700303N0000000000
M001SOLDI PROMOTORA DE VENDAS LTDA     0100004180000180010DANIELLE BARBOSA DUARTE            00DANIELLE BARBOSA DUARTE            LABORATORIO SAO MARCOS             506863299484031021301200813000000000003191600000741580000272132000000000000000000000000000000000000000000000000000000000000000000000000000000000000000000000000000000000000000000830513200000000000000936418         000016740086000129J0000000000000000000000000000CONSULTOR DE VENDAS 20111020TNE100000000202008132020061919830513N0000000000
M001SOLDI PROMOTORA DE VENDAS LTDA     0100004180000180010DANIELLE BARBOSA DUARTE            00DANIELLE BARBOSA DUARTE            LABORATORIO SAO MARCOS             506863299474030436101200813000000000003201600000741580000272132000000000000000000000000000000000000000000000000000000000000000000000000000000000000000000000000000000000000000000830513200000000000000939418         000016740086000129J0000000000000000000000000000CONSULTOR DE VENDAS 20111020TNE100000000202008132020061919830513N0000000000
M001SOLDI PROMOTORA DE VENDAS LTDA     0100004180000180010DANIELLE BARBOSA DUARTE            00DANIELLE BARBOSA DUARTE            LABORATORIO SAO MARCOS             506863299474030463901200813000000000001601600000741580000272132000000000000000000000000000000000000000000000000000000000000000000000000000000000000000000000000000000000000000000830513200000000000000470418         000016740086000129J0000000000000000000000000000CONSULTOR DE VENDAS 20111020TNE100000000202008132020061919830513N0000000000
M001SOLDI PROMOTORA DE VENDAS LTDA     0100004180000180010DANIELLE BARBOSA DUARTE            00DANIELLE BARBOSA DUARTE            LABORATORIO SAO MARCOS             506863299474030242301200813000000000001491600000741580000272132000000000000000000000000000000000000000000000000000000000000000000000000000000000000000000000000000000000000000000830513200000000000000438418         000016740086000129J0000000000000000000000000000CONSULTOR DE VENDAS 20111020TNE100000000202008132020061919830513N0000000000
M001SOLDI PROMOTORA DE VENDAS LTDA     0100004180000180010DANIELLE BARBOSA DUARTE            00DANIELLE BARBOSA DUARTE            LABORATORIO SAO MARCOS             506863299474030231801200813000000000001491600000741580000272132000000000000000000000000000000000000000000000000000000000000000000000000000000000000000000000000000000000000000000830513200000000000000438418         000016740086000129J0000000000000000000000000000CONSULTOR DE VENDAS 20111020TNE100000000202008132020061919830513N0000000000
M001SOLDI PROMOTORA DE VENDAS LTDA     0100004180000180010DANIELLE BARBOSA DUARTE            00DANIELLE BARBOSA DUARTE            LABORATORIO SAO MARCOS             506863299474030459001200813000000000001601600000741580000272132000000000000000000000000000000000000000000000000000000000000000000000000000000000000000000000000000000000000000000830513200000000000000470418         000016740086000129J0000000000000000000000000000CONSULTOR DE VENDAS 20111020TNE100000000202008132020061919830513N0000000000
M001SOLDI PROMOTORA DE VENDAS LTDA     0100004180000180010DANIELLE BARBOSA DUARTE            00DANIELLE BARBOSA DUARTE            LABORATORIO SAO MARCOS             506863299474030155901200813000000000001491600000741580000272132000000000000000000000000000000000000000000000000000000000000000000000000000000000000000000000000000000000000000000830513200000000000000438418         000016740086000129J0000000000000000000000000000CONSULTOR DE VENDAS 20111020TNE100000000202008132020061919830513N0000000000
M001SOLDI PROMOTORA DE VENDAS LTDA     0100004180000180010DANIELLE BARBOSA DUARTE            00DANIELLE BARBOSA DUARTE            LABORATORIO SAO MARCOS             506863299474030141901200813000000000002121600000741580000272132000000000000000000000000000000000000000000000000000000000000000000000000000000000000000000000000000000000000000000830513200000000000000623418         000016740086000129J0000000000000000000000000000CONSULTOR DE VENDAS 20111020TNE100000000202008132020061919830513N0000000000
M001SOLDI PROMOTORA DE VENDAS LTDA     0100004180000180010DANIELLE BARBOSA DUARTE            00DANIELLE BARBOSA DUARTE            LABORATORIO SAO MARCOS             506863299474030223701200813000000000001711600000741580000272132000000000000000000000000000000000000000000000000000000000000000000000000000000000000000000000000000000000000000000830513200000000000000501418         000016740086000129J0000000000000000000000000000CONSULTOR DE VENDAS 20111020TNE100000000202008132020061919830513N0000000000
M001SOLDI PROMOTORA DE VENDAS LTDA     0100004180000180010DANIELLE BARBOSA DUARTE            00DANIELLE BARBOSA DUARTE            LABORATORIO SAO MARCOS             506863299474031121001200813000000000001491600000741580000272132000000000000000000000000000000000000000000000000000000000000000000000000000000000000000000000000000000000000000000830513200000000000000438418         000016740086000129J0000000000000000000000000000CONSULTOR DE VENDAS 20111020TNE100000000202008132020061919830513N0000000000
M001SOLDI PROMOTORA DE VENDAS LTDA     0100004180000180010DANIELLE BARBOSA DUARTE            01LARISSA ANTONELLA DUARTE NUNES     AXIAL MEDICINA DIAGNOSTICA         506866744808433011201200820000000000040980000000741580000741779000000000000000000000000000000000000000000000000000000000000000000000000000000000000000000000000000000000000000000051218220000000000012000418         010042771949000640J0000000000000000000000000000CONSULTOR DE VENDAS 20111020TNE100000000202008202020070620051218N0000000000
M001SOLDI PROMOTORA DE VENDAS LTDA     0100005070008800211GLAUBER LARANJEIRA DO NASCIMENTO   01AMELIA FATIMA FERREIRA NASCIMENTO  NOVA DIAGNOSTICO POR IMAGEM        506859521684090111401200806000000000015141600000741580000618179000000000000000000000000000000000000000000000000000000000000000000000000000000000000000000000000000000000000000000881003210000000000004435507         010004489715000100J0000000000000000000000000000SUPERVISOR DE VENDAS20111002TNE100000000202008062020061319881003N0000000000
M001SOLDI PROMOTORA DE VENDAS LTDA     0100005070008800211GLAUBER LARANJEIRA DO NASCIMENTO   01AMELIA FATIMA FERREIRA NASCIMENTO  NOVA DIAGNOSTICO POR IMAGEM        506859521694090112201200806000000000044091600000741580000618179000000000000000000000000000000000000000000000000000000000000000000000000000000000000000000000000000000000000000000881003210000000000012911507         010004489715000100J0000000000000000000000000000SUPERVISOR DE VENDAS20111002TNE100000000202008062020061319881003N0000000000
M001SOLDI PROMOTORA DE VENDAS LTDA     0100005070008800211GLAUBER LARANJEIRA DO NASCIMENTO   01AMELIA FATIMA FERREIRA NASCIMENTO  NOVA DIAGNOSTICO POR IMAGEM        506859521704090121101200806000000000015141600000741580000618179000000000000000000000000000000000000000000000000000000000000000000000000000000000000000000000000000000000000000000881003210000000000004435507         010004489715000100J0000000000000000000000000000SUPERVISOR DE VENDAS20111002TNE100000000202008062020061319881003N0000000000
M001SOLDI PROMOTORA DE VENDAS LTDA     0100005070008800211GLAUBER LARANJEIRA DO NASCIMENTO   01AMELIA FATIMA FERREIRA NASCIMENTO  LAB DE PESQUISAS MEDICAS           506860367014030163001200807000000000001691600000741580000610232000000000000000000000000000000000000000000000000000000000000000000000000000000000000000000000000000000000000000000881003210000000000000496507         010000276970000114J0000000000000000000000000000SUPERVISOR DE VENDAS20111002TNE100000000202008072020060919881003N0000000000
M001SOLDI PROMOTORA DE VENDAS LTDA     0100005070008800211GLAUBER LARANJEIRA DO NASCIMENTO   01AMELIA FATIMA FERREIRA NASCIMENTO  LAB DE PESQUISAS MEDICAS           506860367014030204001200807000000000001691600000741580000610232000000000000000000000000000000000000000000000000000000000000000000000000000000000000000000000000000000000000000000881003210000000000000496507         010000276970000114J0000000000000000000000000000SUPERVISOR DE VENDAS20111002TNE100000000202008072020060919881003N0000000000
M001SOLDI PROMOTORA DE VENDAS LTDA     0100005070008800211GLAUBER LARANJEIRA DO NASCIMENTO   01AMELIA FATIMA FERREIRA NASCIMENTO  LAB DE PESQUISAS MEDICAS           506860367014030258001200807000000000001691600000741580000610232000000000000000000000000000000000000000000000000000000000000000000000000000000000000000000000000000000000000000000881003210000000000000496507         010000276970000114J0000000000000000000000000000SUPERVISOR DE VENDAS20111002TNE100000000202008072020060919881003N0000000000
M001SOLDI PROMOTORA DE VENDAS LTDA     0100005070008800211GLAUBER LARANJEIRA DO NASCIMENTO   01AMELIA FATIMA FERREIRA NASCIMENTO  LAB DE PESQUISAS MEDICAS           506860367014030436101200807000000000003621600000741580000610232000000000000000000000000000000000000000000000000000000000000000000000000000000000000000000000000000000000000000000881003210000000000001062507         010000276970000114J0000000000000000000000000000SUPERVISOR DE VENDAS20111002TNE100000000202008072020060919881003N0000000000
M001SOLDI PROMOTORA DE VENDAS LTDA     0100005070008800211GLAUBER LARANJEIRA DO NASCIMENTO   01AMELIA FATIMA FERREIRA NASCIMENTO  LAB DE PESQUISAS MEDICAS           506860367014030459001200807000000000001811600000741580000610232000000000000000000000000000000000000000000000000000000000000000000000000000000000000000000000000000000000000000000881003210000000000000531507         010000276970000114J0000000000000000000000000000SUPERVISOR DE VENDAS20111002TNE100000000202008072020060919881003N0000000000
M001SOLDI PROMOTORA DE VENDAS LTDA     0100005070008800211GLAUBER LARANJEIRA DO NASCIMENTO   01AMELIA FATIMA FERREIRA NASCIMENTO  LAB DE PESQUISAS MEDICAS           506860367014030463901200807000000000001811600000741580000610232000000000000000000000000000000000000000000000000000000000000000000000000000000000000000000000000000000000000000000881003210000000000000531507         010000276970000114J0000000000000000000000000000SUPERVISOR DE VENDAS20111002TNE100000000202008072020060919881003N0000000000
M001SOLDI PROMOTORA DE VENDAS LTDA     0100005070008800211GLAUBER LARANJEIRA DO NASCIMENTO   01AMELIA FATIMA FERREIRA NASCIMENTO  LAB DE PESQUISAS MEDICAS           506860367014030492201200807000000000004221600000741580000610232000000000000000000000000000000000000000000000000000000000000000000000000000000000000000000000000000000000000000000881003210000000000001237507         010000276970000114J0000000000000000000000000000SUPERVISOR DE VENDAS20111002TNE100000000202008072020060919881003N0000000000
M001SOLDI PROMOTORA DE VENDAS LTDA     0100005070008800211GLAUBER LARANJEIRA DO NASCIMENTO   01AMELIA FATIMA FERREIRA NASCIMENTO  LAB DE PESQUISAS MEDICAS           506860367014031121001200807000000000001691600000741580000610232000000000000000000000000000000000000000000000000000000000000000000000000000000000000000000000000000000000000000000881003210000000000000496507         010000276970000114J0000000000000000000000000000SUPERVISOR DE VENDAS20111002TNE100000000202008072020060919881003N0000000000
M001SOLDI PROMOTORA DE VENDAS LTDA     0100005070008800211GLAUBER LARANJEIRA DO NASCIMENTO   01AMELIA FATIMA FERREIRA NASCIMENTO  HOSPITAL DAS NEVES                 206865472088400040601200817000000000112700000000741580000432911000000000000000000000000000000000000000000000000000000000000000000000000000000000000000000000000000000000000000000881003210000000000033000507         010001817749000199J0000000000000000000000000000SUPERVISOR DE VENDAS20111002TNE100000000202008172020070119881003N0000000000
M001SOLDI PROMOTORA DE VENDAS LTDA     0100005070008800211GLAUBER LARANJEIRA DO NASCIMENTO   03ARTHUR FERREIRA NASCIMENTO         GLAUBER LARANJEIRA DO NASCIMENTO   200041495063401999514200817000000000799200000000741580000000000000000000000000000000000000000000000000000000000000000000000000000000000000000000000000000000000000000000000000000170819129900000000234000507         030000000000000000 0000000000000000000000000000SUPERVISOR DE VENDAS20111002TNE100000000202008172020070120170819N0000234000
M001SOLDI PROMOTORA DE VENDAS LTDA     0100005070008800211GLAUBER LARANJEIRA DO NASCIMENTO   03ARTHUR FERREIRA NASCIMENTO         GLAUBER LARANJEIRA DO NASCIMENTO   200041495073401999520200817000000001352490000000741580000000000000000000000000000000000000000000000000000000000000000000000000000000000000000000000000000000000000000000000000000170819129900000000396000507         030000000000000000 0000000000000000000000000000SUPERVISOR DE VENDAS20111002TNE100000000202008172020070120170819N0000396000
M001SOLDI PROMOTORA DE VENDAS LTDA     0100005070008800211GLAUBER LARANJEIRA DO NASCIMENTO   03ARTHUR FERREIRA NASCIMENTO         GLAUBER LARANJEIRA DO NASCIMENTO   200041495885000061615200817000000000717231600000741580000000000000000000000000000000000000000000000000000000000000000000000000000000000000000000000000000000000000000000000000000170819129900000000210000507         030000000000000000 0000000000000000000000000000SUPERVISOR DE VENDAS20111002TNE100000000202008172020070120170819N0000210000
M001SOLDI PROMOTORA DE VENDAS LTDA     0100005070008800211GLAUBER LARANJEIRA DO NASCIMENTO   03ARTHUR FERREIRA NASCIMENTO         GLAUBER LARANJEIRA DO NASCIMENTO   200041494815000047005200817000000000597691600000741580000000000000000000000000000000000000000000000000000000000000000000000000000000000000000000000000000000000000000000000000000170819129900000000175000507         030000000000000000 0000000000000000000000000000SUPERVISOR DE VENDAS20111002TNE100000000202008172020070320170819N0000175000
M001SOLDI PROMOTORA DE VENDAS LTDA     0100005070008800211GLAUBER LARANJEIRA DO NASCIMENTO   03ARTHUR FERREIRA NASCIMENTO         GLAUBER LARANJEIRA DO NASCIMENTO   200041766815000008008200819000000000355201600000741580000000000000000000000000000000000000000000000000000000000000000000000000000000000000000000000000000000000000000000000000000170819129900000000104000507         030000000000000000 0000000000000000000000000000SUPERVISOR DE VENDAS20111002TNE100000000202008192020071420170819N0000104000
M001SOLDI PROMOTORA DE VENDAS LTDA     0100005070008800211GLAUBER LARANJEIRA DO NASCIMENTO   01AMELIA FATIMA FERREIRA NASCIMENTO  CL OTORRINO LEONARDO F SILVA       106868391061010101201200821000000000034151600000741580000050695000000000000000000000000000000000000000000000000000000000000000000000000000000000000000000000000000000000000000000881003210000000000010000507         010004165758000130J0000000000000000000000000000SUPERVISOR DE VENDAS20111002TNE100000000202008212020061619881003N0000000000
M001SOLDI PROMOTORA DE VENDAS LTDA     0100005070008800211GLAUBER LARANJEIRA DO NASCIMENTO   01AMELIA FATIMA FERREIRA NASCIMENTO  CL OTORRINO LEONARDO F SILVA       506868391064010101001200821000000000007301600000741580000050695000000000000000000000000000000000000000000000000000000000000000000000000000000000000000000000000000000000000000000881003210000000000002138507         010004165758000130J0000000000000000000000000000SUPERVISOR DE VENDAS20111002TNE100000000202008212020061619881003N0000000000
M001SOLDI PROMOTORA DE VENDAS LTDA     0100005070008800211GLAUBER LARANJEIRA DO NASCIMENTO   01AMELIA FATIMA FERREIRA NASCIMENTO  COOPECIR                           4   FDS3LV53100905000200826000000000031481600000741580000215198000000000000000000000000000000000000000000000000000000000000000000000000000000000000000000000000000000000000000000881003210000000000009219507         010001236433000103J0000000000000000000000000000SUPERVISOR DE VENDAS20111002TNE100000000202008262020070319881003N0000000000
M001SOLDI PROMOTORA DE VENDAS LTDA     0100005070008800211GLAUBER LARANJEIRA DO NASCIMENTO   01AMELIA FATIMA FERREIRA NASCIMENTO  COPANEST                           4   FDS3LV53100905000200826000000000098791600000741580000203629000000000000000000000000000000000000000000000000000000000000000000000000000000000000000000000000000000000000000000881003210000000000028927507         010035491356000150J0000000000000000000000000000SUPERVISOR DE VENDAS20111002TNE100000000202008262020070319881003N0000000000
M001SOLDI PROMOTORA DE VENDAS LTDA     0100005070008800211GLAUBER LARANJEIRA DO NASCIMENTO   01AMELIA FATIMA FERREIRA NASCIMENTO  COOPECIR                           100184781311010101200200827000000000036541600000741580000215198000000000000000000000000000000000000000000000000000000000000000000000000000000000000000000000000000000000000000000881003210000000000010700507         010001236433000103J0000000000000000000000000000SUPERVISOR DE VENDAS20111002TNE100000000202008272020060319881003N0000000000
M001SOLDI PROMOTORA DE VENDAS LTDA     0100005740008800592ALINIR PEREIRA DE ALMEIDA          02AGATHA ALMEIDA PAVAO               ESPACO CLINICO                     191407460161010614600200804000000000054111600000741580000964590000000000000000000000000000000000000000000000000000000000000000000000000000000000000000000000000000000000000000000190606220000000000015844574         020015088232000110J0000000000000000000000000000CONSULTOR DE VENDAS 20120206TNE100000000202008042020033120190606N0000000000
M001SOLDI PROMOTORA DE VENDAS LTDA     0100005740008800592ALINIR PEREIRA DE ALMEIDA          01MAGNO ALEXANDRE SANTOS PAVAO       DERMAGASTRO                        101155964871010101200200812000000000034151600000741580000500102000000000000000000000000000000000000000000000000000000000000000000000000000000000000000000000000000000000000000000730826110000000000010000574         010006328836000104J0000000000000000000000000000CONSULTOR DE VENDAS 20120206TNE100000000202008122020070319730826N0000000000
M001SOLDI PROMOTORA DE VENDAS LTDA     0100005740008800592ALINIR PEREIRA DE ALMEIDA          02AGATHA ALMEIDA PAVAO               CEOF                               100184173151010101200200820000000000034151600000741580000650099000000000000000000000000000000000000000000000000000000000000000000000000000000000000000000000000000000000000000000190606220000000000010000574         020003119645000136J0000000000000000000000000000CONSULTOR DE VENDAS 20120206TNE100000000202008202020070820190606N0000000000
M001SOLDI PROMOTORA DE VENDAS LTDA     0100006390008800606ERICA FRANCISCA DA SILVA           02ARTHUR ALMEIDA DA SILVA            ANITA MACIEL BEZERRA CAVALCANTI    191191031441010101200200804000000000034151600000741580031152400000000000000000000000000000000000000000000000000000000000000000000000000000000000000000000000000000000000000000000180619123100000000010000639         020000023452463400F0000000000000000000000000000ASSISTENTE OPERACION20120903TNE100000000202008042020072020180619N0000000000
M001SOLDI PROMOTORA DE VENDAS LTDA     0100006630000880061JESSICA LUISE TEXEIRA DE OLIVEIRA  00JESSICA LUISE TEXEIRA DE OLIVEIRA  CLIN DR RENATO T RODRIGUES         101227354881010101200200806000000000034151600000741580000647829000000000000000000000000000000000000000000000000000000000000000000000000000000000000000000000000000000000000000000900822100000000000010000663         000036174753000160J0000000000000000000000000000CONSULTOR DE VENDAS 20111103TNE100000000202008062020061019900822N0000000000
M001SOLDI PROMOTORA DE VENDAS LTDA     0100007100008800614SOLIMAR EULALIO DA SILVA LOPES     00SOLIMAR EULALIO DA SILVA LOPES     ULTRA SONOGRAFIA OMNIMAGEM         506864424494090112201200814000000000043941600000741580000142875000000000000000000000000000000000000000000000000000000000000000000000000000000000000000000000000000000000000000000720917200000000000012866710         000007138068000180J0000000000000000000000000000CONSULTOR DE VENDAS 20121217TNE100000000202008142020061719720917N0000000000
M001SOLDI PROMOTORA DE VENDAS LTDA     0100007100008800614SOLIMAR EULALIO DA SILVA LOPES     00SOLIMAR EULALIO DA SILVA LOPES     COOPEND                            206871709558423088601200827000000000017210000000741580000782335000000000000000000000000000000000000000000000000000000000000000000000000000000000000000000000000000000000000000000720917200000000000005040710         000001540765000187J0000000000000000000000000000CONSULTOR DE VENDAS 20121217TNE100000000202008272020071119720917N0000000000
M001SOLDI PROMOTORA DE VENDAS LTDA     0100007360008800622ROSELENE SANTOS FERREIRA           00ROSELENE SANTOS FERREIRA           CUC                                100182137971010101200200804000000000034151600000741580000589702000000000000000000000000000000000000000000000000000000000000000000000000000000000000000000000000000000000000000000820729200000000000010000736         000022672929000108J0000000000000000000000000000CONSULTOR DE VENDAS 20130218TNE100000000202008042020070919820729N0000000000
M001SOLDI PROMOTORA DE VENDAS LTDA     0100007360008800622ROSELENE SANTOS FERREIRA           00ROSELENE SANTOS FERREIRA           HOSP DE ENDOSCOPIA DIG RAMIRO MASCA206868107498423018501200820000000000267780000000741580000695572000000000000000000000000000000000000000000000000000000000000000000000000000000000000000000000000000000000000000000820729200000000000078406736         000009631428000107J0000000000000000000000000000CONSULTOR DE VENDAS 20130218TNE100000000202008202020071119820729N0000000000
M001SOLDI PROMOTORA DE VENDAS LTDA     0100007360008800622ROSELENE SANTOS FERREIRA           00ROSELENE SANTOS FERREIRA           COPANEST BA                        106868460931010101201200821000000000034151600000741580000097420000000000000000000000000000000000000000000000000000000000000000000000000000000000000000000000000000000000000000000820729200000000000010000736         000013792965000106J0000000000000000000000000000CONSULTOR DE VENDAS 20130218TNE100000000202008212020070819820729N0000000000
M001SOLDI PROMOTORA DE VENDAS LTDA     0100007360008800622ROSELENE SANTOS FERREIRA           00ROSELENE SANTOS FERREIRA           COPANEST BA                        206870607204020255001200825000000000086781600000741580000097420000000000000000000000000000000000000000000000000000000000000000000000000000000000000000000000000000000000000000000820729200000000000025411736         000013792965000106J0000000000000000000000000000CONSULTOR DE VENDAS 20130218TNE100000000202008252020071119820729N0000000000
M001SOLDI PROMOTORA DE VENDAS LTDA     0100007360008800622ROSELENE SANTOS FERREIRA           00ROSELENE SANTOS FERREIRA           COPANEST BA                        506870607204020261501200825000000000173571600000741580000097420000000000000000000000000000000000000000000000000000000000000000000000000000000000000000000000000000000000000000000820729200000000000050822736         000013792965000106J0000000000000000000000000000CONSULTOR DE VENDAS 20130218TNE100000000202008252020071119820729N0000000000
M001SOLDI PROMOTORA DE VENDAS LTDA     0100007520008800623CREUZA GONCALVES DOS SANTOS        00CREUZA GONCALVES DOS SANTOS        HOSPITAL ORTOPEDICO                106869157091010101201200824000000000034151600000741580000103102000000000000000000000000000000000000000000000000000000000000000000000000000000000000000000000000000000000000000000620406200000000000010000752         000017693789000106J0000000000000000000000000000CONSULTOR DE VENDAS 20130304TNE100000000202008242020063019620406N0000000000
M001SOLDI PROMOTORA DE VENDAS LTDA     0100008250008800630JANAINA SILVA LEITE                02MARIA EDUARDA LEITE SANTOS         COLPOS                             506859716534090118101200806000000000008361600000741580000945137000000000000000000000000000000000000000000000000000000000000000000000000000000000000000000000000000000000000000000030705220000000000002450825         020051432805000145J0000000000000000000000000000CONSULTOR DE VENDAS 20130506TNE100000000202008062020061220030705N0000000000
M001SOLDI PROMOTORA DE VENDAS LTDA     0100008250008800630JANAINA SILVA LEITE                00JANAINA SILVA LEITE                COLPOS                             506859716544090130001200806000000000020481600000741580000945137000000000000000000000000000000000000000000000000000000000000000000000000000000000000000000000000000000000000000000800425200000000000005998825         000051432805000145J0000000000000000000000000000CONSULTOR DE VENDAS 20130506TNE100000000202008062020061219800425N0000000000
M001SOLDI PROMOTORA DE VENDAS LTDA     0100008250008800630JANAINA SILVA LEITE                00JANAINA SILVA LEITE                COLPOS                             506859716514060113701200806000000000008441600000741580000945137000000000000000000000000000000000000000000000000000000000000000000000000000000000000000000000000000000000000000000800425200000000000002473825         000051432805000145J0000000000000000000000000000CONSULTOR DE VENDAS 20130506TNE100000000202008062020061219800425N0000000000
M001SOLDI PROMOTORA DE VENDAS LTDA     0100008250008800630JANAINA SILVA LEITE                02MARIA EDUARDA LEITE SANTOS         COLPOS                             506859716534090111401200806000000000017421600000741580000945137000000000000000000000000000000000000000000000000000000000000000000000000000000000000000000000000000000000000000000030705220000000000005102825         020051432805000145J0000000000000000000000000000CONSULTOR DE VENDAS 20130506TNE100000000202008062020061220030705N0000000000
M001SOLDI PROMOTORA DE VENDAS LTDA     0100008250008800630JANAINA SILVA LEITE                02MARIA EDUARDA LEITE SANTOS         A E M SERVICOS MEDICOS             100182679091010101200200810000000000034151600000741580000326895000000000000000000000000000000000000000000000000000000000000000000000000000000000000000000000000000000000000000000030705220000000000010000825         020004011033000198J0000000000000000000000000000CONSULTOR DE VENDAS 20130506TNE100000000202008102020072720030705N0000000000
M001SOLDI PROMOTORA DE VENDAS LTDA     0100008250008800630JANAINA SILVA LEITE                00JANAINA SILVA LEITE                A E M SERVICOS MEDICOS             100182679081010101200200810000000000034151600000741580000326895000000000000000000000000000000000000000000000000000000000000000000000000000000000000000000000000000000000000000000800425200000000000010000825         000004011033000198J0000000000000000000000000000CONSULTOR DE VENDAS 20130506TNE100000000202008102020072719800425N0000000000
M001SOLDI PROMOTORA DE VENDAS LTDA     0100008250008800630JANAINA SILVA LEITE                00JANAINA SILVA LEITE                CL SALES ATENDIMENTO EM SAUDE MENTA206870440758425063101200825000000000015930000000741580000772602000000000000000000000000000000000000000000000000000000000000000000000000000000000000000000000000000000000000000000800425200000000000004665825         000033812465000104J0000000000000000000000000000CONSULTOR DE VENDAS 20130506TNE100000000202008252020061719800425N0000000000
M001SOLDI PROMOTORA DE VENDAS LTDA     0100008250008800630JANAINA SILVA LEITE                00JANAINA SILVA LEITE                CL SALES ATENDIMENTO EM SAUDE MENTA206870440758425064001200825000000000014500000000741580000772602000000000000000000000000000000000000000000000000000000000000000000000000000000000000000000000000000000000000000000800425200000000000004246825         000033812465000104J0000000000000000000000000000CONSULTOR DE VENDAS 20130506TNE100000000202008252020061719800425N0000000000
M001SOLDI PROMOTORA DE VENDAS LTDA     0100008250008800630JANAINA SILVA LEITE                02MARIA EDUARDA LEITE SANTOS         CL SALES ATENDIMENTO EM SAUDE MENTA206870440698425063101200825000000000015930000000741580000772602000000000000000000000000000000000000000000000000000000000000000000000000000000000000000000000000000000000000000000030705220000000000004665825         020033812465000104J0000000000000000000000000000CONSULTOR DE VENDAS 20130506TNE100000000202008252020061720030705N0000000000
M001SOLDI PROMOTORA DE VENDAS LTDA     0100008250008800630JANAINA SILVA LEITE                02MARIA EDUARDA LEITE SANTOS         CL SALES ATENDIMENTO EM SAUDE MENTA206870440698425064001200825000000000014500000000741580000772602000000000000000000000000000000000000000000000000000000000000000000000000000000000000000000000000000000000000000000030705220000000000004246825         020033812465000104J0000000000000000000000000000CONSULTOR DE VENDAS 20130506TNE100000000202008252020061720030705N0000000000
M001SOLDI PROMOTORA DE VENDAS LTDA     0100008250008800630JANAINA SILVA LEITE                02MARIA EDUARDA LEITE SANTOS         CL SALES ATENDIMENTO EM SAUDE MENTA206870440698425064001200825000000000014500000000741580000772602000000000000000000000000000000000000000000000000000000000000000000000000000000000000000000000000000000000000000000030705220000000000004246825         020033812465000104J0000000000000000000000000000CONSULTOR DE VENDAS 20130506TNE100000000202008252020061720030705N0000000000
M001SOLDI PROMOTORA DE VENDAS LTDA     0100008250008800630JANAINA SILVA LEITE                01PALOMA LEITE SANTOS                HOSPITAL SINO BRASILEIRO           206872214548400101101200828000000000131790000000741580000426210000000000000000000000000000000000000000000000000000000000000000000000000000000000000000000000000000000000000000000991002220000000000038587825         010006047087007656J0000000000000000000000000000CONSULTOR DE VENDAS 20130506TNE100000000202008282020071419991002N0000000000
M001SOLDI PROMOTORA DE VENDAS LTDA     0100008500008800644VERONICA DE SOUZA BARROS SILVA     00VERONICA DE SOUZA BARROS SILVA     HOSPITAL LEFORTE - LIBERDADE       191177905151010101200200803000000000034151600000741580000388502000000000000000000000000000000000000000000000000000000000000000000000000000000000000000000000000000000000000000000760616200000000000010000850         000021371777000132J0000000000000000000000000000AUXILIAR DE SERVICOS20130701TNE100000000202008032020072119760616N0000000000
M001SOLDI PROMOTORA DE VENDAS LTDA     0100008500008800644VERONICA DE SOUZA BARROS SILVA     01MANUEL FRANCISCO BARROS SILVA      A+ MEDICINA DIAGNOSTICA            706859464684040392001200806000000000001061600000741580000575674000000000000000000000000000000000000000000000000000000000000000000000000000000000000000000000000000000000000000000661225110000000000000311850         010060840055010447J0000000000000000000000000000AUXILIAR DE SERVICOS20130701TNE100000000202008062020062919661225N0000000000
M001SOLDI PROMOTORA DE VENDAS LTDA     0100008500008800644VERONICA DE SOUZA BARROS SILVA     03MANOELA SOUZA SILVA                HOSPITAL METROPOLITANO             206862032348400040601200811000000000088790000000741580000406813000000000000000000000000000000000000000000000000000000000000000000000000000000000000000000000000000000000000000000990226220000000000025999850         030051722957012512J0000000000000000000000000000AUXILIAR DE SERVICOS20130701TNE100000000202008112020063019990226N0000000000
M001SOLDI PROMOTORA DE VENDAS LTDA     0100008500008800644VERONICA DE SOUZA BARROS SILVA     03MANOELA SOUZA SILVA                HOSPITAL ALBERT SABIN              206861793058400040601200811000000000095990000000741580000146110000000000000000000000000000000000000000000000000000000000000000000000000000000000000000000000000000000000000000000990226220000000000028107850         030062996640000150J0000000000000000000000000000AUXILIAR DE SERVICOS20130701TNE100000000202008112020062819990226N0000000000
M001SOLDI PROMOTORA DE VENDAS LTDA     0100009060008800647MARY ANNE CAVALCANTE SOARES        00MARY ANNE CAVALCANTE SOARES        CEDOF                              106859355141010101201200806000000000034151600000741580000422690000000000000000000000000000000000000000000000000000000000000000000000000000000000000000000000000000000000000000000790925200000000000010000906         000006247872000135J0000000000000000000000000000CONSULTOR DE VENDAS 20130805TNE100000000202008062020061919790925N0000000000
M001SOLDI PROMOTORA DE VENDAS LTDA     0100009060008800647MARY ANNE CAVALCANTE SOARES        00MARY ANNE CAVALCANTE SOARES        CEDOF                              506859354924020126001200806000000000038031600000741580000422690000000000000000000000000000000000000000000000000000000000000000000000000000000000000000000000000000000000000000000790925200000000000011137906         000006247872000135J0000000000000000000000000000CONSULTOR DE VENDAS 20130805TNE100000000202008062020062019790925N0000000000
M001SOLDI PROMOTORA DE VENDAS LTDA     0100009060008800647MARY ANNE CAVALCANTE SOARES        00MARY ANNE CAVALCANTE SOARES        CEDOF                              206859354923701000001200806000000000057370000000741580000422690000000000000000000000000000000000000000000000000000000000000000000000000000000000000000000000000000000000000000000790925200000000000016800906         000006247872000135J0000000000000000000000000000CONSULTOR DE VENDAS 20130805TNE100000000202008062020062019790925N0000000000
M001SOLDI PROMOTORA DE VENDAS LTDA     0100009060008800647MARY ANNE CAVALCANTE SOARES        00MARY ANNE CAVALCANTE SOARES        CEDOF                              206859354923020509301200806000000000050911600000741580000422690000000000000000000000000000000000000000000000000000000000000000000000000000000000000000000000000000000000000000000790925200000000000014906906         000006247872000135J0000000000000000000000000000CONSULTOR DE VENDAS 20130805TNE100000000202008062020062019790925N0000000000
M001SOLDI PROMOTORA DE VENDAS LTDA     0100009060008800647MARY ANNE CAVALCANTE SOARES        00MARY ANNE CAVALCANTE SOARES        HOSP ADVENTISTA DE MANAUS          606859946208436004601200807000000000204920000000741580000334138000000000000000000000000000000000000000000000000000000000000000000000000000000000000000000000000000000000000000000790925200000000000060000906         000083367342000767J0000000000000000000000000000CONSULTOR DE VENDAS 20130805TNE100000000202008072020062919790925N0000000000
M001SOLDI PROMOTORA DE VENDAS LTDA     0100009060008800647MARY ANNE CAVALCANTE SOARES        03HELOISA SOARES DA SILVA            MAGSCAN                            506866196794080112801200818000000000008351600000741580000021571000000000000000000000000000000000000000000000000000000000000000000000000000000000000000000000000000000000000000000170814220000000000002447906         030002733873000139J0000000000000000000000000000CONSULTOR DE VENDAS 20130805TNE100000000202008182020070320170814N0000000000
M001SOLDI PROMOTORA DE VENDAS LTDA     0100009060008800647MARY ANNE CAVALCANTE SOARES        03HELOISA SOARES DA SILVA            MAGSCAN                            506866196794080106301200818000000000008851600000741580000021571000000000000000000000000000000000000000000000000000000000000000000000000000000000000000000000000000000000000000000170814220000000000002592906         030002733873000139J0000000000000000000000000000CONSULTOR DE VENDAS 20130805TNE100000000202008182020070320170814N0000000000
M001SOLDI PROMOTORA DE VENDAS LTDA     0100009060008800647MARY ANNE CAVALCANTE SOARES        00MARY ANNE CAVALCANTE SOARES        CEDOF                              206869472633701000001200824000000000057370000000741580000422690000000000000000000000000000000000000000000000000000000000000000000000000000000000000000000000000000000000000000000790925200000000000016800906         000006247872000135J0000000000000000000000000000CONSULTOR DE VENDAS 20130805TNE100000000202008242020070719790925N0000000000
M001SOLDI PROMOTORA DE VENDAS LTDA     0100009060008800647MARY ANNE CAVALCANTE SOARES        00MARY ANNE CAVALCANTE SOARES        CEDOF                              506869472634020122801200824000000000031951600000741580000422690000000000000000000000000000000000000000000000000000000000000000000000000000000000000000000000000000000000000000000790925200000000000009355906         000006247872000135J0000000000000000000000000000CONSULTOR DE VENDAS 20130805TNE100000000202008242020070719790925N0000000000
M001SOLDI PROMOTORA DE VENDAS LTDA     0100009060008800647MARY ANNE CAVALCANTE SOARES        03HELOISA SOARES DA SILVA            CEDOF                              106869472701010101201200824000000000034151600000741580000422690000000000000000000000000000000000000000000000000000000000000000000000000000000000000000000000000000000000000000000170814220000000000010000906         030006247872000135J0000000000000000000000000000CONSULTOR DE VENDAS 20130805TNE100000000202008242020062720170814N0000000000
M001SOLDI PROMOTORA DE VENDAS LTDA     0100009060008800647MARY ANNE CAVALCANTE SOARES        00MARY ANNE CAVALCANTE SOARES        CEDOF                              506870242364010307201200825000000000008471600000741580000437778000000000000000000000000000000000000000000000000000000000000000000000000000000000000000000000000000000000000000000790925200000000000002480906         000006247872000135J0000000000000000000000000000CONSULTOR DE VENDAS 20130805TNE100000000202008252020062719790925N0000000000
M001SOLDI PROMOTORA DE VENDAS LTDA     0100009060008800647MARY ANNE CAVALCANTE SOARES        00MARY ANNE CAVALCANTE SOARES        CEDOF                              506870242364010309901200825000000000004231600000741580000437778000000000000000000000000000000000000000000000000000000000000000000000000000000000000000000000000000000000000000000790925200000000000001240906         000006247872000135J0000000000000000000000000000CONSULTOR DE VENDAS 20130805TNE100000000202008252020062719790925N0000000000
M001SOLDI PROMOTORA DE VENDAS LTDA     0100009060008800647MARY ANNE CAVALCANTE SOARES        00MARY ANNE CAVALCANTE SOARES        CEDOF                              506870242364010343901200825000000000011111600000741580000437778000000000000000000000000000000000000000000000000000000000000000000000000000000000000000000000000000000000000000000790925200000000000003255906         000006247872000135J0000000000000000000000000000CONSULTOR DE VENDAS 20130805TNE100000000202008252020062719790925N0000000000
M001SOLDI PROMOTORA DE VENDAS LTDA     0100009060008800647MARY ANNE CAVALCANTE SOARES        00MARY ANNE CAVALCANTE SOARES        CEDOF                              506870242364010306401200825000000000030551600000741580000437778000000000000000000000000000000000000000000000000000000000000000000000000000000000000000000000000000000000000000000790925200000000000008947906         000006247872000135J0000000000000000000000000000CONSULTOR DE VENDAS 20130805TNE100000000202008252020062719790925N0000000000
M001SOLDI PROMOTORA DE VENDAS LTDA     0100009060008800647MARY ANNE CAVALCANTE SOARES        03HELOISA SOARES DA SILVA            CEDOF                              506870242444010343901200825000000000011111600000741580000437778000000000000000000000000000000000000000000000000000000000000000000000000000000000000000000000000000000000000000000170814220000000000003255906         030006247872000135J0000000000000000000000000000CONSULTOR DE VENDAS 20130805TNE100000000202008252020070920170814N0000000000
M001SOLDI PROMOTORA DE VENDAS LTDA     0100009060008800647MARY ANNE CAVALCANTE SOARES        03HELOISA SOARES DA SILVA            CEDOF                              506870242444010346301200825000000000016491600000741580000437778000000000000000000000000000000000000000000000000000000000000000000000000000000000000000000000000000000000000000000170814220000000000004831906         030006247872000135J0000000000000000000000000000CONSULTOR DE VENDAS 20130805TNE100000000202008252020070920170814N0000000000
