HSINISTROS PAGOS074158201020103001000000001000000000000000000000000000000000000000000000000000000000000000000000000000000000000000000000000000000000000000000000000000000000000000000000000000000000000000000000000000000000000000000000000000000000000000000000000000000000000000000000000000000000000000000000000000000000000000000000000000000000000000000000000000000000000000000000000000000000000 012020102020103000000000000000000000000000000000000000000000000000000000000000000000000000000000000000000000
M001SOLDI PROMOTORA DE VENDAS LTDA     0100000190000110157PALOMA TATO RAMOS                  02DIEGO FERREIRA SOARES              SEMIU                              10689708580101010390120100500000000003415160000074158000027091100000000000000000000000000000000000000000000000000000000000000000000000000000000000000000000000000000000000000000084042311000000000001000019          020034165969000134J0000000000000000000000000000CONSULTOR DE VENDAS 20110503TNE100000000202010052020080719840423N0000000000
M001SOLDI PROMOTORA DE VENDAS LTDA     0100000190000110157PALOMA TATO RAMOS                  02DIEGO FERREIRA SOARES              SEMIU                              20689708580340199910120100500000000002463000000074158000027091100000000000000000000000000000000000000000000000000000000000000000000000000000000000000000000000000000000000000000084042311000000000000721219          020034165969000134J0000000000000000000000000000CONSULTOR DE VENDAS 20110503TNE100000000202010052020080719840423N0000000000
M001SOLDI PROMOTORA DE VENDAS LTDA     0100000190000110157PALOMA TATO RAMOS                  02DIEGO FERREIRA SOARES              SEMIU                              20689708580340199920120100500000000000420000000074158000027091100000000000000000000000000000000000000000000000000000000000000000000000000000000000000000000000000000000000000000084042311000000000000123219          020034165969000134J0000000000000000000000000000CONSULTOR DE VENDAS 20110503TNE100000000202010052020080719840423N0000000000
M001SOLDI PROMOTORA DE VENDAS LTDA     0100000190000110157PALOMA TATO RAMOS                  02DIEGO FERREIRA SOARES              SEMIU                              20689708580340199950120100500000000002420000000074158000027091100000000000000000000000000000000000000000000000000000000000000000000000000000000000000000000000000000000000000000084042311000000000000708719          020034165969000134J0000000000000000000000000000CONSULTOR DE VENDAS 20110503TNE100000000202010052020080719840423N0000000000
M001SOLDI PROMOTORA DE VENDAS LTDA     0100000190000110157PALOMA TATO RAMOS                  02DIEGO FERREIRA SOARES              SEMIU                              20689708580301017940120100500000000001444160000074158000027091100000000000000000000000000000000000000000000000000000000000000000000000000000000000000000000000000000000000000000084042311000000000000422819          020034165969000134J0000000000000000000000000000CONSULTOR DE VENDAS 20110503TNE100000000202010052020080719840423N0000000000
M001SOLDI PROMOTORA DE VENDAS LTDA     0100000190000110157PALOMA TATO RAMOS                  01ANTONIO CARLOS FRAGA DE JESUS      HOSPITAL SAO RAFAEL                10689338568101010120120100700000000003415160000074158000065700200000000000000000000000000000000000000000000000000000000000000000000000000000000000000000000000000000000000000000079061411000000000001000019          010027372066000169J0000000000000000000000000000CONSULTOR DE VENDAS 20110503TNE100000000202010072020080119790614N0000000000
M001SOLDI PROMOTORA DE VENDAS LTDA     0100000190000110157PALOMA TATO RAMOS                  01ANTONIO CARLOS FRAGA DE JESUS      HOSPITAL SAO RAFAEL                50689338568414015140120100700000000000463160000074158000065700200000000000000000000000000000000000000000000000000000000000000000000000000000000000000000000000000000000000000000079061411000000000000135719          010027372066000169J0000000000000000000000000000CONSULTOR DE VENDAS 20110503TNE100000000202010072020080119790614N0000000000
M001SOLDI PROMOTORA DE VENDAS LTDA     0100000190000110157PALOMA TATO RAMOS                  00PALOMA TATO RAMOS                  PALOMA TATO RAMOS                  20004696932500005600120100900000000002383160000074158000000000000000000000000000000000000000000000000000000000000000000000000000000000000000000000000000000000000000000000000000091032820990000000000697819          000000000000000000 0000000000000000000000000000CONSULTOR DE VENDAS 20110503TNE100000000202010092020090419910328N0000015000
M001SOLDI PROMOTORA DE VENDAS LTDA     0100000190000110157PALOMA TATO RAMOS                  00PALOMA TATO RAMOS                  DAY HOSPITAL                       3   FE5G7H6000000010020101400000000034396000000074158000020651200000000000037210000000000000000000000002456000000000033590000000000000000000000000000000000000000000000000002486091032820000000000010071119          000000173618000153J0000000000000000000000000000CONSULTOR DE VENDAS 20110503TNE100000000202010142020082019910328N0000000000
M001SOLDI PROMOTORA DE VENDAS LTDA     0100000190000110157PALOMA TATO RAMOS                  01ANTONIO CARLOS FRAGA DE JESUS      CLIVALE PROSAUDE IGUATEMI          50689971414403010870120101500000000000724160000074158000097437400000000000000000000000000000000000000000000000000000000000000000000000000000000000000000000000000000000000000000079061411000000000000212019          010033794132000272J0000000000000000000000000000CONSULTOR DE VENDAS 20110503TNE100000000202010152020081519790614N0000000000
M001SOLDI PROMOTORA DE VENDAS LTDA     0100000190000110157PALOMA TATO RAMOS                  01ANTONIO CARLOS FRAGA DE JESUS      CLIVALE PROSAUDE IGUATEMI          50689971414403016300120101500000000000169160000074158000097437400000000000000000000000000000000000000000000000000000000000000000000000000000000000000000000000000000000000000000079061411000000000000049619          010033794132000272J0000000000000000000000000000CONSULTOR DE VENDAS 20110503TNE100000000202010152020081519790614N0000000000
M001SOLDI PROMOTORA DE VENDAS LTDA     0100000190000110157PALOMA TATO RAMOS                  01ANTONIO CARLOS FRAGA DE JESUS      CLIVALE PROSAUDE IGUATEMI          50689971415403019900120101500000000000241160000074158000097437400000000000000000000000000000000000000000000000000000000000000000000000000000000000000000000000000000000000000000079061411000000000000070719          010033794132000272J0000000000000000000000000000CONSULTOR DE VENDAS 20110503TNE100000000202010152020081519790614N0000000000
M001SOLDI PROMOTORA DE VENDAS LTDA     0100000190000110157PALOMA TATO RAMOS                  01ANTONIO CARLOS FRAGA DE JESUS      CLIVALE PROSAUDE IGUATEMI          50689971412403046390120101500000000000181160000074158000097437400000000000000000000000000000000000000000000000000000000000000000000000000000000000000000000000000000000000000000079061411000000000000053119          010033794132000272J0000000000000000000000000000CONSULTOR DE VENDAS 20110503TNE100000000202010152020081519790614N0000000000
M001SOLDI PROMOTORA DE VENDAS LTDA     0100000190000110157PALOMA TATO RAMOS                  01ANTONIO CARLOS FRAGA DE JESUS      CLIVALE PROSAUDE IGUATEMI          50689971412403018420120101500000000000217160000074158000097437400000000000000000000000000000000000000000000000000000000000000000000000000000000000000000000000000000000000000000079061411000000000000063819          010033794132000272J0000000000000000000000000000CONSULTOR DE VENDAS 20110503TNE100000000202010152020081519790614N0000000000
M001SOLDI PROMOTORA DE VENDAS LTDA     0100000190000110157PALOMA TATO RAMOS                  01ANTONIO CARLOS FRAGA DE JESUS      CLIVALE PROSAUDE IGUATEMI          50689971413403165720120101500000000001026160000074158000097437400000000000000000000000000000000000000000000000000000000000000000000000000000000000000000000000000000000000000000079061411000000000000300619          010033794132000272J0000000000000000000000000000CONSULTOR DE VENDAS 20110503TNE100000000202010152020081519790614N0000000000
M001SOLDI PROMOTORA DE VENDAS LTDA     0100000190000110157PALOMA TATO RAMOS                  01ANTONIO CARLOS FRAGA DE JESUS      CLIVALE PROSAUDE IGUATEMI          50689971414403023180120101500000000000169160000074158000097437400000000000000000000000000000000000000000000000000000000000000000000000000000000000000000000000000000000000000000079061411000000000000049619          010033794132000272J0000000000000000000000000000CONSULTOR DE VENDAS 20110503TNE100000000202010152020081519790614N0000000000
M001SOLDI PROMOTORA DE VENDAS LTDA     0100000190000110157PALOMA TATO RAMOS                  01ANTONIO CARLOS FRAGA DE JESUS      CLIVALE PROSAUDE IGUATEMI          50689971414403016480120101500000000000604160000074158000097437400000000000000000000000000000000000000000000000000000000000000000000000000000000000000000000000000000000000000000079061411000000000000177019          010033794132000272J0000000000000000000000000000CONSULTOR DE VENDAS 20110503TNE100000000202010152020081519790614N0000000000
M001SOLDI PROMOTORA DE VENDAS LTDA     0100000190000110157PALOMA TATO RAMOS                  01ANTONIO CARLOS FRAGA DE JESUS      CLIVALE PROSAUDE IGUATEMI          50689971414403025040120101500000000000169160000074158000097437400000000000000000000000000000000000000000000000000000000000000000000000000000000000000000000000000000000000000000079061411000000000000049619          010033794132000272J0000000000000000000000000000CONSULTOR DE VENDAS 20110503TNE100000000202010152020081519790614N0000000000
M001SOLDI PROMOTORA DE VENDAS LTDA     0100000190000110157PALOMA TATO RAMOS                  01ANTONIO CARLOS FRAGA DE JESUS      CLIVALE PROSAUDE IGUATEMI          50689971414403025120120101500000000000169160000074158000097437400000000000000000000000000000000000000000000000000000000000000000000000000000000000000000000000000000000000000000079061411000000000000049619          010033794132000272J0000000000000000000000000000CONSULTOR DE VENDAS 20110503TNE100000000202010152020081519790614N0000000000
M001SOLDI PROMOTORA DE VENDAS LTDA     0100000190000110157PALOMA TATO RAMOS                  01ANTONIO CARLOS FRAGA DE JESUS      CLIVALE PROSAUDE IGUATEMI          50689971415403011500120101500000000000169160000074158000097437400000000000000000000000000000000000000000000000000000000000000000000000000000000000000000000000000000000000000000079061411000000000000049619          010033794132000272J0000000000000000000000000000CONSULTOR DE VENDAS 20110503TNE100000000202010152020081519790614N0000000000
M001SOLDI PROMOTORA DE VENDAS LTDA     0100000190000110157PALOMA TATO RAMOS                  01ANTONIO CARLOS FRAGA DE JESUS      CLIVALE PROSAUDE IGUATEMI          50689971415403030800120101500000000000121160000074158000097437400000000000000000000000000000000000000000000000000000000000000000000000000000000000000000000000000000000000000000079061411000000000000035519          010033794132000272J0000000000000000000000000000CONSULTOR DE VENDAS 20110503TNE100000000202010152020081519790614N0000000000
M001SOLDI PROMOTORA DE VENDAS LTDA     0100000190000110157PALOMA TATO RAMOS                  01ANTONIO CARLOS FRAGA DE JESUS      CLIVALE PROSAUDE IGUATEMI          50689971415403112100120101500000000000169160000074158000097437400000000000000000000000000000000000000000000000000000000000000000000000000000000000000000000000000000000000000000079061411000000000000049619          010033794132000272J0000000000000000000000000000CONSULTOR DE VENDAS 20110503TNE100000000202010152020081519790614N0000000000
M001SOLDI PROMOTORA DE VENDAS LTDA     0100000190000110157PALOMA TATO RAMOS                  01ANTONIO CARLOS FRAGA DE JESUS      CLIVALE PROSAUDE IGUATEMI          50689971415403031100120101500000000000169160000074158000097437400000000000000000000000000000000000000000000000000000000000000000000000000000000000000000000000000000000000000000079061411000000000000049619          010033794132000272J0000000000000000000000000000CONSULTOR DE VENDAS 20110503TNE100000000202010152020081519790614N0000000000
M001SOLDI PROMOTORA DE VENDAS LTDA     0100000190000110157PALOMA TATO RAMOS                  01ANTONIO CARLOS FRAGA DE JESUS      CLIVALE PROSAUDE IGUATEMI          50689971416403020750120101500000000000543160000074158000097437400000000000000000000000000000000000000000000000000000000000000000000000000000000000000000000000000000000000000000079061411000000000000159119          010033794132000272J0000000000000000000000000000CONSULTOR DE VENDAS 20110503TNE100000000202010152020081519790614N0000000000
M001SOLDI PROMOTORA DE VENDAS LTDA     0100000190000110157PALOMA TATO RAMOS                  01ANTONIO CARLOS FRAGA DE JESUS      CLIVALE PROSAUDE IGUATEMI          50689971414403025800120101500000000000169160000074158000097437400000000000000000000000000000000000000000000000000000000000000000000000000000000000000000000000000000000000000000079061411000000000000049619          010033794132000272J0000000000000000000000000000CONSULTOR DE VENDAS 20110503TNE100000000202010152020081519790614N0000000000
M001SOLDI PROMOTORA DE VENDAS LTDA     0100000190000110157PALOMA TATO RAMOS                  01ANTONIO CARLOS FRAGA DE JESUS      CLIVALE PROSAUDE IGUATEMI          50689971414403022370120101500000000000193160000074158000097437400000000000000000000000000000000000000000000000000000000000000000000000000000000000000000000000000000000000000000079061411000000000000056619          010033794132000272J0000000000000000000000000000CONSULTOR DE VENDAS 20110503TNE100000000202010152020081519790614N0000000000
M001SOLDI PROMOTORA DE VENDAS LTDA     0100000190000110157PALOMA TATO RAMOS                  01ANTONIO CARLOS FRAGA DE JESUS      CLIVALE PROSAUDE IGUATEMI          50689971415403013970120101500000000000181160000074158000097437400000000000000000000000000000000000000000000000000000000000000000000000000000000000000000000000000000000000000000079061411000000000000053119          010033794132000272J0000000000000000000000000000CONSULTOR DE VENDAS 20110503TNE100000000202010152020081519790614N0000000000
M001SOLDI PROMOTORA DE VENDAS LTDA     0100000190000110157PALOMA TATO RAMOS                  01ANTONIO CARLOS FRAGA DE JESUS      CLIVALE PROSAUDE IGUATEMI          50689971412403015830120101500000000000302160000074158000097437400000000000000000000000000000000000000000000000000000000000000000000000000000000000000000000000000000000000000000079061411000000000000088619          010033794132000272J0000000000000000000000000000CONSULTOR DE VENDAS 20110503TNE100000000202010152020081519790614N0000000000
M001SOLDI PROMOTORA DE VENDAS LTDA     0100000190000110157PALOMA TATO RAMOS                  01ANTONIO CARLOS FRAGA DE JESUS      CLIVALE PROSAUDE IGUATEMI          50689971414403024230120101500000000000169160000074158000097437400000000000000000000000000000000000000000000000000000000000000000000000000000000000000000000000000000000000000000079061411000000000000049619          010033794132000272J0000000000000000000000000000CONSULTOR DE VENDAS 20110503TNE100000000202010152020081519790614N0000000000
M001SOLDI PROMOTORA DE VENDAS LTDA     0100000190000110157PALOMA TATO RAMOS                  01ANTONIO CARLOS FRAGA DE JESUS      CLIVALE PROSAUDE IGUATEMI          50689971412403043610120101500000000000362160000074158000097437400000000000000000000000000000000000000000000000000000000000000000000000000000000000000000000000000000000000000000079061411000000000000106219          010033794132000272J0000000000000000000000000000CONSULTOR DE VENDAS 20110503TNE100000000202010152020081519790614N0000000000
M001SOLDI PROMOTORA DE VENDAS LTDA     0100000190000110157PALOMA TATO RAMOS                  01ANTONIO CARLOS FRAGA DE JESUS      CLIVALE PROSAUDE IGUATEMI          50689971415403018850120101500000000000217160000074158000097437400000000000000000000000000000000000000000000000000000000000000000000000000000000000000000000000000000000000000000079061411000000000000063819          010033794132000272J0000000000000000000000000000CONSULTOR DE VENDAS 20110503TNE100000000202010152020081519790614N0000000000
M001SOLDI PROMOTORA DE VENDAS LTDA     0100000190000110157PALOMA TATO RAMOS                  01ANTONIO CARLOS FRAGA DE JESUS      CLIVALE PROSAUDE IGUATEMI          50689971412403045900120101500000000000181160000074158000097437400000000000000000000000000000000000000000000000000000000000000000000000000000000000000000000000000000000000000000079061411000000000000053119          010033794132000272J0000000000000000000000000000CONSULTOR DE VENDAS 20110503TNE100000000202010152020081519790614N0000000000
M001SOLDI PROMOTORA DE VENDAS LTDA     0100000190000110157PALOMA TATO RAMOS                  01ANTONIO CARLOS FRAGA DE JESUS      CLIVALE PROSAUDE IGUATEMI          50689971412403015910120101500000000000362160000074158000097437400000000000000000000000000000000000000000000000000000000000000000000000000000000000000000000000000000000000000000079061411000000000000106219          010033794132000272J0000000000000000000000000000CONSULTOR DE VENDAS 20110503TNE100000000202010152020081519790614N0000000000
M001SOLDI PROMOTORA DE VENDAS LTDA     0100000190000110157PALOMA TATO RAMOS                  01ANTONIO CARLOS FRAGA DE JESUS      CLIVALE PROSAUDE IGUATEMI          50689971412403162700120101500000000001510160000074158000097437400000000000000000000000000000000000000000000000000000000000000000000000000000000000000000000000000000000000000000079061411000000000000442419          010033794132000272J0000000000000000000000000000CONSULTOR DE VENDAS 20110503TNE100000000202010152020081519790614N0000000000
M001SOLDI PROMOTORA DE VENDAS LTDA     0100000190000110157PALOMA TATO RAMOS                  01ANTONIO CARLOS FRAGA DE JESUS      CLIVALE PROSAUDE IGUATEMI          50689971412403016050120101500000000000169160000074158000097437400000000000000000000000000000000000000000000000000000000000000000000000000000000000000000000000000000000000000000079061411000000000000049619          010033794132000272J0000000000000000000000000000CONSULTOR DE VENDAS 20110503TNE100000000202010152020081519790614N0000000000
M001SOLDI PROMOTORA DE VENDAS LTDA     0100000190000110157PALOMA TATO RAMOS                  01ANTONIO CARLOS FRAGA DE JESUS      CLIVALE PROSAUDE IGUATEMI          50689971412403026950120101500000000000483160000074158000097437400000000000000000000000000000000000000000000000000000000000000000000000000000000000000000000000000000000000000000079061411000000000000141519          010033794132000272J0000000000000000000000000000CONSULTOR DE VENDAS 20110503TNE100000000202010152020081519790614N0000000000
M001SOLDI PROMOTORA DE VENDAS LTDA     0100000190000110157PALOMA TATO RAMOS                  01ANTONIO CARLOS FRAGA DE JESUS      CLIVALE PROSAUDE IGUATEMI          50689971413403025470120101500000000000241160000074158000097437400000000000000000000000000000000000000000000000000000000000000000000000000000000000000000000000000000000000000000079061411000000000000070719          010033794132000272J0000000000000000000000000000CONSULTOR DE VENDAS 20110503TNE100000000202010152020081519790614N0000000000
M001SOLDI PROMOTORA DE VENDAS LTDA     0100000190000110157PALOMA TATO RAMOS                  01ANTONIO CARLOS FRAGA DE JESUS      CLIVALE PROSAUDE IGUATEMI          50689971413403020400120101500000000000169160000074158000097437400000000000000000000000000000000000000000000000000000000000000000000000000000000000000000000000000000000000000000079061411000000000000049619          010033794132000272J0000000000000000000000000000CONSULTOR DE VENDAS 20110503TNE100000000202010152020081519790614N0000000000
M001SOLDI PROMOTORA DE VENDAS LTDA     0100000190000110157PALOMA TATO RAMOS                  01ANTONIO CARLOS FRAGA DE JESUS      CLIVALE PROSAUDE IGUATEMI          50689971413403020400120101500000000000169160000074158000097437400000000000000000000000000000000000000000000000000000000000000000000000000000000000000000000000000000000000000000079061411000000000000049619          010033794132000272J0000000000000000000000000000CONSULTOR DE VENDAS 20110503TNE100000000202010152020081519790614N0000000000
M001SOLDI PROMOTORA DE VENDAS LTDA     0100000190000110157PALOMA TATO RAMOS                  01ANTONIO CARLOS FRAGA DE JESUS      CLIVALE PROSAUDE IGUATEMI          50689971413403163600120101500000000000664160000074158000097437400000000000000000000000000000000000000000000000000000000000000000000000000000000000000000000000000000000000000000079061411000000000000194719          010033794132000272J0000000000000000000000000000CONSULTOR DE VENDAS 20110503TNE100000000202010152020081519790614N0000000000
M001SOLDI PROMOTORA DE VENDAS LTDA     0100000190000110157PALOMA TATO RAMOS                  01ANTONIO CARLOS FRAGA DE JESUS      CLIVALE PROSAUDE IGUATEMI          50689971413403019580120101500000000000543160000074158000097437400000000000000000000000000000000000000000000000000000000000000000000000000000000000000000000000000000000000000000079061411000000000000159119          010033794132000272J0000000000000000000000000000CONSULTOR DE VENDAS 20110503TNE100000000202010152020081519790614N0000000000
M001SOLDI PROMOTORA DE VENDAS LTDA     0100000190000110157PALOMA TATO RAMOS                  01ANTONIO CARLOS FRAGA DE JESUS      CLIVALE PROSAUDE IGUATEMI          50689971413403164910120101500000000001026160000074158000097437400000000000000000000000000000000000000000000000000000000000000000000000000000000000000000000000000000000000000000079061411000000000000300619          010033794132000272J0000000000000000000000000000CONSULTOR DE VENDAS 20110503TNE100000000202010152020081519790614N0000000000
M001SOLDI PROMOTORA DE VENDAS LTDA     0100000190000110157PALOMA TATO RAMOS                  01ANTONIO CARLOS FRAGA DE JESUS      CLIVALE PROSAUDE IGUATEMI          50689971413403165210120101500000000001026160000074158000097437400000000000000000000000000000000000000000000000000000000000000000000000000000000000000000000000000000000000000000079061411000000000000300619          010033794132000272J0000000000000000000000000000CONSULTOR DE VENDAS 20110503TNE100000000202010152020081519790614N0000000000
M001SOLDI PROMOTORA DE VENDAS LTDA     0100000190000110157PALOMA TATO RAMOS                  01ANTONIO CARLOS FRAGA DE JESUS      CLIVALE PROSAUDE IGUATEMI          50689971413403050150120101500000000001595160000074158000097437400000000000000000000000000000000000000000000000000000000000000000000000000000000000000000000000000000000000000000079061411000000000000467219          010033794132000272J0000000000000000000000000000CONSULTOR DE VENDAS 20110503TNE100000000202010152020081519790614N0000000000
M001SOLDI PROMOTORA DE VENDAS LTDA     0100000190000110157PALOMA TATO RAMOS                  00PALOMA TATO RAMOS                  SEMIU                              10690631440101010390120101900000000003415160000074158000027091100000000000000000000000000000000000000000000000000000000000000000000000000000000000000000000000000000000000000000091032820000000000001000019          000034165969000134J0000000000000000000000000000CONSULTOR DE VENDAS 20110503TNE100000000202010192020082919910328N0000000000
M001SOLDI PROMOTORA DE VENDAS LTDA     0100001320000118002JOSE LEITE RIBEIRO TAVARES         01LUCIDIA DE MEDEIROS TAVARES        LABORAT MARCELO MAGALHAES          506903260234030207501201014000000000004261600000741580000369233000000000000000000000000000000000000000000000000000000000000000000000000000000000000000000000000000000000000000000710811210000000000001250132         010011696937000160J0000000000000000000000000000GERENTE COMERCIAL I 20080218TNQ200000000202010142020082819710811N0000000000
M001SOLDI PROMOTORA DE VENDAS LTDA     0100001320000118002JOSE LEITE RIBEIRO TAVARES         01LUCIDIA DE MEDEIROS TAVARES        LABORAT MARCELO MAGALHAES          506903260234030258001201014000000000001331600000741580000369233000000000000000000000000000000000000000000000000000000000000000000000000000000000000000000000000000000000000000000710811210000000000000390132         010011696937000160J0000000000000000000000000000GERENTE COMERCIAL I 20080218TNQ200000000202010142020082819710811N0000000000
M001SOLDI PROMOTORA DE VENDAS LTDA     0100001320000118002JOSE LEITE RIBEIRO TAVARES         01LUCIDIA DE MEDEIROS TAVARES        LABORAT MARCELO MAGALHAES          506903260234030242301201014000000000001331600000741580000369233000000000000000000000000000000000000000000000000000000000000000000000000000000000000000000000000000000000000000000710811210000000000000390132         010011696937000160J0000000000000000000000000000GERENTE COMERCIAL I 20080218TNQ200000000202010142020082819710811N0000000000
M001SOLDI PROMOTORA DE VENDAS LTDA     0100001320000118002JOSE LEITE RIBEIRO TAVARES         01LUCIDIA DE MEDEIROS TAVARES        LABORAT MARCELO MAGALHAES          506903260234030231801201014000000000001331600000741580000369233000000000000000000000000000000000000000000000000000000000000000000000000000000000000000000000000000000000000000000710811210000000000000390132         010011696937000160J0000000000000000000000000000GERENTE COMERCIAL I 20080218TNQ200000000202010142020082819710811N0000000000
M001SOLDI PROMOTORA DE VENDAS LTDA     0100001320000118002JOSE LEITE RIBEIRO TAVARES         01LUCIDIA DE MEDEIROS TAVARES        LABORAT MARCELO MAGALHAES          506903260234030160501201014000000000001331600000741580000369233000000000000000000000000000000000000000000000000000000000000000000000000000000000000000000000000000000000000000000710811210000000000000390132         010011696937000160J0000000000000000000000000000GERENTE COMERCIAL I 20080218TNQ200000000202010142020082819710811N0000000000
M001SOLDI PROMOTORA DE VENDAS LTDA     0100001320000118002JOSE LEITE RIBEIRO TAVARES         01LUCIDIA DE MEDEIROS TAVARES        LABORAT MARCELO MAGALHAES          506903260234030158301201014000000000002371600000741580000369233000000000000000000000000000000000000000000000000000000000000000000000000000000000000000000000000000000000000000000710811210000000000000696132         010011696937000160J0000000000000000000000000000GERENTE COMERCIAL I 20080218TNQ200000000202010142020082819710811N0000000000
M001SOLDI PROMOTORA DE VENDAS LTDA     0100001320000118002JOSE LEITE RIBEIRO TAVARES         01LUCIDIA DE MEDEIROS TAVARES        LABORAT MARCELO MAGALHAES          506903260234030159101201014000000000002841600000741580000369233000000000000000000000000000000000000000000000000000000000000000000000000000000000000000000000000000000000000000000710811210000000000000834132         010011696937000160J0000000000000000000000000000GERENTE COMERCIAL I 20080218TNQ200000000202010142020082819710811N0000000000
M001SOLDI PROMOTORA DE VENDAS LTDA     0100001320000118002JOSE LEITE RIBEIRO TAVARES         01LUCIDIA DE MEDEIROS TAVARES        LABORAT MARCELO MAGALHAES          506903260234030269501201014000000000003791600000741580000369233000000000000000000000000000000000000000000000000000000000000000000000000000000000000000000000000000000000000000000710811210000000000001112132         010011696937000160J0000000000000000000000000000GERENTE COMERCIAL I 20080218TNQ200000000202010142020082819710811N0000000000
M001SOLDI PROMOTORA DE VENDAS LTDA     0100001320000118002JOSE LEITE RIBEIRO TAVARES         01LUCIDIA DE MEDEIROS TAVARES        LABORAT MARCELO MAGALHAES          506903260234030254701201014000000000001891600000741580000369233000000000000000000000000000000000000000000000000000000000000000000000000000000000000000000000000000000000000000000710811210000000000000556132         010011696937000160J0000000000000000000000000000GERENTE COMERCIAL I 20080218TNQ200000000202010142020082819710811N0000000000
M001SOLDI PROMOTORA DE VENDAS LTDA     0100001320000118002JOSE LEITE RIBEIRO TAVARES         01LUCIDIA DE MEDEIROS TAVARES        LABORAT MARCELO MAGALHAES          506903260234030250401201014000000000001331600000741580000369233000000000000000000000000000000000000000000000000000000000000000000000000000000000000000000000000000000000000000000710811210000000000000390132         010011696937000160J0000000000000000000000000000GERENTE COMERCIAL I 20080218TNQ200000000202010142020082819710811N0000000000
M001SOLDI PROMOTORA DE VENDAS LTDA     0100001320000118002JOSE LEITE RIBEIRO TAVARES         01LUCIDIA DE MEDEIROS TAVARES        LABORAT MARCELO MAGALHAES          506903260234030251201201014000000000001331600000741580000369233000000000000000000000000000000000000000000000000000000000000000000000000000000000000000000000000000000000000000000710811210000000000000390132         010011696937000160J0000000000000000000000000000GERENTE COMERCIAL I 20080218TNQ200000000202010142020082819710811N0000000000
M001SOLDI PROMOTORA DE VENDAS LTDA     0100001320000118002JOSE LEITE RIBEIRO TAVARES         01LUCIDIA DE MEDEIROS TAVARES        LABORAT MARCELO MAGALHAES          506903260234030164801201014000000000004751600000741580000369233000000000000000000000000000000000000000000000000000000000000000000000000000000000000000000000000000000000000000000710811210000000000001391132         010011696937000160J0000000000000000000000000000GERENTE COMERCIAL I 20080218TNQ200000000202010142020082819710811N0000000000
M001SOLDI PROMOTORA DE VENDAS LTDA     0100001320000118002JOSE LEITE RIBEIRO TAVARES         01LUCIDIA DE MEDEIROS TAVARES        LABORAT MARCELO MAGALHAES          506903260234030492201201014000000000003311600000741580000369233000000000000000000000000000000000000000000000000000000000000000000000000000000000000000000000000000000000000000000710811210000000000000972132         010011696937000160J0000000000000000000000000000GERENTE COMERCIAL I 20080218TNQ200000000202010142020082819710811N0000000000
M001SOLDI PROMOTORA DE VENDAS LTDA     0100001320000118002JOSE LEITE RIBEIRO TAVARES         01LUCIDIA DE MEDEIROS TAVARES        LABORAT MARCELO MAGALHAES          506903260234031652101201014000000000008061600000741580000369233000000000000000000000000000000000000000000000000000000000000000000000000000000000000000000000000000000000000000000710811210000000000002362132         010011696937000160J0000000000000000000000000000GERENTE COMERCIAL I 20080218TNQ200000000202010142020082819710811N0000000000
M001SOLDI PROMOTORA DE VENDAS LTDA     0100001320000118002JOSE LEITE RIBEIRO TAVARES         01LUCIDIA DE MEDEIROS TAVARES        LABORAT MARCELO MAGALHAES          506903260234030204001201014000000000001331600000741580000369233000000000000000000000000000000000000000000000000000000000000000000000000000000000000000000000000000000000000000000710811210000000000000390132         010011696937000160J0000000000000000000000000000GERENTE COMERCIAL I 20080218TNQ200000000202010142020082819710811N0000000000
M001SOLDI PROMOTORA DE VENDAS LTDA     0100001320000118002JOSE LEITE RIBEIRO TAVARES         01LUCIDIA DE MEDEIROS TAVARES        LABORAT MARCELO MAGALHAES          506903260234030436101201014000000000002841600000741580000369233000000000000000000000000000000000000000000000000000000000000000000000000000000000000000000000000000000000000000000710811210000000000000834132         010011696937000160J0000000000000000000000000000GERENTE COMERCIAL I 20080218TNQ200000000202010142020082819710811N0000000000
M001SOLDI PROMOTORA DE VENDAS LTDA     0100001320000118002JOSE LEITE RIBEIRO TAVARES         01LUCIDIA DE MEDEIROS TAVARES        LABORAT MARCELO MAGALHAES          506903260234031649101201014000000000008061600000741580000369233000000000000000000000000000000000000000000000000000000000000000000000000000000000000000000000000000000000000000000710811210000000000002362132         010011696937000160J0000000000000000000000000000GERENTE COMERCIAL I 20080218TNQ200000000202010142020082819710811N0000000000
M001SOLDI PROMOTORA DE VENDAS LTDA     0100001320000118002JOSE LEITE RIBEIRO TAVARES         01LUCIDIA DE MEDEIROS TAVARES        LABORAT MARCELO MAGALHAES          506903260234030163001201014000000000001331600000741580000369233000000000000000000000000000000000000000000000000000000000000000000000000000000000000000000000000000000000000000000710811210000000000000390132         010011696937000160J0000000000000000000000000000GERENTE COMERCIAL I 20080218TNQ200000000202010142020082819710811N0000000000
M001SOLDI PROMOTORA DE VENDAS LTDA     0100001320000118002JOSE LEITE RIBEIRO TAVARES         01LUCIDIA DE MEDEIROS TAVARES        LABORAT MARCELO MAGALHAES          506903260234030283001201014000000000009491600000741580000369233000000000000000000000000000000000000000000000000000000000000000000000000000000000000000000000000000000000000000000710811210000000000002781132         010011696937000160J0000000000000000000000000000GERENTE COMERCIAL I 20080218TNQ200000000202010142020082819710811N0000000000
M001SOLDI PROMOTORA DE VENDAS LTDA     0100001320000118002JOSE LEITE RIBEIRO TAVARES         01LUCIDIA DE MEDEIROS TAVARES        LABORAT MARCELO MAGALHAES          506903260234030115001201014000000000001331600000741580000369233000000000000000000000000000000000000000000000000000000000000000000000000000000000000000000000000000000000000000000710811210000000000000390132         010011696937000160J0000000000000000000000000000GERENTE COMERCIAL I 20080218TNQ200000000202010142020082819710811N0000000000
M001SOLDI PROMOTORA DE VENDAS LTDA     0100001320000118002JOSE LEITE RIBEIRO TAVARES         01LUCIDIA DE MEDEIROS TAVARES        LABORAT MARCELO MAGALHAES          506903260234031627001201014000000000011871600000741580000369233000000000000000000000000000000000000000000000000000000000000000000000000000000000000000000000000000000000000000000710811210000000000003476132         010011696937000160J0000000000000000000000000000GERENTE COMERCIAL I 20080218TNQ200000000202010142020082819710811N0000000000
M001SOLDI PROMOTORA DE VENDAS LTDA     0100001320000118002JOSE LEITE RIBEIRO TAVARES         01LUCIDIA DE MEDEIROS TAVARES        LABORAT MARCELO MAGALHAES          506903260234031121001201014000000000001331600000741580000369233000000000000000000000000000000000000000000000000000000000000000000000000000000000000000000000000000000000000000000710811210000000000000390132         010011696937000160J0000000000000000000000000000GERENTE COMERCIAL I 20080218TNQ200000000202010142020082819710811N0000000000
M001SOLDI PROMOTORA DE VENDAS LTDA     0100001320000118002JOSE LEITE RIBEIRO TAVARES         03ILANA DE MEDEIROS TAVARES LEITE    ARMINDO MOURA DIAG IMAGEM          506910200524090118101201022000000000017961600000741580000882232000000000000000000000000000000000000000000000000000000000000000000000000000000000000000000000000000000000000000000100615220000000000005260132         030002045791000100J0000000000000000000000000000GERENTE COMERCIAL I 20080218TNQ200000000202010222020091120100615N0000000000
M001SOLDI PROMOTORA DE VENDAS LTDA     0100001320000118002JOSE LEITE RIBEIRO TAVARES         01LUCIDIA DE MEDEIROS TAVARES        HOPE                               106911414811010101201201026000000000034151600000741580000369292000000000000000000000000000000000000000000000000000000000000000000000000000000000000000000000000000000000000000000710811210000000000010000132         010009464629000329J0000000000000000000000000000GERENTE COMERCIAL I 20080218TNQ200000000202010262020091119710811N0000000000
M001SOLDI PROMOTORA DE VENDAS LTDA     0100001320000118002JOSE LEITE RIBEIRO TAVARES         01LUCIDIA DE MEDEIROS TAVARES        HOPE                               506911414814130132301201026000000000004101600000741580000369292000000000000000000000000000000000000000000000000000000000000000000000000000000000000000000000000000000000000000000710811210000000000001201132         010009464629000329J0000000000000000000000000000GERENTE COMERCIAL I 20080218TNQ200000000202010262020091119710811N0000000000
M001SOLDI PROMOTORA DE VENDAS LTDA     0100001320000118002JOSE LEITE RIBEIRO TAVARES         01LUCIDIA DE MEDEIROS TAVARES        HOPE                               506911414814130125002201026000000000016411600000741580000369292000000000000000000000000000000000000000000000000000000000000000000000000000000000000000000000000000000000000000000710811210000000000004806132         010009464629000329J0000000000000000000000000000GERENTE COMERCIAL I 20080218TNQ200000000202010262020091119710811N0000000000
M001SOLDI PROMOTORA DE VENDAS LTDA     0100001320000118002JOSE LEITE RIBEIRO TAVARES         00JOSE LEITE RIBEIRO TAVARES         COOPECARDIO                        606908075994010103701201029000000000050851600000741580000797871000000000000000000000000000000000000000000000000000000000000000000000000000000000000000000000000000000000000000000710927100000000000014890132         000000599741000130J0000000000000000000000000000GERENTE COMERCIAL I 20080218TNQ200000000202010292020081319710927N0000000000
M001SOLDI PROMOTORA DE VENDAS LTDA     0100001590000118023THALITA MENDES DE ALMEIDA LIMA     00THALITA MENDES DE ALMEIDA LIMA     NOVA DIAGNOSTICO POR IMAGEM        506903547178433011201201030000000000031760000000741580000618179000000000000000000000000000000000000000000000000000000000000000000000000000000000000000000000000000000000000000000891208200000000000009300159         000004489715000100J0000000000000000000000000000CONSULTOR DE VENDAS 20110110TNE100000000202010302020080819891208N0000000000
M001SOLDI PROMOTORA DE VENDAS LTDA     0100001830000119012MARINALVA DE FREITAS COSTA         00MARINALVA DE FREITAS COSTA         HOSPITAL OTOCLINICA                206911117638400041401201026000000000080390000000741580000182214000000000000000000000000000000000000000000000000000000000000000000000000000000000000000000000000000000000000000000781225200000000000023540183         000023443518000103J0000000000000000000000000000SUPERVISOR DE VENDAS20090720TNE100000000202010262020091419781225N0000000000
M001SOLDI PROMOTORA DE VENDAS LTDA     0100002050000120018ANDREZA SANTOS HUMSI RAYES         01NICOLE B SANTOS RAYES FRANCISCO    SAINE                              106901363181010101201201020000000000034151600000741580000171702000000000000000000000000000000000000000000000000000000000000000000000000000000000000000000000000000000000000000000150427220000000000010000205         010014593607000137J0000000000000000000000000000CONSULTOR DE VENDAS 20100809TNE100000000202010202020081220150427N0000000000
M001SOLDI PROMOTORA DE VENDAS LTDA     0100002050000120018ANDREZA SANTOS HUMSI RAYES         03ALICE SANTOS HUMSI RAYES FRANCISCO SAINE                              106901363191010614601201022000000000057811600000741580000171702000000000000000000000000000000000000000000000000000000000000000000000000000000000000000000000000000000000000000000190326220000000000016929205         030014593607000137J0000000000000000000000000000CONSULTOR DE VENDAS 20100809TNE100000000202010222020081220190326N0000000000
M001SOLDI PROMOTORA DE VENDAS LTDA     0100002640000013086ANTONIA DE SOUSA GOMES FEIJAO      00ANTONIA DE SOUSA GOMES FEIJAO      MONALIZA GOMES DE CARVALHO         181224865801010101200201008000000000034151600000741580038034000000000000000000000000000000000000000000000000000000000000000000000000000000000000000000000000000000000000000000000601013203800000000010000264         000000072921889749F0000000000000000000000000000AUXILIAR DE SERVICOS20100503TNE100000000202010082020091819601013N0000000000
M001SOLDI PROMOTORA DE VENDAS LTDA     0100002640000013086ANTONIA DE SOUSA GOMES FEIJAO      00ANTONIA DE SOUSA GOMES FEIJAO      CLINICA SANTA TEREZINHA            106903075141010101201201014000000000034151600000741580000160814000000000000000000000000000000000000000000000000000000000000000000000000000000000000000000000000000000000000000000601013200000000000010000264         000027036896000115J0000000000000000000000000000AUXILIAR DE SERVICOS20100503TNE100000000202010142020081119601013N0000000000
M001SOLDI PROMOTORA DE VENDAS LTDA     0100002800000013097SAMUEL DE FRANCA PESSOA JUNIOR     01ALESSANDRA RODRIGUES BARROS        CINI                               506895599574090130001201001000000000029961600000741580000857076000000000000000000000000000000000000000000000000000000000000000000000000000000000000000000000000000000000000000000920512210000000000008773280         010097372676000148J0000000000000000000000000000CONSULTOR DE VENDAS 20110317TNE100000000202010012020082019920512N0000000000
M001SOLDI PROMOTORA DE VENDAS LTDA     0100002800000013097SAMUEL DE FRANCA PESSOA JUNIOR     01ALESSANDRA RODRIGUES BARROS        CINI                               506895599584090111401201001000000000025371600000741580000857076000000000000000000000000000000000000000000000000000000000000000000000000000000000000000000000000000000000000000000920512210000000000007429280         010097372676000148J0000000000000000000000000000CONSULTOR DE VENDAS 20110317TNE100000000202010012020081319920512N0000000000
M001SOLDI PROMOTORA DE VENDAS LTDA     0100002800000013097SAMUEL DE FRANCA PESSOA JUNIOR     00SAMUEL DE FRANCA PESSOA JUNIOR     MARCELO FONSECA ARRAES             191327239711010101200201013000000000034151600000741580035091400000000000000000000000000000000000000000000000000000000000000000000000000000000000000000000000000000000000000000000830427203500000000010000280         000000008910590750F0000000000000000000000000000CONSULTOR DE VENDAS 20110317TNE100000000202010132020091519830427N0000000000
M001SOLDI PROMOTORA DE VENDAS LTDA     0100002800000013097SAMUEL DE FRANCA PESSOA JUNIOR     01ALESSANDRA RODRIGUES BARROS        CLIN NEUR ELET NOVA IGUACU         101113970481010101200201013000000000034151600000741580000048321000000000000000000000000000000000000000000000000000000000000000000000000000000000000000000000000000000000000000000920512210000000000010000280         010029108628000197J0000000000000000000000000000CONSULTOR DE VENDAS 20110317TNE100000000202010132020092219920512N0000000000
M001SOLDI PROMOTORA DE VENDAS LTDA     0100003020000133127ANA PAULA RODRIGUES BRAGA RAMALHO  01MATEUS LEVI RAMALHO DE OLIVEIRA    CLINORT                            100191376691010101200201028000000000034151600000741580000622826000000000000000000000000000000000000000000000000000000000000000000000000000000000000000000000000000000000000000000160410120000000000010000302         010040806952000111J0000000000000000000000000000CONSULTOR DE VENDAS 20100601TNE100000000202010282020101620160410N0000000000
M001SOLDI PROMOTORA DE VENDAS LTDA     0100003290000133158CARLA C GUILHERME SILVA MARQUES    00CARLA C GUILHERME SILVA MARQUES    STA CASA DE MIS DE MACEIO          506721579544090120301201002000000000018211600000741580000100633000000000000000000000000000000000000000000000000000000000000000000000000000000000000000000000000000000000000000000860103200000000000005334329         000012307187000150J0000000000000000000000000000CONSULTOR DE VENDAS 20110701TNE100000000202010022019101519860103N0000000000
M001SOLDI PROMOTORA DE VENDAS LTDA     0100003290000133158CARLA C GUILHERME SILVA MARQUES    02LIVIA MARINA GUILHERME MARQUES     YASCARA MARIA CANTARELLI CUNHA     101354217851010101200201006000000000030601600000741580015130200000000000000000000000000000000000000000000000000000000000000000000000000000000000000000000000000000000000000000000140221221500000000008960329         020000044501242434F0000000000000000000000000000CONSULTOR DE VENDAS 20110701TNE100000000202010062020092420140221N0000000000
M001SOLDI PROMOTORA DE VENDAS LTDA     0100003290000133158CARLA C GUILHERME SILVA MARQUES    02LIVIA MARINA GUILHERME MARQUES     MARIA DO CARMO TORRES BRAGA        191364299401010101200201008000000000034151600000741580031111400000000000000000000000000000000000000000000000000000000000000000000000000000000000000000000000000000000000000000000140221223100000000010000329         020000027871630415F0000000000000000000000000000CONSULTOR DE VENDAS 20110701TNE100000000202010082020092920140221N0000000000
M001SOLDI PROMOTORA DE VENDAS LTDA     0100003290000133158CARLA C GUILHERME SILVA MARQUES    03LAVINIA ISABELE GUILHERME MARQUES  MARIA DO CARMO TORRES BRAGA        101364303431010101200201008000000000034151600000741580031111400000000000000000000000000000000000000000000000000000000000000000000000000000000000000000000000000000000000000000000140221223100000000010000329         030000027871630415F0000000000000000000000000000CONSULTOR DE VENDAS 20110701TNE100000000202010082020092920140221N0000000000
M001SOLDI PROMOTORA DE VENDAS LTDA     0100003290000133158CARLA C GUILHERME SILVA MARQUES    00CARLA C GUILHERME SILVA MARQUES    OTOCLINIC                          206900001913401999101201009000000000057370000000741580000122297000000000000000000000000000000000000000000000000000000000000000000000000000000000000000000000000000000000000000000860103200000000000016800329         000002273152000193J0000000000000000000000000000CONSULTOR DE VENDAS 20110701TNE100000000202010092020082519860103N0000000000
M001SOLDI PROMOTORA DE VENDAS LTDA     0100003290000133158CARLA C GUILHERME SILVA MARQUES    00CARLA C GUILHERME SILVA MARQUES    OTOCLINIC                          506900001914020125201201009000000000033631600000741580000122297000000000000000000000000000000000000000000000000000000000000000000000000000000000000000000000000000000000000000000860103200000000000009847329         000002273152000193J0000000000000000000000000000CONSULTOR DE VENDAS 20110701TNE100000000202010092020082519860103N0000000000
M001SOLDI PROMOTORA DE VENDAS LTDA     0100003290000133158CARLA C GUILHERME SILVA MARQUES    00CARLA C GUILHERME SILVA MARQUES    OTOCLINIC                          506900196554010343901201009000000000009321600000741580000288179000000000000000000000000000000000000000000000000000000000000000000000000000000000000000000000000000000000000000000860103200000000000002729329         000002273152000193J0000000000000000000000000000CONSULTOR DE VENDAS 20110701TNE100000000202010092020082519860103N0000000000
M001SOLDI PROMOTORA DE VENDAS LTDA     0100003290000133158CARLA C GUILHERME SILVA MARQUES    00CARLA C GUILHERME SILVA MARQUES    OTOCLINIC                          506900001914020126001201009000000000028251600000741580000122297000000000000000000000000000000000000000000000000000000000000000000000000000000000000000000000000000000000000000000860103200000000000008272329         000002273152000193J0000000000000000000000000000CONSULTOR DE VENDAS 20110701TNE100000000202010092020082519860103N0000000000
M001SOLDI PROMOTORA DE VENDAS LTDA     0100003290000133158CARLA C GUILHERME SILVA MARQUES    01JOSE WELLINGTON MARQUES            OTOCLINIC                          506900196404010310201201009000000000002861600000741580000288179000000000000000000000000000000000000000000000000000000000000000000000000000000000000000000000000000000000000000000770116110000000000000839329         010002273152000193J0000000000000000000000000000CONSULTOR DE VENDAS 20110701TNE100000000202010092020082519770116N0000000000
M001SOLDI PROMOTORA DE VENDAS LTDA     0100003290000133158CARLA C GUILHERME SILVA MARQUES    00CARLA C GUILHERME SILVA MARQUES    OTOCLINIC                          506900196554010307201201009000000000007101600000741580000288179000000000000000000000000000000000000000000000000000000000000000000000000000000000000000000000000000000000000000000860103200000000000002079329         000002273152000193J0000000000000000000000000000CONSULTOR DE VENDAS 20110701TNE100000000202010092020082519860103N0000000000
M001SOLDI PROMOTORA DE VENDAS LTDA     0100003290000133158CARLA C GUILHERME SILVA MARQUES    00CARLA C GUILHERME SILVA MARQUES    OTOCLINIC                          506900196554010309901201009000000000003541600000741580000288179000000000000000000000000000000000000000000000000000000000000000000000000000000000000000000000000000000000000000000860103200000000000001039329         000002273152000193J0000000000000000000000000000CONSULTOR DE VENDAS 20110701TNE100000000202010092020082519860103N0000000000
M001SOLDI PROMOTORA DE VENDAS LTDA     0100003290000133158CARLA C GUILHERME SILVA MARQUES    00CARLA C GUILHERME SILVA MARQUES    OTOCLINIC                          506900196554010310201201009000000000003541600000741580000288179000000000000000000000000000000000000000000000000000000000000000000000000000000000000000000000000000000000000000000860103200000000000001039329         000002273152000193J0000000000000000000000000000CONSULTOR DE VENDAS 20110701TNE100000000202010092020082519860103N0000000000
M001SOLDI PROMOTORA DE VENDAS LTDA     0100003290000133158CARLA C GUILHERME SILVA MARQUES    01JOSE WELLINGTON MARQUES            OTOCLINIC                          506900196404010307201201009000000000005731600000741580000288179000000000000000000000000000000000000000000000000000000000000000000000000000000000000000000000000000000000000000000770116110000000000001680329         010002273152000193J0000000000000000000000000000CONSULTOR DE VENDAS 20110701TNE100000000202010092020082519770116N0000000000
M001SOLDI PROMOTORA DE VENDAS LTDA     0100003290000133158CARLA C GUILHERME SILVA MARQUES    01JOSE WELLINGTON MARQUES            OTOCLINIC                          506900196404010309901201009000000000002861600000741580000288179000000000000000000000000000000000000000000000000000000000000000000000000000000000000000000000000000000000000000000770116110000000000000839329         010002273152000193J0000000000000000000000000000CONSULTOR DE VENDAS 20110701TNE100000000202010092020082519770116N0000000000
M001SOLDI PROMOTORA DE VENDAS LTDA     0100003290000133158CARLA C GUILHERME SILVA MARQUES    01JOSE WELLINGTON MARQUES            OTOCLINIC                          506900196404010343901201009000000000007161600000741580000288179000000000000000000000000000000000000000000000000000000000000000000000000000000000000000000000000000000000000000000770116110000000000002099329         010002273152000193J0000000000000000000000000000CONSULTOR DE VENDAS 20110701TNE100000000202010092020082519770116N0000000000
M001SOLDI PROMOTORA DE VENDAS LTDA     0100003290000133158CARLA C GUILHERME SILVA MARQUES    02LIVIA MARINA GUILHERME MARQUES     FISIOTERAVIDA                      100190653181010101200201026000000000034151600000741580000878693000000000000000000000000000000000000000000000000000000000000000000000000000000000000000000000000000000000000000000140221220000000000010000329         020005246196000112J0000000000000000000000000000CONSULTOR DE VENDAS 20110701TNE100000000202010262020100120140221N0000000000
M001SOLDI PROMOTORA DE VENDAS LTDA     0100003290000133158CARLA C GUILHERME SILVA MARQUES    03LAVINIA ISABELE GUILHERME MARQUES  FISIOTERAVIDA                      100190653191010101200201026000000000034151600000741580000878693000000000000000000000000000000000000000000000000000000000000000000000000000000000000000000000000000000000000000000140221220000000000010000329         030005246196000112J0000000000000000000000000000CONSULTOR DE VENDAS 20110701TNE100000000202010262020100120140221N0000000000
M001SOLDI PROMOTORA DE VENDAS LTDA     0100003290000133158CARLA C GUILHERME SILVA MARQUES    01JOSE WELLINGTON MARQUES            NOT                                100190881491010101200201027000000000034151600000741580000592390000000000000000000000000000000000000000000000000000000000000000000000000000000000000000000000000000000000000000000770116110000000000010000329         010008275191000106J0000000000000000000000000000CONSULTOR DE VENDAS 20110701TNE100000000202010272020100819770116N0000000000
M001SOLDI PROMOTORA DE VENDAS LTDA     0100003530000014055REGINA HELENA NERY BEZERRA         01HELENA PATRICIA NERY DOS SANTOS    EDNA REGINA CLINICA MEDICA         101086696991010101200201001000000000034151600000741580000331002000000000000000000000000000000000000000000000000000000000000000000000000000000000000000000000000000000000000000000000331220000000000010000353         010020076084000154J0000000000000000000000000000CONSULTOR DE VENDAS 20100804TNE100000000202010012020090220000331N0000000000
M001SOLDI PROMOTORA DE VENDAS LTDA     0100003700000017098CAROLINE MOREIRA CHAMUSCA          03GAEL MOREIRA CHAMUSCA DE LUNA      CLINICA MARIO HENRIQUE GUIMARAES   101339751980001150900201001000000000051230000000741580000640302000000000000000000000000000000000000000000000000000000000000000000000000000000000000000000000000000000000000000000200508120000000000015000370         030003828059000160J0000000000000000000000000000ASSISTENTE COMERCIAL20090923TNQ200000000202010012020091820200508N0000000000
M001SOLDI PROMOTORA DE VENDAS LTDA     0100003700000017098CAROLINE MOREIRA CHAMUSCA          01MARCELO CHAMUSCA DE LUNA           COPANEST BA                        4   FK8KDW73120507000201002000000000357571600000741580000097420000000000000000000000000000000000000000000000000000000000000000000000000000000000000000000000000000000000000000000801223110000000000104694370         010013792965000106J0000000000000000000000000000ASSISTENTE COMERCIAL20090923TNQ200000000202010022020082519801223N0000000000
M001SOLDI PROMOTORA DE VENDAS LTDA     0100003700000017098CAROLINE MOREIRA CHAMUSCA          01MARCELO CHAMUSCA DE LUNA           COPANEST BA                        106899971641010101201201009000000000034151600000741580000097420000000000000000000000000000000000000000000000000000000000000000000000000000000000000000000000000000000000000000000801223110000000000010000370         010013792965000106J0000000000000000000000000000ASSISTENTE COMERCIAL20090923TNQ200000000202010092020082719801223N0000000000
M001SOLDI PROMOTORA DE VENDAS LTDA     0100003700000017098CAROLINE MOREIRA CHAMUSCA          00CAROLINE MOREIRA CHAMUSCA          IMAGE MEMORIAL ITAIGARA            606733764514090124601201009000000000046301600000741580000587478000000000000000000000000000000000000000000000000000000000000000000000000000000000000000000000000000000000000000000880307200000000000013557370         000061486650025682J0000000000000000000000000000ASSISTENTE COMERCIAL20090923TNQ200000000202010092019110619880307N0000000000
M001SOLDI PROMOTORA DE VENDAS LTDA     0100003700000017098CAROLINE MOREIRA CHAMUSCA          03GAEL MOREIRA CHAMUSCA DE LUNA      CLINICA MARIO HENRIQUE GUIMARAES   101382598190001150900201020000000000051230000000741580000640302000000000000000000000000000000000000000000000000000000000000000000000000000000000000000000000000000000000000000000200508120000000000015000370         030003828059000160J0000000000000000000000000000ASSISTENTE COMERCIAL20090923TNQ200000000202010202020100720200508N0000000000
M001SOLDI PROMOTORA DE VENDAS LTDA     0100003700000017098CAROLINE MOREIRA CHAMUSCA          01MARCELO CHAMUSCA DE LUNA           COOPERURO                          4   FK8KDW73120507000201023000000000537061600000741580000446202000000000000000000000000000000000000000000000000000000000000000000000000000000000000000000000000000000000000000000801223110000000000157248370         010005027686000128J0000000000000000000000000000ASSISTENTE COMERCIAL20090923TNQ200000000202010232020082519801223N0000000000
M001SOLDI PROMOTORA DE VENDAS LTDA     0100003700000017098CAROLINE MOREIRA CHAMUSCA          01MARCELO CHAMUSCA DE LUNA           COOPERURO                          4   FK8KDW73120507000201023000000000161111600000741580000446202000000000000000000000000000000000000000000000000000000000000000000000000000000000000000000000000000000000000000000801223110000000000047174370         010005027686000128J0000000000000000000000000000ASSISTENTE COMERCIAL20090923TNQ200000000202010232020082519801223N0000000000
M001SOLDI PROMOTORA DE VENDAS LTDA     0100003700000017098CAROLINE MOREIRA CHAMUSCA          01MARCELO CHAMUSCA DE LUNA           COOPERURO                          4   FK8KDW73120507000201023000000000053701600000741580000446202000000000000000000000000000000000000000000000000000000000000000000000000000000000000000000000000000000000000000000801223110000000000015724370         010005027686000128J0000000000000000000000000000ASSISTENTE COMERCIAL20090923TNQ200000000202010232020082519801223N0000000000
M001SOLDI PROMOTORA DE VENDAS LTDA     0100003700000017098CAROLINE MOREIRA CHAMUSCA          00CAROLINE MOREIRA CHAMUSCA          LABORATORIO LEME                   506901299994030193101201027000000000001431600000741580000140903000000000000000000000000000000000000000000000000000000000000000000000000000000000000000000000000000000000000000000880307200000000000000420370         000061486650090581J0000000000000000000000000000ASSISTENTE COMERCIAL20090923TNQ200000000202010272020080819880307N0000000000
M001SOLDI PROMOTORA DE VENDAS LTDA     0100003700000017098CAROLINE MOREIRA CHAMUSCA          00CAROLINE MOREIRA CHAMUSCA          LABORATORIO LEME                   506901299994030238501201027000000000001371600000741580000140903000000000000000000000000000000000000000000000000000000000000000000000000000000000000000000000000000000000000000000880307200000000000000402370         000061486650090581J0000000000000000000000000000ASSISTENTE COMERCIAL20090923TNQ200000000202010272020080819880307N0000000000
M001SOLDI PROMOTORA DE VENDAS LTDA     0100003700000017098CAROLINE MOREIRA CHAMUSCA          00CAROLINE MOREIRA CHAMUSCA          LABORATORIO LEME                   506901299994030160501201027000000000001281600000741580000140903000000000000000000000000000000000000000000000000000000000000000000000000000000000000000000000000000000000000000000880307200000000000000376370         000061486650090581J0000000000000000000000000000ASSISTENTE COMERCIAL20090923TNQ200000000202010272020080819880307N0000000000
M001SOLDI PROMOTORA DE VENDAS LTDA     0100003700000017098CAROLINE MOREIRA CHAMUSCA          00CAROLINE MOREIRA CHAMUSCA          LABORATORIO LEME                   506901299994030163001201027000000000001281600000741580000140903000000000000000000000000000000000000000000000000000000000000000000000000000000000000000000000000000000000000000000880307200000000000000376370         000061486650090581J0000000000000000000000000000ASSISTENTE COMERCIAL20090923TNQ200000000202010272020080819880307N0000000000
M001SOLDI PROMOTORA DE VENDAS LTDA     0100003700000017098CAROLINE MOREIRA CHAMUSCA          00CAROLINE MOREIRA CHAMUSCA          LABORATORIO LEME                   506901299994030184201201027000000000001641600000741580000140903000000000000000000000000000000000000000000000000000000000000000000000000000000000000000000000000000000000000000000880307200000000000000483370         000061486650090581J0000000000000000000000000000ASSISTENTE COMERCIAL20090923TNQ200000000202010272020080819880307N0000000000
M001SOLDI PROMOTORA DE VENDAS LTDA     0100003700000017098CAROLINE MOREIRA CHAMUSCA          00CAROLINE MOREIRA CHAMUSCA          LABORATORIO LEME                   506901299994030199001201027000000000001821600000741580000140903000000000000000000000000000000000000000000000000000000000000000000000000000000000000000000000000000000000000000000880307200000000000000535370         000061486650090581J0000000000000000000000000000ASSISTENTE COMERCIAL20090923TNQ200000000202010272020080819880307N0000000000
M001SOLDI PROMOTORA DE VENDAS LTDA     0100003700000017098CAROLINE MOREIRA CHAMUSCA          00CAROLINE MOREIRA CHAMUSCA          LABORATORIO LEME                   506901299994030204001201027000000000001281600000741580000140903000000000000000000000000000000000000000000000000000000000000000000000000000000000000000000000000000000000000000000880307200000000000000376370         000061486650090581J0000000000000000000000000000ASSISTENTE COMERCIAL20090923TNQ200000000202010272020080819880307N0000000000
M001SOLDI PROMOTORA DE VENDAS LTDA     0100003700000017098CAROLINE MOREIRA CHAMUSCA          00CAROLINE MOREIRA CHAMUSCA          LABORATORIO LEME                   506901299994030207501201027000000000004111600000741580000140903000000000000000000000000000000000000000000000000000000000000000000000000000000000000000000000000000000000000000000880307200000000000001205370         000061486650090581J0000000000000000000000000000ASSISTENTE COMERCIAL20090923TNQ200000000202010272020080819880307N0000000000
M001SOLDI PROMOTORA DE VENDAS LTDA     0100003700000017098CAROLINE MOREIRA CHAMUSCA          00CAROLINE MOREIRA CHAMUSCA          LABORATORIO LEME                   506901299994030231801201027000000000001281600000741580000140903000000000000000000000000000000000000000000000000000000000000000000000000000000000000000000000000000000000000000000880307200000000000000376370         000061486650090581J0000000000000000000000000000ASSISTENTE COMERCIAL20090923TNQ200000000202010272020080819880307N0000000000
M001SOLDI PROMOTORA DE VENDAS LTDA     0100003700000017098CAROLINE MOREIRA CHAMUSCA          00CAROLINE MOREIRA CHAMUSCA          LABORATORIO LEME                   506901299994030242301201027000000000001281600000741580000140903000000000000000000000000000000000000000000000000000000000000000000000000000000000000000000000000000000000000000000880307200000000000000376370         000061486650090581J0000000000000000000000000000ASSISTENTE COMERCIAL20090923TNQ200000000202010272020080819880307N0000000000
M001SOLDI PROMOTORA DE VENDAS LTDA     0100003700000017098CAROLINE MOREIRA CHAMUSCA          00CAROLINE MOREIRA CHAMUSCA          LABORATORIO LEME                   506901299994030250401201027000000000001281600000741580000140903000000000000000000000000000000000000000000000000000000000000000000000000000000000000000000000000000000000000000000880307200000000000000376370         000061486650090581J0000000000000000000000000000ASSISTENTE COMERCIAL20090923TNQ200000000202010272020080819880307N0000000000
M001SOLDI PROMOTORA DE VENDAS LTDA     0100003700000017098CAROLINE MOREIRA CHAMUSCA          00CAROLINE MOREIRA CHAMUSCA          LABORATORIO LEME                   506901299994030251201201027000000000001281600000741580000140903000000000000000000000000000000000000000000000000000000000000000000000000000000000000000000000000000000000000000000880307200000000000000376370         000061486650090581J0000000000000000000000000000ASSISTENTE COMERCIAL20090923TNQ200000000202010272020080819880307N0000000000
M001SOLDI PROMOTORA DE VENDAS LTDA     0100003700000017098CAROLINE MOREIRA CHAMUSCA          00CAROLINE MOREIRA CHAMUSCA          LABORATORIO LEME                   506901299994031655601201027000000000005941600000741580000140903000000000000000000000000000000000000000000000000000000000000000000000000000000000000000000000000000000000000000000880307200000000000001742370         000061486650090581J0000000000000000000000000000ASSISTENTE COMERCIAL20090923TNQ200000000202010272020080819880307N0000000000
M001SOLDI PROMOTORA DE VENDAS LTDA     0100003700000017098CAROLINE MOREIRA CHAMUSCA          00CAROLINE MOREIRA CHAMUSCA          LABORATORIO LEME                   506901299994030576701201027000000000006661600000741580000140903000000000000000000000000000000000000000000000000000000000000000000000000000000000000000000000000000000000000000000880307200000000000001950370         000061486650090581J0000000000000000000000000000ASSISTENTE COMERCIAL20090923TNQ200000000202010272020080819880307N0000000000
M001SOLDI PROMOTORA DE VENDAS LTDA     0100003700000017098CAROLINE MOREIRA CHAMUSCA          00CAROLINE MOREIRA CHAMUSCA          LABORATORIO LEME                   506901299994030188501201027000000000001641600000741580000140903000000000000000000000000000000000000000000000000000000000000000000000000000000000000000000000000000000000000000000880307200000000000000483370         000061486650090581J0000000000000000000000000000ASSISTENTE COMERCIAL20090923TNQ200000000202010272020080819880307N0000000000
M001SOLDI PROMOTORA DE VENDAS LTDA     0100003700000017098CAROLINE MOREIRA CHAMUSCA          00CAROLINE MOREIRA CHAMUSCA          LABORATORIO LEME                   506901299994031628901201027000000000005941600000741580000140903000000000000000000000000000000000000000000000000000000000000000000000000000000000000000000000000000000000000000000880307200000000000001742370         000061486650090581J0000000000000000000000000000ASSISTENTE COMERCIAL20090923TNQ200000000202010272020080819880307N0000000000
M001SOLDI PROMOTORA DE VENDAS LTDA     0100003700000017098CAROLINE MOREIRA CHAMUSCA          00CAROLINE MOREIRA CHAMUSCA          LABORATORIO LEME                   506901299994031654801201027000000000005941600000741580000140903000000000000000000000000000000000000000000000000000000000000000000000000000000000000000000000000000000000000000000880307200000000000001742370         000061486650090581J0000000000000000000000000000ASSISTENTE COMERCIAL20090923TNQ200000000202010272020080819880307N0000000000
M001SOLDI PROMOTORA DE VENDAS LTDA     0100003700000017098CAROLINE MOREIRA CHAMUSCA          00CAROLINE MOREIRA CHAMUSCA          LABORATORIO LEME                   506901299994031657201201027000000000008621600000741580000140903000000000000000000000000000000000000000000000000000000000000000000000000000000000000000000000000000000000000000000880307200000000000002524370         000061486650090581J0000000000000000000000000000ASSISTENTE COMERCIAL20090923TNQ200000000202010272020080819880307N0000000000
M001SOLDI PROMOTORA DE VENDAS LTDA     0100003700000017098CAROLINE MOREIRA CHAMUSCA          00CAROLINE MOREIRA CHAMUSCA          LABORATORIO LEME                   506901299994030106001201027000000000001431600000741580000140903000000000000000000000000000000000000000000000000000000000000000000000000000000000000000000000000000000000000000000880307200000000000000420370         000061486650090581J0000000000000000000000000000ASSISTENTE COMERCIAL20090923TNQ200000000202010272020080819880307N0000000000
M001SOLDI PROMOTORA DE VENDAS LTDA     0100003700000017098CAROLINE MOREIRA CHAMUSCA          00CAROLINE MOREIRA CHAMUSCA          LABORATORIO LEME                   506901299994030115001201027000000000001281600000741580000140903000000000000000000000000000000000000000000000000000000000000000000000000000000000000000000000000000000000000000000880307200000000000000376370         000061486650090581J0000000000000000000000000000ASSISTENTE COMERCIAL20090923TNQ200000000202010272020080819880307N0000000000
M001SOLDI PROMOTORA DE VENDAS LTDA     0100003700000017098CAROLINE MOREIRA CHAMUSCA          00CAROLINE MOREIRA CHAMUSCA          LABORATORIO LEME                   506901299994030140001201027000000000001431600000741580000140903000000000000000000000000000000000000000000000000000000000000000000000000000000000000000000000000000000000000000000880307200000000000000420370         000061486650090581J0000000000000000000000000000ASSISTENTE COMERCIAL20090923TNQ200000000202010272020080819880307N0000000000
M001SOLDI PROMOTORA DE VENDAS LTDA     0100003700000017098CAROLINE MOREIRA CHAMUSCA          00CAROLINE MOREIRA CHAMUSCA          LABORATORIO LEME                   506901299994030141901201027000000000002021600000741580000140903000000000000000000000000000000000000000000000000000000000000000000000000000000000000000000000000000000000000000000880307200000000000000592370         000061486650090581J0000000000000000000000000000ASSISTENTE COMERCIAL20090923TNQ200000000202010272020080819880307N0000000000
M001SOLDI PROMOTORA DE VENDAS LTDA     0100003700000017098CAROLINE MOREIRA CHAMUSCA          00CAROLINE MOREIRA CHAMUSCA          LABORATORIO LEME                   506901299994030158301201027000000000002291600000741580000140903000000000000000000000000000000000000000000000000000000000000000000000000000000000000000000000000000000000000000000880307200000000000000671370         000061486650090581J0000000000000000000000000000ASSISTENTE COMERCIAL20090923TNQ200000000202010272020080819880307N0000000000
M001SOLDI PROMOTORA DE VENDAS LTDA     0100003700000017098CAROLINE MOREIRA CHAMUSCA          00CAROLINE MOREIRA CHAMUSCA          LABORATORIO LEME                   506901299994030159101201027000000000002741600000741580000140903000000000000000000000000000000000000000000000000000000000000000000000000000000000000000000000000000000000000000000880307200000000000000804370         000061486650090581J0000000000000000000000000000ASSISTENTE COMERCIAL20090923TNQ200000000202010272020080819880307N0000000000
M001SOLDI PROMOTORA DE VENDAS LTDA     0100003700000017098CAROLINE MOREIRA CHAMUSCA          00CAROLINE MOREIRA CHAMUSCA          LABORATORIO LEME                   506901299994030254701201027000000000001821600000741580000140903000000000000000000000000000000000000000000000000000000000000000000000000000000000000000000000000000000000000000000880307200000000000000535370         000061486650090581J0000000000000000000000000000ASSISTENTE COMERCIAL20090923TNQ200000000202010272020080819880307N0000000000
M001SOLDI PROMOTORA DE VENDAS LTDA     0100003700000017098CAROLINE MOREIRA CHAMUSCA          00CAROLINE MOREIRA CHAMUSCA          LABORATORIO LEME                   506901299994030260101201027000000000010241600000741580000140903000000000000000000000000000000000000000000000000000000000000000000000000000000000000000000000000000000000000000000880307200000000000002999370         000061486650090581J0000000000000000000000000000ASSISTENTE COMERCIAL20090923TNQ200000000202010272020080819880307N0000000000
M001SOLDI PROMOTORA DE VENDAS LTDA     0100003700000017098CAROLINE MOREIRA CHAMUSCA          00CAROLINE MOREIRA CHAMUSCA          LABORATORIO LEME                   506901299994030269501201027000000000003661600000741580000140903000000000000000000000000000000000000000000000000000000000000000000000000000000000000000000000000000000000000000000880307200000000000001072370         000061486650090581J0000000000000000000000000000ASSISTENTE COMERCIAL20090923TNQ200000000202010272020080819880307N0000000000
M001SOLDI PROMOTORA DE VENDAS LTDA     0100003700000017098CAROLINE MOREIRA CHAMUSCA          00CAROLINE MOREIRA CHAMUSCA          LABORATORIO LEME                   506901299994030281401201027000000000010241600000741580000140903000000000000000000000000000000000000000000000000000000000000000000000000000000000000000000000000000000000000000000880307200000000000002999370         000061486650090581J0000000000000000000000000000ASSISTENTE COMERCIAL20090923TNQ200000000202010272020080819880307N0000000000
M001SOLDI PROMOTORA DE VENDAS LTDA     0100003700000017098CAROLINE MOREIRA CHAMUSCA          00CAROLINE MOREIRA CHAMUSCA          LABORATORIO LEME                   506901299994030436101201027000000000002741600000741580000140903000000000000000000000000000000000000000000000000000000000000000000000000000000000000000000000000000000000000000000880307200000000000000804370         000061486650090581J0000000000000000000000000000ASSISTENTE COMERCIAL20090923TNQ200000000202010272020080819880307N0000000000
M001SOLDI PROMOTORA DE VENDAS LTDA     0100003700000017098CAROLINE MOREIRA CHAMUSCA          00CAROLINE MOREIRA CHAMUSCA          LABORATORIO LEME                   506901299994030501501201027000000000012081600000741580000140903000000000000000000000000000000000000000000000000000000000000000000000000000000000000000000000000000000000000000000880307200000000000003538370         000061486650090581J0000000000000000000000000000ASSISTENTE COMERCIAL20090923TNQ200000000202010272020080819880307N0000000000
M001SOLDI PROMOTORA DE VENDAS LTDA     0100003700000017098CAROLINE MOREIRA CHAMUSCA          00CAROLINE MOREIRA CHAMUSCA          LABORATORIO LEME                   506901299994031332801201027000000000007101600000741580000140903000000000000000000000000000000000000000000000000000000000000000000000000000000000000000000000000000000000000000000880307200000000000002079370         000061486650090581J0000000000000000000000000000ASSISTENTE COMERCIAL20090923TNQ200000000202010272020080819880307N0000000000
M001SOLDI PROMOTORA DE VENDAS LTDA     0100003700000017098CAROLINE MOREIRA CHAMUSCA          00CAROLINE MOREIRA CHAMUSCA          LABORATORIO LEME                   506901299994031610601201027000000000009601600000741580000140903000000000000000000000000000000000000000000000000000000000000000000000000000000000000000000000000000000000000000000880307200000000000002813370         000061486650090581J0000000000000000000000000000ASSISTENTE COMERCIAL20090923TNQ200000000202010272020080819880307N0000000000
M001SOLDI PROMOTORA DE VENDAS LTDA     0100003700000017098CAROLINE MOREIRA CHAMUSCA          00CAROLINE MOREIRA CHAMUSCA          LABORATORIO LEME                   606901299994031615701201027000000000009321600000741580000140903000000000000000000000000000000000000000000000000000000000000000000000000000000000000000000000000000000000000000000880307200000000000002731370         000061486650090581J0000000000000000000000000000ASSISTENTE COMERCIAL20090923TNQ200000000202010272020080819880307N0000000000
M001SOLDI PROMOTORA DE VENDAS LTDA     0100003700000017098CAROLINE MOREIRA CHAMUSCA          00CAROLINE MOREIRA CHAMUSCA          LABORATORIO LEME                   506901299994031627001201027000000000011441600000741580000140903000000000000000000000000000000000000000000000000000000000000000000000000000000000000000000000000000000000000000000880307200000000000003351370         000061486650090581J0000000000000000000000000000ASSISTENTE COMERCIAL20090923TNQ200000000202010272020080819880307N0000000000
M001SOLDI PROMOTORA DE VENDAS LTDA     0100003700000017098CAROLINE MOREIRA CHAMUSCA          00CAROLINE MOREIRA CHAMUSCA          LABORATORIO LEME                   506901299994031633501201027000000000005941600000741580000140903000000000000000000000000000000000000000000000000000000000000000000000000000000000000000000000000000000000000000000880307200000000000001742370         000061486650090581J0000000000000000000000000000ASSISTENTE COMERCIAL20090923TNQ200000000202010272020080819880307N0000000000
M001SOLDI PROMOTORA DE VENDAS LTDA     0100003700000017098CAROLINE MOREIRA CHAMUSCA          00CAROLINE MOREIRA CHAMUSCA          LABORATORIO LEME                   506901299994031641601201027000000000007771600000741580000140903000000000000000000000000000000000000000000000000000000000000000000000000000000000000000000000000000000000000000000880307200000000000002277370         000061486650090581J0000000000000000000000000000ASSISTENTE COMERCIAL20090923TNQ200000000202010272020080819880307N0000000000
M001SOLDI PROMOTORA DE VENDAS LTDA     0100003700000017098CAROLINE MOREIRA CHAMUSCA          00CAROLINE MOREIRA CHAMUSCA          LABORATORIO LEME                   506901299994031646701201027000000000007271600000741580000140903000000000000000000000000000000000000000000000000000000000000000000000000000000000000000000000000000000000000000000880307200000000000002129370         000061486650090581J0000000000000000000000000000ASSISTENTE COMERCIAL20090923TNQ200000000202010272020080819880307N0000000000
M001SOLDI PROMOTORA DE VENDAS LTDA     0100003700000017098CAROLINE MOREIRA CHAMUSCA          00CAROLINE MOREIRA CHAMUSCA          LABORATORIO LEME                   506901299994031649101201027000000000007771600000741580000140903000000000000000000000000000000000000000000000000000000000000000000000000000000000000000000000000000000000000000000880307200000000000002277370         000061486650090581J0000000000000000000000000000ASSISTENTE COMERCIAL20090923TNQ200000000202010272020080819880307N0000000000
M001SOLDI PROMOTORA DE VENDAS LTDA     0100003700000017098CAROLINE MOREIRA CHAMUSCA          00CAROLINE MOREIRA CHAMUSCA          LABORATORIO LEME                   506901299994031650501201027000000000013721600000741580000140903000000000000000000000000000000000000000000000000000000000000000000000000000000000000000000000000000000000000000000880307200000000000004020370         000061486650090581J0000000000000000000000000000ASSISTENTE COMERCIAL20090923TNQ200000000202010272020080819880307N0000000000
M001SOLDI PROMOTORA DE VENDAS LTDA     0100003700000017098CAROLINE MOREIRA CHAMUSCA          00CAROLINE MOREIRA CHAMUSCA          LABORATORIO LEME                   506901299994031651301201027000000000009601600000741580000140903000000000000000000000000000000000000000000000000000000000000000000000000000000000000000000000000000000000000000000880307200000000000002813370         000061486650090581J0000000000000000000000000000ASSISTENTE COMERCIAL20090923TNQ200000000202010272020080819880307N0000000000
M001SOLDI PROMOTORA DE VENDAS LTDA     0100003700000017098CAROLINE MOREIRA CHAMUSCA          00CAROLINE MOREIRA CHAMUSCA          LABORATORIO LEME                   506901299994031652101201027000000000007771600000741580000140903000000000000000000000000000000000000000000000000000000000000000000000000000000000000000000000000000000000000000000880307200000000000002277370         000061486650090581J0000000000000000000000000000ASSISTENTE COMERCIAL20090923TNQ200000000202010272020080819880307N0000000000
M001SOLDI PROMOTORA DE VENDAS LTDA     0100003700000017098CAROLINE MOREIRA CHAMUSCA          01MARCELO CHAMUSCA DE LUNA           DNA LABORATORIO DE GENETICA        506908006734031461801201030000000000071721600000741580000974633000000000000000000000000000000000000000000000000000000000000000000000000000000000000000000000000000000000000000000801223110000000000021000370         010000912031000119J0000000000000000000000000000ASSISTENTE COMERCIAL20090923TNQ200000000202010302020090119801223N0000000000
M001SOLDI PROMOTORA DE VENDAS LTDA     0100003880000017124LUCIANA DO ESPIRITO SANTO ARAUJO   00LUCIANA DO ESPIRITO SANTO ARAUJO   CLION                              100190174881010101200201016000000000034151600000741580000104027000000000000000000000000000000000000000000000000000000000000000000000000000000000000000000000000000000000000000000710322200000000000010000388         000013501218000171J0000000000000000000000000000CONSULTOR DE VENDAS 20100719TNE100000000202010162020100519710322N0000000000
M001SOLDI PROMOTORA DE VENDAS LTDA     0100003880000017124LUCIANA DO ESPIRITO SANTO ARAUJO   01ULISSES SOUZA ARAUJO               CARDIO PULMONAR DA BAHIA           506907232964030204001201020000000000001691600000741580000578673000000000000000000000000000000000000000000000000000000000000000000000000000000000000000000000000000000000000000000811116110000000000000496388         010013952064000134J0000000000000000000000000000CONSULTOR DE VENDAS 20100719TNE100000000202010202020090419811116N0000000000
M001SOLDI PROMOTORA DE VENDAS LTDA     0100003880000017124LUCIANA DO ESPIRITO SANTO ARAUJO   01ULISSES SOUZA ARAUJO               CARDIO PULMONAR DA BAHIA           506907232964030273301201020000000000013911600000741580000578673000000000000000000000000000000000000000000000000000000000000000000000000000000000000000000000000000000000000000000811116110000000000004073388         010013952064000134J0000000000000000000000000000CONSULTOR DE VENDAS 20100719TNE100000000202010202020090419811116N0000000000
M001SOLDI PROMOTORA DE VENDAS LTDA     0100003880000017124LUCIANA DO ESPIRITO SANTO ARAUJO   01ULISSES SOUZA ARAUJO               CARDIO PULMONAR DA BAHIA           506907232964030160501201020000000000001691600000741580000578673000000000000000000000000000000000000000000000000000000000000000000000000000000000000000000000000000000000000000000811116110000000000000496388         010013952064000134J0000000000000000000000000000CONSULTOR DE VENDAS 20100719TNE100000000202010202020090419811116N0000000000
M001SOLDI PROMOTORA DE VENDAS LTDA     0100003880000017124LUCIANA DO ESPIRITO SANTO ARAUJO   01ULISSES SOUZA ARAUJO               CARDIO PULMONAR DA BAHIA           506907232964030158301201020000000000003021600000741580000578673000000000000000000000000000000000000000000000000000000000000000000000000000000000000000000000000000000000000000000811116110000000000000886388         010013952064000134J0000000000000000000000000000CONSULTOR DE VENDAS 20100719TNE100000000202010202020090419811116N0000000000
M001SOLDI PROMOTORA DE VENDAS LTDA     0100003880000017124LUCIANA DO ESPIRITO SANTO ARAUJO   01ULISSES SOUZA ARAUJO               CARDIO PULMONAR DA BAHIA           506907232964030159101201020000000000003621600000741580000578673000000000000000000000000000000000000000000000000000000000000000000000000000000000000000000000000000000000000000000811116110000000000001062388         010013952064000134J0000000000000000000000000000CONSULTOR DE VENDAS 20100719TNE100000000202010202020090419811116N0000000000
M001SOLDI PROMOTORA DE VENDAS LTDA     0100003880000017124LUCIANA DO ESPIRITO SANTO ARAUJO   01ULISSES SOUZA ARAUJO               CARDIO PULMONAR DA BAHIA           506907232964030269501201020000000000004831600000741580000578673000000000000000000000000000000000000000000000000000000000000000000000000000000000000000000000000000000000000000000811116110000000000001415388         010013952064000134J0000000000000000000000000000CONSULTOR DE VENDAS 20100719TNE100000000202010202020090419811116N0000000000
M001SOLDI PROMOTORA DE VENDAS LTDA     0100003880000017124LUCIANA DO ESPIRITO SANTO ARAUJO   01ULISSES SOUZA ARAUJO               CARDIO PULMONAR DA BAHIA           506907232964030254701201020000000000002411600000741580000578673000000000000000000000000000000000000000000000000000000000000000000000000000000000000000000000000000000000000000000811116110000000000000707388         010013952064000134J0000000000000000000000000000CONSULTOR DE VENDAS 20100719TNE100000000202010202020090419811116N0000000000
M001SOLDI PROMOTORA DE VENDAS LTDA     0100003880000017124LUCIANA DO ESPIRITO SANTO ARAUJO   01ULISSES SOUZA ARAUJO               CARDIO PULMONAR DA BAHIA           506907232964030258001201020000000000001691600000741580000578673000000000000000000000000000000000000000000000000000000000000000000000000000000000000000000000000000000000000000000811116110000000000000496388         010013952064000134J0000000000000000000000000000CONSULTOR DE VENDAS 20100719TNE100000000202010202020090419811116N0000000000
M001SOLDI PROMOTORA DE VENDAS LTDA     0100003880000017124LUCIANA DO ESPIRITO SANTO ARAUJO   01ULISSES SOUZA ARAUJO               CARDIO PULMONAR DA BAHIA           506907232974030163001201020000000000001691600000741580000578673000000000000000000000000000000000000000000000000000000000000000000000000000000000000000000000000000000000000000000811116110000000000000496388         010013952064000134J0000000000000000000000000000CONSULTOR DE VENDAS 20100719TNE100000000202010202020090419811116N0000000000
M001SOLDI PROMOTORA DE VENDAS LTDA     0100003880000017124LUCIANA DO ESPIRITO SANTO ARAUJO   01ULISSES SOUZA ARAUJO               CARDIO PULMONAR DA BAHIA           506907232974030250401201020000000000001691600000741580000578673000000000000000000000000000000000000000000000000000000000000000000000000000000000000000000000000000000000000000000811116110000000000000496388         010013952064000134J0000000000000000000000000000CONSULTOR DE VENDAS 20100719TNE100000000202010202020090419811116N0000000000
M001SOLDI PROMOTORA DE VENDAS LTDA     0100003880000017124LUCIANA DO ESPIRITO SANTO ARAUJO   01ULISSES SOUZA ARAUJO               CARDIO PULMONAR DA BAHIA           506907232974030251201201020000000000001691600000741580000578673000000000000000000000000000000000000000000000000000000000000000000000000000000000000000000000000000000000000000000811116110000000000000496388         010013952064000134J0000000000000000000000000000CONSULTOR DE VENDAS 20100719TNE100000000202010202020090419811116N0000000000
M001SOLDI PROMOTORA DE VENDAS LTDA     0100003880000017124LUCIANA DO ESPIRITO SANTO ARAUJO   01ULISSES SOUZA ARAUJO               CARDIO PULMONAR DA BAHIA           506907232974030199001201020000000000002411600000741580000578673000000000000000000000000000000000000000000000000000000000000000000000000000000000000000000000000000000000000000000811116110000000000000707388         010013952064000134J0000000000000000000000000000CONSULTOR DE VENDAS 20100719TNE100000000202010202020090419811116N0000000000
M001SOLDI PROMOTORA DE VENDAS LTDA     0100003880000017124LUCIANA DO ESPIRITO SANTO ARAUJO   01ULISSES SOUZA ARAUJO               CARDIO PULMONAR DA BAHIA           506907232974031649101201020000000000010261600000741580000578673000000000000000000000000000000000000000000000000000000000000000000000000000000000000000000000000000000000000000000811116110000000000003006388         010013952064000134J0000000000000000000000000000CONSULTOR DE VENDAS 20100719TNE100000000202010202020090419811116N0000000000
M001SOLDI PROMOTORA DE VENDAS LTDA     0100003880000017124LUCIANA DO ESPIRITO SANTO ARAUJO   01ULISSES SOUZA ARAUJO               CARDIO PULMONAR DA BAHIA           506907232974031652101201020000000000010261600000741580000578673000000000000000000000000000000000000000000000000000000000000000000000000000000000000000000000000000000000000000000811116110000000000003006388         010013952064000134J0000000000000000000000000000CONSULTOR DE VENDAS 20100719TNE100000000202010202020090419811116N0000000000
M001SOLDI PROMOTORA DE VENDAS LTDA     0100003880000017124LUCIANA DO ESPIRITO SANTO ARAUJO   01ULISSES SOUZA ARAUJO               CARDIO PULMONAR DA BAHIA           506907232974031610601201020000000000012681600000741580000578673000000000000000000000000000000000000000000000000000000000000000000000000000000000000000000000000000000000000000000811116110000000000003714388         010013952064000134J0000000000000000000000000000CONSULTOR DE VENDAS 20100719TNE100000000202010202020090419811116N0000000000
M001SOLDI PROMOTORA DE VENDAS LTDA     0100003880000017124LUCIANA DO ESPIRITO SANTO ARAUJO   01ULISSES SOUZA ARAUJO               CARDIO PULMONAR DA BAHIA           506907232974030643701201020000000000009671600000741580000578673000000000000000000000000000000000000000000000000000000000000000000000000000000000000000000000000000000000000000000811116110000000000002832388         010013952064000134J0000000000000000000000000000CONSULTOR DE VENDAS 20100719TNE100000000202010202020090419811116N0000000000
M001SOLDI PROMOTORA DE VENDAS LTDA     0100003880000017124LUCIANA DO ESPIRITO SANTO ARAUJO   01ULISSES SOUZA ARAUJO               CARDIO PULMONAR DA BAHIA           506907232974030115001201020000000000001691600000741580000578673000000000000000000000000000000000000000000000000000000000000000000000000000000000000000000000000000000000000000000811116110000000000000496388         010013952064000134J0000000000000000000000000000CONSULTOR DE VENDAS 20100719TNE100000000202010202020090419811116N0000000000
M001SOLDI PROMOTORA DE VENDAS LTDA     0100003880000017124LUCIANA DO ESPIRITO SANTO ARAUJO   01ULISSES SOUZA ARAUJO               CARDIO PULMONAR DA BAHIA           506907232984030164801201020000000000006041600000741580000578673000000000000000000000000000000000000000000000000000000000000000000000000000000000000000000000000000000000000000000811116110000000000001770388         010013952064000134J0000000000000000000000000000CONSULTOR DE VENDAS 20100719TNE100000000202010202020090419811116N0000000000
M001SOLDI PROMOTORA DE VENDAS LTDA     0100003880000017124LUCIANA DO ESPIRITO SANTO ARAUJO   01ULISSES SOUZA ARAUJO               CARDIO PULMONAR DA BAHIA           506907232984031614901201020000000000018121600000741580000578673000000000000000000000000000000000000000000000000000000000000000000000000000000000000000000000000000000000000000000811116110000000000005308388         010013952064000134J0000000000000000000000000000CONSULTOR DE VENDAS 20100719TNE100000000202010202020090419811116N0000000000
M001SOLDI PROMOTORA DE VENDAS LTDA     0100003880000017124LUCIANA DO ESPIRITO SANTO ARAUJO   01ULISSES SOUZA ARAUJO               CARDIO PULMONAR DA BAHIA           506907232984031641601201020000000000010261600000741580000578673000000000000000000000000000000000000000000000000000000000000000000000000000000000000000000000000000000000000000000811116110000000000003006388         010013952064000134J0000000000000000000000000000CONSULTOR DE VENDAS 20100719TNE100000000202010202020090419811116N0000000000
M001SOLDI PROMOTORA DE VENDAS LTDA     0100003880000017124LUCIANA DO ESPIRITO SANTO ARAUJO   01ULISSES SOUZA ARAUJO               CARDIO PULMONAR DA BAHIA           506907232984031624601201020000000000012081600000741580000578673000000000000000000000000000000000000000000000000000000000000000000000000000000000000000000000000000000000000000000811116110000000000003538388         010013952064000134J0000000000000000000000000000CONSULTOR DE VENDAS 20100719TNE100000000202010202020090419811116N0000000000
M001SOLDI PROMOTORA DE VENDAS LTDA     0100003880000017124LUCIANA DO ESPIRITO SANTO ARAUJO   01ULISSES SOUZA ARAUJO               CARDIO PULMONAR DA BAHIA           506907232984031633501201020000000000007851600000741580000578673000000000000000000000000000000000000000000000000000000000000000000000000000000000000000000000000000000000000000000811116110000000000002301388         010013952064000134J0000000000000000000000000000CONSULTOR DE VENDAS 20100719TNE100000000202010202020090419811116N0000000000
M001SOLDI PROMOTORA DE VENDAS LTDA     0100003880000017124LUCIANA DO ESPIRITO SANTO ARAUJO   01ULISSES SOUZA ARAUJO               CARDIO PULMONAR DA BAHIA           506907232984031628901201020000000000007851600000741580000578673000000000000000000000000000000000000000000000000000000000000000000000000000000000000000000000000000000000000000000811116110000000000002301388         010013952064000134J0000000000000000000000000000CONSULTOR DE VENDAS 20100719TNE100000000202010202020090419811116N0000000000
M001SOLDI PROMOTORA DE VENDAS LTDA     0100003880000017124LUCIANA DO ESPIRITO SANTO ARAUJO   01ULISSES SOUZA ARAUJO               CARDIO PULMONAR DA BAHIA           506907232984030238501201020000000000001811600000741580000578673000000000000000000000000000000000000000000000000000000000000000000000000000000000000000000000000000000000000000000811116110000000000000531388         010013952064000134J0000000000000000000000000000CONSULTOR DE VENDAS 20100719TNE100000000202010202020090419811116N0000000000
M001SOLDI PROMOTORA DE VENDAS LTDA     0100003880000017124LUCIANA DO ESPIRITO SANTO ARAUJO   01ULISSES SOUZA ARAUJO               CARDIO PULMONAR DA BAHIA           506907232984031651301201020000000000012681600000741580000578673000000000000000000000000000000000000000000000000000000000000000000000000000000000000000000000000000000000000000000811116110000000000003714388         010013952064000134J0000000000000000000000000000CONSULTOR DE VENDAS 20100719TNE100000000202010202020090419811116N0000000000
M001SOLDI PROMOTORA DE VENDAS LTDA     0100003880000017124LUCIANA DO ESPIRITO SANTO ARAUJO   01ULISSES SOUZA ARAUJO               CARDIO PULMONAR DA BAHIA           506907232984030839101201020000000000008091600000741580000578673000000000000000000000000000000000000000000000000000000000000000000000000000000000000000000000000000000000000000000811116110000000000002371388         010013952064000134J0000000000000000000000000000CONSULTOR DE VENDAS 20100719TNE100000000202010202020090419811116N0000000000
M001SOLDI PROMOTORA DE VENDAS LTDA     0100003880000017124LUCIANA DO ESPIRITO SANTO ARAUJO   01ULISSES SOUZA ARAUJO               CARDIO PULMONAR DA BAHIA           506907232994030242301201020000000000001691600000741580000578673000000000000000000000000000000000000000000000000000000000000000000000000000000000000000000000000000000000000000000811116110000000000000496388         010013952064000134J0000000000000000000000000000CONSULTOR DE VENDAS 20100719TNE100000000202010202020090419811116N0000000000
M001SOLDI PROMOTORA DE VENDAS LTDA     0100003880000017124LUCIANA DO ESPIRITO SANTO ARAUJO   01ULISSES SOUZA ARAUJO               CARDIO PULMONAR DA BAHIA           506907232994030231801201020000000000001691600000741580000578673000000000000000000000000000000000000000000000000000000000000000000000000000000000000000000000000000000000000000000811116110000000000000496388         010013952064000134J0000000000000000000000000000CONSULTOR DE VENDAS 20100719TNE100000000202010202020090419811116N0000000000
M001SOLDI PROMOTORA DE VENDAS LTDA     0100003880000017124LUCIANA DO ESPIRITO SANTO ARAUJO   01ULISSES SOUZA ARAUJO               CARDIO PULMONAR DA BAHIA           506907232994030223701201020000000000001931600000741580000578673000000000000000000000000000000000000000000000000000000000000000000000000000000000000000000000000000000000000000000811116110000000000000566388         010013952064000134J0000000000000000000000000000CONSULTOR DE VENDAS 20100719TNE100000000202010202020090419811116N0000000000
M001SOLDI PROMOTORA DE VENDAS LTDA     0100003880000017124LUCIANA DO ESPIRITO SANTO ARAUJO   01ULISSES SOUZA ARAUJO               CARDIO PULMONAR DA BAHIA           506907232994030140001201020000000000001691600000741580000578673000000000000000000000000000000000000000000000000000000000000000000000000000000000000000000000000000000000000000000811116110000000000000496388         010013952064000134J0000000000000000000000000000CONSULTOR DE VENDAS 20100719TNE100000000202010202020090419811116N0000000000
M001SOLDI PROMOTORA DE VENDAS LTDA     0100003880000017124LUCIANA DO ESPIRITO SANTO ARAUJO   01ULISSES SOUZA ARAUJO               CARDIO PULMONAR DA BAHIA           506907232994030193101201020000000000001691600000741580000578673000000000000000000000000000000000000000000000000000000000000000000000000000000000000000000000000000000000000000000811116110000000000000496388         010013952064000134J0000000000000000000000000000CONSULTOR DE VENDAS 20100719TNE100000000202010202020090419811116N0000000000
M001SOLDI PROMOTORA DE VENDAS LTDA     0100003880000017124LUCIANA DO ESPIRITO SANTO ARAUJO   01ULISSES SOUZA ARAUJO               CARDIO PULMONAR DA BAHIA           506907232994030184201201020000000000002171600000741580000578673000000000000000000000000000000000000000000000000000000000000000000000000000000000000000000000000000000000000000000811116110000000000000638388         010013952064000134J0000000000000000000000000000CONSULTOR DE VENDAS 20100719TNE100000000202010202020090419811116N0000000000
M001SOLDI PROMOTORA DE VENDAS LTDA     0100003880000017124LUCIANA DO ESPIRITO SANTO ARAUJO   01ULISSES SOUZA ARAUJO               CARDIO PULMONAR DA BAHIA           506907232994031627001201020000000000015101600000741580000578673000000000000000000000000000000000000000000000000000000000000000000000000000000000000000000000000000000000000000000811116110000000000004424388         010013952064000134J0000000000000000000000000000CONSULTOR DE VENDAS 20100719TNE100000000202010202020090419811116N0000000000
M001SOLDI PROMOTORA DE VENDAS LTDA     0100003880000017124LUCIANA DO ESPIRITO SANTO ARAUJO   01ULISSES SOUZA ARAUJO               CARDIO PULMONAR DA BAHIA           506907232994031121001201020000000000001691600000741580000578673000000000000000000000000000000000000000000000000000000000000000000000000000000000000000000000000000000000000000000811116110000000000000496388         010013952064000134J0000000000000000000000000000CONSULTOR DE VENDAS 20100719TNE100000000202010202020090419811116N0000000000
M001SOLDI PROMOTORA DE VENDAS LTDA     0100003880000017124LUCIANA DO ESPIRITO SANTO ARAUJO   01ULISSES SOUZA ARAUJO               CARDIO PULMONAR DA BAHIA           506907232994030311001201020000000000001691600000741580000578673000000000000000000000000000000000000000000000000000000000000000000000000000000000000000000000000000000000000000000811116110000000000000496388         010013952064000134J0000000000000000000000000000CONSULTOR DE VENDAS 20100719TNE100000000202010202020090419811116N0000000000
M001SOLDI PROMOTORA DE VENDAS LTDA     0100003880000017124LUCIANA DO ESPIRITO SANTO ARAUJO   01ULISSES SOUZA ARAUJO               CARDIO PULMONAR DA BAHIA           506907233004030313601201020000000000001211600000741580000578673000000000000000000000000000000000000000000000000000000000000000000000000000000000000000000000000000000000000000000811116110000000000000355388         010013952064000134J0000000000000000000000000000CONSULTOR DE VENDAS 20100719TNE100000000202010202020090419811116N0000000000
M001SOLDI PROMOTORA DE VENDAS LTDA     0100003880000017124LUCIANA DO ESPIRITO SANTO ARAUJO   01ULISSES SOUZA ARAUJO               CARDIO PULMONAR DA BAHIA           606907232954010103701201020000000000045681600000741580000578673000000000000000000000000000000000000000000000000000000000000000000000000000000000000000000000000000000000000000000811116110000000000013375388         010013952064000134J0000000000000000000000000000CONSULTOR DE VENDAS 20100719TNE100000000202010202020090419811116N0000000000
M001SOLDI PROMOTORA DE VENDAS LTDA     0100003880000017124LUCIANA DO ESPIRITO SANTO ARAUJO   01ULISSES SOUZA ARAUJO               CARDIO PULMONAR DA BAHIA           506907232964030436101201020000000000003621600000741580000578673000000000000000000000000000000000000000000000000000000000000000000000000000000000000000000000000000000000000000000811116110000000000001062388         010013952064000134J0000000000000000000000000000CONSULTOR DE VENDAS 20100719TNE100000000202010202020090419811116N0000000000
M001SOLDI PROMOTORA DE VENDAS LTDA     0100003880000017124LUCIANA DO ESPIRITO SANTO ARAUJO   01ULISSES SOUZA ARAUJO               HOLOS                              206911981285000047001201026000000000023201600000741580000766429000000000000000000000000000000000000000000000000000000000000000000000000000000000000000000000000000000000000000000811116110000000000006794388         010042220152000140J0000000000000000000000000000CONSULTOR DE VENDAS 20100719TNE100000000202010262020091019811116N0000000000
M001SOLDI PROMOTORA DE VENDAS LTDA     0100003880000017124LUCIANA DO ESPIRITO SANTO ARAUJO   01ULISSES SOUZA ARAUJO               HOLOS                              206911981285000047001201026000000000023201600000741580000766429000000000000000000000000000000000000000000000000000000000000000000000000000000000000000000000000000000000000000000811116110000000000006794388         010042220152000140J0000000000000000000000000000CONSULTOR DE VENDAS 20100719TNE100000000202010262020091019811116N0000000000
M001SOLDI PROMOTORA DE VENDAS LTDA     0100003880000017124LUCIANA DO ESPIRITO SANTO ARAUJO   01ULISSES SOUZA ARAUJO               HOLOS                              206911981285000047001201026000000000023201600000741580000766429000000000000000000000000000000000000000000000000000000000000000000000000000000000000000000000000000000000000000000811116110000000000006794388         010042220152000140J0000000000000000000000000000CONSULTOR DE VENDAS 20100719TNE100000000202010262020091019811116N0000000000
M001SOLDI PROMOTORA DE VENDAS LTDA     0100003880000017124LUCIANA DO ESPIRITO SANTO ARAUJO   01ULISSES SOUZA ARAUJO               HOLOS                              206911981285000047001201026000000000023201600000741580000766429000000000000000000000000000000000000000000000000000000000000000000000000000000000000000000000000000000000000000000811116110000000000006794388         010042220152000140J0000000000000000000000000000CONSULTOR DE VENDAS 20100719TNE100000000202010262020091019811116N0000000000
M001SOLDI PROMOTORA DE VENDAS LTDA     0100003880000017124LUCIANA DO ESPIRITO SANTO ARAUJO   00LUCIANA DO ESPIRITO SANTO ARAUJO   CAM CLIN DE ASSIST A MULHER        506914268464130110201201027000000000009501600000741580000324035000000000000000000000000000000000000000000000000000000000000000000000000000000000000000000000000000000000000000000710322200000000000002783388         000014526487000155J0000000000000000000000000000CONSULTOR DE VENDAS 20100719TNE100000000202010272020091519710322N0000000000
M001SOLDI PROMOTORA DE VENDAS LTDA     0100003880000017124LUCIANA DO ESPIRITO SANTO ARAUJO   00LUCIANA DO ESPIRITO SANTO ARAUJO   CAM CLIN DE ASSIST A MULHER        706914268464130109901201027000000000002681600000741580000324035000000000000000000000000000000000000000000000000000000000000000000000000000000000000000000000000000000000000000000710322200000000000000787388         000014526487000155J0000000000000000000000000000CONSULTOR DE VENDAS 20100719TNE100000000202010272020091519710322N0000000000
M001SOLDI PROMOTORA DE VENDAS LTDA     0100003880000017124LUCIANA DO ESPIRITO SANTO ARAUJO   00LUCIANA DO ESPIRITO SANTO ARAUJO   CAM CLIN DE ASSIST A MULHER        506914268464130137401201027000000000009501600000741580000324035000000000000000000000000000000000000000000000000000000000000000000000000000000000000000000000000000000000000000000710322200000000000002783388         000014526487000155J0000000000000000000000000000CONSULTOR DE VENDAS 20100719TNE100000000202010272020091519710322N0000000000
