HSINISTROS PAGOS074158201120113001000000001000000000000000000000000000000000000000000000000000000000000000000000000000000000000000000000000000000000000000000000000000000000000000000000000000000000000000000000000000000000000000000000000000000000000000000000000000000000000000000000000000000000000000000000000000000000000000000000000000000000000000000000000000000000000000000000000000000000000 012020112020113000000000000000000000000000000000000000000000000000000000000000000000000000000000000000000000
M001SOLDI PROMOTORA DE VENDAS LTDA     0100000190000110157PALOMA TATO RAMOS                  02DIEGO FERREIRA SOARES              SEMIU                              50690631441408050180120110300000000001013160000074158000027091100000000000000000000000000000000000000000000000000000000000000000000000000000000000000000000000000000000000000000084042311000000000000296619          020034165969000134J0000000000000000000000000000CONSULTOR DE VENDAS 20110503TNE100000000202011032020082919840423N0000000000
M001SOLDI PROMOTORA DE VENDAS LTDA     0100000190000110157PALOMA TATO RAMOS                  02DIEGO FERREIRA SOARES              SEMIU                              60690631441410010790120110300000000010562160000074158000027091100000000000000000000000000000000000000000000000000000000000000000000000000000000000000000000000000000000000000000084042311000000000003092619          020034165969000134J0000000000000000000000000000CONSULTOR DE VENDAS 20110503TNE100000000202011032020082919840423N0000000000
M001SOLDI PROMOTORA DE VENDAS LTDA     0100000190000110157PALOMA TATO RAMOS                  02DIEGO FERREIRA SOARES              SEMIU                              20690631441340199920120110300000000000689000000074158000027091100000000000000000000000000000000000000000000000000000000000000000000000000000000000000000000000000000000000000000084042311000000000000201919          020034165969000134J0000000000000000000000000000CONSULTOR DE VENDAS 20110503TNE100000000202011032020082919840423N0000000000
M001SOLDI PROMOTORA DE VENDAS LTDA     0100000190000110157PALOMA TATO RAMOS                  02DIEGO FERREIRA SOARES              SEMIU                              20690631441340199950120110300000000000444000000074158000027091100000000000000000000000000000000000000000000000000000000000000000000000000000000000000000000000000000000000000000084042311000000000000130219          020034165969000134J0000000000000000000000000000CONSULTOR DE VENDAS 20110503TNE100000000202011032020082919840423N0000000000
M001SOLDI PROMOTORA DE VENDAS LTDA     0100000190000110157PALOMA TATO RAMOS                  02DIEGO FERREIRA SOARES              SEMIU                              10690631441101010390120110300000000003415160000074158000027091100000000000000000000000000000000000000000000000000000000000000000000000000000000000000000000000000000000000000000084042311000000000001000019          020034165969000134J0000000000000000000000000000CONSULTOR DE VENDAS 20110503TNE100000000202011032020082919840423N0000000000
M001SOLDI PROMOTORA DE VENDAS LTDA     0100000190000110157PALOMA TATO RAMOS                  02DIEGO FERREIRA SOARES              SEMIU                              50690631441403043610120110300000000000357160000074158000027091100000000000000000000000000000000000000000000000000000000000000000000000000000000000000000000000000000000000000000084042311000000000000104619          020034165969000134J0000000000000000000000000000CONSULTOR DE VENDAS 20110503TNE100000000202011032020082919840423N0000000000
M001SOLDI PROMOTORA DE VENDAS LTDA     0100000190000110157PALOMA TATO RAMOS                  00PALOMA TATO RAMOS                  VANTUIR MARTINS VAZ                10019192893101010120020110400000000003415160000074158071802020000000000000000000000000000000000000000000000000000000000000000000000000000000000000000000000000000000000000000000091032820180000000001000019          000000014784149368F0000000000000000000000000000CONSULTOR DE VENDAS 20110503TNE100000000202011042020081419910328N0000000000
M001SOLDI PROMOTORA DE VENDAS LTDA     0100000190000110157PALOMA TATO RAMOS                  02DIEGO FERREIRA SOARES              VANTUIR MARTINS VAZ                10019192894101010120020110400000000003415160000074158071802020000000000000000000000000000000000000000000000000000000000000000000000000000000000000000000000000000000000000000000084042311180000000001000019          020000014784149368F0000000000000000000000000000CONSULTOR DE VENDAS 20110503TNE100000000202011042020081419840423N0000000000
M001SOLDI PROMOTORA DE VENDAS LTDA     0100000190000110157PALOMA TATO RAMOS                  02DIEGO FERREIRA SOARES              LAFE LABORATORIO DE ANALISES CLINIC50692416301403164910120111800000000000732160000074158000086057300000000000000000000000000000000000000000000000000000000000000000000000000000000000000000000000000000000000000000084042311000000000000214519          020019571321000174J0000000000000000000000000000CONSULTOR DE VENDAS 20110503TNE100000000202011182020092319840423N0000000000
M001SOLDI PROMOTORA DE VENDAS LTDA     0100000190000110157PALOMA TATO RAMOS                  02DIEGO FERREIRA SOARES              LAFE LABORATORIO DE ANALISES CLINIC50692416301403011500120111800000000000120160000074158000086057300000000000000000000000000000000000000000000000000000000000000000000000000000000000000000000000000000000000000000084042311000000000000035419          020019571321000174J0000000000000000000000000000CONSULTOR DE VENDAS 20110503TNE100000000202011182020092319840423N0000000000
M001SOLDI PROMOTORA DE VENDAS LTDA     0100000190000110157PALOMA TATO RAMOS                  02DIEGO FERREIRA SOARES              LAFE LABORATORIO DE ANALISES CLINIC50692416301403043610120111800000000000258160000074158000086057300000000000000000000000000000000000000000000000000000000000000000000000000000000000000000000000000000000000000000084042311000000000000075819          020019571321000174J0000000000000000000000000000CONSULTOR DE VENDAS 20110503TNE100000000202011182020092319840423N0000000000
M001SOLDI PROMOTORA DE VENDAS LTDA     0100000190000110157PALOMA TATO RAMOS                  02DIEGO FERREIRA SOARES              LAFE LABORATORIO DE ANALISES CLINIC50692416301403027500120111800000000000603160000074158000086057300000000000000000000000000000000000000000000000000000000000000000000000000000000000000000000000000000000000000000084042311000000000000176719          020019571321000174J0000000000000000000000000000CONSULTOR DE VENDAS 20110503TNE100000000202011182020092319840423N0000000000
M001SOLDI PROMOTORA DE VENDAS LTDA     0100000190000110157PALOMA TATO RAMOS                  02DIEGO FERREIRA SOARES              LAFE LABORATORIO DE ANALISES CLINIC50692416301403165210120111800000000000732160000074158000086057300000000000000000000000000000000000000000000000000000000000000000000000000000000000000000000000000000000000000000084042311000000000000214519          020019571321000174J0000000000000000000000000000CONSULTOR DE VENDAS 20110503TNE100000000202011182020092319840423N0000000000
M001SOLDI PROMOTORA DE VENDAS LTDA     0100000190000110157PALOMA TATO RAMOS                  02DIEGO FERREIRA SOARES              LAFE LABORATORIO DE ANALISES CLINIC50692416301403016300120111800000000000120160000074158000086057300000000000000000000000000000000000000000000000000000000000000000000000000000000000000000000000000000000000000000084042311000000000000035419          020019571321000174J0000000000000000000000000000CONSULTOR DE VENDAS 20110503TNE100000000202011182020092319840423N0000000000
M001SOLDI PROMOTORA DE VENDAS LTDA     0100000190000110157PALOMA TATO RAMOS                  02DIEGO FERREIRA SOARES              LAFE LABORATORIO DE ANALISES CLINIC50692416301403020400120111800000000000120160000074158000086057300000000000000000000000000000000000000000000000000000000000000000000000000000000000000000000000000000000000000000084042311000000000000035419          020019571321000174J0000000000000000000000000000CONSULTOR DE VENDAS 20110503TNE100000000202011182020092319840423N0000000000
M001SOLDI PROMOTORA DE VENDAS LTDA     0100000190000110157PALOMA TATO RAMOS                  02DIEGO FERREIRA SOARES              LAFE LABORATORIO DE ANALISES CLINIC50692416301403025800120111800000000000120160000074158000086057300000000000000000000000000000000000000000000000000000000000000000000000000000000000000000000000000000000000000000084042311000000000000035419          020019571321000174J0000000000000000000000000000CONSULTOR DE VENDAS 20110503TNE100000000202011182020092319840423N0000000000
M001SOLDI PROMOTORA DE VENDAS LTDA     0100000190000110157PALOMA TATO RAMOS                  02DIEGO FERREIRA SOARES              LAFE LABORATORIO DE ANALISES CLINIC50692416301403121510120111800000000000776160000074158000086057300000000000000000000000000000000000000000000000000000000000000000000000000000000000000000000000000000000000000000084042311000000000000227319          020019571321000174J0000000000000000000000000000CONSULTOR DE VENDAS 20110503TNE100000000202011182020092319840423N0000000000
M001SOLDI PROMOTORA DE VENDAS LTDA     0100000190000110157PALOMA TATO RAMOS                  02DIEGO FERREIRA SOARES              LAFE LABORATORIO DE ANALISES CLINIC50692416300403077600120111800000000000086160000074158000086057300000000000000000000000000000000000000000000000000000000000000000000000000000000000000000000000000000000000000000084042311000000000000025219          020019571321000174J0000000000000000000000000000CONSULTOR DE VENDAS 20110503TNE100000000202011182020092319840423N0000000000
M001SOLDI PROMOTORA DE VENDAS LTDA     0100000190000110157PALOMA TATO RAMOS                  02DIEGO FERREIRA SOARES              LAFE LABORATORIO DE ANALISES CLINIC50692416300403028300120111800000000000906160000074158000086057300000000000000000000000000000000000000000000000000000000000000000000000000000000000000000000000000000000000000000084042311000000000000265519          020019571321000174J0000000000000000000000000000CONSULTOR DE VENDAS 20110503TNE100000000202011182020092319840423N0000000000
M001SOLDI PROMOTORA DE VENDAS LTDA     0100000190000110157PALOMA TATO RAMOS                  02DIEGO FERREIRA SOARES              LAFE LABORATORIO DE ANALISES CLINIC50692416300403069500120111800000000000862160000074158000086057300000000000000000000000000000000000000000000000000000000000000000000000000000000000000000000000000000000000000000084042311000000000000252619          020019571321000174J0000000000000000000000000000CONSULTOR DE VENDAS 20110503TNE100000000202011182020092319840423N0000000000
M001SOLDI PROMOTORA DE VENDAS LTDA     0100000190000110157PALOMA TATO RAMOS                  02DIEGO FERREIRA SOARES              LAFE LABORATORIO DE ANALISES CLINIC50692416300403069760120111800000000000516160000074158000086057300000000000000000000000000000000000000000000000000000000000000000000000000000000000000000000000000000000000000000084042311000000000000151319          020019571321000174J0000000000000000000000000000CONSULTOR DE VENDAS 20110503TNE100000000202011182020092319840423N0000000000
M001SOLDI PROMOTORA DE VENDAS LTDA     0100000190000110157PALOMA TATO RAMOS                  02DIEGO FERREIRA SOARES              LAFE LABORATORIO DE ANALISES CLINIC50692416300403070260120111800000000001294160000074158000086057300000000000000000000000000000000000000000000000000000000000000000000000000000000000000000000000000000000000000000084042311000000000000378919          020019571321000174J0000000000000000000000000000CONSULTOR DE VENDAS 20110503TNE100000000202011182020092319840423N0000000000
M001SOLDI PROMOTORA DE VENDAS LTDA     0100000190000110157PALOMA TATO RAMOS                  02DIEGO FERREIRA SOARES              LAFE LABORATORIO DE ANALISES CLINIC50692416300403071820120111800000000001294160000074158000086057300000000000000000000000000000000000000000000000000000000000000000000000000000000000000000000000000000000000000000084042311000000000000378919          020019571321000174J0000000000000000000000000000CONSULTOR DE VENDAS 20110503TNE100000000202011182020092319840423N0000000000
M001SOLDI PROMOTORA DE VENDAS LTDA     0100001320000118002JOSE LEITE RIBEIRO TAVARES         03ILANA DE MEDEIROS TAVARES LEITE    LABORAT MARCELO MAGALHAES          506918368214031624601201104000000000009491600000741580000369233000000000000000000000000000000000000000000000000000000000000000000000000000000000000000000000000000000000000000000100615220000000000002780132         030011696937000160J0000000000000000000000000000GERENTE COMERCIAL I 20080218TNQ200000000202011042020091120100615N0000000000
M001SOLDI PROMOTORA DE VENDAS LTDA     0100001320000118002JOSE LEITE RIBEIRO TAVARES         03ILANA DE MEDEIROS TAVARES LEITE    LABORAT MARCELO MAGALHAES          506918368214031627001201104000000000011871600000741580000369233000000000000000000000000000000000000000000000000000000000000000000000000000000000000000000000000000000000000000000100615220000000000003476132         030011696937000160J0000000000000000000000000000GERENTE COMERCIAL I 20080218TNQ200000000202011042020091120100615N0000000000
M001SOLDI PROMOTORA DE VENDAS LTDA     0100001320000118002JOSE LEITE RIBEIRO TAVARES         03ILANA DE MEDEIROS TAVARES LEITE    LABORAT MARCELO MAGALHAES          506918368214031655601201104000000000006171600000741580000369233000000000000000000000000000000000000000000000000000000000000000000000000000000000000000000000000000000000000000000100615220000000000001808132         030011696937000160J0000000000000000000000000000GERENTE COMERCIAL I 20080218TNQ200000000202011042020091120100615N0000000000
M001SOLDI PROMOTORA DE VENDAS LTDA     0100001320000118002JOSE LEITE RIBEIRO TAVARES         03ILANA DE MEDEIROS TAVARES LEITE    LABORAT MARCELO MAGALHAES          506918368214031654801201104000000000006171600000741580000369233000000000000000000000000000000000000000000000000000000000000000000000000000000000000000000000000000000000000000000100615220000000000001808132         030011696937000160J0000000000000000000000000000GERENTE COMERCIAL I 20080218TNQ200000000202011042020091120100615N0000000000
M001SOLDI PROMOTORA DE VENDAS LTDA     0100001320000118002JOSE LEITE RIBEIRO TAVARES         01LUCIDIA DE MEDEIROS TAVARES        ESPACO INTEGRAR                    206909886872010350601201104000000000003781600000741580000620440000000000000000000000000000000000000000000000000000000000000000000000000000000000000000000000000000000000000000000710811210000000000001108132         010011422364000186J0000000000000000000000000000GERENTE COMERCIAL I 20080218TNQ200000000202011042020081819710811N0000000000
M001SOLDI PROMOTORA DE VENDAS LTDA     0100001320000118002JOSE LEITE RIBEIRO TAVARES         01LUCIDIA DE MEDEIROS TAVARES        ESPACO INTEGRAR                    206909886812010350601201104000000000003781600000741580000620440000000000000000000000000000000000000000000000000000000000000000000000000000000000000000000000000000000000000000000710811210000000000001108132         010011422364000186J0000000000000000000000000000GERENTE COMERCIAL I 20080218TNQ200000000202011042020072119710811N0000000000
M001SOLDI PROMOTORA DE VENDAS LTDA     0100001320000118002JOSE LEITE RIBEIRO TAVARES         03ILANA DE MEDEIROS TAVARES LEITE    LABORAT MARCELO MAGALHAES          506918368214030258001201104000000000001331600000741580000369233000000000000000000000000000000000000000000000000000000000000000000000000000000000000000000000000000000000000000000100615220000000000000390132         030011696937000160J0000000000000000000000000000GERENTE COMERCIAL I 20080218TNQ200000000202011042020091120100615N0000000000
M001SOLDI PROMOTORA DE VENDAS LTDA     0100001320000118002JOSE LEITE RIBEIRO TAVARES         01LUCIDIA DE MEDEIROS TAVARES        ESPACO INTEGRAR                    206909886882010350601201104000000000003781600000741580000620440000000000000000000000000000000000000000000000000000000000000000000000000000000000000000000000000000000000000000000710811210000000000001108132         010011422364000186J0000000000000000000000000000GERENTE COMERCIAL I 20080218TNQ200000000202011042020082019710811N0000000000
M001SOLDI PROMOTORA DE VENDAS LTDA     0100001320000118002JOSE LEITE RIBEIRO TAVARES         03ILANA DE MEDEIROS TAVARES LEITE    LABORAT MARCELO MAGALHAES          506918368214030163001201104000000000001331600000741580000369233000000000000000000000000000000000000000000000000000000000000000000000000000000000000000000000000000000000000000000100615220000000000000390132         030011696937000160J0000000000000000000000000000GERENTE COMERCIAL I 20080218TNQ200000000202011042020091120100615N0000000000
M001SOLDI PROMOTORA DE VENDAS LTDA     0100001320000118002JOSE LEITE RIBEIRO TAVARES         00JOSE LEITE RIBEIRO TAVARES         COOPECARDIO                        606912281534090110601201104000000000089251600000741580000797871000000000000000000000000000000000000000000000000000000000000000000000000000000000000000000000000000000000000000000710927100000000000026134132         000000599741000130J0000000000000000000000000000GERENTE COMERCIAL I 20080218TNQ200000000202011042020081319710927N0000000000
M001SOLDI PROMOTORA DE VENDAS LTDA     0100001320000118002JOSE LEITE RIBEIRO TAVARES         03ILANA DE MEDEIROS TAVARES LEITE    LABORAT MARCELO MAGALHAES          506918368214031652101201104000000000008061600000741580000369233000000000000000000000000000000000000000000000000000000000000000000000000000000000000000000000000000000000000000000100615220000000000002362132         030011696937000160J0000000000000000000000000000GERENTE COMERCIAL I 20080218TNQ200000000202011042020091120100615N0000000000
M001SOLDI PROMOTORA DE VENDAS LTDA     0100001320000118002JOSE LEITE RIBEIRO TAVARES         03ILANA DE MEDEIROS TAVARES LEITE    LABORAT MARCELO MAGALHAES          506918368214030643701201104000000000007591600000741580000369233000000000000000000000000000000000000000000000000000000000000000000000000000000000000000000000000000000000000000000100615220000000000002225132         030011696937000160J0000000000000000000000000000GERENTE COMERCIAL I 20080218TNQ200000000202011042020091120100615N0000000000
M001SOLDI PROMOTORA DE VENDAS LTDA     0100001320000118002JOSE LEITE RIBEIRO TAVARES         03ILANA DE MEDEIROS TAVARES LEITE    LABORAT MARCELO MAGALHAES          506918368214031653001201104000000000013291600000741580000369233000000000000000000000000000000000000000000000000000000000000000000000000000000000000000000000000000000000000000000100615220000000000003893132         030011696937000160J0000000000000000000000000000GERENTE COMERCIAL I 20080218TNQ200000000202011042020091120100615N0000000000
M001SOLDI PROMOTORA DE VENDAS LTDA     0100001320000118002JOSE LEITE RIBEIRO TAVARES         03ILANA DE MEDEIROS TAVARES LEITE    LABORAT MARCELO MAGALHAES          506918368214030436101201104000000000002841600000741580000369233000000000000000000000000000000000000000000000000000000000000000000000000000000000000000000000000000000000000000000100615220000000000000834132         030011696937000160J0000000000000000000000000000GERENTE COMERCIAL I 20080218TNQ200000000202011042020091120100615N0000000000
M001SOLDI PROMOTORA DE VENDAS LTDA     0100001320000118002JOSE LEITE RIBEIRO TAVARES         03ILANA DE MEDEIROS TAVARES LEITE    LABORAT MARCELO MAGALHAES          506918368214030204001201104000000000001331600000741580000369233000000000000000000000000000000000000000000000000000000000000000000000000000000000000000000000000000000000000000000100615220000000000000390132         030011696937000160J0000000000000000000000000000GERENTE COMERCIAL I 20080218TNQ200000000202011042020091120100615N0000000000
M001SOLDI PROMOTORA DE VENDAS LTDA     0100001320000118002JOSE LEITE RIBEIRO TAVARES         03ILANA DE MEDEIROS TAVARES LEITE    LABORAT MARCELO MAGALHAES          506918368214030160501201104000000000001331600000741580000369233000000000000000000000000000000000000000000000000000000000000000000000000000000000000000000000000000000000000000000100615220000000000000390132         030011696937000160J0000000000000000000000000000GERENTE COMERCIAL I 20080218TNQ200000000202011042020091120100615N0000000000
M001SOLDI PROMOTORA DE VENDAS LTDA     0100001320000118002JOSE LEITE RIBEIRO TAVARES         01LUCIDIA DE MEDEIROS TAVARES        ESPACO INTEGRAR                    206909886832010350601201104000000000003781600000741580000620440000000000000000000000000000000000000000000000000000000000000000000000000000000000000000000000000000000000000000000710811210000000000001108132         010011422364000186J0000000000000000000000000000GERENTE COMERCIAL I 20080218TNQ200000000202011042020073119710811N0000000000
M001SOLDI PROMOTORA DE VENDAS LTDA     0100001320000118002JOSE LEITE RIBEIRO TAVARES         03ILANA DE MEDEIROS TAVARES LEITE    LABORAT MARCELO MAGALHAES          506918368214031633501201104000000000006171600000741580000369233000000000000000000000000000000000000000000000000000000000000000000000000000000000000000000000000000000000000000000100615220000000000001808132         030011696937000160J0000000000000000000000000000GERENTE COMERCIAL I 20080218TNQ200000000202011042020091120100615N0000000000
M001SOLDI PROMOTORA DE VENDAS LTDA     0100001320000118002JOSE LEITE RIBEIRO TAVARES         01LUCIDIA DE MEDEIROS TAVARES        ESPACO INTEGRAR                    206909886842010350601201104000000000003781600000741580000620440000000000000000000000000000000000000000000000000000000000000000000000000000000000000000000000000000000000000000000710811210000000000001108132         010011422364000186J0000000000000000000000000000GERENTE COMERCIAL I 20080218TNQ200000000202011042020080419710811N0000000000
M001SOLDI PROMOTORA DE VENDAS LTDA     0100001320000118002JOSE LEITE RIBEIRO TAVARES         03ILANA DE MEDEIROS TAVARES LEITE    LABORAT MARCELO MAGALHAES          506918368214031628901201104000000000006171600000741580000369233000000000000000000000000000000000000000000000000000000000000000000000000000000000000000000000000000000000000000000100615220000000000001808132         030011696937000160J0000000000000000000000000000GERENTE COMERCIAL I 20080218TNQ200000000202011042020091120100615N0000000000
M001SOLDI PROMOTORA DE VENDAS LTDA     0100001320000118002JOSE LEITE RIBEIRO TAVARES         01LUCIDIA DE MEDEIROS TAVARES        HOPE                               506917053754010313702201104000000000018931600000741580000369292000000000000000000000000000000000000000000000000000000000000000000000000000000000000000000000000000000000000000000710811210000000000005544132         010009464629000329J0000000000000000000000000000GERENTE COMERCIAL I 20080218TNQ200000000202011042020092119710811N0000000000
M001SOLDI PROMOTORA DE VENDAS LTDA     0100001320000118002JOSE LEITE RIBEIRO TAVARES         01LUCIDIA DE MEDEIROS TAVARES        HOPE                               506917053754150112802201104000000000035511600000741580000369292000000000000000000000000000000000000000000000000000000000000000000000000000000000000000000000000000000000000000000710811210000000000010398132         010009464629000329J0000000000000000000000000000GERENTE COMERCIAL I 20080218TNQ200000000202011042020092119710811N0000000000
M001SOLDI PROMOTORA DE VENDAS LTDA     0100001320000118002JOSE LEITE RIBEIRO TAVARES         01LUCIDIA DE MEDEIROS TAVARES        HOPE                               606917053754130131502201104000000000013911600000741580000369292000000000000000000000000000000000000000000000000000000000000000000000000000000000000000000000000000000000000000000710811210000000000004074132         010009464629000329J0000000000000000000000000000GERENTE COMERCIAL I 20080218TNQ200000000202011042020092119710811N0000000000
M001SOLDI PROMOTORA DE VENDAS LTDA     0100001320000118002JOSE LEITE RIBEIRO TAVARES         01LUCIDIA DE MEDEIROS TAVARES        HOPE                               106917053771010101201201104000000000034151600000741580000369292000000000000000000000000000000000000000000000000000000000000000000000000000000000000000000000000000000000000000000710811210000000000010000132         010009464629000329J0000000000000000000000000000GERENTE COMERCIAL I 20080218TNQ200000000202011042020092119710811N0000000000
M001SOLDI PROMOTORA DE VENDAS LTDA     0100001320000118002JOSE LEITE RIBEIRO TAVARES         01LUCIDIA DE MEDEIROS TAVARES        ESPACO INTEGRAR                    206909886852010350601201104000000000003781600000741580000620440000000000000000000000000000000000000000000000000000000000000000000000000000000000000000000000000000000000000000000710811210000000000001108132         010011422364000186J0000000000000000000000000000GERENTE COMERCIAL I 20080218TNQ200000000202011042020080619710811N0000000000
M001SOLDI PROMOTORA DE VENDAS LTDA     0100001320000118002JOSE LEITE RIBEIRO TAVARES         01LUCIDIA DE MEDEIROS TAVARES        ESPACO INTEGRAR                    206909886822010350601201104000000000003781600000741580000620440000000000000000000000000000000000000000000000000000000000000000000000000000000000000000000000000000000000000000000710811210000000000001108132         010011422364000186J0000000000000000000000000000GERENTE COMERCIAL I 20080218TNQ200000000202011042020072919710811N0000000000
M001SOLDI PROMOTORA DE VENDAS LTDA     0100001320000118002JOSE LEITE RIBEIRO TAVARES         03ILANA DE MEDEIROS TAVARES LEITE    LABORAT MARCELO MAGALHAES          506918368214030115001201104000000000001331600000741580000369233000000000000000000000000000000000000000000000000000000000000000000000000000000000000000000000000000000000000000000100615220000000000000390132         030011696937000160J0000000000000000000000000000GERENTE COMERCIAL I 20080218TNQ200000000202011042020091120100615N0000000000
M001SOLDI PROMOTORA DE VENDAS LTDA     0100001320000118002JOSE LEITE RIBEIRO TAVARES         00JOSE LEITE RIBEIRO TAVARES         COOPECARDIO                        506910797014010101001201104000000000007301600000741580000056502000000000000000000000000000000000000000000000000000000000000000000000000000000000000000000000000000000000000000000710927100000000000002138132         000000599741000130J0000000000000000000000000000GERENTE COMERCIAL I 20080218TNQ200000000202011042020080519710927N0000000000
M001SOLDI PROMOTORA DE VENDAS LTDA     0100001320000118002JOSE LEITE RIBEIRO TAVARES         00JOSE LEITE RIBEIRO TAVARES         COOPECARDIO                        106910797011010101201201104000000000034151600000741580000056502000000000000000000000000000000000000000000000000000000000000000000000000000000000000000000000000000000000000000000710927100000000000010000132         000000599741000130J0000000000000000000000000000GERENTE COMERCIAL I 20080218TNQ200000000202011042020080519710927N0000000000
M001SOLDI PROMOTORA DE VENDAS LTDA     0100001320000118002JOSE LEITE RIBEIRO TAVARES         01LUCIDIA DE MEDEIROS TAVARES        COOPECARDIO                        506910797004010101001201104000000000007301600000741580000056502000000000000000000000000000000000000000000000000000000000000000000000000000000000000000000000000000000000000000000710811210000000000002138132         010000599741000130J0000000000000000000000000000GERENTE COMERCIAL I 20080218TNQ200000000202011042020082619710811N0000000000
M001SOLDI PROMOTORA DE VENDAS LTDA     0100001320000118002JOSE LEITE RIBEIRO TAVARES         01LUCIDIA DE MEDEIROS TAVARES        ESPACO INTEGRAR                    206909886802010350601201104000000000003781600000741580000620440000000000000000000000000000000000000000000000000000000000000000000000000000000000000000000000000000000000000000000710811210000000000001108132         010011422364000186J0000000000000000000000000000GERENTE COMERCIAL I 20080218TNQ200000000202011042020071419710811N0000000000
M001SOLDI PROMOTORA DE VENDAS LTDA     0100001320000118002JOSE LEITE RIBEIRO TAVARES         01LUCIDIA DE MEDEIROS TAVARES        COOPECARDIO                        106910797001010101201201104000000000034151600000741580000056502000000000000000000000000000000000000000000000000000000000000000000000000000000000000000000000000000000000000000000710811210000000000010000132         010000599741000130J0000000000000000000000000000GERENTE COMERCIAL I 20080218TNQ200000000202011042020082619710811N0000000000
M001SOLDI PROMOTORA DE VENDAS LTDA     0100001320000118002JOSE LEITE RIBEIRO TAVARES         03ILANA DE MEDEIROS TAVARES LEITE    LABORAT MARCELO MAGALHAES          506918368214031641601201104000000000008061600000741580000369233000000000000000000000000000000000000000000000000000000000000000000000000000000000000000000000000000000000000000000100615220000000000002362132         030011696937000160J0000000000000000000000000000GERENTE COMERCIAL I 20080218TNQ200000000202011042020091120100615N0000000000
M001SOLDI PROMOTORA DE VENDAS LTDA     0100001320000118002JOSE LEITE RIBEIRO TAVARES         03ILANA DE MEDEIROS TAVARES LEITE    LABORAT MARCELO MAGALHAES          506918368214030158301201104000000000002371600000741580000369233000000000000000000000000000000000000000000000000000000000000000000000000000000000000000000000000000000000000000000100615220000000000000696132         030011696937000160J0000000000000000000000000000GERENTE COMERCIAL I 20080218TNQ200000000202011042020091120100615N0000000000
M001SOLDI PROMOTORA DE VENDAS LTDA     0100001320000118002JOSE LEITE RIBEIRO TAVARES         03ILANA DE MEDEIROS TAVARES LEITE    LABORAT MARCELO MAGALHAES          506918368214030269501201104000000000003791600000741580000369233000000000000000000000000000000000000000000000000000000000000000000000000000000000000000000000000000000000000000000100615220000000000001112132         030011696937000160J0000000000000000000000000000GERENTE COMERCIAL I 20080218TNQ200000000202011042020091120100615N0000000000
M001SOLDI PROMOTORA DE VENDAS LTDA     0100001320000118002JOSE LEITE RIBEIRO TAVARES         01LUCIDIA DE MEDEIROS TAVARES        HOPE                               506917053774130132301201104000000000004101600000741580000369292000000000000000000000000000000000000000000000000000000000000000000000000000000000000000000000000000000000000000000710811210000000000001201132         010009464629000329J0000000000000000000000000000GERENTE COMERCIAL I 20080218TNQ200000000202011042020092119710811N0000000000
M001SOLDI PROMOTORA DE VENDAS LTDA     0100001320000118002JOSE LEITE RIBEIRO TAVARES         01LUCIDIA DE MEDEIROS TAVARES        HOPE                               506917053774130125002201104000000000016411600000741580000369292000000000000000000000000000000000000000000000000000000000000000000000000000000000000000000000000000000000000000000710811210000000000004806132         010009464629000329J0000000000000000000000000000GERENTE COMERCIAL I 20080218TNQ200000000202011042020092119710811N0000000000
M001SOLDI PROMOTORA DE VENDAS LTDA     0100001320000118002JOSE LEITE RIBEIRO TAVARES         03ILANA DE MEDEIROS TAVARES LEITE    LABORAT MARCELO MAGALHAES          506918368214030254701201104000000000001891600000741580000369233000000000000000000000000000000000000000000000000000000000000000000000000000000000000000000000000000000000000000000100615220000000000000556132         030011696937000160J0000000000000000000000000000GERENTE COMERCIAL I 20080218TNQ200000000202011042020091120100615N0000000000
M001SOLDI PROMOTORA DE VENDAS LTDA     0100001320000118002JOSE LEITE RIBEIRO TAVARES         03ILANA DE MEDEIROS TAVARES LEITE    LABORAT MARCELO MAGALHAES          506918368214030159101201104000000000002841600000741580000369233000000000000000000000000000000000000000000000000000000000000000000000000000000000000000000000000000000000000000000100615220000000000000834132         030011696937000160J0000000000000000000000000000GERENTE COMERCIAL I 20080218TNQ200000000202011042020091120100615N0000000000
M001SOLDI PROMOTORA DE VENDAS LTDA     0100001320000118002JOSE LEITE RIBEIRO TAVARES         02MATEUS DE MEDEIROS TAVARES LEITE   ESPACO INTEGRAR                    206910222388425064001201106000000000014500000000741580000930792000000000000000000000000000000000000000000000000000000000000000000000000000000000000000000000000000000000000000000080324120000000000004246132         020011422364000186J0000000000000000000000000000GERENTE COMERCIAL I 20080218TNQ200000000202011062020081220080324N0000000000
M001SOLDI PROMOTORA DE VENDAS LTDA     0100001320000118002JOSE LEITE RIBEIRO TAVARES         02MATEUS DE MEDEIROS TAVARES LEITE   ESPACO INTEGRAR                    206910222398425064001201106000000000014500000000741580000930792000000000000000000000000000000000000000000000000000000000000000000000000000000000000000000000000000000000000000000080324120000000000004246132         020011422364000186J0000000000000000000000000000GERENTE COMERCIAL I 20080218TNQ200000000202011062020081820080324N0000000000
M001SOLDI PROMOTORA DE VENDAS LTDA     0100001320000118002JOSE LEITE RIBEIRO TAVARES         02MATEUS DE MEDEIROS TAVARES LEITE   ESPACO INTEGRAR                    206910222408425064001201106000000000014500000000741580000930792000000000000000000000000000000000000000000000000000000000000000000000000000000000000000000000000000000000000000000080324120000000000004246132         020011422364000186J0000000000000000000000000000GERENTE COMERCIAL I 20080218TNQ200000000202011062020082420080324N0000000000
M001SOLDI PROMOTORA DE VENDAS LTDA     0100001320000118002JOSE LEITE RIBEIRO TAVARES         02MATEUS DE MEDEIROS TAVARES LEITE   ESPACO INTEGRAR                    206910222368425064001201106000000000014500000000741580000930792000000000000000000000000000000000000000000000000000000000000000000000000000000000000000000000000000000000000000000080324120000000000004246132         020011422364000186J0000000000000000000000000000GERENTE COMERCIAL I 20080218TNQ200000000202011062020080420080324N0000000000
M001SOLDI PROMOTORA DE VENDAS LTDA     0100001320000118002JOSE LEITE RIBEIRO TAVARES         02MATEUS DE MEDEIROS TAVARES LEITE   ESPACO INTEGRAR                    206910222378425064001201106000000000014500000000741580000930792000000000000000000000000000000000000000000000000000000000000000000000000000000000000000000000000000000000000000000080324120000000000004246132         020011422364000186J0000000000000000000000000000GERENTE COMERCIAL I 20080218TNQ200000000202011062020080620080324N0000000000
M001SOLDI PROMOTORA DE VENDAS LTDA     0100001320000118002JOSE LEITE RIBEIRO TAVARES         01LUCIDIA DE MEDEIROS TAVARES        HOSPITAL DE OLHOS DO RECIFE        606916889204010302102201111000000000068531600000741580000855995000000000000000000000000000000000000000000000000000000000000000000000000000000000000000000000000000000000000000000710811210000000000020066132         010040881302000130J0000000000000000000000000000GERENTE COMERCIAL I 20080218TNQ200000000202011112020092119710811N0000000000
M001SOLDI PROMOTORA DE VENDAS LTDA     0100001320000118002JOSE LEITE RIBEIRO TAVARES         03ILANA DE MEDEIROS TAVARES LEITE    RAISSA BELTRAO SAMPAIO             101186184481010101200201120000000000034151600000741580060060200000000000000000000000000000000000000000000000000000000000000000000000000000000000000000000000000000000000000000000100615226000000000010000132         030000006878582407F0000000000000000000000000000GERENTE COMERCIAL I 20080218TNQ200000000202011202020092120100615N0000000000
M001SOLDI PROMOTORA DE VENDAS LTDA     0100001320000118002JOSE LEITE RIBEIRO TAVARES         01LUCIDIA DE MEDEIROS TAVARES        COOPECARDIO                        606928082824010103701201125000000000050851600000741580000797871000000000000000000000000000000000000000000000000000000000000000000000000000000000000000000000000000000000000000000710811210000000000014890132         010000599741000130J0000000000000000000000000000GERENTE COMERCIAL I 20080218TNQ200000000202011252020091419710811N0000000000
M001SOLDI PROMOTORA DE VENDAS LTDA     0100001400000118013PALOMA SANTANA TEIXEIRA            00PALOMA SANTANA TEIXEIRA            CLIM                               106928473321010103901201118000000000034151600000741580000306711000000000000000000000000000000000000000000000000000000000000000000000000000000000000000000000000000000000000000000880227200000000000010000140         000041226432000100J0000000000000000000000000000CONSULTOR DE VENDAS 20100413TNE100000000202011182020092919880227N0000000000
M001SOLDI PROMOTORA DE VENDAS LTDA     0100001400000118013PALOMA SANTANA TEIXEIRA            02MIGUEL SANTANA BARBOSA             COOPED PB                          100194192891010101200201123000000000034151600000741580000141291000000000000000000000000000000000000000000000000000000000000000000000000000000000000000000000000000000000000000000181017120000000000010000140         020004584679000164J0000000000000000000000000000CONSULTOR DE VENDAS 20100413TNE100000000202011232020100820181017N0000000000
M001SOLDI PROMOTORA DE VENDAS LTDA     0100001590000118023THALITA MENDES DE ALMEIDA LIMA     00THALITA MENDES DE ALMEIDA LIMA     NOVA DIAGNOSTICO POR IMAGEM        506903547168433011201201103000000000031760000000741580000618179000000000000000000000000000000000000000000000000000000000000000000000000000000000000000000000000000000000000000000891208200000000000009300159         000004489715000100J0000000000000000000000000000CONSULTOR DE VENDAS 20110110TNE100000000202011032020080919891208N0000000000
M001SOLDI PROMOTORA DE VENDAS LTDA     0100001590000118023THALITA MENDES DE ALMEIDA LIMA     00THALITA MENDES DE ALMEIDA LIMA     CLIM                               106928473311010103901201118000000000034151600000741580000306711000000000000000000000000000000000000000000000000000000000000000000000000000000000000000000000000000000000000000000891208200000000000010000159         000041226432000100J0000000000000000000000000000CONSULTOR DE VENDAS 20110110TNE100000000202011182020092919891208N0000000000
M001SOLDI PROMOTORA DE VENDAS LTDA     0100001590000118023THALITA MENDES DE ALMEIDA LIMA     00THALITA MENDES DE ALMEIDA LIMA     SECICOL                            506927173204130110201201130000000000009971600000741580000484130000000000000000000000000000000000000000000000000000000000000000000000000000000000000000000000000000000000000000000891208200000000000002922159         000009139189000172J0000000000000000000000000000CONSULTOR DE VENDAS 20110110TNE100000000202011302020091619891208N0000000000
M001SOLDI PROMOTORA DE VENDAS LTDA     0100001830000119012MARINALVA DE FREITAS COSTA         00MARINALVA DE FREITAS COSTA         OTOLAB                             506917631874030250401201112000000000001691600000741580000027403000000000000000000000000000000000000000000000000000000000000000000000000000000000000000000000000000000000000000000781225200000000000000496183         000024862986000177J0000000000000000000000000000SUPERVISOR DE VENDAS20090720TNE100000000202011122020091019781225N0000000000
M001SOLDI PROMOTORA DE VENDAS LTDA     0100001830000119012MARINALVA DE FREITAS COSTA         00MARINALVA DE FREITAS COSTA         OTOLAB                             506917631874030436101201112000000000003621600000741580000027403000000000000000000000000000000000000000000000000000000000000000000000000000000000000000000000000000000000000000000781225200000000000001062183         000024862986000177J0000000000000000000000000000SUPERVISOR DE VENDAS20090720TNE100000000202011122020091019781225N0000000000
M001SOLDI PROMOTORA DE VENDAS LTDA     0100001830000119012MARINALVA DE FREITAS COSTA         00MARINALVA DE FREITAS COSTA         OTOLAB                             506917631874030251201201112000000000001691600000741580000027403000000000000000000000000000000000000000000000000000000000000000000000000000000000000000000000000000000000000000000781225200000000000000496183         000024862986000177J0000000000000000000000000000SUPERVISOR DE VENDAS20090720TNE100000000202011122020091019781225N0000000000
M001SOLDI PROMOTORA DE VENDAS LTDA     0100001830000119012MARINALVA DE FREITAS COSTA         00MARINALVA DE FREITAS COSTA         OTOLAB                             506917631874031652101201112000000000010261600000741580000027403000000000000000000000000000000000000000000000000000000000000000000000000000000000000000000000000000000000000000000781225200000000000003006183         000024862986000177J0000000000000000000000000000SUPERVISOR DE VENDAS20090720TNE100000000202011122020091019781225N0000000000
M001SOLDI PROMOTORA DE VENDAS LTDA     0100001830000119012MARINALVA DE FREITAS COSTA         00MARINALVA DE FREITAS COSTA         OTOLAB                             506917631874030254701201112000000000002411600000741580000027403000000000000000000000000000000000000000000000000000000000000000000000000000000000000000000000000000000000000000000781225200000000000000707183         000024862986000177J0000000000000000000000000000SUPERVISOR DE VENDAS20090720TNE100000000202011122020091019781225N0000000000
M001SOLDI PROMOTORA DE VENDAS LTDA     0100001830000119012MARINALVA DE FREITAS COSTA         00MARINALVA DE FREITAS COSTA         OTOLAB                             506917631874030159101201112000000000003621600000741580000027403000000000000000000000000000000000000000000000000000000000000000000000000000000000000000000000000000000000000000000781225200000000000001062183         000024862986000177J0000000000000000000000000000SUPERVISOR DE VENDAS20090720TNE100000000202011122020091019781225N0000000000
M001SOLDI PROMOTORA DE VENDAS LTDA     0100001830000119012MARINALVA DE FREITAS COSTA         00MARINALVA DE FREITAS COSTA         OTOLAB                             506917631874030160501201112000000000001691600000741580000027403000000000000000000000000000000000000000000000000000000000000000000000000000000000000000000000000000000000000000000781225200000000000000496183         000024862986000177J0000000000000000000000000000SUPERVISOR DE VENDAS20090720TNE100000000202011122020091019781225N0000000000
M001SOLDI PROMOTORA DE VENDAS LTDA     0100001830000119012MARINALVA DE FREITAS COSTA         00MARINALVA DE FREITAS COSTA         OTOLAB                             506917631874030163001201112000000000001691600000741580000027403000000000000000000000000000000000000000000000000000000000000000000000000000000000000000000000000000000000000000000781225200000000000000496183         000024862986000177J0000000000000000000000000000SUPERVISOR DE VENDAS20090720TNE100000000202011122020091019781225N0000000000
M001SOLDI PROMOTORA DE VENDAS LTDA     0100001830000119012MARINALVA DE FREITAS COSTA         00MARINALVA DE FREITAS COSTA         OTOLAB                             506917631874030204001201112000000000001691600000741580000027403000000000000000000000000000000000000000000000000000000000000000000000000000000000000000000000000000000000000000000781225200000000000000496183         000024862986000177J0000000000000000000000000000SUPERVISOR DE VENDAS20090720TNE100000000202011122020091019781225N0000000000
M001SOLDI PROMOTORA DE VENDAS LTDA     0100001830000119012MARINALVA DE FREITAS COSTA         00MARINALVA DE FREITAS COSTA         OTOLAB                             506917631874030223701201112000000000001931600000741580000027403000000000000000000000000000000000000000000000000000000000000000000000000000000000000000000000000000000000000000000781225200000000000000566183         000024862986000177J0000000000000000000000000000SUPERVISOR DE VENDAS20090720TNE100000000202011122020091019781225N0000000000
M001SOLDI PROMOTORA DE VENDAS LTDA     0100001830000119012MARINALVA DE FREITAS COSTA         00MARINALVA DE FREITAS COSTA         OTOLAB                             506917631874030231801201112000000000001691600000741580000027403000000000000000000000000000000000000000000000000000000000000000000000000000000000000000000000000000000000000000000781225200000000000000496183         000024862986000177J0000000000000000000000000000SUPERVISOR DE VENDAS20090720TNE100000000202011122020091019781225N0000000000
M001SOLDI PROMOTORA DE VENDAS LTDA     0100001830000119012MARINALVA DE FREITAS COSTA         00MARINALVA DE FREITAS COSTA         OTOLAB                             506917631874030158301201112000000000003021600000741580000027403000000000000000000000000000000000000000000000000000000000000000000000000000000000000000000000000000000000000000000781225200000000000000886183         000024862986000177J0000000000000000000000000000SUPERVISOR DE VENDAS20090720TNE100000000202011122020091019781225N0000000000
M001SOLDI PROMOTORA DE VENDAS LTDA     0100001830000119012MARINALVA DE FREITAS COSTA         00MARINALVA DE FREITAS COSTA         OTOLAB                             506917631874030242301201112000000000001691600000741580000027403000000000000000000000000000000000000000000000000000000000000000000000000000000000000000000000000000000000000000000781225200000000000000496183         000024862986000177J0000000000000000000000000000SUPERVISOR DE VENDAS20090720TNE100000000202011122020091019781225N0000000000
M001SOLDI PROMOTORA DE VENDAS LTDA     0100001830000119012MARINALVA DE FREITAS COSTA         00MARINALVA DE FREITAS COSTA         OTOLAB                             506917631874030258001201112000000000001691600000741580000027403000000000000000000000000000000000000000000000000000000000000000000000000000000000000000000000000000000000000000000781225200000000000000496183         000024862986000177J0000000000000000000000000000SUPERVISOR DE VENDAS20090720TNE100000000202011122020091019781225N0000000000
M001SOLDI PROMOTORA DE VENDAS LTDA     0100001830000119012MARINALVA DE FREITAS COSTA         00MARINALVA DE FREITAS COSTA         OTOLAB                             506917631874030269501201112000000000004831600000741580000027403000000000000000000000000000000000000000000000000000000000000000000000000000000000000000000000000000000000000000000781225200000000000001415183         000024862986000177J0000000000000000000000000000SUPERVISOR DE VENDAS20090720TNE100000000202011122020091019781225N0000000000
M001SOLDI PROMOTORA DE VENDAS LTDA     0100001830000119012MARINALVA DE FREITAS COSTA         00MARINALVA DE FREITAS COSTA         LAB CLEMENTINO FRAGA               506925934684030207501201113000000000005431600000741580000585335000000000000000000000000000000000000000000000000000000000000000000000000000000000000000000000000000000000000000000781225200000000000001591183         000007038425000139J0000000000000000000000000000SUPERVISOR DE VENDAS20090720TNE100000000202011132020091519781225N0000000000
M001SOLDI PROMOTORA DE VENDAS LTDA     0100001830000119012MARINALVA DE FREITAS COSTA         00MARINALVA DE FREITAS COSTA         LAB CLEMENTINO FRAGA               506925934684031649101201113000000000010261600000741580000585335000000000000000000000000000000000000000000000000000000000000000000000000000000000000000000000000000000000000000000781225200000000000003006183         000007038425000139J0000000000000000000000000000SUPERVISOR DE VENDAS20090720TNE100000000202011132020091519781225N0000000000
M001SOLDI PROMOTORA DE VENDAS LTDA     0100001830000119012MARINALVA DE FREITAS COSTA         00MARINALVA DE FREITAS COSTA         LAB CLEMENTINO FRAGA               506925934684031652101201113000000000010261600000741580000585335000000000000000000000000000000000000000000000000000000000000000000000000000000000000000000000000000000000000000000781225200000000000003006183         000007038425000139J0000000000000000000000000000SUPERVISOR DE VENDAS20090720TNE100000000202011132020091519781225N0000000000
M001SOLDI PROMOTORA DE VENDAS LTDA     0100001830000119012MARINALVA DE FREITAS COSTA         00MARINALVA DE FREITAS COSTA         COOPNEURO                          106922213401010103901201118000000000051231600000741580000131302000000000000000000000000000000000000000000000000000000000000000000000000000000000000000000000000000000000000000000781225200000000000015000183         000001495680000124J0000000000000000000000000000SUPERVISOR DE VENDAS20090720TNE100000000202011182020090819781225N0000000000
M001SOLDI PROMOTORA DE VENDAS LTDA     0100001830000119012MARINALVA DE FREITAS COSTA         00MARINALVA DE FREITAS COSTA         CLINICA OTOIMAGEM                  606925243814090110601201119000000000093051600000741580000939870000000000000000000000000000000000000000000000000000000000000000000000000000000000000000000000000000000000000000000781225200000000000027246183         000007824131000132J0000000000000000000000000000SUPERVISOR DE VENDAS20090720TNE100000000202011192020091719781225N0000000000
M001SOLDI PROMOTORA DE VENDAS LTDA     0100002050000120018ANDREZA SANTOS HUMSI RAYES         03ALICE SANTOS HUMSI RAYES FRANCISCO ONE                                101433139151010101200201113000000000035521600000741580000565002000000000000000000000000000000000000000000000000000000000000000000000000000000000000000000000000000000000000000000190326220000000000010400205         030024246294000102J0000000000000000000000000000CONSULTOR DE VENDAS 20100809TNE100000000202011132020102820190326N0000000000
M001SOLDI PROMOTORA DE VENDAS LTDA     0100002050000120018ANDREZA SANTOS HUMSI RAYES         01NICOLE B SANTOS RAYES FRANCISCO    ONE                                191433141741010101200201113000000000035521600000741580000565002000000000000000000000000000000000000000000000000000000000000000000000000000000000000000000000000000000000000000000150427220000000000010400205         010024246294000102J0000000000000000000000000000CONSULTOR DE VENDAS 20100809TNE100000000202011132020102820150427N0000000000
M001SOLDI PROMOTORA DE VENDAS LTDA     0100002050000120018ANDREZA SANTOS HUMSI RAYES         01NICOLE B SANTOS RAYES FRANCISCO    HOSPITAL NOSSO LAR                 106928647021010101201201125000000000034151600000741580000433810000000000000000000000000000000000000000000000000000000000000000000000000000000000000000000000000000000000000000000150427220000000000010000205         010003267101000464J0000000000000000000000000000CONSULTOR DE VENDAS 20100809TNE100000000202011252020090420150427N0000000000
M001SOLDI PROMOTORA DE VENDAS LTDA     0100002640000013086ANTONIA DE SOUSA GOMES FEIJAO      01ANTONIO EGBERTO FEIJAO             HOSPITAL DE OLHOS DE NITEROI       506910115024130132301201104000000000004311600000741580000825492000000000000000000000000000000000000000000000000000000000000000000000000000000000000000000000000000000000000000000550607110000000000001264264         010039256128000318J0000000000000000000000000000AUXILIAR DE SERVICOS20100503TNE100000000202011042020081919550607N0000000000
M001SOLDI PROMOTORA DE VENDAS LTDA     0100002640000013086ANTONIA DE SOUSA GOMES FEIJAO      01ANTONIO EGBERTO FEIJAO             HOSPITAL DE OLHOS DE NITEROI       106910115021010101201201104000000000034151600000741580000825492000000000000000000000000000000000000000000000000000000000000000000000000000000000000000000000000000000000000000000550607110000000000010000264         010039256128000318J0000000000000000000000000000AUXILIAR DE SERVICOS20100503TNE100000000202011042020081919550607N0000000000
M001SOLDI PROMOTORA DE VENDAS LTDA     0100002640000013086ANTONIA DE SOUSA GOMES FEIJAO      01ANTONIO EGBERTO FEIJAO             HOSPITAL DE OLHOS NITEROI          506934025064130101302201124000000000046151600000741580000194123000000000000000000000000000000000000000000000000000000000000000000000000000000000000000000000000000000000000000000550607110000000000013514264         010039256128000156J0000000000000000000000000000AUXILIAR DE SERVICOS20100503TNE100000000202011242020100219550607N0000000000
M001SOLDI PROMOTORA DE VENDAS LTDA     0100002640000013086ANTONIA DE SOUSA GOMES FEIJAO      01ANTONIO EGBERTO FEIJAO             HOSPITAL DE OLHOS NITEROI          606934025064130131502201124000000000013801600000741580000194123000000000000000000000000000000000000000000000000000000000000000000000000000000000000000000000000000000000000000000550607110000000000004042264         010039256128000156J0000000000000000000000000000AUXILIAR DE SERVICOS20100503TNE100000000202011242020100219550607N0000000000
M001SOLDI PROMOTORA DE VENDAS LTDA     0100002640000013086ANTONIA DE SOUSA GOMES FEIJAO      01ANTONIO EGBERTO FEIJAO             HOSPITAL DE OLHOS NITEROI          206934025063401999201201124000000000002630000000741580000194123000000000000000000000000000000000000000000000000000000000000000000000000000000000000000000000000000000000000000000550607110000000000000771264         010039256128000156J0000000000000000000000000000AUXILIAR DE SERVICOS20100503TNE100000000202011242020100219550607N0000000000
M001SOLDI PROMOTORA DE VENDAS LTDA     0100002640000013086ANTONIA DE SOUSA GOMES FEIJAO      01ANTONIO EGBERTO FEIJAO             HOSPITAL DE OLHOS NITEROI          206934025063401999501201124000000000003640000000741580000194123000000000000000000000000000000000000000000000000000000000000000000000000000000000000000000000000000000000000000000550607110000000000001066264         010039256128000156J0000000000000000000000000000AUXILIAR DE SERVICOS20100503TNE100000000202011242020100219550607N0000000000
M001SOLDI PROMOTORA DE VENDAS LTDA     0100002640000013086ANTONIA DE SOUSA GOMES FEIJAO      00ANTONIA DE SOUSA GOMES FEIJAO      MONALIZA GOMES DE CARVALHO         191224866031010101200201130000000000034151600000741580038034000000000000000000000000000000000000000000000000000000000000000000000000000000000000000000000000000000000000000000000601013203800000000010000264         000000072921889749F0000000000000000000000000000AUXILIAR DE SERVICOS20100503TNE100000000202011302020101919601013N0000000000
M001SOLDI PROMOTORA DE VENDAS LTDA     0100002800000013097SAMUEL DE FRANCA PESSOA JUNIOR     01ALESSANDRA RODRIGUES BARROS        CRISTIANE ALVES PADAO              101223263281010101200201125000000000034151600000741581926431300000000000000000000000000000000000000000000000000000000000000000000000000000000000000000000000000000000000000000000920512212600000000010000280         010000091619939720F0000000000000000000000000000CONSULTOR DE VENDAS 20110317TNE100000000202011252020101119920512N0000000000
M001SOLDI PROMOTORA DE VENDAS LTDA     0100003020000133127ANA PAULA RODRIGUES BRAGA RAMALHO  00ANA PAULA RODRIGUES BRAGA RAMALHO  TEREZA CRISTINA QUEIROS MONTEIRO   706947656514130109901201112000000000002761600000741581926071500000000000000000000000000000000000000000000000000000000000000000000000000000000000000000000000000000000000000000000880812202600000000000810302         000000022240110406F0000000000000000000000000000CONSULTOR DE VENDAS 20100601TNE100000000202011122020101519880812N0000000000
M001SOLDI PROMOTORA DE VENDAS LTDA     0100003020000133127ANA PAULA RODRIGUES BRAGA RAMALHO  00ANA PAULA RODRIGUES BRAGA RAMALHO  TEREZA CRISTINA QUEIROS MONTEIRO   506947656514130110201201112000000000009971600000741581926071500000000000000000000000000000000000000000000000000000000000000000000000000000000000000000000000000000000000000000000880812202600000000002922302         000000022240110406F0000000000000000000000000000CONSULTOR DE VENDAS 20100601TNE100000000202011122020101519880812N0000000000
M001SOLDI PROMOTORA DE VENDAS LTDA     0100003020000133127ANA PAULA RODRIGUES BRAGA RAMALHO  00ANA PAULA RODRIGUES BRAGA RAMALHO  TEREZA CRISTINA QUEIROS MONTEIRO   506947656514130118801201112000000000004441600000741581926071500000000000000000000000000000000000000000000000000000000000000000000000000000000000000000000000000000000000000000000880812202600000000001302302         000000022240110406F0000000000000000000000000000CONSULTOR DE VENDAS 20100601TNE100000000202011122020101519880812N0000000000
M001SOLDI PROMOTORA DE VENDAS LTDA     0100003020000133127ANA PAULA RODRIGUES BRAGA RAMALHO  00ANA PAULA RODRIGUES BRAGA RAMALHO  TEREZA CRISTINA QUEIROS MONTEIRO   101397865311010101200201113000000000034151600000741581926071500000000000000000000000000000000000000000000000000000000000000000000000000000000000000000000000000000000000000000000880812202600000000010000302         000000022240110406F0000000000000000000000000000CONSULTOR DE VENDAS 20100601TNE100000000202011132020101519880812N0000000000
M001SOLDI PROMOTORA DE VENDAS LTDA     0100003100000133146MARIA BETANIA SILVA DA TRINDADE    01MURILO GABRIEL TRINDADE TENORIO    COOPHAIA                           191381014341010101200201127000000000036201600000741580000075698000000000000000000000000000000000000000000000000000000000000000000000000000000000000000000000000000000000000000000120518120000000000010600310         010002042694000155J0000000000000000000000000000CONSULTOR DE VENDAS 20110601TNE100000000202011272020100620120518N0000000000
M001SOLDI PROMOTORA DE VENDAS LTDA     0100003100000133146MARIA BETANIA SILVA DA TRINDADE    00MARIA BETANIA SILVA DA TRINDADE    COOPHAIA                           101381010731010101200201127000000000036201600000741580000075698000000000000000000000000000000000000000000000000000000000000000000000000000000000000000000000000000000000000000000770921200000000000010600310         000002042694000155J0000000000000000000000000000CONSULTOR DE VENDAS 20110601TNE100000000202011272020100619770921N0000000000
M001SOLDI PROMOTORA DE VENDAS LTDA     0100003290000133158CARLA C GUILHERME SILVA MARQUES    00CARLA C GUILHERME SILVA MARQUES    HOSPITAL DE OLHOS SANTA LUZIA      506911090944130132301201105000000000004311600000741580000165402000000000000000000000000000000000000000000000000000000000000000000000000000000000000000000000000000000000000000000860103200000000000001264329         000012305371000160J0000000000000000000000000000CONSULTOR DE VENDAS 20110701TNE100000000202011052020091019860103N0000000000
M001SOLDI PROMOTORA DE VENDAS LTDA     0100003290000133158CARLA C GUILHERME SILVA MARQUES    01JOSE WELLINGTON MARQUES            HOSPITAL DE OLHOS SANTA LUZIA      506911090954130132301201105000000000004311600000741580000165402000000000000000000000000000000000000000000000000000000000000000000000000000000000000000000000000000000000000000000770116110000000000001264329         010012305371000160J0000000000000000000000000000CONSULTOR DE VENDAS 20110701TNE100000000202011052020091019770116N0000000000
M001SOLDI PROMOTORA DE VENDAS LTDA     0100003290000133158CARLA C GUILHERME SILVA MARQUES    00CARLA C GUILHERME SILVA MARQUES    HOSPITAL DE OLHOS SANTA LUZIA      606911090944130142002201105000000000124691600000741580000165402000000000000000000000000000000000000000000000000000000000000000000000000000000000000000000000000000000000000000000860103200000000000036510329         000012305371000160J0000000000000000000000000000CONSULTOR DE VENDAS 20110701TNE100000000202011052020091019860103N0000000000
M001SOLDI PROMOTORA DE VENDAS LTDA     0100003290000133158CARLA C GUILHERME SILVA MARQUES    01JOSE WELLINGTON MARQUES            HOSPITAL DE OLHOS SANTA LUZIA      606911090954130142002201105000000000124691600000741580000165402000000000000000000000000000000000000000000000000000000000000000000000000000000000000000000000000000000000000000000770116110000000000036510329         010012305371000160J0000000000000000000000000000CONSULTOR DE VENDAS 20110701TNE100000000202011052020091019770116N0000000000
M001SOLDI PROMOTORA DE VENDAS LTDA     0100003290000133158CARLA C GUILHERME SILVA MARQUES    00CARLA C GUILHERME SILVA MARQUES    FISIOTERAVIDA                      100192471991010101200201111000000000034151600000741580000878693000000000000000000000000000000000000000000000000000000000000000000000000000000000000000000000000000000000000000000860103200000000000010000329         000005246196000112J0000000000000000000000000000CONSULTOR DE VENDAS 20110701TNE100000000202011112020100819860103N0000000000
M001SOLDI PROMOTORA DE VENDAS LTDA     0100003290000133158CARLA C GUILHERME SILVA MARQUES    00CARLA C GUILHERME SILVA MARQUES    YASCARA MARIA CANTARELLI CUNHA     206948644563010192101201113000000000047841600000741580015130200000000000000000000000000000000000000000000000000000000000000000000000000000000000000000000000000000000000000000000860103201500000000014008329         000000044501242434F0000000000000000000000000000CONSULTOR DE VENDAS 20110701TNE100000000202011132020082819860103N0000000000
M001SOLDI PROMOTORA DE VENDAS LTDA     0100003290000133158CARLA C GUILHERME SILVA MARQUES    02LIVIA MARINA GUILHERME MARQUES     SERVIMED                           106929632681010103901201119000000000047061600000741580000444197000000000000000000000000000000000000000000000000000000000000000000000000000000000000000000000000000000000000000000140221220000000000013780329         020004695546000165J0000000000000000000000000000CONSULTOR DE VENDAS 20110701TNE100000000202011192020100120140221N0000000000
M001SOLDI PROMOTORA DE VENDAS LTDA     0100003530000014055REGINA HELENA NERY BEZERRA         01HELENA PATRICIA NERY DOS SANTOS    BORIS BERENSTEIN RADIOLOGIA        606923233144090124601201110000000000048131600000741580000064033000000000000000000000000000000000000000000000000000000000000000000000000000000000000000000000000000000000000000000000331220000000000014094353         010012857736000160J0000000000000000000000000000CONSULTOR DE VENDAS 20100804TNE100000000202011102020092220000331N0000000000
M001SOLDI PROMOTORA DE VENDAS LTDA     0100003530000014055REGINA HELENA NERY BEZERRA         01HELENA PATRICIA NERY DOS SANTOS    ALEXANDRE JOSE DA SILVA            100192242071010101200201111000000000035521600000741580414087900000000000000000000000000000000000000000000000000000000000000000000000000000000000000000000000000000000000000000000000331221400000000010400353         010000043194524453F0000000000000000000000000000CONSULTOR DE VENDAS 20100804TNE100000000202011112020102620000331N0000000000
M001SOLDI PROMOTORA DE VENDAS LTDA     0100003530000014055REGINA HELENA NERY BEZERRA         01HELENA PATRICIA NERY DOS SANTOS    EDNA REGINA CLINICA MEDICA         191087006061010101200201120000000000034151600000741580000331002000000000000000000000000000000000000000000000000000000000000000000000000000000000000000000000000000000000000000000000331220000000000010000353         010020076084000154J0000000000000000000000000000CONSULTOR DE VENDAS 20100804TNE100000000202011202020100520000331N0000000000
M001SOLDI PROMOTORA DE VENDAS LTDA     0100003530000014055REGINA HELENA NERY BEZERRA         01HELENA PATRICIA NERY DOS SANTOS    EDNA REGINA CLINICA MEDICA         100194038021010101200201120000000000034151600000741580000331002000000000000000000000000000000000000000000000000000000000000000000000000000000000000000000000000000000000000000000000331220000000000010000353         010020076084000154J0000000000000000000000000000CONSULTOR DE VENDAS 20100804TNE100000000202011202020110620000331N0000000000
M001SOLDI PROMOTORA DE VENDAS LTDA     0100003530000014055REGINA HELENA NERY BEZERRA         00REGINA HELENA NERY BEZERRA         BORIS BERENSTEIN RADIOLOGIA        506923233134090111401201127000000000018221600000741580000064033000000000000000000000000000000000000000000000000000000000000000000000000000000000000000000000000000000000000000000810107200000000000005335353         000012857736000160J0000000000000000000000000000CONSULTOR DE VENDAS 20100804TNE100000000202011272020092219810107N0000000000
M001SOLDI PROMOTORA DE VENDAS LTDA     0100003530000014055REGINA HELENA NERY BEZERRA         00REGINA HELENA NERY BEZERRA         BORIS BERENSTEIN RADIOLOGIA        506923233134090112201201127000000000051541600000741580000064033000000000000000000000000000000000000000000000000000000000000000000000000000000000000000000000000000000000000000000810107200000000000015093353         000012857736000160J0000000000000000000000000000CONSULTOR DE VENDAS 20100804TNE100000000202011272020092219810107N0000000000
M001SOLDI PROMOTORA DE VENDAS LTDA     0100003530000014055REGINA HELENA NERY BEZERRA         00REGINA HELENA NERY BEZERRA         BORIS BERENSTEIN RADIOLOGIA        506923233134090120301201127000000000018211600000741580000064033000000000000000000000000000000000000000000000000000000000000000000000000000000000000000000000000000000000000000000810107200000000000005334353         000012857736000160J0000000000000000000000000000CONSULTOR DE VENDAS 20100804TNE100000000202011272020092219810107N0000000000
M001SOLDI PROMOTORA DE VENDAS LTDA     0100003530000014055REGINA HELENA NERY BEZERRA         00REGINA HELENA NERY BEZERRA         BORIS BERENSTEIN RADIOLOGIA        506923233134090130001201127000000000021431600000741580000064033000000000000000000000000000000000000000000000000000000000000000000000000000000000000000000000000000000000000000000810107200000000000006275353         000012857736000160J0000000000000000000000000000CONSULTOR DE VENDAS 20100804TNE100000000202011272020092219810107N0000000000
M001SOLDI PROMOTORA DE VENDAS LTDA     0100003610000017005EDVANE PEREIRA DE OLIVEIRA         00EDVANE PEREIRA DE OLIVEIRA         HOSPITAL SANTA IZABEL              206784264148400251401201103000000000128070000000741580000059811000000000000000000000000000000000000000000000000000000000000000000000000000000000000000000000000000000000000000000801011200000000000037500361         000015153745000249J0000000000000000000000000000SUPERVISOR DE VENDAS20060701TNQ200000000202011032020021019801011N0000000000
M001SOLDI PROMOTORA DE VENDAS LTDA     0100003700000017098CAROLINE MOREIRA CHAMUSCA          01MARCELO CHAMUSCA DE LUNA           HOSPITAL SAO RAFAEL                3   FK8KDW70000000100201105000000001088450000000741580000447811000000000005283500000000000000000000000108880000000002360100000000000000000000000000000000000000000000000000021521801223110000000000318691370         010027372066000169J0000000000000000000000000000ASSISTENTE COMERCIAL20090923TNQ200000000202011052020082519801223N0000000000
M001SOLDI PROMOTORA DE VENDAS LTDA     0100003700000017098CAROLINE MOREIRA CHAMUSCA          01MARCELO CHAMUSCA DE LUNA           HOSPITAL DE OLHOS RUY CUNHA        206927475708450073501201124000000000076840000000741580000656020000000000000000000000000000000000000000000000000000000000000000000000000000000000000000000000000000000000000000000801223110000000000022500370         010013188370000227J0000000000000000000000000000ASSISTENTE COMERCIAL20090923TNQ200000000202011242020092919801223N0000000000
M001SOLDI PROMOTORA DE VENDAS LTDA     0100003700000017098CAROLINE MOREIRA CHAMUSCA          01MARCELO CHAMUSCA DE LUNA           HOSPITAL DE OLHOS RUY CUNHA        506927475884150114402201130000000000049141600000741580000656020000000000000000000000000000000000000000000000000000000000000000000000000000000000000000000000000000000000000000000801223110000000000014390370         010013188370000227J0000000000000000000000000000ASSISTENTE COMERCIAL20090923TNQ200000000202011302020092919801223N0000000000
M001SOLDI PROMOTORA DE VENDAS LTDA     0100003700000017098CAROLINE MOREIRA CHAMUSCA          01MARCELO CHAMUSCA DE LUNA           OFTALMOCLIN                        206919392958450073501201130000000000054640000000741580000782002000000000000000000000000000000000000000000000000000000000000000000000000000000000000000000000000000000000000000000801223110000000000016000370         010014307763000275J0000000000000000000000000000ASSISTENTE COMERCIAL20090923TNQ200000000202011302020092119801223N0000000000
M001SOLDI PROMOTORA DE VENDAS LTDA     0100003880000017124LUCIANA DO ESPIRITO SANTO ARAUJO   00LUCIANA DO ESPIRITO SANTO ARAUJO   CLION                              206906720593401999201201103000000000172750000000741580000599646000000000000000000000000000000000000000000000000000000000000000000000000000000000000000000000000000000000000000000710322200000000000050580388         000013501218000171J0000000000000000000000000000CONSULTOR DE VENDAS 20100719TNE100000000202011032020090419710322N0000000000
M001SOLDI PROMOTORA DE VENDAS LTDA     0100003880000017124LUCIANA DO ESPIRITO SANTO ARAUJO   01ULISSES SOUZA ARAUJO               HOLOS                              206922913765000047001201109000000000023201600000741580000766429000000000000000000000000000000000000000000000000000000000000000000000000000000000000000000000000000000000000000000811116110000000000006794388         010042220152000140J0000000000000000000000000000CONSULTOR DE VENDAS 20100719TNE100000000202011092020092119811116N0000000000
M001SOLDI PROMOTORA DE VENDAS LTDA     0100003880000017124LUCIANA DO ESPIRITO SANTO ARAUJO   01ULISSES SOUZA ARAUJO               HOLOS                              206922913765000047001201109000000000023201600000741580000766429000000000000000000000000000000000000000000000000000000000000000000000000000000000000000000000000000000000000000000811116110000000000006794388         010042220152000140J0000000000000000000000000000CONSULTOR DE VENDAS 20100719TNE100000000202011092020092119811116N0000000000
M001SOLDI PROMOTORA DE VENDAS LTDA     0100003880000017124LUCIANA DO ESPIRITO SANTO ARAUJO   01ULISSES SOUZA ARAUJO               HOLOS                              206922913765000047001201109000000000023201600000741580000766429000000000000000000000000000000000000000000000000000000000000000000000000000000000000000000000000000000000000000000811116110000000000006794388         010042220152000140J0000000000000000000000000000CONSULTOR DE VENDAS 20100719TNE100000000202011092020092119811116N0000000000
M001SOLDI PROMOTORA DE VENDAS LTDA     0100003880000017124LUCIANA DO ESPIRITO SANTO ARAUJO   01ULISSES SOUZA ARAUJO               HOLOS                              206922913765000047001201109000000000023201600000741580000766429000000000000000000000000000000000000000000000000000000000000000000000000000000000000000000000000000000000000000000811116110000000000006794388         010042220152000140J0000000000000000000000000000CONSULTOR DE VENDAS 20100719TNE100000000202011092020092119811116N0000000000
M001SOLDI PROMOTORA DE VENDAS LTDA     0100003880000017124LUCIANA DO ESPIRITO SANTO ARAUJO   01ULISSES SOUZA ARAUJO               ECOCARDIO                          101407254731010101200201110000000000034151600000741580000237802000000000000000000000000000000000000000000000000000000000000000000000000000000000000000000000000000000000000000000811116110000000000010000388         010013453246000160J0000000000000000000000000000CONSULTOR DE VENDAS 20100719TNE100000000202011102020101919811116N0000000000
M001SOLDI PROMOTORA DE VENDAS LTDA     0100003880000017124LUCIANA DO ESPIRITO SANTO ARAUJO   00LUCIANA DO ESPIRITO SANTO ARAUJO   CAM CLIN DE ASSIST A MULHER        100192076761010101200201110000000000035521600000741580000770825000000000000000000000000000000000000000000000000000000000000000000000000000000000000000000000000000000000000000000710322200000000000010400388         000014526487000155J0000000000000000000000000000CONSULTOR DE VENDAS 20100719TNE100000000202011102020102019710322N0000000000
M001SOLDI PROMOTORA DE VENDAS LTDA     0100003880000017124LUCIANA DO ESPIRITO SANTO ARAUJO   01ULISSES SOUZA ARAUJO               ECOCARDIO                          506923466444010101001201118000000000007091600000741580000237802000000000000000000000000000000000000000000000000000000000000000000000000000000000000000000000000000000000000000000811116110000000000002076388         010013453246000160J0000000000000000000000000000CONSULTOR DE VENDAS 20100719TNE100000000202011182020082719811116N0000000000
M001SOLDI PROMOTORA DE VENDAS LTDA     0100003880000017124LUCIANA DO ESPIRITO SANTO ARAUJO   01ULISSES SOUZA ARAUJO               ECOCARDIO                          606923466444090110601201118000000000085131600000741580000237802000000000000000000000000000000000000000000000000000000000000000000000000000000000000000000000000000000000000000000811116110000000000024928388         010013453246000160J0000000000000000000000000000CONSULTOR DE VENDAS 20100719TNE100000000202011182020082719811116N0000000000
M001SOLDI PROMOTORA DE VENDAS LTDA     0100003880000017124LUCIANA DO ESPIRITO SANTO ARAUJO   01ULISSES SOUZA ARAUJO               HOLOS                              206933587805000047001201124000000000023201600000741580000766429000000000000000000000000000000000000000000000000000000000000000000000000000000000000000000000000000000000000000000811116110000000000006794388         010042220152000140J0000000000000000000000000000CONSULTOR DE VENDAS 20100719TNE100000000202011242020100519811116N0000000000
M001SOLDI PROMOTORA DE VENDAS LTDA     0100003880000017124LUCIANA DO ESPIRITO SANTO ARAUJO   01ULISSES SOUZA ARAUJO               HOLOS                              206933587805000047001201124000000000023201600000741580000766429000000000000000000000000000000000000000000000000000000000000000000000000000000000000000000000000000000000000000000811116110000000000006794388         010042220152000140J0000000000000000000000000000CONSULTOR DE VENDAS 20100719TNE100000000202011242020100519811116N0000000000
M001SOLDI PROMOTORA DE VENDAS LTDA     0100003880000017124LUCIANA DO ESPIRITO SANTO ARAUJO   01ULISSES SOUZA ARAUJO               HOLOS                              206933587805000047001201124000000000023201600000741580000766429000000000000000000000000000000000000000000000000000000000000000000000000000000000000000000000000000000000000000000811116110000000000006794388         010042220152000140J0000000000000000000000000000CONSULTOR DE VENDAS 20100719TNE100000000202011242020100519811116N0000000000
M001SOLDI PROMOTORA DE VENDAS LTDA     0100003880000017124LUCIANA DO ESPIRITO SANTO ARAUJO   01ULISSES SOUZA ARAUJO               HOLOS                              206933587805000047001201124000000000023201600000741580000766429000000000000000000000000000000000000000000000000000000000000000000000000000000000000000000000000000000000000000000811116110000000000006794388         010042220152000140J0000000000000000000000000000CONSULTOR DE VENDAS 20100719TNE100000000202011242020100519811116N0000000000
M001SOLDI PROMOTORA DE VENDAS LTDA     0100003880000017124LUCIANA DO ESPIRITO SANTO ARAUJO   01ULISSES SOUZA ARAUJO               HOLOS                              206933587805000047001201124000000000023201600000741580000766429000000000000000000000000000000000000000000000000000000000000000000000000000000000000000000000000000000000000000000811116110000000000006794388         010042220152000140J0000000000000000000000000000CONSULTOR DE VENDAS 20100719TNE100000000202011242020100519811116N0000000000
M001SOLDI PROMOTORA DE VENDAS LTDA     0100003880000017124LUCIANA DO ESPIRITO SANTO ARAUJO   00LUCIANA DO ESPIRITO SANTO ARAUJO   CLION                              206860354673401999201201127000000002685890000000741580000599646000000000000000000000000000000000000000000000000000000000000000000000000000000000000000000000000000000000000000000710322200000000000786405388         000013501218000171J0000000000000000000000000000CONSULTOR DE VENDAS 20100719TNE100000000202011272020062519710322N0000000000
M001SOLDI PROMOTORA DE VENDAS LTDA     0100004000000017132JACIRA SOFIA SANTOS                02ERICA SANTANA DOS SANTOS           LABOCLIN                           506925339864030463901201113000000000001591600000741580000014877000000000000000000000000000000000000000000000000000000000000000000000000000000000000000000000000000000000000000000001117120000000000000467400         020013551767000150J0000000000000000000000000000AUXILIAR DE SERVICOS20100722TNE100000000202011132020090420001117N0000000000
M001SOLDI PROMOTORA DE VENDAS LTDA     0100004000000017132JACIRA SOFIA SANTOS                02ERICA SANTANA DOS SANTOS           LABOCLIN                           506925339864030258001201113000000000001481600000741580000014877000000000000000000000000000000000000000000000000000000000000000000000000000000000000000000000000000000000000000000001117120000000000000436400         020013551767000150J0000000000000000000000000000AUXILIAR DE SERVICOS20100722TNE100000000202011132020090420001117N0000000000
M001SOLDI PROMOTORA DE VENDAS LTDA     0100004000000017132JACIRA SOFIA SANTOS                02ERICA SANTANA DOS SANTOS           LABOCLIN                           506925339864030436101201113000000000003181600000741580000014877000000000000000000000000000000000000000000000000000000000000000000000000000000000000000000000000000000000000000000001117120000000000000934400         020013551767000150J0000000000000000000000000000AUXILIAR DE SERVICOS20100722TNE100000000202011132020090420001117N0000000000
M001SOLDI PROMOTORA DE VENDAS LTDA     0100004000000017132JACIRA SOFIA SANTOS                02ERICA SANTANA DOS SANTOS           LABOCLIN                           506925339864030163001201113000000000001481600000741580000014877000000000000000000000000000000000000000000000000000000000000000000000000000000000000000000000000000000000000000000001117120000000000000436400         020013551767000150J0000000000000000000000000000AUXILIAR DE SERVICOS20100722TNE100000000202011132020090420001117N0000000000
M001SOLDI PROMOTORA DE VENDAS LTDA     0100004000000017132JACIRA SOFIA SANTOS                02ERICA SANTANA DOS SANTOS           LABOCLIN                           506925339864030459001201113000000000001591600000741580000014877000000000000000000000000000000000000000000000000000000000000000000000000000000000000000000000000000000000000000000001117120000000000000467400         020013551767000150J0000000000000000000000000000AUXILIAR DE SERVICOS20100722TNE100000000202011132020090420001117N0000000000
M001SOLDI PROMOTORA DE VENDAS LTDA     0100004000000017132JACIRA SOFIA SANTOS                02ERICA SANTANA DOS SANTOS           LABOCLIN                           506925339864030251201201113000000000001481600000741580000014877000000000000000000000000000000000000000000000000000000000000000000000000000000000000000000000000000000000000000000001117120000000000000436400         020013551767000150J0000000000000000000000000000AUXILIAR DE SERVICOS20100722TNE100000000202011132020090420001117N0000000000
M001SOLDI PROMOTORA DE VENDAS LTDA     0100004000000017132JACIRA SOFIA SANTOS                02ERICA SANTANA DOS SANTOS           LABOCLIN                           506925339864030204001201113000000000001481600000741580000014877000000000000000000000000000000000000000000000000000000000000000000000000000000000000000000000000000000000000000000001117120000000000000436400         020013551767000150J0000000000000000000000000000AUXILIAR DE SERVICOS20100722TNE100000000202011132020090420001117N0000000000
M001SOLDI PROMOTORA DE VENDAS LTDA     0100004000000017132JACIRA SOFIA SANTOS                02ERICA SANTANA DOS SANTOS           LABOCLIN                           506925339864030250401201113000000000001481600000741580000014877000000000000000000000000000000000000000000000000000000000000000000000000000000000000000000000000000000000000000000001117120000000000000436400         020013551767000150J0000000000000000000000000000AUXILIAR DE SERVICOS20100722TNE100000000202011132020090420001117N0000000000
M001SOLDI PROMOTORA DE VENDAS LTDA     0100004180000180010DANIELLE BARBOSA DUARTE            00DANIELLE BARBOSA DUARTE            HOSPITAL LIFECENTER                3   FEC6XT30000000100201105000000005650330000000741580000355410000000000015246300000000000000000000000000000000000000000000000000000000000000000000000000000000000000000000412570830513200000000001654369418         000004123021000155J0000000000000000000000000000CONSULTOR DE VENDAS 20111020TNE100000000202011052020073119830513N0000000000
M001SOLDI PROMOTORA DE VENDAS LTDA     0100004180000180010DANIELLE BARBOSA DUARTE            00DANIELLE BARBOSA DUARTE            AXIAL MEDICINA DIAGNOSTICA         606919183658436004601201125000000000153690000000741580000741779000000000000000000000000000000000000000000000000000000000000000000000000000000000000000000000000000000000000000000830513200000000000045000418         000042771949000640J0000000000000000000000000000CONSULTOR DE VENDAS 20111020TNE100000000202011252020052919830513N0000000000
M001SOLDI PROMOTORA DE VENDAS LTDA     0100004340000018110MARIA LUCIA DA SILVA               00MARIA LUCIA DA SILVA               CLINICA PRODIGEST                  191420451511010101200201111000000000034151600000741580000714828000000000000000000000000000000000000000000000000000000000000000000000000000000000000000000000000000000000000000000760306200000000000010000434         000001443380000100J0000000000000000000000000000CONSULTOR DE VENDAS 20101122TNE100000000202011112020102319760306N0000000000
M001SOLDI PROMOTORA DE VENDAS LTDA     0100005070008800211GLAUBER LARANJEIRA DO NASCIMENTO   00GLAUBER LARANJEIRA DO NASCIMENTO   TOMOSON                            606909592738434008801201106000000000102460000000741580000372633000000000000000000000000000000000000000000000000000000000000000000000000000000000000000000000000000000000000000000840313200000000000030000507         000035490218000156J0000000000000000000000000000SUPERVISOR DE VENDAS20111002TNE100000000202011062020081719840313N0000000000
M001SOLDI PROMOTORA DE VENDAS LTDA     0100005070008800211GLAUBER LARANJEIRA DO NASCIMENTO   01AMELIA FATIMA FERREIRA NASCIMENTO  COOPECIR                           100193631341010101200201118000000000036541600000741580000215198000000000000000000000000000000000000000000000000000000000000000000000000000000000000000000000000000000000000000000881003210000000000010700507         010001236433000103J0000000000000000000000000000SUPERVISOR DE VENDAS20111002TNE100000000202011182020092419881003N0000000000
M001SOLDI PROMOTORA DE VENDAS LTDA     0100005740008800592ALINIR PEREIRA DE ALMEIDA PAVAO    01MAGNO ALEXANDRE SANTOS PAVAO       INAO                               100193546811010101200201118000000000068301600000741580000292602000000000000000000000000000000000000000000000000000000000000000000000000000000000000000000000000000000000000000000730826110000000000020000574         010022093039000133J0000000000000000000000000000CONSULTOR DE VENDAS 20120206TNE100000000202011182020101419730826N0000000000
M001SOLDI PROMOTORA DE VENDAS LTDA     0100005740008800592ALINIR PEREIRA DE ALMEIDA PAVAO    01MAGNO ALEXANDRE SANTOS PAVAO       INAO                               506926814624010319601201124000000000095611600000741580000292602000000000000000000000000000000000000000000000000000000000000000000000000000000000000000000000000000000000000000000730826110000000000027994574         010022093039000133J0000000000000000000000000000CONSULTOR DE VENDAS 20120206TNE100000000202011242020091519730826N0000000000
M001SOLDI PROMOTORA DE VENDAS LTDA     0100005740008800592ALINIR PEREIRA DE ALMEIDA PAVAO    02AGATHA ALMEIDA PAVAO               TAMARA ALVES                       106921792531010614601201125000000000040981600000741580000809702000000000000000000000000000000000000000000000000000000000000000000000000000000000000000000000000000000000000000000190606220000000000012000574         020030095344000192J0000000000000000000000000000CONSULTOR DE VENDAS 20120206TNE100000000202011252020090320190606N0000000000
M001SOLDI PROMOTORA DE VENDAS LTDA     0100006390008800606ERICA FRANCISCA DA SILVA           03RAFAEL SALUSTIANO DE ALMEIDA       CEFOPE                             206925198315000047001201119000000000014501600000741580000860190000000000000000000000000000000000000000000000000000000000000000000000000000000000000000000000000000000000000000000811114110000000000004246639         030008067238000146J0000000000000000000000000000ASSISTENTE OPERACION20120903TNE100000000202011192020080719811114N0000000000
M001SOLDI PROMOTORA DE VENDAS LTDA     0100006390008800606ERICA FRANCISCA DA SILVA           03RAFAEL SALUSTIANO DE ALMEIDA       CEFOPE                             206925198315000047001201119000000000014501600000741580000860190000000000000000000000000000000000000000000000000000000000000000000000000000000000000000000000000000000000000000000811114110000000000004246639         030008067238000146J0000000000000000000000000000ASSISTENTE OPERACION20120903TNE100000000202011192020080719811114N0000000000
M001SOLDI PROMOTORA DE VENDAS LTDA     0100006630000880061JESSICA LUISE TEXEIRA DE OLIVEIRA  00JESSICA LUISE TEXEIRA DE OLIVEIRA  M G VIDEO CIRURGIA                 100192005901010101200201109000000000034151600000741580000196096000000000000000000000000000000000000000000000000000000000000000000000000000000000000000000000000000000000000000000900822100000000000010000663         000005195404000100J0000000000000000000000000000CONSULTOR DE VENDAS 20111103TNE100000000202011092020101919900822N0000000000
M001SOLDI PROMOTORA DE VENDAS LTDA     0100006630000880061JESSICA LUISE TEXEIRA DE OLIVEIRA  00JESSICA LUISE TEXEIRA DE OLIVEIRA  LABORATORIO BRONSTEIN              506935709704030163001201127000000000001371600000741580000281972000000000000000000000000000000000000000000000000000000000000000000000000000000000000000000000000000000000000000000900822100000000000000402663         000061486650005061J0000000000000000000000000000CONSULTOR DE VENDAS 20111103TNE100000000202011272020101419900822N0000000000
M001SOLDI PROMOTORA DE VENDAS LTDA     0100006630000880061JESSICA LUISE TEXEIRA DE OLIVEIRA  00JESSICA LUISE TEXEIRA DE OLIVEIRA  LABORATORIO BRONSTEIN              506935709704030199001201127000000000001951600000741580000281972000000000000000000000000000000000000000000000000000000000000000000000000000000000000000000000000000000000000000000900822100000000000000573663         000061486650005061J0000000000000000000000000000CONSULTOR DE VENDAS 20111103TNE100000000202011272020101419900822N0000000000
M001SOLDI PROMOTORA DE VENDAS LTDA     0100006630000880061JESSICA LUISE TEXEIRA DE OLIVEIRA  00JESSICA LUISE TEXEIRA DE OLIVEIRA  LABORATORIO BRONSTEIN              506935709704030204001201127000000000001371600000741580000281972000000000000000000000000000000000000000000000000000000000000000000000000000000000000000000000000000000000000000000900822100000000000000402663         000061486650005061J0000000000000000000000000000CONSULTOR DE VENDAS 20111103TNE100000000202011272020101419900822N0000000000
M001SOLDI PROMOTORA DE VENDAS LTDA     0100006630000880061JESSICA LUISE TEXEIRA DE OLIVEIRA  00JESSICA LUISE TEXEIRA DE OLIVEIRA  LABORATORIO BRONSTEIN              506935709704030250401201127000000000001371600000741580000281972000000000000000000000000000000000000000000000000000000000000000000000000000000000000000000000000000000000000000000900822100000000000000402663         000061486650005061J0000000000000000000000000000CONSULTOR DE VENDAS 20111103TNE100000000202011272020101419900822N0000000000
M001SOLDI PROMOTORA DE VENDAS LTDA     0100006630000880061JESSICA LUISE TEXEIRA DE OLIVEIRA  00JESSICA LUISE TEXEIRA DE OLIVEIRA  LABORATORIO BRONSTEIN              506935709704030251201201127000000000001371600000741580000281972000000000000000000000000000000000000000000000000000000000000000000000000000000000000000000000000000000000000000000900822100000000000000402663         000061486650005061J0000000000000000000000000000CONSULTOR DE VENDAS 20111103TNE100000000202011272020101419900822N0000000000
M001SOLDI PROMOTORA DE VENDAS LTDA     0100006630000880061JESSICA LUISE TEXEIRA DE OLIVEIRA  00JESSICA LUISE TEXEIRA DE OLIVEIRA  LABORATORIO BRONSTEIN              506935709704030254701201127000000000001951600000741580000281972000000000000000000000000000000000000000000000000000000000000000000000000000000000000000000000000000000000000000000900822100000000000000573663         000061486650005061J0000000000000000000000000000CONSULTOR DE VENDAS 20111103TNE100000000202011272020101419900822N0000000000
M001SOLDI PROMOTORA DE VENDAS LTDA     0100006630000880061JESSICA LUISE TEXEIRA DE OLIVEIRA  00JESSICA LUISE TEXEIRA DE OLIVEIRA  LABORATORIO BRONSTEIN              506935709704030269501201127000000000003911600000741580000281972000000000000000000000000000000000000000000000000000000000000000000000000000000000000000000000000000000000000000000900822100000000000001147663         000061486650005061J0000000000000000000000000000CONSULTOR DE VENDAS 20111103TNE100000000202011272020101419900822N0000000000
M001SOLDI PROMOTORA DE VENDAS LTDA     0100006630000880061JESSICA LUISE TEXEIRA DE OLIVEIRA  00JESSICA LUISE TEXEIRA DE OLIVEIRA  LABORATORIO BRONSTEIN              506935709704030273301201127000000000011271600000741580000281972000000000000000000000000000000000000000000000000000000000000000000000000000000000000000000000000000000000000000000900822100000000000003302663         000061486650005061J0000000000000000000000000000CONSULTOR DE VENDAS 20111103TNE100000000202011272020101419900822N0000000000
M001SOLDI PROMOTORA DE VENDAS LTDA     0100006630000880061JESSICA LUISE TEXEIRA DE OLIVEIRA  00JESSICA LUISE TEXEIRA DE OLIVEIRA  LABORATORIO BRONSTEIN              506935709704030283001201127000000000012431600000741580000281972000000000000000000000000000000000000000000000000000000000000000000000000000000000000000000000000000000000000000000900822100000000000003642663         000061486650005061J0000000000000000000000000000CONSULTOR DE VENDAS 20111103TNE100000000202011272020101419900822N0000000000
M001SOLDI PROMOTORA DE VENDAS LTDA     0100006630000880061JESSICA LUISE TEXEIRA DE OLIVEIRA  00JESSICA LUISE TEXEIRA DE OLIVEIRA  LABORATORIO BRONSTEIN              506935709704030436101201127000000000002941600000741580000281972000000000000000000000000000000000000000000000000000000000000000000000000000000000000000000000000000000000000000000900822100000000000000861663         000061486650005061J0000000000000000000000000000CONSULTOR DE VENDAS 20111103TNE100000000202011272020101419900822N0000000000
M001SOLDI PROMOTORA DE VENDAS LTDA     0100006630000880061JESSICA LUISE TEXEIRA DE OLIVEIRA  00JESSICA LUISE TEXEIRA DE OLIVEIRA  LABORATORIO BRONSTEIN              506935709704031627001201127000000000011981600000741580000281972000000000000000000000000000000000000000000000000000000000000000000000000000000000000000000000000000000000000000000900822100000000000003509663         000061486650005061J0000000000000000000000000000CONSULTOR DE VENDAS 20111103TNE100000000202011272020101419900822N0000000000
M001SOLDI PROMOTORA DE VENDAS LTDA     0100006630000880061JESSICA LUISE TEXEIRA DE OLIVEIRA  00JESSICA LUISE TEXEIRA DE OLIVEIRA  LABORATORIO BRONSTEIN              506935709704031652101201127000000000008141600000741580000281972000000000000000000000000000000000000000000000000000000000000000000000000000000000000000000000000000000000000000000900822100000000000002384663         000061486650005061J0000000000000000000000000000CONSULTOR DE VENDAS 20111103TNE100000000202011272020101419900822N0000000000
M001SOLDI PROMOTORA DE VENDAS LTDA     0100006630000880061JESSICA LUISE TEXEIRA DE OLIVEIRA  00JESSICA LUISE TEXEIRA DE OLIVEIRA  LABORATORIO BRONSTEIN              506935709704031657201201127000000000008141600000741580000281972000000000000000000000000000000000000000000000000000000000000000000000000000000000000000000000000000000000000000000900822100000000000002384663         000061486650005061J0000000000000000000000000000CONSULTOR DE VENDAS 20111103TNE100000000202011272020101419900822N0000000000
M001SOLDI PROMOTORA DE VENDAS LTDA     0100006630000880061JESSICA LUISE TEXEIRA DE OLIVEIRA  00JESSICA LUISE TEXEIRA DE OLIVEIRA  LABORATORIO BRONSTEIN              506935709704030115001201127000000000001371600000741580000281972000000000000000000000000000000000000000000000000000000000000000000000000000000000000000000000000000000000000000000900822100000000000000402663         000061486650005061J0000000000000000000000000000CONSULTOR DE VENDAS 20111103TNE100000000202011272020101419900822N0000000000
M001SOLDI PROMOTORA DE VENDAS LTDA     0100006630000880061JESSICA LUISE TEXEIRA DE OLIVEIRA  00JESSICA LUISE TEXEIRA DE OLIVEIRA  LABORATORIO BRONSTEIN              506935709704030159101201127000000000002941600000741580000281972000000000000000000000000000000000000000000000000000000000000000000000000000000000000000000000000000000000000000000900822100000000000000861663         000061486650005061J0000000000000000000000000000CONSULTOR DE VENDAS 20111103TNE100000000202011272020101419900822N0000000000
M001SOLDI PROMOTORA DE VENDAS LTDA     0100006630000880061JESSICA LUISE TEXEIRA DE OLIVEIRA  00JESSICA LUISE TEXEIRA DE OLIVEIRA  LABORATORIO BRONSTEIN              506935709704030108701201127000000000005861600000741580000281972000000000000000000000000000000000000000000000000000000000000000000000000000000000000000000000000000000000000000000900822100000000000001718663         000061486650005061J0000000000000000000000000000CONSULTOR DE VENDAS 20111103TNE100000000202011272020101419900822N0000000000
M001SOLDI PROMOTORA DE VENDAS LTDA     0100006630000880061JESSICA LUISE TEXEIRA DE OLIVEIRA  00JESSICA LUISE TEXEIRA DE OLIVEIRA  LABORATORIO BRONSTEIN              506935709704030160501201127000000000001371600000741580000281972000000000000000000000000000000000000000000000000000000000000000000000000000000000000000000000000000000000000000000900822100000000000000402663         000061486650005061J0000000000000000000000000000CONSULTOR DE VENDAS 20111103TNE100000000202011272020101419900822N0000000000
M001SOLDI PROMOTORA DE VENDAS LTDA     0100006630000880061JESSICA LUISE TEXEIRA DE OLIVEIRA  00JESSICA LUISE TEXEIRA DE OLIVEIRA  LABORATORIO BRONSTEIN              506935709704030158301201127000000000002451600000741580000281972000000000000000000000000000000000000000000000000000000000000000000000000000000000000000000000000000000000000000000900822100000000000000718663         000061486650005061J0000000000000000000000000000CONSULTOR DE VENDAS 20111103TNE100000000202011272020101419900822N0000000000
M001SOLDI PROMOTORA DE VENDAS LTDA     0100007100008800614SOLIMAR EULALIO DA SILVA LOPES     01ERIC EULALIO LOPES                 COORLECE                           206906486483040201801201103000000000011821600000741580000421073000000000000000000000000000000000000000000000000000000000000000000000000000000000000000000000000000000000000000000090303220000000000003462710         010003454941000193J0000000000000000000000000000CONSULTOR DE VENDAS 20121217TNE100000000202011032020080620090303N0000000000
M001SOLDI PROMOTORA DE VENDAS LTDA     0100007100008800614SOLIMAR EULALIO DA SILVA LOPES     00SOLIMAR EULALIO DA SILVA LOPES     COOPEGO                            191171917531010101200201103000000000034151600000741580000633798000000000000000000000000000000000000000000000000000000000000000000000000000000000000000000000000000000000000000000720917200000000000010000710         000041314303000166J0000000000000000000000000000CONSULTOR DE VENDAS 20121217TNE100000000202011032020090919720917N0000000000
M001SOLDI PROMOTORA DE VENDAS LTDA     0100007100008800614SOLIMAR EULALIO DA SILVA LOPES     01ERIC EULALIO LOPES                 COORLECE                           206906486483040201801201103000000000008271600000741580000421073000000000000000000000000000000000000000000000000000000000000000000000000000000000000000000000000000000000000000000090303220000000000002423710         010003454941000193J0000000000000000000000000000CONSULTOR DE VENDAS 20121217TNE100000000202011032020080620090303N0000000000
M001SOLDI PROMOTORA DE VENDAS LTDA     0100007360008800622ROSELENE SANTOS FERREIRA           00ROSELENE SANTOS FERREIRA           IMAGEPAT                           506871387694060126901201130000000000035471600000741580000236276000000000000000000000000000000000000000000000000000000000000000000000000000000000000000000000000000000000000000000820729200000000000010386736         000003983477000122J0000000000000000000000000000CONSULTOR DE VENDAS 20130218TNE100000000202011302020071319820729N0000000000
M001SOLDI PROMOTORA DE VENDAS LTDA     0100007360008800622ROSELENE SANTOS FERREIRA           00ROSELENE SANTOS FERREIRA           IMAGEPAT                           506871387694060119601201130000000000144331600000741580000236276000000000000000000000000000000000000000000000000000000000000000000000000000000000000000000000000000000000000000000820729200000000000042261736         000003983477000122J0000000000000000000000000000CONSULTOR DE VENDAS 20130218TNE100000000202011302020071319820729N0000000000
M001SOLDI PROMOTORA DE VENDAS LTDA     0100007440008800622VALQUIRIA CORREIA MOURA            01NICOLE MOURA BISPO                 AMG                                100194898021010101200201130000000000035521600000741580000638196000000000000000000000000000000000000000000000000000000000000000000000000000000000000000000000000000000000000000000180105220000000000010400744         010006555556000120J0000000000000000000000000000CONSULTOR DE VENDAS 20130218TNE100000000202011302020110920180105N0000000000
M001SOLDI PROMOTORA DE VENDAS LTDA     0100007520008800623CREUZA GONCALVES DOS SANTOS        00CREUZA GONCALVES DOS SANTOS        UNICOOPER                          106927342321010103901201130000000000048391600000741580000594725000000000000000000000000000000000000000000000000000000000000000000000000000000000000000000000000000000000000000000620406200000000000014170752         000003288517000116J0000000000000000000000000000CONSULTOR DE VENDAS 20130304TNE100000000202011302020091219620406N0000000000
M001SOLDI PROMOTORA DE VENDAS LTDA     0100007600008800624OZEAS BEZERRA BARROSO              00OZEAS BEZERRA BARROSO              COOPECARDIO                        606928082634010103701201125000000000050851600000741580000797871000000000000000000000000000000000000000000000000000000000000000000000000000000000000000000000000000000000000000000831228100000000000014890760         000000599741000130J0000000000000000000000000000GERENTE REGIONAL DE 20130304TNQ200000000202011252020091819831228N0000000000
M001SOLDI PROMOTORA DE VENDAS LTDA     0100007950008800629CINTIA ARAUJO SANTANA              00CINTIA ARAUJO SANTANA              HOSPITAL SAO LUCAS                 206913105628400251401201109000000000146850000000741580000039616000000000000000000000000000000000000000000000000000000000000000000000000000000000000000000000000000000000000000000890814200000000000042997795         000013131370000100J0000000000000000000000000000CONSULTOR DE VENDAS 20130506TNE100000000202011092020082119890814N0000000000
M001SOLDI PROMOTORA DE VENDAS LTDA     0100007950008800629CINTIA ARAUJO SANTANA              01DANILO OLIVEIRA SOUZA ARAUJO       CLINICA DE OLHOS OFTCLIN           506925830514130132301201124000000000004311600000741580000454902000000000000000000000000000000000000000000000000000000000000000000000000000000000000000000000000000000000000000000890315110000000000001264795         010014440383000123J0000000000000000000000000000CONSULTOR DE VENDAS 20130506TNE100000000202011242020091119890315N0000000000
M001SOLDI PROMOTORA DE VENDAS LTDA     0100007950008800629CINTIA ARAUJO SANTANA              01DANILO OLIVEIRA SOUZA ARAUJO       CLINICA DE OLHOS OFTCLIN           506925830514130125001201124000000000008631600000741580000454902000000000000000000000000000000000000000000000000000000000000000000000000000000000000000000000000000000000000000000890315110000000000002529795         010014440383000123J0000000000000000000000000000CONSULTOR DE VENDAS 20130506TNE100000000202011242020091119890315N0000000000
M001SOLDI PROMOTORA DE VENDAS LTDA     0100007950008800629CINTIA ARAUJO SANTANA              01DANILO OLIVEIRA SOUZA ARAUJO       CLINICA DE OLHOS OFTCLIN           506925830504130132301201124000000000004311600000741580000454902000000000000000000000000000000000000000000000000000000000000000000000000000000000000000000000000000000000000000000890315110000000000001264795         010014440383000123J0000000000000000000000000000CONSULTOR DE VENDAS 20130506TNE100000000202011242020091119890315N0000000000
M001SOLDI PROMOTORA DE VENDAS LTDA     0100007950008800629CINTIA ARAUJO SANTANA              01DANILO OLIVEIRA SOUZA ARAUJO       HOSPITAL PRIMAVERA                 206928458758400040601201126000000000114210000000741580000290319000000000000000000000000000000000000000000000000000000000000000000000000000000000000000000000000000000000000000000890315110000000000033440795         010013356779000124J0000000000000000000000000000CONSULTOR DE VENDAS 20130506TNE100000000202011262020092119890315N0000000000
M001SOLDI PROMOTORA DE VENDAS LTDA     0100007950008800629CINTIA ARAUJO SANTANA              00CINTIA ARAUJO SANTANA              HOSPITAL PRIMAVERA                 206928458178400040601201126000000000114210000000741580000290319000000000000000000000000000000000000000000000000000000000000000000000000000000000000000000000000000000000000000000890814200000000000033440795         000013356779000124J0000000000000000000000000000CONSULTOR DE VENDAS 20130506TNE100000000202011262020091619890814N0000000000
