HSINISTROS PAGOS074158201220123101000000001000000000000000000000000000000000000000000000000000000000000000000000000000000000000000000000000000000000000000000000000000000000000000000000000000000000000000000000000000000000000000000000000000000000000000000000000000000000000000000000000000000000000000000000000000000000000000000000000000000000000000000000000000000000000000000000000000000000000 012020122020123100000000000000000000000000000000000000000000000000000000000000000000000000000000000000000000
M001SOLDI PROMOTORA DE VENDAS LTDA     0100000190000110157PALOMA TATO RAMOS                  00PALOMA TATO RAMOS                  SEMIU                              10695141046101010390120121700000000003415160000074158000027091100000000000000000000000000000000000000000000000000000000000000000000000000000000000000000000000000000000000000000091032820000000000001000019          000034165969000134J0000000000000000000000000000CONSULTOR DE VENDAS 20110503TNE100000000202012172020102119910328N0000000000
M001SOLDI PROMOTORA DE VENDAS LTDA     0100000190000110157PALOMA TATO RAMOS                  00PALOMA TATO RAMOS                  SEMIU                              20695141046340199920120121700000000000141000000074158000027091100000000000000000000000000000000000000000000000000000000000000000000000000000000000000000000000000000000000000000091032820000000000000041519          000034165969000134J0000000000000000000000000000CONSULTOR DE VENDAS 20110503TNE100000000202012172020102119910328N0000000000
M001SOLDI PROMOTORA DE VENDAS LTDA     0100000190000110157PALOMA TATO RAMOS                  00PALOMA TATO RAMOS                  SEMIU                              20695141046340199950120121700000000000268000000074158000027091100000000000000000000000000000000000000000000000000000000000000000000000000000000000000000000000000000000000000000091032820000000000000078719          000034165969000134J0000000000000000000000000000CONSULTOR DE VENDAS 20110503TNE100000000202012172020102119910328N0000000000
M001SOLDI PROMOTORA DE VENDAS LTDA     0100001320000118002JOSE LEITE RIBEIRO TAVARES         03ILANA DE MEDEIROS TAVARES LEITE    ESPACO INTEGRAR                    206929957208425064001201208000000000014500000000741580000930792000000000000000000000000000000000000000000000000000000000000000000000000000000000000000000000000000000000000000000100615220000000000004246132         030011422364000186J0000000000000000000000000000GERENTE COMERCIAL I 20080218TNQ200000000202012082020090420100615N0000000000
M001SOLDI PROMOTORA DE VENDAS LTDA     0100001320000118002JOSE LEITE RIBEIRO TAVARES         03ILANA DE MEDEIROS TAVARES LEITE    ESPACO INTEGRAR                    206929957218425064001201208000000000014500000000741580000930792000000000000000000000000000000000000000000000000000000000000000000000000000000000000000000000000000000000000000000100615220000000000004246132         030011422364000186J0000000000000000000000000000GERENTE COMERCIAL I 20080218TNQ200000000202012082020091120100615N0000000000
M001SOLDI PROMOTORA DE VENDAS LTDA     0100001320000118002JOSE LEITE RIBEIRO TAVARES         03ILANA DE MEDEIROS TAVARES LEITE    ESPACO INTEGRAR                    206929957228425064001201208000000000014500000000741580000930792000000000000000000000000000000000000000000000000000000000000000000000000000000000000000000000000000000000000000000100615220000000000004246132         030011422364000186J0000000000000000000000000000GERENTE COMERCIAL I 20080218TNQ200000000202012082020091520100615N0000000000
M001SOLDI PROMOTORA DE VENDAS LTDA     0100001320000118002JOSE LEITE RIBEIRO TAVARES         03ILANA DE MEDEIROS TAVARES LEITE    ESPACO INTEGRAR                    206929957238425064001201208000000000014500000000741580000930792000000000000000000000000000000000000000000000000000000000000000000000000000000000000000000000000000000000000000000100615220000000000004246132         030011422364000186J0000000000000000000000000000GERENTE COMERCIAL I 20080218TNQ200000000202012082020092120100615N0000000000
M001SOLDI PROMOTORA DE VENDAS LTDA     0100001320000118002JOSE LEITE RIBEIRO TAVARES         01LUCIDIA DE MEDEIROS TAVARES        COOPECARDIO                        606937798624090110601201209000000000089251600000741580000797871000000000000000000000000000000000000000000000000000000000000000000000000000000000000000000000000000000000000000000710811210000000000026134132         010000599741000130J0000000000000000000000000000GERENTE COMERCIAL I 20080218TNQ200000000202012092020091419710811N0000000000
M001SOLDI PROMOTORA DE VENDAS LTDA     0100001320000118002JOSE LEITE RIBEIRO TAVARES         01LUCIDIA DE MEDEIROS TAVARES        HOSPITAL PORTUGUES                 101274116241010101200201211000000000035521600000741580000772593000000000000000000000000000000000000000000000000000000000000000000000000000000000000000000000000000000000000000000710811210000000000010400132         010010892164000124J0000000000000000000000000000GERENTE COMERCIAL I 20080218TNQ200000000202012112020111719710811N0000000000
M001SOLDI PROMOTORA DE VENDAS LTDA     0100001320000118002JOSE LEITE RIBEIRO TAVARES         00JOSE LEITE RIBEIRO TAVARES         LABORAT MARCELO MAGALHAES          506934153334032478801201214000000000034151600000741580000369233000000000000000000000000000000000000000000000000000000000000000000000000000000000000000000000000000000000000000000710927100000000000010000132         000011696937000160J0000000000000000000000000000GERENTE COMERCIAL I 20080218TNQ200000000202012142020100319710927N0000000000
M001SOLDI PROMOTORA DE VENDAS LTDA     0100001320000118002JOSE LEITE RIBEIRO TAVARES         01LUCIDIA DE MEDEIROS TAVARES        HOSPITAL PORTUGUES                 3   FLT46J00000000100201217000000001443740000000741580000036218000000000011771900000000000000000000000000000000000000000000000000000000000000000266550000000000000000000000000000710811210000000000422717132         010010892164000124J0000000000000000000000000000GERENTE COMERCIAL I 20080218TNQ200000000202012172020100219710811N0000000000
M001SOLDI PROMOTORA DE VENDAS LTDA     0100001320000118002JOSE LEITE RIBEIRO TAVARES         00JOSE LEITE RIBEIRO TAVARES         HOSPITAL PORTUGUES                 206917646868400012001201217000000000080910000000741580000036218000000000000000000000000000000000000000000000000000000000000000000000000000000000000000000000000000000000000000000710927100000000000023690132         000010892164000124J0000000000000000000000000000GERENTE COMERCIAL I 20080218TNQ200000000202012172020091519710927N0000000000
M001SOLDI PROMOTORA DE VENDAS LTDA     0100001320000118002JOSE LEITE RIBEIRO TAVARES         02MATEUS DE MEDEIROS TAVARES LEITE   HOSPITAL PORTUGUES                 506919875324031461801201217000000000092211600000741580000036218000000000000000000000000000000000000000000000000000000000000000000000000000000000000000000000000000000000000000000080324120000000000027000132         020010892164000124J0000000000000000000000000000GERENTE COMERCIAL I 20080218TNQ200000000202012172020092020080324N0000000000
M001SOLDI PROMOTORA DE VENDAS LTDA     0100001320000118002JOSE LEITE RIBEIRO TAVARES         00JOSE LEITE RIBEIRO TAVARES         HOSPITAL PORTUGUES                 206919872568400012001201217000000000080910000000741580000036218000000000000000000000000000000000000000000000000000000000000000000000000000000000000000000000000000000000000000000710927100000000000023690132         000010892164000124J0000000000000000000000000000GERENTE COMERCIAL I 20080218TNQ200000000202012172020092219710927N0000000000
M001SOLDI PROMOTORA DE VENDAS LTDA     0100001320000118002JOSE LEITE RIBEIRO TAVARES         00JOSE LEITE RIBEIRO TAVARES         HOSPITAL PORTUGUES                 206919875068400012001201217000000000080910000000741580000036218000000000000000000000000000000000000000000000000000000000000000000000000000000000000000000000000000000000000000000710927100000000000023690132         000010892164000124J0000000000000000000000000000GERENTE COMERCIAL I 20080218TNQ200000000202012172020092019710927N0000000000
M001SOLDI PROMOTORA DE VENDAS LTDA     0100001320000118002JOSE LEITE RIBEIRO TAVARES         02MATEUS DE MEDEIROS TAVARES LEITE   HOSPITAL PORTUGUES                 206919875328400329401201217000000000084440000000741580000036218000000000000000000000000000000000000000000000000000000000000000000000000000000000000000000000000000000000000000000080324120000000000024725132         020010892164000124J0000000000000000000000000000GERENTE COMERCIAL I 20080218TNQ200000000202012172020092020080324N0000000000
M001SOLDI PROMOTORA DE VENDAS LTDA     0100001320000118002JOSE LEITE RIBEIRO TAVARES         03ILANA DE MEDEIROS TAVARES LEITE    HOSPITAL PORTUGUES                 206625581998400329401201218000000000084440000000741580000036218000000000000000000000000000000000000000000000000000000000000000000000000000000000000000000000000000000000000000000100615220000000000024725132         030010892164000124J0000000000000000000000000000GERENTE COMERCIAL I 20080218TNQ200000000202012182019070420100615N0000000000
M001SOLDI PROMOTORA DE VENDAS LTDA     0100001320000118002JOSE LEITE RIBEIRO TAVARES         00JOSE LEITE RIBEIRO TAVARES         HOSPITAL PORTUGUES                 206932406488400012001201218000000000080910000000741580000036218000000000000000000000000000000000000000000000000000000000000000000000000000000000000000000000000000000000000000000710927100000000000023690132         000010892164000124J0000000000000000000000000000GERENTE COMERCIAL I 20080218TNQ200000000202012182020100219710927N0000000000
M001SOLDI PROMOTORA DE VENDAS LTDA     0100001320000118002JOSE LEITE RIBEIRO TAVARES         01LUCIDIA DE MEDEIROS TAVARES        HOSPITAL PORTUGUES                 206932406478400012001201218000000000080910000000741580000036218010000000000000000000000000000000000000000000000000000000000000000000000000000000000000000000000000000000000000000710811210000000000023690132         010010892164000124J0000000000000000000000000000GERENTE COMERCIAL I 20080218TNQ200000000202012182020100219710811N0000000000
M001SOLDI PROMOTORA DE VENDAS LTDA     0100001320000118002JOSE LEITE RIBEIRO TAVARES         01LUCIDIA DE MEDEIROS TAVARES        HOSPITAL PORTUGUES                 206932405568400012001201218000000000080910000000741580000036218000000000000000000000000000000000000000000000000000000000000000000000000000000000000000000000000000000000000000000710811210000000000023690132         010010892164000124J0000000000000000000000000000GERENTE COMERCIAL I 20080218TNQ200000000202012182020092719710811N0000000000
M001SOLDI PROMOTORA DE VENDAS LTDA     0100001320000118002JOSE LEITE RIBEIRO TAVARES         03ILANA DE MEDEIROS TAVARES LEITE    HOSPITAL PORTUGUES                 206932401518400329401201218000000000084440000000741580000036218000000000000000000000000000000000000000000000000000000000000000000000000000000000000000000000000000000000000000000100615220000000000024725132         030010892164000124J0000000000000000000000000000GERENTE COMERCIAL I 20080218TNQ200000000202012182020100120100615N0000000000
M001SOLDI PROMOTORA DE VENDAS LTDA     0100001320000118002JOSE LEITE RIBEIRO TAVARES         03ILANA DE MEDEIROS TAVARES LEITE    HOSPITAL PORTUGUES                 506932409724031461801201223000000000092211600000741580000036218000000000000000000000000000000000000000000000000000000000000000000000000000000000000000000000000000000000000000000100615220000000000027000132         030010892164000124J0000000000000000000000000000GERENTE COMERCIAL I 20080218TNQ200000000202012232020093020100615N0000000000
M001SOLDI PROMOTORA DE VENDAS LTDA     0100001320000118002JOSE LEITE RIBEIRO TAVARES         03ILANA DE MEDEIROS TAVARES LEITE    HOSPITAL PORTUGUES                 106740541041010103901201224000000000034151600000741580000399702000000000000000000000000000000000000000000000000000000000000000000000000000000000000000000000000000000000000000000100615220000000000010000132         030010892164000205J0000000000000000000000000000GERENTE COMERCIAL I 20080218TNQ200000000202012242019110120100615N0000000000
M001SOLDI PROMOTORA DE VENDAS LTDA     0100001400000118013PALOMA SANTANA TEIXEIRA            01SEVERINO DOS RAMOS BARBOSA LEITE   PRONTO SOC CENTRAL FRATURAS        106957746261010101201201228000000000035521600000741580000429325000000000000000000000000000000000000000000000000000000000000000000000000000000000000000000000000000000000000000000820728110000000000010400140         010008682890000170J0000000000000000000000000000CONSULTOR DE VENDAS 20100413TNE100000000202012282020102819820728N0000000000
M001SOLDI PROMOTORA DE VENDAS LTDA     0100001590000118023THALITA MENDES DE ALMEIDA LIMA     00THALITA MENDES DE ALMEIDA LIMA     SOS OTORRINO                       191379693931010101200201204000000000034151600000741580000405302000000000000000000000000000000000000000000000000000000000000000000000000000000000000000000000000000000000000000000891208200000000000010000159         000010574074000195J0000000000000000000000000000CONSULTOR DE VENDAS 20110110TNE100000000202012042020100519891208N0000000000
M001SOLDI PROMOTORA DE VENDAS LTDA     0100001590000118023THALITA MENDES DE ALMEIDA LIMA     00THALITA MENDES DE ALMEIDA LIMA     LAB ANAL MED M DE ALMEIDA          506940426084030313601201207000000000001171600000741580000127973000000000000000000000000000000000000000000000000000000000000000000000000000000000000000000000000000000000000000000891208200000000000000344159         000024100554000129J0000000000000000000000000000CONSULTOR DE VENDAS 20110110TNE100000000202012072020092819891208N0000000000
M001SOLDI PROMOTORA DE VENDAS LTDA     0100001590000118023THALITA MENDES DE ALMEIDA LIMA     00THALITA MENDES DE ALMEIDA LIMA     LAB ANAL MED M DE ALMEIDA          506940426084031655601201207000000000007851600000741580000127973000000000000000000000000000000000000000000000000000000000000000000000000000000000000000000000000000000000000000000891208200000000000002301159         000024100554000129J0000000000000000000000000000CONSULTOR DE VENDAS 20110110TNE100000000202012072020092819891208N0000000000
M001SOLDI PROMOTORA DE VENDAS LTDA     0100001590000118023THALITA MENDES DE ALMEIDA LIMA     00THALITA MENDES DE ALMEIDA LIMA     LAB ANAL MED M DE ALMEIDA          506940426084031652101201207000000000010261600000741580000127973000000000000000000000000000000000000000000000000000000000000000000000000000000000000000000000000000000000000000000891208200000000000003006159         000024100554000129J0000000000000000000000000000CONSULTOR DE VENDAS 20110110TNE100000000202012072020092819891208N0000000000
M001SOLDI PROMOTORA DE VENDAS LTDA     0100001590000118023THALITA MENDES DE ALMEIDA LIMA     00THALITA MENDES DE ALMEIDA LIMA     LAB ANAL MED M DE ALMEIDA          506940426084030501501201207000000000015951600000741580000127973000000000000000000000000000000000000000000000000000000000000000000000000000000000000000000000000000000000000000000891208200000000000004672159         000024100554000129J0000000000000000000000000000CONSULTOR DE VENDAS 20110110TNE100000000202012072020092819891208N0000000000
M001SOLDI PROMOTORA DE VENDAS LTDA     0100001590000118023THALITA MENDES DE ALMEIDA LIMA     00THALITA MENDES DE ALMEIDA LIMA     LAB ANAL MED M DE ALMEIDA          506940426084030251201201207000000000001691600000741580000127973000000000000000000000000000000000000000000000000000000000000000000000000000000000000000000000000000000000000000000891208200000000000000496159         000024100554000129J0000000000000000000000000000CONSULTOR DE VENDAS 20110110TNE100000000202012072020092819891208N0000000000
M001SOLDI PROMOTORA DE VENDAS LTDA     0100001590000118023THALITA MENDES DE ALMEIDA LIMA     00THALITA MENDES DE ALMEIDA LIMA     LAB ANAL MED M DE ALMEIDA          506940426084030254701201207000000000002411600000741580000127973000000000000000000000000000000000000000000000000000000000000000000000000000000000000000000000000000000000000000000891208200000000000000707159         000024100554000129J0000000000000000000000000000CONSULTOR DE VENDAS 20110110TNE100000000202012072020092819891208N0000000000
M001SOLDI PROMOTORA DE VENDAS LTDA     0100001590000118023THALITA MENDES DE ALMEIDA LIMA     00THALITA MENDES DE ALMEIDA LIMA     LAB ANAL MED M DE ALMEIDA          506940426084030436101201207000000000003621600000741580000127973000000000000000000000000000000000000000000000000000000000000000000000000000000000000000000000000000000000000000000891208200000000000001062159         000024100554000129J0000000000000000000000000000CONSULTOR DE VENDAS 20110110TNE100000000202012072020092819891208N0000000000
M001SOLDI PROMOTORA DE VENDAS LTDA     0100001590000118023THALITA MENDES DE ALMEIDA LIMA     00THALITA MENDES DE ALMEIDA LIMA     LAB ANAL MED M DE ALMEIDA          506940426084030158301201207000000000003021600000741580000127973000000000000000000000000000000000000000000000000000000000000000000000000000000000000000000000000000000000000000000891208200000000000000886159         000024100554000129J0000000000000000000000000000CONSULTOR DE VENDAS 20110110TNE100000000202012072020092819891208N0000000000
M001SOLDI PROMOTORA DE VENDAS LTDA     0100001590000118023THALITA MENDES DE ALMEIDA LIMA     00THALITA MENDES DE ALMEIDA LIMA     LAB ANAL MED M DE ALMEIDA          506940426084031121001201207000000000001691600000741580000127973000000000000000000000000000000000000000000000000000000000000000000000000000000000000000000000000000000000000000000891208200000000000000496159         000024100554000129J0000000000000000000000000000CONSULTOR DE VENDAS 20110110TNE100000000202012072020092819891208N0000000000
M001SOLDI PROMOTORA DE VENDAS LTDA     0100001590000118023THALITA MENDES DE ALMEIDA LIMA     00THALITA MENDES DE ALMEIDA LIMA     LAB ANAL MED M DE ALMEIDA          506940426084030258001201207000000000001691600000741580000127973000000000000000000000000000000000000000000000000000000000000000000000000000000000000000000000000000000000000000000891208200000000000000496159         000024100554000129J0000000000000000000000000000CONSULTOR DE VENDAS 20110110TNE100000000202012072020092819891208N0000000000
M001SOLDI PROMOTORA DE VENDAS LTDA     0100001590000118023THALITA MENDES DE ALMEIDA LIMA     00THALITA MENDES DE ALMEIDA LIMA     LAB ANAL MED M DE ALMEIDA          506940426084030163001201207000000000001691600000741580000127973000000000000000000000000000000000000000000000000000000000000000000000000000000000000000000000000000000000000000000891208200000000000000496159         000024100554000129J0000000000000000000000000000CONSULTOR DE VENDAS 20110110TNE100000000202012072020092819891208N0000000000
M001SOLDI PROMOTORA DE VENDAS LTDA     0100001590000118023THALITA MENDES DE ALMEIDA LIMA     00THALITA MENDES DE ALMEIDA LIMA     LAB ANAL MED M DE ALMEIDA          506940426084030311001201207000000000001691600000741580000127973000000000000000000000000000000000000000000000000000000000000000000000000000000000000000000000000000000000000000000891208200000000000000496159         000024100554000129J0000000000000000000000000000CONSULTOR DE VENDAS 20110110TNE100000000202012072020092819891208N0000000000
M001SOLDI PROMOTORA DE VENDAS LTDA     0100001590000118023THALITA MENDES DE ALMEIDA LIMA     00THALITA MENDES DE ALMEIDA LIMA     LAB ANAL MED M DE ALMEIDA          506940426084030250401201207000000000001691600000741580000127973000000000000000000000000000000000000000000000000000000000000000000000000000000000000000000000000000000000000000000891208200000000000000496159         000024100554000129J0000000000000000000000000000CONSULTOR DE VENDAS 20110110TNE100000000202012072020092819891208N0000000000
M001SOLDI PROMOTORA DE VENDAS LTDA     0100001590000118023THALITA MENDES DE ALMEIDA LIMA     00THALITA MENDES DE ALMEIDA LIMA     LAB ANAL MED M DE ALMEIDA          506940426084030115001201207000000000001691600000741580000127973000000000000000000000000000000000000000000000000000000000000000000000000000000000000000000000000000000000000000000891208200000000000000496159         000024100554000129J0000000000000000000000000000CONSULTOR DE VENDAS 20110110TNE100000000202012072020092819891208N0000000000
M001SOLDI PROMOTORA DE VENDAS LTDA     0100001590000118023THALITA MENDES DE ALMEIDA LIMA     00THALITA MENDES DE ALMEIDA LIMA     LAB ANAL MED M DE ALMEIDA          506940426084030204001201207000000000001691600000741580000127973000000000000000000000000000000000000000000000000000000000000000000000000000000000000000000000000000000000000000000891208200000000000000496159         000024100554000129J0000000000000000000000000000CONSULTOR DE VENDAS 20110110TNE100000000202012072020092819891208N0000000000
M001SOLDI PROMOTORA DE VENDAS LTDA     0100001590000118023THALITA MENDES DE ALMEIDA LIMA     00THALITA MENDES DE ALMEIDA LIMA     LAB ANAL MED M DE ALMEIDA          506940426084030160501201207000000000001691600000741580000127973000000000000000000000000000000000000000000000000000000000000000000000000000000000000000000000000000000000000000000891208200000000000000496159         000024100554000129J0000000000000000000000000000CONSULTOR DE VENDAS 20110110TNE100000000202012072020092819891208N0000000000
M001SOLDI PROMOTORA DE VENDAS LTDA     0100001590000118023THALITA MENDES DE ALMEIDA LIMA     00THALITA MENDES DE ALMEIDA LIMA     LAB ANAL MED M DE ALMEIDA          506940426084031649101201207000000000010261600000741580000127973000000000000000000000000000000000000000000000000000000000000000000000000000000000000000000000000000000000000000000891208200000000000003006159         000024100554000129J0000000000000000000000000000CONSULTOR DE VENDAS 20110110TNE100000000202012072020092819891208N0000000000
M001SOLDI PROMOTORA DE VENDAS LTDA     0100001590000118023THALITA MENDES DE ALMEIDA LIMA     02MARINA MENDES LIMA                 CTO DE TRATAMENTO DA VISAO         101447125321010101200201208000000000034151600000741580000084891000000000000000000000000000000000000000000000000000000000000000000000000000000000000000000000000000000000000000000091216220000000000010000159         020000340386000180J0000000000000000000000000000CONSULTOR DE VENDAS 20110110TNE100000000202012082020110320091216N0000000000
M001SOLDI PROMOTORA DE VENDAS LTDA     0100001590000118023THALITA MENDES DE ALMEIDA LIMA     00THALITA MENDES DE ALMEIDA LIMA     HOSPITAL DAS NEVES                 206951586698400040601201229000000000090170000000741580000432911000000000000000000000000000000000000000000000000000000000000000000000000000000000000000000000000000000000000000000891208200000000000026401159         000001817749000199J0000000000000000000000000000CONSULTOR DE VENDAS 20110110TNE100000000202012292020110619891208N0000000000
M001SOLDI PROMOTORA DE VENDAS LTDA     0100002050000120018ANDREZA SANTOS HUMSI RAYES         00ANDREZA SANTOS HUMSI RAYES         MARCO AURELIO VINHOSA BASTOS JUNIOR106967903450001115001201209000000000051230000000741580016072700000000000000000000000000000000000000000000000000000000000000000000000000000000000000000000000000000000000000000000761030201600000000015000205         000000007960550760F0000000000000000000000000000CONSULTOR DE VENDAS 20100809TNE100000000202012092020111019761030N0000000000
M001SOLDI PROMOTORA DE VENDAS LTDA     0100002050000120018ANDREZA SANTOS HUMSI RAYES         01NICOLE B SANTOS RAYES FRANCISCO    HOSPITAL NOSSO LAR                 106952516661010101201201229000000000034151600000741580000433810000000000000000000000000000000000000000000000000000000000000000000000000000000000000000000000000000000000000000000150427220000000000010000205         010003267101000464J0000000000000000000000000000CONSULTOR DE VENDAS 20100809TNE100000000202012292020101620150427N0000000000
M001SOLDI PROMOTORA DE VENDAS LTDA     0100002640000013086ANTONIA DE SOUSA GOMES FEIJAO      00ANTONIA DE SOUSA GOMES FEIJAO      MONALIZA GOMES DE CARVALHO         191218005391010101200201211000000000035521600000741580038034000000000000000000000000000000000000000000000000000000000000000000000000000000000000000000000000000000000000000000000601013203800000000010400264         000000072921889749F0000000000000000000000000000AUXILIAR DE SERVICOS20100503TNE100000000202012112020111919601013N0000000000
M001SOLDI PROMOTORA DE VENDAS LTDA     0100002640000013086ANTONIA DE SOUSA GOMES FEIJAO      01ANTONIO EGBERTO FEIJAO             HOSPITAL DE OLHOS NITEROI          506948956464150114402201215000000000047431600000741580000194123000000000000000000000000000000000000000000000000000000000000000000000000000000000000000000000000000000000000000000550607110000000000013888264         010039256128000156J0000000000000000000000000000AUXILIAR DE SERVICOS20100503TNE100000000202012152020102219550607N0000000000
M001SOLDI PROMOTORA DE VENDAS LTDA     0100002640000013086ANTONIA DE SOUSA GOMES FEIJAO      01ANTONIO EGBERTO FEIJAO             HOSPITAL DE OLHOS DE NITEROI       506949713614130132301201223000000000004421600000741580000825492000000000000000000000000000000000000000000000000000000000000000000000000000000000000000000000000000000000000000000550607110000000000001296264         010039256128000318J0000000000000000000000000000AUXILIAR DE SERVICOS20100503TNE100000000202012232020110419550607N0000000000
M001SOLDI PROMOTORA DE VENDAS LTDA     0100002640000013086ANTONIA DE SOUSA GOMES FEIJAO      01ANTONIO EGBERTO FEIJAO             HOSPITAL DE OLHOS DE NITEROI       106949713611010101201201223000000000035521600000741580000825492000000000000000000000000000000000000000000000000000000000000000000000000000000000000000000000000000000000000000000550607110000000000010400264         010039256128000318J0000000000000000000000000000AUXILIAR DE SERVICOS20100503TNE100000000202012232020110419550607N0000000000
M001SOLDI PROMOTORA DE VENDAS LTDA     0100002640000013086ANTONIA DE SOUSA GOMES FEIJAO      00ANTONIA DE SOUSA GOMES FEIJAO      CL RADIOL FELICIANO SODRE          506957294054080804101201228000000000059271600000741580000239933000000000000000000000000000000000000000000000000000000000000000000000000000000000000000000000000000000000000000000601013200000000000017354264         000031704596000134J0000000000000000000000000000AUXILIAR DE SERVICOS20100503TNE100000000202012282020102919601013N0000000000
M001SOLDI PROMOTORA DE VENDAS LTDA     0100002640000013086ANTONIA DE SOUSA GOMES FEIJAO      00ANTONIA DE SOUSA GOMES FEIJAO      CL RADIOL FELICIANO SODRE          506957294044090111401201228000000000026091600000741580000239933000000000000000000000000000000000000000000000000000000000000000000000000000000000000000000000000000000000000000000601013200000000000007639264         000031704596000134J0000000000000000000000000000AUXILIAR DE SERVICOS20100503TNE100000000202012282020102919601013N0000000000
M001SOLDI PROMOTORA DE VENDAS LTDA     0100002640000013086ANTONIA DE SOUSA GOMES FEIJAO      00ANTONIA DE SOUSA GOMES FEIJAO      CONLAB SERVICOS MEDICOS            101537014311010101200201229000000000035521600000741580000353329000000000000000000000000000000000000000000000000000000000000000000000000000000000000000000000000000000000000000000601013200000000000010400264         000039185509000191J0000000000000000000000000000AUXILIAR DE SERVICOS20100503TNE100000000202012292020121019601013N0000000000
M001SOLDI PROMOTORA DE VENDAS LTDA     0100002800000013097SAMUEL DE FRANCA PESSOA JUNIOR     00SAMUEL DE FRANCA PESSOA JUNIOR     MARCELO FONSECA ARRAES             106966391781010101201201208000000000035521600000741580035091400000000000000000000000000000000000000000000000000000000000000000000000000000000000000000000000000000000000000000000830427203500000000010400280         000000008910590750F0000000000000000000000000000CONSULTOR DE VENDAS 20110317TNE100000000202012082020111019830427N0000000000
M001SOLDI PROMOTORA DE VENDAS LTDA     0100002800000013097SAMUEL DE FRANCA PESSOA JUNIOR     00SAMUEL DE FRANCA PESSOA JUNIOR     LABORATORIO SERGIO FRANCO          506936699614031628901201217000000000006281600000741580000863670000000000000000000000000000000000000000000000000000000000000000000000000000000000000000000000000000000000000000000830427200000000000001839280         000061486650049867J0000000000000000000000000000CONSULTOR DE VENDAS 20110317TNE100000000202012172020091719830427N0000000000
M001SOLDI PROMOTORA DE VENDAS LTDA     0100002800000013097SAMUEL DE FRANCA PESSOA JUNIOR     00SAMUEL DE FRANCA PESSOA JUNIOR     LABORATORIO SERGIO FRANCO          506936699614030204001201217000000000001351600000741580000863670000000000000000000000000000000000000000000000000000000000000000000000000000000000000000000000000000000000000000000830427200000000000000396280         000061486650049867J0000000000000000000000000000CONSULTOR DE VENDAS 20110317TNE100000000202012172020091719830427N0000000000
M001SOLDI PROMOTORA DE VENDAS LTDA     0100002800000013097SAMUEL DE FRANCA PESSOA JUNIOR     00SAMUEL DE FRANCA PESSOA JUNIOR     LABORATORIO SERGIO FRANCO          506936699614031630001201217000000000013521600000741580000863670000000000000000000000000000000000000000000000000000000000000000000000000000000000000000000000000000000000000000000830427200000000000003959280         000061486650049867J0000000000000000000000000000CONSULTOR DE VENDAS 20110317TNE100000000202012172020091719830427N0000000000
M001SOLDI PROMOTORA DE VENDAS LTDA     0100002800000013097SAMUEL DE FRANCA PESSOA JUNIOR     00SAMUEL DE FRANCA PESSOA JUNIOR     LABORATORIO SERGIO FRANCO          506936699614031633501201217000000000006281600000741580000863670000000000000000000000000000000000000000000000000000000000000000000000000000000000000000000000000000000000000000000830427200000000000001839280         000061486650049867J0000000000000000000000000000CONSULTOR DE VENDAS 20110317TNE100000000202012172020091719830427N0000000000
M001SOLDI PROMOTORA DE VENDAS LTDA     0100002800000013097SAMUEL DE FRANCA PESSOA JUNIOR     00SAMUEL DE FRANCA PESSOA JUNIOR     LABORATORIO SERGIO FRANCO          506936699614031650501201217000000000014481600000741580000863670000000000000000000000000000000000000000000000000000000000000000000000000000000000000000000000000000000000000000000830427200000000000004241280         000061486650049867J0000000000000000000000000000CONSULTOR DE VENDAS 20110317TNE100000000202012172020091719830427N0000000000
M001SOLDI PROMOTORA DE VENDAS LTDA     0100002800000013097SAMUEL DE FRANCA PESSOA JUNIOR     00SAMUEL DE FRANCA PESSOA JUNIOR     LABORATORIO SERGIO FRANCO          506936699614031651301201217000000000010131600000741580000863670000000000000000000000000000000000000000000000000000000000000000000000000000000000000000000000000000000000000000000830427200000000000002968280         000061486650049867J0000000000000000000000000000CONSULTOR DE VENDAS 20110317TNE100000000202012172020091719830427N0000000000
M001SOLDI PROMOTORA DE VENDAS LTDA     0100002800000013097SAMUEL DE FRANCA PESSOA JUNIOR     00SAMUEL DE FRANCA PESSOA JUNIOR     LABORATORIO SERGIO FRANCO          506936699614031652101201217000000000008201600000741580000863670000000000000000000000000000000000000000000000000000000000000000000000000000000000000000000000000000000000000000000830427200000000000002402280         000061486650049867J0000000000000000000000000000CONSULTOR DE VENDAS 20110317TNE100000000202012172020091719830427N0000000000
M001SOLDI PROMOTORA DE VENDAS LTDA     0100002800000013097SAMUEL DE FRANCA PESSOA JUNIOR     00SAMUEL DE FRANCA PESSOA JUNIOR     LABORATORIO SERGIO FRANCO          506936699614030275001201217000000000006751600000741580000863670000000000000000000000000000000000000000000000000000000000000000000000000000000000000000000000000000000000000000000830427200000000000001978280         000061486650049867J0000000000000000000000000000CONSULTOR DE VENDAS 20110317TNE100000000202012172020091719830427N0000000000
M001SOLDI PROMOTORA DE VENDAS LTDA     0100002800000013097SAMUEL DE FRANCA PESSOA JUNIOR     00SAMUEL DE FRANCA PESSOA JUNIOR     LABORATORIO SERGIO FRANCO          506936699614030163001201217000000000001351600000741580000863670000000000000000000000000000000000000000000000000000000000000000000000000000000000000000000000000000000000000000000830427200000000000000396280         000061486650049867J0000000000000000000000000000CONSULTOR DE VENDAS 20110317TNE100000000202012172020091719830427N0000000000
M001SOLDI PROMOTORA DE VENDAS LTDA     0100002800000013097SAMUEL DE FRANCA PESSOA JUNIOR     00SAMUEL DE FRANCA PESSOA JUNIOR     LABORATORIO SERGIO FRANCO          506936699614030238501201217000000000001451600000741580000863670000000000000000000000000000000000000000000000000000000000000000000000000000000000000000000000000000000000000000000830427200000000000000425280         000061486650049867J0000000000000000000000000000CONSULTOR DE VENDAS 20110317TNE100000000202012172020091719830427N0000000000
M001SOLDI PROMOTORA DE VENDAS LTDA     0100002800000013097SAMUEL DE FRANCA PESSOA JUNIOR     00SAMUEL DE FRANCA PESSOA JUNIOR     LABORATORIO SERGIO FRANCO          506936699614031641601201217000000000008201600000741580000863670000000000000000000000000000000000000000000000000000000000000000000000000000000000000000000000000000000000000000000830427200000000000002402280         000061486650049867J0000000000000000000000000000CONSULTOR DE VENDAS 20110317TNE100000000202012172020091719830427N0000000000
M001SOLDI PROMOTORA DE VENDAS LTDA     0100002800000013097SAMUEL DE FRANCA PESSOA JUNIOR     00SAMUEL DE FRANCA PESSOA JUNIOR     LABORATORIO SERGIO FRANCO          506936699614031649101201217000000000008201600000741580000863670000000000000000000000000000000000000000000000000000000000000000000000000000000000000000000000000000000000000000000830427200000000000002402280         000061486650049867J0000000000000000000000000000CONSULTOR DE VENDAS 20110317TNE100000000202012172020091719830427N0000000000
M001SOLDI PROMOTORA DE VENDAS LTDA     0100002800000013097SAMUEL DE FRANCA PESSOA JUNIOR     00SAMUEL DE FRANCA PESSOA JUNIOR     LABORATORIO SERGIO FRANCO          506936699614030273301201217000000000011111600000741580000863670000000000000000000000000000000000000000000000000000000000000000000000000000000000000000000000000000000000000000000830427200000000000003255280         000061486650049867J0000000000000000000000000000CONSULTOR DE VENDAS 20110317TNE100000000202012172020091719830427N0000000000
M001SOLDI PROMOTORA DE VENDAS LTDA     0100002800000013097SAMUEL DE FRANCA PESSOA JUNIOR     00SAMUEL DE FRANCA PESSOA JUNIOR     LABORATORIO SERGIO FRANCO          506936699614030283001201217000000000023481600000741580000863670000000000000000000000000000000000000000000000000000000000000000000000000000000000000000000000000000000000000000000830427200000000000006875280         000061486650049867J0000000000000000000000000000CONSULTOR DE VENDAS 20110317TNE100000000202012172020091719830427N0000000000
M001SOLDI PROMOTORA DE VENDAS LTDA     0100002800000013097SAMUEL DE FRANCA PESSOA JUNIOR     00SAMUEL DE FRANCA PESSOA JUNIOR     LABORATORIO SERGIO FRANCO          506936699614030436101201217000000000002891600000741580000863670000000000000000000000000000000000000000000000000000000000000000000000000000000000000000000000000000000000000000000830427200000000000000849280         000061486650049867J0000000000000000000000000000CONSULTOR DE VENDAS 20110317TNE100000000202012172020091719830427N0000000000
M001SOLDI PROMOTORA DE VENDAS LTDA     0100002800000013097SAMUEL DE FRANCA PESSOA JUNIOR     00SAMUEL DE FRANCA PESSOA JUNIOR     LABORATORIO SERGIO FRANCO          506936699614030726308201217000000000054041600000741580000863670000000000000000000000000000000000000000000000000000000000000000000000000000000000000000000000000000000000000000000830427200000000000015824280         000061486650049867J0000000000000000000000000000CONSULTOR DE VENDAS 20110317TNE100000000202012172020091719830427N0000000000
M001SOLDI PROMOTORA DE VENDAS LTDA     0100002800000013097SAMUEL DE FRANCA PESSOA JUNIOR     00SAMUEL DE FRANCA PESSOA JUNIOR     LABORATORIO SERGIO FRANCO          506936699614030727101201217000000000003861600000741580000863670000000000000000000000000000000000000000000000000000000000000000000000000000000000000000000000000000000000000000000830427200000000000001131280         000061486650049867J0000000000000000000000000000CONSULTOR DE VENDAS 20110317TNE100000000202012172020091719830427N0000000000
M001SOLDI PROMOTORA DE VENDAS LTDA     0100002800000013097SAMUEL DE FRANCA PESSOA JUNIOR     00SAMUEL DE FRANCA PESSOA JUNIOR     LABORATORIO SERGIO FRANCO          506936699614031614901201217000000000014481600000741580000863670000000000000000000000000000000000000000000000000000000000000000000000000000000000000000000000000000000000000000000830427200000000000004241280         000061486650049867J0000000000000000000000000000CONSULTOR DE VENDAS 20110317TNE100000000202012172020091719830427N0000000000
M001SOLDI PROMOTORA DE VENDAS LTDA     0100003020000133127ANA PAULA RODRIGUES BRAGA RAMALHO  01MATEUS LEVI RAMALHO DE OLIVEIRA    ROBERTO CESAR DA PENHA PACHECO     506969710224140136001201210000000000006451600000741580001003800000000000000000000000000000000000000000000000000000000000000000000000000000000000000000000000000000000000000000000160410120100000000001889302         010000063488990478F0000000000000000000000000000CONSULTOR DE VENDAS 20100601TNE100000000202012102020112720160410N0000000000
M001SOLDI PROMOTORA DE VENDAS LTDA     0100003020000133127ANA PAULA RODRIGUES BRAGA RAMALHO  01MATEUS LEVI RAMALHO DE OLIVEIRA    ROBERTO CESAR DA PENHA PACHECO     506969710224140138701201210000000000006451600000741580001003800000000000000000000000000000000000000000000000000000000000000000000000000000000000000000000000000000000000000000000160410120100000000001889302         010000063488990478F0000000000000000000000000000CONSULTOR DE VENDAS 20100601TNE100000000202012102020112720160410N0000000000
M001SOLDI PROMOTORA DE VENDAS LTDA     0100003020000133127ANA PAULA RODRIGUES BRAGA RAMALHO  01MATEUS LEVI RAMALHO DE OLIVEIRA    ROBERTO CESAR DA PENHA PACHECO     506969710224140144101201210000000000016071600000741580001003800000000000000000000000000000000000000000000000000000000000000000000000000000000000000000000000000000000000000000000160410120100000000004708302         010000063488990478F0000000000000000000000000000CONSULTOR DE VENDAS 20100601TNE100000000202012102020112720160410N0000000000
M001SOLDI PROMOTORA DE VENDAS LTDA     0100003020000133127ANA PAULA RODRIGUES BRAGA RAMALHO  01MATEUS LEVI RAMALHO DE OLIVEIRA    ROBERTO CESAR DA PENHA PACHECO     191510386221010101200201211000000000026641600000741580001003800000000000000000000000000000000000000000000000000000000000000000000000000000000000000000000000000000000000000000000160410120100000000007800302         010000063488990478F0000000000000000000000000000CONSULTOR DE VENDAS 20100601TNE100000000202012112020112720160410N0000000000
M001SOLDI PROMOTORA DE VENDAS LTDA     0100003020000133127ANA PAULA RODRIGUES BRAGA RAMALHO  00ANA PAULA RODRIGUES BRAGA RAMALHO  CLINICA MATERNA                    506953579164060113701201229000000000012541600000741580000850470000000000000000000000000000000000000000000000000000000000000000000000000000000000000000000000000000000000000000000880812200000000000003674302         000040794018000127J0000000000000000000000000000CONSULTOR DE VENDAS 20100601TNE100000000202012292020101519880812N0000000000
M001SOLDI PROMOTORA DE VENDAS LTDA     0100003100000133146MARIA BETANIA SILVA DA TRINDADE    00MARIA BETANIA SILVA DA TRINDADE    UNILAB                             506951614674030275001201217000000000008191600000741580000453471000000000000000000000000000000000000000000000000000000000000000000000000000000000000000000000000000000000000000000770921200000000000002399310         000035742394000219J0000000000000000000000000000CONSULTOR DE VENDAS 20110601TNE100000000202012172020102419770921N0000000000
M001SOLDI PROMOTORA DE VENDAS LTDA     0100003100000133146MARIA BETANIA SILVA DA TRINDADE    00MARIA BETANIA SILVA DA TRINDADE    UNILAB                             506951614674030283001201217000000000012091600000741580000453471000000000000000000000000000000000000000000000000000000000000000000000000000000000000000000000000000000000000000000770921200000000000003540310         000035742394000219J0000000000000000000000000000CONSULTOR DE VENDAS 20110601TNE100000000202012172020102419770921N0000000000
M001SOLDI PROMOTORA DE VENDAS LTDA     0100003100000133146MARIA BETANIA SILVA DA TRINDADE    00MARIA BETANIA SILVA DA TRINDADE    UNILAB                             506951614674030204001201217000000000001631600000741580000453471000000000000000000000000000000000000000000000000000000000000000000000000000000000000000000000000000000000000000000770921200000000000000480310         000035742394000219J0000000000000000000000000000CONSULTOR DE VENDAS 20110601TNE100000000202012172020102419770921N0000000000
M001SOLDI PROMOTORA DE VENDAS LTDA     0100003100000133146MARIA BETANIA SILVA DA TRINDADE    00MARIA BETANIA SILVA DA TRINDADE    UNILAB                             506951614674030273301201217000000000013911600000741580000453471000000000000000000000000000000000000000000000000000000000000000000000000000000000000000000000000000000000000000000770921200000000000004073310         000035742394000219J0000000000000000000000000000CONSULTOR DE VENDAS 20110601TNE100000000202012172020102419770921N0000000000
M001SOLDI PROMOTORA DE VENDAS LTDA     0100003100000133146MARIA BETANIA SILVA DA TRINDADE    01MURILO GABRIEL TRINDADE TENORIO    UNILAB                             506951614644030436101201223000000000003511600000741580000453471000000000000000000000000000000000000000000000000000000000000000000000000000000000000000000000000000000000000000000120518120000000000001029310         010035742394000219J0000000000000000000000000000CONSULTOR DE VENDAS 20110601TNE100000000202012232020102420120518N0000000000
M001SOLDI PROMOTORA DE VENDAS LTDA     0100003100000133146MARIA BETANIA SILVA DA TRINDADE    00MARIA BETANIA SILVA DA TRINDADE    UNILAB                             506951614664030726301201223000000000008191600000741580000453471000000000000000000000000000000000000000000000000000000000000000000000000000000000000000000000000000000000000000000770921200000000000002399310         000035742394000219J0000000000000000000000000000CONSULTOR DE VENDAS 20110601TNE100000000202012232020102419770921N0000000000
M001SOLDI PROMOTORA DE VENDAS LTDA     0100003100000133146MARIA BETANIA SILVA DA TRINDADE    01MURILO GABRIEL TRINDADE TENORIO    UNILAB                             606951614644031634301201223000000000007991600000741580000453471000000000000000000000000000000000000000000000000000000000000000000000000000000000000000000000000000000000000000000120518120000000000002342310         010035742394000219J0000000000000000000000000000CONSULTOR DE VENDAS 20110601TNE100000000202012232020102420120518N0000000000
M001SOLDI PROMOTORA DE VENDAS LTDA     0100003100000133146MARIA BETANIA SILVA DA TRINDADE    01MURILO GABRIEL TRINDADE TENORIO    UNILAB                             506951614644030726301201223000000000008191600000741580000453471000000000000000000000000000000000000000000000000000000000000000000000000000000000000000000000000000000000000000000120518120000000000002399310         010035742394000219J0000000000000000000000000000CONSULTOR DE VENDAS 20110601TNE100000000202012232020102420120518N0000000000
M001SOLDI PROMOTORA DE VENDAS LTDA     0100003100000133146MARIA BETANIA SILVA DA TRINDADE    00MARIA BETANIA SILVA DA TRINDADE    UNILAB                             606951614664031634301201223000000000007991600000741580000453471000000000000000000000000000000000000000000000000000000000000000000000000000000000000000000000000000000000000000000770921200000000000002342310         000035742394000219J0000000000000000000000000000CONSULTOR DE VENDAS 20110601TNE100000000202012232020102419770921N0000000000
M001SOLDI PROMOTORA DE VENDAS LTDA     0100003100000133146MARIA BETANIA SILVA DA TRINDADE    00MARIA BETANIA SILVA DA TRINDADE    UNILAB                             506951614664030436101201223000000000003511600000741580000453471000000000000000000000000000000000000000000000000000000000000000000000000000000000000000000000000000000000000000000770921200000000000001029310         000035742394000219J0000000000000000000000000000CONSULTOR DE VENDAS 20110601TNE100000000202012232020102419770921N0000000000
M001SOLDI PROMOTORA DE VENDAS LTDA     0100003100000133146MARIA BETANIA SILVA DA TRINDADE    00MARIA BETANIA SILVA DA TRINDADE    COOPHAIA                           101463097451010101200201229000000000037651600000741580000075698000000000000000000000000000000000000000000000000000000000000000000000000000000000000000000000000000000000000000000770921200000000000011025310         000002042694000155J0000000000000000000000000000CONSULTOR DE VENDAS 20110601TNE100000000202012292020111019770921N0000000000
M001SOLDI PROMOTORA DE VENDAS LTDA     0100003100000133146MARIA BETANIA SILVA DA TRINDADE    01MURILO GABRIEL TRINDADE TENORIO    COOPHAIA                           101463101541010101200201229000000000037651600000741580000075698000000000000000000000000000000000000000000000000000000000000000000000000000000000000000000000000000000000000000000120518120000000000011025310         010002042694000155J0000000000000000000000000000CONSULTOR DE VENDAS 20110601TNE100000000202012292020111020120518N0000000000
M001SOLDI PROMOTORA DE VENDAS LTDA     0100003290000133158CARLA C GUILHERME SILVA MARQUES    00CARLA C GUILHERME SILVA MARQUES    FISIOTERAVIDA                      100195240671010101200201203000000000034151600000741580000878693000000000000000000000000000000000000000000000000000000000000000000000000000000000000000000000000000000000000000000860103200000000000010000329         000005246196000112J0000000000000000000000000000CONSULTOR DE VENDAS 20110701TNE100000000202012032020111219860103N0000000000
M001SOLDI PROMOTORA DE VENDAS LTDA     0100003290000133158CARLA C GUILHERME SILVA MARQUES    03LAVINIA ISABELE GUILHERME MARQUES  FISIOTERAVIDA                      206937615545000047001201208000000000014501600000741580000878693000000000000000000000000000000000000000000000000000000000000000000000000000000000000000000000000000000000000000000140221220000000000004246329         030005246196000112J0000000000000000000000000000CONSULTOR DE VENDAS 20110701TNE100000000202012082020100120140221N0000000000
M001SOLDI PROMOTORA DE VENDAS LTDA     0100003290000133158CARLA C GUILHERME SILVA MARQUES    03LAVINIA ISABELE GUILHERME MARQUES  FISIOTERAVIDA                      206937615545000047001201208000000000014501600000741580000878693000000000000000000000000000000000000000000000000000000000000000000000000000000000000000000000000000000000000000000140221220000000000004246329         030005246196000112J0000000000000000000000000000CONSULTOR DE VENDAS 20110701TNE100000000202012082020100120140221N0000000000
M001SOLDI PROMOTORA DE VENDAS LTDA     0100003290000133158CARLA C GUILHERME SILVA MARQUES    03LAVINIA ISABELE GUILHERME MARQUES  FISIOTERAVIDA                      206937615545000047001201208000000000014501600000741580000878693000000000000000000000000000000000000000000000000000000000000000000000000000000000000000000000000000000000000000000140221220000000000004246329         030005246196000112J0000000000000000000000000000CONSULTOR DE VENDAS 20110701TNE100000000202012082020100120140221N0000000000
M001SOLDI PROMOTORA DE VENDAS LTDA     0100003290000133158CARLA C GUILHERME SILVA MARQUES    03LAVINIA ISABELE GUILHERME MARQUES  FISIOTERAVIDA                      206937615545000047001201208000000000014501600000741580000878693000000000000000000000000000000000000000000000000000000000000000000000000000000000000000000000000000000000000000000140221220000000000004246329         030005246196000112J0000000000000000000000000000CONSULTOR DE VENDAS 20110701TNE100000000202012082020100120140221N0000000000
M001SOLDI PROMOTORA DE VENDAS LTDA     0100003290000133158CARLA C GUILHERME SILVA MARQUES    02LIVIA MARINA GUILHERME MARQUES     FISIOTERAVIDA                      206937615555000047001201208000000000014501600000741580000878693000000000000000000000000000000000000000000000000000000000000000000000000000000000000000000000000000000000000000000140221220000000000004246329         020005246196000112J0000000000000000000000000000CONSULTOR DE VENDAS 20110701TNE100000000202012082020100120140221N0000000000
M001SOLDI PROMOTORA DE VENDAS LTDA     0100003290000133158CARLA C GUILHERME SILVA MARQUES    02LIVIA MARINA GUILHERME MARQUES     FISIOTERAVIDA                      206937615555000047001201208000000000014501600000741580000878693000000000000000000000000000000000000000000000000000000000000000000000000000000000000000000000000000000000000000000140221220000000000004246329         020005246196000112J0000000000000000000000000000CONSULTOR DE VENDAS 20110701TNE100000000202012082020100120140221N0000000000
M001SOLDI PROMOTORA DE VENDAS LTDA     0100003290000133158CARLA C GUILHERME SILVA MARQUES    02LIVIA MARINA GUILHERME MARQUES     FISIOTERAVIDA                      206937615555000047001201208000000000014501600000741580000878693000000000000000000000000000000000000000000000000000000000000000000000000000000000000000000000000000000000000000000140221220000000000004246329         020005246196000112J0000000000000000000000000000CONSULTOR DE VENDAS 20110701TNE100000000202012082020100120140221N0000000000
M001SOLDI PROMOTORA DE VENDAS LTDA     0100003290000133158CARLA C GUILHERME SILVA MARQUES    02LIVIA MARINA GUILHERME MARQUES     FISIOTERAVIDA                      206937615555000047001201208000000000014501600000741580000878693000000000000000000000000000000000000000000000000000000000000000000000000000000000000000000000000000000000000000000140221220000000000004246329         020005246196000112J0000000000000000000000000000CONSULTOR DE VENDAS 20110701TNE100000000202012082020100120140221N0000000000
M001SOLDI PROMOTORA DE VENDAS LTDA     0100003290000133158CARLA C GUILHERME SILVA MARQUES    00CARLA C GUILHERME SILVA MARQUES    FISIOTERAVIDA                      206941836585000047001201215000000000014501600000741580000878693000000000000000000000000000000000000000000000000000000000000000000000000000000000000000000000000000000000000000000860103200000000000004246329         000005246196000112J0000000000000000000000000000CONSULTOR DE VENDAS 20110701TNE100000000202012152020100819860103N0000000000
M001SOLDI PROMOTORA DE VENDAS LTDA     0100003290000133158CARLA C GUILHERME SILVA MARQUES    00CARLA C GUILHERME SILVA MARQUES    FISIOTERAVIDA                      206941836585000047001201215000000000014501600000741580000878693000000000000000000000000000000000000000000000000000000000000000000000000000000000000000000000000000000000000000000860103200000000000004246329         000005246196000112J0000000000000000000000000000CONSULTOR DE VENDAS 20110701TNE100000000202012152020100819860103N0000000000
M001SOLDI PROMOTORA DE VENDAS LTDA     0100003290000133158CARLA C GUILHERME SILVA MARQUES    00CARLA C GUILHERME SILVA MARQUES    FISIOTERAVIDA                      206941836585000047001201215000000000014501600000741580000878693000000000000000000000000000000000000000000000000000000000000000000000000000000000000000000000000000000000000000000860103200000000000004246329         000005246196000112J0000000000000000000000000000CONSULTOR DE VENDAS 20110701TNE100000000202012152020100819860103N0000000000
M001SOLDI PROMOTORA DE VENDAS LTDA     0100003290000133158CARLA C GUILHERME SILVA MARQUES    00CARLA C GUILHERME SILVA MARQUES    FISIOTERAVIDA                      206941836585000047001201215000000000014501600000741580000878693000000000000000000000000000000000000000000000000000000000000000000000000000000000000000000000000000000000000000000860103200000000000004246329         000005246196000112J0000000000000000000000000000CONSULTOR DE VENDAS 20110701TNE100000000202012152020100819860103N0000000000
M001SOLDI PROMOTORA DE VENDAS LTDA     0100003290000133158CARLA C GUILHERME SILVA MARQUES    00CARLA C GUILHERME SILVA MARQUES    FISIOTERAVIDA                      206941836585000047001201215000000000014501600000741580000878693000000000000000000000000000000000000000000000000000000000000000000000000000000000000000000000000000000000000000000860103200000000000004246329         000005246196000112J0000000000000000000000000000CONSULTOR DE VENDAS 20110701TNE100000000202012152020100819860103N0000000000
M001SOLDI PROMOTORA DE VENDAS LTDA     0100003290000133158CARLA C GUILHERME SILVA MARQUES    02LIVIA MARINA GUILHERME MARQUES     HOSP MEMORIAL ARTHUR RAMOS         206944330203401999501201217000000000025320000000741580000047619000000000000000000000000000000000000000000000000000000000000000000000000000000000000000000000000000000000000000000140221220000000000007415329         020001722424000122J0000000000000000000000000000CONSULTOR DE VENDAS 20110701TNE100000000202012172020100120140221N0000000000
M001SOLDI PROMOTORA DE VENDAS LTDA     0100003290000133158CARLA C GUILHERME SILVA MARQUES    02LIVIA MARINA GUILHERME MARQUES     HOSP MEMORIAL ARTHUR RAMOS         206944330203401999101201217000000000029490000000741580000047619000000000000000000000000000000000000000000000000000000000000000000000000000000000000000000000000000000000000000000140221220000000000008636329         020001722424000122J0000000000000000000000000000CONSULTOR DE VENDAS 20110701TNE100000000202012172020100120140221N0000000000
M001SOLDI PROMOTORA DE VENDAS LTDA     0100003290000133158CARLA C GUILHERME SILVA MARQUES    02LIVIA MARINA GUILHERME MARQUES     HOSP MEMORIAL ARTHUR RAMOS         206944330203401999201201217000000000004290000000741580000047619000000000000000000000000000000000000000000000000000000000000000000000000000000000000000000000000000000000000000000140221220000000000001259329         020001722424000122J0000000000000000000000000000CONSULTOR DE VENDAS 20110701TNE100000000202012172020100120140221N0000000000
M001SOLDI PROMOTORA DE VENDAS LTDA     0100003290000133158CARLA C GUILHERME SILVA MARQUES    03LAVINIA ISABELE GUILHERME MARQUES  MEDICOR                            506952639334030436101201218000000000003621600000741580000561339000000000000000000000000000000000000000000000000000000000000000000000000000000000000000000000000000000000000000000140221220000000000001062329         030024318149000181J0000000000000000000000000000CONSULTOR DE VENDAS 20110701TNE100000000202012182020110620140221N0000000000
M001SOLDI PROMOTORA DE VENDAS LTDA     0100003290000133158CARLA C GUILHERME SILVA MARQUES    03LAVINIA ISABELE GUILHERME MARQUES  MEDICOR                            506952639334030283001201218000000000009791600000741580000561339000000000000000000000000000000000000000000000000000000000000000000000000000000000000000000000000000000000000000000140221220000000000002867329         030024318149000181J0000000000000000000000000000CONSULTOR DE VENDAS 20110701TNE100000000202012182020110620140221N0000000000
M001SOLDI PROMOTORA DE VENDAS LTDA     0100003290000133158CARLA C GUILHERME SILVA MARQUES    03LAVINIA ISABELE GUILHERME MARQUES  MEDICOR                            506952639334030184201201218000000000002171600000741580000561339000000000000000000000000000000000000000000000000000000000000000000000000000000000000000000000000000000000000000000140221220000000000000638329         030024318149000181J0000000000000000000000000000CONSULTOR DE VENDAS 20110701TNE100000000202012182020110620140221N0000000000
M001SOLDI PROMOTORA DE VENDAS LTDA     0100003290000133158CARLA C GUILHERME SILVA MARQUES    03LAVINIA ISABELE GUILHERME MARQUES  MEDICOR                            506952639334031627001201218000000000015101600000741580000561339000000000000000000000000000000000000000000000000000000000000000000000000000000000000000000000000000000000000000000140221220000000000004424329         030024318149000181J0000000000000000000000000000CONSULTOR DE VENDAS 20110701TNE100000000202012182020110620140221N0000000000
M001SOLDI PROMOTORA DE VENDAS LTDA     0100003290000133158CARLA C GUILHERME SILVA MARQUES    03LAVINIA ISABELE GUILHERME MARQUES  MEDICOR                            506952639334030311001201218000000000001691600000741580000561339000000000000000000000000000000000000000000000000000000000000000000000000000000000000000000000000000000000000000000140221220000000000000496329         030024318149000181J0000000000000000000000000000CONSULTOR DE VENDAS 20110701TNE100000000202012182020110620140221N0000000000
M001SOLDI PROMOTORA DE VENDAS LTDA     0100003290000133158CARLA C GUILHERME SILVA MARQUES    02LIVIA MARINA GUILHERME MARQUES     MEDICOR                            506952639234030436101201218000000000003621600000741580000561339000000000000000000000000000000000000000000000000000000000000000000000000000000000000000000000000000000000000000000140221220000000000001062329         020024318149000181J0000000000000000000000000000CONSULTOR DE VENDAS 20110701TNE100000000202012182020110620140221N0000000000
M001SOLDI PROMOTORA DE VENDAS LTDA     0100003290000133158CARLA C GUILHERME SILVA MARQUES    03LAVINIA ISABELE GUILHERME MARQUES  MEDICOR                            506952639334031121001201218000000000001691600000741580000561339000000000000000000000000000000000000000000000000000000000000000000000000000000000000000000000000000000000000000000140221220000000000000496329         030024318149000181J0000000000000000000000000000CONSULTOR DE VENDAS 20110701TNE100000000202012182020110620140221N0000000000
M001SOLDI PROMOTORA DE VENDAS LTDA     0100003290000133158CARLA C GUILHERME SILVA MARQUES    03LAVINIA ISABELE GUILHERME MARQUES  MEDICOR                            506952639334030275001201218000000000008451600000741580000561339000000000000000000000000000000000000000000000000000000000000000000000000000000000000000000000000000000000000000000140221220000000000002475329         030024318149000181J0000000000000000000000000000CONSULTOR DE VENDAS 20110701TNE100000000202012182020110620140221N0000000000
M001SOLDI PROMOTORA DE VENDAS LTDA     0100003290000133158CARLA C GUILHERME SILVA MARQUES    03LAVINIA ISABELE GUILHERME MARQUES  MEDICOR                            506952639334030204001201218000000000001691600000741580000561339000000000000000000000000000000000000000000000000000000000000000000000000000000000000000000000000000000000000000000140221220000000000000496329         030024318149000181J0000000000000000000000000000CONSULTOR DE VENDAS 20110701TNE100000000202012182020110620140221N0000000000
M001SOLDI PROMOTORA DE VENDAS LTDA     0100003290000133158CARLA C GUILHERME SILVA MARQUES    03LAVINIA ISABELE GUILHERME MARQUES  MEDICOR                            506952639334030250401201218000000000001691600000741580000561339000000000000000000000000000000000000000000000000000000000000000000000000000000000000000000000000000000000000000000140221220000000000000496329         030024318149000181J0000000000000000000000000000CONSULTOR DE VENDAS 20110701TNE100000000202012182020110620140221N0000000000
M001SOLDI PROMOTORA DE VENDAS LTDA     0100003290000133158CARLA C GUILHERME SILVA MARQUES    03LAVINIA ISABELE GUILHERME MARQUES  MEDICOR                            506952639334030251201201218000000000001691600000741580000561339000000000000000000000000000000000000000000000000000000000000000000000000000000000000000000000000000000000000000000140221220000000000000496329         030024318149000181J0000000000000000000000000000CONSULTOR DE VENDAS 20110701TNE100000000202012182020110620140221N0000000000
M001SOLDI PROMOTORA DE VENDAS LTDA     0100003290000133158CARLA C GUILHERME SILVA MARQUES    03LAVINIA ISABELE GUILHERME MARQUES  MEDICOR                            506952639334030199001201218000000000002411600000741580000561339000000000000000000000000000000000000000000000000000000000000000000000000000000000000000000000000000000000000000000140221220000000000000707329         030024318149000181J0000000000000000000000000000CONSULTOR DE VENDAS 20110701TNE100000000202012182020110620140221N0000000000
M001SOLDI PROMOTORA DE VENDAS LTDA     0100003290000133158CARLA C GUILHERME SILVA MARQUES    03LAVINIA ISABELE GUILHERME MARQUES  MEDICOR                            506952639334030115001201218000000000001691600000741580000561339000000000000000000000000000000000000000000000000000000000000000000000000000000000000000000000000000000000000000000140221220000000000000496329         030024318149000181J0000000000000000000000000000CONSULTOR DE VENDAS 20110701TNE100000000202012182020110620140221N0000000000
M001SOLDI PROMOTORA DE VENDAS LTDA     0100003290000133158CARLA C GUILHERME SILVA MARQUES    03LAVINIA ISABELE GUILHERME MARQUES  MEDICOR                            506952639334031636001201218000000000006651600000741580000561339000000000000000000000000000000000000000000000000000000000000000000000000000000000000000000000000000000000000000000140221220000000000001948329         030024318149000181J0000000000000000000000000000CONSULTOR DE VENDAS 20110701TNE100000000202012182020110620140221N0000000000
M001SOLDI PROMOTORA DE VENDAS LTDA     0100003290000133158CARLA C GUILHERME SILVA MARQUES    03LAVINIA ISABELE GUILHERME MARQUES  MEDICOR                            506952639334030258001201218000000000001691600000741580000561339000000000000000000000000000000000000000000000000000000000000000000000000000000000000000000000000000000000000000000140221220000000000000496329         030024318149000181J0000000000000000000000000000CONSULTOR DE VENDAS 20110701TNE100000000202012182020110620140221N0000000000
M001SOLDI PROMOTORA DE VENDAS LTDA     0100003290000133158CARLA C GUILHERME SILVA MARQUES    03LAVINIA ISABELE GUILHERME MARQUES  MEDICOR                            506952639334030128101201218000000000001691600000741580000561339000000000000000000000000000000000000000000000000000000000000000000000000000000000000000000000000000000000000000000140221220000000000000496329         030024318149000181J0000000000000000000000000000CONSULTOR DE VENDAS 20110701TNE100000000202012182020110620140221N0000000000
M001SOLDI PROMOTORA DE VENDAS LTDA     0100003290000133158CARLA C GUILHERME SILVA MARQUES    03LAVINIA ISABELE GUILHERME MARQUES  MEDICOR                            506952639334031649101201218000000000010261600000741580000561339000000000000000000000000000000000000000000000000000000000000000000000000000000000000000000000000000000000000000000140221220000000000003006329         030024318149000181J0000000000000000000000000000CONSULTOR DE VENDAS 20110701TNE100000000202012182020110620140221N0000000000
M001SOLDI PROMOTORA DE VENDAS LTDA     0100003290000133158CARLA C GUILHERME SILVA MARQUES    03LAVINIA ISABELE GUILHERME MARQUES  MEDICOR                            506952639334031652101201218000000000010261600000741580000561339000000000000000000000000000000000000000000000000000000000000000000000000000000000000000000000000000000000000000000140221220000000000003006329         030024318149000181J0000000000000000000000000000CONSULTOR DE VENDAS 20110701TNE100000000202012182020110620140221N0000000000
M001SOLDI PROMOTORA DE VENDAS LTDA     0100003290000133158CARLA C GUILHERME SILVA MARQUES    03LAVINIA ISABELE GUILHERME MARQUES  MEDICOR                            506952639334030106001201218000000000001691600000741580000561339000000000000000000000000000000000000000000000000000000000000000000000000000000000000000000000000000000000000000000140221220000000000000496329         030024318149000181J0000000000000000000000000000CONSULTOR DE VENDAS 20110701TNE100000000202012182020110620140221N0000000000
M001SOLDI PROMOTORA DE VENDAS LTDA     0100003290000133158CARLA C GUILHERME SILVA MARQUES    03LAVINIA ISABELE GUILHERME MARQUES  MEDICOR                            506952639334030163001201218000000000001691600000741580000561339000000000000000000000000000000000000000000000000000000000000000000000000000000000000000000000000000000000000000000140221220000000000000496329         030024318149000181J0000000000000000000000000000CONSULTOR DE VENDAS 20110701TNE100000000202012182020110620140221N0000000000
M001SOLDI PROMOTORA DE VENDAS LTDA     0100003290000133158CARLA C GUILHERME SILVA MARQUES    03LAVINIA ISABELE GUILHERME MARQUES  MEDICOR                            506952639694010101001201218000000000007301600000741580000561339000000000000000000000000000000000000000000000000000000000000000000000000000000000000000000000000000000000000000000140221220000000000002138329         030024318149000181J0000000000000000000000000000CONSULTOR DE VENDAS 20110701TNE100000000202012182020110620140221N0000000000
M001SOLDI PROMOTORA DE VENDAS LTDA     0100003290000133158CARLA C GUILHERME SILVA MARQUES    02LIVIA MARINA GUILHERME MARQUES     MEDICOR                            506952639234030283001201218000000000009791600000741580000561339000000000000000000000000000000000000000000000000000000000000000000000000000000000000000000000000000000000000000000140221220000000000002867329         020024318149000181J0000000000000000000000000000CONSULTOR DE VENDAS 20110701TNE100000000202012182020110620140221N0000000000
M001SOLDI PROMOTORA DE VENDAS LTDA     0100003290000133158CARLA C GUILHERME SILVA MARQUES    02LIVIA MARINA GUILHERME MARQUES     MEDICOR                            506952639234030199001201218000000000002411600000741580000561339000000000000000000000000000000000000000000000000000000000000000000000000000000000000000000000000000000000000000000140221220000000000000707329         020024318149000181J0000000000000000000000000000CONSULTOR DE VENDAS 20110701TNE100000000202012182020110620140221N0000000000
M001SOLDI PROMOTORA DE VENDAS LTDA     0100003290000133158CARLA C GUILHERME SILVA MARQUES    02LIVIA MARINA GUILHERME MARQUES     MEDICOR                            506952639234030115001201218000000000001691600000741580000561339000000000000000000000000000000000000000000000000000000000000000000000000000000000000000000000000000000000000000000140221220000000000000496329         020024318149000181J0000000000000000000000000000CONSULTOR DE VENDAS 20110701TNE100000000202012182020110620140221N0000000000
M001SOLDI PROMOTORA DE VENDAS LTDA     0100003290000133158CARLA C GUILHERME SILVA MARQUES    02LIVIA MARINA GUILHERME MARQUES     MEDICOR                            506952639234031636001201218000000000006651600000741580000561339000000000000000000000000000000000000000000000000000000000000000000000000000000000000000000000000000000000000000000140221220000000000001948329         020024318149000181J0000000000000000000000000000CONSULTOR DE VENDAS 20110701TNE100000000202012182020110620140221N0000000000
M001SOLDI PROMOTORA DE VENDAS LTDA     0100003290000133158CARLA C GUILHERME SILVA MARQUES    02LIVIA MARINA GUILHERME MARQUES     MEDICOR                            506952639234030258001201218000000000001691600000741580000561339000000000000000000000000000000000000000000000000000000000000000000000000000000000000000000000000000000000000000000140221220000000000000496329         020024318149000181J0000000000000000000000000000CONSULTOR DE VENDAS 20110701TNE100000000202012182020110620140221N0000000000
M001SOLDI PROMOTORA DE VENDAS LTDA     0100003290000133158CARLA C GUILHERME SILVA MARQUES    02LIVIA MARINA GUILHERME MARQUES     MEDICOR                            506952639234030163001201218000000000001691600000741580000561339000000000000000000000000000000000000000000000000000000000000000000000000000000000000000000000000000000000000000000140221220000000000000496329         020024318149000181J0000000000000000000000000000CONSULTOR DE VENDAS 20110701TNE100000000202012182020110620140221N0000000000
M001SOLDI PROMOTORA DE VENDAS LTDA     0100003290000133158CARLA C GUILHERME SILVA MARQUES    02LIVIA MARINA GUILHERME MARQUES     MEDICOR                            506952639234030128101201218000000000001691600000741580000561339000000000000000000000000000000000000000000000000000000000000000000000000000000000000000000000000000000000000000000140221220000000000000496329         020024318149000181J0000000000000000000000000000CONSULTOR DE VENDAS 20110701TNE100000000202012182020110620140221N0000000000
M001SOLDI PROMOTORA DE VENDAS LTDA     0100003290000133158CARLA C GUILHERME SILVA MARQUES    02LIVIA MARINA GUILHERME MARQUES     MEDICOR                            506952639234030184201201218000000000002171600000741580000561339000000000000000000000000000000000000000000000000000000000000000000000000000000000000000000000000000000000000000000140221220000000000000638329         020024318149000181J0000000000000000000000000000CONSULTOR DE VENDAS 20110701TNE100000000202012182020110620140221N0000000000
M001SOLDI PROMOTORA DE VENDAS LTDA     0100003290000133158CARLA C GUILHERME SILVA MARQUES    02LIVIA MARINA GUILHERME MARQUES     MEDICOR                            506952639234031649101201218000000000010261600000741580000561339000000000000000000000000000000000000000000000000000000000000000000000000000000000000000000000000000000000000000000140221220000000000003006329         020024318149000181J0000000000000000000000000000CONSULTOR DE VENDAS 20110701TNE100000000202012182020110620140221N0000000000
M001SOLDI PROMOTORA DE VENDAS LTDA     0100003290000133158CARLA C GUILHERME SILVA MARQUES    02LIVIA MARINA GUILHERME MARQUES     MEDICOR                            506952639234031652101201218000000000010261600000741580000561339000000000000000000000000000000000000000000000000000000000000000000000000000000000000000000000000000000000000000000140221220000000000003006329         020024318149000181J0000000000000000000000000000CONSULTOR DE VENDAS 20110701TNE100000000202012182020110620140221N0000000000
M001SOLDI PROMOTORA DE VENDAS LTDA     0100003290000133158CARLA C GUILHERME SILVA MARQUES    02LIVIA MARINA GUILHERME MARQUES     MEDICOR                            506952639234030634801201218000000000012681600000741580000561339000000000000000000000000000000000000000000000000000000000000000000000000000000000000000000000000000000000000000000140221220000000000003714329         020024318149000181J0000000000000000000000000000CONSULTOR DE VENDAS 20110701TNE100000000202012182020110620140221N0000000000
M001SOLDI PROMOTORA DE VENDAS LTDA     0100003290000133158CARLA C GUILHERME SILVA MARQUES    02LIVIA MARINA GUILHERME MARQUES     MEDICOR                            506952639234031610601201218000000000012681600000741580000561339000000000000000000000000000000000000000000000000000000000000000000000000000000000000000000000000000000000000000000140221220000000000003714329         020024318149000181J0000000000000000000000000000CONSULTOR DE VENDAS 20110701TNE100000000202012182020110620140221N0000000000
M001SOLDI PROMOTORA DE VENDAS LTDA     0100003290000133158CARLA C GUILHERME SILVA MARQUES    02LIVIA MARINA GUILHERME MARQUES     MEDICOR                            606952639234031615701201218000000000012311600000741580000561339000000000000000000000000000000000000000000000000000000000000000000000000000000000000000000000000000000000000000000140221220000000000003606329         020024318149000181J0000000000000000000000000000CONSULTOR DE VENDAS 20110701TNE100000000202012182020110620140221N0000000000
M001SOLDI PROMOTORA DE VENDAS LTDA     0100003290000133158CARLA C GUILHERME SILVA MARQUES    02LIVIA MARINA GUILHERME MARQUES     MEDICOR                            506952639234030106001201218000000000001691600000741580000561339000000000000000000000000000000000000000000000000000000000000000000000000000000000000000000000000000000000000000000140221220000000000000496329         020024318149000181J0000000000000000000000000000CONSULTOR DE VENDAS 20110701TNE100000000202012182020110620140221N0000000000
M001SOLDI PROMOTORA DE VENDAS LTDA     0100003290000133158CARLA C GUILHERME SILVA MARQUES    02LIVIA MARINA GUILHERME MARQUES     MEDICOR                            506952639234030251201201218000000000001691600000741580000561339000000000000000000000000000000000000000000000000000000000000000000000000000000000000000000000000000000000000000000140221220000000000000496329         020024318149000181J0000000000000000000000000000CONSULTOR DE VENDAS 20110701TNE100000000202012182020110620140221N0000000000
M001SOLDI PROMOTORA DE VENDAS LTDA     0100003290000133158CARLA C GUILHERME SILVA MARQUES    02LIVIA MARINA GUILHERME MARQUES     MEDICOR                            506952639234031627001201218000000000015101600000741580000561339000000000000000000000000000000000000000000000000000000000000000000000000000000000000000000000000000000000000000000140221220000000000004424329         020024318149000181J0000000000000000000000000000CONSULTOR DE VENDAS 20110701TNE100000000202012182020110620140221N0000000000
M001SOLDI PROMOTORA DE VENDAS LTDA     0100003290000133158CARLA C GUILHERME SILVA MARQUES    02LIVIA MARINA GUILHERME MARQUES     MEDICOR                            506952639234030311001201218000000000001691600000741580000561339000000000000000000000000000000000000000000000000000000000000000000000000000000000000000000000000000000000000000000140221220000000000000496329         020024318149000181J0000000000000000000000000000CONSULTOR DE VENDAS 20110701TNE100000000202012182020110620140221N0000000000
M001SOLDI PROMOTORA DE VENDAS LTDA     0100003290000133158CARLA C GUILHERME SILVA MARQUES    02LIVIA MARINA GUILHERME MARQUES     MEDICOR                            506952639234031121001201218000000000001691600000741580000561339000000000000000000000000000000000000000000000000000000000000000000000000000000000000000000000000000000000000000000140221220000000000000496329         020024318149000181J0000000000000000000000000000CONSULTOR DE VENDAS 20110701TNE100000000202012182020110620140221N0000000000
M001SOLDI PROMOTORA DE VENDAS LTDA     0100003290000133158CARLA C GUILHERME SILVA MARQUES    02LIVIA MARINA GUILHERME MARQUES     MEDICOR                            506952639234030275001201218000000000008451600000741580000561339000000000000000000000000000000000000000000000000000000000000000000000000000000000000000000000000000000000000000000140221220000000000002475329         020024318149000181J0000000000000000000000000000CONSULTOR DE VENDAS 20110701TNE100000000202012182020110620140221N0000000000
M001SOLDI PROMOTORA DE VENDAS LTDA     0100003290000133158CARLA C GUILHERME SILVA MARQUES    02LIVIA MARINA GUILHERME MARQUES     MEDICOR                            506952639234030204001201218000000000001691600000741580000561339000000000000000000000000000000000000000000000000000000000000000000000000000000000000000000000000000000000000000000140221220000000000000496329         020024318149000181J0000000000000000000000000000CONSULTOR DE VENDAS 20110701TNE100000000202012182020110620140221N0000000000
M001SOLDI PROMOTORA DE VENDAS LTDA     0100003290000133158CARLA C GUILHERME SILVA MARQUES    02LIVIA MARINA GUILHERME MARQUES     MEDICOR                            506952639234030250401201218000000000001691600000741580000561339000000000000000000000000000000000000000000000000000000000000000000000000000000000000000000000000000000000000000000140221220000000000000496329         020024318149000181J0000000000000000000000000000CONSULTOR DE VENDAS 20110701TNE100000000202012182020110620140221N0000000000
M001SOLDI PROMOTORA DE VENDAS LTDA     0100003290000133158CARLA C GUILHERME SILVA MARQUES    02LIVIA MARINA GUILHERME MARQUES     MEDICOR                            506957954314010101001201228000000000007481600000741580000561339000000000000000000000000000000000000000000000000000000000000000000000000000000000000000000000000000000000000000000140221220000000000002191329         020024318149000181J0000000000000000000000000000CONSULTOR DE VENDAS 20110701TNE100000000202012282020110620140221N0000000000
M001SOLDI PROMOTORA DE VENDAS LTDA     0100003530000014055REGINA HELENA NERY BEZERRA         01HELENA PATRICIA NERY DOS SANTOS    BORIS BERENSTEIN RADIOLOGIA        606937813424090124601201201000000000048131600000741580000064033000000000000000000000000000000000000000000000000000000000000000000000000000000000000000000000000000000000000000000000331220000000000014094353         010012857736000160J0000000000000000000000000000CONSULTOR DE VENDAS 20100804TNE100000000202012012020101920000331N0000000000
M001SOLDI PROMOTORA DE VENDAS LTDA     0100003530000014055REGINA HELENA NERY BEZERRA         01HELENA PATRICIA NERY DOS SANTOS    ALEXANDRE JOSE DA SILVA            506969761634010101001201210000000000007481600000741580414087900000000000000000000000000000000000000000000000000000000000000000000000000000000000000000000000000000000000000000000000331221400000000002191353         010000043194524453F0000000000000000000000000000CONSULTOR DE VENDAS 20100804TNE100000000202012102020102620000331N0000000000
M001SOLDI PROMOTORA DE VENDAS LTDA     0100003530000014055REGINA HELENA NERY BEZERRA         01HELENA PATRICIA NERY DOS SANTOS    HOSPITAL ESPERANCA                 206953240378400101101201221000000000138380000000741580000323616010000000000000000000000000000000000000000000000000000000000000000000000000000000000000000000000000000000000000000000331220000000000040517353         010002284062000106J0000000000000000000000000000CONSULTOR DE VENDAS 20100804TNE100000000202012212020102920000331N0000000000
M001SOLDI PROMOTORA DE VENDAS LTDA     0100003530000014055REGINA HELENA NERY BEZERRA         01HELENA PATRICIA NERY DOS SANTOS    VERONICA MARIA LIMA KIRZNER        4   F5J94N01010301500201221000000000053201600000741580031035100000000000000000000000000000000000000000000000000000000000000000000000000000000000000000000000000000000000000000000000331223100000000015577353         010000019577230415F0000000000000000000000000000CONSULTOR DE VENDAS 20100804TNE100000000202012212020102920000331N0000000000
M001SOLDI PROMOTORA DE VENDAS LTDA     0100003530000014055REGINA HELENA NERY BEZERRA         01HELENA PATRICIA NERY DOS SANTOS    VERONICA MARIA LIMA KIRZNER        4   F5J94N01010302300201221000000000122151600000741580031035100000000000000000000000000000000000000000000000000000000000000000000000000000000000000000000000000000000000000000000000331223100000000035765353         010000019577230415F0000000000000000000000000000CONSULTOR DE VENDAS 20100804TNE100000000202012212020102920000331N0000000000
M001SOLDI PROMOTORA DE VENDAS LTDA     0100003530000014055REGINA HELENA NERY BEZERRA         01HELENA PATRICIA NERY DOS SANTOS    EDNA REGINA CLINICA MEDICA         4   F5J94N03130905400201221000000000310801600000741580000331002000000000000000000000000000000000000000000000000000000000000000000000000000000000000000000000000000000000000000000000331220000000000091000353         010020076084000154J0000000000000000000000000000CONSULTOR DE VENDAS 20100804TNE100000000202012212020102920000331N0000000000
M001SOLDI PROMOTORA DE VENDAS LTDA     0100003530000014055REGINA HELENA NERY BEZERRA         01HELENA PATRICIA NERY DOS SANTOS    HOSPITAL ESPERANCA                 3   F5J94N00000000100201224000000003294450000000741580000323616000000000000000000000000000000000000000000000000000000000000000000000000000000003264190000000000000000000000003026000331220000000000964587353         010002284062000106J0000000000000000000000000000CONSULTOR DE VENDAS 20100804TNE100000000202012242020102920000331N0000000000
M001SOLDI PROMOTORA DE VENDAS LTDA     0100003530000014055REGINA HELENA NERY BEZERRA         01HELENA PATRICIA NERY DOS SANTOS    GERALDO ANTONIO GUEDES BASTOS      4   F5J94N03130905400201230000000000099931600000741580714033900000000000000000000000000000000000000000000000000000000000000000000000000000000000000000000000000000000000000000000000331221400000000029259353         010000003733386434F0000000000000000000000000000CONSULTOR DE VENDAS 20100804TNE100000000202012302020102920000331N0000000000
M001SOLDI PROMOTORA DE VENDAS LTDA     0100003700000017098CAROLINE MOREIRA CHAMUSCA          00CAROLINE MOREIRA CHAMUSCA          HEMATO                             706841395764040318101201202000000000008221600000741580000659347010000000000000000000000000000000000000000000000000000000000000000000000000000000000000000000000000000000000000000880307200000000000002408370         000013894995000123J0000000000000000000000000000ASSISTENTE COMERCIAL20090923TNQ200000000202012022020050819880307N0000000000
M001SOLDI PROMOTORA DE VENDAS LTDA     0100003700000017098CAROLINE MOREIRA CHAMUSCA          03GAEL MOREIRA CHAMUSCA DE LUNA      CLINICA MARIO HENRIQUE GUIMARAES   101473276360001150900201203000000000053280000000741580000640302000000000000000000000000000000000000000000000000000000000000000000000000000000000000000000000000000000000000000000200508120000000000015600370         030003828059000160J0000000000000000000000000000ASSISTENTE COMERCIAL20090923TNQ200000000202012032020111320200508N0000000000
M001SOLDI PROMOTORA DE VENDAS LTDA     0100003700000017098CAROLINE MOREIRA CHAMUSCA          00CAROLINE MOREIRA CHAMUSCA          SANLAZZARO MEDICINA AVANCADA       191501073411010101200201214000000000035521600000741580000330396000000000000000000000000000000000000000000000000000000000000000000000000000000000000000000000000000000000000000000880307200000000000010400370         000073734709000194J0000000000000000000000000000ASSISTENTE COMERCIAL20090923TNQ200000000202012142020112419880307N0000000000
M001SOLDI PROMOTORA DE VENDAS LTDA     0100003880000017124LUCIANA DO ESPIRITO SANTO ARAUJO   00LUCIANA DO ESPIRITO SANTO ARAUJO   LABCHECAP                          506935140334030140001201208000000000001691600000741580000732273000000000000000000000000000000000000000000000000000000000000000000000000000000000000000000000000000000000000000000710322200000000000000496388         000013503479000473J0000000000000000000000000000CONSULTOR DE VENDAS 20100719TNE100000000202012082020101319710322N0000000000
M001SOLDI PROMOTORA DE VENDAS LTDA     0100003880000017124LUCIANA DO ESPIRITO SANTO ARAUJO   00LUCIANA DO ESPIRITO SANTO ARAUJO   LABCHECAP                          506935140334030158301201208000000000003021600000741580000732273000000000000000000000000000000000000000000000000000000000000000000000000000000000000000000000000000000000000000000710322200000000000000886388         000013503479000473J0000000000000000000000000000CONSULTOR DE VENDAS 20100719TNE100000000202012082020101319710322N0000000000
M001SOLDI PROMOTORA DE VENDAS LTDA     0100003880000017124LUCIANA DO ESPIRITO SANTO ARAUJO   00LUCIANA DO ESPIRITO SANTO ARAUJO   LABCHECAP                          506935140334030258001201208000000000001691600000741580000732273000000000000000000000000000000000000000000000000000000000000000000000000000000000000000000000000000000000000000000710322200000000000000496388         000013503479000473J0000000000000000000000000000CONSULTOR DE VENDAS 20100719TNE100000000202012082020101319710322N0000000000
M001SOLDI PROMOTORA DE VENDAS LTDA     0100003880000017124LUCIANA DO ESPIRITO SANTO ARAUJO   00LUCIANA DO ESPIRITO SANTO ARAUJO   LABCHECAP                          506935140334031624601201208000000000012081600000741580000732273000000000000000000000000000000000000000000000000000000000000000000000000000000000000000000000000000000000000000000710322200000000000003538388         000013503479000473J0000000000000000000000000000CONSULTOR DE VENDAS 20100719TNE100000000202012082020101319710322N0000000000
M001SOLDI PROMOTORA DE VENDAS LTDA     0100003880000017124LUCIANA DO ESPIRITO SANTO ARAUJO   00LUCIANA DO ESPIRITO SANTO ARAUJO   CAM CLIN DE ASSIST A MULHER        506942562794090130001201208000000000030601600000741580000324035000000000000000000000000000000000000000000000000000000000000000000000000000000000000000000000000000000000000000000710322200000000000008961388         000014526487000155J0000000000000000000000000000CONSULTOR DE VENDAS 20100719TNE100000000202012082020102019710322N0000000000
M001SOLDI PROMOTORA DE VENDAS LTDA     0100003880000017124LUCIANA DO ESPIRITO SANTO ARAUJO   00LUCIANA DO ESPIRITO SANTO ARAUJO   LABCHECAP                          506935140334030254701201208000000000002411600000741580000732273000000000000000000000000000000000000000000000000000000000000000000000000000000000000000000000000000000000000000000710322200000000000000707388         000013503479000473J0000000000000000000000000000CONSULTOR DE VENDAS 20100719TNE100000000202012082020101319710322N0000000000
M001SOLDI PROMOTORA DE VENDAS LTDA     0100003880000017124LUCIANA DO ESPIRITO SANTO ARAUJO   00LUCIANA DO ESPIRITO SANTO ARAUJO   LABCHECAP                          506935140334031652101201208000000000010261600000741580000732273000000000000000000000000000000000000000000000000000000000000000000000000000000000000000000000000000000000000000000710322200000000000003006388         000013503479000473J0000000000000000000000000000CONSULTOR DE VENDAS 20100719TNE100000000202012082020101319710322N0000000000
M001SOLDI PROMOTORA DE VENDAS LTDA     0100003880000017124LUCIANA DO ESPIRITO SANTO ARAUJO   00LUCIANA DO ESPIRITO SANTO ARAUJO   LABCHECAP                          506935140334030250401201208000000000001691600000741580000732273000000000000000000000000000000000000000000000000000000000000000000000000000000000000000000000000000000000000000000710322200000000000000496388         000013503479000473J0000000000000000000000000000CONSULTOR DE VENDAS 20100719TNE100000000202012082020101319710322N0000000000
M001SOLDI PROMOTORA DE VENDAS LTDA     0100003880000017124LUCIANA DO ESPIRITO SANTO ARAUJO   00LUCIANA DO ESPIRITO SANTO ARAUJO   CAM CLIN DE ASSIST A MULHER        506942563294090138601201208000000000060601600000741580000324035000000000000000000000000000000000000000000000000000000000000000000000000000000000000000000000000000000000000000000710322200000000000017746388         000014526487000155J0000000000000000000000000000CONSULTOR DE VENDAS 20100719TNE100000000202012082020102019710322N0000000000
M001SOLDI PROMOTORA DE VENDAS LTDA     0100003880000017124LUCIANA DO ESPIRITO SANTO ARAUJO   00LUCIANA DO ESPIRITO SANTO ARAUJO   LABCHECAP                          506935140334030251201201208000000000001691600000741580000732273000000000000000000000000000000000000000000000000000000000000000000000000000000000000000000000000000000000000000000710322200000000000000496388         000013503479000473J0000000000000000000000000000CONSULTOR DE VENDAS 20100719TNE100000000202012082020101319710322N0000000000
M001SOLDI PROMOTORA DE VENDAS LTDA     0100003880000017124LUCIANA DO ESPIRITO SANTO ARAUJO   00LUCIANA DO ESPIRITO SANTO ARAUJO   LABCHECAP                          506935140334030199001201208000000000002411600000741580000732273000000000000000000000000000000000000000000000000000000000000000000000000000000000000000000000000000000000000000000710322200000000000000707388         000013503479000473J0000000000000000000000000000CONSULTOR DE VENDAS 20100719TNE100000000202012082020101319710322N0000000000
M001SOLDI PROMOTORA DE VENDAS LTDA     0100003880000017124LUCIANA DO ESPIRITO SANTO ARAUJO   00LUCIANA DO ESPIRITO SANTO ARAUJO   LABCHECAP                          506935140334030204001201208000000000001691600000741580000732273000000000000000000000000000000000000000000000000000000000000000000000000000000000000000000000000000000000000000000710322200000000000000496388         000013503479000473J0000000000000000000000000000CONSULTOR DE VENDAS 20100719TNE100000000202012082020101319710322N0000000000
M001SOLDI PROMOTORA DE VENDAS LTDA     0100003880000017124LUCIANA DO ESPIRITO SANTO ARAUJO   00LUCIANA DO ESPIRITO SANTO ARAUJO   LABCHECAP                          506935140334030436101201208000000000003621600000741580000732273000000000000000000000000000000000000000000000000000000000000000000000000000000000000000000000000000000000000000000710322200000000000001062388         000013503479000473J0000000000000000000000000000CONSULTOR DE VENDAS 20100719TNE100000000202012082020101319710322N0000000000
M001SOLDI PROMOTORA DE VENDAS LTDA     0100003880000017124LUCIANA DO ESPIRITO SANTO ARAUJO   00LUCIANA DO ESPIRITO SANTO ARAUJO   LABCHECAP                          506935140334030311001201208000000000001691600000741580000732273000000000000000000000000000000000000000000000000000000000000000000000000000000000000000000000000000000000000000000710322200000000000000496388         000013503479000473J0000000000000000000000000000CONSULTOR DE VENDAS 20100719TNE100000000202012082020101319710322N0000000000
M001SOLDI PROMOTORA DE VENDAS LTDA     0100003880000017124LUCIANA DO ESPIRITO SANTO ARAUJO   00LUCIANA DO ESPIRITO SANTO ARAUJO   LABCHECAP                          506935140334030308001201208000000000001211600000741580000732273000000000000000000000000000000000000000000000000000000000000000000000000000000000000000000000000000000000000000000710322200000000000000355388         000013503479000473J0000000000000000000000000000CONSULTOR DE VENDAS 20100719TNE100000000202012082020101319710322N0000000000
M001SOLDI PROMOTORA DE VENDAS LTDA     0100003880000017124LUCIANA DO ESPIRITO SANTO ARAUJO   00LUCIANA DO ESPIRITO SANTO ARAUJO   LABCHECAP                          506935140334031121001201208000000000001691600000741580000732273000000000000000000000000000000000000000000000000000000000000000000000000000000000000000000000000000000000000000000710322200000000000000496388         000013503479000473J0000000000000000000000000000CONSULTOR DE VENDAS 20100719TNE100000000202012082020101319710322N0000000000
M001SOLDI PROMOTORA DE VENDAS LTDA     0100003880000017124LUCIANA DO ESPIRITO SANTO ARAUJO   00LUCIANA DO ESPIRITO SANTO ARAUJO   LABCHECAP                          506935140334031649101201208000000000010261600000741580000732273000000000000000000000000000000000000000000000000000000000000000000000000000000000000000000000000000000000000000000710322200000000000003006388         000013503479000473J0000000000000000000000000000CONSULTOR DE VENDAS 20100719TNE100000000202012082020101319710322N0000000000
M001SOLDI PROMOTORA DE VENDAS LTDA     0100003880000017124LUCIANA DO ESPIRITO SANTO ARAUJO   00LUCIANA DO ESPIRITO SANTO ARAUJO   LABCHECAP                          506935140334030283001201208000000000011731600000741580000732273000000000000000000000000000000000000000000000000000000000000000000000000000000000000000000000000000000000000000000710322200000000000003435388         000013503479000473J0000000000000000000000000000CONSULTOR DE VENDAS 20100719TNE100000000202012082020101319710322N0000000000
M001SOLDI PROMOTORA DE VENDAS LTDA     0100003880000017124LUCIANA DO ESPIRITO SANTO ARAUJO   00LUCIANA DO ESPIRITO SANTO ARAUJO   LABCHECAP                          506935140334030139701201208000000000001811600000741580000732273000000000000000000000000000000000000000000000000000000000000000000000000000000000000000000000000000000000000000000710322200000000000000531388         000013503479000473J0000000000000000000000000000CONSULTOR DE VENDAS 20100719TNE100000000202012082020101319710322N0000000000
M001SOLDI PROMOTORA DE VENDAS LTDA     0100003880000017124LUCIANA DO ESPIRITO SANTO ARAUJO   00LUCIANA DO ESPIRITO SANTO ARAUJO   LABCHECAP                          506935140334031637801201208000000000024161600000741580000732273000000000000000000000000000000000000000000000000000000000000000000000000000000000000000000000000000000000000000000710322200000000000007076388         000013503479000473J0000000000000000000000000000CONSULTOR DE VENDAS 20100719TNE100000000202012082020101319710322N0000000000
M001SOLDI PROMOTORA DE VENDAS LTDA     0100003880000017124LUCIANA DO ESPIRITO SANTO ARAUJO   00LUCIANA DO ESPIRITO SANTO ARAUJO   LABCHECAP                          506935140334030115001201208000000000001691600000741580000732273000000000000000000000000000000000000000000000000000000000000000000000000000000000000000000000000000000000000000000710322200000000000000496388         000013503479000473J0000000000000000000000000000CONSULTOR DE VENDAS 20100719TNE100000000202012082020101319710322N0000000000
M001SOLDI PROMOTORA DE VENDAS LTDA     0100003880000017124LUCIANA DO ESPIRITO SANTO ARAUJO   00LUCIANA DO ESPIRITO SANTO ARAUJO   LABCHECAP                          506935140334030159101201208000000000003621600000741580000732273000000000000000000000000000000000000000000000000000000000000000000000000000000000000000000000000000000000000000000710322200000000000001062388         000013503479000473J0000000000000000000000000000CONSULTOR DE VENDAS 20100719TNE100000000202012082020101319710322N0000000000
M001SOLDI PROMOTORA DE VENDAS LTDA     0100003880000017124LUCIANA DO ESPIRITO SANTO ARAUJO   00LUCIANA DO ESPIRITO SANTO ARAUJO   LABCHECAP                          506935140334030269501201208000000000004831600000741580000732273000000000000000000000000000000000000000000000000000000000000000000000000000000000000000000000000000000000000000000710322200000000000001415388         000013503479000473J0000000000000000000000000000CONSULTOR DE VENDAS 20100719TNE100000000202012082020101319710322N0000000000
M001SOLDI PROMOTORA DE VENDAS LTDA     0100003880000017124LUCIANA DO ESPIRITO SANTO ARAUJO   00LUCIANA DO ESPIRITO SANTO ARAUJO   LABCHECAP                          506935140334030163001201208000000000001691600000741580000732273000000000000000000000000000000000000000000000000000000000000000000000000000000000000000000000000000000000000000000710322200000000000000496388         000013503479000473J0000000000000000000000000000CONSULTOR DE VENDAS 20100719TNE100000000202012082020101319710322N0000000000
M001SOLDI PROMOTORA DE VENDAS LTDA     0100003880000017124LUCIANA DO ESPIRITO SANTO ARAUJO   00LUCIANA DO ESPIRITO SANTO ARAUJO   LABCHECAP                          506935140334030188501201208000000000002171600000741580000732273000000000000000000000000000000000000000000000000000000000000000000000000000000000000000000000000000000000000000000710322200000000000000638388         000013503479000473J0000000000000000000000000000CONSULTOR DE VENDAS 20100719TNE100000000202012082020101319710322N0000000000
M001SOLDI PROMOTORA DE VENDAS LTDA     0100003880000017124LUCIANA DO ESPIRITO SANTO ARAUJO   00LUCIANA DO ESPIRITO SANTO ARAUJO   LABCHECAP                          506935140334031612201201208000000000022961600000741580000732273000000000000000000000000000000000000000000000000000000000000000000000000000000000000000000000000000000000000000000710322200000000000006723388         000013503479000473J0000000000000000000000000000CONSULTOR DE VENDAS 20100719TNE100000000202012082020101319710322N0000000000
M001SOLDI PROMOTORA DE VENDAS LTDA     0100003880000017124LUCIANA DO ESPIRITO SANTO ARAUJO   00LUCIANA DO ESPIRITO SANTO ARAUJO   LABCHECAP                          506935140334031628901201208000000000007851600000741580000732273000000000000000000000000000000000000000000000000000000000000000000000000000000000000000000000000000000000000000000710322200000000000002301388         000013503479000473J0000000000000000000000000000CONSULTOR DE VENDAS 20100719TNE100000000202012082020101319710322N0000000000
M001SOLDI PROMOTORA DE VENDAS LTDA     0100003880000017124LUCIANA DO ESPIRITO SANTO ARAUJO   00LUCIANA DO ESPIRITO SANTO ARAUJO   LABCHECAP                          506935140334030160501201208000000000001691600000741580000732273000000000000000000000000000000000000000000000000000000000000000000000000000000000000000000000000000000000000000000710322200000000000000496388         000013503479000473J0000000000000000000000000000CONSULTOR DE VENDAS 20100719TNE100000000202012082020101319710322N0000000000
M001SOLDI PROMOTORA DE VENDAS LTDA     0100003880000017124LUCIANA DO ESPIRITO SANTO ARAUJO   01ULISSES SOUZA ARAUJO               HOLOS                              206947000335000047001201211000000000023901600000741580000766429000000000000000000000000000000000000000000000000000000000000000000000000000000000000000000000000000000000000000000811116110000000000006998388         010042220152000140J0000000000000000000000000000CONSULTOR DE VENDAS 20100719TNE100000000202012112020101919811116N0000000000
M001SOLDI PROMOTORA DE VENDAS LTDA     0100003880000017124LUCIANA DO ESPIRITO SANTO ARAUJO   01ULISSES SOUZA ARAUJO               HOLOS                              206947000335000047001201211000000000023901600000741580000766429000000000000000000000000000000000000000000000000000000000000000000000000000000000000000000000000000000000000000000811116110000000000006998388         010042220152000140J0000000000000000000000000000CONSULTOR DE VENDAS 20100719TNE100000000202012112020101919811116N0000000000
M001SOLDI PROMOTORA DE VENDAS LTDA     0100003880000017124LUCIANA DO ESPIRITO SANTO ARAUJO   01ULISSES SOUZA ARAUJO               HOLOS                              206947000335000047001201211000000000023901600000741580000766429000000000000000000000000000000000000000000000000000000000000000000000000000000000000000000000000000000000000000000811116110000000000006998388         010042220152000140J0000000000000000000000000000CONSULTOR DE VENDAS 20100719TNE100000000202012112020101919811116N0000000000
M001SOLDI PROMOTORA DE VENDAS LTDA     0100003880000017124LUCIANA DO ESPIRITO SANTO ARAUJO   01ULISSES SOUZA ARAUJO               HOLOS                              206947000335000047001201211000000000023901600000741580000766429000000000000000000000000000000000000000000000000000000000000000000000000000000000000000000000000000000000000000000811116110000000000006998388         010042220152000140J0000000000000000000000000000CONSULTOR DE VENDAS 20100719TNE100000000202012112020101919811116N0000000000
M001SOLDI PROMOTORA DE VENDAS LTDA     0100003880000017124LUCIANA DO ESPIRITO SANTO ARAUJO   01ULISSES SOUZA ARAUJO               HOLOS                              206947000335000047001201211000000000023901600000741580000766429000000000000000000000000000000000000000000000000000000000000000000000000000000000000000000000000000000000000000000811116110000000000006998388         010042220152000140J0000000000000000000000000000CONSULTOR DE VENDAS 20100719TNE100000000202012112020101919811116N0000000000
M001SOLDI PROMOTORA DE VENDAS LTDA     0100003880000017124LUCIANA DO ESPIRITO SANTO ARAUJO   00LUCIANA DO ESPIRITO SANTO ARAUJO   CLION                              206927352073401999101201216000000000051230000000741580000599646000000000000000000000000000000000000000000000000000000000000000000000000000000000000000000000000000000000000000000710322200000000000015000388         000013501218000171J0000000000000000000000000000CONSULTOR DE VENDAS 20100719TNE100000000202012162020100519710322N0000000000
M001SOLDI PROMOTORA DE VENDAS LTDA     0100003880000017124LUCIANA DO ESPIRITO SANTO ARAUJO   00LUCIANA DO ESPIRITO SANTO ARAUJO   CLION                              206927352073401999201201216000000000580540000000741580000599646000000000000000000000000000000000000000000000000000000000000000000000000000000000000000000000000000000000000000000710322200000000000169978388         000013501218000171J0000000000000000000000000000CONSULTOR DE VENDAS 20100719TNE100000000202012162020100519710322N0000000000
M001SOLDI PROMOTORA DE VENDAS LTDA     0100003880000017124LUCIANA DO ESPIRITO SANTO ARAUJO   00LUCIANA DO ESPIRITO SANTO ARAUJO   CLION                              206927352053401999201201216000000000172750000000741580000599646000000000000000000000000000000000000000000000000000000000000000000000000000000000000000000000000000000000000000000710322200000000000050580388         000013501218000171J0000000000000000000000000000CONSULTOR DE VENDAS 20100719TNE100000000202012162020100519710322N0000000000
M001SOLDI PROMOTORA DE VENDAS LTDA     0100004000000017132JACIRA SOFIA SANTOS                02ERICA SANTANA DOS SANTOS           CLIVALE PROSAUDE IGUATEMI          101521689821010101200201221000000000035521600000741580000755729000000000000000000000000000000000000000000000000000000000000000000000000000000000000000000000000000000000000000000001117120000000000010400400         020033794132000191J0000000000000000000000000000AUXILIAR DE SERVICOS20100722TNE100000000202012212020120320001117N0000000000
M001SOLDI PROMOTORA DE VENDAS LTDA     0100004180000180010DANIELLE BARBOSA DUARTE            00DANIELLE BARBOSA DUARTE            LABORATORIO SAO MARCOS             506959482274030436101201229000000000003201600000741580000272132000000000000000000000000000000000000000000000000000000000000000000000000000000000000000000000000000000000000000000830513200000000000000939418         000016740086000129J0000000000000000000000000000CONSULTOR DE VENDAS 20111020TNE100000000202012292020111419830513N0000000000
